:020000040000fa
:10000000f09301207d4c0501e10e0601e50e06018d
:10001000ed0e0601f10e0601f50e060100000000ce
:10002000000000000000000000000000e1c003012b
:10003000e90e0601000000003dc10301a5c1030156
:10004000476b0401476b0401476b040111f1030185
:10005000476b0401476b0401476b0401476b0401c4
:10006000476b0401476b0401476b0401476b0401b4
:100070000d680301476b0401476b0401476b0401e2
:10008000476b0401476b040151c40301476b040132
:10009000476b0401476b0401476b0401476b040184
:1000a000476b0401476b0401476b0401476b040174
:1000b000476b0401476b0401d19a02017d7d050164
:1000c000092b0501fd990201476b0401476b0401ef
:1000d000476b0401476b040195900501476b0401d0
:020000040000fa
:020000040004f6
:045f8800ffff000017
:020000040000fa
:020000040004f6
:045f8c0000400e843f
:020000040000fa
:020000040004f6
:045f900038fc745f06
:020000040000fa
:020000040004f6
:045f94003844121467
:020000040000fa
:020000040004f6
:045f98000300007191
:020000040000fa
:020000040004f6
:045f9c0002000000ff
:020000040000fa
:020000040004f6
:045fbc0000000010d1
:020000040000fa
:020000040100f9
:1040000007203200fc020020000000000000000039
:1040100006203200fc02002000000000000000002a
:1040200005203200fc02002000000000000000001b
:1040300004203200fc02002000000000000000000c
:1040400003203200fc0200200000000000000000fd
:1040500002203200fc0200200000000000000000ee
:1040600001203200fc0200200000000000000000df
:1040700000203200fc0200200000000000000000d0
:1040800000430800843e0120000000000000000002
:1040900001430100d13a01200000000000000000af
:1040a00002430100d43a012000000000000000009b
:1040b0000a4001002a3b0020000000000000000030
:1040c000004004000c04002000000000000000007c
:1040d00009400100850300200000000000000000ee
:1040e000084020001812002000000000010000001d
:1040f00007403002f018002000000000010000001e
:1041000006400200a803002000000000000000009c
:1041100005403800381200200000000002000000b6
:1041200004400300a2030020000000000000000083
:104130000340f000a01d002000000000030000006c
:104140000240c800e8050020000000000100000057
:1041500001406000182f002065830301000000006b
:1041600001442b00103d0120000000000000000071
:104170000044a000503600200000000000000000b5
:10418000881306010900004cdc3b03010200014cce
:10419000f8b500bff8bc08bc9e4670473dc305019a
:1041a000f8b500bff8bc08bc9e46704719c30501ae
:020000040000fa
:020000040100f9
:0841b000e8a903000100000072
:020000040000fa
:020000040100f9
:1041b800034b93f85201a0f1aa03584258417047a3
:1041c800603b00200a4af0b5d2e93a321978c907ab
:1041d80007d5d0e90067d3e90245af4208bfa64238
:1041e80003d010339a42f1d800231846f0bd00bf1f
:1041f800603b0020074ad2e93a321978c90702d54c
:104208005988814203d010339a42f6d800231846c1
:10421800704700bf603b0020f0b50e4bd3f8e0407c
:1042280093f8e57000231d461eb204ebc60292f80f
:1042380003c0bcf1000f08d034f83660864204d1c0
:1042480096788e4204bfd57055600133dbb29f4229
:10425800ead2f0bd603b0020034b93f84c00a0f17c
:104268004103584258417047603b0020034b93f884
:104278003c00a0f1d603584258417047603b0020eb
:10428800034b93f8c400a0f11303584258417047f8
:10429800603b0020034b93f87801a0f1b703584224
:1042a80058417047603b0020437800f1080210b580
:1042b80013f008040a611dbf0a6000f110020a61c8
:1042c8000c6013f010021fbf0a694a6008320a61c5
:1042d80008bf4a6013f001021fbf0a698a600132f1
:1042e8000a6108bf8a6013f004031dbf0b69cb6025
:1042f8001a78cb601ebf013203eb42030b610b69d6
:10430800181a087510bd084ad2f80c3292f808221b
:1043180003eb8212934201d301207047197809b93f
:104328004033f7e700207047603b0020034b93f8c9
:104338000002a0f1da03584258417047603b002060
:10434800014bfd221a707047603b0020034b93f825
:10435800b900a0f1e603584258417047603b00207d
:10436800034b93f87c02023818bf0120704700bf46
:10437800603b0020034b93f87001a0f18e03584274
:1043880058417047603b0020024bfb2283f86823aa
:10439800704700bf603b0020034b93f86803a0f10f
:1043a800fb03584258417047603b00200c4b30b12a
:1043b8002830d3f8f820904204d300207047d3f86f
:1043c800f400f6e7037803f0fb03012b05d1837ea5
:1043d800db0702d483888b42f0d12830ebe700bf9b
:1043e800603b0020084ad2f8f430c01a074bc010ce
:1043f8004343d2f8fc0000ebc3008079430714bfa5
:1044080000f0070007207047603b0020cdcccccce3
:104418000b4a10b5d2e93d311a78062a09d05c78e2
:10442800022c06d102f0fb02012a02d19a888242ac
:1044380003d028339942efd80023184610bd00bf97
:10444800603b00204bf6dd734343c3f30333094a53
:1044580032f8331030ea010103d102ebc3035b6881
:104468000bb9002070479a88824201d05b6af7e74f
:1044780001207047c43f0020024b662283f8b02316
:10448800704700bf603b002073b50d4bd3f8dc12ba
:1044980093f8e052002201230839d4b2a54206d885
:1044a800002064f3070063f30f2002b070bd0132ef
:1044b80051f832608642f3d05b00dbb2ede700bf13
:1044c800603b00202de9f04f85b098460190002010
:1044d80089461746214cfff7d7ff94f8e032adf82c
:1044e8000c00c0b2834234d904f1f40191e80a40c7
:1044f8009df80d20dff868a000930d466fea020bc7
:104508006b1adb100afb03f395f800c00eebc3032c
:10451800bcf1060fde790ad095f801c0bcf1020f94
:1045280005d0b5f804c0cc4501d0bc4514d10bea80
:104538000606de71009b28359d42e1d3d4f8dc22c3
:10454800019900b202ebc00342f830109f8083f853
:10455800068005b0bde8f08f1643eae7603b00200f
:10456800cdcccccc07b5fff78fff074b93f8e022f3
:10457800c0b2824282bfd3f8dc32002243f8302036
:1045880003b05df804fb00bf603b0020044b93f8c8
:10459800100200f0fd00a0f148035842584170474e
:1045a800603b0020024b272283f81023704700bf8e
:1045b800603b0020034b93f81003a0f127035842f7
:1045c80058417047603b0020034b187ca0f1190349
:1045d80058425841704700bf603b0020094b30b536
:1045e800d3f8a823b3f8ac4300239c4202d100219e
:1045f800084630bd114632f8145b8542f8d00133c5
:104608009bb2f2e7603b002038b505460c46fff741
:10461800e5ff50b9124ab2f8ae33d2f8a813142005
:1046280000fb03100133a2f8ae336278428020f811
:10463800045b002399b28a420ad8094bb3f8ae2327
:10464800b3f8ac1391429cbf0022a3f8ae2338bd47
:1046580004eb43010133498820f8021beae700bf55
:10466800603b0020034bd3f88002b0fa80f0400989
:10467800704700bf603b0020084a10b5d2e9a73256
:104688001c782cb19c7a8c4202d19c88844203d03d
:1046980018339a42f4d80023184610bd603b002016
:1046a80010b50446006948b1636923b15a68a2424b
:1046b80004bf00225a60c368103098470023237053
:1046c80010bd436810b4c3b11a69b2b15c698442c1
:1046d80013d151b114205074002018701046d368bb
:1046e80000f8101f5df8044b1847107928b958785e
:1046f800196161f3c3005870f0e75df8044b704727
:10470800034b93f8a402b0fa80f04009704700bf49
:10471800603b002030b590f83030722b8bb00446e7
:1047280019d86946c069fff7bffd049b9df814209e
:10473800587894f83010023245002a448a420ad147
:104748000130074a58702b44528f5a80023184f83e
:1047580030100bb030bd752384f83030f9e700bf56
:1047680058030020114930b5b1f8ac32d1f8a8028d
:10477800c3ebc303c21800230479e40709d593b136
:1047880045795c79a54238bf034607309042f3d398
:104798001846037943f00103037191f8ae2201230f
:1047a8009340437130bd0346efe700bf603b0020f4
:1047b8000c4a10b5d2f8a832b2f8ac22c2ebc20249
:1047c8001a441c7914f0010f06d0c4f300148c426b
:1047d80002d11c88844203d007339342f1d30023cb
:1047e800184610bd603b002008b5fff7e1ff18b17f
:1047f80003796ff30003037108bdf8b507460e4649
:1048080015461c46fff7d4ff58b18379a34207d356
:10481800094b93f8ae22012393404371458084717c
:10482800f8bdfff79fff0379078003f0f10366f3f4
:1048380004130371f2e700bf603b002010b50b4b77
:10484800d3f8242493f8201401320023994202d18a
:10485800ff23184610bd12f8014c14b11478844295
:10486800f7d00133dbb21c32f0e700bf603b002019
:1048780008b5fff7e3ff084b93f82024824281bf75
:1048880000b2d3f82434c0ebc00003eb80008cbf27
:104898000230002008bd00bf603b002010b5044670
:1048a800c06943785b078ab010d56946fff7fcfcfe
:1048b800039b5a7803eb42039a78db7842ea032396
:1048c8002385012384f832300ab010bd8378c2787a
:1048d80043ea0223f4e7044b93f88001a0f19a031a
:1048e80058425841704700bf603b0020024b0022ed
:1048f80083f8d522704700bf603b002090f88730ce
:1049080043f0020380f88730012380f83230704783
:1049180030b50d4c30b12830d4f8f850a84204d343
:10492800002030bdd4f8f400f6e70478062c09d04e
:104938004478022c06d08488944203d08c4201d05b
:104948009c42eed12830e9e7603b0020034b93f806
:10495800e802a0f13103584258417047603b0020fb
:10496800024a536823ea000050607047603b002009
:10497800024b986eb0fa80f040097047603b002007
:10498800034b93f82804b0fa80f04009704700bf41
:10499800603b002010b5094c502384f85033b4f81c
:1049a8003a33a4f8583304f55270054bc4f8603311
:1049b80031f0f2fa1b2384f8383310bd603b002035
:1049c8004582000108485f2380f81032074bc0f881
:1049d8003032412380f82032002380f8283200f555
:1049e800067031f0d9ba00bf603b00204d55000178
:1049f80073b506466846cde90023fff7e3fb044696
:104a0800d8b9164dd5f8f040d5f8e8309c4203d314
:104a1800d5f8ec309c4205d3114b43f214121a809e
:104a280051f084fed5e93b2310339342c5f8f030aa
:104a380024bfd5f8e830c5f8f0302378668043f015
:104a480001032370dde90023c4e9022323789df8dc
:104a5800182062f34103237002b070bd603b002050
:104a6800802f002037b5164a164cd2f8f430d2f809
:104a7800fc50c31adb105c430378052b09d101a94c
:104a88002c203bf02ffa019bdb0a45f8343003b0a9
:104a980030bd4378022b05d1026a03f2e633534353
:104aa8000193f0e70df1030114203bf01bfa9df888
:104ab800033043f6982203fb02220192e3e700bf8a
:104ac800603b0020cdccccccf0b5214a85b0d36e6c
:104ad80092f8707000244ff4a072064602fb073269
:104ae8008df807402546934214d335b302a940f206
:104af80031103bf0f7f904ab3344052f13f8093ca8
:104b080013d89c422cbf00240124b4b12e7028462f
:104b180005b0f0bd197831b1b14201d10134e4b228
:104b280003f5a073dfe71d46fae713fb07f3b4ebc1
:104b3800930fb4bf01240024e7e701230df1070117
:104b480046208df80730002541f0c6fedfe700bf9c
:104b5800603b002008b5fff7b7ffb8b100f11a03b2
:104b680090f80721c0f89c300023c0f8c43080f8c2
:104b7800c030c0e93233a0f8bc3063f34102044bc3
:104b880080f807215b8fa0f80031803008bd00bf96
:104b980058030020742908b501d9002008bdfff783
:104ba80093ff0028f9d000f10c03c0f8843080305e
:104bb800f4e7f8b50f4d00242e46b5f8ac32a34201
:104bc80000d8f8bdd5f8a822c4ebc4073a44127936
:104bd80002f02102212a03d121460a2041f07cfe5d
:104be800d6f8a8323b4401341a796ff345121a718a
:104bf800a4b2e2e7603b0020164b2de9d043d3f87e
:104c08000c4206460f4644b9134b4ff441521a80e2
:104c180051f07afd2046bde8d08356ea070110d04e
:104c280093f80812234604eb811100248b42f1d239
:104c3800187858b13ab1d3e90289b94508bfb045e7
:104c480005d10024e6e7d3e90689f6e71c46403398
:104c5800ece700bf603b0020802f0020034b0022c0
:104c6800c3e900224ff480707ae600bf643b00205d
:104c7800094bd3f8480493f8442400239a4200d1fe
:104c880070470178032903d1182200215cf06abe1d
:104c980001331830dbb2f1e7603b00202de9f74320
:104ca80001230646884637200df107018df80730a5
:104cb8003bf018f93f4b93f82e20022a4ff00007db
:104cc8009c4606d19df807301bb9032003b0bde808
:104cd800f083394c002394f8e510d4f8e0e01d4641
:104ce80018b20eebc00292f80390b9f1000f37d05a
:104cf8003ef83000b04236d19278424533d1002098
:104d0800e4e737f06dfcd4f8d030d4f8e0c094f87c
:104d1800e57083428abfdb43c01ac01800234ff0f6
:104d2800ff321e460cebc301cc7854b14c6844b139
:104d3800a94206d084420ed9241aa2424c6028bf48
:104d480022460133dbb29f42ecd269681b4b8a4290
:104d580028bf0a4625e04e60ce70f2e70220b5e78c
:104d68000db91f4615465a1cd3b29942b8d2002d28
:104d7800f4d085f80280dcf80c202e800a3201235a
:104d8800b9426a60eb7007d194f8e430013b99426c
:104d98003cbf013184f8e51094f8c830002bb0d13d
:104da800064b0748012155f0abff054855f0bcfffd
:104db80001208be758030020603b0020895e00013a
:104dc800283c00202de9f041537d05460c46164647
:104dd8006bb101784f1efbb20b2b08d862884ff6d7
:104de800f7739a4206d8104b53f82730b3b900200e
:104df800bde8f081082904d84ff48973cb40db075c
:104e0800f1d40a4ba0885b8f8342f0d0e179fff799
:104e180045ff00f0fd000128e5d0e8e732462146cd
:104e2800681cbde8f0411847f4da03015803002074
:104e380013b540f20b100df106013bf053f8bdf825
:104e480006303bb90e4b43f215121a8051f05cfc48
:104e580002b010bd0b4c0c4940f20a203bf028f878
:104e6800bdf80620d4f8e800120183180021c4f820
:104e7800ec305cf077fdd4f8e830c4f8f030e7e7c0
:104e8800802f0020603b0020483c002010b50f4bcd
:104e980093f83720827793f8382081610123934073
:104ea800436140f601030446838300f11f014ff478
:104eb80082703bf017f804f1100140f202203af03a
:104ec800f7ff2046bde8104031f063b858030020d2
:104ed8000348002380f87c3200f5147041f06ebf5f
:104ee800603b002073b5174e0df107014ff4867033
:104ef8003af0f8ff314640f20b203af0d9ffa6f518
:104f080027749df80720d4f89c0202eb4202d200d5
:104f180083180021736000255cf024fd2020357281
:104f2800fff71efda6f11400757241f047ff064b0e
:104f380046f8043c4ff4807306f8085c46f80c3ccd
:104f480002b070bdfc3d0020554f000170b5104cfb
:104f58000023d4f89c5284f8a53201262b7833b16b
:104f6800013bdbb22b707bb92846fff799fbd4f8dd
:104f7800a0321835ab42f1d894f8a5323bb90548b0
:104f8800bde8704041f01abf84f8a562efe770bd34
:104f9800603b0020e83d00200348012380f87c3274
:104fa80000f5147041f0e0be603b0020194b70b56d
:104fb800d3e9a7410646002522784ab993f8a522e5
:104fc800b2b9012283f8a522134841f0cdfe0fe0c3
:104fd8006078000704d4d5b12878904288bf254668
:104fe8001834a142e8d885b12846fff759fb2c466a
:104ff8001822002120465cf0b5fc4ff0000366f350
:10500800c3036370272323702546284670bd2546b1
:10501800e6e700bf603b0020e83d002038b50d4cb6
:10502800d4f8f4502846fff71dfdd4f8f830283599
:105038009d42f7d3084bc4f814314ff40063c4f809
:105048000c31002384f810310448bde8384041f0a1
:105058008bbe00bf603b00203dcd0001643c0020ba
:105068002de9f0470d4691f82010017290461e4632
:1050780042686b6a9342044608d20b449a4205d2ae
:105088001a4b43f2a7121a8051f050fb227a696a30
:1050980060685cf060f904f110016068b5f808a078
:1050a80095f82890277a95f92a50fff7fdf894f893
:1050b80024309df8202084f82890ff1a237884f85b
:1050c800257084f8295062f3000398f80120a4f8a9
:1050d80026a0520862f341039df8242066f3c70313
:1050e80062f382032370bde8f08700bf802f0020a1
:1050f80010b5074c002384f8883004f18000054b74
:10510800c4f88c3030f002ff142384f8b93010bd95
:10511800603b0020b5c7000170b5244c04f56d70e4
:10512800d4f8b4534df00efb2378287913f0100f00
:10513800a5f1080623461ad0042818d11c4b2a7c4e
:105148001a72682384f8b0331a4bc4f8d83306208f
:105158006f2304f57471c4f8b86384f8c8333af05f
:10516800c1fe04f57070bde8704030f015bf062828
:1051780012d10f4a297c1172682283f8b0230d4a94
:10518800c3f8d8236f22c3f8b86383f8c8230a4941
:105198003af0a8fe0948e6e7c22385f8233005f16e
:1051a8001800eb68bde87040184700bf603b00205e
:1051b8005803002029750001303f0020203f0020bf
:1051c8002de9f04143685d78b3f802809e886b074b
:1051d800044600f1380705f001011ffa88f2b0b261
:1051e80012d599b9194b5b8f93420bd1fff7e0faaf
:1051f80040b103795a0705d5c3f3400212b962f3e7
:10520800c3030371022101e00029fbd0e38ca4f859
:105218005a3094f8253084f85c30236a2366238d4d
:10522800a4f864300a4b2367c5f34005002384f8cb
:105238005410a4f85680a4f8586084f86c5084f888
:105248006d303846bde8f0410bf036b95803002000
:1052580073740001a0f57f40fb3804281cd8dfe8f0
:1052680000f0050e161b0300012070470b4b93f846
:105278002e20012a10d1187ac0f380007047074bfe
:1052880093f82e0001288cbf002001207047034ba3
:10529800187ac0f3c00070470020704758030020f8
:1052a8003d2803d111b1024b0a881a80704700bf0c
:1052b8003835012007b531b35028164b08d051288e
:1052c80024d03d2807d11a8909880a441a8102e0a6
:1052d8009a8801329a809988a9b1d8886422424371
:1052e800b2fbf1f2d2b2192a0dd99a785ab9012231
:1052f8009a704ff6ff73adf8043001a814238df8a7
:10530800063011f0dff803b05df804fbda880132eb
:10531800da80e0e7383501200d4a012303fa00f06e
:10532800536810b50b4c0343536023881b070ed4f6
:1053380036f0e6fe238843f00803238036f0f0febb
:10534800054b06481b68bde810401b69184710bd8f
:10535800603b0020a6390120443600204836002052
:10536800034b9a6f192083f8b90011770c20d3e703
:10537800603b0020024bf92283f8b4221020cbe7cf
:10538800603b0020054b0178d3f87c2182f8281077
:10539800472283f880210620bee700bf603b00203b
:1053a800436803221a7059701720b5e737b5164cb1
:1053b80094f85221452a054605d0144b4ff446521d
:1053c8001a8051f0b3f915b1114b9d4205d00f4b1e
:1053d80043f281121a8051f0a9f9aa2384f85231b4
:1053e8000c4bea7a5b8fadf8043052b9102301a850
:1053f8008df8063011f066f80220fff78dff03b034
:1054080030bd0923f3e700bf603b0020802f002058
:10541800983c00205803002070b5184c94f8c4300c
:10542800d4f8c060e82b054605d0154b43f2870237
:105438001a8051f07bf92eb9114b43f288021a8079
:1054480051f074f906f10c039d4205d00c4b43f260
:1054580089021a8051f06af9736a2a791a702a68df
:105468005a60ea791a72e92384f8c43094f8c5308e
:1054780023700d20bde870404ee700bf603b002060
:10548800802f002070b5144cd4f8746105462eb9ed
:10549800124b43f2b4021a8051f048f906f118038e
:1054a8009d4205d00d4b43f2b5021a8051f03ef9ea
:1054b80094f878315e2b05d0084b43f2b6021a8077
:1054c80051f034f92b7886f84c30582384f8783129
:1054d8000920bde870401fe7603b0020802f0020b6
:1054e80070b5164c94f83c20a56b712a064605d079
:1054f800134b43f2d7021a8051f018f92db9104b0b
:1055080043f2d8021a8051f011f905f10c039e42ba
:1055180005d00b4b43f2d9021a8051f007f93379c1
:1055280013b1fa2b08bf002385f82430722384f8be
:105538003c300820bde87040eee600bf603b00202c
:10554800802f002070b50e4c10f80c1cd4f81452a3
:1055580006462a2041f0c0f994f81032602b08d191
:1055680033782b735e2384f810320720bde870402f
:10557800d2e60db15d23f6e7482384f8103270bdfa
:10558800603b002008b5014603484df0b7f80320fa
:10559800bde80840c0e600bfa03b002010b50446a7
:1055a8000120fff7d7fa58b1064a224492f8581159
:1055b800013982f8581180f88640fff7e3ff01208f
:1055c80010bd00bf603b0020132810b5044605d964
:1055d8000c4b43f2d2121a8051f0a8f80a4a22441e
:1055e80092f858310133dbb282f858312bb9054ba8
:1055f80043f2d3121a8051f099f82046bde81040c2
:10560800cce700bf802f0020603b002010b5124877
:105618000c464df097f80346426803f8154f1846b4
:1056280090470e4bd3f8b8228ab1202183f8d412c0
:10563800937d0c2b09d010894ff6f77398428cbfd5
:1056480001200220bde81040bee71020fae77822ca
:1056580083f8d42210bd00bf183e0020603b002014
:1056680010b50720fff730fa0446b8b10c484df0e2
:1056780069f804f13503c4f81031037984f831313d
:105688000346803443f80c4f826818469047054b10
:105698005b6f1bb11520bde810403de610bd00bf93
:1056a800d43b0020603b002038b51c4c1c484df012
:1056b80049f894f84c30032b054605d0194b43f2b2
:1056c800b4121a8051f032f82db9164b43f2b512c4
:1056d8001a8051f02bf8d5f898303bb9114b43f2aa
:1056e800b6121a80bde8384051f00eb805f19c009a
:1056f800984795f8a9301bb90b493c2041f0ecf8c4
:105708000a493d2041f0b6f8a36c1bb10e20bde854
:10571800384001e6412384f84c3038bd603b002016
:10572800a83b0020802f002038350120d0340120ec
:1057380070b5304c94f8c430e72b47d1d4f8c0503a
:105748002db92d4b43f281021a8050f0efff2278d9
:105758006b6ad2071fd51a6aaa61002685f82060ed
:1057680093f8242085f82120244a92f8372085f8d8
:1057780022201022093385f82320214a6b61ea612f
:10578800281d30f006fc237884f8c5302670e823fd
:1057980084f8c43070bdc3221a70e92384f8c43079
:1057a80018484cf0cfff054628b9134b43f2820244
:1057b8001a8050f0bbff686a836a6bb90e4b43f2dc
:1057c8008302bde870401a8050f09ebfe92be7d0f5
:1057d800094b43f28602f4e79847d4f8c03033b156
:1057e800e72384f8c4300d20bde8704094e5132306
:1057f800cee700bf603b0020802f00205803002028
:1058080021540001203c002070b51b4cd4f8745181
:1058180006462db9194b43f2b1021a8050f086ffa3
:1058280005f11c039e4205d0144b43f2b2021a80c4
:1058380050f07cff94f878315d2b05d00f4b43f284
:10584800b3021a8050f072ff337863b96ff07f4368
:105858002b610b4b6b6105f1080030f097fb5e2361
:1058680084f8783170bd85f84c30582384f8783145
:105878000920bde870404fe5603b0020802f0020e4
:105888008d540001f8b5394dd5f86c41062094f8cf
:10589800b110fff77ff92e46002862d00546b4f80c
:1058a800ac2015f8383b23f00703037094f8b030a8
:1058b800a0f856202e4a80f85430528fa0f858206d
:1058c80094f8b12080f85c20012bd4f8901043683c
:1058d80094f8b5c080f86cc00cbf09270827cf1b07
:1058e8007f787f074bbf1b330933036603664cbfc2
:1058f80002f11b0302f109030372bcf1000f02d08d
:10590800036e0e3303661b4b0367012380f86d306b
:10591800006e5bf020fd18484cf014ff0023a4f83b
:10592800a830d4f89430c4f8a03094f8b7308bb9c4
:10593800d4f8983004f19c00984728460af0bcfd3a
:10594800d6f86c315bb10f20fff7e6fc8f2386f8a1
:105958007031f8bd04f10800fff714feede78e235f
:10596800f5e7902385f87031f3e700bf603b00202e
:105978005803002073740001cc3c0020f8b5174c84
:1059880094f82834042b0f4623d1d4f82c641569d5
:105998002eb9134b43f205521a8050f0c7febb795b
:1059a800012b18d10f4841f009fa94f82834042b38
:1059b80007d16b782bb9ab780b4a03f0070382f851
:1059c80053306b78052284f8282416203374fff7a7
:1059d800a3fc0020f8bd0120fce700bf603b0020cd
:1059e800802f0020903f002058030020437843f088
:1059f800010361f341034370044b93f8a42222b9d5
:105a0800932283f8a422052086e47047603b002097
:105a18002de9f041414f42484cf094fe3b78db07ba
:105a2800054673d53f4ec188708fd7e9a7321c78d9
:105a38002cb11c898c4202d19c88844207d018332f
:105a48009342f4d30120fff7b1fa044630b9042396
:105a58006b74eb6805f1100098474ce02a7963787d
:105a680062f346136a7a62f304136370ff23e370e8
:105a7800738fa380eb88238197f884325a1e0d2aee
:105a880040d996f82d30013313f0ff034ff001028f
:105a980014bf86f82d3086f82d2096f82d1087f83b
:105aa8008422262040f018ff96f82d305a1e97f8c9
:105ab800843243ea0213a3722b7ae372b37a256124
:105ac8000133dbb24ff0000863730121204684f8ec
:105ad8000c80b372fff78aff134b59894ff6ff7298
:105ae800914208bfa3f80a805a891049013245201b
:105af8005a8140f0f1fed7f8803263b10420bde846
:105b0800f04109e4013387f88432cde7c22300f875
:105b1800103feb68a0e7bde8f08100bf603b0020c4
:105b2800e03d00205803002038350120423501208f
:105b380008b500f1080108484cf0e0fd074b93f860
:105b4800b023662a07d1672283f8b0231220bde864
:105b58000840fff7e1bb08bd143f0020603b002070
:105b6800134b984237b5054605d0124b43f2050250
:105b78001a8050f0dbfd104c002384f830302b786d
:105b88009bb90e4d238c29460d2021f83a3f3af057
:105b9800d5f994f8313043b96b8fadf8043001a8ca
:105ba80010238df8063010f08dfc03b030bd00bf17
:105bb80064350120802f002038350120580300204b
:105bc800f7b5194c0df1070106462520d4f8f45015
:105bd8003af088f9d4f8fc70d4e93dc10020134ca0
:105be80002462b78062b0fd0a5eb0c03db10634382
:105bf80007ebc303db791e426b7804bf0132d2b2d4
:105c0800022b1cbf0130c0b228358d42e9d340b108
:105c18009df80730984228bf184690428cbf002054
:105c2800012003b0f0bd00bf603b0020cdcccccc40
:105c380010b50a4c6f2304f5ec71062084f8d031b6
:105c48003af050f9064bc4f8e03104f5e47030f04e
:105c5800a3f9352384f8003210bd00bf603b002053
:105c6800a18f0001037810b513b9bde81040dfe734
:105c7800054cd4f88c210a2082f82b30fff74cfb16
:105c8800222384f8003210bd603b002003790a4ac1
:105c98001bb103f0ef03ea2b09d1d2f828330168ce
:105ca8008b4304d0522382f8103308208ce4272336
:105cb80082f81033704700bf603b002010b50446df
:105cc800b830fef74ffc0020134b207013f8012b5f
:105cd800dab1fff763fce8b9104c94f8a4321a2b38
:105ce80002d10520fff718fb94f87031902b05d1ed
:105cf800912384f870310f20fff70efb636f4bb1cf
:105d08001520bde81040fff707bb0130c0b21428ca
:105d1800dcd1e1e710bd00bfb83c0020603b0020ab
:105d280008b5d0f89430c0f8a030002380f8a91046
:105d3800c0f8a43001460d484cf0e0fc0c4a92f83b
:105d48004c30412b07d1032382f84c300e20bde89c
:105d58000840fff7e1ba032b07d0064b43f2b31212
:105d68001a80bde8084050f0cfbc08bda83b002011
:105d7800603b0020802f002038b5446890f88330bd
:105d880084f8a8300d463830fef7ecfb294620464b
:105d9800bde83840c4e70a49d1f80c32834205d837
:105da80091f8081203eb8113984205d3054b43f28f
:105db80041021a8050f0a8bc402200215bf0d2bdfd
:105dc800603b0020802f00202de9f0412a4dd5f8b6
:105dd8000c4295f8086286b004eb8616a4b341f627
:105de8004c574ff00008b44234d22178022934d1fc
:105df800238cadf80030d4e90623cde902238df8d1
:105e080011108df8128063789b0712d595f87c32b3
:105e1800022b0ed0fff75cf85bf0eaf980b2b0fb1a
:105e2800f7f307fb130317fa83f3c5f85832fff7a4
:105e3800b3f863788df810302046fff7acff68465a
:105e480010f0b4fa4034cee70c4b43f242021a8009
:105e580050f05afc06b0bde8f0810329f2d1238a3c
:105e6800adf80030d4e90223cde90223637d8df833
:105e780011108df81230c6e7603b0020802f0020fb
:105e8800f8b5174bd3f8e060d3f8d47093f8e55021
:105e98004ff0ff32002106ebc104e07830b16068b2
:105ea800c01b606090b1824228bf02460131c9b26e
:105eb8008d42f0d2511c0bd00a4b0b48012154f0f3
:105ec8001fff0948bde8f84054f02ebfe070ede729
:105ed800002283f8e5200448bde8f84054f02cbfc0
:105ee800603b0020895e0001283c002013b5002398
:105ef8000df107014ff498708df8073039f0f2ff73
:105f08009df807308bb10a4c94f890238b2a05d161
:105f1800084b43f203221a8050f008fc94f890339f
:105f28008a2b02d1044840f049ff02b010bd00bfdf
:105f3800603b0020802f0020f43e0020084831b943
:105f4800042380f8283400f5866040f00dbfd0f8af
:105f58002c34052280f8282419741620fff7dcb9a0
:105f6800603b00200748012380f85433064bdb6868
:105f7800c0f85033054bc0f8583300f5527040f064
:105f8800f3be00bf603b0020580300209d4900017c
:105f98002de9f843194de9886b8f99422ad01849a1
:105fa80091f83833922b23d1537d0d2b20d11369cf
:105fb8005c7814f0e0001bd1012c19d1d5e91089c7
:105fc800d3f80670d3f80260b94508bfb04512d1be
:105fd800da7a9d7a1b7b81f83c5342ea0323a1f8c5
:105fe8003a331923c1f8400381f83833fff7baff71
:105ff800012000e00020bde8f88300bf580300201e
:10600800603b00200b4881b9552380f810330123e9
:1060180080f8203342f21073c0f81c33064bc0f8e6
:10602800243300f5457040f09fbe272380f81033d5
:10603800704700bf603b0020ad45000107b54ff435
:106048008a7001a939f04eff134b93f87a2219464a
:10605800d2b193f87b22013ad2b283f87b229ab16b
:10606800019858b10122c3f86c0283f87c2203f529
:10607800197040f079fe03b05df804fb022283f842
:106088007c22fff7a1faf6e743f69823c1f85832c5
:10609800fef782ffefe700bf603b002008b50f491d
:1060a8001d2039f01fff0e4bd3f89c23aab142f2f2
:1060b8005d718a429cbf42f25e72c3f89c23012242
:1060c80083f8a023074ac3f8a4238a2283f89023dd
:1060d8000548bde8084040f047be08bdfc3e00202a
:1060e800603b002059b70001f43e002007b50023ab
:1060f8000df107014ff498708df8073039f0f2fe72
:106108009df8073053b1084b93f89033892b08d08a
:10611800064b4ff448521a8050f0f6fa03b05df877
:1061280004fbfff7bbfff9e7603b0020802f00204e
:1061380008b5074b93f890338b2b05d0054b43f2ea
:1061480002221a8050f0f2fabde80840a6e700bf24
:10615800603b0020802f002070b5144d064605f5e1
:106168007d70d5f8f4434cf0edfa114991f83830c8
:1061780084f82230d1e91023c4e906234b8f238405
:1061880084f82360e36804f118009847d5f8f433dd
:106198003bb1172385f8f0331320bde87040fff7b3
:1061a800bbb8162385f8f03370bd00bf603b0020f4
:1061b80058030020027810b51ab11046bde8104007
:1061c800cae743782e4c502b3dd011d8462b1dd012
:1061d8004b2b32d0452b3cd1462384f800340f2377
:1061e80084f8083404f57e70bde810402ff0d4be62
:1061f800532b13d06f2b1ad0522b2ad1532384f848
:106208000034204b5b8fa4f80834ebe7522384f862
:1062180000341c4b1b7ac3f3c003e1e76f2304f57a
:106228008161062084f8003439f05cfedae74b23fc
:1062380084f80034134b1b88e5e7502384f80034b6
:10624800104b9b8fdfe70f4b84f8002493f838300e
:10625800c6e794f800348bb90a4b0b481b7a13f045
:10626800080f14bf6ff07f430023c4f80034074bb6
:10627800c4f80434bde810402ff088be10bd00bf3c
:10628800603b002058030020583f0020996200011d
:10629800007810b9014bbd221a705de7603b002001
:1062a80038b5104d2b7cc22b2c4618d105f11400a3
:1062b8004cf048fa4368083098476b6963b1c123ca
:1062c8002b74012384f82030074b636207482ff0b2
:1062d8001dfec323237401e019232b7438bdc12b81
:1062e800fcd1eee7603b002061d80001783b00203c
:1062f800037907b56bb1084b93f85320920708d57b
:106308005b8fadf8043001a809238df8063010f032
:10631800d9f803b05df804fb5803002010b50c4c05
:1063280099b90c4bb4f86a231b7c84f83c330a4bac
:10633800c4f84033192384f83833a4f83a23fff714
:1063480011fe862384f8683310bdfb23fae700bfeb
:10635800603b0020580300209143000110b51e4cfb
:1063680094f82834d4f82c04012b224620d1237821
:10637800db0618d503790e2b03d8437913f0fe0feb
:1063880009d0052382f82834c12303741620bde8f8
:106398001040fef7c1bf022384f828341220bde85c
:1063a8001040fff711b9052384f82834c223ece71d
:1063b800052b0fd183680c30984704f22c404cf021
:1063c800c1f9d4f82c341bb1012384f82834dde753
:1063d80084f8283410bd00bf603b00200178134bbf
:1063e800e12910b41846d3f8ec4216d193f8e92203
:1063f800032a12d80e490132888f0988a3f800139e
:1064080083f8e922a421a3f8fa0283f8e81203f535
:106418003c705df8044b2ff0c5bda523217380f8af
:10642800e8325df8044b0120fef776bf603b0020a0
:106438005803002037b5304890f810325d2b0446d9
:1064480032d10278d0f81432d20714d5602280f8fd
:1064580010221b79294ac0f83022003318bf0123c3
:10646800412280f8202280f8283200f506702ff0ab
:1064780093fd03b030bdc2221a735e2380f8103238
:106488001f484cf05ff9d4f8143205467bb1c2239b
:1064980003735d2384f810320720fef73dffab68d5
:1064a80005f10c009847e4e75e2be2d1e8e70379b1
:1064b8005a1ed2b2fd2a0bd84ff47a725343c4f84d
:1064c8004032104840f050fc4a2384f81032e6e786
:1064d800ff2b0fd10df107014ff4957039f002fd34
:1064e8009df80730012b01d1074be8e7022b01d1ba
:1064f800064be4e74823e8e7603b00204d550001e0
:10650800743d0020983d002000c8af0030e0030033
:10651800094b9a6f92f91220002a06da13220021f9
:1065280083f8b9200846fef7e3bd122283f8b920a4
:106538000620fff749b800bf603b00202de9f7436c
:10654800354d95f86833fb2b49d13449c8884b8fb2
:10655800984244d1507d092841d91669d1e91023c0
:10656800d6f80690d6f802804b4508bf424536d18a
:10657800737813f0e00732d103f01f030533b0eb53
:10658800430f2cd18c8f4ff482700df1070139f035
:10659800a9fc9df807300133dbb20134a4b28df8b1
:1065a800073038464ff6ff7c9ab27378c1b203f0d1
:1065b8001f038b420ad9a5f86cc300217778cbb2a8
:1065c80007f01f07bb420ed38f421cdc1449154845
:1065d800a5f86a43fef75afc832385f8683301203f
:1065e80003b0bde8f0830b1d06eb43035b881b1b60
:1065f8009bb29342e8d9b5f86c739f4288bfa5f85f
:106608006c330131dae7031d06eb430301305c8884
:106618000134a4b2c9e700bf603b00205803002042
:1066280099820001d03e002030b5134c002384f835
:10663800b83094f8ad3085b02546bbb904f1a00058
:106648002af04efd20b9d4e9282352ea03010fd1dc
:106658000a4900220023c1e9102395f8ac108df8ef
:1066680008106846cde900230ff0fafe05b030bdea
:1066780094f8ac10f3e700bf603b002058030020fb
:1066880010b5014604460e484cf038f80d4b93f807
:10669800d422782a12d1202283f8d422a37d0c2b6d
:1066a8000ad020894ff6f77398428cbf0120022048
:1066b800bde81040fef788bf1020f9e710bd00bf05
:1066c800183e0020603b002030b40c4c94f8d552a2
:1066d80095b984f8d2320123a4f8c402a4f8c612ea
:1066e800a4f8ca22a4f8c82284f8cc5284f8d53277
:1066f80004f52f7030bcc3e730bc7047603b002006
:1067080010b441b1c469b0f880206188a0885df8f0
:10671800044b0b23d8e75df8044b70470023038034
:1067280010b50178154a63f30101017092f83340fe
:10673800837064f3850101704178c37041f00201f0
:106748004170518f818092f834104900ff2928bf89
:10675800ff218171917a0131c9b29172c17192f8a8
:106768002e10022904d192f85330003318bf0123a8
:10677800427863f34512427010bd00bf58030020f1
:106788002de9f041c469184e05462046b76ffff75a
:10679800c5ff23784ff0010868f30103237063787d
:1067a80043f0100363702af08ffcd0e90023e36004
:1067b8003b8a63806378a2606ff3c303637004232a
:1067c800237460236374122384f8068085f83030bc
:1067d8003b8aa5f880302b850222182385f82520ce
:1067e80086f8b930bde8f081603b00202de9f04122
:1067f800c469214d06462046af6ffff78fff237807
:106808004ff0010868f301032370637843f0100325
:1068180063702af059fcd0e900236361b5f8883029
:1068280063806378226143f008036370d5f8803091
:10683800a360d5f88430e36004232376402363768d
:1068480084f80680fb7c002b14bfc02340236376aa
:106858003a7d12b143f020036376b5f8883033856a
:106868001a2386f8303095f88a3086f832301623a5
:1068780085f8b930bde8f081603b0020f8b5284bb9
:10688800d3f80c4293f80832074604eb8313a3426b
:1068980007d8244b43f243021a80bde8f8404ff072
:1068a80033bf2678012e01d04034f0e7fd69284631
:1068b800fff734ff2b78627d66f301032b706b784a
:1068c80023f0180343f0180362f341036b70638ae3
:1068d8006b80a368ab60e368eb60134b5b8fab80a6
:1068e8002af0f2fbd0e900236b610723ae712b7607
:1068f800238aa5f81930237deb76638a2a613b85c4
:1069080063787c6013f0080f4ff01c0387f8303071
:1069180008bf0526042387f832602370f8bd00bf3e
:10692800603b0020802f0020580300202de9f04113
:10693800c4691a4fdff8688005462046fff7eefe67
:106948002378d7f88c21012666f301032370637836
:10695800527b23f0180343f0100362f34103637082
:10696800d7f890319b886380b8f83a30a3802af032
:10697800abfbd0e90023a671e3600623237498f8e3
:1069880008306374d7f89031a2609b882b85122356
:1069980085f8326085f83030bde8f081603b002032
:1069a800580300202de9f04fc4697d4e85b0074695
:1069b8002046fff7b3fe2378012565f30103237012
:1069c800637843f0100363702af07efbd0e900235c
:1069d800e3606ff00303a3700333e37008232374a9
:1069e800637ca571002161f3c71363746d4ba260ca
:1069f800d3e91089d6e93d02b6f878e24ff6f77a7e
:106a0800904273d31a2996f87a5200f28e80637cea
:106a1800002d40f0828023f0600343f0600363742c
:106a280004f160030193d6f8f4300093d6f8f830f7
:106a38000393d6f8fc3002935a4bb6f8785296f87e
:106a48007ac2d3e9102304f112099b469246ae4656
:106a58004b464ff00008009a002603998a42c0f07e
:106a6800828026b3009ab5881d80b11a4e4ac91093
:106a78005143029a02ebc1019a7888798979c0f367
:106a8800c20060f30202c1f3020161f3061202f0d0
:106a98007702bcf1000f9a701cbfae46e046520761
:106aa800019a18bf033301359a42adb2d3d8b8f171
:106ab800000f02d03a4aa2f878e2a3eb09093b4b4f
:106ac800627c03fb09f363f304026274bcf1000ff8
:106ad80002d1334aa2f878c203f01f0303eb430341
:106ae800123387f8303005b0bde8f08f0378062bf5
:106af80011d04578022d0ed0d0e904bce14508bf7d
:106b0800d84508d18388534505d8012d03d19e4522
:106b18009cbf0131c9b2283072e7002223f060031c
:106b280086f87a2243f0400379e71db1637c23f0ad
:106b3800600374e71e4940f2131039f0d3f996f850
:106b48007b32012b637c23f060031bbf43f02003df
:106b5800637443f0600301230abf637486f87a32d2
:106b680086f87a525ce71178062914d05178022900
:106b780011d0d2e904018b4508bf82450bd1918819
:106b88004ff6f770814206d88d4204d82eb1b088ee
:106b9800884288bf164628325fe71646fbe700bfe3
:106ba800603b002058030020cdccccccabaaaaaacd
:106bb800db3d0020f8b5294bc469d3f8485493f855
:106bc80044240646002393420bd12046fff7a6fd36
:106bd8002278012363f30102a371002322705b88ea
:106be800ffde2f78012f03d001331835dbb2eae737
:106bf8002046fff793fd2378a77167f301032370fd
:106c08006b886380637843f0100363702af05cfa42
:106c1800d0e9002363616378226143f0080363705d
:106c2800ab68a360eb68e3600c2323766b7863762c
:106c38000b4b93f85320a37e510862f3000361f3d2
:106c48004103a3761b2386f8303075600223aa74ab
:106c58002b70a37e6ff3c703a376f8bd603b0020bb
:106c68005803002070b5c46905462046fff756fd55
:106c78002378012666f301032370637843f0100339
:106c880063702af021fad0e90023e3604ff0ff3364
:106c9800a370e3706378a2606ff3c30363700c4b57
:106ca8001a6cc4f812205a6c1b7ca3760a2323742e
:106cb800084bc4f81620b3f86a23a4f81b201d2239
:106cc800667485f83020852283f8682370bd00bf7c
:106cd80058030020603b002010b5204c94f8e8329f
:106ce800a32b33d1d4f8ec3200221a732278d207be
:106cf8005cbfc2221a731a79aab1c1221a73a523da
:106d080084f8e83216484bf01dfd83680c3098472c
:106d1800d4f8ec32ebb1a32384f8e8320120bde8c3
:106d28001040fef7f9ba1b7b002be8d10d4b0e483b
:106d38009a8f1b88a4f800334ff4d273a4f8fa2270
:106d4800a4f8e832bde810402ff02cb9a52bd9d013
:106d580010bd312384f8e832fae700bf603b002019
:106d68004c3e002058030020503e002010b5144b24
:106d780093f800319a4294bf9b1adb1adbb299420e
:106d88001cd2104b5c7c60b1a10708d493f8480072
:106d9800904294bf0020012080f0010010bd002027
:106da800fae7e20705d493f84900884294bf002027
:106db800012080f0010000f00100efe70120ede77d
:106dc800603b002058030020054b1a78d20705d5f0
:106dd800022283f87c220020fef7f6bbfef7dcb81f
:106de800603b002008480378db0705d5022380f8bc
:106df8007c320020fef7e8bb012380f87c3200f5e6
:106e080019703ff0b1bf00bf603b002010b5194baf
:106e180093f80031994294bf5b1adb1adbb29842af
:106e2800154b06d393f8202002f07b0283f820202c
:106e380010bd5c7ca20718d493f848208a4294bffe
:106e48000021012193f8202061f3820283f8202099
:106e5800e2070cd493f84920824294bf0020012015
:106e680093f8202060f3c712e0e70021eae700204a
:106e7800f6e700bf603b0020580300200c4a10b41e
:106e8800d2e93d34002108461a78062a0ad002f0d1
:106e9800fb02012a06d15a78022a0bbf01300131c0
:106ea800c0b2c9b228339c42eed85df8044bade7b6
:106eb800603b0020124b002293f832109a77da7f59
:106ec80061f3030293f8331061f30712da7793f84a
:106ed8002020597a02f0fc0261f3c60283f82020d0
:106ee8001a6cc3f821205a6cc3f82520ff2283f8b6
:106ef800292002f57f425a851a7c83f82c20bde7a9
:106f080058030020f8b5454dd5f87441064604f1fc
:106f180008072cb9424b43f2ae021a804ff006fc28
:106f280004f124039e4205d03d4b43f2af021a8080
:106f38004ff0fcfb33784bb184f84c30582385f87c
:106f480078310920bde8f840fef7e6b995f87831c0
:106f5800593b072b59d8dfe803f0041b353b585839
:106f680044156f23237404f11801062038f0baff82
:106f7800602385f878312b4b23623846bde8f8400a
:106f88002ff00ab8462323740f2323765a23f0e7f9
:106f9800254e002306f140013320737238f0a2ff1a
:106fa800d6e91023134305d12af08ef8d0e900233f
:106fb800c6e91023fff77eff452323741b4ba3610b
:106fc8005b23d6e752232374012323765c23d0e77f
:106fd8008323237404f11801082038f083ff5f230a
:106fe800c7e7114b9a8f228293f83820a27493f83e
:106ff8003730e3740123a3820d4ba36138462ef08a
:10700800ceff5d2385f87831f8bd054b43f2b00219
:107018001a80bde8f8404ff077bb00bf603b002006
:10702800802f00200d6f00015803002076030020f8
:107038001158000173b52a4c00250df1070140f2e3
:1070480007108df8075038f04dff9df8073084f889
:10705800343004f148014ff4837038f043ff0df1e8
:10706800070140f2051038f03dff94f848209df8dc
:1070780007309a4239bf9b1a84f8493084f848305f
:1070880084f849500226fff7f9fe0df1070119208f
:107098008df8076038f026ff9df8073084f82f3008
:1070a80094f82e300f499b1b18bf0123222084f827
:1070b800533038f017ff0c4b43f6095093f8325011
:1070c8002af01cf806fb05054ff400602af016f8b4
:1070d80005eb500094f834504543e56002b070bdac
:1070e80058030020ac030020a02e002038b51a4c0d
:1070f8002378db062ad5194dd4f8f43318221b7ce3
:1071080084f8f02305f13c0117202b7238f0eafed1
:1071180005f13801162038f0e5fefff78bfffff781
:10712800c9fe0f4bc4f81034452384f8003404f525
:107138007e7005f11e03c4f808342ef02dff95f873
:1071480038102420bde838403ff0c6bbc220bde857
:107158003840fff701b800bf603b0020580300200b
:10716800bd6100012de9f04f724a90f8863090f821
:107178008280c46902eb031385b093f83c308df824
:107188000b3008f1ff3305460f460192092b14d83e
:10719800dfe803f0b1130513133434131334e12972
:1071a8000bd000296288adf80c200cbf13230923eb
:1071b80003a88df80e300ff085f95f4b93f82e2059
:1071c800022a07d06278d10740f1a380227a920779
:1071d80000f0a58095f88630019a02eb03139b6bab
:1071e80013b13946284698479df80b301bb1a5f1d5
:1071f8008000fef763fd05b0bde8f08fb4f802b07b
:1072080061781ffa8bf601f001013046fdf7d0fadc
:107218000346002847d04279bfb9ff2a12d1474a0e
:10722800d2f8a832b2f8ac22c2ebc2021a441979d9
:10723800c90741bf59794908013159710733934248
:10724800f5d3bae701324271b7e752b13b4991f839
:10725800ae1242fa01f111f0ff0108bf0121521ae2
:1072680042715a791979003218bf012262f300017c
:107278001971314ab4f804a0528f1ffa8af0824279
:107288009bd02278920798d113b11b79db0794d44d
:10729800b8f1060fb5f8809008d100234a46314668
:1072a800fff712fa89e7002f87d0e2e7234e96f816
:1072b800d582b8f1000f80d103462a8d4946404651
:1072c800fdf726fb00283ff478af0c2386f8d2326e
:1072d8008388a6f8c8320123a6f8c4b2a6f8c6a2c5
:1072e800a6f8ca9286f8cc8286f8d53206f52f70b1
:1072f800fff7c6f961e7b0f880206188a08800230d
:10730800fff7e2f96178608801f00101fdf76cfa96
:1073180053e761884ff6f77291423ff65baf5a88a0
:1073280001325a80002f3ff455af9a8801329a8073
:1073380050e700bff4da030158030020603b002047
:1073480008b550f80c3c40f8503c037900f83c3c38
:107358000378a3b9114b9a8f30f84c3c9a4204d168
:107368006438bde808402ef020bea0f16c010c483e
:107378004bf0c4f90320bde80840fdf7cdbf022b50
:1073880008d009d3042b8cbfc321ce216c38bde8ab
:107398000840e7e6cc21f9e7c321f7e758030020c6
:1073a800a43b002017b441688a79013ad3b28b71a3
:1073b800027812f0010202d01a1c18bf01220378c9
:1073c80062f300030370dbb2da0748d5c269a2b3df
:1073d800182262f3c7030370037a8df8003003782c
:1073e8000191c3f3c4038df80130c38cadf80230aa
:1073f800019b5a786ff345125a709df8013080f856
:1074080086309df8003080f83030019b90f8872056
:10741800c361bdf80230a0f88030002363f3410255
:10742800436480f84030c0e91233838780f88720ae
:1074380003b05df8044bfef7a5b80a7802f0030222
:10744800012ac9d1026a1478052c01d11922c0e792
:10745800032cc1d152780c2abed11a22b9e7803840
:1074680003b05df8044bfef729bc10f8743cdb0749
:1074780001d5743896e7f438fef720bcd0b5134c24
:10748800134ad4f8b83392f8381083f82a10d2e99e
:107498001067528f1a8583f82b00c3e908675a6969
:1074a80003f1200090470023c4f8b833d4f8b4336c
:1074b8003bb1672384f8b0331220bde8d040fdf714
:1074c8002bbf662384f8b033d0bd00bf603b0020db
:1074d800580300200f4b0079d3f8b823127b062af3
:1074e80000d1cbe7042a10d178b96a2283f8b023f7
:1074f800094ac3f8d823452283f8c823074ac3f8a2
:10750800d02303f570702ef047bdea2808bfca20c3
:10751800e7e700bf603b00202975000176030020e3
:1075280002780ab11046a9e74378462b30d002d832
:10753800452b22d07047522b33d06f2b43d1224892
:10754800692180f8b013032180f8dc13d0f8b81350
:107558000b6bc0f8d43391f8341080f8dd131b4955
:1075680080f8df2391f83710194a80f8de13c0f845
:10757800d82300f570702ef00cbd1348462380f810
:10758800c8330f2380f8d03300f570702ef004bd97
:107598000d48522380f8c8330c4b1b7ac3f3c00341
:1075a800f0e70a4b08481b7a13f0080f14bf6ff076
:1075b8007f430023c0f8c833064bc0f8cc3300f52e
:1075c80070702ef0e3bc7047603b00205803002029
:1075d800dd740001e1750001007868b907486b2384
:1075e80080f8b033064bc0f8cc33532380f8c83347
:1075f80000f570702ef087bc40e700bf603b0020ac
:107608000d76000138b505781db12846bde838402b
:1076180034e74478502c16d0532c07d04b2c1dd16e
:107628001b4b02891a801b48502304e0184b02891f
:1076380018485a874b2380f8c83300f57070bde8a6
:1076480038402ef060bc1249038921f83c3f1720ce
:1076580038f074fc0f4880f8c853eee7b4b90c4d05
:10766800037a2946162001f8383f38f067fcfff7ff
:1076780021fc084b2046bd221a70fff7fffe95f843
:1076880038102420bde838403ff026b938bd00bf87
:1076980058030020603b0020f0b5537d122b87b0c3
:1076a8000d4614461ed81669177d7078ba1c81b22b
:1076b8003b44dbb202eb4102934213d10023aa8878
:1076c8008df807008df80430adf8052002a89ab2ad
:1076d8008a420ad301a93e203ff0fef82169a88812
:1076e800fcf792ff002007b0f0bd06eb430701331b
:1076f800ba78ff7842ea072220f8022be7e72de95b
:10770800f047c469214ddff88880af6f06462046f0
:10771800fff704f823784ff0010a6af30103237096
:10772800637843f01003637029f0cefcd0e900239e
:10773800e3606ff00203a3700233e370a260e179a3
:10774800b8f83a00fdf7aafa637884f806a04ff073
:10775800000969f3c30363700423237484f8119048
:1077680098f82e30022b03d0fb7c0bb18023637476
:107778003b7d1bb1637c43f020036374122386f8be
:107788003030132385f8b930bde8f087603b00201e
:10779800580300202de9704316460c46fdf74ef8b5
:1077a800144b93f82024824203d80023336001202d
:1077b80017e0d3f8243400b2c0ebc00003eb80001c
:1077c80010f1140f4ff000033360f0d0d4e90089b2
:1077d8004369d3e90045a94508bfa04503d13360f3
:1077e8000020bde87083826910339a42f1d80220e4
:1077f800f7e700bf603b002030b58bb043680593c6
:10780800044690f824308df8183005a83ef04af95f
:107818000799002951d0089b002b4ed094f82420ba
:107828000244207a824248dc1a680d685b68cde918
:1078380002236b1c33d001aa02a99df81900fff797
:10784800a9ff01282bd0019b13b19b689d4226d923
:107858009df81900fdf70cf8206470b31a4b93f8e3
:107868004b3084f84430089b1a685b68c4e90c23e1
:1078780004f13003a3646368e36494f8243084f863
:107888005030237a84f85130104b6365002384f814
:10789800523004f138003ef0f9f80bb030bd9df8d5
:1078a8001900fcf7e5ffe38cadf8043050b9162356
:1078b80001a88df806300ef005fea4f18000fef751
:1078c800fdf9eae71123f3e758030020c7d40001c4
:1078d8000d4b37b50d4cd3f82c2494f85350052193
:1078e80083f82814fe2313741620fdf715fdab0743
:1078f80008d5638fadf8043001a809238df8063048
:107908000ef0e0fd03b030bd603b002058030020be
:1079180037b50546214c38b194f85231442b03d180
:1079280004f59a73984205d01d4b43f282121a80cf
:107938004ef0fcfe2d78aa2384f852314dbb194a2b
:10794800b4f828315387adf8043001a810238df816
:1079580006300ef0b7fd94f85331d3b10d2384f8f7
:107968002e314ff6fd73a4f820310233a4f82431e8
:10797800b4f85031a4f822310b4bc4f81c310b4831
:1079880084f82851462384f85231fef779fe03b073
:1079980030bd0220fdf7c0fcf9e700bf603b0020c6
:1079a800802f002058030020c98c0001783c00205b
:1079b800f8b53b4d95f87831d5f87441572b064604
:1079c80005d0384b43f2a8021a804ef0affe2cb90e
:1079d800344b43f2a9021a804ef0a8fe04f11003ba
:1079e8009e4205d02f4b43f2aa021a804ef09efe0b
:1079f8003379002b43d13168e2698a4307d1294b97
:107a080043f2ba021a80bde8f8404ef07dbeb7686e
:107a1800f679202001219e420dd9114207d017f88e
:107a280003c00133bcf1cc0f88bf8a43dbb20138f5
:107a38004fea4101efd1012384f8243094f84d3006
:107a480084f82530184be26193f8373084f82630f3
:107a580004f127014ff4827038f044fa04f1180158
:107a680040f2022038f024fa04f108060f4b236292
:107a780030462ef08efa562385f87831f8bdfa2b69
:107a880003d1084b43f2bb02bce784f84c305823bf
:107a980085f878310920bde8f840fdf73dbc00bf06
:107aa800603b0020802f002058030020b97a000195
:107ab8002de9f04f8a4f97f87831d7f8744185b09f
:107ac800562b0646009705d0864b43f2ab021a8028
:107ad8004ef02cfe2cb9834b43f2ac021a804ef0c8
:107ae80025fe04f110039e4205d07e4b43f2ad0201
:107af8001a804ef01bfe337923b103f0ef02ea2a15
:107b080040f0e3803268e3699343019300f0dc803e
:107b1800d6f8089096f807c04d4600204ff6ff7e2d
:107b280084450dd1ff25a846aa4600234ff0010c35
:107b3800019a12ea0c0f40d00021ce460a4631e0e5
:107b4800b5f80480421cf045d2b202d1183510466f
:107b5800e6e702eb420395f810a009ebc3031146d0
:107b68008c45f3d0884209d0b3f804b0c34505d199
:107b780093f810b0d34508bfa3f804e00131c9b2a7
:107b88001833ede79ef810b09b4507d1bef804b056
:107b98004ff6ff77bb451cbf0132d2b20131c9b2e3
:107ba8000ef1180e8142edd11ab91cf4c30f63d13e
:107bb800984652453cbf92461d460133dbb2202b06
:107bc8004fea4c0cb4d1b8f1ff0f57d1ff2d05d1b6
:107bd800444b43f2b8021a804ef096fddff80cb120
:107be80000238bf838500df10d011820d6f80890b5
:107bf80096f807a08df80d3038f074f99df80d80cf
:107c08005e46b8f1000f40d159f0f2fa80b20af19d
:107c1800010badf80e0043464ff6ff71884204bfd2
:107c28004ff001080020cc46002292450bd09cf86a
:107c380010e0ae4524d1bcf804e0864520d10130df
:107c480080b24ff0010801339bb29b45e6d8b8f1ea
:107c5800000f01d0adf80e00bdf80e30b3874ff617
:107c6800ff72934217d11f4b43f2b9021a804ef0ac
:107c78004bfd05b0bde8f08f1d46afe74546ade7c3
:107c88000132d2b20cf1180ccfe70df10e0117201a
:107c980038f028f9e0e794f8453004f108000bb112
:107ca800b4f84630738723830f4b2362009a53231b
:107cb8002374592382f878312ef06ef996f838102b
:107cc80024203ef009fed4e7c423009a84f84c30ff
:107cd800582382f878310920fdf71efbc9e700bf59
:107ce800603b0020802f00200d6f0001580300200a
:107cf800014b588f704700bf5803002070b50b4cdc
:107d080094f830500e467db9532323762084084bcf
:107d1800a36204f110002ef03ff9012384f83030fb
:107d280084f83160284670bdc320fce7383501204f
:107d3800695b0001014b93f831007047580300203c
:107d480008b5fcf73ffa18b103786ff30003037026
:107d580008bd08b5014604484af0d0fc1120bde82a
:107d68000840fdf7d9ba00bf383e002008b50146e3
:107d780038b9104b43f2d0021a80bde808404ef0e3
:107d8800c3bc0d484af0bafc0c4a92f83c30d62bda
:107d980007d1702382f83c300820bde80840fdf781
:107da800bbba703b022b03d9024b43f2d102e3e783
:107db80008bd00bf802f0020983b0020603b0020ba
:107dc80070b5474c94f80032212b254640f083804b
:107dd80004f5c4704af0b6fca0f10803c4f88c316d
:107de800404b027c1a72fff725f92378db0629d568
:107df800d4f88c311a7b023a012a23d8322284f82b
:107e08000022227093f8342084f8fd211a6bc4f8fc
:107e1800f4210022c4f8f02184f8ee219b7b324a39
:107e2800c4f8f821012284f8fc212bb104f5e47090
:107e3800bde87040fff79abf84f8ec31bde87040a8
:107e4800fdf7f6bed5f88c31c22283f82b20222309
:107e580085f80032234cd5f88c11638f0b85d1e956
:107e68000023c1e9082391f82b6094f8383081f891
:107e78002a30f6b9d5f89031d3e9042304f13c014e
:107e88001720c4e9102338f059f804f138011620f6
:107e980038f054f8fff70ef8bd232b70637ad5f845
:107ea8009021c3ebc303dbb2928831463046fcf71e
:107eb800a4fcd5f88c014369203098470023c5f805
:107ec8009031d5f888314bb10a20fdf725fa2123e6
:107ed80085f8003201e0222bbcd070bdda23f7e729
:107ee800603b0020580300206d5c000108b5014686
:107ef80038b9104b4ff442521a80bde808404ef092
:107f080003bc0d484af0fafb0c4a92f8c430132b14
:107f180007d1e72382f8c4300d20bde80840fdf7fb
:107f2800fbb91933dbb2022b03d9024b43f28a02a5
:107f3800e2e708bd802f0020203c0020603b0020a5
:107f480008b5014638b9104b43f2a0021a80bde8c3
:107f580008404ef0d9bb0d484af0d0fb0c4a92f8c5
:107f68007831b72b07d1542382f878310920bde83e
:107f78000840fdf7d1b9543b0c2b03d9024b43f20f
:107f8800bc02e3e708bd00bf802f0020d43c0020de
:107f9800603b00204b1edbb2fd2b10b507d90d4b03
:107fa80043f2a0421a804ef0affb00200de00a4acf
:107fb800d2f81834d2f81c241c783cb958801970af
:107fc800014611203ef088fc012010bd04339a427e
:107fd800f2d8eae7802f0020603b00202de9f0412d
:107fe80007460e4641b9124b43f2a1421a804ef0a1
:107ff8008bfb3046bde8f0810e4d0020d5f81844c3
:10800800804623786bb16288ba420ad1ff2e01d02c
:10801800b34206d1112084f8008039463ef05cfc5a
:108028000120d5f81c340434a342ead8e2e700bfa3
:10803800802f0020603b0020f7b5064640b9104b62
:1080480043f2a3421a804ef05ffb304603b0f0bd06
:108058000c4d0020d5f818440746ff2e02d023788f
:10806800b34207d123680193122001a93ef034fce2
:1080780027700120d5f81c340434a342edd8e5e775
:10808800802f0020603b002038b50c4639b90e4bd4
:1080980043f2a2421a804ef037fb002038bd0b4a4b
:1080a800d2f81834d2f81c141a7832b15d88854297
:1080b80003d1ff2c05d0a24203d004339942f3d850
:1080c800ebe70120eae700bf802f0020603b00209b
:1080d800064ad2f81834d2f81c240020197809b9b5
:1080e8000130c0b204339a42f8d87047603b002090
:1080f800084b30b10430d3f81c34984204d3002024
:108108007047d3f81804f6e70278002af8d104304b
:10811800f3e700bf603b002013b50d4c0df10701dc
:1081280040f2151037f0defe214640f21120a4f58a
:10813800836437f0bdfe9df80720d4f81804920038
:108148008318c4f81c34002159f00cfc02b010bd8f
:10815800783f0020014b83f85300704758030020f4
:10816800014b83f85400704758030020014b93f8e3
:108178005300704758030020014b83f853007047a1
:1081880058030020014b93f854007047580300200f
:10819800014b1888704700bf58030020014b988f87
:1081a800704700bf58030020014b9887704700bff5
:1081b80058030020014bd3e91001704758030020f1
:1081c800d0e90001014bc3e91001704758030020b2
:1081d800014b93f82e00704758030020014b93f889
:1081e8003800704758030020034b014683f83800d5
:1081f80024203ef071bb00bf58030020014bd86813
:10820800704700bf58030020014bd888704700bf53
:1082180058030020014bd880704700bf5803002046
:1082280008b5054b0146187422203ef055fbbde801
:108238000840fef73fbe00bf5803002073b505781d
:10824800114cc5b9114eb4f83a33b387fcf7f0fdb9
:1082580006f13c01172037f071fe94f83c03fff754
:10826800dffffef727fe0f2301a8adf804508df8b5
:1082780006300ef027f9922384f83833d4f84033c7
:1082880003b1984702b070bd603b0020580300203e
:1082980038b503791f4c05468bb103f0ef03ea2b81
:1082a8000dd01d4b187c0130c0b2fff7b9ff8423f5
:1082b80084f868330920bde83840fdf785b9ea79c4
:1082c800b4f86c339b1a9bb2a4f86c336bb158f0ba
:1082d8008fffb4f86c2380b2b0fbf2f302fb1303f8
:1082e800b4f86a030344a4f86a330023ea799a428b
:1082f800d7d9aa68b4f86a0303eb430102ebc102b9
:1083080001339288824204bf0132a4f86a23dbb2a7
:10831800ece700bf603b002058030020014b187cad
:10832800704700bf58030020014b83f830007047a6
:1083380058030020014b93f833007047580300207e
:10834800014b5888704700bf58030020014b98889c
:10835800704700bf58030020024b00225a809a80c1
:10836800704700bf58030020014b9874704700bf46
:1083780058030020084b1b7cc21a002ab8bf52427f
:10838800c72a04dc984294bf002001207047984215
:108398008cbf002001207047580300200a4b1b7c2b
:1083a80098420fd0c21a002ab8bf5242c72a04dc2a
:1083b800984294bf00200120704798428cbf00204b
:1083c800012070470120704758030020324b2de9e7
:1083d800f047d3f8f440314d06460f4690464ff02b
:1083e80000099a462378062b43d06378022b40d0a5
:1083f80056ea070309d0d4e90423bb4208bfb242b6
:1084080037d1607efff7caff98b3a37eb8f1000f9b
:1084180037d013f0040f2cd0b9f1000f39d0daf8a7
:10842800f430daf8fc10e21aa9eb0303d210db10df
:108438006a436b4301ebc20201ebc303127919795a
:10844800637e511a99f8192093420ad0981a002885
:10845800b8bf4042c72817dc93428cbf00230123d2
:108468003bb9193105db58f0c3fe10f0080f08bfff
:10847800a146daf8f83028349c42b3d34846bde820
:10848800f08713f0020fc6e7934294bf002301233d
:10849800e6e7a146ede700bf603b0020cdcccccca1
:1084a80010b5154cd4f88c310122d3e90001fff73f
:1084b8008dffc4f89001a8b1002384f801320f4a57
:1084c800c3889387a4f8d83150220d4bc4f8e03103
:1084d80004f5e47084f8d0212df05efd292384f89a
:1084e800003210bdd4f88c31c32283f82b200a2027
:1084f800fcf712ff2223f2e7603b0020580300201c
:10850800a18f000110b50f4c99b9d4f89c3103f52f
:108518001173c4f89c310c4bc4f8a43104f5ca702b
:10852800012384f8a0313ef01ffc2d2384f800328b
:1085380010bdd4f890319a7e6ff382029a76bde826
:108548001040ade7603b0020558500010d4a0e48fc
:10855800127ad0f8903112070fd4022280f8b02195
:10856800da889b88a0f8b831084ba0f8b221c0f887
:10857800c03100f5d4702df015bd9a7e6ff38202dc
:108588009a768de758030020603b0020c9bd0001a2
:1085980086e70b4a92f801320133dbb2022b82f8ec
:1085a800013206d9d2f890319a7e6ff382029a7618
:1085b80076e7282382f800320320fdf705b800bfcc
:1085c800603b002010b50278174cd4f88c3142b1ca
:1085d80083f82b200a20fcf79ffe222384f8003220
:1085e80010bd197b032915d1104b1b7a13f0080312
:1085f80004d1c4f89c31bde81040cae7812384f84f
:10860800d03104f5e4700a4bc4f8d4312df07bfc6a
:108618002b23e3e783f82b20222384f800320a2057
:10862800bde81040fcf778be603b002058030020ee
:108638003d860001037810b5094c2bb98368c4f84e
:108648009c31bde81040a4e7d4f88c210a2082f8b8
:108658002b30fcf761fe222384f8003210bd00bfe6
:10866800603b0020f8b58b79012b0f46164650d198
:108678008c68cd6828f028fdd0e900239d4208bf0a
:10868800944246d1354d95f80032a3f12c02012ac7
:108698002c4649d805f5ca703ef090fbb7f819107a
:1086a8004ff6ff738b4236d0fb7e002b33d1d5e9d2
:1086b80063022b4d80f82b30698791882980d17807
:1086c80085f838101370137e507e0133dbb20f2b00
:1086d80028bf0f236b72fff7a3fd73682bb11968ce
:1086e800d4f890215b68c2e90213532384f8d0318f
:1086f8006b8fa4f8d8311b4bc4f8e0311a482df021
:108708004bfc2e2384f8003295f8381024203ef0d4
:10871800e3f80120f8bdd4f890319a7e6ff3820215
:108728009a76fff7bdfef4e7da2bf2d10c4a92f8fd
:108738002e30022bedd1b7f819305387a5f8d83170
:108748005322084bc5f8e03185f8d02105f5e470cf
:108758002df022fc312385f80032dae7603b002057
:1087680058030020a18f0001283d002010b51d4ca2
:10877800d4f88c310022d3e90001fff727fec4f8b2
:10878800900108b3002384f80132174b93f837207f
:1087980084f8d121c27884f8d02102221b7a84f887
:1087a800d221c288a4f8d421828884f8e03104f563
:1087b800e4700e4bc4f8e431a4f8d8212df09afbec
:1087c800232384f8003210bdd4f88c31ca2283f8f0
:1087d8002b20222384f800320a20bde81040fcf741
:1087e8009bbd00bf603b002058030020bd9e0001d8
:1087f800034b00229a709a80da801a81704700bf72
:108808003835012010b5fff7f3ff3ef0f3fa054cb9
:108818006063383420463ef0d1fa2046bde8104067
:108828003ef0a2ba3835012010f0fb0f03d1074bf8
:1088380001221a757047052801d00e2804d1034b70
:1088480000221a75fff7debf704700bfd034012041
:10885800004870473a350120044b054a1a64012242
:1088680083f84420034a9a64704700bf38350120d2
:10887800a075e9000d88000108b53ef0bbfa064b6b
:108888005b6bc01a054b984297bf4ef66023ff20da
:10889800b0fbf3f0c0b208bd383501209f75e90080
:1088a800037b03f0fd02042a10b5014603d1bde89d
:1088b8001040fdf73db9012b01f10801104c0fd113
:1088c80004f57d7049f01aff94f8f033162b15d192
:1088d800172384f8f0331320bde81040fcf71cbdc3
:1088e80004f5c47049f00aff94f80032da2b05d178
:1088f8000a20fcf711fd212384f8003210bd00bfc7
:10890800603b002008b50146084849f0f7fe084bcf
:1089180093f8b920e62a07d1112283f8b9200c2050
:10892800bde80840fcf7f8bc08bd00bfd83b0020f4
:10893800603b002038b5174b174993f8b8501c46d0
:1089480035bb022a1bd1a3f8a800012384f8ad3057
:1089580000220023c4e9282391f8203284f8aa30a1
:10896800002384f8ab3001250c4b84f8ac50c4f8d4
:10897800b0300b48fff7c6ff84f8b85008e0032a68
:10898800e6d100200021c3e92801012283f8ad20a7
:1089980038bd00bf603b0020f4da030131660001f6
:1089a800f83b002010b50e4c94f8b830b3b900224b
:1089b8000023c4e928230b4b84f8ac0093f8203239
:1089c80084f8aa3004f19800074bc4f8b03084f852
:1089d800ab10fff797ff012384f8b83010bd00bf34
:1089e800603b0020f4da03013166000110b4094c41
:1089f800094ad4f8f430c31adb105a43d4f8fc30cf
:108a08005df8044b03ebc2039a7961f302029a7191
:108a1800fcf728b8603b0020cdcccccc10b5074c77
:108a280094f87c32022b08d0fcf752fa012384f820
:108a38007c32bde81040fef7c7b910bd603b00208e
:108a480008b50146084849f059fe084b93f87021cb
:108a58008e2a07d18f2283f870210f20bde80840a5
:108a6800fcf75abc08bd00bfcc3c0020603b00208e
:108a78004ff6ff7398420d4a1abf013080b20020aa
:108a8800b2f8ac12d2f8a822c0ebc003134481425a
:108a980002d84ff6ff7070471a7902f00502052ace
:108aa80003f10703f7d0013080b2f0e7603b002004
:108ab800034bc0ebc000d3f8a832185a704700bf68
:108ac800603b0020034bd3f8a832c0ebc00003443e
:108ad80058887047603b002001460a203df090be50
:108ae80001460a203df0c6be0c4b30b12830d3f801
:108af800f820904204d300207047d3f8f400f6e73a
:108b0800037803f0fb03012b05d14378022b02d134
:108b180083888b42f0d12830ebe700bf603b002010
:108b280010b50b4a0b49d2f8f430898fd2f8f820e7
:108b38001c78062c05d09c88844202d1dc888c42a3
:108b480003d028339a42f3d80023184610bd00bf3b
:108b5800603b0020580300202de9f041254a264fac
:108b6800d2e93a35eb1a92f80051013505eb231595
:108b78000e46adb204464ff6f678631e9bb24345e7
:108b880088bf01247b8fa34214d02046fbf732fb19
:108b980020bb2046fff7c4ff38b1d0e90201d6e96f
:108ba8000023994208bf904209d12046bde8f081d0
:108bb8001d46e2e7304628f093fa0028e5d1013453
:108bc8006b1ea4b29bb2002df2d10c4b43f20602ed
:108bd8001a804ff6ff744df097fde6e703789b0780
:108be800edd4d0e90201d6e90023994208bf9042aa
:108bf800e5d1cee7603b002058030020802f0020fd
:108c080010b586b0cde900232023adf80c300df166
:108c18000a03adf80a0004930446002303a91e20a2
:108c280005933df059fe059b43b1bdf80a0069461e
:108c3800fff792ff0446204606b010bd0c4b93f890
:108c48003120002af7d193f82f30022b09d14ff6a3
:108c5800f7739c4202d958f0cbfa84b26946204691
:108c6800e6e7032b0cbfbdf800404ff6ff74e2e7c0
:108c78005803002038b501220546d0e90201fbf768
:108c8800bbff0446d8b10023aa7e0375437862f37c
:108c9800c3034370ab884382d5e902234ff6fe70c5
:108ca800fff7aeffd5e90223c4e90223012320829e
:108cb800637523700420bde83840fcf785bc38bdd7
:108cc80010b5164c38b194f85231462b03d104f242
:108cd8002d13984205d0124b43f283121a804df09f
:108ce80025fd104b93f82e30022b0ed0b4f850010e
:108cf800fbf78efb48b1827e6ff3c3028276fff7e3
:108d0800b9ff472384f8523110bdaa2384f85231a1
:108d18000220bde81040fcf7ffba00bf603b00200e
:108d2800802f002058030020f7b54b4c227812f012
:108d3800400f0f46254609d094f85221aa2a07d099
:108d4800b4f85021824201d184f8531103b0f0bd28
:108d5800424e84f85311718fa4f85001814296f85d
:108d68002e204ed1002af1d0022a03d096f82f30b7
:108d7800022b25d0d6e91023c5e946230323a5f8fd
:108d880024310df10701292037f0acf89df80720b0
:108d980001230ab185f8253196f8382085f826315f
:108da8009340c5f84831082385f84c312c4bc5f859
:108db8002c31452385f852312a48fff771fdc5e764
:108dc800012ac3d14ff6fe7428f07ef9d0e90023ba
:108dd8002046fff715ff738f8342f5d04ff6f773e0
:108de8009842b3d8532385f820311f4bc5f830314a
:108df8004423a5f8280185f852311a482df0ccf8fb
:108e0800a4e7022aa2d0cfb10d22184b84f82e2154
:108e1800c4f81c314ff6fd720023a4f8202184f811
:108e2800283102324623a4f82201a4f8242184f828
:108e3800523104f58c70fdf723fc87e7fbf7e8fa5d
:108e4800002883d0472284f85221827e67f3c30228
:108e58008276fff70fff79e7603b00205803002078
:108e6800b5530001783c002019790001c98c000134
:108e7800014b0021588f57e75803002030b5274b86
:108e88001b78db0787b008d5537d042b05d11469ff
:108e980065780b2d16d003d85db1012007b030bd21
:108ea8000c2d25d00d2df8d100216088fff73cff4f
:108eb800f3e760884ff6f7739842eed82946fbf738
:108ec80093fceae701238df804306388adf8053098
:108ed8008b88adf807303e2001a93df0fdfc608885
:108ee800fbf77cfb0028d8d04ff6ff730380d4e74c
:108ef80002238df804308b88adf8053001a93e2097
:108f08003df0eafca378e2788df8025043ea0223a8
:108f18006846adf800300df0d5fabee7603b00209a
:108f280010b51c4c94f85231aa2b14d1d4e93d3217
:108f38001978062902d0997e090722d4283393424a
:108f4800f6d3d4e93a311a7802f00302032a03d09f
:108f580010338b42f7d310bd5a88a4f850211a78e1
:108f68006ff341021a700121b4f85001fff7dcfedb
:108f780094f85231aa2beed10220bde81040fcf73c
:108f8800cbb99a88a4f850219a7e6ff3c3029a76d7
:108f9800e9e700bf603b0020037873b5624c53b12a
:108fa800d4f88c210a2082f82b30fcf7b5f922235b
:108fb80084f800323ae094f80032243b112b35d87b
:108fc800dfe803f04e566a343439463434347c864c
:108fd800919d34365f09d4f88c311b7b032b23d148
:108fe800524d95f831307bb96a8f4ff6f7739a4234
:108ff80002d958f0fdf868876e8f28f065f80146a9
:109008003046fff7a9fd6887532384f8d0316b8f6a
:10901800a4f8d831332384f800324548454bc4f8c6
:10902800e0312cf0b9ff01e0fff7a0fb02b070bd02
:10903800fff736fafae7d4f890313c4adb7882f841
:109048003830002284f8d83184f8d0212a23e2e786
:10905800452384f8d031384bc4f8d8312423dae7d3
:10906800462384f8d0310f2384f8d8312523d2e75a
:109078008323324984f8d031082036f033ff342373
:10908800c9e7522384f8d031284b1b7ac3f3c003b5
:1090980084f8d8312623bee7244b25481b7a13f0e1
:1090a800080f14bf6ff07f430023c4f8d031244b5e
:1090b800c4f8d4312cf06aff272379e74b2384f8ce
:1090c800d031d4f890319b88a4f8d8312f23a2e767
:1090d8004a2384f8d031d4f89031d3e90223c4e983
:1090e8007623302397e7d4f88c31002283f82b209d
:1090f8000a20222384f80032fcf70ef996e70b4b7e
:109108005b8fadf8043001a810238df806300df000
:10911800d9f9d4f8883123b10a20fcf7fdf82123c6
:1091280046e7da2344e700bf603b002058030020ed
:10913800283d0020a18f000176030020383d002043
:10914800cd8500010c4b5b8f834210b5044603d1db
:10915800bde8104027f0b8bffff7e2fc28b1d0e91e
:109168000223134301d0083004e02046fbf742f8fd
:109178000028f8d110bd00bf58030020f8b5c46915
:109188001b4d06462046d5f82c74fdf7c7fa227801
:10919800012363f30102a371164b22701b886380bd
:1091a800637843f01003637027f08effd0e9002343
:1091b80063616378226143f0080363706088fff796
:1091c800c1ffd0e90023e3600b2323763b79637664
:1091d800a260a37e7a7962f300036ff34703a37654
:1091e8001b2386f83030032385f82834f8bd00bfe8
:1091f800603b0020580300202de9f041254fc46949
:10920800d7f8b0624660338d03854ff0010880f8c7
:10921800328005462046fdf781fa2378627868f3a4
:1092280001032370f369588860809b88a38042f00b
:1092380010026270fff786ff3b46d6e9147128b327
:10924800627842f008026270d0e900c26161c4f835
:1092580008c0e26027611821e869f46905264654c8
:1092680042180d48a488408f84420bbf0020012477
:109278005070547016bf5080022204220a4485f8a8
:109288003020f82283f8b422bde8f081e160a760bd
:109298001021e1e7603b0020580300202de9f04150
:1092a800c4693c4e05462046fdf738fa2378f08815
:1092b8006080012262f301032370637843f0100396
:1092c8006370fff73fff637800283bd043f0080343
:1092d8006370d0e90023a260e36027f0f5fed0e9cf
:1092e8000023183444f8043c44f8082c182385f863
:1092f800303009232370637827486ff3471363706e
:10930800336cc4f80230736cc4f80630b38fd0f8ed
:10931800247390f823c36381002101238c451fd156
:10932800627863f30402627095f8302003f01f033b
:109338000a3202eb430385f83030542380f81033a7
:10934800bde8f08160f3c303637027f0bdfed0e988
:109358000023103444f8043c44f8082c1023c6e7d2
:1093680004eb4302be885681002202f10108043250
:1093780004eb4202b2f802e076455ffa88f2f4d1d3
:10938800934203d20133dbb2102bc9d00131c9b2e9
:109398001837c3e758030020603b00202de9f0414f
:1093a8004ff6ff77c46907858b7880f885300646c5
:1093b80020460d46fdf7b2f92378e770012262f3e3
:1093c800010323706ff00303a370eb7aa3716b7b27
:1093d800e371a888a080fff7b5fe40b3637843f037
:1093e80010036370d0e900234ff00808a260e3601f
:1093f800f36908f108070122da55dc1969786378fe
:1094080001f0600c03f04003bcf1200f637010d131
:1094180043f040036370ab7aa3702b89a4f8033040
:10942800ab786371063786f83070bde8f081804606
:10943800dee76ff3861328896370bcf1000f07d14c
:1094480011f0100fdbb218bf022262f3c403e1e788
:10945800fff778fe0028ded0637843f020036370be
:10946800d0e9002308f11007c4f80620c4f80a3030
:10947800d1e72de9f04f85b0884601925b4a0f9eef
:1094880092f82e109df838409df840504ff6fe7b1c
:10949800022907469a46a6f800b091461dd11288bf
:1094a800328013b9824208bf012503238df80c309e
:1094b8008df80d50fe238df80e309df80c300020ed
:1094c80063f307009df80d3063f30f209df80e300d
:1094d80063f3174005b0bde8f08f2bb11cb34ff60e
:1094e800ff7333800823e1e74ff6f7729042f6d80e
:1094f800fff716fb0446b0b1827ed30707d44ff4ba
:1095080081733780adf80c308df80eb0d5e702784e
:10951800052a02d04278022a05d14ff48273378097
:10952800adf80c30c6e751463846fbf741f900283c
:1095380052d0428832801ffa82fc027990f806b035
:1095480051073ed5b9f83a1041454bd1130749d4d4
:109558000721baf1000f01d1674545d05d4528bf05
:109568005d46edb214b3062920d12148214ad0f82e
:10957800f430e31adb105a43d0f8fc3003ebc20393
:109588009879c0f3c2072046faf72cff99f83530ce
:10959800b842b8bf38465b4528bf5b46dbb2984245
:1095a80011d2a3883380834601250421338843459b
:1095b80002d0019a934208d14ff6fe7333800121fd
:1095c80003e00621c5e70029f0d18df80c108df8cd
:1095d8000d5099e72146f8e74ff0fe0b002cf9d023
:1095e8000146c2e70a21bde70125bbe75803002071
:1095f800603b0020cdcccccc30b5c5698bb00446df
:1096080069462846faf750fe9df8142094f8303041
:109618009a4228d80123039a84f8323053786bb9d8
:109628006d882846fff77cfa28b1837edb075cbf8c
:10963800052384f8323025850bb030bd1178994266
:1096480011d902eb430148880949498f88420ad158
:10965800013bdbb2537002eb43039a78db7842eab2
:1096680003232385e8e7752384f83030e4e700bf57
:10967800580300202de9f341c77984790023013785
:10968800ffb24372754bc77193f82e30022b054613
:109698000e4600f0c2800e2c2ad8dfe804f0c9c9b3
:1096a8000825253131545454292929a7c90057f0d0
:1096b8009ffdc0f30b0068810126eb79b34217d8f0
:1096c800688927f01bfd400968812946644849f0ec
:1096d80015f8644890f85030d3bb012380f8503017
:1096e80054303df041fb33e0012f30d0032c01d042
:1096f80001242de041f60273438104260224dce7ad
:10970800062c11d1012ff3d8012f14d157f070fd79
:1097180040f6627280b2b0fbf2f302fb13033f33f0
:109728005b006b810326e9e750f8343c90f84d2044
:109738009b789a42e7e71eb133780bb9eb71d7e70c
:1097480041f60273ede7092c06d107238371002443
:10975800204602b0bde8f081b0f84800fff7e0f914
:10976800082c80461cd1002333706b69002b70d104
:10977800022f6ed8ab79082b22d12846faf784fe3f
:10978800384badf8040093f8e032c0b2984217d2d3
:109798009df80500fcf714fa50b10324ec71d7e7e3
:1097a800002ee2d03378002bdfd10823ab71dce741
:1097b800ee79022e04d143f609536b8104247ce729
:1097c800b8f1000f0bd098f80160022e07d198f875
:1097d800003003f0fb03012b01d10023ede757f024
:1097e80007fdc0f30a0068810226e7e70029aed02a
:1097f8000b786bb1e12b14bf0126022657f0f8fc59
:10980800ea794ff480639340013b1840688175e71b
:10981800012343729b02438184e70e2c3ff668af15
:109828000122a24044f283331340002b3ff460af7f
:109838008eb13378002b3ff45baf012c07d00e2c90
:109848000cbf02260126e12bd8d10136d6e7032624
:10985800d4e703247ce734467ae700bf58030020a6
:10986800c83b0020603b00202de9f0413c4fc46913
:10987800d7f8b86205462046fcf750ff337c1bb189
:10988800738aa380337de371237830896080012255
:1098980062f301032370637843f0100363704ff69b
:1098a800f773984245d8fff74dfc8046002840d012
:1098b800637843f00803637027f006fcd0e90023bf
:1098c80022616361d8e90023a260e360182204f1f1
:1098d800180385f8302003221a70b27d5a707289f5
:1098e8005a8095f88630102b02bf95f8873043f0e0
:1098f800020385f88730b089f389a5f880304ff6e0
:10990800f7739842288522d8fff70af9012385f8ca
:10991800323028b1837edb0702d4052385f8323044
:1099280095f83030043385f83030212387f8d43265
:1099380014e063786ff3c303637027f0c5fbd0e9c5
:109948000023a260e360102204f11003c1e7054b75
