:020000040000fa
:10000000f0fb012001010000732a00003b2c0000de
:100010008b300000df3100007b3200000000000068
:100020000000000000000000000000003b2900006c
:100030006b2e0000000000003b2900003b2900005f
:100040003b2900003b2900003b29000089360000c5
:100050003b2900003b2900003b2900003b29000010
:100060003b2900003b2900003b2900003b29000000
:10007000951100003b2900003b2900003b290000ae
:100080003b2900003b2900003b290000f133000020
:100090003b2900003b290000993300003b29000068
:1000a0003b2900003b2900003b2900003b290000c0
:1000b0003b2900003b2900003b2900003b290000b0
:1000c0003b2900003b2900003b2900003b290000a0
:1000d0003b2900003b2900003b2900003b29000090
:020000040000fa
:1000e000f8b500bff8bc08bc9e467047f12f000071
:1000f000f8b500bff8bc08bc9e467047cd2f000085
:020000040000fa
:1001000008b5194b9847194b9847eff3108172b611
:10011000174ad2f8883043f47003c2f88830bff32e
:100120004f8fbff36f8f01b962b6124a936823f005
:10013000010393601346da6812f0010ffbd10d4bf7
:1001400024225a6001229a6002f036f90a4b23f009
:100150007f03074a9360094b9847094b9847094b1f
:10016000984703f0d1fbfee71d3600009b340000ea
:1001700000ed00e00020004100000000312b0000f5
:080180009b3400009b340000d9
:020000040000fa
:100188005345435031313252310000004442374325
:1001980032414246363245333545363638303736c1
:1001a800424541443230384200000000444237435f
:1001b80032414246363245333545363638303736a1
:1001c8004245414432303838000000003635394560
:1001d800463842413034333931364545444538395b
:1001e8003131373032423232000000004442374366
:1001f8003241424636324533354537363238444641
:10020800414336353631433500000000393438373c
:100218003233393939354135454537364235354632
:10022800394332463039380041383943453541463b
:10023800383732344330413233453045304646371b
:1002480037353030000000005345435031323852c2
:10025800310000004646464646464644464646461f
:100268004646464646464646464646464646464626
:100278004646464600000000464646464646464430
:100288004646464646464646464646464646464606
:100298004646464646464643000000004538373540
:1002a80037394331313037394634334444383234be
:1002b800393933433243454535454433000000005e
:1002c8004646464646464645303030303030303077
:1002d80037354133304431423930333841313135a3
:1002e8000000000031363146463735323842383959
:1002f800394232443043323836303743413532435d
:10030800354238360000000043463541433833391a
:100318003542414645423133433032444132393225
:1003280044444544374138330000000053454350a6
:10033800313630523100000046464646464646466b
:100348004646464646464646464646464646464645
:100358004646464646464646374646464646464644
:10036800000000004646464646464646464646463d
:100378004646464646464646464646464646464615
:10038800464646463746464646464643000000002f
:100398003143393742454643353442443741384280
:1003a800363541434638394638314434443441447b
:1003b80043353635464134350000000031303030a1
:1003c8003030303030303030303030303030303025
:1003d800314634433846393237414544334341374f
:1003e8003532323537000000344139364235363837
:1003f8003845463537333238343636343639383975
:10040800363843333842423931334342464338322f
:100418000000000032334136323835353331363852
:10042800393437443539444343393132303432333f
:100438003531333737414335464233320000000007
:100448005345435031393252310000004646464642
:100458004646464646464646464646464646464634
:100468004646464646464646464646454646464625
:10047800464646464646464646464646000000002c
:100488004646464646464646464646464646464604
:1004980046464646464646464646464646464645f5
:1004a80046464646464646464646464646464643e7
:1004b80000000000363432313035313945353943a2
:1004c8003830453730464137453941423732323482
:1004d8003330343946454238444545434331343650
:1004e80042394231000000004646464646464646e6
:1004f8004646464646464646464646464646464694
:100508003939444546383336313436424339423135
:100518004234443232383331000000003138384434
:100528004138304542303330393046363743424619
:10053800323045423433413138383030463446461b
:1005480030414644383246463130313200000000ee
:1005580037313932423935464643384441373836df
:1005680033313031314544364232344344443537ef
:10057800334639373741313145373934383131002d
:100588005345435032323452310000004646464605
:1005980046464646464646464646464646464646f3
:1005a800464646464646464646464646303030303b
:1005b8003030303030303030303030303030303033
:1005c8003030303100000000464646464646464632
:1005d80046464646464646464646464646464646b3
:1005e80046464646464646454646464646464646a4
:1005f8004646464646464646464646464646464594
:100608000000000042343035304138353043303452
:10061800423341424635343133323536353034345d
:1006280042304237443742464438424132373042fa
:10063800333934333233353546464234000000000e
:100648004646464646464646464646464646464642
:100658004646464646464646464646463136413270
:1006680045304238463033453133444432393435e5
:1006780035433543324133440000000042373045aa
:1006880030434244364242344246374633323133ad
:1006980039304239344130334331443335364332cb
:1006a80031313232333433323830443631313543f4
:1006b8003144323100000000424433373633383891
:1006c8004235463732334642344332324446453661
:1006d8004344343337354130354130373437363495
:1006e8003434443538313939383530303745333496
:1006f800000000005052494d453233395631000050
:100708003746464646464646464646464646464690
:100718004646464646464646374646464646464680
:100728004646464638303030303030303030303061
:100738003746464646464646464646460000000078
:100748003746464646464646464646464646464650
:100758004646464646464646374646464646464640
:100768004646464638303030303030303030303021
:10077800374646464646464646464643000000003b
:1007880036423031364333424443463138393431c6
:1007980044304436353439323134373543413731d2
:1007a800413944423246423237443144333737398b
:1007b8003631383543323934324330410000000095
:1007c80037464646464646464646464646464646d0
:1007d80046464646464646463746464646463945ce
:1007e8003545394139463544393037314642443147
:1007f800353232363838393039443042000000005a
:10080800304646413936334344434138383136431c
:10081800434333334238363432424544463930351f
:100828004333443335383537334433463237464219
:1008380042443342334342394141414600000000bb
:1008480037444542453845344539304135444145ba
:10085800364534303534434135333042413034360f
:1008680035344233363831384345323236423339fb
:10087800464343423742303246314145000000008a
:1008880053454350323536523100000046464646fd
:1008980046464646303030303030303130303030f7
:1008a8003030303030303030303030303030303040
:1008b8003030303046464646464646464646464628
:1008c80046464646464646464646464600000000d8
:1008d800464646464646464630303030303030315f
:1008e8003030303030303030303030303030303000
:1008f8003030303030303030464646464646464640
:100908004646464646464646464646464646464382
:100918000000000035414336333544384141334106
:10092800393345374233454242443535373639380d
:100938003836424336353144303642304343353316
:1009480042304636334243453343334532374432e7
:100958003630344200000000464646464646464683
:1009680030303030303030304646464646464646cf
:100978004646464646464646424345364641414433
:1009880041373137394538344633423943414332a8
:1009980046433633323535310000000036423137b0
:1009a8004431463245313243343234374638424393
:1009b80045364535363341343430463237373033af
:1009c800374438313244454233334130463441317b
:1009d8003339343544383938433239360000000069
:1009e800344645333432453246453141374639423b
:1009f8003845453745423441374330463945313625
:100a08003242434533333537364233313545434532
:100a1800434242363430363833374246353146352c
:100a28000000000053454350333834523100000071
:100a3800464646464646464646464646464646464e
:100a4800464646464646464646464646464646463e
:100a5800464646464646464646464646464646462e
:100a6800464646464646464646464646464646451f
:100a780046464646464646463030303030303030be
:100a880030303030303030304646464646464646ae
:100a98000000000046464646464646464646464606
:100aa80046464646464646464646464646464646de
:100ab80046464646464646464646464646464646ce
:100ac80046464646464646464646464646464646be
:100ad8004646464546464646464646463030303007
:100ae80030303030303030303030303046464646a6
:100af8004646464300000000423333313246413710
:100b0800453233454537453439383845303536422e
:100b18004533463832443139313831443943364522
:100b28004645383134313132303331343038384653
:100b38003530313338373541433635363339384433
:100b480038413245443139443241383543384544d7
:100b58004433454332414546000000004646464678
:100b6800464646464646464646464646464646461d
:100b7800464646464646464646464646464646460d
:100b88004646464646464646464646464337363332
:100b980034443831463433373244444635383141a9
:100ba8003044423234384230413737414543454377
:100bb8003139364143434335323937330000000079
:100bc8004141383743413232424538423035333774
:100bd8003845423143373145463332304144373462
:100be8003645314433423632384241373942393852
:100bf8003539463734314530383235343241333877
:100c08003535303246323544424635353239364349
:100c1800334135343545333837323736304142374a
:100c28000000000033363137444534413936323616
:100c380032433646354439453938424639323932f5
:100c480044433239463846343144424432383941d3
:100c580031343743453944413331313342354630f5
:100c680042384330304136304231434531443745cc
:100c780038313944374134333144374339304541c9
:100c88003045354600000000534543503532315257
:100c980031000000314646464646464646464646e8
:100ca80046464646464646464646464646464646dc
:100cb80046464646464646464646464646464646cc
:100cc80046464646464646464646464646464646bc
:100cd80046464646464646464646464646464646ac
:100ce800464646464646464646464646464646469c
:100cf800464646464646464646464646464646468c
:100d0800464646464646464646464646464646467b
:100d180046464646464646003146464646464646c6
:100d2800464646464646464646464646464646465b
:100d3800464646464646464646464646464646464b
:100d4800464646464646464646464646464646463b
:100d5800464646464646464646464646464646462b
:100d6800464646464646464646464646464646461b
:100d7800464646464646464646464646464646460b
:100d880046464646464646464646464646464646fb
:100d98004646464646464646464643003531393578
:100da8003345423936313845314339413146393294
:100db8003941323141304236383534304545413297
:100dc8004441373235423939423331354633423876
:100dd800423438393931384546313039453135367c
:100de800313933393531454337453933374231366f
:100df800353243304244334242314246303733354c
:100e08003733444638383344324333344631454621
:100e180034353146443436423530334630300000bc
:100e2800314646464646464646464646464646466f
:100e3800464646464646464646464646464646464a
:100e4800464646464646464646464646464646463a
:100e5800464646464646464646464646464646462a
:100e680046464135313836383738334246324639c6
:100e780036364237464343303134384637303941c5
:100e880035443033424235433942383839394334ae
:100e98003741454242364642373145393133383693
:100ea80034303900433638353845303642373034f7
:100eb8003034453943443945334543423636323375
:100ec80039354234343239433634383133393035b0
:100ed800334642353231463832384146363036426a
:100ee800344433444241413134423545373745462d
:100ef8004537353932384645314443313237413246
:100f08004646413844453333343842334331383523
:100f18003641343239424639374537453331433221
:100f280045354244363600003131383339323936a6
:100f3800413738394133424330303435433841350d
:100f480046423432433744314244393938463534dd
:100f580034343935373942343436383137414642fa
:100f680044313732373345363632433937454537da
:100f780032393935454634323634304335353042e6
:100f880039303133464144303736313335334337de
:100f980030383641323732433234303838424539c6
:0c0fa800343736394644313636353000d7
:020000040000fa
:100fb400905a00201c00000000000000bdfe01202b
:100fc4000100000000000000c45a002014000000ca
:100fd400000000007cff012004000000000000006d
:100fe400a04700201010000000000000ac5a0020b0
:100ff4001800000000000000b057002000020000ac
:101004000000000000000020a01f000000000000fd
:10101400f8ff01200400000001000000001000009f
:10102400befe01200200000000000000fcff0120c1
:101034000400000000000000d85a00200400000052
:1010440000000000a01f00200014000000000000a9
:10105400a0330020001400000000000090ff0120d5
:10106400400000000000000074ff012008000000a0
:1010740000000000f0ff0120080000000000000054
:10108400505a00204000000000000000b059002029
:10109400a000000000000000d0ff0120200000009c
:1010a40001000000064a136823f49f7323f0010330
:1010b40043f011031360092300bf013bfcd17047c7
:1010c40000240144dc5a0020040000000000000059
:1010d40088fe01203000000000000000bcfe01205a
:1010e4000100000000000000b8fe01200400000020
:1010f4000000000000fc01202802000000000000a5
:10110400c0fe0120400000000000000000ff01209c
:10111400200000000000000080ff012010000000fb
:101124000000000028fe0120600000000000000014
:10113400ec5a0020010000000000000020ff012004
:10114400010000000000000021ff01200100000058
:1011540000000000e05a002004000000000000002d
:10116400e45a0020040000000000000024ff0120d5
:101174005000000000000000e85a002004000000b5
:1011840000000000000000000000000022222222d3
:020000040000fa
:10119400704b9b7d002b00f0dc80f0b583b06d4a72
:1011a400137edbb2927d12f0800f11d1694a137e57
:1011b400dbb2927d12f0010f00f0bc8013f0010f3e
:1011c40000f0b880644c634d644e2069217d34e0a6
:1011d40013f0800fead05f4b5b8b13f00703e5d06d
:1011e4005d4ad3875b4b80221a7607225a831b7e83
:1011f40013f0040f05d0574b9a6a1a7e12f0040fad
:10120400fad1554b1b6a002bd0d0534a516a0220a5
:101214009847cbe7f25c8df806200133984298bfdb
:101224000023e3606b6803f00703012b14bf9df8f0
:101234000630bdf80630ab62b9b92b7e13f0010f4e
:1012440078d0a268e3689a4271d06a6802f0070213
:10125400012adfd116f813208df8062006eb43028d
:1012640052788df807200133d8e702f0a1fa2368f9
:10127400002baad0227f32b1a2699042a5d3616823
:1012840003209847a1e7a26990429ed16168032098
:1012940098479ae7226a002a37d0616a384690470d
:1012a400a36a0133226b934228bf00232de0a16a75
:1012b4002b4a02f8115002eb4102c5f30725557081
:1012c4002ee002f0f7f9236a002b2ed094f83c208c
:1012d40032b1a26b904228d3616a0020984724e07f
:1012e400a26b904221d1616a002098471de0337eb1
:1012f40013f0040f2bd0b56aa36a0133226b934217
:1013040028bf0023e26a9a42c4d0e26a9a42eed02d
:10131400726802f00702012ac9d0a26a10498d54ea
:10132400a36294f83430002bcbd10127dfe7094bbb
:1013340001221a75074a137edbb2927d12f0040f64
:1013440005d013f0040f02d0024e034cede703b0b6
:10135400f0bd7047000c004090ff0120a033002036
:04136400a01f0020a6
:020000040000fa
:10136800536c6f7430200000536c6f743120000090
:10137800c2818fbb2861478ba2533779d463187c0d
:101388008b4159a95f0b6b944eb957a103fe20bf3f
:101398002bb8142a64b5ae4a8380dde6ee2989ddd0
:1013a800a09ac7da82eb5662905d66c5bc303c8471
:1013b8004d68656164657220736861323536204610
:1013c80061696c6564210d0a000000004d68656163
:1013d80064657220736861323536205665726966b5
:1013e800696564210d0a00004d6574616865616472
:1013f80065722045434453412056657269666965a4
:1014080064210d0a000000004d657461686561641f
:101418006572204543445341204661696c656421e7
:101428000d0a000046572073686132353620466140
:10143800696c6564210d0a0046572073686132356e
:1014480036205665726966696564210d0a000000d8
:10145800465720454344534120566572696669657d
:1014680064210d0a000000004657204543445341bb
:10147800204661696c6564210d0a0000536c6f7425
:1014880031204572617365640d0a0000536c6f74f6
:1014980030204572617365640d0a0000536c6f74e7
:1014a8003120436f7069656420746f20536c6f74ca
:1014b800300d0a00436f7079205665726966696558
:1014c800640d0a00436f7079204469666665720d81
:1014d8000a000000496e76616c696420536c6f7471
:1014e8003120496d6167650d0a000000496e76611b
:1014f8006c696420536c6f743020496d6167650da9
:101508000a000000444655204e6f77210d0a00005e
:0c1518004446552045786974210d0a00f6
:020000040000fa
:101524002de9f84305460c46174602f069f9102fd9
:1015340014d0b846bb1e3e2b00f29d8023782d2b81
:1015440064d04ff000092078002877d12b68002b55
:1015540000f08680c5f80490002381e023782d2bc9
:1015640006bf013401260026204602f0b5f9012801
:1015740000f18c80204400210a461ce0a7f161039d
:10158400dbb2052b71d8a7f15703dbb2202a08bfc1
:10159400013102f01f0287296adc05eb810e9340ba
:1015a400def808703b43cef8083004320238031bdf
:1015b4006046002b11db00f1ff3c10f8017ca7f121
:1015c4003003dbb2092be1d9a7f14103dbb2052bd0
:1015d400d4d8a7f13703dbb2d8e701312960002959
:1015e40051d04a1e4b1c55f8233063b9013105eb29
:1015f400810300e00246002a43d0501e53f8041d24
:101604000029f7d02a606e60002329e001344ff0ee
:10161400010998e7b74231dd2a464146284600f0e1
:10162400c9f90346e0b92a463146284601f009ffc4
:101634000346a8b914f8010f002887d0242f02dc30
:1016440002f067f9c0b230280dd0124b012613f80e
:10165400012f8242ded00136402ef8d14ff0ff3305
:101664001846bde8f8830026d6e74ff0ff33f7e7c6
:101674004ff0ff33f4e74ff0ff33f1e74ff0ff3360
:10168400eee700232b6000236b60e9e7012129606a
:08169400a7e700bf882f00004a
:020000040000fa
:10169c002de9f04f83b007468b469046d0e91e23c8
:1016ac0012eb080043f10001c7e91e0112f03f09db
:1016bc0028d0c9f14005454501d9002423e007f1a4
:1016cc0018042a46594604eb090002f04ef8dff8dc
:1016dc00ccc007f1580e664620686168a268e368c2
:1016ec000fc61034b4467445f5d140222b49384608
:1016fc0000f0e8fb0446ab44a8f14008c8444ff0a6
:10170c00000900e00024b8f13f0f2bd91bf03f0f6c
:10171c002fd00bf14006a8f140039a0901920bf16e
:10172c00800a23f03f039a44a6f14004dff86cc012
:10173c00b646654620686168a268e3680fc5103438
:10174c00ac467445f5d140221449384600f0bafb3a
:10175c0040365645e8d10446019b01330beb831b05
:10176c0008f03f08b8f1000f0fd1204603b0bde8d8
:10177c00f08f28f03f052a465946384600f0a2fb68
:10178c000446ab4408f03f08ece707f1180042466a
:10179c005946484401f0e9ffe7e700bfc0fe0120cd
:020000040000fa
:1017ac00f0b5bdb0064630a802f060f8309b002bb7
:1017bc0071d09a6adc6a42f0847727409968b1420a
:1017cc000bd29b69db6801213846984700b1fee7d4
:1017dc000e21324802f024f85de042f08072144091
:1017ec001988b6fbf1f295b201fb12620ab1013510
:1017fc00adb29b6933b1db6823b1294620469847cb
:10180c0000b1fee70e21264802f00af8309b9b69d6
:10181c0043b15b6833b1324621464ff08470984730
:10182c0000b1fee717211f4801f0faff684602f0ed
:10183c005ef832464ff080716846fff729ff28a901
:10184c00684600f047fc684602f051f832464ff00b
:10185c0084716846fff71cff20a9684600f03afc2b
:10186c00202220a928a801f0effe80b90f210e48f4
:10187c0001f0d6ff309b9b69db68294638469847b8
:10188c0000b1fee70e21054801f0caff03e00d216f
:10189c00064801f0c5ff3db0f0bd00bf8414000048
:1018ac0094140000a4140000bc140000cc1400001c
:020000040000fa
:1018bc0038b54ff088431c6a4ff0847001f0baffc2
:1018cc0030b10546b0f1ff3f49d02846fff768ff1d
:1018dc004ff0807001f0aeff013810f1030f43d8c8
:1018ec002a4b013bfdd101f021fe01f001fb274bfe
:1018fc00013bfdd172b6264b4ff0ff32c3f880206e
:10190c00c3f88420c3f88820c3f88c20c3f8902037
:10191c00c3f89420c3f89820c3f89c20c3f8802106
:10192c00c3f88421c3f88821c3f88c21c3f8902113
:10193c00c3f89421c3f89821c3f89c2162b6002304
:10194c0083f31488bff36f8f124b1b6883f30888e3
:10195c00114b01221a70114b1b68984738bd152189
:10196c000f4801f05dffb0e715210e4801f058ff5c
:10197c00064b013bfdd104f400040b4945f24372c4
:10198c0000e00a80002cfcd1fee700bfffff050041
:10199c0000e100e00002000120ff01200402000130
:0c19ac00dc140000f414000002050044ec
:020000040000fa
:1019b8002de9f04fd2f80080d0f800b0c2f800b09e
:1019c800d0f804a0c2f804a00368002b5ddd00f184
:1019d800040c131d4ff0000e00240025f14600e012
:1019e800b6465cf8046fe1fb06452f4643f8044f02
:1019f8003c464d460ef101060768b742f0dc54ea52
:101a080005030ad0882f08d00bf1010313600bf1ee
:101a1800020b42f82b400ef10206b0450fdd872e6f
:101a28000fdcb31c02eb8303002143f8041b0136cf
:101a3800b04507d0882ef8d14ff0ff3023e0b046ec
:101a480000e0b046b8f1880f13d01168b1b14b1e51
:101a5800481c52f8200098b9013102eb810100e0de
:101a680023464bb15c1e51f8040d0028f8d01360d2
:101a780006e04ff0ff3006e0002313604ff0000a45
:101a8800c2f804a00020bde8f08fb8f1000fd8bf5d
:0a1a98004ff00008d6dd0026c3e77a
:020000040000fa
:021aa20070478b
:020000040000fa
:101aa400f8b5344c656b63689b69984760616069fd
:101ab40001f03cfed4e90a67321847f10003c4e997
:101ac4000a23002d4cd094f83030013384f83030a0
:101ad40001f002fc646b2cb1a3681bb9012500273b
:101ae400244e11e0244d00242e4627461fe0e069d1
:101af40001f0e8fae3680bb120699847746b002c95
:101b0400f0d0a368002bedd125756575a37813b9c2
:101b1400e368002bebd1204600f0daffa378002b1a
:101b2400e8d16770e6e701342035052c12d006ebc6
:101b340044135b7d002bf6d006eb44135f75ab7842
:101b4400012bf0d16b6806eb44129360284600f039
:101b540061fbe8e7074a92f83030013b82f8303005
:101b640001f02cff044600f00dfa204601f02aff94
:0c1b7400f8bd00bf505a0020b0590020fe
:020000040000fa
:101b80002de9f04f83b00c680368a342b8bf234629
:101b90001468882ca8bf8824a6461360002b46dd55
:101ba0000430043102f104084ff0000a4ff0000b3a
:101bb0004ff0000c50f8049f51f8044f002514eb2f
:101bc000090645f10007cde9006716eb0a06019cfe
:101bd00044eb0b0448f8046f4ff0000ba2460cf1e5
:101be000010c6345e6d15aea0b0007d0872b05dcd0
:101bf000581c1060023342f823400346882b26d03d
:101c000013609e4509dd981c02eb800019460024f4
:101c100040f8044b01318e45fad1ebb1591e581ce6
:101c200052f8200068b9013302eb830302e000237d
:101c3000e6e7214671b14c1e53f8040d0028f8d098
:101c4000116053685360002003b0bde8f08f4ff07f
:0c1c5000ff30f9e7002313600023f3e7e6
:020000040000fa
:101c5c002de9f04f80469246d2f800900c6800684f
:101c6c001060002c49dd08f1040e043102f1040c63
:101c7c0000231a461d465ef804bfbbeb030662eb5d
:101c8c00420751f804bfb6eb0b0267f100034cf8a6
:101c9c00042f03f0010300220135ac42ebd1d8f83c
:101cac000010a14214dda51cad0008eb050655443f
:101cbc00002756f8041bc91a62eb420245f8041bb4
:101ccc0002f001033a460134d8f80010a142f0dcce
:101cdc00a14508dda31c0aeb8303002243f8042b67
:101cec000134a145fad1d8b1431e421c5af8222026
:101cfc0082b901300aeb800004e000231a461c462e
:101d0c00cde70b464bb1591e50f8042d002af8d0e4
:101d1c00caf80030daf8043003e00023caf80030c7
:0a1d2c000023caf80430bde8f08f70
:020000040000fa
:021d36007047f4
:020000040000fa
:101d38002de9f04700295ed00f46304b1e6900247c
:101d48002f4d1a4600f1010edff8b8c0a04615e085
:101d580010f804a0d5f8049009f00709b9f1010fab
:101d680011bf0cf801a00cf811a00ceb410181f88f
:101d780001809360631c01349f423ad96b6803f079
:101d88000703012b11d09168d2f80c904b1cb34279
:101d980028bf00239945dbd101f07efc10b1184b18
:101da80001229a752046bde8f0879168d2f80c9018
:101db8004b1cb34228bf00239945edd01ef814a050
:101dc80010f8149049ea0a29d5f804a00af0070a7d
:101dd800baf1010f04d00cf801909360631ccae7b4
:101de8000cf811900ceb41014fea192981f8019088
:101df800f3e71c46d0e70c46cee700bf90ff012072
:081e0800000c0040a033002093
:020000040000fa
:101e1000f8b5002855d00546002955d00c68236830
:101e200083421cbf002384f82430206094f82430bf
:101e300022ea03061a4384f8242016f0010f0fd17a
:101e4000002716f0020f13d116f0080f19d116f063
:101e5000100f1fd116f0200f24d167bb3846f8bdf4
:101e600001232246211dc06800f064ff0746e8e711
:101e70000223224604f10801286900f05bff0744b1
:101e8000e2e70823224604f10c01a86900f052ffa2
:101e90000744dce710232246e118e86900f04aff16
:101ea0000744d7e72023224604f11401286a00f0f2
:101eb00041ff0744d1e7204600f00afd6ff06e07ae
:0e1ec000cce76ff0ac07c9e76ff0ac07c6e7e0
:020000040000fa
:021ece0070475b
:020000040000fa
:101ed0002de9f843054688469146284c0423636063
:101ee00081609309013b0361254f03463e4653f849
:101ef000080f59689a68db680fc61021384600f051
:101f00008af94946404600f086f9bff35f8f2763a0
:101f100043f2040323601b4b6363ab6da363eb6d60
:101f2000e3632b6e23646b6e6364ab6ea364eb6e32
:101f3000e3642b6f23656b6f63650123236163602b
:101f40002246d36913f00f0ffbd00c4b02225a60cc
:101f500004225a600b4c20212046fff7b8ffbff344
:101f60005f8f0fcca865e9652a666b660fcca86603
:101f7000e9662a676b670020bde8f883002c004201
:081f800080ff012000ff012099
:020000040000fa
:101f88002de9f8432a4b5a6b59691961002a40d048
:101f98009368b3f5004f33d3254b5b6947f6ff745d
:101fa800002514eb030845f10009214e73689b696d
:101fb800984782b200233169814206d94ff6ff71f2
:101fc80052184ff0000141eb03031949096a5618ea
:101fd80043f10007b94508bfb04524d20a44144b61
:101fe800da61134bdb699bb213b9114b0122da6139
:101ff8000f4bd8695b685b6980b29847bde8f88386
:1020080094680b4b5b69002514eb030845f1000944
:10201800cbe7074b5b6947f6ff74002514eb030811
:1020280045f10009c1e7024bc3f81c80d9e700bf9e
:04203800505a0020da
:020000040000fa
:10203c00002941d038b50d46002840d1214c012350
:10204c0084f838300b686360db689847e0601e4b9f
:10205c00b3fbf0f3bc2090fbf3f00230206295f957
:10206c0004302372002121614ff6ff73a36147f600
:10207c00ff73e36100220023c4e90a23616384f83f
:10208c00301063681b681148984763681b690bb173
:10209c00208b98470b4ce06963685b6980b298476a
:1020ac0063685b689847a0220021094801f008fc8e
:1020bc0002232370204638bd4ff0ff3070474ff09d
:1020cc00ff30f8e7505a00200090d003a51a00000a
:0420dc00b0590020d7
:020000040000fa
:1020e00070b582b005460c46826fc36fdb0043ead1
:1020f0005273d100180e8df80000180c8df80100f5
:10210000180a8df802008df803300b0e8df804309c
:102110000b0c8df805300b0a8df806308df8071082
:1021200002f03f02372a94bfc2f13802c2f17802ae
:10213000d2b211492846fff7b1fa0822694628466b
:10214000fff7acfa2b4653f8586f58689968da686d
:1021500026606060a160e2601e6958699969da6969
:1021600026616061a161e26100221146284600f00b
:0c2170009bfa02b070bd00bfc02400004c
:020000040000fa
:10217c002de9f041adf6f82d06460f46144698466b
:10218c0002ad019528220021284601f099fb0cabe9
:10219c00ab610523eb6194b3a6b30023a360424665
:1021ac003946204600f022fb0546e0b9d4f8b83891
:1021bc0013f1020f0ad0434622463946304600f04e
:1021cc00ebfb05466ff4877398420cd104f5d2668d
:1021dc00304601f0cbfb054650b1304601f01efcf9
:1021ec00019800f06ffb28460df6f82dbde8f08144
:1021fc003b2201a92069fff705fe0546ede76ff0cc
:0a220c00ac05f0e76ff0ac05ede75c
:020000040000fa
:0222160070470f
:020000040000fa
:1022180030b32de9f0418646204b5a6bd0f8088040
:10222800c2b193684046002198451bd3002400257d
:102238009368e41845f100059369dbb1d3f808c049
:1022480014eb0c0645f10007b94208bfb04211d3a0
:102258001a46ede7c0f80880104b586301201ae0d1
:10226800002070470d4bc3f834e0cef81820002446
:10227800012004e0cef81830c2f818e00020a8ebde
:102288000404cef80840def8183023b1def8081050
:102298009a68521a9a60bde8f08100bf505a00202f
:020000040000fa
:1022a80038b51a4b93f9000000b138bd184c3022ec
:1022b8000021204601f006fb164d2c605b2323709d
:1022c8004cf2010323812046134b98472a6813894f
:1022d800002bfdd11169114b994206d00b4bff22ff
:1022e8001a700a4b93f90000dfe791690c4b994289
:1022f80003d0064bfe221a70f3e7d269094b9a42c3
:10230800024b14bffd2201221a70eae7bcfe01202d
:1023180088fe0120b8fe01205500000200010704d4
:08232800d2dd706e4fd6c8250e
:020000040000fa
:102330002de9f0414ff088431d6a05f400059a69c4
:1023400042f400329a610a21144801f06ffa144bea
:10235000013bfdd1134b00221a70134b196813482f
:1023600001f004fb01f02ef801f00af9dff84480d7
:102370000f4f08e0a8f800600ce00b21384601f090
:1023800055fafff79bfa45f24376064c01f037f910
:10239000002defd12378002bf8d0eee70c150000cc
:1023a000ffff020021ff0120e05a002085390000d4
:0823b0001815000002050044ad
:020000040000fa
:1023b8001e4b1f4a9342f0b438bf002103d203f8e2
:1023c800011b9342fbd11b4ad2e9000150ea0103e9
:1023d8004ff0000610d09468034602f10c076cb960
:1023e80021b1014403f8016b9942fbd13a46d2e985
:1023f800000150ea0103eed1f0bc704759b101f178
:102408000c030c38801a1a443b461c1813f8015b5d
:1024180025709342f9d111f0030318bf012303eb90
:10242800910107eb81073a46e1e700bf0000002071
:0824380000000020b40f0000b9
:020000040000fa
:102440001c4b1d4a1a604ff6a0029a814ff440328d
:102450005a601a46d369002bfcd1164a136843f020
:1024600002031360d369002bfcd1144b00221a62c3
:102470009a62da6283f8342083f83c209a63da8720
:102480001a609a60da601a751a779a61094b5b686c
:1024900003f00703012b094b14bf4ff4a0524ff474
:1024a00020621a631a61034b80229a7504229a757e
:1024b000704700bf000c00400401124090ff012053
:020000040000fa
:1024c000800000000000000000000000000000008c
:1024d00000000000000000000000000000000000fc
:1024e00000000000000000000000000000000000ec
:1024f00000000000000000000000000000000000dc
:1025000000000000000000000000000000000000cb
:1025100000000000000000000000000000000000bb
:1025200000000000000000000000000000000000ab
:10253000000000000000000000000000000000009b
:020000040000fa
:10254000f0b51b4ad36a956a61b30e46ab422cd0f4
:10255000d2f830c00122174fa0f1020e164c0138fc
:102560000be0e15c815401339c4598bf0023b242eb
:1025700013d2511cab4211d00a46796801f0070111
:102580000129eed114f813100ef8121004eb4301d8
:10259000497800f812100133e6e71d46044bdd626e
:1025a0001046f0bd1d460a46f8e70022f6e700bfd8
:0c25b00090ff0120000c0040a01f002044
:020000040000fa
:1025bc00f0b40c6800251560661c9e4229d80519dc
:1025cc00005d10f0800f0bd13746049c14b1c41978
:1025dc009c4227d80f60002800dd1060f0bc7047cb
:1025ec0000f07f0037189f4216d8042817d868b11e
:1025fc002c460544002014f8016f46ea0020ac423a
:10260c00f9d10028e1da6ff08b00e7e737460020bc
:10261c00e0e76ff08300e1e76ff08300dee76ff037
:0a262c008b00dbe76ff08300d8e7b6
:020000040000fa
:102636002de9f04395b01d9d55b31e46914688463b
:102646000746d5f8b80800f05efe044618b343689e
:1026560023b32c22002109a801f035f903230193a5
:10266600052302930397cdf81080cdf814900696b3
:102676001c9b079308956368a26801a92068984780
:1026860010f1ae0f08bf6ff4877015b0bde8f08388
:102696006ff48770f9e76ff48770f6e76ff4877069
:0226a600f3e758
:020000040000fa
:1026a80010b504465822002101f00cf904232373c5
:1026b8004ff00003012262f3061363730d4ba36509
:1026c80003f1ee5303f5052303f65163e3650a4b63
:1026d80023660a4b63660a4ba3660a4be3660a4bfa
:1026e80023670a4b636700220023c4e91e230020e6
:1026f80010bd00bf6a09e6673c6ef372a54ff53a54
:10270800510e527f9b05688c1f83d9ab5be0cd19b6
:020000040000fa
:1027180070b505460c46164601f070f8b6f5087f08
:1027280004dda6f508734ff408761c44f31c9b08d7
:102738002b60002e09dd06f108032b44a21914f8ba
:10274800011b03f8011d9442f9d12a68b2b1531e46
:10275800511c55f8211059b9013205eb820200e0ed
:1027680003464bb1581e52f8041d0029f8d02b60bf
:102778006b686b60002070bd00232b600023f8e7b6
:020000040000fa
:10278800f0b583b005460c4616461f460023019354
:1027980000930b466a4601a900f0d2ff00281edb11
:1027a800019b009a1344a3421cd1234601aa29463f
:1027b800304600f013fa002817db234601aa294601
:1027c800384600f00bfa0028a8bf002001db03b050
:1027d800f0bd304601f0def86ff0aa00f7e76ff0c1
:1027e800aa00f4e76ff0aa00f1e76ff0aa00eee79d
:020000040000fa
:1027f80000290cdd422927dc4368b3f1ff3f26d0ce
:1028080070b4002343600361134c0e250ae0002acc
:10281800f2da6ff0ac007047a94208dd013354f8d2
:10282800345f75b1002af7dd66689642f6d185b146
:102838004360094a342101fb03230361002070bc73
:1028480070476ff0ab00fae76ff0a90070470020ff
:0c28580070476ff0ab00f2e7b45a0000cc
:020000040000fa
:1028640070b582b006460d461446012201920093cb
:1028740023460a46022100f087f9002820db23685a
:10288400012b1cdd2b68f25cff2a0fd0e2b9013367
:102894002b602368013b2360002b13dd2b68f35668
:1028a400002bb4bf00206ff08b0009e01e4496f9a2
:1028b4000130002bb4bf6ff08b00002000e000203b
:0c28c40002b070bd0020fbe70020f9e727
:020000040000fa
:1028d00090b310b5044690f8243013f0010f17d1cf
:1028e00094f8243013f0020f16d194f8243013f02a
:1028f000080f15d194f8243013f0100f14d194f868
:10290000243013f0200f13d1002384f8243010bd9d
:10291000406801f043f8e3e7a06801f03ff8e4e71e
:10292000e06801f03bf8e5e7206901f037f8e6e7f9
:0a293000606901f033f8e7e7704733
:020000040000fa
:02293a00fee7b6
:020000040000fa
:10293c00174bda6822f4e0621204120c42f0bf6208
:10294c0042f40032da60bff35f8f62b6114ae021c5
:10295c0082f803130820106082f80c134ff4805097
:10296c00106082f813134ff40020106082f81613d5
:10297c004ff4800111605a6a42f480225a625a69fb
:10298c0042f010025a615a6a42f400325a6270479d
:08299c0000ed00e000e100e0a5
:020000040000fa
:1029a4004ab32de9f04194b0144698460f460646c2
:1029b400d2f8b80800f0a8fc0546f8b1436803b3a0
:1029c4003422002107a800f07fff03230193092389
:1029d4000293039604970594cdf818806b68aa684f
:1029e40001a92868984710f1ae0f08bf6ff48770eb
:1029f40014b0bde8f0816ff4877070476ff487708e
:082a0400f6e76ff48770f3e7b9
:020000040000fa
:102a0c0002680b689a4220dc21db531e22d430b4be
:102a1c009c1c50f8245051f82440a5421cd81dd3be
:102a2c009200043210441144013bb3f1ff3f09d032
:102a3c0050f8044d51f8042d944212d8f4d24ff0b2
:102a4c00ff3000e0002030bc7047012070474ff091
:102a5c00ff307047002070470120f4e74ff0ff3043
:062a6c00f1e70120efe795
:020000040000fa
:022a7200fee77d
:020000040000fa
:102a740008b5134b984703f01ff9124a136823f45f
:102a84009f7323f0010343f011031360fff751f91f
:102a9400fff7d4fcfff703f800f0e6f900f0b4fa0e
:102aa40000f07cfe08490020fff7c6fa074b1860c7
:102ab40000f09cfe00f06afffff73eff08bd00bf78
:102ac400d1ff012000240144d8390000dc5a002041
:020000040000fa
:102ad400154b5a6b1ab310b40146824204d1836970
:102ae400abb1002206e01a469369d3b19942fad1f8
:102af4008b6923b18c689868204498604ab18b69cb
:102b04009361002000238b615df8044b70471a46e3
:102b1400f4e7054b5a6b92695a630120f2e70020ef
:0c2b240070470020f0e700bf505a00206e
:020000040000fa
:102b30000e4a38b5002313600d4a0e4c13600e4a3e
:102b40000e4d13600e4a13600e4a13600e4a536214
:102b500013610123936000f098fe00f096feac42f2
:102b600000d338bd54f8043b9847f8e7e85a0020f2
:102b700030ff0120ec0000002cff0120f0000000dd
:0c2b800024ff012028ff012034ff012069
:020000040000fa
:102b8c00f0b587b006460d4614461f4613680593ec
:102b9c000c9b0df1130205a900f0e6fa98b99df80b
:102bac001330ab4212d10d9b00930c9b03aa05a9c9
:102bbc003046fff7fdfc00280bdb03983860059bc3
:102bcc00236007b0f0bd6ff08b00fae76ff08b005d
:082bdc00f7e76ff08b00f4e74e
:020000040000fa
:102be40070b582b006460c461546126801926a46d4
:102bf40001a92046fff734fe034610b1184602b07f
:102c040070bd304600f0b6fe90b9009a0199214497
:102c1400304600f00bff034620b9019a00990a449c
:102c24002a60ebe7304600f0b7fe6ff08d03e5e76e
:062c34006ff06d03e2e702
:020000040000fa
:022c3a00fee7b3
:020000040000fa
:102c3c002de9f04780460f46914600f039fe3e469e
:102c4c00d7b100260e4c4d464ff0010a09e04b451a
:102c5c0012d85146fff76efc002323700136b742a1
:102c6c000ad008eb06002378002bf2d1013322782e
:102c7c00002aecd1ab42f9d93046bde8f08700bf51
:042c8c00bdfe012068
:020000040000fa
:102c9000f0b4124b1880124800f5806700221646e7
:102ca00041f2210506e040f8043f02f5807292b23d
:102cb000b84210d011460824334683ea010c1cf4b4
:102cc000004f14bf85ea43035b009bb2490089b201
:102cd000013cf2d1e7e7f0bc704700bfbefe012027
:042ce000ac570020cd
:020000040000fa
:102ce4002de9f04121f00f0112f00f0f08d05442ea
:102cf40002f00f0304f00f0458bf6342d21a1032db
:102d0400144656188518a6eb04082f1b002c0add60
:102d140000f0cafd0028fbd14146384600f0bcfb58
:102d240020b1103cefe70020bde8f0810120fbe773
:020000040000fa
:102d34002de9f041146ad669b4421ed21f461646e4
:102d44000d4680469069631c13624ff40a7303fbbb
:102d54000400086000f00efe034610b11846bde8fa
:102d6400f08196f824301f4386f8247010224146df
:102d74002868fef7d5fb0346f0e76ff0a903ede7fb
:020000040000fa
:102d84002de9f04105460e46144698469df8187004
:102d94000a46002100f098fd3046464528bf4046cb
:102da40057b938b1013d231814f8016b05f8016fc8
:102db400a342f9d1bde8f0810028fbd005442318d3
:0e2dc40014f8016b05f8016d9c42f9d1f2e79d
:020000040000fa
:102dd200f0b170b582b0044615460e4640f60412b4
:102de200002100f072fd0023c4f8b858019300934b
:102df20004f58d6304f5107204f1180104f5d26034
:102e020000f023f9034638b96661184602b070bd76
:0e2e12006ff0ac03184670476ff07c03f5e7d5
:020000040000fa
:102e20002de9f0414768d1f80480474510d00446a9
:102e30000d461646fff7eafdb0f1ff3f0cd0776074
:102e4000324629462046fef709ff0020bde8f08102
:102e50005760fef795fef9e7c6f804803246214632
:0a2e60002846fef7fbfe0020f0e715
:020000040000fa
:022e6a00fee781
:020000040000fa
:102e6c000e4b01221a601a46136913f0010ffbd1a5
:102e7c000a4b4ff4a3621a6003221a7304225a718c
:102e8c00074ada6133229a72064a00211160012244
:102e9c005a721a461369002bfcd17047001400407b
:082eac00c0270900f0ff01201e
:020000040000fa
:102eb400f0b583b0089d099c90b106469ab1adb1b6
:102ec400bcb1d4f8b80810f1020f02d1384603b0ef
:102ed400f0bd304601940095fff7abfb0746f5e7dc
:102ee4006ff0a907f2e76ff0a907efe76ff0a90702
:082ef400ece76ff0a907e9e724
:020000040000fa
:102efc00104b0822c3f88020bff34f8fbff36f8fa6
:102f0c004ff48052c3f88020bff34f8fbff36f8f05
:102f1c004ff48002c3f88020bff34f8fbff36f8f45
:102f2c004ff40022c3f88020bff34f8fbff36f8f95
:082f3c00704700bf00e100e056
:020000040000fa
:102f440038b5044600f084fc002c16db63090c49f8
:102f540051f8235004f01f04e54005f00105012257
:102f640002fa04f4203341f82340bff34f8fbff338
:102f74006f8f00f076fc284638bd0025f9e700bfc6
:042f840000e100e088
:020000040000fa
:102f88003031323334353637383941424344454697
:102f98004748494a4b4c4d4e4f5051525354555641
:102fa8005758595a6162636465666768696a6b6ce9
:102fb8006d6e6f707172737475767778797a2b2f5e
:042fc800000000bf46
:020000040000fa
:102fcc0010b5054c227832b9044b13b10448aff359
:102fdc0000800123237010bd905a002000000000d7
:102fec000000000008b5034b1bb103490348aff3c5
:102ffc00008008bd00000000945a00200000000072
:020000040000fa
:10300c000d4b01221a601a46136913f0010ffbd104
:10301c00094b10221a6003221a734ff47a429a83d6
:10302c0033229a72054a0021116020225a721a46e4
:10303c001369002bfcd170470020004074ff012065
:020000040000fa
:10304c00f8b50c4617461e46069d08b100f0d4fb99
:10305c0014b1204600f0d0fb17b1384600f0ccfb81
:10306c0016b1304600f0c8fb15b1284600f0c4fb81
:0e307c00079b13b1184600f0bffb0020f8bd03
:020000040000fa
:02308a00fee75f
:020000040000fa
:10308c00431e13f1030f0fd883b2042b0ed80a4a38
:10309c0002eb4312d26982420ad15a0106498a5c78
:1030ac0042b101eb4310704700207047002070477d
:0c30bc000020704700207047b059002031
:020000040000fa
:1030c80010b5044600f0a2f8b0b12046fff7daffc9
:1030d800044678b1437843b90020207560752070a4
:1030e800044600f027f8204610bdfff7effc002348
:0c30f8006370f1e70124f4e70124f4e721
:020000040000fa
:10310400a1b110b40a4b1b8841180a4c10f8012bca
:1031140082ea132254f8222082ea03239bb28842d3
:10312400f4d1034a13805df8044b7047704700bf25
:08313400befe0120b05700208f
:020000040000fa
:10313c000b4b93f90830002b08db590903f01f03e4
:10314c00012202fa03f3074a42f82130044b93f8a8
:10315c0030301bb9024b012283f83820704700bf76
:08316c00505a002000e100e0d0
:020000040000fa
:103174006ab130b4154669b178b10c68621c9a42e0
:103184000ed8035d2b700a60002030bc70476ff0ce
:10319400ac0070476ff0ac00f7e76ff0ac00f4e7f9
:0631a4006ff08300f1e76b
:020000040000fa
:1031aa0038b505460c46c0f30b037bb964b100f091
:1031ba0078fb0028fbd1284600f0bbfb40b1013c5c
:1031ca00a4b205f58055f1e7002000e0022038bde1
:0431da000120fce7ed
:020000040000fa
:0231de00fee70a
:020000040000fa
:1031e00000100004000000010000100002000000b8
:1031f000a03500000000f0008c3700000100000046
:103200003c3a0000fe0fffff00000000ffffff0f31
:04321000ffffffffbe
:020000040000fa
:1032140008b50b4b93f8303083b9094b93f8383029
:10322400012b01d000200ae0054b002283f838204e
:1032340093f90800fff784fe012000e0012008bd97
:04324400505a0020bc
:020000040000fa
:10324800abb1f0b405461e46043a002402e001344e
:10325800b44209d052f8040f4368ab42f7d8476923
:103268003b448b42f3d300e00020f0bc70470020c1
:0232780070479d
:020000040000fa
:02327a00fee76d
:020000040000fa
:10327c0038b5eff3108572b6084c20634ff48043d9
:10328c0063600f2262601140a160a36000f03cf902
:10329c004ff40043a36085f3108838bd000600444a
:020000040000fa
:1032ac004ff088430022c3f8b020084ac3f8b0207e
:1032bc0002f12b42a2f54b12a2f6ab42c3f8b0209e
:1032cc0003f5206301229a641b6cfee7556699aaec
:020000040000fa
:1032dc000a4b5b6b73b168b1002105e09a68801ae8
:1032ec0099609b6933b128b19a688242f6d39a6887
:1032fc00101a9860014b5a691a617047505a002095
:020000040000fa
:10330c000a4b1b6898420ad0084a0123d1688142b3
:10331c0006d001330c32082bf8d100207047002363
:10332c0003eb4303014800eb8300704728fe0120a8
:020000040000fa
:10333c0070b505460c461646fef7b0ff002808dbb4
:10334c006368052b08d132462146284602f008fa5c
:0e335c0070bd6ff48770fbe76ff48770f8e7c1
:020000040000fa
:10336a0070b506460d461446fff7cbff034620b15b
:10337a001e605d609c60002070bd6ff00100fff769
:0e338a00c0ff03460028f3d16ff08300f4e784
:020000040000fa
:1033980008b5084b5b7a63b1064a937a3321917278
:1033a80003f0ff002bb1044b1b6813b1024a5168ac
:0c33b800984708bd0020004074ff012071
:020000040000fa
:1033c400094a136823f002031360136913f0020f10
:1033d400fbd1054a136843f002031360136913f029
:0c33e400020ffbd1704700bf0014004036
:020000040000fa
:1033f00008b5084b5b7a63b1064a937a3321917220
:1034000003f0ff002bb1044b1b6813b1024a516853
:0c341000984708bd00140040f0ff0120a8
:020000040000fa
:10341c0093b1f8b51f4616460d46044600212846c2
:10342c0000f04efa3346224629460020b8470028c1
:0a343c000cbf28460020f8bd7047c1
:020000040000fa
:1034460070b5adf50a7d04460e461546684600f091
:10345600d6f93146684600f080f92a466946204684
:0a346600fff7dbfc0df50a7d70bdd9
:020000040000fa
:10347000012911d930b44d08013901440138002324
:103480000a7810f8014f01f8014902700133dbb2ec
:0a349000ab42f5d330bc7047704723
:020000040000fa
:02349a00704779
:020000040000fa
:10349c0008b5024608461168064b1964516819654f
:1034ac0091681966d2681a670221fff7e1fe0120c4
:0834bc0008bd00bf000600443a
:020000040000fa
:1034c400084a537943f080035371136913f0040fce
:1034d400fbd1044a537913f0e00ffbd1014b988ad6
:0834e400704700bf002000400a
:020000040000fa
:1034ec0008b510b1012805d008bd0621044800f02c
:1034fc0097f9f9e70621034800f092f9f4e700bfc9
:08350c006813000070130000b9
:020000040000fa
:10351400064b00221a62064a1a6202f12b42a2f5f5
:103524004b12a2f6ab421a62704700bf0006004479
:04353400556699aa95
:020000040000fa
:10353800074b00221a609a815a601a46d369002bf9
:10354800fcd1034bbf221a7500221a76704700bfc0
:04355800000c004023
:020000040000fa
:10355c0008b50b68032b06d14b68043b012b05d82f
:10356c00fff7e6fe08bd6ff48770fbe76ff487701a
:02357c00f8e76e
:020000040000fa
:02357e00704794
:020000040000fa
:1035800008b50121084600f0a3f8012000f0dcf99d
:103590000021024800f0def908bd00bf8d380000b0
:020000040000fa
:1035a00000000001ffff0700000000000100000014
:1035b00000008001ffff0700000000000100000084
:020000040000fa
:1035c00008b5064b1b7813b1012b04d008bd034b83
:1035d00001221a70fae7fef7abfe00bfec5a00209a
:020000040000fa
:1035e00000230360436000f1080200f50a701946e9
:0e35f000134603f8011b1a468342f9d17047b7
:020000040000fa
:1035fe0000b58db0684600f038f9009b23b19df8f8
:0e360e002c10684600f087f90db05df804fb43
:020000040000fa
:10361c0008b5044b1b6b13f4806f02d0024b1b6874
:0c362c00984708bd000a00440402000199
:020000040000fa
:1036380061390000e936000001370000b93900009f
:0c364800c9370000dd370000c534000069
:020000040000fa
:1036540030b501390024a24206d0035d01340d5d6a
:0c366400ab42f8d0581b00e0002030bd45
:020000040000fa
:1036700008b500f051f8034b00221a70fff7a2fec4
:0836800008bd00bf21ff01207d
:020000040000fa
:1036880008b5034b1b6813b1024a1068984708bd78
:08369800fcff0120d85a0020bc
:020000040000fa
:1036a000044a9368d06883423ebf024a12699b185d
:0836b000181a704790ff012079
:020000040000fa
:1036b800044bd86a9b6a984282bf024a126b9b18d5
:0836c800181a704790ff012061
:020000040000fa
:1036d000044b93f8342083f8340083f83c101046f0
:0836e000704700bf90ff0120bc
:020000040000fa
:1036e800044a136843f002031360136913f0020fce
:0836f800fbd1704700200040e7
:020000040000fa
:10370000044a136823f002031360136913f0020fd5
:08371000fbd1704700200040ce
:020000040000fa
:10371800044a136823f002031360136913f0020fbd
:08372800fbd1704700140040c2
:020000040000fa
:10373000044b1b69834232bfc01ac3f58033c018e3
:08374000704700bf505a002041
:020000040000fa
:1037480010b582b001240194009313460a46302133
:08375800fff718fa02b010bde2
:020000040000fa
:1037600038b505460c4600f04df8ac60003418bf83
:0637700001242c6038bdad
:020000040000fa
:1037760010b5431e0a44914200d110bd11f8014b09
:0637860003f8014ff7e714
:020000040000fa
:10378c00a7390000e52c0000ed380000ab3100003b
:04379c00393a0000b6
:020000040000fa
:1037a00008b5034b186b0021fff768fd08bd00bf8b
:0437b00000060044cb
:020000040000fa
:1037b40010b5034b1c69fff771ff013c201a10bdc3
:0437c40090ff012051
:020000040000fa
:1037c800034b98831a46136913f0400ffbd17047d7
:0437d800002000408d
:020000040000fa
:1037dc00034bd8831a46136913f0800ffbd1704743
:0437ec000020004079
:020000040000fa
:1037f00008b5002202491046fff7b7fd08bd00bf1b
:043800005d35000032
:020000040000fa
:1038040008b50021016041604ff40872083000f0ef
:043814005bf808bd98
:020000040000fa
:1038180008b50021016041604ff40872083000f0db
:0438280051f808bd8e
:020000040000fa
:10382c0008b5034b1b7803b108bdfef77ffafbe725
:04383c0020ff012048
:020000040000fa
:1038400000b5adf6b44d01a901f0defd0df6b44da5
:043850005df804fb20
:020000040000fa
:10385400eff3108072b6bff35f8fb0fa80f04009c7
:023864007047ab
:020000040000fa
:1038660018b1bff35f8f62b6704772b6bff35f8f52
:02387600704799
:020000040000fa
:1038780010b5044600f098f82060012384f82c3035
:0238880010bd71
:020000040000fa
:02388a00704785
:020000040000fa
:10388c0010b9024b01221a70704700bfbdfe012017
:020000040000fa
:10389c0008b513460a461946fff767ff012008bd15
:020000040000fa
:1038ac00024b1868c0f3c030704700bf00060044dc
:020000040000fa
:1038bc00024bd88f0022da87704700bf90ff01209f
:020000040000fa
:1038cc0002440346934200d1704703f8011bf9e709
:020000040000fa
:1038dc0003461a46013311780029fad1101a7047a1
:020000040000fa
:0e38ec0008b508461946fff7d3ff002008bdb7
:020000040000fa
:0e38fa0008b56ff001020021fef7d1fe08bdf7
:020000040000fa
:0e39080008b50020fff7b2f800f05ef8fce70b
:020000040000fa
:0e391600a0f16103192b98bf00f05f0070470d
:020000040000fa
:0c39240008b511b108b101f08bfb08bd23
:020000040000fa
:0c393000014b1888704700bfbefe01204c
:020000040000fa
:0c393c0008b50421fff79cfc012008bd29
:020000040000fa
:0c39480008b1014a9063704790ff012015
:020000040000fa
:0c395400014b18625962704790ff01207f
:020000040000fa
:0c396000014b18605960704774ff012093
:020000040000fa
:0c396c00014b186059607047f0ff01200b
:020000040000fa
:0c39780008b508b1fff742ff002008bdb1
:020000040000fa
:0c398400014b01221a70704721ff012046
:020000040000fa
:0c399000014b00221a707047ec5a002016
:020000040000fa
:0a399c0008b508b1fff73aff08bdb7
:020000040000fa
:0839a60008b5fff7fafe08bda9
:020000040000fa
:0839b00000487047e0310000ff
:020000040000fa
:0839b800004870470090d003a5
:020000040000fa
:0839c00008b5fff747ff08bd41
:020000040000fa
:0839c80008b5fff74cff08bd34
:020000040000fa
:0839d00008b5fff7f5fd08bd85
:020000040000fa
:0839d800383600001600000063
:020000040000fa
:0839e0002a8648ce3d030104d4
:020000040000fa
:0839e8002b810400060000bf62
:020000040000fa
:0839f0002b8104001c0000bf44
:020000040000fa
:0839f8002b810400080000bf50
:020000040000fa
:083a00002a8648ce3d030101b6
:020000040000fa
:083a08002b810400210000bf26
:020000040000fa
:083a10002a8648ce3d030107a0
:020000040000fa
:083a18002b810400220000bf15
:020000040000fa
:083a20002b810400230000bf0c
:020000040000fa
:083a280008b5fff7d9fd08bd48
:020000040000fa
:083a300008b5fef771fe08bda8
:020000040000fa
:043a380000207047b3
:020000040000fa
:043a3c005300c40966
:020000040000fa
:1050000010b54ff08843d3f8e04024f03002c3f8e5
:10501000e02068b1012810d000204ff08843c3f889
:10502000e040013810f1030f8cbf0020012010bdbb
:105030004ff0807000f0e8f9efe74ff0847000f077
:04504000e3f9eae7bf
:020000040000fa
:105044002de9f84f0746884642f2107241f21001ea
:105054009848fdf7f1fd002800f08c81fef706fb6f
:10506400944b1c68944b1c60250cabb2934a138080
:10507400a6b25680043b0e2b00f26e81dfe813f0db
:1050840054001f0026017d016c016c0184016c0138
:105094006c016c016c016c016c0187000f00fef760
:1050a40003f90020854b1d88072d00f067810a2d28
:1050b40000f06b812d04042828bf02206fe17d4b92
:1050c400d3f804907d4bc3f8049043463a464946ce
:1050d4004846fef7b7f80746002800f05e81a4b200
:1050e400038803fb04944368426913449c4280f0a0
:1050f40054818369002b00f076811a68002a00f03d
:1051040064819047b86a49ea0009f86a09ea00002c
:10511400bb69002b00f02281db68002b00f02081aa
:105124003146984780b2bde7624b5868634b58607c
:1051340043463a460146fef785f80446002800f047
:105144002c8142690088b2fbf0f66368b1b200fbbf
:1051540001311a44914200f22081a269002a00f030
:1051640042811168002900f0248188476068a36a9d
:105174001843e36a1840a369002b00f0f380db684e
:10518400002b00f0f180b1b2984780b28ae7494b16
:10519400d3f804a0494ac2f804a0d3f80890c2f88e
:1051a4000890dc68d4601033136143463a460aeb36
:1051b40009015046fef746f80746002800f0ed8046
:1051c400836a4aea030ac36a0aea030a83696bb177
:1051d4001a6812b19047bb6943b15b6833b14a4660
:1051e400514637489847002840f0c080012e07d028
:1051f400022e32d00025ac4214bf0220002051e719
:105204005646bb694bb1d3f80880b9f1000f4fd0b3
:105214000025dff8b4a02b4f05e04ff00008f4e7b9
:10522400b9f1000fe7d0daf800204a4528bf4a4612
:105234009346434639463046fef7eef85e44a9eb02
:105244000b09bbf1000febd00beb07023b4613f845
:10525400011b0d449a42fad1e2e75646bb6923b3d7
:10526400d3f808804ff6ff70fdf710fdb9f1000f79
:1052740017d0dff854a0134fdaf800504d4528bf7b
:105284004d4643462a4639463046fef7c5f82e4475
:10529400a9eb050929463846fdf732ffb9f1000f9d
:1052a400ead1fef743fb0546a5e74ff00008d9e72e
:1052b4004d46a0e7a04700207cff0120c45a0020ef
:1052c400b047002000000020f8ff0120484a506841
:1052d400484b58609168996043463a460144fdf74b
:1052e400b1ff0746002858d0836913b11b6803b186
:1052f4009847404b5e68ba6a1643fa6a1640d3f878
:1053040008803c6bb8f1000f32d0dff8f0a04ff00a
:10531400000bdff8ec90daf80050454528bf45460d
:10532400bb6993b19b682a4649463046fef774f838
:105334002e4425f0030149444b468b4207d053f8d1
:10534400042b9442f9d00220ace65b46ebe7b8ebc1
:105354000508e0d10020a5e60320a3e60020a1e68d
:1053640000209fe600209de600209be6022099e6af
:10537400002097e64ff0ff3019e0012040f4e020d0
:105384001d4b186004210ee0002040f420201a4b2d
:10539400186000225a60082105e02d0402202843e9
:1053a400154b18600421144800f024fd0020bde8ca
:1053b400f88fa06a0343e06a1840d368002b7ff497
:1053c400e2ae0c4b1d88002074e6826a49ea0209a9
:1053d400c06a09ea0000db68002b7ff4a1ae054b2c
:1053e4001d88002066e6034b1d88002062e600bf8e
:1053f400a0470020c45a0020ac5a0020f8ff012026
:045404000000002084
:020000040000fa
:105408002de9f04f9db005460c460caecb4f0fcfa3
:105418000fc60fcf0fc60fcf0fc697e80f0086e84d
:105428000f0000230b932e460493059306930793ce
:10543800089309930a9302238df8243001238df8e9
:10544800253055238df82a30b5f1807f0dd0b5f180
:10545800847f14bf022701273369013b13f1030f2f
:1054680005d900201db0bde8f08f0027f4e74ff400
:10547800007229462046fef77af90023a3602374b8
:105488006374a374e374a3751c2204a92046fef771
:10549800ddf808b10020e5e704f5007a04f6043bde
:1054a80004f60c4804f68c49fef79ef920210ca856
:1054b800fdf7daff202114a8fdf7d6ffab7d5bb915
:1054c80095f82430002b40f0a8809d4b013bfdd17e
:1054d800306a00f50070c5e74046fef70afa4ff457
:1054e800007229462046fef742f9002184f8b711d8
:1054f800482204f5dc70fef7e5f94ff4f67204f182
:1055080014014046fcf7c6f849464046fcf7e4fd5e
:105518004046fef730f8ab7d012b61d0ab7d022b06
:10552800ced1002211465046fdf74ffc07235246c4
:1055380020215846fcf71efe0df1300cbce80f0088
:10554800c4f82002c4f82412c4f82822c4f82c3263
:10555800bce80f00c4f83002c4f83412c4f838228a
:10556800c4f83c320823c4f818320023c4f81c32ab
:105578000df1500cbce80f00c4f84804c4f84c14f2
:10558800c4f85024c4f85434bce80f00c4f85804d4
:10559800c4f85c14c4f86024c4f864340823c4f85c
:1055a80040340023c4f844340123c4f86836c4f8ee
:1055b800703695f8b711cdf804a00bab00932023f3
:1055c8004a4605f5dc70fdf771fc03903846fdf797
:1055d80089ff039bd3b91c215a48fef723f96fe7cb
:1055e8003846fdf77fff202205f5dc714846fef7b7
:1055f8002df820b91a215448fef714f98ee718211e
:105608005248fef70ff94ff0ff302be71a215048a8
:10561800fef708f94ff0ff3024e74046fef769f936
:10562800326a05f500714046fcf734f849464046b1
:10563800fcf752fd95f82430012b62d095f8243000
:10564800022b7ff442af002211465046fdf7bdfb06
:105658000723524620215846fcf78cfd0df1300ceb
:10566800bce80f00c4f82002c4f82412c4f82822a9
:10567800c4f82c32bce80f00c4f83002c4f8341265
:10568800c4f83822c4f83c324ff0080bc4f818b2fa
:105698004ff00008c4f81c820df1500cbce80f0054
:1056a800c4f84804c4f84c14c4f85024c4f854345a
:1056b800bce80f00c4f85804c4f85c14c4f86024ab
:1056c800c4f86434c4f840b4c4f844840123c4f86a
:1056d8006836c4f8703695f82810cdf804a00babde
:1056e800009320234a4605f12900fdf7dffb044615
:1056f8003846fdf7f7fed4b914211648fef792f89c
:10570800e3e63846fdf7eefe202205f1290148467a
:10571800fdf79cff20b915210f48fef783f88de7a8
:1057280013210e48fef77ef84ff0ff309ae612215b
:105738000b48fef777f84ff0ff3093e67813000038
:10574800ffff0500f0130000d4130000b813000099
:105758001014000058140000401400002c1400001d
:0457680070140000b9
:020000040000fa
:10576c002de9f04fadf27c4d0d46cb691b691c68e1
:10577c00c54e3046fef70cf9eb691b691022d9684f
:10578c003046fbf7c9fee4b2231d194602930027ed
:10579c000097234606f108028946bc48fdf7ecfa4f
:1057ac00bb4e264404f10c0239463046fef788f80d
:1057bc0006eb040808f10c0b442239465846fef758
:1057cc007ff84fea490a5246394608f15000fef775
:1057dc0077f830223946af48fef772f8dff8c0820e
:1057ec00d8f800304ff480725a80d8f800301a790b
:1057fc0002f0fe0267f3c3021a71a7b29f824ff444
:10580c0080521a8207eb020909f10409a3f81290dd
:10581c0007f608025600de8206f144029a835022f3
:10582c001a70d8f800004cf2010303819a4b984788
:10583c00d8f800301b8923b118460df27c4dbde819
:10584c00f08f302200219348fef73af88e48fef78d
:10585c009ff8eb691b691022d9698b48fbf75cfe3a
:10586c000beb04030c33aaf1080a05930aeb0301b2
:10587c00069101f10803039303eb040a0af1040aed
:10588c004ff00008cdf800802346844a0299504618
:10589c00fdf772fa7c48fef77bf8eb691b69102266
:1058ac00196a7948fbf738fea2440af1040acdf8cc
:1058bc0000802346794a02995046fdf75dfa4ff075
:1058cc00010c8df877c4a2440af1040acdf80080cb
:1058dc0001230df2774202995046fdf74dfa6a48c2
:1058ec00fef756f8eb691b69102299696648fbf7bd
:1058fc0013fecdf800802346684a02995846fdf7fe
:10590c003bfa6148fef744f8eb691b6910221969f0
:10591c005d48fbf701fea2440af1040a0aeb040bf2
:10592c000bf1040b0beb0403043304931819011d46
:10593c000846cdf800802346584a02990790fdf797
:10594c001bfaea699369cdf800809b00203202991a
:10595c005046fdf711faea69d2f84032cdf80080d2
:10596c009b0002f51272ddf808a051465846fdf76f
:10597c0003faea69d2f86834cdf800809b0002f58e
:10598c008e6251460498fdf7f7f96b694ff0010ce4
:10599c00cdf800c0a34228bf23462a69514603987c
:1059ac00fdf7eaf90df5137c6046fdf7f1ff0df1fb
:1059bc00240c6046fdf7ecff09ab93aae968a868d4
:1059cc00fcf7dcfe034600287ff436af939bcdf842
:1059dc0000809b0095aa51460598fdf7cdf9099bcf
:1059ec000698001bcdf800809b000baa5146043092
:1059fc00fdf7c2f9e200079820442c3241460430ee
:105a0c00fdf75eff264c2368a3f8028022685784ba
:105a1c004ff480539382a2f8169007f2044007ebe0
:105a2c0080003b1803f118011182568207eb4701e5
:105a3c000b449bb2194489b201f1300ca2f81cc082
:105a4c002433138397841430d08307f10c0333442d
:105a5c00538334370f4417845523137020684cf24a
:105a6c00010303810f4b98472368188920b9ab6950
:105a7c0001221a600346dfe648f202039842f9d18c
:105a8c00ab6900221a60f5e700fc0120001001024e
:105a9c000410010288fe01200900000208fc01200c
:085aac00b8fe01202d000002ec
:020000040000fa
:105ab4000e000000080000008801000094010000ae
:105ac400b4010000d4010000f4010000140200003d
:105ad40030020000e839000005000000b6000000b4
:105ae40001000000100000000a0000005002000045
:105af4005c02000080020000a4020000c802000052
:105b0400ec02000010030000f03900000500000062
:105b1400cc00000001000000140000000c00000094
:105b240034030000400300006c03000098030000ed
:105b3400c4030000f00300001c040000f839000056
:105b440005000000b800000001000000180000007b
:105b54000100000048040000540400008804000010
:105b6400bc040000f00400002405000058050000f7
:105b7400003a0000080000000802000001000000d4
:105b84001c0000000e0000008805000094050000c1
:105b9400d00500000c060000480600008406000042
:105ba400c0060000083a000005000000d100000013
:105bb400010000001e00000004000000fc060000bc
:105bc400080700004807000088070000c807000015
:105bd4000808000048080000e03900000800000040
:105be4000b0200000100000020000000070000007c
:105bf4008808000094080000d80800001c09000070
:105c040060090000a4090000e8090000103a00003f
:105c1400080000000e020000010000003000000037
:105c24000f0000002c0a0000380a00009c0a000043
:105c3400000b0000640b0000c80b00002c0c0000db
:105c4400183a000005000000d20000000100000026
:105c54004200000010000000900c00009c0c0000aa
:105c6400200d0000a40d0000280e0000ac0e000062
:105c7400300f0000203a000005000000d3000000af
:105c84000100000000000000ffffffff0000000013
:105c94000000000000000000000000000000000000
:105ca40000000000000000000000000000000000f0
:085cb4000000000000000000e8
:020000040000fa
:105cbc004ff08842d2f8003113f4007ffad0002361
:105ccc00434901334a6a12f0010f11d1b3f5fa5f5f
:105cdc00f7d13f4b5b6a13f0010f0cd13c4a536870
:105cec0043f480735360536a13f0010ffbd002e04e
:105cfc00b3f5fa5fedd2374ab2f8ba3403f0fd03cc
:105d0c00a2f8ba340022324901324b6a03f0030381
:105d1c00032b13d0b2f5fa5ff6d12d4b5b6a03f06f
:105d2c000303032b0dd02a4a536843f400735360ca
:105d3c00536a03f00303032bfad102e0b2f5fa5fc6
:105d4c00ebd24ff088430022c3f8b020224ac3f8ac
:105d5c00b02002f12b42a2f54b12a2f6ab42c3f8d3
:105d6c00b02003f520631d4a1a624ff480721a604a
:105d7c0001229a601a46136813f0010ffbd1184bdd
:105d8c0048f20902c3f8502140f201221a674ff47d
:105d9c0000429a674ff08843124a1a6600221a672b
:105dac004ff01942c3f880200f4ac3f8c02047f2c5
:105dbc00ce42c3f8e0204ff03332c3f8b020044b8e
:105dcc005a6842f010025a604ff080721a607047a5
:105ddc000040014100200141556699aa080100c00c
:0c5dec00000a004400900009cf010120d3
:020000040000fa
:085df80008b5fbf79dff08bd93
:00000001FF
