:020000040000fa
:10000000f8ff0120699e040171bc040175bc040164
:100010007dbc040181bc040185bc0401000000001a
:10002000000000000000000000000000b9d803013b
:1000300079bc0401000000001dd9030185d903012a
:100040008154040197270301972703010109040143
:100050009727030197270301972703019727030198
:100060009727030197270301972703019727030188
:10007000e9700301972703019727030197270301dd
:100080009727030197270301972703016979040143
:100090009727030197270301972703019727030158
:1000a0009727030197270301972703019727030148
:1000b0009727030197270301f9a602019727030158
:1000c0009727030125a6020197270301972703011c
:1000d0009727030197270301972703019727030118
:020000040000fa
:020000040004f6
:045f8800ffff000017
:020000040000fa
:020000040004f6
:045f8c0000400e843f
:020000040000fa
:020000040004f6
:045f900038fc745f06
:020000040000fa
:020000040004f6
:045f94003844121467
:020000040000fa
:020000040004f6
:045f98000300007191
:020000040000fa
:020000040004f6
:045f9c000000000001
:020000040000fa
:020000040004f6
:045fbc0000000010d1
:020000040000fa
:020000040100f9
:1040000000430800ac230120000000000000000075
:1040100001430100c9210120000000000000000050
:1040200002430100cc21012000000000000000003c
:104030000a400100023800200000000000000000db
:10404000004004005c2d0020000000000000000083
:10405000094001009d2d002000000000000000002c
:1040600008402000d00d00200000000001000000ea
:104070000740e803a8140020000000000100000031
:1040800006400200c02d00200000000000000000db
:1040900005403800f00d0020000000000200000084
:1040a00004400300ba2d00200000000000000000c2
:1040b0000340f000101b002000000000030000007f
:1040c0000240c800a0010020000000000100000024
:1040d00001406000c82d00207dae030100000000fb
:1040e0002cbd04010900004cf8b500bff8bc08bca9
:1040f0009e467047b5b30401f8b500bff8bc08bcd4
:084100009e46704791b30401d3
:020000040000fa
:020000040100f9
:084108007cc20300010000006d
:020000040000fa
:020000040100f9
:10411000a0f57f40fb3804281cd8dfe800f0050e2e
:10412000161b0300012070470b4b93f82e20012a29
:1041300010d1187ac0f380007047074b93f82e0017
:1041400001288cbf002001207047034b187ac0f370
:10415000c000704700207047702d0020034b93f87b
:104160005201a0f1aa035842584170473838002044
:104170000a4af0b5d2e93a321978c90707d5d0e929
:104180000067d3e90245af4208bfa64203d010330f
:104190009a42f1d800231846f0bd00bf38380020fd
:1041a000074ad2e93a321978c90702d559888142bb
:1041b00003d010339a42f6d800231846704700bf48
:1041c00038380020f0b50c4bd3f8e06093f8e55098
:1041d00000231c4606ebc302d7783fb117888742fd
:1041e00004d197788f4204bfd47054600133dbb29e
:1041f0009d42efd2f0bd00bf38380020034b93f84a
:104200004c00a0f141035842584170473838002013
:104210003d2803d111b1024b0a881a80704700bfb4
:10422000580b0120034b93f83c00a0f1d6035842f1
:104230005841704738380020034b93f8c400a0f170
:10424000130358425841704738380020034b93f805
:104250007801a0f1b7035842584170473838002020
:10426000437800f1080210b513f008040a611dbf7d
:104270000a6000f110020a610c6013f010021fbf07
:104280000a694a6008320a6108bf4a6013f00102f5
:104290001fbf0a698a6001320a6108bf8a6013f091
:1042a00004031dbf0b69cb601a78cb601ebf0132bf
:1042b00003eb42030b610b69181a087510bd084a1d
:1042c000d2f80c3292f8082203eb8212934201d307
:1042d00001207047197809b94033f7e7002070478b
:1042e00038380020034b93f80002a0f1da0358425b
:1042f0005841704738380020014bfd221a70704732
:1043000038380020034b93f8b900a0f1e603584277
:104310005841704738380020034b93f87c0202382c
:1043200018bf0120704700bf38380020034b93f8b6
:104330007001a0f18e035842584170473838002070
:10434000024bfb2283f86823704700bf38380020f7
:10435000034b93f86803a0f1fb03584258417047a0
:10436000383800200c4b30b12830d3f8f820904278
:1043700004d300207047d3f8f400f6e7037803f085
:10438000fb03012b05d1837edb0702d483888b429c
:10439000f0d12830ebe700bf38380020084ad2f8c7
:1043a000f430c01a074bc0104343d2f8fc0000ebb6
:1043b000c3008079430714bf00f00700072070474f
:1043c00038380020cdcccccc144b93f800319a4235
:1043d00094bf9b1adb1adbb299421dd2104b68b115
:1043e000597c890708d493f84800904294bf002074
:1043f000012080f0010070470020fae75a7cd207c4
:1044000005d493f84900884294bf0020012080f031
:10441000010000f00100704701207047383800208b
:10442000702d00200b4a10b5d2e93d311a78062aca
:1044300009d05c78022c06d102f0fb02012a02d1dd
:104440009a88824203d028339942efd80023184635
:1044500010bd00bf383800204bf6dd734343c3f373
:104460000333094a32f8331030ea010103d102eb79
:10447000c3035b680bb9002070479a88824201d061
:104480005b6af7e701207047883c0020024b6622f8
:1044900083f8b023704700bf3838002073b50d4b48
:1044a000d3f8dc1293f8e052002201230839d4b289
:1044b000a54206d8002064f3070063f30f2002b082
:1044c00070bd013251f832608642f3d05b00dbb23e
:1044d000ede700bf383800202de9f04f074685b0e2
:1044e0000020994688461646244cfff7d7ff94f8db
:1044f000e032adf80c00c0b2834232d904f1f401cd
:1045000091e80a109df80d20dff874e001930d4644
:104510006fea020a2b78062ba5eb01030ad095f867
:1045200001b0bbf1020f05d0b5f804b0c34501d00e
:10453000b34519d1db100efb03f30cebc30393f867
:1045400007b00bea0a0b83f807b0019b28359d42a0
:10455000e0d3d4f8dc3203ebc0000760868080f83b
:10456000069005b0bde8f08fdb100efb03f30cebfb
:10457000c30393f807b042ea0b0be4e73838002096
:10458000cdcccccc07b5fff789ff074b93f8e022e1
:10459000c0b2824282bfd3f8dc32002243f830201e
:1045a00003b05df804fb00bf38380020044b93f8db
:1045b000100200f0fd00a0f1480358425841704736
:1045c00038380020024b272283f81023704700bfa1
:1045d00038380020034b93f81003a0f1270358420a
:1045e0005841704738380020034b187ca0f119035c
:1045f00058425841704700bf38380020094b30b549
:10460000d3f8a823b3f8ac4300239c4202d1002185
:10461000084630bd114632f8145b8542f8d00133ac
:104620009bb2f2e73838002038b505460c46fff754
:10463000e5ff50b9124ab2f8ae33d2f8a8131420ed
:1046400000fb03100133a2f8ae336278428020f8f9
:10465000045b002399b28a420ad8094bb3f8ae230f
:10466000b3f8ac1391429cbf0022a3f8ae2338bd2f
:1046700004eb4301498820f813100133eae700bf37
:1046800038380020034bd3f88002b0fa80f040099c
:10469000704700bf38380020084a10b5d2e9a73269
:1046a0001c782cb19c7a8c4202d19c88844203d025
:1046b00018339a42f4d80023184610bd3838002029
:1046c00010b50446006948b1636923b15a68a24233
:1046d00004bf00225a60c36810309847002323703b
:1046e00010bd436810b4c3b11a69b2b15c698442a9
:1046f00013d151b114205074002018701046d368a3
:1047000000f8101f5df8044b1847107928b9587845
:10471000196161f3c3005870f0e75df8044b70470e
:10472000034b93f8a402b0fa80f04009704700bf31
:1047300038380020114930b5b1f8ac32d1f8a802b0
:10474000c3ebc303c21800230479e40709d593b16e
:1047500045795c79a54238bf034607309042f3d3d0
:104760001846037943f00103037191f8ae22012347
:104770009340437130bd0346efe700bf3838002057
:104780000c4a10b5d2f8a832b2f8ac22c2ebc20281
:104790001a441c7914f0010f06d0c4f300148c42a3
:1047a00002d11c88844203d007339342f1d3002303
:1047b000184610bd3838002008b5fff7e1ff18b1e2
:1047c00003796ff30003037108bdf8b507460e4681
:1047d00015461c46fff7d4ff58b18379a34207d38f
:1047e000094b93f8ae2201239340437145808471b5
:1047f000f8bdfff79fff0379078003f0f10366f32d
:1048000004130371f2e700bf3838002010b50a4bdb
:1048100093f82014d3f824240023994202d1ff23d3
:10482000184610bd147814b154788442f8d001337e
:10483000dbb21c32f1e700bf3838002008b5fff7c3
:10484000e5ff084b93f82024824281bf00b2d3f8e1
:104850002434c0ebc00003eb80008cbf023000208a
:1048600008bd00bf3838002010b50446c069437841
:104870005b078ab010d56946fff7f2fc039b5a78b4
:1048800003eb42039a78db7842ea03232385012372
:1048900084f832300ab010bd8378c27843ea02232c
:1048a000f4e7044b93f88001a0f19a035842584171
:1048b000704700bf38380020024b002283f8d52211
:1048c000704700bf3838002090f8873043f002036b
:1048d00080f88730012380f83230704730b50d4cb6
:1048e00030b12830d4f8f850a84204d3002030bdad
:1048f000d4f8f400f6e70478062c09d04478022caa
:1049000006d08488944203d08c4201d09c42eed1e0
:104910002830e9e738380020034b93f8e802a0f18b
:10492000310358425841704738380020024a5368d2
:1049300023ea00005060704738380020024b986e20
:10494000b0fa80f04009704738380020034b93f8e4
:104950002804b0fa80f04009704700bf38380020c2
:1049600010b5094c502384f85033b4f83a33a4f806
:10497000583304f55270054bc4f8603335f060f8d5
:104980001b2384f8383310bd3838002055810001ce
:1049900008485f2380f81032074bc0f830324123bb
:1049a00080f82032002380f8283200f5067035f0b8
:1049b00047b800bf383800200d51000173b50646d6
:1049c0006846cde90023fff7d3fb0446d8b9164d5e
:1049d000d5f8f040d5f8e8309c4203d3d5f8ec3058
:1049e0009c4205d3114b43f214121a8045f034fd5a
:1049f000d5e93b2310339342c5f8f03024bfd5f8f6
:104a0000e830c5f8f0302378668043f00103237066
:104a1000dde90023c4e9022323789df8182062f31e
:104a20004103237002b070bd38380020342e0020be
:104a300007b531b35028164b08d0512824d03d2853
:104a400007d11a8909880a441a8102e09a8801323a
:104a50009a809988a9b1d88864224243b2fbf1f2c6
:104a6000d2b2192a0dd99a785ab901229a704ff602
:104a7000ff73adf8043001a814238df8063011f04f
:104a8000abfc03b05df804fbda880132da80e0e7c2
:104a9000580b0120134b984237b5054605d0124bf1
:104aa00043f205021a8045f0d7fc104c002384f82d
:104ab00030302b789bb90e4d238c29460d2021f8e0
:104ac0003a3f3cf01ffe94f8313043b96b8fadf89c
:104ad000043001a810238df8063011f07dfc03b0de
:104ae00030bd00bf840b0120342e0020580b012064
:104af000702d0020037907b56bb1084b93f8532054
:104b0000920708d55b8fadf8043001a809238df812
:104b1000063011f061fc03b05df804fb702d00203d
:104b2000164ad2f8f43013b5c31a154cdb106343a0
:104b3000d2f8fc4004ebc3040378052b08d101a98b
:104b40002c203cf0b3fd019bdb0a236002b010bdba
:104b50004378022b05d1026a03f2e63353430193f3
:104b6000f1e70df1030114203cf0a0fd9df80330a6
:104b700043f6982203fb02220192e4e73838002032
:104b8000cdccccccf0b585b01a4cadf804000df10d
:104b90000f012520d4f8f4503cf088fdd4f8fcc077
:104ba000d4f8f470d4f8f8109df80560124c002089
:104bb00002462b78062b0ed0eb1bdb1063430ceb6d
:104bc000c303db791e426b7804bf0132d2b2022be1
:104bd0001cbf0130c0b228358d42ead340b19df8e8
:104be0000f30984228bf184690428cbf0020012009
:104bf00005b0f0bd38380020cdcccccc0d4a012317
:104c000003fa00f0536810b50b4c0343536023883c
:104c10001b070ed438f068fe238843f00803238076
:104c200038f072fe054b06481b68bde810401b6952
:104c3000184710bd383800209e0f01205432002044
:104c400058320020034b9a6f192083f8b90011776e
:104c50000c20d3e738380020024bf92283f8b42225
:104c60001020cbe738380020437843f0010361f38c
:104c700041034370044b93f8a42222b9932283f892
:104c8000a4220520bae7704738380020d0b5124c6e
:104c9000124ad4f8b83392f8381083f82a10d2e9bf
:104ca0001067528f1a8583f82b00c3e908675a6989
:104cb00003f1200090470023c4f8b833d4f8b4338c
:104cc00033b1672384f8b0331220bde8d04095e7b4
:104cd000662384f8b033d0bd38380020702d002012
:104ce0000f4b0079d3f8b823127b062a00d1cde709
:104cf000042a10d178b96a2283f8b023094ac3f88c
:104d0000d823452283f8c823074ac3f8d02303f5e4
:104d1000707034f095beea2808bfca20e7e700bfec
:104d200038380020ed6400018e2d0020054b0178fd
:104d3000d3f87c2182f82810472283f880210620ae
:104d40005ce700bf38380020436803221a705970ae
:104d5000172053e737b5164c94f85221452a0546db
:104d600005d0144b4ff446521a8045f075fb15b12f
:104d7000114b9d4205d00f4b43f281121a8045f032
:104d80006bfbaa2384f852310c4bea7a5b8fadf8a7
:104d9000043052b9102301a88df8063011f01cfb25
:104da0000220fff72bff03b030bd0923f3e700bf5c
:104db00038380020342e002070390020702d00205b
:104dc00070b5184c94f8c430d4f8c060e82b054690
:104dd00005d0154b43f287021a8045f03dfb2eb9f2
:104de000114b43f288021a8045f036fb06f10c03a2
:104df0009d4205d00c4b43f289021a8045f02cfbf2
:104e0000736a2a791a702a685a60ea791a72e92351
:104e100084f8c43094f8c53023700d20bde870408c
:104e2000ece600bf38380020342e002070b5144c5a
:104e3000d4f8746105462eb9124b43f2b4021a80bd
:104e400045f00afb06f118039d4205d00d4b43f2d5
:104e5000b5021a8045f000fb94f878315e2b05d03e
:104e6000084b43f2b6021a8045f0f6fa2b7886f822
:104e70004c30582384f878310920bde87040bde6f5
:104e800038380020342e002070b5164c94f83c20a1
:104e9000a56b712a064605d0134b43f2d7021a8040
:104ea00045f0dafa2db9104b43f2d8021a8045f0da
:104eb000d3fa05f10c039e4205d00b4b43f2d90205
:104ec0001a8045f0c9fa337913b1fa2b08bf0023d1
:104ed00085f82430722384f83c300820bde8704007
:104ee0008ce600bf38380020342e0020037810b53f
:104ef0000e4c93b96f2304f5ec71062084f8d03181
:104f00003cf0d4fb0a4bc4f8e03104f5e47034f013
:104f100097fd352384f8003210bdd4f88c210a2087
:104f200082f82b30fff76afe2223f3e7383800209f
:104f3000b98e00010d4b37b50d4cd3f82c2494f8e5
:104f40005350052183f82814fe2313741620fff70d
:104f500055feab0708d5638fadf8043001a80923cf
:104f60008df8063011f038fa03b030bd3838002023
:104f7000702d0020f0b5214a85b0d36e92f8707084
:104f800000244ff4a072064602fb07328df807405a
:104f90002546934214d335b302a940f231103cf0b8
:104fa00085fb04ab3344052f13f8093c13d89c420e
:104fb0002cbf00240124b4b12e70284605b0f0bdea
:104fc000197831b1b14201d10134e4b203f5a073d3
:104fd000dfe71d46fae713fb07f3b4eb930fb4bf0b
:104fe00001240024e7e701230df1070146208df895
:104ff0000730002540f068f8dfe700bf38380020b0
:1050000008b5fff7b7ffb8b100f11a0390f8072110
:10501000c0f89c300023c0f8c43080f8c030c0e92c
:105020003233a0f8bc3063f34102044b80f807210f
:105030005b8fa0f80031803008bd00bf702d0020cc
:10504000742908b501d9002008bdfff793ff002897
:10505000f9d000f10c03c0f884308030f4e7f0b5eb
:10506000537d122b87b00d46144620d81669177d44
:105070007178ba1c88b23b44dbb202eb4002934227
:1050800015d1aa88adf8052000238df804308df8dd
:10509000071001aa99b2884202f102020ad801a9b6
:1050a0003e2040f011f82169a888fff7bdfa0020e2
:1050b00007b0f0bd06eb43070133b978ff7841ea4a
:1050c00007215180e6e770b50f4d0024b5f8ac32ea
:1050d000a34200d870bdd5f8a822c4ebc406324460
:1050e000127902f02102212a03d121460a203ff041
:1050f000ebffd5f8a832334401341a796ff3451227
:105100001a71a4b2e2e700bf3838002070b50e4c27
:1051100010f80c1cd4f8145206462a203ff0d4ff95
:1051200094f81032602b08d133782b735e2384f807
:1051300010320720bde8704060e50db15d23f6e751
:10514000482384f8103270bd38380020164b2de902
:10515000d043d3f80c4206460f4644b9134b4ff4e4
:1051600041521a8045f066f92046bde8d08356eae0
:10517000070110d093f80812234604eb8111002494
:105180008b42f1d2187858b13ab1d3e90289b945c6
:1051900008bfb04505d10024e6e7d3e90689f6e764
:1051a0001c464033ece700bf38380020342e002086
:1051b00008b50146034844f063fa0320bde80840ff
:1051c0001ce500bf7838002010b504460120fff729
:1051d00017ff58b1064a224492f85811013982f853
:1051e000581180f88640fff7e3ff012010bd00bf93
:1051f00038380020132810b5044605d90c4b43f26b
:10520000d2121a8045f028f90a4a224492f85831fd
:105210000133dbb282f858312bb9054b43f2d3127c
:105220001a8045f019f92046bde81040cce700bfd0
:10523000342e00203838002003790a4a1bb103f0cd
:10524000ef03ea2b09d1d2f8283301688b4304d04d
:10525000522382f810330820cce7272382f810333a
:10526000704700bf3838002010b50446b830fff74b
:1052700089f90023124a2370d15cd8b2d1b1fff76b
:10528000a3ffd8b90f4c94f8a4321a2b02d10520f1
:10529000fff7b4fc94f87031902b05d1912384f87a
:1052a00070310f20fff7aafc636f3bb11520bde8fa
:1052b0001040a3e40133142bded1e3e710bd00bf9f
:1052c000903900203838002038b50d4d014604468d
:1052d000284644f0d5f92b7f782b10d120232b774b
:1052e000a37d0c2b09d020894ff6f77398428cbf11
:1052f00001200220bde838407ce71020fae738bde5
:10530000f03a002037b50546214c38b194f85231b7
:10531000442b03d104f59a73984205d01d4b43f2f8
:1053200082121a8045f098f82d78aa2384f8523119
:105330004dbb194ab4f828315387adf8043001a8a1
:1053400010238df8063011f047f894f85431d3b19a
:105350000d2384f82e314ff6fd73a4f8203102336b
:10536000a4f82431b4f85031a4f822310b4bc4f81e
:105370001c310b4884f82851462384f85231fff73a
:10538000a3ff03b030bd0220fff738fcf9e700bff0
:1053900038380020342e0020702d0020518e00015e
:1053a0005039002030b40c4c94f8d55295b984f89b
:1053b000d2320123a4f8c402a4f8c612a4f8ca2267
:1053c000a4f8c82284f8cc5284f8d53204f52f70a2
:1053d00030bc79e730bc70473838002010b441b198
:1053e000c469b0f880206188a0885df8044b0b2365
:1053f000d8e75df8044b704710b5d0f89430104ce6
:10540000c0f8a030002380f8a910c0f8a4300146ed
:10541000204644f035f92379412b06d1032323712b
:105420000e20bde81040fff7e9bb032b07d0054b6a
:1054300043f2b312bde810401a8044f0fbbf10bd28
:1054400080380020342e002038b5446890f883302e
:1054500084f8a8300d463830fff794f829462046e6
:10546000bde83840c8e708b500f10801084844f035
:1054700007f9084b93f8b023662a07d1672283f80f
:10548000b0231220bde80840fff7b8bb08bd00bf3d
:10549000ec3b0020383800200a49d1f80c32834216
:1054a00005d891f8081203eb8113984205d3064bf7
:1054b00043f241021a8044f0bdbf4022002146f071
:1054c0005dbc00bf38380020342e0020034b002282
:1054d000c3e900224ff48070fff728ba3c3800205f
:1054e000094bd3f8480493f8442400239a4200d18e
:1054f00070470178032903d11822002146f03ebcf1
:1055000001331830dbb2f1e7383800202de9f341e0
:1055100001230746884637200df107018df8073033
:105520003cf0c4f83e4890f82e20022a4ff00006c6
:1055300006d19df807301bb9032002b0bde8f08109
:10554000384c002394f8e510d4f8e0c01d460ceb6d
:10555000c30292f803e0bef1000f37d0b2f800e0ca
:10556000be4536d19278424533d10020e5e737f089
:10557000b9f8d4f8d030d4f8e07094f8e5608342fc
:105580008abfdb43c01ac0184ff0ff32002307eb7d
:10559000c301cc7854b14c6844b1a94206d08442ce
:1055a0000ed9241aa2424c6028bf22460133dbb236
:1055b0009e42ecd269681c4b8a4228bf0a4625e00d
:1055c00000244c60cc70f1e70220b6e70db91e460e
:1055d00015460133dbb29942b9d2002df4d085f8db
:1055e0000280c2682f800a320123b1426a60eb70e8
:1055f00007d194f8e430013b99423cbf013184f873
:10560000e51094f8c830002bb1d1074b07480121b1
:1056100045f0c0fc054845f0d1fc01208de700bff6
:10562000702d00203838002031560001003900204c
:10563000f8b5174bd3f8e060d3f8d47093f8e55081
:105640004ff0ff32002106ebc104e07830b1606812
:10565000c01b606090b1824228bf02460131c9b2ce
:105660008d42f0d2511c0bd00a4b0b48012145f062
:1056700091fc0948bde8f84045f0a0bce070ede7ba
:10568000002283f8e5200448bde8f84045f09ebcc0
:1056900038380020315600010039002013b540f29f
:1056a0000b100df106013cf001f8bdf806303bb9d6
:1056b0000c4b43f215121a8044f0bcfe02b010bd30
:1056c000094c40f20a2021463bf0d6ffbdf80620e7
:1056d0002068120183180021636046f04ffb2368a5
:1056e000a360ebe7342e00202039002010b50f4bcb
:1056f00093f83720827793f8382081610123934013
:10570000436140f601030446838300f11f014ff417
:1057100082703bf0cbff04f1100140f202203bf01d
:10572000abff2046bde8104034f087b9702d002053
:105730002de9f743354d95f86833fb2b49d13449b2
:10574000c8884b8f984244d1507d092841d91669a9
:10575000d1e91023d6f80690d6f802804b4508bf51
:10576000424536d1737813f0e00732d103f01f03be
:105770000533b0eb430f2cd18c8f4ff482700df1b9
:1057800007013bf093ff9df807300133dbb2013492
:10579000a4b28df8073038464ff6ff7c9ab2737882
:1057a000c1b203f01f038b420ad9a5f86cc30021d4
:1057b0007778cbb207f01f079f420ed88f421cdcd0
:1057c00014491548a5f86a43fff790ff832385f82d
:1057d0006833012003b0bde8f0830b1d06eb4303e3
:1057e0005b881b1b9bb29342e8d9b5f86c739f4250
:1057f00088bfa5f86c330131dae7031d06eb4303dc
:1058000001305c880134a4b2c9e700bf38380020f9
:10581000702d0020a9810001a83b002038b501238c
:1058200080f824300b68c36190f84d3080f8253043
:105830000d4b93f8373080f82630044600f1080508
:1058400000f127014ff482703bf030ff04f11801a2
:1058500040f202203bf010ff044b23622846bde8d3
:10586000384034f0eab800bf702d0020e97900011b
:10587000f7b52f4c94f87831d4f87451572b06466d
:1058800005d02c4b43f2a8021a8044f0e5fd2db957
:10589000284b43f2a9021a8044f0defd05f1100303
:1058a0009e4205d0234b43f2aa021a8044f0d4fd55
:1058b00033796bbb3168ea6922ea0102019232b99d
:1058c0001c4b43f2ba021a8044f0b4fd1ee0b768e4
:1058d000f679202001229e4211d9019911420ad065
:1058e00017f803c0bcf1cc0f88bf914303f101034b
:1058f00088bf0191dbb201384fea4202ebd101a926
:105900002846fff78bff562384f8783103b0f0bdab
:10591000fa2b03d1074b43f2bb02d4e785f84c3096
:105920000920582384f87831fff768f9eee700bfc3
:1059300038380020342e00200348002380f87c32c1
:1059400000f514703df0faba3838002073b5164ce3
:105950000df107014ff486703bf0a8fe214640f29e
:105960000b203bf089fe9df80720206802eb4202e5
:10597000d200831800216360002646f0fff9202042
:105980002672fef7d3ffa4f1140066723df0d6fa3a
:10599000064b44f8043c4ff4807304f8086c44f858
:1059a0000c3c02b070bd00bfd43a0020b1590001d8
:1059b00038b5104c0023d4f89c5284f8a5322b78cb
:1059c00033b1013bdbb22b707bb92846fef778fe82
:1059d000d4f8a0321835ab42f1d894f8a53243b9c7
:1059e0000548bde838403df0a9ba012384f8a53246
:1059f000eee738bd38380020c03a002013b5002348
:105a00000df107014ff498708df807303bf04efe12
:105a10009df807308bb10a4c94f890238b2a05d15e
:105a2000084b43f203221a8044f016fd94f8903399
:105a30008a2b02d104483df081fa02b010bd00bfac
:105a400038380020342e0020cc3b0020f8b5174c0d
:105a500094f82834042b0f4623d1d4f82c6415690c
:105a60002eb9134b43f205521a8044f0f5fcbb7972
:105a7000012b18d10f483df061fa94f82834042b1b
:105a800007d16b782bb9ab780b4a03f0070382f888
:105a900053306b78052284f8282416203374fff7de
:105aa000adf80020f8bd0120fce700bf3838002029
:105ab000342e0020683c0020702d00200348012374
:105ac00080f87c3200f514703df00eba38380020b2
:105ad000054b1a78d20705d5022283f87c220020d4
:105ae000fff788bbeae700bf383800201e2810b552
:105af0000c4613d10b88b3f5005f0fd1fff71cffe5
:105b000063681a68064bc3f85822012283f85c22a6
:105b1000044ac3f86022bde81040cfe710bd00bfc3
:105b200038380020d15a0001084831b9042380f8e0
:105b3000283400f586603df0d7b9d0f82c34052222
:105b400080f8282419741620fff758b83838002038
:105b50000b4881b9552380f81033012380f8203396
:105b600042f21073c0f81c33064bc0f8243300f522
:105b700045703df0b9b9272380f81033704700bf56
:105b800038380020c545000107b54ff48a7001a9d7
:105b90003bf08cfd134b93f87a221946d2b193f85f
:105ba0007b22013ad2b283f87b229ab1019858b194
:105bb0000122c3f86c0283f87c2203f519703df0d2
:105bc00093f903b05df804fb022283f87c22fff70f
:105bd00011fbf6e743f69823c1f85832fff76eff42
:105be000efe700bf38380020194b70b5d3e9a74163
:105bf0000646002522784ab993f8a522b2b90122b7
:105c000083f8a52213483df06ff90fe06078000794
:105c100004d4d5b12878904288bf25461834a142d3
:105c2000e8d885b12846fef74bfd2c461822002106
:105c3000204646f0a3f84ff0000366f3c3036370f9
:105c4000272323702546284670bd2546e6e700bf7a
:105c500038380020c03a002038b50d4cd4f8f45044
:105c60002846fef75dffd4f8f83028359d42f7d37b
:105c7000084bc4f814314ff40063c4f80c3100230e
:105c800084f810310448bde838403df02db900bf1c
:105c90003838002071cc00013c39002010b50f4c81
:105ca0001d2021463bf002fd2368b3b142f25d7234
:105cb00093420b489cbf42f25e732360012380f83d
:105cc000a033084bc0f8a4338a2380f89033bde892
:105cd000104000f565703df007b910bdd43b0020c1
:105ce0003838002091b6000107b500230df10701f7
:105cf0004ff498708df807303bf0d8fc9df80730d2
:105d000053b1084b93f89033892b08d0064b4ff4ce
:105d100048521a8044f08efb03b05df804fbfff795
:105d2000bdfff9e738380020342e002008b5074bb6
:105d300093f890338b2b05d0054b43f202221a8047
:105d400044f08afbbde80840a8e700bf38380020cf
:105d5000342e00202de9f0470d4691f820100172f5
:105d600090461e4642686b6a9342044608d20b4432
:105d70009a4205d21a4b43f2a7121a8044f06cfbe8
:105d8000227a696a606845f03bff04f1100160689f
:105d9000b5f808a095f82890277a95f92a50fef7cb
:105da0005ffa94f824309df8202084f82890ff1a98
:105db000237884f8257084f8295062f3000398f85a
:105dc0000120a4f826a0520862f341039df8242084
:105dd00066f3c70362f382032370bde8f08700bf58
:105de000342e002010b5074c002384f8883004f1cd
:105df0008000054bc4f88c3033f0dcfd142384f8ac
:105e0000b93010bd38380020f1c60001036893f99d
:105e10001230002b05da1323002180f841300846a8
:105e2000e0e7122380f841300620fff7e3b910b510
:105e30001d4c94f82834d4f82c04012b224620d190
:105e40002378db0618d503790e2b03d8437913f09a
:105e5000fe0f09d0052382f82834c12303741620cd
:105e6000bde81040fef7cabe022384f82834122091
:105e7000bde81040fff7beb9052384f82834c223db
:105e8000ece7052b0fd183680c30984704f22c40c7
:105e900043f01afcd4f82c341bb1012384f82834c5
:105ea000dde784f8283410bd3838002010b507200d
:105eb000fff760f80446c0b10c4843f005fc04f15c
:105ec0003503c4f81031037984f831310346803446
:105ed00043f80c4f826818469047054b5b6f23b11f
:105ee0001520bde81040fef789be10bdac3800207b
:105ef0003838002070b5144d064605f57d70d5f88c
:105f0000f44343f0e1fb114991f8383084f8223032
:105f1000d1e91023c4e906234b8f238484f823603e
:105f2000e36804f118009847d5f8f4333bb1172320
:105f300085f8f0331320bde87040fef75fbe1623ee
:105f400085f8f03370bd00bf38380020702d002078
:105f5000007810b9014bbd221a70cbe73838002009
:105f600070b5244c04f56d70d4f8b45343f0acfb19
:105f70002378287913f0100fa5f1080623461ad0cc
:105f8000042818d11c4b2a7c1a72682384f8b03379
:105f90001a4bc4f8d83306206f2304f57471c4f883
:105fa000b86384f8c8333bf081fb04f57070bde83a
:105fb000704033f045bd062812d10f4a297c11727a
:105fc000682283f8b0230d4ac3f8d8236f22c3f8a0
:105fd000b86383f8c8230a493bf068fb0948e6e741
:105fe000c22385f8233005f11800eb68bde8704046
:105ff000184700bf38380020702d0020ed640001e4
:10600000083c0020f83b002038b51d4d284643f0e1
:106010005bfb2b79032b044605d01a4b43f2b412d9
:106020001a8044f019fa2cb9164b43f2b5121a80b3
:1060300044f012fad4f898303bb9124b43f2b6123e
:106040001a80bde8384044f0f5b904f19c00984747
:1060500094f8a9301bb90c493c203ff035f80b49a6
:106060003d203ef0ffff0a4b9a6c22b10e20bde8a6
:106070003840fef7c3bd412283f84c2038bd00bf35
:1060800080380020342e0020580b0120f41e0120ff
:106090003838002070b5314c94f8c430e72b48d123
:1060a000d4f8c0502db92e4b43f281021a8044f02f
:1060b000d3f9237813f0010f6b6a1fd01a6aaa6113
:1060c000002685f8206093f8242085f82120254ab1
:1060d00092f8372085f822201022093385f82320f2
:1060e000214a6b61ea61281d33f0a7fc237884f80c
:1060f000c5302670e82384f8c43070bdc3221a70fe
:10610000e92384f8c430194843f0defa054628b97b
:10611000134b43f282021a8044f09ef9686a836a44
:106120006bb90f4b43f28302bde870401a8044f014
:1061300081b9e92be7d00a4b43f28602f4e798478e
:10614000d4f8c0303bb1e72384f8c4300d20bde85b
:106150007040fef753bd1323cde700bf3838002051
:10616000342e0020702d0020c14d0001f838002091
:1061700073b5304890f810325d2b054632d1027865
:10618000d0f81432d20714d5602280f810221b797f
:10619000294ac0f83022003318bf0123412280f879
:1061a000202280f8283200f5067033f049fc02b056
:1061b00070bdc2221a735e2380f810321f4c204635
:1061c00043f082fa236806467bb1c22303735d2342
:1061d00085f810320720fef711fdb36806f10c00b8
:1061e0009847e4e75e2be2d1e8e703795a1ed2b282
:1061f000fd2a0bd84ff47a72534304f12400e36272
:106200003cf072fe4a2385f81032e6e7ff2b0fd1ef
:106210000df107014ff495703bf048fa9df80730f7
:10622000012b01d1064be8e7022b01d1054be4e736
:106230004823e8e7383800200d5100014c3a00208f
:1062400000c8af0030e003002de9f041424ca4f556
:106250002077204643f038fa3b78db07054674d5b3
:106260003e4ec188708fd4e907321c782cb11c894e
:106270008c4202d19c88844207d018339342f4d3d5
:106280000120fff7b1fc044630b904236b74eb68be
:1062900005f1100098474ce02a79637862f34613c1
:1062a0006a7a62f304136370ff23e370738fa38031
:1062b000eb88238197f884325a1e0d2a41d996f82b
:1062c0002d30013313f0ff034ff0010214bf86f8a5
:1062d0002d3086f82d2087f8842296f82d10262060
:1062e0003ef0f2fe96f82d305a1e97f8843243eabb
:1062f0000213a3722b7ae372b37a25610133dbb206
:106300004ff0000863730121204684f80c80b372bb
:10631000fef7aafc124b598e4ff6ff72914208bf4e
:10632000a3f832805a8e0f49013245205a863ef03a
:10633000cbfed7f880326bb10420bde8f041fef708
:106340005dbc013387f88432cce7c22300f8103fec
:10635000eb689fe7bde8f081b83a0020702d00207f
:10636000580b01208a0b012038b5104d2b7cc22b15
:106370002c4618d105f1140043f0a6f94368083003
:1063800098476b6963b1c1232b74012384f82030d3
:10639000074b6362074833f00dfbc323237401e00e
:1063a00019232b7438bdc12bfcd1eee738380020ff
:1063b00079d70001503800200178134be12910b43f
:1063c0001846d3f8ec4216d193f8e922032a12d8e2
:1063d0000e490132888f0988a3f8001383f8e92257
:1063e000a421a3f8fa0283f8e81203f53c705df8e3
:1063f000044b33f02bbba523217380f8e8325df802
:10640000044b0120fef7fabb38380020702d002025
:10641000027810b51ab11046bde810406ae543781d
:106420002e4c502b3dd011d8462b1dd04b2b32d0ab
:10643000452b3cd1462384f800340f2384f80834dc
:1064400004f57e70bde8104033f0faba532b13d038
:106450006f2b1ad0522b2ad1532384f80034204baf
:106460005b8fa4f80834ebe7522384f800341c4b0c
:106470001b7ac3f3c003e1e76f2304f581610620b3
:1064800084f800343bf012f9dae74b2384f8003447
:10649000134b1b88e5e7502384f80034104b9b8f87
:1064a000dfe70f4b84f8002493f83830c6e794f800
:1064b00000348bb90a4b0b481b7a13f0080f14bf3a
:1064c0006ff07f430023c4f80034074bc4f8043452
:1064d000bde8104033f0aeba10bd00bf3838002020
:1064e000702d0020303c0020515f0001027812b175
:1064f0001046fef7cbbb4378462b30d002d8452b55
:1065000022d07047522b33d06f2b43d122486921c0
:1065100080f8b013032180f8dc13d0f8b8130b6bac
:10652000c0f8d43391f8341080f8dd131b4980f89b
:10653000df2391f837101a4a80f8de13c0f8d82309
:1065400000f5707033f079ba1348462380f8c833e9
:106550000f2380f8d03300f5707033f071ba0e4815
:10656000522380f8c8330d4b1b7ac3f3c003f0e706
:106570000a4b09481b7a13f0080f14bf6ff07f43d2
:106580000023c0f8c833074bc0f8cc3300f5707057
:1065900033f050ba704700bf38380020702d00200b
:1065a000e14c00012966000170b51c4cd4f874510f
:1065b00006462db91a4b43f2b1021a8043f04cff44
:1065c00005f11c039e4205d0154b43f2b2021a801e
:1065d00043f042ff94f878315d2b05d0104b43f225
:1065e000b3021a8043f038ff337863b96ff07f430a
:1065f0002b610c4b6b6105f1080033f01bfa5e2335
:1066000084f8783170bd85f84c30582384f878319f
:106610000920bde87040fef7f1ba00bf383800200d
:10662000342e00202d4e0001007868b907486b23f6
:1066300080f8b033064bc0f8cc33532380f8c8330e
:1066400000f5707033f0b3b9fef720bb3838002086
:10665000d5740001426810b4537813f0010108bfeb
:10666000022180f85410d478917841ea0421a0f8ee
:1066700056101179527941ea0222a0f85820c28cb2
:10668000a0f85a2090f8252080f85c20c3f340033e
:10669000026a026680f86c30028d064ba0f8642016
:1066a0000367002380f86d305df8044b383009f043
:1066b000a9be00bf9f710001f8b5384dd5f86c41f7
:1066c000062094f8b110fef7bbfc2e46002861d0de
:1066d0000546b4f8ac2015f8383b23f007030370e7
:1066e00094f8b030a0f856202d4a80f85430528fdc
:1066f000a0f8582094f8b12080f85c20012bd4f841
:10670000901094f8b57080f86c700cbf09230823c2
:10671000cb1a5b7813f0040f436815bf1b330933a2
:106720000366036614bf02f11b0302f1090303723f
:1067300017b1036e0e3303661a4b0367012380f80b
:106740006d30006e45f05cfa174842f0bdff002343
:10675000a4f8a830d4f89430c4f8a03094f8b73036
:106760008bb9d4f8983004f19c009847284609f07a
:1067700049fed6f86c315bb10f20fef73ffa8f234c
:1067800086f87031f8bd04f10800fef711fdede761
:106790008e23f5e7902385f87031f3e73838002031
:1067a000702d00209f710001a4390020f0b5284d04
:1067b000d5f80c4295f8086287b004eb861684b3ce
:1067c00041f64c57b44232d22178022931d1238c80
:1067d000adf80030d4e90623cde90223adf811105d
:1067e00063789b0712d595f87c32022b0ed0fff709
:1067f000a3f845f079fa80b2b0fbf7f307fb130377
:1068000017fa83f3c5f85832fff758f963788df813
:1068100010302046fef740fe68460ff0b5fc4034cd
:10682000d0e70c4b43f242021a8043f003fe07b05c
:10683000f0bd0329f3d1238aadf80030d4e9022357
:10684000cde90223637d8df811108df81230c7e772
:1068500038380020342e002010b5164a002303805b
:1068600092f83340017864f38501017004684ff6b3
:10687000fc51214041f400710160518f818092f8f8
:1068800034104900ff2928bfff218171917a01311d
:10689000c9b29172c17192f82e10022904d192f8f6
:1068a0005330003318bf0123427863f3451242701e
:1068b00010bd00bf702d0020f8b5c469174e054605
:1068c0002046b76ffff7c8ff238823f4805323f0d7
:1068d000030343f4805343f0010323802ef080f937
:1068e000d0e90023e3603b8a63806378a2606ff3a2
:1068f000c30363700123a37146f2040323821223ae
:1069000085f830303b8aa5f880302b850222182389
:1069100085f8252086f8b930f8bd00bf383800204a
:10692000f8b5c469204d06462046af6ffff794ffc7
:10693000238823f4805323f0030343f4805343f06c
:10694000010323802ef04cf9d0e900236361b5f8f0
:10695000883063806378226143f008036370d5f860
:106960008030a360d5f88430e3600123a37144f242
:1069700004032383fb7c002b14bfc02340236376d6
:106980003a7d12b143f020036376b5f88830338541
:106990001a2386f8303095f88a3086f8323016237c
:1069a00085f8b930f8bd00bf38380020f8b5294b5c
:1069b000d3f80c4293f80832064604eb8313a34243
:1069c00007d8254b43f243021a80bde8f84043f054
:1069d00031bd2778012f01d04034f0e7f569284612
:1069e000fff73aff2b88627d23f4c05323f00303a3
:1069f00043f4c05343f001032b806b7862f34103ef
:106a00006b70638a6b80a368ab60e368eb60134bc9
:106a10005b8fab802ef0e4f8d0e900236b61072395
:106a2000af712b76238aa5f81930237deb76638a24
:106a30002a6133856378746013f0080f4ff01c03ec
:106a400086f8303008bf0527042386f8327023709b
:106a5000f8bd00bf38380020342e0020702d0020f3
:106a6000f8b5c469194e1a4f05462046fff7f4fee3
:106a70002388d6f88c2123f4c05323f0030343f476
:106a8000805343f001032380527b637862f3410318
:106a90006370d6f890319b8863807b8fa3802ef043
:106aa0009ff8d0e90023e3600123a371a2600622ce
:106ab00022743a7a6274d6f89021928885f832303e
:106ac00012232a8585f83030f8bd00bf3838002001
:106ad000702d00202de9f04fc4697f4e85b0074628
:106ae0002046fff7b9fe238823f4805323f00303e5
:106af00043f4805343f0010323802ef071f8d0e972
:106b00000023e3606ff00303a3700333e3700123fa
:106b1000a371238aa26003f4fe4343f00803238297
:106b20006e4bb6f878e2d6e93d12d3e91089002021
:106b30004ff6f77a914273d31a2800f2908096f8b4
:106b40007a22637c002a40f0828023f0600343f0c5
:106b50006003637404f160030193d6f8f43000938a
:106b6000d6f8f8300393d6f8fc3002935b4bb6f8b6
:106b7000785296f87ac2d3e9102304f112099b46a1
:106b80009246ae464b464ff00008009a0026039905
:106b90008a42c0f0848026b3009ab5881d80b11a5d
:106ba0004f4ac9105143029a02ebc1019a78887981
:106bb0008979c0f3c20060f30202c1f3020161f3fc
:106bc000061202f07702bcf1000f9a701cbfae46ad
:106bd000e0465207019a18bf033301359a42adb21d
:106be000d3d8b8f1000f02d03b4aa2f878e2a3eb69
:106bf00009093c4b627c03fb09f363f304026274f2
:106c0000bcf1000f02d1344aa2f878c203f01f038e
:106c100003eb4303123387f8303005b0bde8f08f43
:106c20000b78062b11d04d78022d0ed0d1e904bc83
:106c3000e14508bfd84508d18b88534505d8012dbb
:106c400003d19e459cbf0130c0b2283172e70022bb
:106c500023f0600386f87a2243f0400379e796f840
:106c60007a521db1637c23f0600372e71e4940f243
:106c700013103af01bfd96f87b32012b637c23f056
:106c800060031bbf43f02003637443f060030123e0
:106c90000abf637486f87a3286f87a525ae7117816
:106ca000062914d05178022911d0d2e904018b456c
:106cb00008bf82450bd191884ff6f770814206d804
:106cc0008d4204d82eb1b088884288bf164628323b
:106cd0005de71646fbe700bf38380020702d002026
:106ce000cdccccccabaaaaaab33a00202de9f04176
:106cf000c469204ddff88080af6f06462046fff75d
:106d0000abfd238823f4805323f0030343f4805323
:106d100043f0010323802df063ffd0e90023e360fb
:106d20006ff00203a3700233e370a260e179b8f858
:106d30003a00fef7ebfb63786ff3c3036370012344
:106d4000a3714ff00403238298f82e30022b03d056
:106d5000fb7c0bb1802363743b7d1bb1637c43f0f0
:106d600020036374122386f83030132385f8b9307a
:106d7000bde8f08138380020702d0020f8b52a4b8e
:106d8000c469d3f8485493f8442406460023934238
:106d90000bd12046fff760fd2278012363f3010247
:106da000a371002322705b88ffde2f78012f03d0b0
:106db00001331835dbb2eae72046fff74dfda77136
:106dc0006b886380238823f4805323f0030343f408
:106dd000805343f0010323802df002ffd0e900230c
:106de00063616378226143f008036370ab68a3605a
:106df000eb68e3600c2323766b7863760b4b93f898
:106e00005320a37e510862f3000361f34103a3768c
:106e10001b2386f8303075600223aa742b70a37e82
:106e20006ff3c703a376f8bd38380020702d00201b
:106e300038b5c46905462046fff70efd238823f4c4
:106e4000805323f0030343f4805343f00103238072
:106e50002df0c6fed0e90023e3604ff0ff33a370ae
:106e6000e3706378a2606ff3c30363700b4b1a6c1b
:106e7000c4f812205a6c1b7ca3764ff485732382ce
:106e8000074bc4f81620b3f86a23a4f81b201d2270
:106e900085f83020852283f8682338bd702d0020c6
:106ea0003838002030b5134c002384f8b83094f8fb
:106eb000ad3085b02546bbb904f1a0002df09cfe95
:106ec00020b9d4e9282352ea03010fd10a4900224c
:106ed0000023c1e9102395f8ac108df8081068461e
:106ee000cde900230ff0aaf905b030bd94f8ac103d
:106ef000f3e700bf38380020702d00202de9f04f57
:106f0000724a90f8863090f88280c46902eb0313cd
:106f100085b01b7b8df80b3008f1ff3305460f461b
:106f20000192092b14d8dfe803f0b21305131334d0
:106f300034131334e1290bd000296288adf80c20fa
:106f40000cbf1323092303a88df80e300ff044fa69
:106f50005f4b93f82e20022a07d06278d10740f1c8
:106f6000a480227a920700f0a68095f88630019ad4
:106f700002eb03139b6813b13946284698479df8e6
:106f80000b301bb1a5f18000fef76ef905b0bde82e
:106f9000f08fb4f802b061781ffa8bf601f00101ae
:106fa0003046fdf7edfb0346002846d04279bfb9d5
:106fb000ff2a12d1474ad2f8a832b2f8ac22c2eb6b
:106fc000c2021a441979c90741bf597949080131e8
:106fd000597107339342f5d3bae701324271b7e7eb
:106fe00052b13c4991f8ae1242fa01f111f0ff01a1
:106ff00008bf0121521a42715a791979003218bf1b
:10700000012262f300011971314ab4f804a0528fd1
:107010001ffa8af082429bd02278920798d113b14e
:107020001b79db0794d4b8f1060f09d10023b5f81a
:1070300080203146fef7b6f98ae7002f88d0e3e7d3
:10704000244e96f8d582b8f1000f81d1b5f8809022
:107050002a8d034649464046fdf740fc00283ff490
:1070600077af0c2386f8d2328388a6f8c832012382
:10707000a6f8c4b2a6f8c6a2a6f8ca9286f8cc8230
:1070800086f8d53206f52f70fef71ef960e7b0f8e6
:1070900080206188a0880023fef784f961786088e9
:1070a00001f00101fdf788fb52e761884ff6f772a6
:1070b00091423ff65aaf5a8801325a80002f3ff46e
:1070c00054af9a8801329a804fe700bf0cf0030159
:1070d000702d00203838002017b441688a79013ab1
:1070e000d3b28b71027812f0010202d01a1c18bfc1
:1070f0000122037862f300030370dbb2da0748d59c
:10710000c269a2b3182262f3c7030370037a8df831
:10711000003003780191c3f3c4038df80130c38cb0
:10712000adf80230019b5a786ff345125a709df802
:10713000013080f886309df8003080f83030019bb7
:1071400090f88720c361bdf80230a0f8803000239a
:1071500063f34102436480f84030c0e9123383870f
:1071600080f8872003b05df8044bfef721b80a7859
:1071700002f00302012ac9d1026a1478052c01d158
:107180001922c0e7032cc1d152780c2abed11a2291
:10719000b9e7803803b05df8044bfef765b810f826
:1071a000743cdb0701d5743896e7f438fef75cb819
:1071b00038b5114c20460d4642f086fa0346426827
:1071c00003f8155f1846904723688bb12022227779
:1071d0009a7d0c2a0ad018894ff6f77398428cbf13
:1071e00001200220bde83840fef704b81020f9e77e
:1071f0007823237738bd00bff03a002030b590f8ef
:107200003030722b8bb0044619d86946c069fdf73f
:1072100027f8049b9df81420587894f83010023217
:1072200045002a448a420ad10130074a58702b444b
:10723000528f5a80023184f830100bb030bd752364
:1072400084f83030f9e700bf702d0020084803783b
:10725000db0705d5022380f87c320020fdf7cabf8a
:10726000012380f87c3200f519703bf03dbe00bf71
:10727000383800202de9f041537d05460c4616466e
:107280007bb101784f1efbb20b2b0ad862884ff6f8
:10729000f7739a4208d8114b03eb8703d3f8f03108
:1072a000b3b90020bde8f081082904d84ff48973f0
:1072b000cb40db07efd40a4ba0885b8f8342f0d032
:1072c000e179fef723f900f0fd000128e3d0e8e7bb
:1072d00032462146681cbde8f04118470cf0030116
:1072e000702d002008b550f80c3c40f8503c037954
:1072f00000f83c3c0378a3b9114b30f84c2c9b8f21
:107300009a4204d16438bde8084032f0a2bba0f133
:107310006c010c4842f0b4f90320bde80840fdf7c9
:107320006dbc022b08d009d3042b8cbfc321ce2106
:107330006c38bde80840e1e5cc21f9e7c321f7e767
:10734000702d00207c38002038b5204c94f8e832ad
:10735000a32b33d1d4f8ec3200221a732278d2074f
:107360005cbfc2221a731a79aab1c1221a73a5236b
:1073700084f8e832164d284642f0a6f983680c30ae
:1073800098472b68ebb1a32384f8e8320120bde8cd
:107390003840fdf733bc1b7b002be8d10d4b0e486a
:1073a0009a8f1b88a4f800334ff4d273a4f8fa2202
:1073b000a4f8e832bde8384032f048bba52bd9d05c
:1073c00038bd312384f8e832fae700bf38380020ae
:1073d000243b0020702d0020283b002010b5194bc5
:1073e00093f80031994294bf5b1adb1adbb29842e2
:1073f000154b06d393f8202002f07b0283f820205f
:1074000010bd5c7ca20718d493f848208a4294bf30
:107410000021012193f8202061f3820283f82020cb
:10742000e2070cd493f84920824294bf0020012047
:1074300093f8202060f3c712e0e70021eae700207c
:10744000f6e700bf38380020702d00200c4a10b439
:10745000d2e93d34002108461a78062a0ad002f003
:10746000fb02012a06d15a78022a0bbf01300131f2
:10747000c0b2c9b228339c42eed85df8044bade7e8
:1074800038380020124b002293f832109a77da7fb6
:1074900061f3030293f8331061f30712da7793f87c
:1074a0002020597a02f0fc0261f3c60283f8202002
:1074b0001a6cc3f821205a6cc3f82520ff2283f8e8
:1074c000292002f57f425a851a7c83f82c20bde7db
:1074d000702d002038b5057825b12846bde8384024
:1074e000fdf7d4bb4478502c16d0532c07d04b2c2e
:1074f0001dd11b4b02891a801a48502304e0184bf7
:10750000028918485a874b2380f8c83300f57070f9
:10751000bde8384032f04bba1149038921f83c3fad
:1075200017203af0eff80f4880f8c853eee7b4b9e7
:107530000b4d037a2946162001f8383f3af0e2f85d
:10754000fff7a0ff074b2046bd221a70fdf79efbf8
:1075500095f838102420bde838403df0b5bd38bd61
:10756000702d002038380020f8b5454dd5f874410d
:10757000064604f108072cb9424b43f2ae021a80ca
:1075800042f06aff04f124039e4205d03d4b43f2d2
:10759000af021a8042f060ff33784bb184f84c3070
:1075a000582385f878310920bde8f840fdf726bb5f
:1075b00095f87831593b072b59d8dfe803f0041bc5
:1075c000353b585844156f23237404f118010620e5
:1075d0003af06cf8602385f878312b4b23623846fb
:1075e000bde8f84032f02cba462323740f232376eb
:1075f0005a23f0e7254e002306f140013320737231
:107600003af054f8d6e91023134305d12df0e8fae7
:10761000d0e90023c6e91023fff734ff4523237484
:107620001b4ba3615b23d6e75223237401232376ec
:107630005c23d0e78323237404f1180108203af077
:1076400035f85f23c7e7114b9a8f228293f83820d1
:10765000a27493f83730e3740123a3820d4ba36126
:10766000384632f0f0f95d2385f87831f8bd054be6
:1076700043f2b0021a80bde8f84042f0dbbe00bf22
:1076800038380020342e002069750001702d00204c
:107690008e2d0020a965000173b52a4c00250df13f
:1076a000070140f207108df8075039f0ffff9df8f1
:1076b000073084f8343004f148014ff4837039f016
:1076c000f5ff0df1070140f2051039f0efff94f8d6
:1076d00048209df807309a4239bf9b1a84f84930f8
:1076e00084f8483084f849500226fff7affe0df1c8
:1076f000070119208df8076039f0d8ff9df8073091
:1077000084f82f3094f82e300f499b1b18bf0123ab
:10771000222084f8533039f0c9ff0c4b43f609504e
:1077200093f832502df076fa06fb05054ff4006011
:107730002df070fa05eb500094f834504543e560a5
:1077400002b070bd702d0020c42d0020a82c002098
:1077500038b51a4c2378db062ad5194dd4f8f43302
:1077600018221b7c84f8f02305f13c0117202b72b2
:1077700039f09cff05f13801162039f097fffff72b
:107780008bfffff77ffe0f4bc4f81034452384f8be
:10779000003404f57e7005f11e03c4f8083432f09d
:1077a0004ff995f838102420bde838403df08cbce6
:1077b000c220bde83840fef79dbb00bf383800202e
:1077c000702d0020116400011f49c8884b8f98421a
:1077d0002de9704334d01d4b93f8380392282dd1f6
:1077e000507d0d282ad11269567816f0e00025d177
:1077f000012e23d1d1e91045d2f80690d2f80280ab
:107800004d4508bf44451cd1d47a957a127bc3f804
:10781000400344ea0222a3f83a23192283f83823ca
:10782000ca68c3f850230a4a83f83c5383f8546368
:10783000c3f8582303f552703bf056fb012000e0db
:107840000020bde8708300bf702d00203838002074
:107850006149000110b5114cf1b9114bb4f86a132c
:107860001a7c84f83c230f4adb68c4f840231922b1
:1078700084f83823c4f8503301220b4bc4f8583332
:1078800004f55270a4f83a1384f854233bf02cfb0f
:10789000862384f8683310bdfb23fae738380020cc
:1078a000702d002041430001614900012de9704322
:1078b00016460c46fcf7aaff144b93f8202482428c
:1078c00003d800233360012017e0d3f8243400b23a
:1078d000c0ebc00003eb800010f1140f4ff0000369
:1078e0003360f0d0d4e900894369d3e90045a94564
:1078f00008bfa04503d133600020bde870838269d2
:1079000010339a42f1d80220f7e700bf3838002040
:1079100030b58bb043680593044690f824308df859
:10792000183005a83df004f80799002951d0089bac
:10793000002b4ed094f824200244207a824248dc66
:107940001a680d685b68cde902236b1c33d001aa6d
:1079500002a99df81900fff7a9ff01282bd0019b70
:1079600013b19b689d4226d99df81900fcf766ff6c
:10797000206470b31a4b93f84b3084f84430089b62
:107980001a685b68c4e90c2304f13003a3646368dc
:10799000e36494f8243084f85030237a84f851302a
:1079a000104b6365002384f8523004f138003cf03a
:1079b000b3ff0bb030bd9df81900fcf73fffe38c1f
:1079c000adf8043050b9162301a88df806300ef03a
:1079d00003fda4f18000fdf747fceae71123f3e77c
:1079e000702d0020e7d300012de9f04f8b4f97f861
:1079f0007831d7f8744185b0562b0646009705d0ec
:107a0000874b43f2ab021a8042f026fd2cb9844b1f
:107a100043f2ac021a8042f01ffd04f110039e42b3
:107a200005d07f4b43f2ad021a8042f015fd337949
:107a300023b103f0ef02ea2a40f0e5803268e369ff
:107a40009343019300f0de80d6f808c0f5790cf17d
:107a5000040a504600224ff6ff7e95420dd1ff25c5
:107a6000a846a94600234ff0010c019911ea0c0f1a
:107a700040d00020d646014631e0b0f80080f04505
:107a800003d10132d2b21830e7e7531cdbb203eb6b
:107a9000430190f80c900cebc1019d42f1d09a4249
:107aa00009d0b1f804b0c34505d191f810b0cb4569
:107ab00008bfa1f804e00133dbb21831ede79ef80e
:107ac0000cb09b4507d1bef800b04ff6ff77bb4521
:107ad0001cbf0131c9b20130c0b20ef1180e904284
:107ae000edd119b91cf4c30f64d1984649453cbf88
:107af00089461d460133dbb2202b4fea4c0cb4d132
:107b0000b8f1ff0f58d1ff2d05d1454b43f2b80214
:107b10001a8042f08ffcdff810b100238bf8385048
:107b20000df10d011820d6f8089096f807a08df8f1
:107b30000d3039f0bbfd9df80d805e46b8f1000fa9
:107b400041d144f0d1f880b20af1010badf80e003a
:107b500043464ff6ff71884204bf4ff001080020f2
:107b600009f1040c002292450bd09cf80ce0ae45c4
:107b700024d1bcf800e0864520d1013080b24ff01e
:107b8000010801339bb29b45e5d8b8f1000f01d045
:107b9000adf80e00bdf80e30b3874ff6ff7293427a
:107ba00017d11f4b43f2b9021a8042f043fc05b0d3
:107bb000bde8f08f1d46aee74546ace70132d2b2d4
:107bc0000cf1180ccfe70df10e01172039f06efd06
:107bd000e0e794f8453004f108000bb1b4f8463002
:107be000738723830f4b2362009a532323745923f3
:107bf00082f8783131f024ff96f8381024203df0d7
:107c000063fad4e7c423009a84f84c30582382f8ee
:107c100078310920fcf7f2ffc9e700bf38380020af
:107c2000342e002069750001702d0020014b588f03
:107c3000704700bf702d002070b50b4c94f8305089
:107c40000e467db9532323762084084ba36204f1aa
:107c5000100031f0f5fe012384f8303084f83160f3
:107c6000284670bdc320fce7580b0120954a00014f
:107c7000014b93f831007047702d002008b5fcf7d8
:107c800077fa18b103786ff30003037008bd08b5e5
:107c90000146044841f0f4fc1120bde80840fcf71f
:107ca000adbf00bf103b002010b5014638b90f4be7
:107cb00043f2d002bde810401a8042f0bbbb0c4c2e
:107cc000204641f0ddfc2379d62b06d170232371a9
:107cd0000820bde81040fcf791bf703b022b03d990
:107ce000024b43f2d102e5e710bd00bf342e002065
:107cf0007038002070b5484c94f80032212b25468e
:107d000040f0858004f5c47041f0defca0f108036a
:107d1000c4f88c31414b027c1a72fff7bdfc23780a
:107d2000db062bd5d4f88c311a7b023a012a25d8f0
:107d3000322284f80022227093f8342084f8fd2146
:107d40001a6bc4f8f4210022c4f8f02184f8ee2163
:107d50009b7b334ac4f8f821012284f8fc212bb123
:107d600004f5e470bde87040fff79ebf84f8ec3185
:107d700004f5f670bde87040fdf7b8b8d5f88c3161
:107d8000c22283f82b20222385f80032234cd5f819
:107d90008c11638f0b85d1e90023c1e9082391f889
:107da0002b6094f8383081f82a30f6b9d5f8903144
:107db000d3e9042304f13c011720c4e9102339f06e
:107dc000a1fc04f13801162039f09cfcfff75afba6
:107dd000bd232b70637ad5f89021c3ebc303dbb2cc
:107de000928831463046fcf7f0fcd5f88c014369a7
:107df000203098470023c5f89031d5f888314bb131
:107e00000a20fcf7fbfe212385f8003201e0222b3b
:107e1000bcd070bdda23f7e738380020702d002081
:107e2000ed4e000110b5014638b90f4b4ff44252e8
:107e3000bde810401a8042f0fdba0c4c204641f0db
:107e40001ffc2379132b06d1e72323710d20bde8f6
:107e50001040fcf7d3be1933dbb2022b03d9024b1f
:107e600043f28a02e4e710bd342e0020f8380020e7
:107e700010b5014638b90f4b43f2a002bde81040df
:107e80001a8042f0d7ba0c4c204641f0f9fb237916
:107e9000b72b06d1542323710920bde81040fcf70d
:107ea000adbe543b0c2b03d9024b43f2bc02e5e7b9
:107eb00010bd00bf342e0020ac3900204b1edbb2b9
:107ec000fd2b10b507d90d4b43f2a0421a8042f0aa
:107ed000b1fa00200de00a4ad2f81834d2f81c2476
:107ee0001c783cb958801970014611203df0ecf81f
:107ef000012010bd04339a42f2d8eae7342e002064
:107f000038380020f8b507460e4639b9104b43f211
:107f1000a1421a8042f08efa3046f8bd0d4dd5f8d8
:107f20001844002023786bb16288ba420ad1ff2e30
:107f300001d0b34206d100231120237039463df011
:107f4000c3f80120d5f81c340434a342ead8e4e78e
:107f5000342e00203838002073b5064640b9104b47
:107f600043f2a3421a8042f065fa304602b070bd77
:107f70000c4dd5f818440020ff2e02d02378b342d0
:107f800008d123680193122001a93df09df8002338
:107f900023700120d5f81c340434a342ecd8e5e763
:107fa000342e00203838002038b50c4639b90e4b35
:107fb00043f2a2421a8042f03dfa002038bd0b4a3b
:107fc000d2f81834d2f81c141a7832b15d88854280
:107fd00003d1ff2c05d0a24203d004339942f3d839
:107fe000ebe70120eae700bf342e002038380020fc
:107ff000064ad2f81834d2f81c240020197809b99e
:108000000130c0b204339a42f8d8704738380020a3
:10801000084b30b10430d3f81c34984204d300200c
:108020007047d3f81804f6e70278002af8d1043034
:10803000f3e700bf3838002013b50b4c0df10701f2
:1080400040f2151039f032fb214640f2112039f090
:1080500013fb9df8072020689200831800216360bd
:1080600043f08cfe02b010bd503c0020014b83f861
:1080700053007047702d0020014b83f85400704767
:10808000702d0020014b93f853007047702d002095
:10809000014b83f853007047702d0020014b93f87b
:1080a00054007047702d0020014b1888704700bfa6
:1080b000702d0020014b988f704700bf702d00205d
:1080c000014b9887704700bf702d0020014bd3e90a
:1080d00010017047702d0020d0e90001014bc3e969
:1080e00010017047702d0020014b93f82e0070474f
:1080f000702d0020014b93f838007047702d002040
:10810000034b014683f8380024203cf0ddbf00bf5c
:10811000702d0020014bd868704700bf702d0020e3
:10812000014bd888704700bf702d0020014bd880cc
:10813000704700bf702d002008b5054b014618742c
:1081400022203cf0c1ffbde80840fff79bb900bf0b
:10815000702d002073b50578114cc5b9114eb4f8d7
:108160003a33b387fdf79afa06f13c01172039f04c
:10817000c9fa94f83c03fff7dffffff783f90f23f9
:1081800001a8adf804508df806300ef025f99223c1
:1081900084f83833d4f8403303b1984702b070bd47
:1081a00038380020702d002038b503791f4c054663
:1081b0008bb103f0ef03ea2b0dd01d4b187c01307f
:1081c000c0b2fff7b9ff842384f868330920bde803
:1081d0003840fdf70fb8ea79b4f86c339b1a9bb2bc
:1081e000a4f86c336bb143f07ffdb4f86c2380b21c
:1081f000b0fbf2f302fb1303b4f86a030344a4f8e0
:108200006a330023ea799a42d7d9aa68b4f86a0394
:1082100003eb430102ebc10201339288824204bfa7
:108220000132a4f86a23dbb2ece700bf3838002043
:10823000702d0020014b187c704700bf702d00206e
:10824000014b83f830007047702d0020014b93f8ec
:1082500033007047702d0020014b5888704700bfd5
:10826000702d0020014b9888704700bf702d0020b2
:10827000024b0022c3f80220704700bf702d00207f
:10828000014b9874704700bf702d0020084b1b7c79
:10829000c21a002ab8bf5242c72a04dc984294bfcf
:1082a00000200120704798428cbf002001207047b9
:1082b000702d00200a4b1b7c98420fd0c21a002a56
:1082c000b8bf5242c72a04dc984294bf0020012064
:1082d000704798428cbf00200120704701207047f2
:1082e000702d00202de9f8432f4bd3f8f4400646bb
:1082f0000f469046002599462378062b41d0637897
:10830000022b3ed056ea070309d0d4e90423bb422e
:1083100008bfb24235d1607efff7ccff88b3a37ea1
:10832000b8f1000f35d013f0040f2ad0002d38d04b
:10833000d9f8f4201d48d9f8fc10a31aaa1adb10aa
:10834000d2104243434301ebc30301ebc2011b794b
:1083500009796a7e591a637e93420ad0981a0028d6
:10836000b8bf4042c72817dc93428cbf00230123cb
:108370003bb9193105db43f0b7fc10f0080f08bf1b
:108380002546d9f8f83028349c42b5d32846bde8b4
:10839000f88313f0020fc8e7934294bf0023012330
:1083a000e6e72546ede700bf38380020cdcccccc41
:1083b00010b5154cd4f88c310122d3e90001fff738
:1083c00091ffc4f89001a8b1002384f801320f4a4c
:1083d000c3889387a4f8d83150220d4bc4f8e031fc
:1083e00004f5e47084f8d02131f02afb292384f8c5
:1083f000003210bdd4f88c31c32283f82b200a2020
:10840000fcf7fcfb2223f2e738380020702d002017
:10841000b98e000110b50f4c99b9d4f89c3103f511
:108420001173c4f89c310c4bc4f8a43104f5ca7024
:10843000012384f8a0313af057fd2d2384f800324f
:1084400010bdd4f890319a7e6ff382029a76bde81f
:108450001040ade7383800205d8400010f4b104814
:108460001b7a13f0080f11d1022380f8b031d0f835
:108470009031da889b88a0f8b8310a4ba0f8b22175
:10848000c0f8c03100f5d47031f0e0bad0f89031c6
:108490009a7e6ff382029a768ae700bf702d0020e1
:1084a0003838002005bd000182e70b4a92f80132fe
:1084b0000133dbb2022b82f8013206d9d2f89031b7
:1084c0009a7e6ff382029a7672e7282382f800324e
:1084d0000320fcf78fbe00bf3838002010b50378aa
:1084e000174cd4f88c2143b182f82b300a20fcf7ca
:1084f00085fb222384f8003210bd117b032915d19e
:10850000104b1b7a13f0080304d1c4f89c31bde86a
:108510001040cae7812384f8d03104f5e4700a4b97
:10852000c4f8d43131f043fa2b23e3e782f82b303f
:10853000222384f800320a20bde81040fcf75ebb1d
:1085400038380020702d00204d850001037810b5cb
:10855000094c2bb98368c4f89c31bde81040a4e7ee
:10856000d4f88c210a2082f82b30fcf747fb222319
:1085700084f8003210bd00bf38380020f8b58b7980
:10858000012b0f46164652d18c68cd682cf028fb83
:10859000d0e900239d4208bf944248d1364d95f85a
:1085a0000032a3f12c02012a2c464bd805f5ca70e3
:1085b0003af0c4fcb7f819204ff6ff73934238d055
:1085c000fb7e002b35d1d5f88c112c4d81f82b304a
:1085d0006a87d4f8902191882980d17885f838105d
:1085e0001370137e507e0133dbb20f2b28bf0f2395
:1085f0006b72fff7a1fd73682bb11968d4f8902155
:108600005b68c2e90213532384f8d0316b8fa4f85e
:10861000d8311b4bc4f8e0311a4831f011fa2e233f
:1086200084f8003295f8381024203cf04dfd0120ec
:10863000f8bdd4f890319a7e6ff382029a76fff7f4
:10864000b7fef4e7da2bf2d10c4a92f82e30022b67
:10865000edd1b7f819305387a5f8d8315322084b1c
:10866000c5f8e03185f8d02105f5e47031f0e8f97e
:10867000312385f80032dae738380020702d0020e9
:10868000b98e0001003a002010b51d4cd4f88c3191
:108690000022d3e90001fff725fec4f8900108b3da
:1086a000002384f80132174b93f8372084f8d12146
:1086b000c27884f8d02102221b7a84f8d221c288a1
:1086c000a4f8d421828884f8e03104f5e4700e4bdc
:1086d000c4f8e431a4f8d82131f060f9232384f8f8
:1086e000003210bdd4f88c31ca2283f82b2022230b
:1086f00084f800320a20bde81040fcf77fba00bfc2
:1087000038380020702d0020159e0001024b0022f9
:108710009a705a601a817047580b012010b5fff704
:10872000f5ff3af027fc054c6063383420463af0f8
:1087300005fc2046bde810403af0d6bb580b01209e
:1087400010f0fb0f03d1074b01221a757047052863
:1087500001d00e2804d1034b00221a75fff7debfab
:10876000704700bff41e0120004870475a0b0120db
:10877000044b054a1a64012283f84420034a9a6490
:10878000704700bf580b0120a075e9001d8700014c
:1087900008b53af0effb064b5b6bc01a054b9842ed
:1087a00097bf4ef66023ff20b0fbf3f0c0b208bdc8
:1087b000580b01209f75e900037b03f0fd02042a9a
:1087c00010b5014603d1bde81040fcf74cbe012bab
:1087d00001f10801104c0fd104f57d7040f050fffd
:1087e00094f8f033162b15d1172384f8f0331320a7
:1087f000bde81040fcf702ba04f5c47040f040ff39
:1088000094f80032da2b05d10a20fcf7f7f921237e
:1088100084f8003210bd00bf3838002008b501468a
:10882000084840f02dff084b93f8b920e62a07d1fd
:10883000112283f8b9200c20bde80840fcf7deb90e
:1088400008bd00bfb03800203838002038b5164bbe
:10885000164993f8b8501c462dbb022a1ad1a3f82a
:10886000a800012384f8ad3000220023c4e92823a6
:1088700091f8203284f8aa304ff48073a4f8ab301a
:108880000b4bc4f8b0300b48fff7c8ff012384f846
:10889000b83008e0032ae7d100200021c3e928010d
:1088a000012283f8ad2038bd383800200cf00301d8
:1088b000a56e0001d038002010b50e4c94f8b830e9
:1088c000b3b900220023c4e928230b4b84f8ac0081
:1088d00093f8203284f8aa3004f19800074bc4f8ca
:1088e000b03084f8ab10fff799ff012384f8b8305b
:1088f00010bd00bf383800200cf00301a56e000148
:1089000010b4094c094ad4f8f430c31adb105a43a6
:10891000d4f8fc305df8044b03ebc2039a7961f3a1
:1089200002029a71fcf7fcb838380020cdccccccd0
:1089300010b5074c94f87c32022b08d0fcf7fcfff2
:10894000012384f87c32bde81040fdf7c1b810bdaa
:108950003838002010b5084c0146204640f090fe03
:1089600023798e2b06d18f2323710f20bde8104071
:10897000fcf744b910bd00bfa43900204ff6ff73c7
:1089800098420d4a1abf013080b20020b2f8ac12f2
:10899000d2f8a822c0ebc0031344814202d84ff69c
:1089a000ff7070471a7902f00502052a03f10703e8
:1089b000f7d0013080b2f0e738380020034bc0eb2d
:1089c000c000d3f8a832185a704700bf38380020ca
:1089d000034bd3f8a832c0ebc0000344588870475b
:1089e0003838002001460a203cf002bb01460a202c
:1089f0003cf038bb0c4b30b12830d3f8f820904213
:108a000004d300207047d3f8f400f6e7037803f0ae
:108a1000fb03012b05d14378022b02d183888b42c3
:108a2000f0d12830ebe700bf3838002010b50b4af2
:108a30000b49d2f8f430898fd2f8f8201c78062c34
:108a400005d09c88844202d1dc888c4203d0283334
:108a50009a42f3d80023184610bd00bf38380020d2
:108a6000702d0020f8b5254ad2e93a35eb1a92f874
:108a70000051013505eb23150e46adb204464ff605
:108a8000f677631e9bb2bb4288bf01241c4b5b8ff1
:108a9000a34213d02046fbf783fb18bb2046fff709
:108aa000c5ff38b1d0e90201d6e90023994208bfd9
:108ab000904208d12046f8bd1d46e2e730462cf032
:108ac0009bf80028e6d101346b1ea4b29bb2002da6
:108ad000f2d10c4b43f206021a804ff6ff7441f0bc
:108ae000a9fce7e703789b07edd4d0e90201d6e9ba
:108af0000023994208bf9042e5d1cfe738380020e3
:108b0000702d0020342e002010b586b0cde9002352
:108b10002023adf80c300df10a03adf80a100493d0
:108b20000c46002303a91e2005933cf0cdfa059bbb
:108b300043b1bdf80a006946fff794ff044620469a
:108b400006b010bd0c4b93f83120002af7d193f8f2
:108b50002f30022b09d14ff6f7739c4202d943f014
:108b6000c3f884b269462046e6e7032b0cbfbdf884
:108b700000404ff6ff74e2e7702d002038b5012267
:108b80000546d0e90201fcf7e1fa0446d8b1aa7e15
:108b9000637862f3c30363700020ab88638220753f
:108ba000d5e902234ff6fe71fff7aeffd5e90223a8
:108bb000c4e9022301232082637523700420bde8e9
:108bc0003840fcf717bb38bdf7b54f4c227812f090
:108bd000400f0f46254611d094f85221aa2a0fd0f3
:108be000b4f85021824209d1484b84f854115b8f6c
:108bf000934214bf0123002384f8533103b0f0bd26
:108c0000424ea4f85001728f84f85411824296f8b3
:108c10002e204ed1002af1d0022a03d096f82f3010
:108c2000022b25d0d6e91023c5e946230323a5f856
:108c300024310df10701292038f038fd9df8072077
:108c400001230ab185f8253196f8382085f82631b8
:108c50009340c5f84831082385f84c312c4bc5f8b2
:108c60002c31452385f852312a48fff7a5fdc5e789
:108c7000012ac3d12bf0b4ff4ff6fe71d0e90023d7
:108c80000120fff741ff738f8342f3d04ff6f77354
:108c90009842b3d8532385f820311f4bc5f83031a3
:108ca0004423a5f8280185f852311a4830f0c8fe4f
:108cb000a4e7022aa2d0c9b10d22184b84f82e21b4
:108cc000c4f81c314ff6fd720023a4f82021a4f84b
:108cd0002201023284f8283104f58c704623a4f86e
:108ce000242184f85231fcf7effa87e7fbf79afb6f
:108cf000002883d0472284f85221827e67f3c30282
:108d00008276fff73bff79e738380020702d00208e
:108d1000554d00015039002005530001518e0001ce
:108d2000014b0021588f4fe7702d002030b5274ba5
:108d30001b78db0787b008d5537d042b05d1146958
:108d400065780b2d16d003d85db1012007b030bd7a
:108d50000c2d25d00d2df8d100216088fff734ffb0
:108d6000f3e760884ff6f7739842eed82946fbf791
:108d700023fdeae701238df804306388adf8053060
:108d80008b88adf807303e2001a93cf09df9608842
:108d9000fbf734fc0028d8d04ff6ff730380d4e7ec
:108da00002238df804308b88adf8053001a93e20f0
:108db0003cf08af9a378e2788df8025043ea022366
:108dc0006846adf800300df007fbbee738380020ec
:108dd00010b51e4c94f85231aa2b2ed1d4e93d3255
:108de0001978062902d0997e090703d428339342c3
:108df000f6d30023002184f85311a3b19a88a4f874
:108e000050219a7e61f3c3029a760121b4f8500191
:108e1000fff7dafe94f85231aa2b0ed10220bde8fa
:108e20001040fbf7ebbed4e93a311a7802f00302a6
:108e3000032a03d010338b42f7d310bd5a88a4f80d
:108e400050211a786ff341021a70dee7383800209b
:108e500010b5164c38b194f85231462b03d104f2b8
:108e60002d13984205d0124b43f283121a8041f021
:108e7000f3fa104b93f82e30022b0ed0b4f85001b9
:108e8000fbf7d0fa48b1827e6ff3c3028276fff718
:108e900075fe472384f8523110bdaa2384f852315d
:108ea0000220bde81040fbf7a9be00bf3838002003
:108eb000342e0020702d0020037873b5624c53b11e
:108ec000d4f88c210a2082f82b30fbf797fe22235e
:108ed00084f800323ae094f80032243b112b35d864
:108ee000dfe803f04e566a343439463434347c8635
:108ef000919d34365f09d4f88c311b7b032b23d131
:108f0000524d95f831307bb96a8f4ff6f7739a421c
:108f100002d942f0e9fe68876e8f2bf061fe0146b0
:108f20003046fff79ffd6887532384f8d0316b8f5d
:108f3000a4f8d831332384f800324548454bc4f8af
:108f4000e03130f07dfd01e0fff79efb02b070bd27
:108f5000fff72efafae7d4f890313c4adb7882f832
:108f60003830002284f8d83184f8d0212a23e2e76f
:108f7000452384f8d031384bc4f8d8312423dae7bc
:108f8000462384f8d0310f2384f8d8312523d2e743
:108f90008323324984f8d031082038f087fb34230a
:108fa000c9e7522384f8d031284b1b7ac3f3c0039e
:108fb00084f8d8312623bee7244b25481b7a13f0ca
:108fc000080f14bf6ff07f430023c4f8d031244b47
:108fd000c4f8d43130f02efd272379e74b2384f8f1
:108fe000d031d4f890319b88a4f8d8312f23a2e750
:108ff0004a2384f8d031d4f89031d3e90223c4e96c
:109000007623302397e7d4f88c31002283f82b2085
:109010000a20222384f80032fbf7f0fd96e70b4b81
:109020005b8fadf8043001a810238df806300df0e9
:10903000d3f9d4f8883123b10a20fbf7dffd2123cf
:1090400046e7da2344e700bf38380020702d0020bf
:10905000003a0020b98e00018e2d0020103a002029
:10906000dd8400010c4b5b8f834210b5044603d1b5
:10907000bde810402bf0b4bdfff7d8fc28b1d0e913
:109080000223134301d0083004e02046fbf788f8a0
:109090000028f8d110bd00bf702d0020f8b5c469bc
:1090a0001c4d06462046d5f82c74fdf7d5fb012350
:1090b000a371194b1b886380238823f4805323f00a
:1090c000030343f4805343f0010323802bf088fd16
:1090d000d0e9002363616378226143f00803637081
:1090e0006088fff7bfffd0e90023e3600b232376fe
:1090f0003b796376a260a37e7a7962f300036ff313
:109100004703a3761b2386f83030032385f82834e1
:10911000f8bd00bf38380020702d0020f8b5264f6c
:10912000c469d7f8b0624660338d0385012380f8a7
:10913000323005462046fdf78ffbf3695888608082
:109140009b88a380238823f4805323f0030343f4f4
:10915000805343f001032380fff784ff3a46d6e9aa
:10916000147120b3637843f008036370d0e900c33f
:109170006161c4f808c0e36027611821eb690b4402
:1091800005201870f4690d48a488408f84420bbff5
:109190000020012458705c7016bf588002230423fd
:1091a0000b4485f83030f82382f8b432f8bde16022
:1091b000a7601021e2e700bf38380020702d0020a2
:1091c0002de9f041c4693c4e05462046fdf744fbbd
:1091d0002388f088608023f4805323f0030343f452
:1091e000805343f001032380fff73cff637800289e
:1091f0003bd043f008036370d0e90023a260e36032
:109200002bf0eefcd0e900236361226118231834af
:1092100085f8303023882948224603f4f85343f078
:10922000090322f8023b336cc4f80230d0f82473ef
:10923000736c5360b38f90f823c3638104370123a9
:1092400000218c451dd1627863f30402627095f8a9
:10925000302003f01f030a3202eb430385f830305d
:10926000542380f81033bde8f08160f3c3036370ca
:109270002bf0b6fcd0e90023e360a2601023103489
:10928000c6e704eb43023e885681002202f1010842
:10929000043204eb4202b2f802e076455ffa88f24b
:1092a000f4d1934203d20133dbb2102bcbd0013186
:1092b000c9b21837c5e700bf702d0020383800202c
:1092c0002de9f0414ff6ff73c46903858b7880f870
:1092d0008530064620460d46fdf7befa23684ff658
:1092e000fc721a402b4b13432360eb7aa3716b7b08
:1092f000e371a888a080fff7b5fe40b3637843f020
:1093000010036370d0e900234ff00808a260e36007
:10931000f46908f108073c44238803f4804343f0d0
:10932000010323806a78637802f06001202910d15c
:1093300043f040036370ab7aa3702b89a4f8033029
:10934000ab786371063786f83070bde8f0818046ef
:10935000dee76ff38613637049b912f0100fdbb2ca
:1093600003d0022262f3c403e4e70122fae728896a
:10937000fff778fe0028ded0637843f020036370a7
:10938000d0e9002308f11007c4f80620c4f80a3019
:10939000d1e700bf0100fcff2de9f04f85b0884602
:1093a00001925c4a0f9e92f82e109df838409df86d
:1093b00040504ff6fe7b022907469a46a6f800b0b9
:1093c00091461dd11288328013b9824208bf01250f
:1093d00003238df80c308df80d50fe238df80e30e0
:1093e0009df80c30002063f307009df80d3063f307
:1093f0000f209df80e3063f3174005b0bde8f08fe5
:109400002bb11cb34ff6ff7333800823e1e74ff60f
:10941000f7729042f6d8fff709fb0446b0b1827e9e
:10942000d30707d44ff481733780adf80c308df833
:109430000eb0d5e70278052a02d04278022a05d17b
:109440004ff482733780adf80c30c6e7514638468a
:10945000fbf796f9002852d0428832801ffa82fc2e
:10946000027990f806b051073ed5b9f83a10414557
:109470004bd1130749d40721baf1000f01d1674539
:1094800045d05d4528bf5d46edb214b3062920d115
:109490002148224ad0f8f430e31adb105a43d0f8be
:1094a000fc3003ebc2039879c0f3c2072046faf7f9
:1094b00075ff99f83530b842b8bf38465b4528bfcc
:1094c0005b46dbb2984211d2a388338083460125e4
:1094d00004213388434502d0019a934208d14ff6c4
:1094e000fe733380012103e00621c5e70029f0d196
:1094f0008df80c108df80d5099e72146f8e74ff0e4
:10950000fe0b002cf9d00146c2e70a21bde7012578
:10951000bbe700bf702d002038380020cdcccccc6c
:1095200030b5c5698bb0044669462846faf798feff
:109530009df8142094f830309a4228d80123039ad9
:1095400084f8323053786bb96d882846fff76efa8d
:1095500028b1837edb075cbf052384f83230258584
:109560000bb030bd1178994211d902eb4301488804
:109570000949498f88420ad1013bdbb2537002eba3
:1095800043039a78db7842ea03232385e8e77523cf
:1095900084f83030e4e700bf702d00202de9f3415e
:1095a00090f807808779002308f101085ffa88f8ae
:1095b0004372764b80f8078093f82e30022b0446d6
:1095c0000e4600f0c3803d460e2f2cd8dfe807f092
:1095d000c9c908262633335858582b2b2ba7c90046
:1095e00042f082fbc0f30b0060810126e379b342b5
:1095f00019d860892bf00efb400960812146644830
:1096000040f03ef8634890f85030002b3dd10123e4
:1096100080f85030543039f067fc36e0b8f1010f73
:1096200032d0032f01d001252fe041f60273438190
:1096300004260225dae7062f13d1b8f1010ff2d87c
:10964000b8f1010f14d142f04ffb40f6627280b2c4
:10965000b0fbf2f302fb13033f335b00638103268d
:10966000e7e750f8343c90f84d209b789a42e6e7c3
:109670001eb133780bb9e371d5e741f60273ede71c
:10968000092f06d1072383710025284602b0bde8c3
:10969000f081b0f84800fff7c9f9082f05461cd142
:1096a000002333706369002b6cd1b8f1020f69d8c5
:1096b000a379082b21d12046faf7f0fe354badf8ff
:1096c000040093f8e032c0b2984216d20198fbf73a
:1096d00059fa50b10325e571d7e7002ee2d033786f
:1096e000002bdfd10823a371dce7e679022e04d139
:1096f00043f609536381042578e74db16e78022e55
:1097000006d12b7803f0fb03012b01d10023f1e7f5
:1097100042f0eafac0f30a0060810226ebe7002972
:10972000b2d00b786bb1e12b14bf0126022642f0b8
:10973000dbfae2794ff480639340013b184060818b
:1097400077e7012343729b02438188e70e2f3ff6a0
:109750006aaf0122ba4044f283331340002b3ff436
:1097600062af8eb13378002b3ff45daf012f07d08d
:109770000e2f0cbf02260126e12bd8d10136d6e7e9
:109780000326d4e7032580e735467ee7702d0020c9
:10979000a0380020383800202de9f0413d4fc46941
:1097a000d7f8b86205462046fdf756f8337c1bb162
:1097b000738aa380337de37123883089608023f42a
:1097c000805323f0030343f4805343f001032380c9
:1097d0004ff6f773984245d8fff744fc80460028bf
:1097e00040d0637843f0080363702bf0f9f9d0e9b7
:1097f000002322616361d8e90023a260e36018229c
:1098000004f1180385f8302003221a70b27d5a70d3
:1098100072895a8095f88630102b02bf95f88730f0
:1098200043f0020385f88730b089f389a5f88030ca
:109830004ff6f7739842288522d8fff7f7f80123ef
:1098400085f8323028b1837edb0702d4052385f802
:10985000323095f83030043385f83030212387f8e2
:10986000d43214e063786ff3c30363702bf0b8f95c
:10987000d0e90023a260e360102204f11003c1e7e5
:10988000054be179588ffbf741fe0228e1d1bde895
:10989000f08100bf38380020702d00202de9f843fa
:1098a0004b7806466ff3c3034b70c888308501239d
:1098b00086f83230f4698846fff7d4fb0746204625
:1098c000fcf7caff98f80c30584aa371538fa38055
:1098d000338d6380238823f4805323f0030343f400
:1098e000805343f0010323809146002f00f08280d3
:1098f000637843f0080363702bf072f9d0e900231a
:1099000022616361d7e900230827a260e36098f829
:109910000130f46903f0600310373c44a3f12002e6
:1099200053425341627863f386126270238803f4d2
:10993000e04343f00203238098f80a30a370b8f89c
:109940000450b8f80830a4f80350a4f80530b8f86b
:109950000600fff76bf8002861d099f830203449f1
:10996000dff8d0c0002a4cd0d1f8f420831adb10e5
:10997000d1f8fc200cfb03f302ebc3039979c1f38c
:10998000c201faf70bfd8842b8bf084698f80330c9
:10999000184480b2fe2828bffe20e0712846fff759
:1099a00061fb637800283cd043f010036370d0e97a
:1099b00000230125a260e36063786ff345136370b1
:1099c0005b0610d4b4f80500fff74cfb58b1637880
:1099d00043f0200363700135d0e9002304ebc50494
:1099e000edb222606360681c07ebc00086f83000af
:1099f000bde8f8832bf0f4f8d0e90023a260e3601f
:109a000085e7d1f8f420831adb10d1f8fc200cfb99
:109a100003f302ebc3039879c0f3c200b6e7072053
:109a2000b4e760f3041363700546c5e7702d0020aa
:109a300038380020cdcccccc094a30b5d2e93d3203
:109a40001c78062c05d0d3e902458d4208bf84421c
:109a500003d028339a42f3d80023184630bd00bf04
:109a600038380020f7b51f464ff6f7739842054681
:109a7000164626d856ea070323d0fff7f3fab8b103
:109a8000d0e90023bb4208bfb24211d00220fbf74d
:109a9000b5f8012430463946fff7ceff50b1837e3a
:109aa000858064f3c303837684f0010003b0f0bdc6
:109ab0000024efe7009432463b462846faf77eff43
:109ac000f2e70020f2e72de9f04d1746527d072a14
:109ad000884614d93d696b78c3f34011c3f3001471
:109ae0000c44e4b2611cb2ebc10f08d3da0609d40e
:109af000a978b5f80300faf7cffd0646a8b900200b
:109b0000bde8f08d364b5a8fb5f803309a42efd14d
:109b1000d5f808a0d5f80cb02bf062f8d0e90023f6
:109b20009b4508bf9245ead1e2e7eb79c2789a42b9
:109b3000e5d9c3706b789b060cd5013ce4b2012ccf
:109b4000ddd8013405ebc404b5f80500226863686c
:109b5000fff788ff7178f378fa8a01f06001a1f1cc
:109b60002000414241413089faf72ffe1c4bb5f8e5
:109b700003005a8f82421fd06b78db0603d5aa6898
:109b8000eb68fff76fff98f80630012b86bf03f1f3
:109b9000ff33dbb201233373737843f00403737034
:109ba000104b93f8a422002aa9d1932283f8a4226f
:109bb0000520fbf723f8a2e7306918b100220274f0
:109bc000fa8a42829b7c002b99d010b1c368103076
:109bd00098477378002262f3c303326173708ee793
:109be000702d00203838002037b5054628b9244ba1
:109bf00043f211121a8040f01dfcd5e90023013315
:109c000008bfb2f1ff3f02d1002003b030bd2846ab
:109c10002af0f2ff88bb0022002369462a20cde902
:109c2000002337f043fdd5e90001dde90023994227
:109c300008bf90420ed1134c2b2004f14c0137f099
:109c400035fdb4f84c204ff6f7739a4202d804f170
:109c50004c00dae7d5e90001fff7eefe30b182886b
:109c60004ff6f7739a4201d80430cee72846faf748
:109c70007ffa0028c8d00230c7e70348c5e700bf15
:109c8000342e0020580b0120aa2d002082b00a4b50
:109c9000009340f20713adf8043000231df80310c1
:109ca0008142dab203d90133062bf7d11a46501c90
:109cb000c0b202b0704700bffcaf601138b50b4bab
:109cc000d3f8f440001b0a4cc0106043d3f8fc40aa
:109cd00004ebc004084621711546fff7d7ffa379ae
:109ce000657160f3c503a37138bd00bf383800202b
:109cf000cdcccccc38b50e4bd3f8f440001b0d4c7a
:109d0000c0106043d3f8fc4004ebc004154623792f
:109d100023b1032212fb0311c1f38701217108460d
:109d2000fff7b4ffa379657160f3c503a37138bd74
:109d300038380020cdcccccc4b682de9f04104461e
:109d40000d46002b2ed12b68002b3fd1e88afef761
:109d50006dfe064600284fd12d4b93f83060984693
:109d6000002e52d06378db072dd462884ff6f7734c
:109d70009a4228d8a7883846fef758fe20b10378c3
:109d800003f0fb03012b1ed098f83430a2799a42dd
:109d900034bfd343db43dbb2ea8a00213846faf70b
:109da00014fd10e0027802f00302012a03d10a69cf
:109db0001278062ac7d01a68a0885b68fff752fe9f
:109dc0000028c0d100263046bde8f0816278d20775
:109dd000f8d460884ff6f7729042f3d80c4aa18805
:109de000528f9142b2d09042b0d01a685b68fff7b0
:109df00039fe0028aad1e5e795f91920297efff759
:109e000079ff3046faf78cfea6e70126dbe700bfb4
:109e1000702d002070b50646807c294c58b1022870
:109e20003ed8d4f890319a7e6ff341029a76bde81d
:109e30007040fef729bcd4f89011224dcb88ab8737
:109e400033886b878b882b80d6e90223c1e90223f4
:109e500094f8d03185f838300b7e08700133dbb2ce
:109e60000f2b28bf0f23487e6b72fef765f9d4f8dd
:109e7000900196f91120317cfff73cff452384f8cf
:109e8000d03124231e3584f800320f4bc4f8d8514a
:109e9000c4f8e03104f5e470bde870402ff0d0bda7
:109ea00094f801320133dbb2012b84f80132b8d8c7
:109eb00004f5e4702ff072fd232384f8003270bda6
:109ec00038380020702d0020b98e00012de9f84fa0
:109ed0000746494e087e9df8289015469a468846c2
:109ee000fff7d4fe96f8303095f801b0044613b968
:109ef0001bf0180f2ed0b8f81600fef797fd01469c
:109f0000002865d0faf74afa1bf0180f04463b4abe
:109f100010d0d2f8f4303a48cb1adb104343d2f8d1
:109f2000fc0000ebc300847914f0070402d1002088
:109f3000bde8f88fd2f8f430c91a314bc9104b4341
:109f4000d2f8fc1001ebc3018b79c3f3c2039c422e
:109f5000b8bf1c4696f83630a342e8d96b79a97889
:109f6000b8881c44a4b2fe2c28bffe24faf794fb48
:109f7000002833d14846fbf737fe0028d7d0437876
:109f80006af3461343702a79eb7843ea022303818c
:109f90003b797a7943ea02238380ab788372bb7979
:109fa000013bc372fb79437389f001035b42c370c9
:109fb000b9f1000f10d096f834305b00ff2b28bfaa
:109fc000ff23dbb203738470b8f81630c380afe7a9
:109fd0001bf0180fbed0aae70123f3e74378c3f3c1
:109fe00041135345a3d1b5f8032003899a429ed16a
:109ff0008378a342e7d89ae7702d002038380020f4
:10a00000cdcccccc012b2de9f34106460f461546ad
:10a01000984610d0224bb2f803005b8f834211d0d8
:10a02000fef704fd38b1047804f0fb04012c02d1e2
:10a030004378022b07d0b379012b29d8002002b036
:10a04000bde8f08101242a46009443463946304653
:10a05000fff73cff05460028f0d0114b93f8303055
:10a060002bb18378fa8ab0880021faf7aefb8cb165
:10a070006b7843f004036b700a4b93f8a422002a18
:10a08000dcd1932283f8a4220520faf7b7fdd5e7a7
:10a090000024d8e721462846faf7e6fdcee700bfc0
:10a0a000702d0020383800202de9f341537d052b19
:10a0b0000d4617465dd9424b93f82e30022b58d0ef
:10a0c0004b781669d80607d5137d0f2b51d98a68ae
:10a0d000cb688888fff7c6fc737813f040046cd116
:10a0e000c3f3c102002a48d0022a42d8b6f803209e
:10a0f0004ff6f7739a423cd90094234632463946cc
:10a100002846fff7e3fe804698b32146a888faf771
:10a1100037fb0446002849d1faf70cfb03790446c3
:10a1200023f0280343f0280303711420faf766fd97
:10a13000ab882380fb8a63807378227903f018034d
:10a14000a3f110014b424b4142f0040263f3410280
:10a15000227198f8012063f3041298f8023088f80d
:10a160000120a37198f80b301bb100214046faf78b
:10a170007bfd002002b0bde8f081b6f803004ff689
:10a18000f7729042f5d8990608d57b7d0d2bf0d952
:10a19000d6f80620d6f80a30fff764fc02233246d0
:10a1a0003946284602b0bde8f0412be703795a074b
:10a1b000b6d543f008030371bae70123efe700bf08
:10a1c000702d0020004870472c390020064ad2f834
:10a1d000f430c01a054bc0104343d2f8fc0000eb2a
:10a1e000c3000079704700bf38380020cdccccccfc
:10a1f000064ad2f8f430c01a054bc0104343d2f8d7
:10a20000fc0000ebc30090f90500704738380020cf
:10a21000cdcccccc10b51446fff70efc034630b1c4
:10a22000817ec1f3001014b141f01001997610bd88
:10a2300040b1431e0d2b4ff0010398bf83403c20db
:10a24000584370470a2070472de9f047bc4d95f8f8
:10a250003c1071298ab0044640f083811021adf88a
:10a260001c100021099190f82c10066b08900e2903
:10a2700078d93178002975d1d6f80310d6f80700bf
:10a2800011f1ff3240f1ff334ff0ff316ff0020068
:10a29000994208bf904265d3af6b2fb9a94b43f2e7
:10a2a000da021a8040f0d8f897f825c097f82630df
:10a2b00063450bd9ba6a02eb0c13002a40f09c806c
:10a2c000a04b43f2db021a8040f0b4f873789e4e44
:10a2d00096f83320b2eb131f44d196f8322003f0e6
:10a2e0000f0393423ed107a91e203af0edfe099bd1
:10a2f000c3bb04a93320276b37f0d8f9dde9042369
:10a3000012f1ff31009143f1ff310191dde9008944
:10a310004ff0ff316ff00200494508bf404507d3b9
:10a32000d7f80710d7f803008b4208bf824219d133
:10a330000df10f01182037f0b9f99df80f3043b136
:10a3400004a9172037f0b2f9a289bdf810309a425b
:10a3500008d196f82e80b8f1020f52d197f9023049
:10a36000002b54db0ab0bde8f087d6f8079051689f
:10a37000d6f803801068894508bf804510d194f94c
:10a380001f100029b178b8bf82f80da0480748bf58
:10a3900082f80ea0090648bf82f80fa04ff0010e08
:10a3a00010329342e1d8bef1000f8fd1227e1a7293
:10a3b000a27fc2f30302da72a27fc2f303121a73fe
:10a3c000e27fd6f80310d2095a73d6f807205a60f4
:10a3d000b2781960c2f38001d209da737278997386
:10a3e000c2f303025a7272780cf1010cc2f3031229
:10a3f0009a7287f825c069e74ff0000e4ff0010a06
:10a40000cfe7b8f1010f02d1bb785807aad5d5f82c
:10a41000f4a0d4f83090d5f8f8e000278df810704b
:10a42000d4469cf80030062b00f09280228abcf8bb
:10a4300004309a4240f08d80dce90423d9f80710fb
:10a44000d9f803008b4208bf824240f08280f44575
:10a4500080f0848067463d4be17fa7eb0a0a4fea14
:10a46000ea0a03fb0afad5f8fc3003ebca0a3b7888
:10a47000062b04bf03233b7081f04003c3f380131a
:10a480007b70bb7803f0300343f00a03bb70237e7c
:10a49000fb70238abb80a389fb8000220023c7e9cd
:10a4a0000223d9f80320d9f80730c7e9042399f823
:10a4b0000230c3f3c3033b7699f80e307b76bb7e44
:10a4c00096f85400c90961f3410303f0fa0300222e
:10a4d00043f00103bb76ba83fff7aafe38629af80d
:10a4e000063062f3861399f802208af80630510785
:10a4f00006d5b8f1010f02bfbb7e43f00403bb7663
:10a50000120606d5b8f1020f02bfbb7e43f004036a
:10a51000bb763846faf704fbe17e94f91d203846f5
:10a52000fff7ccfb9af806306ff302038af8063087
:10a5300004a901234a208df810303af0c5fd10e03f
:10a5400038380020342e0020702d0020cdcccccc0b
:10a5500067460cf1280cf445fff463af002f7ff43d
:10a560007aaf95f81033272b7ff4fcae2b785b067f
:10a570007ff5f8ae184ba1899a8f91427ff4f2ae25
:10a5800094f82c100e290bd9216bd1f80360d1f867
:10a590000770d3e910018f4208bf86423ff4e2ae54
:10a5a000598fdb88994207d00c490d48fbf79ef87c
:10a5b000512385f81033d5e695f86833fb2b7ff4eb
:10a5c000d1ae013207490848a5f86a23fbf78ef897
:10a5d000832385f86833c5e6702d002039520001c9
:10a5e0004c3b0020a9810001a83b00202de9f0414f
:10a5f0000e4607469046fef719fa3149b0b9d1e93f
:10a600003d4523461a78062a11d02833ab42f9d3a8
:10a61000b8f1000f05d02378032b09d02834a542c8
:10a62000f9d8bde8f0810022002321e003461c4652
:10a63000d1f8f450234b651bed105d43d1f8fc308d
:10a6400003ebc50540f203132380a37803f0300326
:10a6500043f00a03e11c1620a37037f027f8a78007
:10a66000a11d172037f022f8002edcd0d6e90023f8
:10a67000c4e9022304f110010c20134e37f016f840
:10a6800001232376337c6376a37e23f0070343f014
:10a690000703a3762046faf743fa0022ff2120465b
:10a6a000fff70cfbab7996f8540000226ff302031e
:10a6b000ab71a283fff7bcfdc4e908022046b0e7f6
:10a6c00038380020cdcccccc702d00202de9f041c5
:10a6d0008b79012b0f46904636d1254e347814f0f5
:10a6e000080410d0536818685968fff7a5f90446a4
:10a6f00058b30378012b06d1d6f8485496f8442471
:10a700000023934201d100201fe02978f9b10133e1
:10a710001835dbb2f5e7c1236b707a793b7943eaf0
:10a7200002236b80d8f804301a685b68c5e90223fd
:10a7300073782b74b378c3f300036b7401232b700d
:10a740001320faf757fddee70120bde8f081d8f8c5
:10a75000106070780e28ded8fff76afd2062204670
:10a76000faf7def9b37803f00103a383d5e700bf5e
:10a770003838002016481749d0f8f43070b5102248
:10a780000c460025013a92b20d804d600831002a36
:10a79000f8d1d0f8f8004bf6dd751a7802f0fb021c
:10a7a000012a11d15a78022a0ed1998805fb01f2ab
:10a7b000c2f3033234f83260314324f8321004eb30
:10a7c000c20251685962536028339842e5d870bd7f
:10a7d00038380020883c002007b501238df8073069
:10a7e000037803f0fb03012b1ed14278022a0f4aa3
:10a7f00014d192f8201041f0800182f82010062236
:10a800000270002242620bb1fff7b4ff0df10701a5
:10a810004b203af059fc03b05df804fb92f820306d
:10a8200043f0040382f820300023e8e7702d002075
:10a8300038b5b0f12805044607d1144b43f246025f
:10a840001a80bde838403ff0f5bd10f8283c052bd4
:10a8500003d00e4b43f24702f2e750e90401fff741
:10a86000ebf870b114f8063c4bb9237d3bb90223d9
:10a8700004f8283c0b20bde83840faf7bfb9fff7d1
:10a88000abff2846bde83840faf706be342e00205c
:10a89000f8b5224fd7f8f440054600262378062b5a
:10a8a00018d0012b30d195f842305bb1d5e90201c7
:10a8b000d4e90223994208bf904203d12046fff712
:10a8c0008bff07e0164b93f82f3003b36378022b0e
:10a8d00008bf2646d7f8f8302834a342ded8c6b1e0
:10a8e000b3882b82d6e90223c5e90223b37e13f095
:10a8f000010308bf0523ab74152385f841300720f9
:10a90000bde8f840faf776bc052be3d1d6e726463a
:10a91000e0e72846bde8f840fbf778ba3838002071
:10a92000702d00200b48836f30b4d3e9024554ea00
:10a93000050207d0192280f8b92030bc19770c2005
:10a94000faf75cb990f8ba30013380f8ba3030bc0d
:10a9500078309de73838002038b544682378042bd8
:10a960000d4605d00d4b43f245021a803ff074fdb1
:10a97000d4e90201fff760f858b1237d2b4306d1db
:10a98000032323700b20bde83840faf737b9fff7ef
:10a9900023ff2046bde83840faf77ebd342e002064
:10a9a00073b5464c94f8b90011280fd12378a56fe0
:10a9b000db0777d56b7d7bb12a8a4ff6f7739a4216
:10a9c0000ad8172384f8b930faf714fc94f8b93090
:10a9d000192b46d002b070bdd5e902231343384e7f
:10a9e0004dd005f108002af007f9002847d18df86d
:10a9f00007000df107015c2036f058fe96f82e3066
:10aa0000012b3ad8d5e90201fff716f820b30378f5
:10aa1000012b04d09df80720a2b9022b12d1838804
:10aa2000a4f88830d0e90223c4e92023837e13f000
:10aa3000010308bf052384f88a30152384f8b93050
:10aa40000720c1e7052b18d1fff7c6fe192384f8ac
:10aa5000b93000232b77b9e7c823192284f8b9202d
:10aa60002b7718483ef030fe83691c309847a36f5f
:10aa7000ebb9e62384f8b930ace7c223ede796f8ea
:10aa80002e30022b0ad0eb7c43b1f12323700d480a
:10aa9000002384f8ba30fff7fbfe97e70948fbf77d
:10aaa000b5f993e7192384f8b930c223d8e7112305
:10aab0000c2084f8b930faf7a1f88be73838002079
:10aac000702d0020b03800208188134a4bf6dd73ca
:10aad0004b43c3f3033310b432f83340214322f81d
:10aae0003310416adb0019b9d1184968814202d19b
:10aaf000d118496831b913445a68426258605df808
:10ab0000044b7047496a11b18142fbd1f7e75df808
:10ab1000044bfff72fbe00bf883c00202de9f04f0b
:10ab20008bb098469df858300793c8f340030493c0
:10ab30008f4bcde90201d3f8f40000259246d3f8fb
:10ab4000fc20d3f8f8308df8265005920693014684
:10ab50002e462c46a9462f4691f800e0bef1060f7e
:10ab600043d0d1e90223dde902bc634508bf5a4561
:10ab70000ef0fb0e08bf0c46bef1010f1bd14b7847
:10ab8000022b0bbf01360135f6b2edb2069b283120
:10ab90008b42e1d829463046fcf720fc002c6ed1d0
:10aba0002a4631460498f9f70ffc20b300242046ca
:10abb0000bb0bde8f08fb9f1000f1ad06d4a0b1a37
:10abc000db10a9eb000e02fb03fc4feaee0e059b27
:10abd00002fb0ef203ebc20203ebcc0c12799cf8e1
:10abe0000430934238bf8946d0e7002f08bf0f4694
:10abf000cce78946cae71fb9b9f1000fd6d04f4656
:10ac0000dde902235146c8f34000fdf77dff4ff612
:10ac1000f773984208f002048146c7d864b301353f
:10ac2000edb229463046fcf7d9fbdde90234c7e92d
:10ac30000234bb7ea7f804906ff30413bb760df1ca
:10ac4000260101234a208df826303af03dfa3c4691
:10ac5000012323700df12701292036f027fd9df8ef
:10ac600027300bb10523237018f0020f31d00122d9
:10ac7000627084f8028031e00136f6b2d1e72378c1
:10ac800003f0fb03012b15d02a4631460498f9f74f
:10ac90009bfb00288ad118f0020f15bf0135013641
:10aca000edb2f6b229463046fcf798fba37e6ff36f
:10acb0000413a376304b93f83130002bc8d0a3880f
:10acc000a4f804a053451ebfa37e6ff30413a3761c
:10acd000bee7079b02226270002bcad1264b93f875
:10ace0003810e170998fe180d3e91001c4e90401c3
:10acf000597aa0780e299cbf0131c9b22176197cfe
:10ad00006176a17ec0f3c00060f3000101f0f9019b
:10ad1000a176002193f85400a183fff789fa022a53
:10ad2000c4e9080102d12046fff7cefe1049114abe
:10ad3000d1f8f430e31adb105a43d1f8fc309df817
:10ad4000501003ebc20320469a7922f047029a7111
:10ad50009df95420fef7b2ff2046f9f7e1fe0023eb
:10ad6000a0880093d4e90223f9f728fe1fe700bf6b
:10ad700038380020cdcccccc702d00207fb51f4bb7
:10ad80001b781b07054631d51d4b027a1b7ac2f38f
:10ad90008012c3f380139a4228d10022d0e9000127
:10ada000faf7d4f9044608b395f90a30019301265d
:10adb0006b7a009302962b7a4ff6ff72d5e9000169
:10adc000fff7acfea0b1002384f8223083882384ef
:10add0002b7a6370d5e90023c4e90623094b63622b
:10ade00004f108002ef0ddfd0523237004b070bdd2
:10adf00084f822604ff6ff73e9e700bf383800207f
:10ae0000702d002031a800012de9f043002387b008
:10ae100090460022cde904234b788a7913f0080f7d
:10ae200001f110060abf374601f1180701f10806c3
:10ae3000012a0d4603d0012007b0bde8f083314b55
:10ae4000197a7b78c1f38011c3f38013994256d1ec
:10ae50002d4b1b781907eed530687168faf776f933
:10ae600004460028e7d06b789b0726d404a92a2043
:10ae700036f01cfcdde90423013308bfb2f1ff3fcb
:10ae80001bd12b796a7943ea02232382022323759b
:10ae90007b7863706b78c3f3400363756a792b79b1
:10aea00043ea02236382326873680125c4e90223fe
:10aeb00025700520faf79ef9bde76b78c3f34003d0
:10aec000029398f91930019398f8183000937b7821
:10aed000aa8830687168fff721fe814650b198f961
:10aee000192098f81810fef705ffb9f804302382ee
:10aef0000023cce74ff6ff7323820123c7e700202e
:10af00009ae700bf702d0020383800207fb51e4d15
:10af1000d5f8d84205f536703ef0d6fb2cb91b4b60
:10af200043f220321a803ff097fa01230026228a4a
:10af3000cde90163ff230093a37cd4e90201fff76d
:10af4000edfd78b1837e43f0100383762676636946
:10af50005bb90e4b43f221321a8004b0bde8704059
:10af60003ff068bac7232376f1e704f11800984749
:10af7000d5f8d8322bb1112004b0bde87040f9f7f4
:10af80003dbe04b070bd00bf38380020342e002014
:10af900010b5d0e90001fef74ffd044668b1037813
:10afa000052b0bd1012303704378022b01d1fff74e
:10afb0008bfd2046f9f7b4fd012010bd0020fce711
:10afc000f8b51e4ed6f8f450074600242b7803b986
:10afd00047b16a78022a05d0012b1fbf062301342e
:10afe0002b70e4b200232a886b6203f201239a4299
:10aff00002d12846fff768fdd6f8f8302835ab4275
:10b00000e4d80f4bbcb193f84820003218bf01229e
:10b0100093f8201062f3820183f8201024b193f892
:10b020004940003418bf012493f8202064f3c7126c
:10b0300083f82020f8bd2246eae700bf3838002018
:10b04000702d002010b5104c40f20120214636f042
:10b0500013fb04f10c014ff4817036f027fb237bc6
:10b06000226803eb830302ebc30304f1080140f2ff
:10b070000320636036f000fb04f1100037f05eff40
:10b080000120bde810409be72c39002070b5684dc9
:10b0900095f87831542b40f0b580d5f874412cb92f
:10b0a000644b43f2a1021a803ff0d6f9624e94f845
:10b0b00044303372fcf7f0fa2b7894f8451096f888
:10b0c0002e20c3f34003002936d0012a14bf0023e9
:10b0d00003f00103b4f84620013a92b24ff6f6713c
:10b0e0008a428cbf002303f00103002b50d094f858
:10b0f0003830012b24d15149172036f0d7fa1620c9
:10b100004f4936f0d3fa94f8453004f108000bb1fa
:10b11000b4f84630738723834a4b23625323237446
:10b12000592385f878312ef08bfc96f838102420be
:10b13000bde8704039f0c8bf002a18bf0023d4e72b
:10b14000236cf3b15a1e1a421bd0e361002294f81b
:10b150004d3084f8242084f8253096f8373084f870
:10b160002630102384f8273004f12803a361364bde
:10b17000236204f108002ef060fc572385f8783133
:10b1800070bd04f140012046faf748fb5623f5e76d
:10b19000c22384f84c30582385f878312b483ef090
:10b1a00093fa044628b9234b43f2a2021a803ff0d7
:10b1b00053f994f83c3013b10120fff701ff94f8e4
:10b1c0004c30abb91d49172036f09cfa1c491620ab
:10b1d00036f098fa95f879312bb9faf73dfdfaf780
:10b1e0006dfcfaf781fd012385f87931fd232b7081
:10b1f000a36c6bb90f4b43f2a302bde870401a80f9
:10b200003ff018b9582bc9d00a4b43f2a402f4e717
:10b2100004f14c009847d5f874313bb1542385f8bc
:10b2200078310920bde87040f9f7e8bcb723a5e7fd
:10b2300038380020342e0020702d0020ac2d002046
:10b24000a82d00206975000171580001ac3900205b
:10b2500070b5324d95f83c30702b49d1ac6b2cb9a0
:10b260002f4b43f2d2021a803ff0f6f82b789b0660
:10b2700023d594f83430261d13b10120fff7a0fe2a
:10b28000012284f82020e26aa26194f8352084f833
:10b2900021200023234a84f8253092f8372084f8af
:10b2a00023306361204be36184f8222030462ef086
:10b2b000c4fb712385f83c3070bdc22384f8243070
:10b2c000722385f83c3019483ef0fef9044628b94f
:10b2d000134b43f2d3021a803ff0bef8236b6bb9d5
:10b2e0000f4b43f2d402bde870401a803ff0a2b881
:10b2f000722be8d00a4b43f2d502f4e704f12400a4
:10b300009847ab6b3bb1702385f83c300820bde813
:10b310007040f9f773bcd623cce700bf3838002063
:10b32000342e0020702d0020894e0001703800203e
:10b3300038b52d4d95f88031452b2c464dd12b4bf2
:10b34000d5f87c0193f82e20012a15d12a785207ce
:10b3500012d59a8f828193f83820827393f8373010
:10b36000c37300230382224b436104302ef06bfb36
:10b37000462385f8803138bdc22380f82830472322
:10b3800084f880311b483ef09ff990f82030054644
:10b3900013b10020fff714fe95f8283073b92b7f06
:10b3a000052b08d094f881312bb9faf755fcfaf740
:10b3b00085fbfaf799fc012384f881316b6a05f16a
:10b3c00028009847d4f87c3153b1452384f8803164
:10b3d0000620bde83840f9f711bc472bcbd1d1e7a7
:10b3e0009a2384f88031c6e738380020702d002079
:10b3f0002d4d0001b439002010b50f4b4468aa222e
:10b4000083f852212378042b07d00c4b43f24802d7
:10b41000bde810401a803ff00db841b9d4e90201ef
:10b42000fef70afb18b1228a8280fff74dfb204607
:10b43000bde81040faf730b838380020342e00202c
:10b44000f8b51b4c23781b0706462fd594f8b0336c
:10b45000662b2bd1d0e90001fef7eefa054628b3a2
:10b460000778012f22d1f9f75bfbd4f8f430114aa9
:10b47000eb1adb105a43d4f8fc3003ebc20304f59b
:10b4800070709a7942f040029a71d6e90023c4e9bb
:10b49000f223ab88a4f8d033074bc4f8d43384f834
:10b4a000d2732ef081fa6c2384f8b033f8bd00bf5c
:10b4b00038380020cdcccccc8d4400010146064864
:10b4c00010b550f8744f3ef0dbf824b91520bde8f4
:10b4d0001040f9f793bb10bd383800208038f9f7d9
:10b4e000c3be13b590f824308df8033090f8343093
:10b4f00004469bb991b1a0f1830301930198a16a1d
:10b500009df803203ff022ff019ba3659df80330c7
:10b5100084f87930a4f1380002b010bda36a019319
:10b52000f2e707b58df807000df10701252036f089
:10b53000e9f803b05df804fb014b5874fbf786bfd4
:10b54000702d002010b50c4c01460c483ef098f8c8
:10b5500094f81032482b05d04a2b0bd104f50e700d
:10b5600037f0ecfc5d2384f810320720bde8104072
:10b57000f9f744bb10bd00bf383800204c3a00201a
:10b5800038b5194c054604f11801252039f030fd75
:10b5900004f12c01372039f02bfd04f1400100208b
:10b5a00039f026fd04f14001042039f021fd04f1b9
:10b5b0004001052039f01cfd04f140010e2039f056
:10b5c00017fd012323750948094c1ff09bfb2946f1
:10b5d00008483ef055f8237c192b04d10020f9f7d8
:10b5e0000dfbc123237438bdf41e01205944000112
:10b5f000383800204c38002008b5074b2822184660
:10b60000002140f0bbfb19220270802200f8102cb0
:10b61000bde80840f9f75abf4838002008b5f8f7e8
:10b62000edff10b14ff6ff73038008bd30b5072959
:10b6300087b013d88df8051000239cb2a14205d81d
:10b6400001a9f8f7f1ff002007b030bd01ac04eb11
:10b65000430432f8135065800133eee70520f3e729
:10b6600008b50379014673b903744ff6fc73c380c0
:10b670004ff6fe734b8205483ef002f80420bde809
:10b680000840f9f7bbbad0230382f1e7b83a0020ab
:10b690000d4890f890338a2b05d00c4b43f20122d1
:10b6a0001a803ef0c7be002380f898330823a0f824
:10b6b0009c33074bc0f8a0338b2380f8903300f500
:10b6c0006570fff7cdbf00bf38380020342e002052
:10b6d0002d5d00017fb54ff6fe73adf81630084bb7
:10b6e0005a8f0df116010023cde900310293114666
:10b6f000fdf752febdf8160007b05df804fb00bf71
:10b70000702d0020f9f761b807289dbf024b83f820
:10b71000ae020020c120704738380020f9f74cb83d
:10b720000a4a58b10730b2f8ac32d2f8a822c3ebbb
:10b73000c3031344834204d800207047d2f8a80200
:10b74000f1e70279d207f8d40730f3e73838002060
:10b75000d3b516461f46bdf8182000238df80730d4
:10b760000223037004461f4b9abb42700276a178f5
:10b7700001f0300141f00a01a17093f83810e17036
:10b78000d3e91001a2809a8fe280c4e90401c4e9e0
:10b7900002671a7c6276a27e93f8540022f00702b8
:10b7a00042f00702a2760022a283fef741fd9df936
:10b7b000202020629df81c102046fef77ffa01230e
:10b7c0000df107014a208df8073039f07dfc02b0f9
:10b7d000d0bd01214170597a002908bf01210176ad
:10b7e000c5e700bf702d00202de9f04f55688bb0e4
:10b7f000002d7ad00378547dc3f30403deb2023cfb
:10b8000003eb4303dbb2e4b2a3426ed8494fb7f86f
:10b810003ae000244ff6ff735ffa84fc66453ad89d
:10b820004ff6ff74a3421cbf03eb43031b18b1f890
:10b83000048018bfde78137e059392f919300693c1
:10b840003d4bd5f800a0d5f804b0d3e93d434ff007
:10b85000000114bf06f0070607268df8271007938e
:10b860000d462078062820d1002d08bf2546079bcd
:10b8700028349c42f5d30db9b9b30d46069b02930b
:10b88000059b2846cde9008352465b46fff760ffe3
:10b890003146284627e004eb440c8444bcf801c040
:10b8a000f44508bfa3b20134b6e7a388434520d1cd
:10b8b0006378022b19d00df127015c2035f0f6fedc
:10b8c0009df82720237852bb012b28d197f82f30e1
:10b8d0003bb10223237097f8203043f0040387f82c
:10b8e000203031462046fdf70bf801200bb0bde8b3
:10b8f000f08fd4e902239b4508bf9245d8d000f0d1
:10b90000fb000128b3d02046f8f748fd814661b11d
:10b910000846f8f743fd814588bf2146a7e7033b6a
:10b92000012b9cbf02232370dbe7864238bf2146f0
:10b930009de700bf702d0020383800202de9f0432e
:10b94000364b87b0d3e93d42002507460e468df8b9
:10b9500017502378062b1cd1002d08bf254628340c
:10b96000a242f6d8002d3fd07b78b98896f91940cd
:10b97000307e13f0100f49d1cde90104009100226f
:10b9800000232846fff7e4fe00212846fcf7b8ff15
:10b990002ae0b7f804c0a388634528d16378022b56
:10b9a00016d00df117015c2035f080fe9df81730a0
:10b9b00073b92378012b0bd1194b93f82f203ab18f
:10b9c0000322227093f8202042f0040283f8202002
:10b9d0007b78da0608d5d4e90223134304d17368cf
:10b9e0001a685b68c4e9022307b0bde8f0837b787e
:10b9f000db06b4d57368d4e90289596818688945ab
:10ba000008bf8045abd1a4f804c0ede773681a689d
:10ba10005b680091cde90104b3e700bf383800202e
:10ba2000702d00202de9f74399460b789df828806a
:10ba300003f00303012b07460c46164646d14b780c
:10ba40009a072ad597f820100320f9f7f9fa054646
:10ba500000283cd00123cde9008322464b463946dd
:10ba6000faf778f9637898070ed42b7803f0f80387
:10ba7000b02b09d1a379012b06d9e379a2883989a2
:10ba800005f13800f8f728fd2b7899072dd52846c1
:10ba900003b0bde8f043fbf73bbf214b1b789b078e
:10baa00007d48a88f38a9a4203d131462046fff7a9
:10bab00045ff324621463069fbf7dcfbb8f1000f49
:10bac00001d00028bed103b0bde8f0834bb163784c
:10bad0009d07f8d4e179a08803b0bde8f043f8f7fa
:10bae00071bb90f820100420afe70d4b1b789a072c
:10baf00007d4a288f38a9a4203d131462046fff741
:10bb00001dff23789b07284604d103b0bde8f0430e
:10bb1000faf7a0bd03b0bde8f043fbf7ddba00bf04
:10bb200038380020014b1865704700bf580b0120c2
:10bb3000014b93f84b007047702d0020014b93f898
:10bb40004c007047702d00202de9f743474e96f8c2
:10bb50002054012d0746894650d90846f8f756fe6d
:10bb6000854200f28180424b6c1ee4b293f84ae0b9
:10bb7000d6f82434c4ebc40203eb82034ff6ff7201
:10bb8000197891b1a64509d093f801c01ffa8cf13c
:10bb9000914203d2cc453cbf0a462046013ce4b268
:10bba000ff2ca3f11c03ebd10446a5425ad90ffa8e
:10bbb00084f8d6f82424c8ebc8084fea8808424421
:10bbc0000125157082f801903b68c2f802307b684d
:10bbd000c2f80630bb68c2f80a30fb68c2f80e3003
:10bbe0004846f8f713fe96f82034834207460bd8f0
:10bbf000d6f82434002003f8080002e04ff00000db
:10bc000032d003b0bde8f0830ffa80f9d6f82434bf
:10bc1000c9ebc90903eb890919f1140fe8d00df13b
:10bc200003014ff4817035f041fd01a940f21b2062
:10bc300035f022fd9df80320019b12fb07f703eb73
:10bc40000710174403eb071712010021c9f814006d
:10bc5000c9f8187040f092f81420214639f034faef
:10bc60002846cee70020cce70446a0e7383800207d
:10bc7000702d002008b5f8f7c9fd084b93f8203463
:10bc80008342014607d9064b83f84a00142039f055
:10bc90001bfa012008bd0020fce700bf3838002057
:10bca000702d0020054b93f84a00054b93f8203483
:10bcb00098422cbf00200120704700bf702d00204b
:10bcc0003838002013b5c3695c7801228df807204d
:10bcd00022466ff3410229205a700df1070135f019
:10bce000e5fc9df8070040b1fff7dcff28b1044bed
:10bcf00093f84b0008b1c4f3400002b010bd00bf80
:10bd0000702d002073b5174c94f800322d2b064689
:10bd100025461cd10df10701292035f0c7fc3378e9
:10bd2000bbb99df80730a3b1fff7bcff88b10e4b3c
:10bd3000c4f8a431012384f8a03104f5ca70782333
:10bd4000c4f89c3137f0d0f82c2384f8003202b0cc
:10bd500070bdd5f890319a7e6ff382029a76fcf727
:10bd600027fbf4e738380020a9840001054b064a78
:10bd700093f84a30d2f82424c3ebc30302eb8303c5
:10bd800058787047702d002038380020054b93f804
:10bd90004a00054bd3f82434c0ebc00003eb80000d
:10bda00002307047702d00203838002030b591b037
:10bdb00004460d46fff7eaff134ba06093f84b30a3
:10bdc000237328f00dff20616869606195f82830c1
:10bdd000637606a9f8f744fa9df82c306269237659
:10bde00001a801928df8083038f0a2fd9df80900f5
:10bdf000f8f724fd054be3610023a060a3762046fd
:10be000038f08afd11b030bd702d0020e5c500016d
:10be100013b51a49b1f84e20b1f85030adf80630dc
:10be2000501e80b24ff6fd74a0421cd901339bb264
:10be30000122adf80420a1f84e201a04adf8063016
:10be4000a1f8503003d50021402039f03df9002100
:10be50001f2039f039f9bdf80630013badf8063046
:10be6000019802b010bd013292b21b04adf804205b
:10be7000a1f84e20efd500214020eae7702d0020e8
:10be8000f0b58bb004464d690e46fff76fff607743
:10be9000fff77cff0127a060a777fff7b9ff114be1
:10bea000a06193f84b3084f8213084f8227028f098
:10beb00097fe7369e060236196f8283084f820309b
:10bec00069462846f8f7ccf99df81430e377064b1d
:10bed00063616b7843f002036b70204638f019fd04
:10bee0000bb0f0bd702d0020e572000108b590f890
:10bef0008730db070ed5c3695b7813f0020f00f1c2
:10bf0000080100f1500002d0bde808404ee7bde84e
:10bf10000840b5e7094b028c9b8f9a4204d1083048
:10bf2000bde808402df095bd014605483df0a8fb51
:10bf30000320bde80840f8f761be00bf702d002067
:10bf40007c3800202de9f8430b46044611464ff695
:10bf5000ff76042b00f2af80dfe803f003ad3c7105
:10bf6000260094f886300d2b0ad1636894f885205a
:10bf70009b789a427bd92046bde8f843faf7bebfca
:10bf8000012b74d1564b93f85321002a6fd0e269ec
:10bf9000b3f85051508a854269d1527c0d2a66d13e
:10bfa000002283f85321e6e7d4f81c8098f801308a
:10bfb000db070fd4b8f802204ff6ff739a4209d17d
:10bfc00004f138056b693bb9274695f80490b9f13f
:10bfd000000f03d0bde8f8831d46f3e7b8f804105e
:10bfe000e868f8f7bff9e86030b30220f9f708f81d
:10bff00006460028e9d0882221463ff001fea6f13e
:10c00000660394f83020e16918463ff0f9fd06f127
:10c010003803f061bb64eb689b88338538370523b0
:10c02000c6e9129786f832303046fff75fff2b7a69
:10c0300001332b723746c8e701232b71c5e7e3694b
:10c0400004f138056a69b2b95a78d70733d45a88e7
:10c05000b24230d12a7982b99988e868f8f782f932
:10c06000e86050b183882385052384f83230204668
:10c07000bde8f8433ae71546e4e7e36c01222a718c
:10c08000bbb1a26c1a61a26c02b15361a4f1800031
:10c09000f9f7eaf82b7a013b2b722b7a002b99d116
:10c0a0006b79002b96d0a5f13804012315f8151ce7
:10c0b0004fe76a71f1e7e3695b7898077ff55baf5b
:10c0c00094f887309a077ff556af6ff3000384f832
:10c0d000873004f1080104f15000bde8f84365e63b
:10c0e00038380020f8b5134d0023ac6e85f8503079
:10c0f00005f16807638926687bb10122013b85f859
:10c10000502063813446002ef4d195f8503083b925
:10c110000948bde8f84036f011bf214638463df0e9
:10c12000d9fa14f8152c617aa4f13800fff70aff48
:10c13000e8e7f8bd383800208c38002010b590f8ba
:10c14000873090f8862061f3000380f887300a4b2f
:10c1500003eb021300211b7880f83f100446a0f87f
:10c16000421080f83e303830fdf718fae8220146d8
:10c170002046bde81040e5e60cf0030130b504466a
:10c180008bb00d4619b36946c069f8f769f8049b8e
:10c19000606c5b88228db4f88010f8f79ffb6064b8
:10c1a000a8b1e269537843f00203537094f88730e2
:10c1b00043f0020384f88730838823852046fff705
:10c1c00081fd01462046fff7b9ff0bb030bd94f862
:10c1d0008630102b03d129462046faf7e9ffa4f157
:10c1e0008000f9f741f8f0e738b5324b93f8b42204
:10c1f000d3f8b042f62a1d462cd194f886200f2a97
:10c200002dd0192a2bd0f721e26983f8b4122a4bda
:10c2100090885b8f834213d0fcf708fcf8b1037859
:10c2200003f0fb03012b1ad14378022b17d1d0e97d
:10c230000223c4e914230f20bde83840f8f7dabf21
:10c2400028f0cefcd0e90023c4e9142395f8b432d9
:10c25000f72bf0d095f8b432f92b29d102e0f9236d
:10c2600085f8b43215483df02ffae369002158886b
:10c27000f8f786fa38b1037903f00602042a04bffe
:10c280006ff3c30303712046fff71cfd01462046f0
:10c29000fff754ffd5f8b0323bb1f62385f8b4323e
:10c2a0001020bde83840f8f7a9bc2e2385f8b43239
:10c2b00038bd00bf38380020702d0020e83a00203b
:10c2c0002de9f0410746012088461646f8f798fe0a
:10c2d0000446e8b140f2022383840e4b9b8f038413
:10c2e0004ff6fe73038500250b4b8361314680f8c2
:10c2f0003250c04784f88670204674616660fff74c
:10c30000e1fc01462046fff719ff2846bde8f08111
:10c310000120fbe7702d002005c4000170b5234dfe
:10c32000234ed5f89c421a2285f8a422237843b9db
:10c33000d5f8a0321834a342f8d8002385f8a432e7
:10c340001ee06378da0721d513f0600f03f00203d3
:10c3500017d1002b14bf0c200e2016492246fff7e0
:10c36000afff637860f30003d90763700ed52069cf
:10c3700020b104234374c36810309847002323700e
:10c3800070bd002b14bf0b200d20e6e763785a0721
:10c39000ced5224631460a20fff792ff637860f33c
:10c3a000820363705b07c3d5eae700bf383800201b
:10c3b0009d980001c192000138b50546044615f864
:10c3c0006039cbb950f8441c40888a8890420fd01d
:10c3d00014f82e3c24f8380c43f0010304f82e3cea
:10c3e0002846fff76ffc01462846bde83840a5e621
:10c3f000228c4988f8f7d6ff21782846bde83840d6
:10c40000faf77cbd38b5411c0446a0f12205163070
:10c41000fdf7c4f8627801462846bde8384091e54a
:10c420007fb568483df050f90446002800f0b78019
:10c4300040f202238384644b90f886209b8f038410
:10c440004ff6fe730385002380f832305f4b836123
:10c450005f4b03eb02135b6803b1984794f83030ed
:10c46000742b00f29780228de5694ff6fe739a4295
:10c470002dd194f883606b78b4f88020a9886888ff
:10c48000029604f1280601962e7a06f0030606f1bc
:10c49000ff3cdcf1000646eb0c0603f001030096be
:10c4a000fcf77affc0f3072384f8820084f8833016
:10c4b000c0f30743c0b284f884300a287cd8dfe890
:10c4c00000f01e7d49505050505009095500092375
:10c4d00084f8823094f88630112b08d1022384f836
:10c4e000823094f8323043f0010384f83230204631
:10c4f000fff7e8fb01462046fff720fe1fe02b7800
:10c5000013f0c00f5ad0062384f882306b7813f0f2
:10c51000010308bf022384f85430ab78ea7843ea79
:10c520000223a4f85630ab7984f85830002384f8fd
:10c530005930284be36504f15000fff791f8264b82
:10c540001a6c0ab95b6cdbb3032004b0bde8704021
:10c55000f8f754bb94f8323043f0050384f83230d6
:10c56000b8e794f8323043f00103f7e794f832303b
:10c570001a4d43f0010384f83230214628463df03d
:10c580007ff82b792e2bdad1f6232b711020f8f7b8
:10c5900035fbd4e7e5212046faf7b0fccfe7104899
:10c5a0003df092f8e82380f8233090f8313000f81d
:10c5b000223ffff727ffc2e7c221ece7d121eae7dc
:10c5c00004b070bd78380020702d002005c4000133
:10c5d0000cf00301b9c3000138380020e83a00200c
:10c5e0007c38002050f80c3c10f8072c10b400f8f0
:10c5f000402c5a7840f8543c6ff341025a7003784b
:10c60000a0f170045bb1022b14d015d3042b8cbfa6
:10c61000c321ce2120465df8044bfaf76fbcc37de1
:10c6200010f84d1cdb07f5d5a0f168015df8044b4f
:10c63000203825e4cc21ede7c321ebe7024bd3f80a
:10c640004e0082b002b07047702d0020044bff22d4
:10c6500093f84a1083f84a20142038f035bd00bf03
:10c66000702d002013b5114b0024c3f84e400df17e
:10c6700003014ff4817035f019f80df1020140f219
:10c68000211035f013f801a940f21b2034f0f4ff1b
:10c690009df802209df80330019812fb03f212016d
:10c6a00021463ff06bfb02b010bd00bf702d002093
:10c6b00010b50d4c40f22110214634f0f7ff211d3a
:10c6c00040f21a2034f0d8ff084bff2283f84a20aa
:10c6d000fff7c8ff22786068c2ebc2029200002117
:10c6e000bde810403ff04abb583c0020702d0020b0
:10c6f000f8b53a4b07789d6f1c46002f66d103f1c1
:10c7000068003cf0e1ff94f850300646a3b184f88d
:10c71000507004f1540036f011fc04f1680716f86b
:10c72000152ca6f138000121fff70cfc38463cf02f
:10c73000cbff06460028f2d1ab7cde0716d5d4f835
:10c740009c62337813b13046f7f7baffd4f8a032c1
:10c7500018369e42f5d3f9f7f9f8214e30463cf0f1
:10c76000b3ff034658bb1020f8f7e0f8ab7c9807fe
:10c7700001d5fef767fcab7c590701d5f8f78effb2
:10c78000ab7c9a0601d5fbf757fcab7c5b0601d569
:10c79000fff78eff95f91230002ba1bf114b00203f
:10c7a0000021c3e9100112232370192384f8b93042
:10c7b00000232b770c20bde8f840f8f71fba184685
:10c7c000c22200f8102fdb689847c7e7fd221a70d5
:10c7d0000278192183f8b9102a77ebe7383800205e
:10c7e000b83a0020702d0020f0b50f4b93f84a2086
:10c7f000c2ebc2030d4ad2f8242402eb8302d2e931
:10c8000005329a4201d800200ae0d0e90067d3e956
:10c810000045af4208bfa64203d19b680b600120d0
:10c82000f0bd1033ede700bf702d00203838002038
:10c830002de9d04f124b93f820c4d3f824140022d2
:10c840004ff000084ff00009944501d1bde8d08faa
:10c850000b781bb1d1e90534a34203d30132d2b224
:10c860001c31f1e7d0e90067d3e900ab5f4508bfb1
:10c87000564501d01033efe7c3e90089eee700bf6a
:10c88000383800207fb50e4615461946d0e90223f8
:10c89000044652ea03002ed031b168468df80850a4
:10c8a000cde9002309f0cafc5db11549154ad1f85c
:10c8b000f430e31adb105343d1f8fc2052f8333044
:10c8c000e3b92378012b0dd14ff6fe73adf800309c
:10c8d000a368cdf802306946e368cdf8063003203e
:10c8e00038f0f2fb04f1080516b12846fbf7c6f94b
:10c8f0002846fff79dff2046fdf76eff04b070bd90
:10c9000038380020cdcccccc2de9f74300268df86b
:10c91000036042884ff6f7739a4204460f4640f28e
:10c92000c680037803f00303012b00f0c080694d3b
:10c9300080886a8f82422bd0e179f8f7e7fd00f01a
:10c94000fd03012b064623d10df103015c2034f0d9
:10c95000adfe9df80350002d3fd162884ff6f7736e
:10c960009a4213d9a088fb8a83420fd0fcf75ef865
:10c9700060b14278022a09d1047804f0fb04012c4a
:10c9800004d12b462a462946fff77cff012524e0e7
:10c9900095f82e30504d022b23d0a08894f807c074
:10c9a000d5f8e0e095f8e51000230eebc30292f80d
:10c9b0000380b8f1000f06d0b2f80080804502d1a4
:10c9c000927862451dd00133dbb28b42edd9022e45
:10c9d00017d00121fcf7f8f80025284603b0bde880
:10c9e000f0836378da060cd57b68d3f80080d3f83f
:10c9f000049028f0f5f8d0e90023994508bf904548
:10ca0000cbd195f8e002d5f8dc32b4f804c094f844
:10ca100007e0002201245ffa82f84045dcd919685a
:10ca2000d60000293ed0997971453bd1998861455e
:10ca300038d1f88afbf7faff0028cdd0d5f8f430ca
:10ca40008df80480c01a254b8df80540c010434373
:10ca5000d5f8fc0000ebc300c37923ea0403c371db
:10ca60000198f8f78ff80028b6d0d5f8dc321c48ca
:10ca70009c5921463cf02efe0028add0ab6e002b19
:10ca800014bf0123002385f8503002d1154836f039
:10ca900055fa0321e17114f8152ca4f13800fff7c1
:10caa00051fa99e76400e4b201320833b3e76378de
:10cab000db077ff549af074ba0885b8f83428bd0a4
:10cac000e179f8f723fd00f0fd0001283ff43cafc9
:10cad00082e700bf702d002038380020cdccccccb0
:10cae000a03800208c3800202de9f74f1746064665
:10caf0000d4600240df107015c208df8074034f04d
:10cb0000d5fd7b7d012b21d933784ffa83f95a0665
:10cb100003f02008c3f340164fead9771ad56a8884
:10cb20004ff6f7739a4211d84f4b93f82e20022af2
:10cb300007d11a88ab889a4208d1b8f1000f67d1a3
:10cb40005de093f85240002c40f08980204603b00d
:10cb5000bde8f08f6b78db0601d40124f6e7a86806
:10cb6000e968fcf769ff0446002864d001233246d7
:10cb70001946fff787feb8f1000f2bd1ac880021d2
:10cb80002046f7f719fe394ab2f8ac12d2f8a832ab
:10cb9000c1ebc1011944187910f0010f06d0b3f8a8
:10cba00002c0a44504bf6ff30000187107338b4225
:10cbb000f1d3b2f8ace3d2f8a8334ff6ff700022fd
:10cbc00072450ad019888c4239d11880013292b24c
:10cbd0001433f5e72046fdf7fffd9df80720224bb3
:10cbe0001ab993f82e20022ab7d1aa881b889a4234
:10cbf000b3d1b9f1000fb0dab8f1000f03d10021c1
:10cc0000352038f061fa184b93f82e30022b08d1fa
:10cc1000154b00200021c3e9100139463046fbf7cf
:10cc20004bfe114b93f82e40012c96d139463046dd
:10cc3000fbf742fe8ae7b8f1000fced19ee78142b2
:10cc4000c4d0b3f802a003f1040c00215145bdd0bb
:10cc50003cf802bb5c45b8d0013189b2f6e7b8f1c7
:10cc6000000fded1cbe700bf702d00203838002048
:10cc700070b5134d134ed5f8f4402178062913d022
:10cc8000d5f8f430d5f8fc20e31adb10734302eb3f
:10cc9000c3031a6872b9481e41424ff00003414174
:10cca0001a462046fff7eefdd5f8f83028349c42ae
:10ccb000e3d370bd013a1a60002af5d1ebe700bf5b
:10ccc00038380020cdcccccc07b529200df1070198
:10ccd00034f0ecfc9df8070028b1054b93f84b00ad
:10cce00008b193f84c0000f0010003b05df804fbbc
:10ccf000702d00202de9f743044628b1d0f890307c
:10cd000013b190f8b13043b9b84b43f2b0121a8066
:10cd10003df090fb03b0bde8f083b54a90f8b770e2
:10cd20001b2380f88e3092f834305b0080f88b3013
:10cd300090465fb190f8b030b0f8ac00022b13d140
:10cd4000538f834202d0f7f7e3f90746a94b84f8e3
:10cd5000b7701b78db0710d457b1002384f8b730c5
:10cd60002046fbf7f7fdd5e7ff21fbf71df9ece7c0
:10cd7000c2212046f8f740fbcce794f8b030012bf5
:10cd800058d0022b03d0994b43f2b112bfe7b4f84d
:10cd9000ac204ff6f7739a424fd8002fddd10df13a
:10cda00007014ff498708df8077034f07ffc9df800
:10cdb0000750002d3cd0b4f8ac6039463046f7f748
:10cdc000dffca8bb3046f7f719fc88b3418869b38c
:10cdd000cbb25e1cd4f890207600f6b2921b03f121
:10cde000ff3c137082f801c09bb204301ffa87fc2d
:10cdf0009c4513d30836f6b22f464b1c84f88b3073
:10ce00001e2384f88e3094f8b830c3b1b4f8ae2045
:10ce10004ff6f7739a4212d9c121aae702eb470ce9
:10ce200030f817e0acf802e00137dfe70826e4e766
:10ce30000826e8e709260027e5e70826fbe7d4f8f7
:10ce40009050c6f100094d4400232b8098f8332000
:10ce50002b7862f385032b702a684ff6fc5313403e
:10ce600043f400732b6094f8b830002b5ad0b4f818
:10ce7000ae30ab8094f8b930eb7198f834305b0089
:10ce8000ff2b28bfff23ab7198f82e30022b53d114
:10ce900098f85320003218bf01226b7862f34513d3
:10cea00067f382036b70fff70fff94f88f3018b1b0
:10ceb00094f8b520002a41d16a786ff341026a7074
:10cec0006ff3410384f88f30b4f8ac306b8094f882
:10ced000b230002b3ad0ab7194f8b030012b3ff454
:10cee00047af6b786ff300036b70b4f8ac304ff65c
:10cef000f77293424ad90832934203d005339bb26a
:10cf0000022b89d81c2384f88e3094f8b83073b380
:10cf100094f8b910b4f8ae00f8f7f8fa02282ad15c
:10cf2000d22126e7b8f83a30ab8098f80a300133be
:10cf3000dbb288f80a309fe70022aee7b4f8b620eb
:10cf4000003218bf012262f34103bbe798f8343086
:10cf5000aa795b00ff2b28bfff23dbb29a42bbd02c
:10cf6000224b43f2b7121a803df064fab4e7e97934
:10cf7000b8f83a00d0e7ab79012b07d9b8f83a20d6
:10cf8000eb79114604f14000f7f7a6fa94f88e30d9
:10cf90001b2b07d194f8b43023b12b78012262f314
:10cfa00087132b700023e36484f84830c4e91433fa
:10cfb000a4f84430b8f83a30a4f8883094f8b13086
:10cfc000e4601e44d4f8903084f838604b446362c7
:10cfd00009493d2038f00cf894f8b730002b7ff465
:10cfe000bfae04f10800f8f7e3f893e6342e002012
:10cff000702d002038380020f41e012043789b0754
:10d0000010b5044606d5094b93f82e30022b06d1f5
:10d01000002010bdfff758fe0028f4d0f8e7a079f3
:10d02000012894bf00200120f3e700bf702d0020ed
:10d030002de9f047446a237803f03c020c2a8eb0b5
:10d04000054606d1b24b1b6d03b198470eb0bde843
:10d05000f08790f82070012ff8d9ae4e96f8331073
:10d06000c3f383028a42f1d103f00303032b02d1fd
:10d0700004f004f8eae70278022ae7d1027c022ae7
:10d08000e4d1072fe2d9a279002adfd0a1884ff698
:10d09000f7729142dad8002b48d19f4b1b7813f0de
:10d0a000010fd3d004a92046b5f808a095f8289020
:10d0b00095f92a80f7f7d4f89df8243095f82020c8
:10d0c000adf826a0ff1a9a428df825708df82890a9
:10d0d0008df82980bad363789b0731d560788707ac
:10d0e00066d404a92046fcf727fe0028aed0677856
:10d0f000bb0600f18d8017f00109a7d160884ff6bb
:10d10000f773984240f29f80f7f702f800289dd00d
:10d11000b80740f190802046fff770ff162300907b
:10d1200004aa21462846fef77dfc8fe7012b8dd10e
:10d130006378da078ad4784b1b7813f0200fb0e7b6
:10d140000df10f01292034f0b1fa9df80f30002bba
:10d15000c4d096f84b30002bc0d0704b1a7d23788a
:10d16000d2b998073ff472af089b1b78062b7ff467
:10d170006daf6378d90709d5237a9a077ff466af34
:10d180006288738f9a427ff461afa7e762884ff697
:10d19000f7739a42f4d959e703f00303012b03d143
:10d1a000089b1b78072beee7002b7ff44faf95e72a
:10d1b000059999b1237803f00303012b03d1089b50
:10d1c0001b78062b0ad0a2884ff6f7739a423ff6d7
:10d1d0003daf0a684b6813433ff438af0499002908
:10d1e00085d0c7073ff532af62884ff6f7739a4292
:10d1f0003ff62caf738fa08898423ff478af9a42e5
:10d200003ff475af0a684b6813437ff470af1de7b6
:10d2100096f82e30022b3ff419afa088fbf706fcde
:10d2200018b14378022b3ff466af2a78d5e90201a2
:10d23000fbf70cfb0ae704a92046fff765fb002873
:10d240007ff469af02e72378a08813f0030f2b89de
:10d250000cbf4ff015084ff0140883420fd0fbf7b6
:10d26000e5fb60b14378022b09d1027802f0fb02a2
:10d27000012a04d14b464a464946fff703fb608822
:10d28000738f984211d1049b1bb90023009343462e
:10d2900046e71e685f6827f0a3fcd0e900239f42a1
:10d2a00008bf96427ff4d2aeefe7a2889a422ad016
:10d2b0002046fff7a3fe00283ff4c8ae6088f7f7ca
:10d2c000b1f895f82010a0b10220f7f7b9fe064694
:10d2d000a0b101230022cde900322946434622466f
:10d2e000f8f738fd33789907304604d5faf710fb84
:10d2f000ace60520e9e7f9f7effea7e6e179a088bb
:10d30000f6f760ffa2e60021f7f756fa9ee600bfa7
:10d31000580b0120702d002038380020f41e012009
:10d3200013b504460df1070140f2211034f0bef9a7
:10d330009df80730a34225bf034b0020c12083f88e
:10d34000204402b010bd00bf38380020036801330c
:10d350000ed041780378074a43ea0123a2f84e3001
:10d360008378c17843ea0123a2f850300020704747
:10d37000c1207047702d00207fb5144602aa0546d3
:10d380000e46faf793fa029b1bbb00220023cde95d
:10d39000022302a901aa2846faf788fa0199d9b905
:10d3a000fef7e4fca8420bd2fff748f9002804daa4
:10d3b000002302a80293fff7c9ff2846fef75afc94
:10d3c0002368002b03da0021402037f07dfe04b0f3
:10d3d00070bd22689a60e3e7d6e90023c1e9002323
:10d3e00023688b60dce7f0b5027885b00446b2bbf9
:10d3f00010f8583c50f80c5c40f8545c62f3410360
:10d4000000f8583ca0f1480610f8073c00f8503ce2
:10d4100031462846f6f724ff14f8503c14f8342c13
:10d420009b1a04f8333c3d4b1b78980707d4aa8815
:10d4300034f8323c9a4202d12846fef77ffa314650
:10d440002846fcf779fc50b154e90a2334f8320c31
:10d45000fcf708fb31462846fff756fa28b9a4f135
:10d46000d800f7f701ff05b0f0bd14f8583c03f001
:10d47000f803b02b0ad1ab79012b07d9eb79aa8835
:10d4800034f8321ca4f12000f7f726f814f8583cc1
:10d490005907a4f1580738d52b789a0711d1d4f839
:10d4a0000320d4f80730a078cde9022302a9d4f8ec
:10d4b0000b30019301aafff75fff3846f9f7caf86e
:10d4c000d1e72946324654f8380cf9f7d3fe54f820
:10d4d000383c1b78042b05460dd0d4f80320d4f833
:10d4e0000730a078cde9022302a9d4f80b300193cc
:10d4f00001aafff741ff14f8583c13f0010f08bfd1
:10d50000002565f3000304f8583c14f8583cdb0789
:10d51000a5d53846f9f7e0fda5e700bf383800206b
:10d5200010b5084c014620463cf0aaf823799a2b06
:10d5300006d1452323710620bde81040f7f75ebbf6
:10d5400010bd00bfb439002038b50a4b1b78802bc2
:10d5500008d0094d142455f8043b2bb9013c14f0b4
:10d56000ff04f8d1002003e098470028f6d10120fd
:10d5700038bd00bf3838002030f2030110b50c462a
:10d58000fff7e2ff237880f001001840207010bd03
:10d5900008b5074b93f82e30022b07d0f8f75cfb49
:10d5a000f8f78cfabde80840f8f79ebb08bd00bf4d
:10d5b000702d0020034bd3e91023134314bf012027
:10d5c00000207047702d002008b5014608483cf047
:10d5d00057f8084b93f8e822312a07d1a32283f8a1
:10d5e000e8220120bde80840f7f708bb08bd00bfee
:10d5f000243b00203838002037b5c37c027805462c
:10d600002bb1d0e90201fbf721f903b030bd022aaa
:10d6100027d10089fbf70afa04460028f5d00df15e
:10d620000601232034f042f895f91220297c204687
:10d63000fcf760fbbdf80630db0702d52046f7f7a4
:10d640006ffa0b4ad2f8f430e41a0a4be410634341
:10d65000d2f8fc4004ebc304a37943f04003a37168
:10d66000d3e7032ad1d1d0e90201fcf7e5f9d3e7ea
:10d6700038380020cdcccccc704710b5184c217a6e
:10d6800060680b460133dbb2182b28bf002320fa59
:10d6900003f2d2071fd501229a4042406260114a2c
:10d6a000237202eb8303d3f8743298476368abb1fb
:10d6b0000d4c23881b0711d430f016f9238843f052
:10d6c0000803238030f020f9084b09481b68bde8a7
:10d6d00010401b6918479942d4d1e7e710bd00bf3d
:10d6e000383800200cf003019e0f01205432002036
:10d6f0005832002013b50a4b4ff4806093f8344041
:10d7000027f088fa074b93f832301844444301a9b4
:10d71000342033f0cbff019804eb400002b010bd81
:10d72000702d0020a82c002013b5114c00234ff4bd
:10d73000800084f82834c4f82c34f7f7f7f804f59f
:10d74000866035f0fbfb012384f83c3401a9094bca
:10d75000c4f84034352033f0a9fffff7cbff019b1d
:10d76000fa3003eb4003c4f8383402b010bd00bff8
:10d7700038380020354f00012de9f7430778e54c94
:10d78000002f40f04d82e44e96f82e204ff6ff73a6
:10d7900033800123002a40f04d8277720025df4953
:10d7a00086f85330222033f081ff756075803ef09b
:10d7b0009bfa01233582b374b072fef779fffdf74f
:10d7c00041fcf9f769fff9f75dfed5493d2037f0d7
:10d7d0000ffcd349502037f00bfcd149512037f0d2
:10d7e00007fcfaf7c5ffcf4884f8505035f0a6fb88
:10d7f0002023e365cc4b84f860500820c4e9193538
:10d80000f7f794f841234ff4804084f84c302564b6
:10d81000a564f7f78bf8c5494ff4847033f046ffe1
:10d82000c34940f2062033f027ff94f87020e16ee0
:10d83000a8464ff4a070ebb29a4200f200824ff477
:10d840000010c4f87480f7f771f8da234ff48060a1
:10d8500084f80032c4f88881f7f768f8b54884f88e
:10d860000182c4e9638835f069fbb7234ff4007087
:10d8700084f87831c4f87481f7f758f8d6234ff458
:10d88000807084f83c3084f87981c4f83880f7f7e8
:10d890004df89a23402084f88031c4f87c81f7f752
:10d8a00045f80df1030140f20d1084f88181cdf8a7
:10d8b00004808df8038033f0f9fe01a94ff4037062
:10d8c00033f0dafe9df80320019bc4f8e0307f2a94
:10d8d00028bf7f2284f8e420002503ebc202934294
:10d8e00040f0b381944884f8e5504ff048093df08a
:10d8f0006dfb4a46002191483ef040fae62384f849
:10d90000b9303123a4f8e8328d4bc4f80833022330
:10d9100084f8f832c4f8ec52f7f7c0fe89494ff4a6
:10d92000857033f0c3fe884940f2092033f0a4fe2d
:10d93000b4f8ac22d4f8a802c2ebc20200214ff026
:10d9400001083ef01bfa84f8ae82f7f7ffff1020c3
:10d95000c4f88052f6f7eaff3ef0c6f901a986f84e
:10d960002d004ff48a7084f8845233f09ffe84f8bf
:10d970007c52f7f7e1ff754884f87c5235f0defa07
:10d980003ef0b2f941f64c5280b2b0fbf2f302fb2a
:10d99000130312fa83f3c4f858326d4bc4f86032a3
:10d9a000019b6c49c4f86c321e206b4bc4f8743276
:10d9b00084f85c8284f8708284f87a52a4f87852f1
:10d9c00037f016fb6548664e35f0b8fa4022002164
:10d9d00064483ef0d3f9802084f81092f6f7a6ff51
:10d9e000614bc4f80852314640f209107560c4f822
:10d9f000483284f8448233f059fe311d40f207204a
:10da000033f03afe94f80822d4f80c029201002177
:10da10003ef0b4f913234ff4005084f8c430c4f836
:10da2000c050f6f783ff06f5a07035f087fa302274
:10da3000002106f598703ef0a1f9922324220021de
:10da400006f5847084f838333ef098f927232822ad
:10da5000002106f5b07084f810333ef08ff9fb23f7
:10da600084f86833782340220021a4f8d432a6f148
:10da7000f0003e4bc4f8c032c4f8b8523ef07ef914
:10da8000aa23042084f85231f6f750ff1422002113
:10da9000a6f1b0003ef072f901a94ff498708df82c
:10daa000045033f003fe9df8043053b1f7f7a6ff9e
:10dab0001822002106f5c4703ef060f9892384f82d
:10dac000903300258e234ff4004084f87031c4f861
:10dad0006c51f6f72bff2e234ff4803084f8b432cc
:10dae000c4f8b052f6f722ff214940f2031033f098
:10daf000ddfd204940f2052033f0befdb4f8ac3323
:10db0000d4f8a80314225a43ff213ef037f94ff40a
:10db1000003031e038380020702d0020c42d002066
:10db2000481f01208c380020e5c00001a8380020e3
:10db3000a4380020cc39002000390020b038002063
:10db4000b9630001e43a0020e03a00209c3a00204a
:10db5000d15a00015c1f01204d720001703a002073
:10db6000403a0020483a002091490001b94800019c
:10db7000e43b0020e03b0020a4f8ae53c4f8d852a8
:10db8000f6f7d4fe66234ff4802084f8b033c4f84f
:10db9000b453f6f7cbfe16234ff4002084f8f0338d
:10dba000c4f8f453f6f7c2fe4ff48010f6f7befe49
:10dbb0002a4940f2212033f05ffd29494ff48b7050
:10dbc00033f074fd94f8e032d4f8dc12082b28bf4f
:10dbd000082384f8e0322e46eab2934239d8214d28
:10dbe000fff7a2fd294640f22f10c5e9006633f089
:10dbf0005dfd291d40f2232033f03efd4ff400006f
:10dc0000f6f794fe2a78686802eb4202d2000021ff
:10dc10003ef0b4f8faf710faf7f758fc3623237001
:10dc2000636900201f72f6f7e9ffc223237403b073
:10dc3000bde8f0837372931e18bf0123aee500fbad
:10dc400005f3013501f80380f5e5dd705d6008330b
:10dc500045e641f835600135bee700bf143b0020c2
:10dc6000183b00207c3c0020054bc3f840231922c0
:10dc7000a3f83a0383f83c1383f83823f6f770be11
:10dc80003838002008b5014607483bf0f9fc074b3f
:10dc900093f828243ab9012283f828241620bde8f5
:10dca0000840f6f7abbf08bd643c002038380020c0
:10dcb00010b50c4b93f853309b0712d50a4cfff765
:10dcc00033fd002384f8593004f15801074be36514
:10dcd000222033f0ebfc04f15400bde81040fff7c4
:10dce000d1bf10bd702d0020580b0120f54a000156
:10dcf0001ae507b522200df1070133f0d7fc0b4ad6
:10dd00000b4b13619df8070000231373fcf790fa87
:10dd10000323b0fbf3f003f2e53343431046936073
:10dd200035f0e2f803b05df804fb00bf083d0020c9
:10dd3000b1dc0001014835f001b900bf083d002009
:10dd400008b5094b93f82e30022b08d0074835f060
:10dd5000f5f8f7f7f1fdbde80840f7f74fbebde86d
:10dd60000840fff7e7bf00bf702d00203c390020be
:10dd700010b51446fbf760fe014668b10378012b2d
:10dd80000ad10e2c0ad82046fcf752fa086208463f
:10dd9000f6f7c6fe002010bdc820fce7c120fae758
:020000040000fa
:020000040100f9
:10dda0002de9f3411a4cb4f8008064684ff0300c50
:10ddb0000cfb014c884507d84ff6fc73adf80430d6
:10ddc00000238df806300ae09cf80ae00eea02040f
:10ddd0009c4218d178b9adf804108df806e0bdf872
:10dde0000430002063f30f00bdf8063063f31f40da
:10ddf00002b0bde8f081dce90067d0e90045af4240
:10de000008bfa642e7d0013189b20cf1300cd1e74e
:10de100010000120094a03b2506882b050b1002bb3
:10de20000adb11889ab2914206d903eb430300eb57
:10de300003100b3002b070470020fbe710000120f8
:10de4000084b82b09a685b68019009b222f83100f1
:10de500001eb410103eb0111bdf806300b8102b06b
:10de6000704700bf10000120027812f003030dd1ab
:10de700002f00c030c2b18d013061cd5037a13f0f8
:10de8000030f14bf0a23092318467047012b0ed035
:10de9000022b0ed1d106f7d413060cd5037a13f05a
:10dea000030f0cbf09230b23eee70923ece7022342
:10deb000eae70023e8e70823e6e7d0b5044608b917
:10dec0000020d0bdaa2380f82030d0e9006726f0da
:10ded00087fed0e900239f4208bf9642f0d18223fb
:10dee00084f82030237a013bdbb2fd2be8d8237b7a
:10def000032b0fd1237e013bdbb2fd2be0d8d4e90d
:10df0000042313430cd1094b44f210421a803cf015
:10df100091fad5e7012b03d0a62384f82030cfe770
:10df2000002384f820300120cbe700bf342e0020ee
:10df300030b4294ca2688242214606d9274b44f2cc
:10df4000824230bc1a803cf075ba2478831ae820eb
:10df5000b3fbf0f3dbb29c4203d8204b44f2834284
:10df6000efe700fb032393f8d8205208032a07d8d1
:10df7000dfe802f002020e020a790ab1013a0a71e0
:10df800093f8d8206ff3000283f8d82030bc704794
:10df9000ca780ab1013aca70d3f8a8500869854214
:10dfa000a5eb00024ff06004b2fbf4f2d2b203d250
:10dfb0000a4b44f28442c4e74978914203d8074ba4
:10dfc00044f28542bde704fb020211780029d7d054
:10dfd00000211170d4e700bf38340020342e002017
:10dfe00010b1d0f880302bb9044b44f272521a8031
:10dff0003cf020ba00f8871f184700bf342e0020dd
:10e0000013b504460df10701292033f04ffb9df8ad
:10e01000070018b194f8340000f0010002b010bd00
:10e0200013b5044690f8340010f0010309d010f045
:10e03000080004d0e08d2b2894bf0020012002b0fe
:10e0400010bd4ff498700df107018df8073033f0d3
:10e050002dfb9df8073094f83400002b14bf3f23ac
:10e06000512310f00800ead0e08d9842e4e713b5a0
:10e07000044601a9342033f019fb034bd868019bf7
:10e0800000fb043002b010bd1000012070b51d4c23
:10e090001d4d0668c4f894014ff00003a4f89d31ab
:10e0a0006b7884f8a23104f5ce714ff4947033f09c
:10e0b000fdfa3046fff7a4ff234630b194f89c21c7
:10e0c0002b2a84bf2b2284f89c21f48d93f89c0189
:10e0d000b4fbf0f1cab200fb114189b995f82710e1
:10e0e00083f8a021ff228a40d243084922f001028e
:10e0f00083f89f210a7c83f8a121501c087470bd0d
:10e100000132ebe738340020002c00201000012001
:10e1100007b5019000b2002804db094b1b8880b2d0
:10e12000834205d8074b44f226521a803cf094f9fa
:10e130009df80600c0f3800003b05df804fb00bf4b
:10e1400010000120342e0020f7b5384a002415783d
:10e1500096688df80740e827e3b2ab4238d207fb58
:10e160000463013493f8d81011f00101f4d1c3f81d
:10e17000a81003284bd8dfe800f00202230211792f
:10e1800094788c4224d90131117193f8d91000226e
:10e1900062f307115a6083f8d91083f8e020b3f8ce
:10e1a000d82022f4706222f0010242f00102a3f8aa
:10e1b000d82060f3470283f8d82000221a6010e0cc
:10e1c000d5785478ac4203d9177b16698f420bd1ae
:10e1d00001230df1070146208df8073036f074ff5a
:10e1e0000023184603b0f0bd344616f860cbbcf1ee
:10e1f000000f09d101210135d57004f84a1b83f8bd
:10e20000e010c3f8a840cae70131c9b2dee7012334
:10e210000df1070146208df8073036f055ff044b0d
:10e2200044f281421a803cf017f9d9e738340020d3
:10e23000342e0020d0f8bc3070b5044680f8b910f8
:10e240002bb9094b44f2f5521a803cf005f92546ea
:10e25000412015f8b91f36f037ffd4f8bc302846f6
:10e26000bde87040184700bf342e0020d0f89c3025
:10e2700010b5044680f898102bb9064b44f2f552bd
:10e280001a803cf0e9f8d4f89c3004f19800bde81d
:10e2900010401847342e002010b5044628b90e4b04
:10e2a00044f243521a803cf0d7f8637884f8273060
:10e2b00094f8303084f82630d4f822302bb9064b4d
:10e2c00044f244521a803cf0c7f8d4f8223004f1ea
:10e2d0002600bde810401847342e002030b5154cfc
:10e2e00085b0a368019005b22bb1002d03db228815
:10e2f000abb29a4205d8104b44f220521a803cf03f
:10e30000abf8636805eb450203eb0213a2681b89b7
:10e3100032f835200020d1b261f30700120a62f30f
:10e320000f20dab262f317401b0a63f31f6005b0d7
:10e3300030bd00bf10000120342e002070b50d4606
:10e34000044608b1c36f2bb9064b44f292521a80af
:10e350003cf082f82046e36f00f8795fbde870403a
:10e36000184700bf342e00201fb50190fff7b6fffd
:10e3700084b2631e9bb24ff6fd7203909342bdf8c8
:10e380000e3015d90133adf80e300123adf80c3045
:10e3900001990398fff754fd01a9202036f094fe5f
:10e3a000bdf80e30013badf80e30039804b010bd3f
:10e3b0002bb9074b44f228521a803cf04df8013437
:10e3c000adf80c4001990398fff73afde8e700bf6c
:10e3d000342e0020002310b580f83c30836b0446b7
:10e3e0002bb9064b44f244421a803cf035f8a36b3b
:10e3f00004f13c00bde81040184700bf342e002057
:10e4000038b5114dd0f8a8202b699a42044605d2a0
:10e410000e4b44f247421a803cf01ef82869d4f8ab
:10e42000a8406b78241a6020b4fbf0f4e4b2a34255
:10e4300005d8064b44f248421a803cf00df82b698f
:10e44000602000fb043038bd38340020342e00201a
:10e450002de9f041284b9c691b7d03eb830304eb02
:10e46000c30690f8203005460f4633b900f1100876
:10e47000b4420ad385f8207005e0204b44f22542cf
:10e480001a803bf0d7ff002433e094f82030a42b0f
:10e4900001d0aa2b19d12a7a237a9a4215d16a89f6
:10e4a00063899a4211d1d4e90001d5e90023994248
:10e4b00008bf904209d12a7b237b934205d1012bcf
:10e4c00005d12a8a238a9a4213d02834d0e7032b15
:10e4d00003d00a4b44f22642d2e72a7e237e9a4298
:10e4e000f3d1082204f1100140463df07bfb0028e7
:10e4f000ebd12046bde8f08110000120342e002031
:10e5000010b50d4a0d4c012303fa00f0137f184398
:10e51000238810779b060ed42ff0e6f9238843f06a
:10e52000200323802ff0f0f9054b06481b68bde857
:10e5300010401b69184710bd100001209e0f0120dc
:10e54000543200205832002037b500230d468df894
:10e550000730044660b180f8401002b11268e36be6
:10e5600062643bb9124b44f254421a803bf062ffa2
:10e5700003b030bd04f14000984765b9e28b4ff617
:10e58000f7739a4207d801230df107014e208df849
:10e59000073036f099fd2046fff742fd0028e7d00e
:10e5a000044b0022c3f894210120fff7a9ffdfe705
:10e5b000342e00203834002008b5064b5a7f01461f
:10e5c000013a03f120005a773bf05af80120bde8e8
:10e5d000084095e71000012008b580f8da1000f136
:10e5e0000c0103483bf04cf80220bde8084087e7e7
:10e5f0008400012010b5044628b9084b44f260524b
:10e600001a803bf029ff0023a365214604483bf014
:10e6100037f80320bde8104072e700bf342e002019
:10e620008800012038b5044600f1080528b90d4bd3
:10e6300044f233621a803bf00fff41f20133a4f839
:10e640006430032384f8663004f18003e366064bec
:10e650002367064b6367242384f868302846bde8a7
:10e660003840c7e7342e002091fb0001b5e60001d9
:10e6700038b50d4bdc6fb3f88030a3f58873b3f574
:10e68000be6f054605d9094b44f263421a803bf040
:10e69000e3fe294606483af0f3ff1cb92046bde8e0
:10e6a00038402de738bd00bf10000120342e002077
:10e6b0008c00012038b50d46044628b9094b44f2b8
:10e6c00007621a803bf0c8fe012384f89c5084f84e
:10e6d0007030214604483af0d3ff0720bde83840a7
:10e6e0000ee700bf342e00209400012008b5a0f1f1
:10e6f000540103483af0c4ff0320bde80840ffe698
:10e700008800012008b5a0f1140103483af0b8ffd1
:10e710000120bde80840f3e69800012008b510f894
:10e7200014393bb9014606483af0aaff0120bde87a
:10e730000840e5e60022a921bde8084004e700bf43
:10e740009c000120024a537f01335377fef7d2ba6f
:10e75000100001201f4b03f5a972c3f8c820b3f8bd
:10e760006c21a3f8e4201c4ac3f8d0201b4a83f88c
:10e77000720140f60231c3e93a12822283f8522133
:10e7800093f8792183f85321d3f86e21c3f85421eb
:10e7900093f8782183f8582193f87a2183f8592146
:10e7a000022283f85a21b3f87621a3f85b2193f86b
:10e7b0007b2183f809210021af2a83f8f010c3f8e8
:10e7c000681103d00b2103f1200005e703f13800a5
:10e7d000b8e700bf3834002055f500010101000101
:10e7e00070b50646124c0025022084f86450fff7ed
:10e7f00087fe337863b1246e2a4620680221fff732
:10e80000a3fe2046fff794fb0120bde8704077e6a9
:10e81000206e236c94f8502080f8c920c0f8a830ee
:10e82000012380f8cd30bde8704018308ae700bf82
:10e830001000012038b5446905462cb9184b44f244
:10e8400068521a803bf008fed4f8903013b194f867
:10e85000b1302bb9124b44f269521a803bf0fcfde7
:10e86000104bc4f89830022384f8b0300022ab88f3
:10e87000a4f8ac3095f85c3084f8b2202a7f84f894
:10e88000b5300123c4f8945084f8b43084f8b6202d
:10e89000a4f8b7302046bde83840fef72bba00bfd9
:10e8a000342e0020dd20010170b5044686b018b179
:10e8b00043680bb103682bb92d4b44f253621a80a5
:10e8c0003bf0cafd63689d6a2a466b4652f8050f05
:10e8d000516803c32b79042b22d0254b44f2546298
:10e8e0001a803bf0b9fdeb788df811302b79226856
:10e8f0008df81030106851681e4d02ab03c3d5f877
:10e90000904005f190068cb9d5f8903013b91a48ab
:10e9100034f014fb02a806f05bfc012006b070bdc9
:10e92000684626f069f90028d7d0dce794f8a830cb
:10e93000042b1ad19df81030042b16d1d4e92801ec
:10e94000dde90223994208bf90420ed1012384f8e9
:10e950009930214630463af0bdfe94f89a3023b102
:10e960009df811102046fff765fc2468cbe700bf37
:10e97000342e002010000120a4000120f8b51f4d06
:10e98000d5f8a840064605f1a8073cb9d5f8a83047
:10e990009bbb1b48bde8f84034f0d0ba94f88830ef
:10e9a000022b20d0042b25d0012b1ad1b37a03f0ef
:10e9b000fb03012b15d1d6e90001d4e924238b42b6
:10e9c00008bf82420dd1012384f8783021463846b1
:10e9d0003af080fe94f879301bb100212046fff711
:10e9e00045fc2468d1e7b37a023b012bf9d8d6e97c
:10e9f0000601e2e7b37a042bdce7f8bd1000012042
:10ea0000bc000120012370b580f8753090f8743097
:10ea1000061fbbb9036f9bb1b1b105240b4d314645
:10ea200005f1a8003af056fed5f8a8301bb905f15b
:10ea3000ac0034f083fa21463046bde8704015e45e
:10ea40000424ebe70024f6e770bd00bf10000120ae
:10ea500090f8953070b50124061f80f89640bbb938
:10ea6000036f9bb1b1b10c4d314605f190003af006
:10ea700031fed5f890301bb905f1940034f05efa00
:10ea800021463046bde87040fff7d4bb0224eae7d8
:10ea90000024f5e770bd00bf1000012030b5054629
:10eaa00089b018b143680bb103682bb9134b44f21a
:10eab00062621a803bf0d0fc6b689c6ae378042b9e
:10eac00005d00e4b44f263621a803bf0c5fce3783c
:10ead0002a688df800301068516802ab03c32346e2
:10eae00004aa53f80c0f596803c29868d96803c286
:10eaf00068462df0b7ff012009b030bd342e00204c
:10eb000038b5044628b90d4b44f227621a803bf011
:10eb1000a3fc637ba4f19c055bb954f8080c037853
:10eb2000052b06d18288238a9a4202d1083006f04a
:10eb3000e4fa2846bde83840fcf7d0bc342e00206b
:10eb400010b5a0f19c0428b9054b44f235621a8037
:10eb50003bf082fc2046bde81040fcf7bfbc00bf84
:10eb6000342e002070b5b0f13c06044650f8285c05
:10eb700005d11d4b44f265521a803bf06dfc2378a1
:10eb800003bb227914f8303c9a4205d9164b44f263
:10eb900066521a803bf060fc237985f8b13054f856
:10eba0000c3cc5f8903054f8243c2bb90e4b44f281
:10ebb00067521a803bf050fc54f8243c3046bde8c4
:10ebc00070401847236b2bb9074b44f26d521a80e3
:10ebd0003bf042fc3046236b022198472846bde8b3
:10ebe0007040fcf77bbc00bf342e0020f8b5044613
:10ebf000086849681746faf71fff054688b3067884
:10ec0000012e06d0052e2cd106f06cfab0fa80f653
:10ec1000760960683146fcf764fc044638b9124b4b
:10ec200044f209621a803bf005fc2046f8bd02233d
:10ec300080f8b030ab88a0f8ac30c0f89450012315
:10ec40000025c0f8987080f8b45080f8b23080f891
:10ec5000b560a0f8b65080f8b850fef74bf82846db
:10ec6000e4e70120e2e700bf342e002030b504467f
:10ec700085b018b143680bb103682bb90c4b44f253
:10ec800093521a803bf0e8fb636893f82420042a2f
:10ec90000bd122689d6a106851686b4603c36846b1
:10eca000eb788df8083006f0b3f9012005b030bddf
:10ecb000342e002070b5436893f82460036886b052
:10ecc00004462bb90f4b44f2f4521a803bf0c4fbbc
:10ecd000636821689b6add788df808500868496888
:10ece0006a46022d03c206d10c2e07d153f8040f39
:10ecf000596804aa03c268462df01efe012006b022
:10ed000070bd00bf342e00201fb5044618b1436803
:10ed10000bb103682bb90e4b44f283521a803bf0bf
:10ed20009bfb636893f824200b2a0ed121689a6a12
:10ed3000086849686b4603c3d2f80310d2f807305d
:10ed40006846cde9021306f07df9012004b010bd3c
:10ed5000342e002010b5044688b018b143680bb1ba
:10ed600003682bb91c4b44f273521a803bf074fbbe
:10ed7000636893f824200e2a2ad11a8c2168adf8f2
:10ed80000620086849689b6a02aa03c2d3f80310e8
:10ed9000d3f80720cde90412197bda7a42ea01227e
:10eda000adf81a205b7b8df818300df105015c2061
:10edb00032f07cfc9df805302bb9dde90423bdf869
:10edc0001a00faf74ffe0df1060102a83cf0b2fe60
:10edd000012008b010bd00bf342e002050f80c3cbc
:10ede00010b5ff210446b3f80100f9f7ddf850b182
:10edf000074b44f8043c0023e376a4f19c00bde8f3
:10ee00001040f9f7a7bd2046bde81040fff7d4bb7e
:10ee1000b9e5000170b53149314c4ff4887032f0da
:10ee200045fc304940f20e2032f026fc0023217bc5
:10ee3000206960251e46dab291423fd8284940f247
:10ee40000f1032f033fc284940f20d2032f014fc50
:10ee50002278a5680023e826d9b28a4233d8237bda
:10ee600063702249a2704ff000034ff49470a4f82d
:10ee7000033032f01bfc1e4940f2291032f016fc20
:10ee80001c494ff48c7032f011fc94f873314bb183
:10ee9000194940f20f2032f0effb18494ff404708b
:10eea00032f0eafb94f8731194f87431a26901fb13
:10eeb0000323e361002384f8723170bd05fb03f284
:10eec00001338654b7e706fb0351013391f8d800ac
:10eed0006ff3000081f8d800bee700bf4434002083
:10eee000383400204834002040340020d43500203d
:10eef000ac350020ab35002050340020d035002048
:10ef000010b5134c40f2122004f1180132f0b4fb9a
:10ef100004f1140140f2171032f0c8fb237d2246a1
:10ef20004bb1a16939b90b4b44f22942bde81040fd
:10ef30001a803bf07fba926903eb830302ebc303b1
:10ef4000a8219a4200d310bd82f820102832f8e799
:10ef500010000120342e002073b5304c6368054644
:10ef60000bb1a3682bb92e4b44f222521a803bf00e
:10ef700073fad5e900234ff0ff316ff00600994294
:10ef800008bf90421cd20023012219461846fef702
:10ef900007ff0526009000b2031d28d14ff6fd7330
:10efa000adf8043000238df80630bdf804300020a1
:10efb00063f30f00bdf8063063f31f4002b070bd6d
:10efc000184b1e7801231a4600212846fef7e8fe5a
:10efd000009000b2021d46f0010608d10023012274
:10efe00019461846fef7dcfe009000b2d4e7a3688d
:10eff000adf8000003ebc00300221a605a6063689a
:10f0000000eb4001d5e9004503eb0113c3e90045de
:10f010009e721a81009b0193c7e700bf1000012078
:10f02000342e00200c24012013b50c4681b94ff674
:10f03000fb73adf804308df80610bdf804300020e5
:10f0400063f30f00bdf8063063f31f4002b010bd3c
:10f05000fff782ff030400900dd4fef7dbfe236868
:10f06000036063684360a3688360e368c3606946c4
:10f07000152036f029f8009b0193dee7702208b5d1
:10f0800000213cf07bfe0122a0f85c20002280f8e9
:10f090005e2008bd38b5044600f1080528b90d4bbf
:10f0a00044f213621a803bf0d7f92846fff7e6ffd7
:10f0b00040f21133a4f86530074b2367074b6367b1
:10f0c0001d23e46684f868302846bde83840fff721
:10f0d00091ba00bf342e002051fe0001b5e60001b8
:10f0e00070b50d46044610b1d0f884302bb90e4be4
:10f0f00044f282521a803bf0aff96db9d4e91e0197
:10f10000faf79afc20b101232a462946fdf7bafbfb
:10f1100004f17800f8f7b2fd2046d4f8843000f806
:10f12000805fbde870401847342e002070b5114d47
:10f13000d5f8a84005f1a8063cb9d5f8a830bbb170
:10f140000d48bde8704033f0cfbe636f1bb1013b8b
:10f1500063672468f0e794f87930002bf9d02146f2
:10f1600030463af0b7fa04212046fff77ff8f0e77f
:10f1700070bd00bf10000120bc00012070b5124d11
:10f18000d5f8904005f190063cb9d5f89030d3b150
:10f190000e48bde8704033f0a7be636f1bb1013b62
:10f1a00063672468f0e794f89a302146304633b11b
:10f1b0003af090fa02212046fff73cf8f1e73af0e6
:10f1c00089fa0121f7e770bd10000120a400012099
:10f1d0002de9f041164d174fd5f8c04005f1c00696
:10f1e00044f264683cb9d5f8c030f3b11248bde8c8
:10f1f000f04133f079be636f1bb1013b6367246854
:10f20000f0e7214630463af065fa012384f882306f
:10f21000d4f884301bb9a7f800803bf01df9d4f86e
:10f22000843004f182009847e9e7bde8f08100bf2f
:10f2300010000120342e0020d400012070b50e46ad
:10f24000044608b1c3682bb90b4b44f26b421a80d9
:10f250003bf002f9094d05f17c003af035fa204601
:10f26000e36800f8106f9847eb6f23b10020bde80a
:10f270007040fff745b970bd342e0020100001200a
:10f2800038b55b483af020fa044628b9594b44f2a5
:10f2900001621a803bf0e0f894f87030012b05d938
:10f2a000544b44f202621a803bf0d6f894f8703066
:10f2b000002b40f08c8054e90223134307d14d4bbf
:10f2c00044f203621a80bde838403bf0b3b894f8ca
:10f2d0009d30052b6dd801229a4012f0220fa4f127
:10f2e000080550d112f0110f23d112f00c0f60d08d
:10f2f00015b1023b012b05d93e4b44f210621a8036
:10f300003bf0aaf8d4e91e23134305d1394b44f24c
:10f3100011621a803bf0a0f804f181001cf094f90e
:10f3200028b9344b44f212621a803bf095f8324b04
:10f3300048e015b113f0fb0f05d02e4b44f23062bc
:10f340001a803bf089f8d4e91e23134312d1294bcc
:10f3500044f231621a803bf06df8042384f89c304b
:10f36000012384f87030d4f8983033bb214b44f239
:10f370000562a7e704f180001cf066f908bb1d4b8d
:10f3800044f23262e6e71db103f0fb03012b05d026
:10f39000184b44f220621a803bf05ef894f89130ea
:10f3a00013b3d4e91e2313431ed1124b44f221623e
:10f3b000d0e7104b44f2046284e704f19c009847c4
:10f3c00009e00e4b022284f870202846984794f8f2
:10f3d0007030012bc7d00a4bd3f8843033b10720eb
:10f3e000bde83840fff78cb8064bebe738bd00bfef
:10f3f00094000120342e002095f0000125e6000144
:10f400001000012009f4000138b5044600f1080598
:10f4100028b9184b44f222621a803bf01df82846a6
:10f42000fff72cfe40f21223a4f8653094f89930cf
:10f43000ebb104f18002e2660f4a22670f4a62676d
:10f44000252284f868206bb1fcf778fb50b194f862
:10f450009a303bb194f868300b3384f8683001235c
:10f4600084f867302846bde83840fff7c3b8224625
:10f47000e1e700bf342e00203d340101b5e6000174
:10f480002de9f84f2f4c80460d4691462df02af974
:10f4900094f8d83043b32c4ed4f8e01096f800e03e
:10f4a000b368421aa1eb000a4ff0000c4ff0ff378f
:10f4b00040f2012be64524d15db9d6f8683143b15d
:10f4c0009a423cbfcd182d1aaf42c6f8685128bfea
:10f4d0002f464f453a461d481d4b28bf4a4601213d
:10f4e0003bf058fd194808e004f1d800184b4a4693
:10f4f00001213bf04ffd04f1d800bde8f84f3bf08f
:10f500005dbdb3f8d84024f0fe042405240d5c450d
:10f5100011d193f8d84004f0fa04022c0bd15c68a6
:10f520004cb1434507d094428cbf54440024a742b9
:10f530005c6028bf27460cf1010c5ffa8cfce833b5
:10f54000b8e700bf1000012038340020e800012097
:10f55000cdf5000170b5194d194c6a7f013a6a77f3
:10f5600094f87221032a05d1002384f87231c4f87b
:10f57000683170bd022a05d0124b44f252421a8003
:10f580003af06aff94f87c010028edd00e4bd5f8d4
:10f59000f05093f827205b786426013a06fb02526c
:10f5a000013801215a4384f87c0184f87211c4f8af
:10f5b00068210020bde8704062e700bf1000012014
:10f5c00038340020342e0020002c002070b5314e3d
:10f5d0004ff0ff3400253378ab421ad8d6f86831a3
:10f5e00053b12d4ad2f8e4209b1ac6f86831002b9b
:10f5f00047d10220fff7aef8631c46d022462748c9
:10f60000274b01213bf0c6fc2448bde870403bf08d
:10f61000d5bcb368e82205fb023302f21912b3f835
:10f62000d81021f0fe010905090d914222d193f86d
:10f63000d81001f0fa02022a1cd117485a68d0f8f3
:10f64000e400121a5a60c2b993f8d920042001f0dc
:10f65000fe0160f30302062983f8d92007d1114b7c
:10f6600093f82720ff239340db4386f89f31012046
:10f67000fef746ff0135edb2ade7944228bf1446d0
:10f68000f8e79c4228bf1c46b6e70448bde8704036
:10f690003bf09cbc3834002010000120e800012021
:10f6a000cdf50001002c002038b5856a2b789b072a
:10f6b000044605d0287810f023000fd0002038bd74
:10f6c00090f83430002bf5d1fcf732fa0028f1d055
:10f6d00005f092fe0028edd00120f0e794f83430d8
:10f6e000002becd1bde83840fdf7eebaf7b5183184
:10f6f0000191019a022382f8b0304ff6fd73a2f80f
:10f70000ac3090f82e30093382f8b130036b90f8aa
:10f710003540c58e82f8b840a3f10901c2f89010b7
:10f72000a2f8ae5090f8381082f8b910c28b23f8c6
:10f73000082c428d23f8062c028d23f8042c90f817
:10f740002c2003f8022c002c3cd003f8011c13f8e9
:10f75000092c02f0fc0242f00c0202f08f026ff35f
:10f76000c71203f8092c019b1a4ac3f89820019b81
:10f7700090f8392083f8b220174a019b127883f859
:10f78000b32090f83430019adb43c3f3c01382f8fe
:10f79000b430019a012382f8b530019a82f8b6306c
:10f7a000019a82f8b730019b83f8b840019ba3f817
:10f7b000ae50019b019883f8b910fef7c3ff0020fb
:10f7c00003b0f0bd054e327c03f8012c571c377492
:10f7d000bde700bfdded0001002c0020100001207e
:10f7e0002de9f347ac4bc1f8b030022381f8c830a3
:10f7f000c38ba1f8c43090f8392081f8ca200022c8
:10f8000081f8cb200c4690f83410ca43c2f3c012e2
:10f8100084f8cc2040f20112a4f8cd204a06054617
:10f8200000f1d5804ff6f77293428cbf002301237d
:10f8300084f8cf3095f8353084f8d030eb8ea4f8ca
:10f84000c63095f8383084f8d1302846fef7e8fb0a
:10f850000746002800f0c5800df107015c2031f05b
:10f8600025ff9df807708d4e002f00f0b2808c4967
:10f8700096f89d0191f8282042fa00f313f0010355
:10f8800000f0a9800123834022ea0302ff2384f8c9
:10f89000ca30002381f8282084f8c13004f1b4096b
:10f8a00096f8a03196f89d1196f89c81013b9942fb
:10f8b00008bf95f82e30284604bf01fb183808f021
:10f8c000ff08fef79dfb002800f08880754b44f28e
:10f8d00051421a803af0c0fd4ff04c0a2b6bd6f81b
:10f8e000980196f89cc196f89d1150440cfb01318b
:10f8f00042463cf085f908f10a0384f8c930d6f88d
:10f900009831aaf10a0a5344c4f8a830d4f8a86080
:10f91000e98b33784ff6f77223f01303914233707b
:10f920006bd86ff383033370337895f834206ff31b
:10f93000451312f004023370dbb26dd162f386130b
:10f9400033702846fef76cfb3378002800f0858082
:10f9500043f080035149337091f89d21337a002a96
:10f9600075d1012262f30103337291f8a0317372f1
:10f9700095f8263073706b8d73802b8db38095f85e
:10f980002c30b3712846fef74bfb002869d0434b5f
:10f9900093f8a131f37195f8353013b195f83830fb
:10f9a000f3712068fef72cfb002862d02068fef778
:10f9b00037fb94f8c910002858d0a1eb0801c9b250
:10f9c0002046fef709fe002002b0bde8f0870123c3
:10f9d0002ee7b94664e71f46994661e74ff03e0ab5
:10f9e0007ce795f82e30083384f8c9302b6b083b40
:10f9f000c4f8a8308146804688e72b49022262f38a
:10fa000083033370b1f8f6300133a1f8f6304420a7
:10fa1000f43135f059fb87e743f04003337094f835
:10fa2000d930012262f3030384f8d9302846fef767
:10fa3000f7fa94f8d93038b1184a92f8a22162f353
:10fa4000071384f8d9307ce7154a5278f7e702218a
:10fa500061f30103337272728ae760f3c713337084
:10fa600086e7114a137c591c117493e795f82e8090
:10fa7000a3e70df107015c2031f018fe9df8073077
:10fa800023b11fb14846fef797fd9ce704f118002b
:10fa9000fef758fe97e700bfb9e5000138340020b3
:10faa000002c0020342e002010000120024bd3f83f
:10fab0009411086894e600bf3834002010b5284837
:10fac00039f002fe044610b190f860302bb9254b96
:10fad00044f261521a803af0bffc606e04f048feb6
:10fae000f8b10388a380012384f85f301e4b2361a3
:10faf00094f85d101d4b94f860200b4404f108004d
:10fb00009b7c13f0600318bf112313442373fbf78e
:10fb1000d5fc174b9b6f13b30320bde81040fef7d5
:10fb2000efbca36d73b9626e032384f84a30136887
:10fb3000e364536823650f4ba36504f1440004f0ac
:10fb400009fee6e7e36e2bb9064b44f26d521a80cc
:10fb50003af082fce36eec2120469847d9e710bdcd
:10fb600088000120342e002021210101002c0020da
:10fb700010000120ede6000110b5044a8170012358
:10fb80000370137c43705c1c147410bd10000120c2
:10fb9000436970b5d3f8904005462cb9114b44f237
:10fba00034621a803af058fc0521204695f89d6091
:10fbb000fff7e2ff2a46e67052f8803f6360536821
:10fbc000a3609368e360d3682361284650f8083d3a
:10fbd00063614368a36125f003f80368e361436848
:10fbe000236270bd342e002038b54369d3f89040ad
:10fbf00005462cb9084b44f281521a803af02cfc8d
:10fc000007212046fff7b8ffab6fc4f80330eb6f56
:10fc1000c4f8073038bd00bf342e002038b5436922
:10fc2000d3f8904005462cb9064b44f291521a8005
:10fc30003af012fc09212046fff79eff95f8783034
:10fc4000e37038bd342e002038b54369d3f89040b6
:10fc500005462cb90b4b44f271521a803af0fcfb6a
:10fc600006212046fff788ffab6fc4f80330eb6f27
:10fc7000c4f80730b5f88430a4f80b3095f8863016
:10fc8000637338bd342e002038b54369d3f89050e3
:10fc900004462db9134b44f2f1521a803af0dcfbc2
:10fca00008212846fff768ff94f88430eb70022b98
:10fcb00005d1224652f88c3f6b605368ab60052338
:10fcc000094823670023a4f87430d0f8a83013b98a
:10fcd000ac3033f009f9211f0448bde8384039f051
:10fce000cfbc00bf342e002010000120b80001203e
:10fcf00038b54369d3f8905004462db91a4b44f2f5
:10fd000051621a803af0a8fb0f212846fff734ff12
:10fd100094f8a430eb7024f063ff03686b604368d1
:10fd2000ab602246114852f8a53feb6053682b6147
:10fd300093686b61d368ab61d4f898304ff47a72f2
:10fd4000b3fbf2f323674ff00003a4f89530d0f82b
:10fd5000903013b9943033f0c7f8211f0448bde840
:10fd6000384039f08dbc00bf342e00201000012037
:10fd7000a000012038b54369d3f8905004462db94e
:10fd8000134b44f261621a803af066fb2846102158
:10fd9000fff7f2fe94f87d30eb7094f87c302b7115
:10fda00022460c4852f8743fc5f805305368c5f830
:10fdb00009304ff4a0532367d0f8c03013b9c430d2
:10fdc00033f092f8211f0448bde8384039f058bca0
:10fdd000342e002010000120d000012038b5044648
:10fde00028b91a4b44f224621a803af035fb65694f
:10fdf00095f8b1300b33dbb2412b85f8b13007d029
:10fe0000124b44f225621a80bde838403af012bb2a
:10fe1000d5f89010362201f10b003bf097fad5f897
:10fe200090500e212846fff7a7feea7a616e2b4616
:10fe30006ff3451203f8032b0a68c5f803204a68dc
:10fe40005a602046bde83840fef7f4bc342e00204e
:10fe5000436970b5d3f8904005462cb9104b44f275
:10fe600014621a803af0f8fa0521204695f89d6050
:10fe7000fff782fe2a46e67052f8813f63605368be
:10fe8000a3609368e360d36823612a4652f8783f01
:10fe900063615368a36195f88030237770bd00bf1c
:10fea000342e002070b504460d4619b1b1f1e905b4
:10feb00018bf01250f4e211f06f1c00039f00afcc2
:10fec000d6f8c0301bb906f1c40033f037f8d4f8c7
:10fed000803084f87e502bb9074b44f264621a805c
:10fee0003af0bafad4f8803004f17e00bde87040f0
:10fef000184700bf10000120342e00202de9f84fd4
:10ff00009946204b1c7d9e6904eb84040d46904667
:10ff100006ebc4040746d8b1864205d91a4b44f211
:10ff200023421a803af098fa2837be1b2822b6fbe3
:10ff3000f2f302fb13662eb1134b44f224421a80f3
:10ff40003af08afaa74205d300273846bde8f88f71
:10ff50003746f7e797f82010a42901d0aa290fd136
:10ff60003b7a43450cd17b89ab4209d1d7e900ab41
:10ff7000d9e900239b4508bf924501d1a429e4d0cb
:10ff80002837dfe710000120342e002070b5054629
:10ff90000e4624f025fe044638b90a4b44f21242bc
:10ffa0001a803af047fa204670bd002023463246b8
:10ffb0002946fff7a3ff0028f6d0037b012bf5d1dc
:10ffc0001846f1e7342e00202de9f0470f4604468d
:10ffd00024f006febd68814604b130bb264b44f2d6
:10ffe00014421a803af026faa8263046bde8f08777
:10fff0002b7bbd60032b10d105f1100004f0b8fb82
:020000040101f8
:10000000a92698b12b7e84f826300388e3833946ed
:100010002046bde8f047fff7e3bb2b8ae383394670
:100020002046bde8f047fff761bba82628464b46af
:1000300094f82c20618dfff761ff05460028d4d08d
:10004000a369002bd4d195f80ca0baf1030fcfd13e
:1000500005f11008404604f08bfb06460028c7d186
:1000600084f80aa02b69e3606b692361034ba361e9
:10007000201d04f06ffbb8e7342e00208100010141
:10008000f8b5174e3278b568a0f114070024a242e3
:1000900007d1144b44f215421a80bde8f8403af0fb
:1000a000dbb995f8d830db0716d52b68bb4213d1e6
:1000b00029463846fff788ff014648b100223846f6
:1000c000fef742fa2846fdf733ff0120fef718fa43
:1000d0003378a342ddd9f8bd0134e4b2e835d6e780
:1000e00038340020342e002038b50c46054600b1c7
:1000f00029b90a4b44f213421a803af0adf90023b1
:10010000ab612846a3602146fff75eff054610b1ac
:100110002046fdf70dff284638bd00bf342e0020d5
:10012000f8b5046806460f4615462cb92d4b44f227
:100130004f421a803af090f9adb9ce2f38d007f07f
:10014000df03d02b34d0d12f03d194f93430002bde
:100150002edb2046fdf754ffa8b90225d6f8bc30a7
:10016000636484f84070022d24d0032d2cd0012d1f
:1001700036d106f10c011c4839f082fa0220bde8a4
:10018000f840fef7bdb994f834309a06e5d4fbf791
:10019000d5fc18b194f834309b07ded42046fdf727
:1001a0003fff0028d9d1237f012bd6d00125d5e7e9
:1001b0000325d3e733681b7f33b9a361314620465b
:1001c000fff702ffa8280bd104f1440294f8401075
:1001d0003068fef7b9f93046fdf7aafe0120cee7f8
:1001e000f8bd00bf342e00208000012038b504780f
:1001f0005cb9064d022085f86440fef781f921467e
:10020000286e0222bde838408ae738bd1000012080
:1002100073b50446fdf751fef8b10df107015c20fe
:1002200031f044fa9df8071021b92046fef710f985
:10023000002838d114b194f820302bb11f4b44f270
:1002400020421a803af008f91d4b197d9a69002363
:100250008b4204d1ae2384f8203002b070bd154625
:10026000283212f8080ca8280ed1a42685f82060a0
:100270006cb9124b44f227421a803af0dbf80021a5
:10028000102034f021ffe8e70133dbb2e0e794f817
:100290002030002bedd12822214628463bf0b0fc2f
:1002a00085f82060ebe7a6212046fef7d1f800286c
:1002b000d3d0a42380f82030e1e700bf342e002003
:1002c0001000012010b5044650b1104a93698342d2
:1002d00006d8127d02eb820203ebc203984205d3db
:1002e0000b4b44f221421a803af0b6f894f82030d1
:1002f000a42b07d0aa2b05d0054b44f222421a802a
:100300003af0aaf8a82384f8203010bd100001208c
:10031000342e002010b50446fdf7cffd60b1a421b6
:100320002046fef795f838b1fff7ccff00211020ea
:10033000bde8104034f0c8be10bdf0b50c4a93695a
:10034000127d02eb820203ebc202aa21934200d388
:10035000f0bd93f82040a42c08d1d0e90067d3e980
:100360000445af4204bfa64283f820102833ede7ce
:1003700010000120f0b50d4a9369127d02eb820254
:1003800003ebc202a421934200d3f0bd93f82040b6
:10039000aa2c08d1d0e90067d3e90445af4204bfd5
:1003a000a64283f820102833ede700bf100001209b
:1003b0000b4a50b12830137d926903eb830302eba3
:1003c000c303834203d8002070479069f3e790f895
:1003d0002020a42af8d0aa2af6d02830f1e700bfbe
:1003e00010000120d2e510b501460446044839f05a
:1003f00047f90023a3610120bde81040fef780b853
:100400009c00012010b501460446054839f038f932
:100410000023a3610120bde81040fef771b800bfc2
:1004200098000120f8b5846a25780f4669060646cb
:1004300001d40020f8bd4f4b05f00305012d1978bc
:100440009a6818bf07250023994245d10220fdf77d
:100450007bfe0028edd0d0f8a830328c03f8497c20
:1004600043f8466c0021a0f8c420434aa0f8ca1003
:10047000c0f8b020414ac0f8cc2094f800e01a78c7
:1004800080f8d0104ff0020ccef3810e6cf3010215
:100490006ef3830294f800e080f8c8c04feade1ed5
:1004a00002f09f026ef3c7121a70227802f0030e58
:1004b000bef1010f25d1b26a525d5a701a7842f02e
:1004c00010021a7080f8c9c0af2f4fd090f8c91031
:1004d000fef782f80120ade792f8d80005280cd18c
:1004e000b6f820c0b2f8c400844506d1d2f8a800fe
:1004f00014f805c0405d84459bd00133dbb2e8327f
:10050000a2e74ff0080c80f8c9c093f800c0b66aa3
:1005100061f3041c83f800c094f806c083f801c09e
:10052000b4f802c0a3f802c0b4f804c0a3f804c031
:1005300094f801c083f806c0755ddd711206c3d55d
:10054000227a12f0030204d11a72092380f8c9300a
:10055000bae70b2280f8c920247a1a7ac4f301047e
:1005600064f3010261f387021a72ade71830fef7f7
:10057000e9f8afe738340020b9e5000101010001d6
:1005800030b5374b89b005a940f2071093f83240d7
:1005900031f08cf806a9342031f088f8069b9c4293
:1005a00005d35b0006a93420069331f0abf82d4b40
:1005b0009df81420f534dc605443069a04eb44049f
:1005c0001444c3f8f0400df11501012340f2071067
:1005d0008df8163031f06af80df11601282031f04f
:1005e00065f89df815004000ff2828bfff20c0b225
:1005f000fdf73dfd9df816407cb30023013c00f261
:10060000ff1214f0ff0413444fea4000f6d1c3f385
:100610000805003518bf01250df1170140f2111032
:1006200005eb53258df8164007948df8174031f0ef
:100630003df807a94ff4027031f01ef8ff2d28bfd6
:10064000ff250123edb20193029400955b029df812
:1006500017200799044835f0cffd09b030bd00bf21
:10066000a82c0020100001200801012038b51f4ce3
:1006700020b13bf039fb0023207463770025c4e9e7
:10068000225525621a4c6423c4f88831194bc4f8ea
:100690009031012384f88c312946c4f87551a4f8af
:1006a0007951c4e95a55a4f8705184f87251e8227e
:1006b00004f120003bf062fb2946602204f58470bf
:1006c0003bf05cfb94f8743194f87321a06903fb50
:1006d00002222946d2b23bf051fb04f5a973c4f8bb
:1006e000c830bde83840fff74bbf00bf1000012005
:1006f00038340020adfa000138b5364dec6f2cb916
:10070000354b44f264421a8039f0a6fe23798a2bd5
:1007100016d0c52b3dd0192b53d1b5f88030b3f589
:10072000887f0cbf4ff400734ff4e063a5f880306e
:100730002a4be36004f10800bde83840faf720bf17
:10074000b5f8803040f23232934202d0b3f5c26f36
:100750001dd140f23f43a5f88030fff711ff002381
:1007600023731f4838f0b0ffa3682bb91a4b44f22b
:100770006a421a8039f070fea36804f10c009847b1
:10078000eb6f33b30020bde83840fdf7b9bea323bb
:10079000e6e7b5f8802040f23f439a420bd1c133df
:1007a000a5f88030022323810e483af00ffc002385
:1007b0006b770120e7e72046a321bde83840fef72c
:1007c0003dbd054b44f265421a80bde8384039f022
:1007d00043be38bd10000120342e0020292801011d
:1007e0008c000120e800012030b5826887b0034604
:1007f0004020b2f80120adf80c004ff6ff7501a8bb
:100800000490a9424ff0010094b2059003d1120464
:1008100003d407b030bd8c42fbd0adf808101e20c9
:1008200003a9019334f050fc0598b0fa80f0400918
:10083000efe70146014838f04dbf00bf9c000120a2
:1008400018b9034bd3f80c0170470068704700bf1c
:100850001000012008b502460020fff7f1ff18b193
:1008600083681b789342f8d108bd38b50446c0b1ff
:10087000a62303748368a3b11878f22803d0431e1b
:10088000dbb2ef2b0dd8fff7e5ff054648b9e3686b
:100890000448b3fa83f35b092371214638f0f0fe74
:1008a000257438bd1c01012010b5044648b10078fc
:1008b000fff7d0ff014628b1034838f00bff0023b3
:1008c000637010bda623fbe71c01012008b502469a
:1008d0000020fff7b5ff40b1ff2a01d10171f8e711
:1008e00083681b789342f4d1017108bd2de9f04172
:1008f000054628b91a4b44f230421a8039f0acfd53
:10090000174f002444f231482046fff799ff044670
:1009100008b9bde8f0812379002bf5d1a3681bb994
:10092000a7f8008039f098fda98b2046fff75cffff
:100930000028e9d0a368e8881e783146f7f734fb31
:100940000028e1d0ae73e3683bb9054b44f2324274
:10095000bde8f0411a8039f06dbd28469847d3e7cd
:10096000342e00202de9f043866a8fb004460f46ee
:100970000025018cf2796a488df8035035f07efc31
:1009800000286ed07078431edbb2fd2b04d8fff731
:1009900061ff0546002864d0237f012b67d18df8c5
:1009a0000830e38badf80a3073788df812300223eb
:1009b0008df81330238cadf81430638cadf81c30f7
:1009c000b3798df81e307279337943ea0223adf89a
:1009d0002030f278b37843ea022394f82420adf86b
:1009e000223093b2a3f10a01adf8241000218df852
:1009f0002c1096f9001000294cdb083badf8243090
:100a0000bdf824308df82d70d21aa36a1a4494f8d8
:100a100034308df82e3094f82c308df82f30236b35
:100a20000c93002994f82d300a928df8343013daa3
:100a3000337a03f00303022b0ed13a4ffb691a7885
:100a4000adf8242093f800904ff0010897f8753125
:100a5000434524dcbb690a93002d38d0eb6801a81c
:100a600098472046fdf7b6fc0fb0bde8f08302239f
:100a70008df80830e38badf80a304ff6f7729342e9
:100a800092d801230df103014d208df8033034f08d
:100a90001bfb89e7307a8007b2d1093baee7d7e983
:100aa000060397f8741113f8082008fb0101484465
:100ab0003bf0a6f8fb69bdf82410434408f1010897
:100ac0001a780a44adf824201b789944bee7237fa6
:100ad000012b03d101a8fff709ffc2e77378ff2bb1
:100ae0001ad12846fff7acfe05460028b9d0ab68fe
:100af0001b78002bf5d02b79002bf2d1bdf82010fc
:100b0000fff772fe0028ecd0ab681b788df812302e
:100b1000eb6801a89847e4e701a805f0a4fea0e768
:100b200008010120383400202de9f74f846a074678
:100b30006078431edbb2fd2b884618d8fff78afe8b
:100b4000054618b1a188fff74ffe88b9002594f932
:100b50000030002b80f2a081237a980700f09c815e
:100b6000c74c94f87331002b3ad101201ce00025ca
:100b700023781a0602d5227a9607e7d113f0400fa0
:100b800003f00c0313d0082b28d0398c4ff6f772e2
:100b9000914223d80db12a7902bb41463846fff76e
:100ba00041fc80f00100c0b203b0bde8f08f012528
:100bb000082bccd1fa8b4ff6f7739a42c7d93e8ceb
:100bc000f7f734f88642c2d0ae49b1f8f4300133b9
:100bd00021f8f43f442034f077fab8e70025e7e73e
:100be00097f82490be6a94f872a1757aa9f10a095f
:100bf0005ffa89f9baf1030f00f24a81dfe81af0cf
:100c000004004f00390139015c200df1070130f07b
:100c10004dfd9df8070048b19b4a92f82930d9074d
:100c200004d523f0010382f82930bde796f808b017
:100c3000bbf1010f99d194f87321954295d894f89e
:100c40007431994591d802fb03220021a0693bf041
:100c500095f884f8755184f872b13b8c84f87b81e7
:100c6000a4f86c31737884f87831f278b37843ea79
:100c70000223a4f86e313379727943ea0223a4f88f
:100c80007031b37984f87931f37984f87a317e4b15
:100c90005b7884f87c31002384f8763155465c20fb
:100ca0000df1070130f002fd9df8070070b17649a3
:100cb00091f8293023fa05f2d20707d5012202fa6a
:100cc00005f523ea050381f829306de7337a03f04f
:100cd0000302022a02d0002d7ff447af13f0fc0f6d
:100ce0007ff443af94f87531ab42fff43eafb4f8f4
:100cf0006c213b8c9a427ff438af94f8782173785a
:100d00009a427ff432afb4f86e2173889a427ff42e
:100d10002cafb4f87021b3889a427ff426af94f8d0
:100d20007921b3799a427ff420af94f87a21f3794c
:100d30009a427ff41aaf544e94f8761196f8272011
:100d40008b189d42bff611afb5fbf2f38d4202fb4b
:100d50001353dbb208d2e91a84f876114ff0ff3151
:100d600001fa02f284f87721a26994f8741101fb68
:100d70000521ba6a02f10a00002291453ad1e269de
:100d800002f8059094f876118d420ed194f87521f1
:100d900096f82700521bd2b2824228bf02464ff07b
:100da000ff3000fa02f284f8772101229a4094f889
:100db00077311343dbb2ff2b84f877310ad194f8f3
:100dc000755196f827006a1a4d1e8242d4bfad189d
:100dd0002d18edb294f87521013a954214d1ff2bec
:100de0000ed10320fdf7b6fc38464146fff7bafda9
:100df0000020d9e610f802c001f802c00132bce7b9
:100e00000220fdf7a7fcb0e696f82720013a11442e
:100e10008d4201d0ff2b1dd10220fdf79bfc94f8e1
:100e20007731ff2b7ff4a1ae96f8273094f8762126
:100e30001a4484f8762194f87521013a551bedb2d5
:100e4000ab4228bf2b46012000fa03f35b4284f833
:100e50007731a9e60b4bd3f8f030642101fb023265
:100e600073785a43c4f8682101210020fef708fb7b
:100e70007be6064b44f240421a8039f0edfa74e604
:100e80003834002010000120002c0020342e0020d7
:100e9000034b44f25342efe7002d3ff466aea3e765
:100ea000342e0020012111e500210fe510b5044684
:100eb00028b90e4b44f270421a8039f0cdfaa1786d
:100ec0004b1edbb2fd2b07d9084b44f27042bde844
:100ed00010401a8039f0aeba2088f6f7efff10b153
:100ee0000023e37010bdae23fbe700bf342e0020cb
:100ef00010b5044628b90e4b44f271421a8039f0fd
:100f0000abfaa1784b1edbb2fd2b07d9084b44f29c
:100f10007142bde810401a8039f08cba2088f6f78b
:100f2000f1ff10b10023e37010bda623fbe700bf63
:100f3000342e002010b5044628b90d4b44f27242fd
:100f40001a8039f089fa2078431edbb2fd2b07d9cd
:100f5000074b44f27242bde810401a8039f06aba79
:100f6000f6f7faff10b10023637010bda623fbe76c
:100f7000342e002073b5044638b93e4b44f240523b
:100f80001a8039f057fa02b070bd90f849205d2af6
:100f900003d9384b44f24152f2e790f8483000262a
:100fa0000321012b80f82a6001774ad10220607763
:100fb0004ff6ff7020840e4694f84b10a56bc907be
:100fc00042bf94f82a1041f0080184f82a10012b3e
:100fd0000cbf09230723ed1ab4f8421021831a44e9
:100fe00084f828202b78656143f003032b700df102
:100ff00007011b2030f05afb2b789df8072062f385
:1010000084032b702b8803f01f032b8094f8483047
:10101000b600012b46f00306ae7013bf6569238e40
:10102000a5f80330023db4f84630a5f80530b4f811
:101030004430a5f80730104b2361204628f009fd05
:10104000a1e7d0e90c01032bc4e9080104d16377bf
:10105000012184f82a10afe7022b03d0054b44f29c
:1010600042528de7208e63774ff6ff718842efd1b1
:101070001e46a1e7342e002099e2000130b58fb062
:1010800038b93c4b44f245521a8039f0d3f90fb0cd
:1010900030bd0378032bfad14388adf80830d0e98e
:1010a0000223cde90423037c8df81830438aadf880
:1010b0001a30d0e9062390f82050cde9082390f8a3
:1010c00028308df83430062d90f82a308df83530e0
:1010d000ddd9446a237803f00302032ad7d113f041
:1010e000e00fd4d16378002bd1d10df107011b2083
:1010f00030f0dcfa23789df80720c3f38203934293
:10110000c5d1a37803f00302032ac0d113f0f00f76
:10111000bdd103f00c030c2b10d10123082d8df849
:101120001830b4d9b4f80300adf82000ff21f6f769
:101130003bff0028abd02346092201e0a31e072273
:101140005979987941ea0021adf82a10d9791b7aaa
:1011500041ea0323adf82830074bd3f81031ad1a1c
:1011600014448df82c500c94002b90d002a8984772
:101170008de700bf342e00201000012018b1064b6f
:10118000d3f810212ab1054b44f246521a8039f0a7
:1011900051b9c3f81001704710000120342e00200f
:1011a00030b5234a526885b082b94ff6fa73adf86c
:1011b00008308df80a20bdf80830002063f30f00d6
:1011c000bdf80a3063f31f4005b030bd30b94ff6ab
:1011d000fb72adf808208df80a00ece7d0e9002397
:1011e0004ff0ff356ff006049d4208bf94420bd3c9
:1011f00001231a460021fcf7d3fd019000b2043010
:1012000002d0019b0293d6e70d2300211a4608461f
:10121000fcf7c6fd019000b20430f2d10523002195
:101220001a46084605b0bde83040fcf7b9bd00bf1e
:101230001000012070b586b00d46694681e80c00ab
:101240009df80030164caf2b06461bd1a8b10068a4
:10125000716804ab03c304a8fff7a2ff03040cd416
:10126000fcf756ff2c4420b1a07cc0f3400006b030
:1012700070bda07cc0f38000f9e72c44a07c00f096
:101280000100f4e7ddf80200fcf742ff2c4418b13e
:10129000a07cc0f3c000eae7a07cc0f30010e6e742
:1012a000002c00202de9f04188b06b4683e8060051
:1012b000876abb78053b0b2b054603d9012008b094
:1012c000bde8f0813b789df800405b0627d47a7832
:1012d000298c294834f0d2ff0028efd09df8043043
:1012e0008df80c3095f82430bdf902208df80840b7
:1012f000022badf80a200cd9ab6a9e78731e0f2b17
:1013000007d804f079f880b1052e31d095f8343043
:101310006bb9387880f04000c0f38010cfe72146e9
:10132000fff780f80028d2d1c8e7052e22d0288cfc
:1013300003f06afa04460028ebd00df1080898e89b
:101340000c0031462046fff775ff0028e1d00b4b1b
:1013500053f82630002bdcd098e80300cde9044593
:101360000690adf81c1004a898470028a7d0d0e735
:101370000024e2e70446e0e708010120f4a40401a8
:101380002de9f04391b06e4686e8060090f81c9077
:101390009df80070b9f1010f04466cd0b9f1020f4d
:1013a00001d001206ae0856a2b78c3f301085ffa57
:1013b00088f2012a00f01e814ffa88f1002956d0e8
:1013c000022aeed103f00303022b05d08c4b44f22a
:1013d00045421a8039f040f88a4b9e681a78e82115
:1013e00002fb016140f201208e42dad2b6f8d82029
:1013f00022f0fe021205120d824240f0f98032689e
:10140000278cd28b974240f0f380d6f8a82095f82d
:1014100007c0d779bc4540f0eb80b5f804c0978889
:10142000bc4540f0e580b5f802c05788bc4540f0a7
:10143000df8095f801c09779bc4540f0d980af793d
:101440005278974240f0d48096f8d82002f0fe02fd
:10145000022a5dd196f8d930032262f303030022f9
:1014600086f8d93011463046fef75afe99e703f068
:101470000c030c2b05d03946fff756fb11b0bde825
:10148000f083018c2a7a604834f0f8fe002888d076
:1014900094f82430082b84d901228df81020a978e3
:1014a0006a788df81b9042ea0122adf81220228c56
:1014b000adf81c20628cadf82420ea798df8262046
:1014c000a9796a7942ea0122adf82820093bea7835
:1014d0002979adf82c30a36a8df8348009330c9348
:1014e00094f834308df8363094f82c308df837304d
:1014f000236b0e9342ea012294f82d30adf82a2096
:1015000003a88df835708df83c30fff7eff948e708
:10151000062a6dd193f89e01697a81424ff0010449
:101520002dd1dff8e8c095f80ae09cf8272004faee
:1015300002f77f4247ea0e07ffb2af7296f8d95022
:101540004ff0030e6ef30305ff2f86f8d9502fd10d
:1015500093f8a051481ea5eb010e9645d4bf7044e8
:101560008018c0b2013da84283f89d0109d13046e0
:10157000fcf78cfd002211463046fef7d1fd2046d7
:101580007ce7114407fa02f2c9b2d24383f89e11f4
:101590009cf8010083f89d1122f00102d3f8941108
:1015a00083f8a20183f89f210868fef719f9e6e79e
:1015b000f943c9b20025ecb2a24202d883f89f11c8
:1015c00010e02e4641fa06fc1cf0010f05f1010562
:1015d000f1d00122b2403a43d243204483f89f2104
:1015e00083f89d01d3f894110868fef7f9f8d8e65e
:1015f000e836f9e696e80600fff754fe3ee700bf3e
:10160000342e00203834002008010120002c002056
:101610002de9f04fa14eb6f88080b8f5887f87b0ed
:1016200018d09f4f06f1200944f24e4a484638f040
:101630004bf8054670b1bb683978ec1ae822b4fb68
:10164000f2f4e4b2a14225d8964b44f249421a8002
:1016500038f0f0fe0023944d944fadf80c3028463e
:1016600038f032f80446002840f0fc80b6f88030ac
:10167000980700f183818e4dd6f88c40002c40f005
:10168000a581b6f88030b3f5a06f40f0b282002497
:10169000834fd6e202fb0434b8f5c26f94f8d83019
:1016a00002d0b8f5a06f22d103f0fe03042b14d1b1
:1016b0002046fcf7a5fe4368417883463bb9794b49
:1016c000019144f24a421a8038f0c6fe01996b7bc0
:1016d0001bb9dbf80400fff745f9206805f10802a3
:1016e000a321fcf731ff2846fcf722fc9ee75b08ac
:1016f000032b00f2b180dfe803f0020896490022d4
:10170000697b2046fef70cfd90e794f8d93003f092
:101710000f03012b8ad1287bd4f800b0fcf7a7fc7b
:10172000644b94f8d9205b78697ba3eb1213984043
:10173000a1b960603af0d8fa6368c0f308000344c6
:10174000636094f8d930022262f30303626884f87c
:10175000d93000212046fdf793fe67e7ce2909d056
:10176000f02907d0d02905d0d129e2d19bf9343016
:10177000002bdeda05f108025846fcf7e5fe2846a4
:10178000fcf7d6fb0120fcf7bbfe63e794f8d930e9
:1017900003f00f03012b7ff449af97f8a03197f8be
:1017a0009d21dff810b1013b9a4207d09bf827300a
:1017b00097f89f010022d1b28b421cd8287bfcf7fe
:1017c00056fc9bf8012094f8d940a2eb141400fabf
:1017d00004f43af089fad7f89431c0f3080093f88a
:1017e000d9100219022060f3030183f8d9105a605e
:1017f00000211846afe7944640fa0cfe1ef0010f98
:1018000002f10102d7d0012303fa0cf320ea03030b
:1018100087f89f3197f89e3127480b4487f89d3110
:1018200031f062fb02e72046fcf7eafd436890f8de
:1018300001b004462bb91b4b44f24d421a8038f0dc
:101840000bfe59466068fff78df82846fcf770fbe1
:101850000120fcf755fee9e6124ba3f800a038f092
:10186000fbfde3e6a369b6f880806bbba26a137840
:1018700003f0200103f00303012b1fd19378052b04
:101880001cd0208c02f0c0fff0b90223a372238c7d
:10189000a381a761201d02f05dffe0e6100001209a
:1018a00038340020342e00209800012005e7000184
:1018b0009c000120002c0020b835002021b12046da
:1018c000fdf7f2fe0028dcd040f23f439845d4f803
:1018d000288009d098f8003003f00303012b03d0cf
:1018e00094f83530002b45d098f8003013f0400cb8
:1018f0000ad0a74ad078117992f800e001448e45c9
:1019000038dd5278824235d9af228df810204ff65b
:10191000ff72adf8122000228df8142003f00c02a3
:10192000042a27d0bcf1000f05d003f00302022add
:1019300020d01a071ed42046fdf7b6fed0b998f87d
:1019400000309b060ed52146924837f099fe0220c2
:10195000fcf7d6fda38dadf80c3003a93b2033f086
:10196000b3fb7ce606ab13e906002046fff708fd53
:101970000028efd02046fcf72dfdebe7dff81082c2
:10198000dff82492d6f88c40002c3ff47aaea3699d
:10199000002b37d1254604ab55f81e0f696803c3e9
:1019a000237f032b1cd104a802f0e2fec0b92b68f0
:1019b000e3606b682361237fa372774ba361201dd3
:1019c00002f0c8fe754837f07ffedbe72146284667
:1019d00037f080fe0022a3212046fcf7b5fd4be640
:1019e000237f022b0ed12046fcf70afb50b1e08b7f
:1019f0004ff6f773984205d802f006ff10b9e38b53
:101a0000a381d8e7d8f8943143b12046fcf708fb0e
:101a100020b12046fcf704fb002847d100234ff4f7
:101a2000987004a98df810302ff040fe9df810300a
:101a30002046002b14bf52256425fcf7f1fa20b193
:101a4000d8f89831002b00f083802046fcf7e8faa4
:101a500018b194f8343059077ad5a38e23f0fb03dc
:101a60001b041b0cb3f5827f72d0e38dab4204d90b
:101a700094f8345015f0080544d094f82c1019b19e
:101a80000846fef7e7fe60b194f83430227f13f089
:101a9000040311d0022a0dd1e58b4ff6f770854271
:101aa0000ad900252f464ff0a60a2ee02468002c04
:101ab000afd1e6e5012af4d0901e012812d894f89f
:101ac0002630f22b09d194f83530abb9237f032ba4
:101ad000e7d8dfe803f042577a6b0f33dbb20d2b08
:101ae000f1d8dee7002aeed1002becd0608dfef7b6
:101af0004dfa0028e7d0d4e7e28e4ff6f7739a420a
:101b0000e4d9cee72f464ff0a00a2146234837f00c
:101b1000e1fdbaf1000f15d12fb9214b44f250422b
:101b20001a8038f099fc2c602046fcf779fa10b145
:101b30002846fcf7abfa29462046b84782460028db
:101b40003ff420af002251462046fcf7fdfc19e788
:101b500000252f464ff0aa0ad7e72046fcf760fa87
:101b600050b10320fcf7f0fa0e4f0546002d3ff46c
:101b700088ad4ff0000ac8e794f834305a0748bfe0
:101b80000120efe70020fcf7dffa4f460546ede7be
:101b9000383400207c0001201de700019c0001205a
:101ba000342e0020e9000101edf60001224604abcd
:101bb00052f81e0f516803c304a802f0d9fd054670
:101bc00068b10388e383022323772046fcf728fad1
:101bd00048b10320fcf7b8fa5c4f0546c6e7074654
:101be0004ff0a90a91e794f834305b0748bf012011
:101bf000f0e7b3f5c26f3ff44aad40f23f42934283
:101c000045d10027524d80e0e825bb6814fb05f55f
:101c10002b4493f8d820032a11d193f8d92002f04d
:101c20000f02042a01d0022a09d118680022a32138
:101c3000fcf78afcb8682844b430fcf779f9013421
:101c4000e4b23b78a342dfd8b6f88030b3f5a06f9a
:101c50001dd1737fdbb9f56f2b79c52b05d03d4bbb
:101c600044f26d421a8038f0f7fb2c8924f002040c
:101c70002404240c2c8154b92046fef7f7fc4ff4c1
:101c8000c26321462846a6f88030fdf7d7fa07b090
:101c9000bde8f08fab68e82407fb043440f2014252
:101ca000b4f8d83023f0fe031b051b0d93422ad154
:101cb00094f8d81001f0fa03022b24d194f8d9300b
:101cc00013f0f0023cd003f00f02012a12d00122df
:101cd00001f0fe0162f30303103b022984f8d930be
:101ce00017d104f11800fcf72dfd62680021204691
:101cf000fdf7c6fbb6f81431174901334320a6f8a7
:101d0000143133f0e1f90137ffb22b78bb42c1d86f
:101d10009ae70629eed195f89f31d5f8941123f072
:101d2000010385f89f3195f89e3185f89d3195f82e
:101d3000a231013b85f8a2310868fdf751fdd9e7d2
:101d4000a7212046fef7ecf9dde700bfe1f700012f
:101d500038340020342e0020240101202de9f043e6
:101d6000426892f8241004298fb0054604d8012651
:101d700030460fb0bde8f083946ae0780528f6d8c5
:101d80000123834013f0220f40f0908013f0110fd5
:101d90004ed113f00c0fead092f83430002be6d07d
:101da00092f8353023b92b7a4f33dbb2012bded8d2
:101db00005f1080797e80c0011212868fff73afaa7
:101dc00006460028d3d06a6892f824301d2bced165
:101dd0002968946a002900f0d180086849686b4638
:101de00003c3138cadf80830e3788df80a3022462f
:101df00008ab52f8040f516803c39068d16803c35d
:101e0000224606ab52f8140f516803c397e803004b
:101e1000237f0c90003318bf012368468df81030e3
:101e2000adf8341004f03cfa237f002ba0d032e050
:101e300024299cd104f11c0805f1080797e80c003f
:101e400013214046fff7f6f9064600288fd004f12b
:101e5000140922f0c5fe0822494639f0c3fef0b944
:101e6000e3788df80a30e069216a6b4603c397e88e
:101e700003006b681b8cadf808300c90adf8341083
:101e800054f8040f616804ab03c3a068e16803c39e
:101e9000684604f005fa6846fcf770fd68e73a4ac0
:101ea00049462846fcf7a2fe064661e725297ff44d
:101eb0005eaf04f11d0805f1080797e80c00122138
:101ec0004046fff7b7f9064600283ff450af04f14b
:101ed000150904f1140204f11c0112f8013f33bb8f
:101ee0008a42fad1e27883f00103052adbb220d1dd
:101ef0006a6892f835202ab92a7a4f32d2b2012a7a
:101f00003ff635af002b7ff432af22f069fe082296
:101f10000146484639f066fe68b1e378012b7ff44c
:101f200026af2b7aaf2b3ff422af184ab8e73346df
:101f3000d8e7002be9d0e3788df80a30d8f8000014
:101f4000d8f804106b4603c397e803006b681b8c3a
:101f5000adf808300c90adf83410237d8df81030ba
:101f600054f8043fcdf811306368cdf81530a368fc
:101f7000cdf81930e368cdf81d3089e70020002145
:101f8000cde900012de700bf41eb000101eb0001ad
:101f9000094a03b2506882b050b1002b0adb1188a5
:101fa0009ab2914206d903eb430300eb03101b30b6
:101fb00002b070470020fbe71000012013b50c466b
:101fc00081b94ff6fb73adf804308df80610bdf8fb
:101fd0000430002063f30f00bdf8063063f31f40a8
:101fe00002b010bdfcf7b8ff030400900dd4fff75a
:101ff000cfff2368036063684360a3688360e3687e
:10200000c3606946152033f05ff8009b0193dee75b
:10201000f7b50446406e0e46fff7c2f80304009081
:1020200013d5e36e65692bb9294b44f26d521a80c2
:1020300038f012fae36e0221204698472846f9f755
:102040004dfa0125284603b0f0bd94f85d5001908b
:10205000fcf75ef81f4b2b449d7c20b1c5f3401567
:1020600025b90025eee7c5f38015f9e76369d3f8d4
:1020700090702677002ef4d194f85e3084f83e30cc
:102080000098fff785ffa0620098fcf76df9a06348
:10209000f9f74efd94f85f3084f8423084f841003f
:1020a00022f09efde0623846fbf7defe94f86030d9
:1020b00084f83f0084f84030074b63633b78276324
:1020c00043f020033b7004f1200032f022fcb9e71a
:1020d000342e0020002c002065eb000170b5446810
:1020e000e36e6569064603b12db90c4b44f26a52a2
:1020f0001a8038f0b1f9237f43b92046e36e717b33
:1021000098472846bde87040f9f7e8b90021204615
:10211000fff77eff0028f0d070bd00bf342e0020f6
:10212000f7b5436d0646044656f814791bb1836d26
:102130000bb1036d2bb92e4b44f263521a8038f069
:102140008bf917b1d7f890302bb9294b44f2645270
:102150001a8038f081f9274d94f849302b449b7c44
:1021600013f0600305d094f84b30002b0cbf05230f
:102170000d23d7f890201344c7f890301e4b6360ae
:102180003046636d98470df1070129202ff08efa34
:102190009df8073013b394f849302b449b7c13f01f
:1021a000600f1bd0206dd0e90023134316d022f01e
:1021b00023fd98b9236dd3e900234ff0ff316ff071
:1021c0000600994208bf904208d394f849301d4454
:1021d0003046a97cc909fff71bff30b994f84c3091
:1021e00087f8b13063683046984703b0f0bd00bf50
:1021f000342e0020002c002035e800012de9f743a3
:10220000ddf828800446894616461f46f9f790fcfb
:1022100018b9002003b0bde8f083a57f012d31d0af
:10222000b9f1000f01d10220f4e74846fef7b8ffec
:10223000030405460190f6d4fff7aafea0602846e5
:10224000fcf792f8a061b8f1000f02d00198c8f82d
:102250000000a37f012b28d0a3690133e3d0a3683a
:10226000002be0d02269137843f02003137084f828
:10227000227022f0b5fc6661e060204632f049fb36
:102280000120c7e7f9f70efd0028ccd0a577f9f7b4
:102290007dfda06019f0d8f900b9a060f9f7b8fd8c
:1022a000a061f9f763fd6077d3e7f9f747fc0028f1
:1022b000afd1d1e782b002b0fcf7b6be82b00190d8
:1022c00002b0fbf7a7bd82b002b0fcf7adbe82b092
:1022d000019002b0fbf79ebd37b5fcf73dfe03044d
:1022e000054600901ed4fff753fe0446284601958c
:1022f000fbf790fd03682360436863608368a36015
:10230000c368e360bdf9003003eb4302064b5b6832
:1023100003eb021369469a7a22f020029a72152082
:1023200032f0d2fe03b030bd1000012037b5fcf70b
:1023300013fe03040546009012d40190fbf76afdda
:1023400004462846fff724fe036823604368636061
:102350008368a360c368e3606946152032f0b4fe69
:1023600003b030bd2de9f341184e73680746884627
:1023700023b90025284602b0bde8f0810028f8d036
:102380000024254601231a4621463846fbf708fd5e
:10239000019000b2031d0ed0736800eb400203eb06
:1023a0000213013000229a7284b201a9152032f082
:1023b0008bfe0125e6e7002ddbd0b8f1000fd9d068
:1023c0003946092032f080fe4546d3e7100001204f
:1023d0001fb51c4b01905b688bb94ff6fa72adf8d4
:1023e0000c208df80e30bdf80c30002063f30f0088
:1023f000bdf80e3063f31f4005b05df804fbbdf976
:1024000004109df806000029a6bf013189b2002101
:1024100010f0040017bf052301231a46002008bf4f
:102420001a46fbf7bdfc029000b2031d05d14ff622
:10243000fe73adf80c300023d3e7adf80800029b23
:102440000393d0e7100001202de9f8430746414ee1
:1024500000230446022086f86430fcf751f817f890
:1024600020393546002b5cd114f8062c92b196f831
:102470006a20510704d4286ebde8f843fbf7aabfd1
:10248000012286f8642004f8063c3846bde8f8438b
:1024900032f042ba336e54f80c2c9a6214f8072cbe
:1024a00083f8242054f8100cd0e9003213f1ff38df
:1024b00042f1ff394ff0ff336ff007024b4508bf81
:1024c000424511d322f098fb70b954f80c3c1b78ac
:1024d00003f00303012b07d054f8103c316ed3e90d
:1024e0000023088cf7f7befa54f80c2c137803f08d
:1024f000030101290ad1d5f86610b5f86a20286ec3
:10250000fef7d0fe0028b6d1bde8f8836ff345137f
:102510001370d5f86610b5f86a20286efef730ff04
:10252000f0e7042ba7d114f8063c002ba3d096f8b3
:102530006a305a079fd5b06efff74aff0304b066b2
:1025400099d4fff725fd012344f8180c86f8643070
:102550009be700bf1000012013b50c46fef720fedc
:102560004303019012d4bdf90420002a0edb0a486f
:1025700053001344426802eb03139a7a44b142f0c9
:1025800002029a7201a9152032f09efd02b010bd20
:1025900022f00202f5e700bf100001201fb50190f4
:1025a00000b200282adb164c636800eb400003eb06
:1025b0000010837a5a0721d50d2300211a460846b8
:1025c000fbf7eefb039000b2031d08d0636800eb3d
:1025d000400003eb0010837a23f008038372bdf9f7
:1025e000043003eb4302636803eb021301a99a7af8
:1025f00042f008029a72152032f066fd04b010bd58
:102600001000012013b5044680b94ff6fb73adf8f6
:1026100004308df80600bdf80430002063f30f008d
:10262000bdf8063063f31f4002b010bd1d2300212a
:102630001a460846fbf7b4fb009000b2002811dbf5
:102640000a4b5b6800eb400003eb0010d4e9002369
:10265000c0e90023837a23f00c03837269461520b6
:1026600032f032fd009b0193d5e700bf100001203e
:1026700007b5019000b200280fdb094b5b6800eb47
:10268000400003eb0010837a5a0706d543f010038d
:10269000837201a9152032f017fd03b05df804fb29
:1026a0001000012007b5fef77bfd019000b2002865
:1026b000a1bf074b5b6800eb400003eb0010b2bf0b
:1026c0000020807ac0f3400003b05df804fb00bf37
:1026d000100001202de9f341314c636805460e4698
:1026e0008bb94ff6fa72adf804208df80630bdf8bc
:1026f0000430002063f30f00bdf8063063f31f4081
:1027000002b0bde8f08130b94ff6fb73adf804308c
:102710008df80600ebe700276ff003083946012328
:102720001a462846fbf73cfb019000b2021d31d04f
:1027300016f0020f4fea400211d06368171803eb3e
:102740000717394651f80b3fc7f81b304b68c7f8dd
:102750001f308b68c7f82330cb68c7f82730730762
:102760000ad5a36803ebc0030021196059606368b0
:10277000171803eb0713198163689df8067002446c
:1027800003eb0212411c937a23f02003937289b267
:102790008046c4e7adf804808df80670a7e700bf57
:1027a0001000012010b5144c4ff4927021462ef009
:1027b0007dffb4f90030002b05da104b44f22752ac
:1027c0001a8037f049fe0e4940f21e202ef054ffc9
:1027d0000c4940f21f202ef04fff23886068302202
:1027e0005a43002139f0cafa2288a068d200002199
:1027f000bde8104039f0c2ba10000120342e00208c
:102800001400012018000120064b5a681988002383
:1028100008321846994200d17047013322f8300b34
:102820009bb2f7e7100001202de9f843074648b1b5
:10283000704ce26fa0f110039a4203d110f80c3ce7
:10284000192b07d06c4b44f266421a80bde8f8435e
:1028500037f0f0bdb4f88030b3f5e06f40f0bc80e5
:1028600004f18c06d4f88c50002d68d1dff8ac81cf
:1028700044f24349256a002d6ad198f80030ab42f2
:1028800000f29c8000250120257784f81651fdf781
:10289000edfefcf7bffa5948a56701264ff48068a2
:1028a000c4f88450c4f8a85030f048fb544b554845
:1028b000c4f8bc30c4f8b48084f8b860c4f8905050
:1028c00030f03cfb4ff47a73c4f89c304e484f4bc9
:1028d000c4f8a43084f8a060c4f8c05030f02efbd7
:1028e0004b4bc4f8d430c4f8cc8084f8d06084f862
:1028f0006450c4e91b55656739f0acf9fcf700fb7f
:10290000fff782ff40f23233a4f880303b783b720d
:10291000404836f0d9fe7b682bb9374b44f2694208
:102920001a8037f099fd7b6807f108009847e36f3c
:10293000002b5cd00020bde8f843fbf7e1bd30463a
:1029400036f0c2fe0022a3212846fbf7fdfd89e7f1
:102950002946314836f0befed8f80860e823ae1ba1
:10296000b6fbf3f698f80030f6b2b34205d8224b26
:1029700044f242421a8037f06ffdd8f80830e8225e
:1029800002fb063696f8d8303068c3f34603dab255
:10299000012a10d05bb243b1022a3ff46baf164b51
:1029a000a3f8009037f058fd64e7697b05f1080251
:1029b000fbf7cafd5ee70022a721f9e7d8f8083047
:1029c000e82005fb003090f8d830db0701d5fbf795
:1029d000affa0135edb250e7b3f5007f3ff452afe7
:1029e000054b44f267421a8037f036fd4ae7bde8ee
:1029f000f88300bf10000120342e0020bc0001200d
:102a00002df10001a4000120d40001207df100017e
:102a1000d1f100018c000120300001203834002069
:102a2000094a03b2506882b048b1002b09db118813
:102a30009ab2914205d903eb430300eb031002b0b5
:102a400070470020fbe700bf100001202de9f04790
:102a5000704d8ab01c464ff0ff33a5f868300093e4
:102a60000026af2385f86a6085f866306061894684
:102a700017460590fbf7f8f99df84c808df8180083
:102a800018b902200ab0bde8f08705a831f050ff60
:102a9000079a8ab9b8f1000f16d19df82530002b9e
:102aa00051d0089b1a685b68c5e90a235a4b236119
:102ab00046464ff0ff371de03346d15c0df803105a
:102ac0000133042bf9d1e5e72b6eb3f910701a69c5
:102ad0000192002f9e7c05da504b44f204521a807a
:102ae00037f0bafcadf804708df806600198fff776
:102af00097ff2061ddf800a0baf1ff3fc1d0236944
:102b00003bb94ff0ff336ff00302c5e90a23424b94
:102b100023619df82430012b1ad1f9f7c3f800285e
:102b2000afd0f9f733f9ac23a06085f866304ff0e9
:102b3000000aa368002b50d1384b44f205521a808a
:102b400037f078fc9de7384601f05efe2061afe784
:102b50002169002302a8ca5c1a540133082bfad158
:102b6000b8f1000f05d1fef71bfb019007b2c0f3cf
:102b70000746002f85db2a4badf80470d3e902012c
:102b8000dde90223994208bf90428df806600cbf30
:102b9000b123ab23019885f86630fff7f9f9730785
:102ba000a06007d5b8f1000fc1d186f0080acaf3ba
:102bb000c00abee7ab681bb12a88bbb29a4205d8ef
:102bc000164b44f221521a8037f046fcab6803ebf7
:102bd000c7035b689a45aad253e7adf804708df835
:102be0000660019bab66f8f7a3ff9df818302376cb
:102bf000129b207384f8199084f81aa0e361b8f14d
:102c0000000f02d021f0ecff2061204631f084fe5d
:102c1000012037e71000012038000120342e002069
:102c2000002c00202de9f347634c94f8646025469e
:102c3000002e38d1e36eebb104f16c0036f044fda8
:102c4000012384f8643020665c4b028c90f82410d9
:102c500000930196054604f13003806afff7f6fe03
:102c6000012820d0284684f8646002b0bde8f0470f
:102c7000fbf7b0bb236fcbb104f1700036f024fd3d
:102c8000a0f10c032366012384f86430b0f8b82067
:102c900090f8bd1001934a4b0093d0f89c0004f1ca
:102ca0003003fff7d3fe02b0bde8f087636f002b5f
:102cb000f9d004f1740036f007fd0446a0f10c07ca
:102cc000b0f8b80001f0a0fd0126814685f86460e7
:102cd0002f66f8f72dff94f8bd2094f8ce3085f8d4
:102ce000502094f8d42085f84f30d4f89c3085f8e3
:102cf00051002b6405f1300804f1040a4abb54f872
:102d00000c3c93f83430c3f3400285f84e20c3f3f3
:102d10000013cdf800a02b4a49464046fff76efa53
:102d20000128c0d00023022885f8643033d098bb36
:102d30002b6c95f85020c4f89c3004f10c00012352
:102d400084f8bd2084f8c13002b0bde8f047fbf73d
:102d5000f9bc13f8493cab3b072b15d8dfe803f06f
:102d60000b0414140d140b0b012385f84e30cdf811
:102d700000a00023cfe70023f7e784f8c16004f147
:102d80000c00fbf7dffcf2e70f4b44f202521a8013
:102d900037f062fbebe7ad200146002254f80c0c43
:102da000fbf7d2fb3846fbf7c3f8012002b0bde8c1
:102db000f047fbf7a5bb00bf10000120492401012b
:102dc000ed010101e1e70001342e002030b585b0ae
:102dd000cde90001684614461d46fef7e1f903906f
:102de00000b200280fdb9df80e305b070bd4074bb9
:102df0005b6800eb400003eb0010c0e9004503a94d
:102e0000152032f061f905b030bd00bf100001207f
:102e10001fb50190fbf762fa05b05df804fb1fb522
:102e2000cde9000168461446fef7baf903040146ed
:102e300005d42046fbf704f8002004b010bda620fe
:102e4000fbe7014b187070470c24012082b0019001
:102e500002b0fbf75db900b50123002189b01a4625
:102e60000846faf79dff00b2043011d14ff0ff324f
:102e70004ff0ff33cde90223074a1068516804abd5
:102e800003c39068d16803c304a902a8fff796f8aa
:102e900009b05df804fb00bf38a5040100b50123ab
:102ea000002189b01a460846faf77aff00b20430ca
:102eb0000dd14ff0ff324ff0ff3304a92d20cde9a3
:102ec00002232ef0f3fb04a902a8fff777f809b05c
:102ed0005df804fb30b587b0fef762f903040446e1
:102ee000009037d40290faf795ff024600685168c7
:102ef000019402ab03c39068d16803c32046faf77c
:102f000089ff05462046fff743f803682b604368b6
:102f10006b608368ab60c368eb600098fff738f8bc
:102f200002ab024603cb5160106003cb9060d160ce
:102f3000bdf9002002eb4203074a526802eb03127c
:102f40006946937a23f00c0343f022039372152011
:102f500032f0baf807b030bd1000012082b0c0f3e3
:102f6000405002b07047184a526833b48ab94ff6dd
:102f7000fa73adf804308df80620bdf80430002057
:102f800063f30f00bdf8063063f31f4002b030bc9e
:102f9000704738b94ff6fb73adf8043000238df855
:102fa0000630eae7d0e900234ff0ff356ff0060462
:102fb0009d4208bf9442edd301231a46002102b07e
:102fc00030bcfaf7edbe00bf1000012082b00190c6
:102fd00000b2002808db054b5b6800eb400003eb08
:102fe0000010837a1943817202b0704710000120eb
:102ff00082b0019000b2002809db064b5b6800eb51
:10300000400003eb0010837a23ea0103837202b0cd
:10301000704700bf1000012010b5044638b90e4bb0
:103020004ff48b42bde810401a8037f003bafcf72a
:1030300025f8072384f85d3004f1700363660b23e1
:1030400084f86030054ba366054be3662046bde877
:103050001040fbf7cfba00bf342e0020e9fb00017f
:10306000e1f0000138b50446051d38b9124b44f2b1
:10307000f0521a80bde8384037f0dcb92846fbf73b
:10308000fdff082384f8613004f18003a36694f8ff
:103090008830022b0ed0042b0cbf0c23042384f8a1
:1030a0006430064be366064b23672846bde838408c
:1030b000fbf7a0ba0c23f2e7342e002089fc0001b4
:1030c00005ea000108b50a4b4ff48872a3f8802086
:1030d0000022da671a7783f81621c3f80c21fbf770
:1030e00099fefff75ffbbde80840f8f785ba00bf1f
:1030f0001000012010b50c490446252031f078ff5e
:103100000949382031f074ff3cb9084b44f2604261
:10311000bde810401a8037f08db91923237120467d
:10312000bde81040fbf7a4ba10240120342e002083
:1031300028b9054b44f261421a8037f07bb98a22e4
:103140000271fbf795ba00bf342e002028b9054b59
:1031500044f262421a8037f06db9c5220271fbf762
:1031600087ba00bf342e0020044bb3f8800040f231
:103170003f43c31a58425841704700bf1000012016
:1031800038b51a4c2269207b0023603a6025d9b2f9
:10319000884209d800252378ab420dd894f87201f3
:1031a000003018bf012006e0013305fb03f1515c3c
:1031b0000029ecd0012038bd37f07afaa268e82364
:1031c00005fb032360b193f8d820d20705d593f807
:1031d000d93003f00f03022becd10135edb2dae761
:1031e00093f8d830db07e5d4f7e700bf3834002088
:1031f0002528f8b50c4607d1fff7c2ff237880f0e9
:10320000010018402070f8bd3828fcd1114b187807
:103210009d680022e82640f20127d3b2984204d8e4
:103220000023227813432370ede706fb0251b1f827
:10323000d83023f0fe031b051b0dbb4205d191f8ce
:10324000d83003f0fa03022b01d00132e5e7012365
:10325000e7e700bf383400200378da0610b50446eb
:1032600001d5fbf74dfe23781b0703d5bde81040c1
:10327000fff7caba10bd10b5044638b90d4b44f279
:103280009052bde810401a8037f0d4b8fbf7f6fe34
:10329000092384f85d3004f170036366042384f825
:1032a0006030054ba366054be3662046bde8104041
:1032b000fbf7a0b9342e00201dfc00013de3000106
:1032c00070b51c4c94f81611227f0b460133dbb20b
:1032d000082b28bf002322fa03f0c00726d50121be
:1032e00099404a402277144a84f8163102eb83034e
:1032f0005d6d2db9114b4ff488421a8037f0acf850
:10330000a847237fabb10e4c23889b0611d42af02b
:10331000ebfa238843f0200323802af0f5fa094bc7
:1033200009481b68bde870401b6918479942cdd118
:10333000e7e770bd10000120f4a40401342e002042
:103340009e0f0120543200205832002010b5044650
:1033500038b90a4b4ff48c42bde810401a8037f060
:1033600069b800f10801064836f08af9002384f8ac
:1033700078300720bde81040fbf7c2b8342e00209b
:1033800094000120014b1882704700bf002c0020e0
:1033900010b5044638b90e4b44f27052bde81040e7
:1033a0001a8037f047b8fbf769fe062384f85d30d2
:1033b00004f1700363660e2384f86030054ba36646
:1033c000054be3662046bde81040fbf713b900bf8c
:1033d000342e002049fc0001e1df0001054bd0e95b
:1033e0000001d3e90223994206bf90420120002048
:1033f000704700bf002c002000487047082c0020b8
:1034000000487047102c002010b50b4cd4e9022363
:10341000013308bfb2f1ff3f0bd021f0e1fbd4e94b
:103420000223d0e90001994206bf9042012000200a
:1034300010bd0220fce700bf002c0020f8b5436956
:1034400090f89d60d3f89050044605212846fcf77b
:1034500093fb2246ee7052f8813f6b605368ab607d
:103460009368eb60d3682b6194f880302b75a28849
:103470004ff6f773a4f108069a429cbf3368c5f86b
:10348000153005f115028abf00237368c5f81530a1
:103490005360fff7b9ff022805f11d0714d10e4b49
:1034a00003cbc5f81d00796094f891305bb1f8f753
:1034b00045fb40b194f892302bb1252384f860305d
:1034c000064ba3616666f8bd21f08afb0368c5f868
:1034d0001d3043687b60e7e7082c0020ddfd00011c
:1034e00038b50446fff790ff6168084b0546206831
:1034f00003c3fff789ff8542014602d0232031f044
:10350000e3fd2046bde83840fff77cb8082c0020da
:1035100008b5fff779ff003018bf012008bd094b3f
:10352000d3e90223591c08bfb2f1ff3f07d0d0e90d
:103530000001994206bf90420120002070470120ff
:10354000704700bf002c002038b5446805460cb118
:1035500003682bb9104b44f226621a8036f07cffc8
:1035600094f82430412b14d12868fff7d8ff80b19c
:1035700094f8343073b1a16a084a362384f82430b1
:1035800001f10b03a36228460331bde83840fbf785
:103590002dbb012038bd00bf342e002001eb0001ff
:1035a000014b184481747047002c002013b500248f
:1035b00001a9074801942ff0e7fc30b9019804f500
:1035c0007a74b0fbf4f002b010bd2046fbe700bff8
:1035d0006c42002038b5044618b190f8a830042b8e
:1035e00007d00f4b44f250621a80bde8384036f0e5
:1035f00021bf051d2846fbf741fd0f2384f86130ec
:1036000004f1a003a3661c2384f86430054be36631
:10361000054b23672846bde83840faf7ebbf00bfeb
:10362000342e0020f1fc000151ea000138b50446b7
:1036300018b190f88030042b07d00f4b41f23422a0
:103640001a80bde8384036f0f5be051d2846fbf768
:1036500015fd102384f8613004f17803a3660d236f
:1036600084f86430054be366054b23672846bde8c4
:103670003840faf7bfbf00bf342e002075fd0001af
:04368000a5fe0001a2
:020000040000fa
:020000040101f8
:10368400034b0078002283f87e209b6f184700bf0d
:10369400a03f00200278074b3ab9d3f8f0100a7221
:1036a400d3f8f000436808301847d3f8f020072116
:1036b4001172f5e7a03f0020024b002283f89a2103
:1036c400704700bfa03f0020034b93f899216ff38c
:1036d400041283f899217047a03f0020044ad2f8cd
:1036e400803000211870c2f8801018465a681047bc
:1036f400a03f0020704738b5094dd5f8b4423cb915
:10370400084ac5f8b442137823f01003137038bd87
:103714002046052300f8103f636998472468eee7c4
:10372400a03f0020e81f01200379032b09d0022bbe
:1037340009d1c0884ff6f77398428cbf002001204e
:103744007047012070470020704770b5466acd6b02
:103754000446fff7e9ff022381f82830238a4b85ca
:10376400e38b81f8a1016fea43436fea5343cb86ad
:1037740091f840308a6423f0250343f0240381f850
:10378400403033782b7000236b7070bd10b50d4a38
:103794000d4c012303fa00f01378184323881070aa
:1037a400db060ed42af09ef8238843f0100323800e
:1037b4002af0a8f8054b06481b68bde810401b69b1
:1037c400184710bde81f01209e0f0120543200202d
:1037d40058320020074b1a6d42b1da6d42b9064add
:1037e400da65012283f875200320cfe783f875207a
:1037f400704700bfa03f002001380101094b10b4fd
:10380400002841f6fe7440f28342196d08bf224637
:10381400a3f8b0220b2288765df8044b83f8752058
:103824000320b3e7a03f002008b5074ad2f884304c
:10383400002118701846c2f884105a689047022074
:10384400bde80840a2e700bfa03f0020024b0922c8
:1038540083f8ac22002099e7a03f002013b504466a
:1038640001a930202df020ff0198084b204330eab5
:10387400030308d040f2ff7330ea03030cbf0120b6
:10388400002002b010bd0120fbe700bf00f8ff07d5
:10389400074b002210b5044683f87520db6d98476a
:1038a4002cb921460e20bde8104031f00bbc10bdf0
:1038b400a03f002073b5002401a940f22220019406
:1038c4008df802408df803402df0d4fe0df1020175
:1038d40040f22b102df0e8fe9df80220019ba2423d
:1038e40009d101230df1030146208df80330002591
:1038f40031f0e8fb16e01d4603f5d47313f8086ca9
:103904009eb9012385f8a0314822314605f10c0007
:1039140038f032fa05f1ac0359223146184638f032
:103924002bfae863284602b070bd0134e4b2d6e74e
:1039340010b5054c94f8be3223b9fff7bbffc4f8a9
:10394400b80210bd0020fce7a03f002037b50025d9
:1039540001a9044640f2222001958df803502df070
:1039640089fe0df1030140f22b102df09dfe019b09
:103974004ff4d472e41ab4fbf2f4e4b202fb04345c
:1039840084f8a05103b030bde0e7dfe7dee7427f13
:10399400034632b1a0f5bc701b78026b5370fcf780
:1039a40020bdd3e7d2e710b50a4bd3f8b432a0f563
:1039b4008a723bb1547a19798c4209d1c27a1a7449
:1039c40003225a71fff7c2ff0420bde81040dde670
:1039d4001b68eee7a03f002010b50446f4f724f975
:1039e400a04211d04ff6f7739c420fd8f4f77afb3c
:1039f40002280dd02046f5f717f858b10378012bab
:103a040014bf8120892010bd0020fce70720fae7bd
:103a14008020f8e78120f6e700b501388db00b2847
:103a24000dd8dfe800f0060c0c0c0c0c0c0f150c78
:103a34000c1f60238df8043001a832f013fd0db083
:103a44005df804fb95238df80430adf80510f3e719
:103a540053238df804300b68cdf805304b68cdf84e
:103a64000930e9e75123f4e710b5084cfaf73ef9b9
:103a740000236371211d064ba36022202df014fe48
:103a84002046bde81040faf7fbb800bf0408012047
:103a9400993a010138b50546f4f7f2fa2b79044650
:103aa40053b9f4f7edfa054ba3f8c400a30703d503
:103ab400bde83840faf71bb938bd00bfa03f00206d
:103ac40013b5134c01a930202df0eefd042384f826
:103ad400753094f87430013b84f8743004f1540365
:103ae40093e80300e0602174f4f7eefa019b23638a
:103af400084bda7b9b782376c4e90001064b84f8f3
:103b0400342020466361f4f755fe02b010bd00bfb7
:103b1400a03f0020902c00206153010110b50c4cf3
:103b24003b2021462df0c0fd05226270fe3224f8b0
:103b3400202c084a127802f007020121022a04f814
:103b44001e1c08bf04f81c1cbde81040b8e700bfe9
:103b540014400020902c002008b50021054b4ff4a0
:103b640080620846a3f8b02231f0acfabde8084000
:103b7400d4e700bfa03f0020a2e707b5002300223e
:103b84006846cde90023f4f7a5fa03b05df804fb19
:103b940037b5174c174d01a930202df085fd0322b0
:103ba40084f8752004f1540292e8030084f83c1070
:103bb400e97b84f84d102978019aa06301f007018c
:103bc4000129226409d104f1450124202df06cfd62
:103bd40004f146010d202df067fdab7884f84430e4
:103be4000348054ba364f4f741f903b030bd00bfab
:103bf400a03f0020902c0020253c0101054808230b
:103c040080f87530044b1b7c0371044b8360f7f719
:103c140097bc00bfa03f0020902c0020693c01010c
:103c2400007800b9eae733e60348092380f87530e1
:103c3400024b8360fff77abaa03f0020d95f0101ed
:103c4400007800b9f0e723e6054b1b7803f007037f
:103c5400022b00d1e8e7012b00d1cfe7704700bf6a
:103c6400902c00200078b8b90c4b1b7813f0070394
:103c740000d1d9e7012b10d1094b072283f8752015
:103c840003f1540292e80300064ad86183f8201035
:103c94005a621846f9f742bcfae57047902c0020a6
:103ca400a03f0020453c0101104b93f8be22052a99
:103cb40010b4194611d193f8bc22d3f8b842013a92
:103cc400d2b283f8bc2242b1042204f5bc7083f85a
:103cd400be225df8044bf4f7a3b8002381f8be328a
:103ce400c1f8b8325df8044b30e600bfa03f0020b5
:103cf4000f4ad2f8b83230b4d3f8ad5003f5bc70e3
:103d0400002183f8881193f8881125fa01f4e40757
:103d14000bd5002183f880110649c3f890110323c1
:103d240082f8be3230bc25f089be0131e9e700bf1c
:103d3400a03f00200947010108b5fff763fb0128f4
:103d440011d1094b094a5a6283f8200040f6b8326f
:103d540003f11400da612ff0c5f805494020bde8ed
:103d6400084031f07db908bd04080120373e010147
:103d7400ec1f012000b58db006281bd8dfe800f049
:103d8400041a1a1a1d1f210090238df80430f4f729
:103d940089f9adf80500f3f747ffadf80a00f4f729
:103da400a7f98df80900f4f783f9adf8070001a825
:103db40032f058fb0db05df804fb9123e5e78f2347
:103dc400e3e78e23e1e710b503288cb00c461fd03f
:103dd400072828d0022819d1d1f80200d1f80610fa
:103de4000122f6f715fa88b992238df80430236876
:103df400cdf805306368cdf809302389adf80d306e
:103e040001a8a37a8df80f3032f02cfb0cb010bd52
:103e1400d1f80200d1f806100022f6f7f9f90028cb
:103e2400f4d09323e1e7fff771fb0028eed0502391
:103e3400dbe708b52df0b8fb02494020bde8084097
:103e440031f0d4b8ec1f012010b50446fff77efd15
:103e5400e37abbb9e2682369a08af5f701fe0d4b4a
:103e64001b7813f0060214d10b4890f89931990687
:103e74000fd562f3451380f89931bde81040f8304e
:103e8400fff784ba044a92f8993123f0300382f898
:103e9400993110bd902c0020a03f002010b504469d
:103ea400f4f73afc2046bde810404fe513b5342042
:103eb40069462df0f9fb01a922202df0f5fb9df8b0
:103ec4000400134cf6f7b2f94ff47a735843009b8d
:103ed4009b00984228bfb0fbf3f094f8c93038bf78
:103ee4000a20019093b994f8ca207ab184f8a030da
:103ef40004f19c00074bc4f8a430f9f763fb0123d9
:103f040084f8c93028f0ecfbc4f8c00002b010bd3e
:103f1400a03f0020d14e010108b528f0e1fb044b7d
:103f2400d3f8c03083428abfdb43c01ac01808bd2f
:103f3400a03f002037b51b4c94f8ca303bb301a90d
:103f440034202df0b1fb36f0b1fb30b3fff7e4ffc2
:103f5400019da8421dd2fff7dfff281a019d85426b
:103f640007d3fff7d9ff019da84214d2fff7d4ff6e
:103f74002d1ac4f8b450012384f8b8300a480b4b06
:103f8400c4f8bc302ef0d8ff07482ef0abff03b0c6
:103f940030bd0020e2e70025ebe7019bc4f8b43014
:103fa400e9e700bfa03f00204c400020b13e0101e2
:103fb40007b50a4b012283f8ca2001a934202df049
:103fc40073fbfff7a9ff019b984204d2fff7b2ffee
:103fd40003b05df804fbfff769fff9e7a03f002099
:103fe40013b504460df107011a202df05dfb23786b
:103ff4008bb99df80730022b04d0f9f7d9fa08b130
:10400400f9f7c4fa064b002083f8c600d3f88430cd
:104014001bb1fff709fc02b010bd32f035fafae724
:10402400a03f002013b5164c0df107011a202df006
:104034003bfb94f8c63003b39df80730022b10d134
:1040440094f8c7306bb936f031fb38b12cf072f804
:10405400002084f8c600fff7e7fb0ce0fff726ff1b
:10406400f6e76ff07f43c4f890300648064bc4f877
:10407400943025f0ddfc02b010bd8020ebe700bfda
:10408400a03f002028400020e53f010110b50c4c62
:10409400042384f89032fff7adf9024600685168b2
:1040a40004f5227303c341f28833c4f884320e2327
:1040b40084f8ac3204f5f470bde81040fff788ba18
:1040c400a03f002010b586b011f0ff0f01910e4cf7
:1040d40015d04ff48053adf80c3001ab049303a911
:1040e40000231e20059330f0edff94f8ac320e2b24
:1040f40005d1059b1bb904f52270fef7ebf80123eb
:1041040084f8ac3206b010bda03f002010b50446c0
:1041140032f072f92046bde8104017e410b50446a9
:1041240010f8443c14f84c2980f8d320023b072ba8
:1041340021d8dfe803f0041220201420201862b9eb
:10414400042300f8443c21460b4835f0dffa90b1d3
:104154000120bde81040fff719bb0723f1e7002a4f
:10416400fbd10523ede7052380f8d330d0f8c43024
:10417400c8309847e7e710bd404100202de9f74fcc
:10418400b74ddff8e082d5f8a04147f6ff76002c62
:1041940000f0f281237a072b00f28a80dfe813f023
:1041a400080088008800880088009a019a01a50107
:1041b400b5f8b0325b0540f1858104f10c07482263
:1041c400002138464ff0000b37f0d6fd84f81fb1bc
:1041d40004f1580ebee8030004f12a09b4f854307f
:1041e40094f856c0c4f8488084f828c0c4f82a005b
:1041f400c9f8041094f8401003ea060241f04001a3
:104204001e2a84f8401004f1580a77d8152b27d8b1
:10421400dfe803f050535b5b5d5b612626262626b0
:10422400262626265b5b260b5f550c23638704f149
:10423400ad03d3f80610d3f80200013108bfb0f182
:10424400ff3f0dd1012384f8413094f8ae2094f857
:10425400ad3043ea0223a4f84230002384f844300a
:10426400b4f85430e386132b08d003ea0602382a44
:1042740004d048f22002934240f0228103222272a9
:10428400628f002a00f01e8194f8402022f021025f
:1042940042f0200213f4004f84f8402004f1ac03f0
:1042a40004bf627a84f8ac20e3633846fcf799f8db
:1042b40024686ce70b236387d2e70523fbe794f8b4
:1042c40040306ff3861384f840300323f3e704236c
:1042d400f1e71423efe794f8b10094f8d4204000f8
:1042e4005200c0b2d2b2831807332044638701322c
:1042f40004f1d401b23037f027f8b1e71f2b04d111
:1043040094f8ad30db000233d5e7a2f12101012995
:1043140018d81623638794f8b830012b04bf0f23f1
:104324006387bcf1020f94f8403040f09580618db2
:104334004ff6f772914240f28f806ff3820384f854
:1043440040308de7332a01d10223b4e72f2a87d9dd
:10435400382a27d948f23b02934281d1f4f702fa72
:104364006946814630202df09ff984f8adb0009b5a
:10437400c4f8ae30f4f70afa84f8b800b9f8023099
:10438400a4f8b230b9f80430a4f8b430b9f806305f
:10439400a4f8b6300d23638795f8bc315a1c85f810
:1043a400bc217ee0342b0fd004d8312bccd0322b5f
:1043b400cad055e7382b34d048f23802934253d050
:1043c400362b7ff44daf80e70a23bcf1030f6387dc
:1043d4007ff446af04f1ad0b08225946504637f03e
:1043e400fffb20b90023c4f8ad30cbf80430daf871
:1043f4000000daf804106b4603c3dde9002313431d
:1044040008d0daf80030c9f80030daf80430c9f816
:10441400043025e720f0e2fb0368c9f80030436864
:10442400f5e70723638794f8b130ff2b04bf092312
:10443400638794f84030bcf1020f6ff3820384f871
:1044440040307ff40dafb4f858204ff6f6739a421b
:104454003ff606af94f8403043f004036fe700bf23
:10446400a03f002021410101f3f7f4fea4f8b200bb
:10447400f3f7f6fea4f8b400f3f7f8fe0b23638712
:1044840094f8ad3083b994f8b6300b336387d5f81c
:10449400b832002b3ff4e4ae9c427ff4e1ae95f8d1
:1044a400bd3284f8ac30dbe6002384f8ae3084f807
:1044b400af3084f8b03084f8b13084f8b630e6e731
:1044c4000222dce60723237284f81f310120fff760
:1044d4005df9ede6052b0cbf04230223237204f5da
:1044e4008a70d4f810319847e2e62146274835f01f
:1044f400eff894f81f3163b9b4f85430012b06d1a6
:10450400d4e94823b4f82801f5f7aafa01e0002b0e
:10451400f6d0b4f85430042b23d194f8293104eba9
:104524004301112b28bf112301f5957104f2771271
:1045340084f82931cb1c9a4221d3521a11f8013b39
:10454400013a112b4fea520228bf11239a4228bf85
:104554001a46d6b204f24d10520036f0f5fe84f835
:104564004c61d4f8103104f58a709847d5f8a0311d
:104574003bb10120fff70af903b0bde8f08f002634
:10458400ede7034836f020fdf6e700bf4041002088
:104594004441002070b51c4ed6f8a0414ff0ff35c1
:1045a40064b96b1c2ad02a461848194b012136f0ed
:1045b400effc1648bde8704036f0febc227a931e2c
:1045c400022b9fbf6368d6f8b0115b1a63606368ff
:1045d40083b9042a0cd1b4f85430062b0cbf0d2334
:1045e400022384f81f31072323720120fff7cef83a
:1045f4002468d5e79d4228bf1d46f9e70348bde876
:10460400704036f0e1bc00bfa03f002044410020d0
:104614009945010138b50d4d05f5d270d5f8a04185
:1046240036f0d2fc0a4a137823f00203137014b94b
:10463400c5f8a04138bd052384f81f3104f58a70fc
:10464400d4f8103198472468f1e700bfa03f002058
:10465400e81f012010b501460f4ca0b941f6fe73c6
:104664000520a4f8b03230f02dfd0c4b1b7803f07c
:104674000703022b01d1fff7f7f90023e365bde837
:104684001040fff7a7b840f2834300210420a4f8a8
:10469400b03230f017fdf0e7a03f0020902c00204e
:1046a40037b505460df107011a202cf0fdff9df8e2
:1046b4000730114c022b14d194f8c7308bb935f064
:1046c400f5ff58b12bf036fd0db1fff771fc002357
:1046d40084f8c63031f0d8fe03b030bdfff7e6fbf6
:1046e400f5e76ff07f43c4f890300448044bc4f8f6
:1046f400943025f09df9efe7a03f002028400020ea
:10470400e53f0101f8b50678104d0446a6b9a0f1bd
:104714000c01d5f8b87216202cf0f2ff14f80c0c2a
:10472400f3f7ecfc97f8b200f3f704fdfbf726ff70
:104734003146062030f0c6fc002385f8be32c5f8a9
:10474400b8322046bde8f840fff700b9a03f00208a
:1047540008b5012343710146034834f08fff042058
:10476400bde80840fff712b85442002013b50446d0
:104774000df1070129202cf097ff9df807306bb34a
:10478400d4e90023591c08bfb2f1ff3f2ad04ff0ef
:10479400ff316ff002008b4208bf824224d04ff0f9
:1047a400ff316ff003008b4208bf82421ed04ff0ee
:1047b400ff316ff004008b4208bf824218d0fef72d
:1047c4001dfe02884ff6f7739a4207d82046fef77b
:1047d40003fe18b1fef712fe02b010bd2046f5f735
:1047e40001faf9e70348f7e70348f5e70348f3e775
:1047f4000348f1e7022001200420012000200120c9
:10480400062001204ff6f773984210b5044608d8e5
:10481400fef7f4fd0388a34203d1bde81040fef780
:10482400e9bd2046bde81040f4f71abc38b51c4c6d
:1048340004f120052946002030f0d8fb2946042045
:1048440030f0d4fb2946052030f0d0fb2946062061
:1048540004f1340530f0cafb2946022030f0c6fbcf
:104864002946032030f0c2fb2946072004f14805fd
:1048740030f0bcfb2946012030f0b8fb2946082063
:1048840030f0b4fb2946092030f0b0fb29460c2057
:1048940030f0acfb211d4020bde8384030f0a6bb11
:1048a400e81f012031f0debd12f0fdbb38b504462f
:1048b4000088f4f7b9f8054638b1f5f785fca0701f
:1048c4002846f5f793fce07038bd6080fce770b5ce
:1048d4000446f5f775fc017b00222825d3b29942e2
:1048e40000d870bd036805fb02331e783eb99e688c
:1048f400c4f80260de689b88c4f806602380013235
:10490400ece7f8b50446f5f75bfc4cb340b36668d6
:104914004eb305684db3037b0bb3207838b3013b2a
:10492400dbb203eb830305ebc3020023117801f030
:10493400fb0101290fd1d2e9027c03eb830106ebd1
:1049440041010133dbb2c1f8027098429788c1f883
:1049540006c00f8003d9aa42a2f1280101d1237015
:10496400f8bd0a46e2e73346f9e72b46f7e7034684
:10497400f5e7084b0222c3f8f00083f8d820027848
:1049840083f8e020044ac3f8e82003f1d00025f0be
:1049940055b800bfa03f00209936010170b5044608
:1049a400f5f70efc4ff000032380057b0023ab4298
:1049b40000db70bd026803eb830102ebc1010a78de
:1049c40002f0fb06012e0cd14a78012a05d1227887
:1049d4000132227001335bb2e9e76278013262701e
:1049e400f8e7002af3d0023a012af3d8efe72de9d9
:1049f400f8430746f5f7e4fb00268046354698f869
:104a04000c309d4201dbbde8f88305eb8503d8f843
:104a140000004feac30948440378032b33d806eb5c
:104a2400860407ebc40483882380d0e90223c4e905
:104a3400022343782374f5f7c7fb6074d8f80000a9
:104a44004844f5f7d3fba074d8f800304b44d3e9bd
:104a540004019a7ec2f30002e2741a782275c4e952
:104a64000601da7884f820201a7e84f821209a7ec0
:104a74009b7ec2f34002c3f38003013684f82220f4
:104a840084f8233076b201356db2b8e7044bd3f81d
:104a9400802022b9c3f880000220fef777be704759
:104aa400a03f0020044bd3f8842022b9c3f884002b
:104ab4000220fef76bbe7047a03f0020084b93f81e
:104ac400ca2010b54ab993f8c74034b9012283f813
:104ad400ca20fff7ebf9204610bd8020fce700bf99
:104ae400a03f002008b508b1fef730ff084b1b7843
:104af40003f00703022b06d1064b93f85430012b25
:104b040001d0fff7dbff0020bde80840fef7c0be80
:104b1400902c0020a03f0020074808b590f8ca3028
:104b240043b14ff00003a0f8c930ac302ef004fac2
:104b3400002008bd8020fce7a03f0020f7b51a4cf8
:104b4400a36f07460e464bbb184ba36741b301a99d
:104b54003f202cf0a9fd9df8043084f87c3001231b
:104b640084f87e30124b84f87d601b7803f00703d1
:104b7400022b4ff0000502d1fff7ceff2f46002392
:104b84000022c4e902239df80430a3740648094bab
:104b94006575e7742675a361f3f73efe03b0f0bdb7
:104ba40001a94020d5e700bfa03f0020295b0101f7
:104bb400902c00203d4e010137b5d0e94d2313431d
:104bc400044622d050f8105c00f59a7020f012f8d8
:104bd400d8b96b78bbb91c4a8df80430127884f8c4
:104be4003e2101a95c202cf05ffd9df8043033b117
:104bf400d4e94d01f4f71eff08b1f5f7ebfd04f518
:104c04009670f3f709fe03b030bd34f8220cfff7b9
:104c1400f9fd1ff0efff58b98df8040001a94020f9
:104c24002cf06efd94f8401111b9352030f04afa99
:104c340094f83f0194f84011fff780ffa4f14c0071
:104c4400fef784fedfe700bfc8bb040170b5114c5a
:104c540006460025e565fef7bdfd8eb941f6fe73f7
:104c640031460520a4f8b03230f02cfa0a4b1b78f8
:104c740003f00703022b0cd1bde87040fef7f4be2d
:104c840040f28343a4f8b03229460120bde87040c5
:104c940054e770bda03f0020902c002013b5114ca8
:104ca400b4f8b0321b060bd400230df10701252004
:104cb4008df8073030f006fa9df8070002b010bdf9
:104cc40035f0f4fcd4f8a03138b10bb90123ece78a
:104cd4001a7a042ae8d11b68f7e7b3fa83f35b096d
:104ce400e3e700bfa03f0020014b93f8c6007047e4
:104cf400a03f002010b50a490a4c0023ca58e250cc
:104d040004334c2bfad1084b13221a8535f0cefc10
:104d1400064b84f860001b7984f8543010bd00bf42
:104d24002040002034470144040801206042002050
:104d3400034b0022a3f8b022024b4361fef7d8b91b
:104d4400a03f0020c95b010137b51b4c00250df1c4
:104d540007011a20a4f8b05284f87550256584f828
:104d64007e50a5672cf0a0fc9df8073084f8c6504f
:104d7400022b4ff0010304bf84f8ca5084f8c850d2
:104d8400a4f8c430c4e92055fff750fd2ff09cfd72
:104d9400fef796f937f076f840f28343a4f8b03280
:104da400fef788fd054bc0f8983100f5bc70fff79d
:104db400bfff03b030bd00bfa03f0020114101017f
:104dc40010b5fef71ffb0a4c0023012884f8ac320f
:104dd40006d1012384f8ac320023c4f8a83210bdf4
:104de4000228f9d1f3f77ef90028f2d0f4e700bfe6
:104df400a03f002038b50d4c022284f87e200c4ad6
:104e040084f87d00127802f00702022a0d4601d1cf
:104e1400fff782fefff7d4ff0db9fef7aefe054b98
:104e2400e3600248bde83840fef78eb9a03f002099
:104e3400902c00208536010108b5037813b9074882
:104e4400fef708fa064b93f87c1093f87d000022d5
:104e540083f87e20c909bde80840cbe71c40002048
:104e6400a03f002013b5144ce36d13bb134be36553
:104e7400134b1b7803f00703022b13d10df103012d
:104e840016202cf011fc0f4930202cf00dfc9df85d
:104e940003200123934001a9302001932cf030fc1e
:104ea400fff73afefff78cff074b0348e360fef77a
:104eb4004bf902b010bd00bfa03f0020514c0101ce
:104ec400902c0020300801205d3b01017fb506468f
:104ed400294c00250df103015c2084f8c9508df89c
:104ee40003502cf0e1fb3378eb2b264604d184f8f5
:104ef400c850fff71ff808e063b984f8c8309df87c
:104f04000330002bf5d1fef7d1ff0220fef73efc63
:104f140004b070bd0df102014ff493702cf0c4fb8a
:104f24009df8022094f8c830ff2a13d1802201335f
:104f3400adf8042001a904f1c8021e2084f8c83089
:104f4400cde9022530f0bef8039b002bd1d084f8c4
:104f5400c850dae70133dbb29a4284f8c830c8d8c3
:104f6400d4f8803013b10420fef7b8fb002386f890
:104f7400c830fff777ffc8e7a03f00207fb5224c79
:104f8400c37a002584f8c95026462bb984f8c83062
:104f9400fef78cff04b070bd0df103014ff4937064
:104fa4002cf082fb9df8032094f8c830ff2a18d116
:104fb40080220133adf8042001a904f1c8021e20a7
:104fc40084f8c830cde9022530f07cf8039b13b98e
:104fd400fef7b0ff01e084f8c8500220fef7d6fbcc
:104fe400d8e70133dbb29a4284f8c830f0d8d4f859
:104ff400803013b10420fef771fb002386f8c8301b
:10500400fff730ffe9e700bfa03f00200b4b93f808
:10501400ac32012b13b504460ed8fef77efa58b114
:10502400f7f70afb002804da002301a80193f8f734
:105034008bf9207af6f71cfe02b010bda03f0020c9
:105044002de9f041234c94f8ac72012f054633d17d
:10505400fef763fa00283bd005f108001ff0cafdf3
:10506400064640b10021342030f02cf800210846d7
:10507400bde8f04162e5d5e90201f4f7dbfc38b3a1
:105084000378012b0fd1d5e90223c4e90223124b83
:10509400e6745b78a374114ba682a3612046bde835
:1050a400f041f3f7b9bb052b12d13b4632463946e2
:1050b400bde8f041f7f7e4bb08301ff09bfd38b1c1
:1050c400092384f8ac320020bde8f041fef75ebb52
:1050d400bde8f081a03f0020c8bb0401f9360101fe
:1050e40007b52f200df107012cf0defa9df807001b
:1050f40003b05df804fb30b5054685b0d0e9000186
:10510400f4f798fc044698b12846f5f73fff78b1c8
:10511400a388adf80430a368cdf80630e368cdf871
:105124000a3001a9a3788df80e3002202ff0caffaf
:1051340005b030bd37b50546fef75cf9fcf72ef82f
:105144000190fef75ff9022808d12846032300f8ee
:10515400083f6b6803b0bde830401847bdf9043020
:10516400002b02da28460123f1e7144c14494120ac
:105174002ff03cff0d2384f8ac326b68c4f8a432e2
:105184002b68c4f884320f4d0198032384f87032dd
:1051940004f51c732b65012385f85830fcf7f6fee3
:1051a400094b686504f2912405f14000ec656b66d7
:1051b40003b0bde830402ff0a7bb00bfa03f0020e4
:1051c40044200120040801209140010138b5437aac
:1051d400084c012b054609d1fef79ff930b194f82c
:1051e400ac320e2b02d12846fdf774f8012384f863
:1051f400ac3238bda03f002008b50146034834f066
:105204003dfabde80840fef7e5ba00bff03f0020d4
:10521400034a92f87430184482f87400704700bf4f
:10522400a03f0020082810b5044603d1bde8104073
:10523400fef70abdfef7a1fc2046bde81040fef7cc
:1052440027bb10b5134c94f8ac32082b02d0092bb1
:105254000fd010bd104b1b7803f00703022b01d1b4
:10526400fff75afc012384f8ac32bde81040fef786
:10527400ebbc094b1b7803f00703022b01d1fff7aa
:105284004bfc002384f8ac320920bde81040fff742
:10529400c9bf00bfa03f0020902c002037b52a4c86
:1052a400fff71eff94f85430012b054607d0274b17
:1052b4001b7803f00703022b01d1fff7fffb0df16d
:1052c400070129202cf0f0f99df807301bb9fef7ef
:1052d400bbfc03b030bd94f85430012b06d1082335
:1052e400002084f8ac32fef751faf2e7033b012bbd
:1052f40003d8f6f7d5fc0028f1d1fff7f1fe012819
:1053040004d894f8ac322bb10923e9e70e20fff757
:1053140089ffdee7032d06d8dfe805f01313021337
:10532400022384f8ac32012384f8cc310849094bb8
:10533400c4f8d0312c202cf0b7f907482df0d2fd59
:10534400c7e70323ede700bfa03f0020902c002017
:1053540068410020513801016041002038b5c37a0a
:10536400114c054633b9062384f87530bde838403e
:10537400fff794bf94f874307bb104f168013c20ca
:105384002cf092f9012384f86c30084b236704f164
:105394006000bde838402df0a5bdfef7eefbe87acd
:1053a400bde83840fef774baa03f00207d3b010100
:1053b40013b50d4c01a930202cf076f90623237384
:1053c400f2f782fe019b2363084bda7b9b782376fa
:1053d400c4e90001064b84f8342020466361f3f7e6
:1053e400e9f902b010bd00bfa03f0020902c0020be
:1053f400814f0101034bb3f8b00280f40060c0f3a5
:10540400c0207047a03f002037b51a200df10301da
:105414002cf04af99df80330022b14d1fff7eaff70
:1054240088b90a4b1b7973b1fef776fd01a90546cd
:1054340035202cf039f9019bab4204d80120fff749
:105444002ff903b030bd0020f9e700bf604200200f
:105454000e4a0f4910b500231446d058c8500433df
:105464004c2bfad10b4b1321198592f860304bb1b8
:1054740035f010f9084b94f854201a71bde8104027
:10548400fff7c2bf35f00cf9f4e700bf344701441d
:1054940020400020040801206042002073b51a2037
:1054a4000df103012cf000f9fff7a4ff374cf8b914
:1054b4009df80330022b21460cbf352036202cf0fa
:1054c400f3f80123237135f0f1f848b32568002d72
:1054d40047d0fef721fd2368834205460bd82af006
:1054e40029fefef765fd0420fef7f8f802b070bd52
:1054f40000232360e5e71b1a01a92e2001932ff056
:10550400e1fd019b13b92af015feece72068401b6e
:1055140083423cbf00222271834294bf23602060f7
:105524000020fef7dbf81a4b1848012583f8c65013
:1055340035f094f99df80330022b24d1fff75aff7c
:1055440008bb2379fbb1fef7e7fc1049064635207a
:105554002cf0aaf82368b34215d82846fff7a0f820
:10556400c4e74ff0ff3301a92e2001932ff0aafdc9
:10557400019b002bc7d0b3f1ff3f18bf1d4600238a
:1055840025602371cce70020e8e700bf60420020db
:10559400a03f002073b51a200df105012cf084f80a
:1055a4009df80530444c022b03d194f8c930002bec
:1055b4003bd1d4f88060002e76d00df106011a207c
:1055c4002cf072f894f8c6501db18020fef786f8ce
:1055d40025e0fff763fb50bb0420fef77ff89df83e
:1055e4000630022b01d0002519e094f8c750002d95
:1055f400f9d135f05bf80028f5d0d4f8a0310033a8
:1056040018bf01230df1070138208df807302ff062
:1056140059fd9df80730002be5d0fef7c9fcd4f8fe
:10562400843013b10db1fef7fdfc02b070bd234b05
:105634001b889bb20bb10420c8e79df80630022bef
:1056440028d194f8c7302bbb35f030f8e0b1d4f84a
:10565400a031003318bf01230df1070138208df864
:1056640007302ff02ffd94f8ca309df8076033b946
:105674002eb1fef79dfc94f8c930002bdbd12af043
:1056840091fd26b984f8ca600d482df055fcfff74a
:1056940005ffa8e70023c4f890300a480a4bc4f871
:1056a400943024f0c5f9bae7d4f88450002db6d06c
:1056b400fef7b8fc3546b2e7a03f00209e0f01205c
:1056c4004c40002028400020d156010110b5047838
:1056d40064b9f8f733fb2af065fd074880f8ca403f
:1056e400ac302df029fcbde81040d7e62046bde8db
:1056f4001040fdf7f3bf00bfa03f002070b519496b
:10570400194c91f86c00227803460133dbb2062b66
:1057140028bf002322fa03f5ed071fd581f86c306a
:10572400012199404a402270104a02eb83035b68ce
:1057340098472378abb10e4c2388db0611d428f0ac
:10574400d1f8238843f01003238028f0dbf8094bb9
:1057540009481b68bde870401b6918479842d4d1ba
:10576400e7e770bd04080120e81f0120c8bb04015d
:105774009e0f012054320020583200200048704708
:10578400902c002013b542f210702af0fbfc6946fd
:10579400044633202bf088ffdde90023134311d0a6
:1057a40009480a4a026104f51c5410348460084c08
:1057b4000123037384f876302df094fb00232367d0
:1057c400a4f8743002b010bd6c420020eb650101f6
:1057d40004080120f0b59f4d95f875402e6d012cfd
:1057e40085b004d00b2c00f00b8105b0f0bdb5f8ea
:1057f400b032d80740f1028105f154013e202bf06c
:1058040053fff2f76ffc02a906464ff487708df838
:1058140007402bf049ff0df1050138202bf044ff20
:105824000df1060139208c4c2bf03eff0df10701e0
:1058340037202bf039ffbdf80830a4f80330237863
:105844009df805209df8070066f3020362f3c30385
:1058540023702388d4f80a2003f01f0343f4804301
:1058640023801f469df8063063f3041747236371b2
:1058740002f07f422b231a43c4f80a20a27be38060
:1058840000284ff00c0363f30712617b277014bfe9
:105894000123042363f30302072363f3071180f056
:1058a400010363f303016173a378a273b11e18bfec
:1058b400012117f0070f61f3410302f00f020cbf3f
:1058c4000121002161f30003511e4a424a41022e84
:1058d40062f382030cbf0246012262f3c303002e6b
:1058e40014bf0122002203f08f0362f3c71395f85b
:1058f4005470a37014bf4ff430534ff431532381c9
:1059040085f8c7006fb9012685f8556085f8586099
:10591400f2f7dafb50ea01030ed0a5f8567085f8c9
:105924005460237803f00703013b012b0cd84b4947
:105934003b202bf0b9fe07e023785b071ed105233b
:10594400a5f8566085f85430a3786ff38613a370d6
:105954004ff48063a5f8b032fff732fa237803f0ee
:105964000703022b01d0fff70dfff4f701ff2378a3
:1059740013f0070327d1fef70bf936e70df1070102
:1059840024202bf091fe237803f00703012b0ad186
:105994009df807303bb1052385f8543040f20113dc
:1059a400a5f85630bde702a933202bf07dfedde9d2
:1059b4000223134301d00323eee7f2f757f900283b
:1059c400f9d10223e8e7012b12d10df107012420bc
:1059d4002bf06afe9df807306bb14ff0ff324ff0a9
:1059e400ff3302a92a20cde902232bf089fec2e766
:1059f400022b7ff4faaefef763f8f6e68023b37663
:105a0400f2f776fb3072f2f70ff97081f2f750fb80
:105a1400b081f2f759fbc6e90401f2f743fb104cdd
:105a24003083204633f04efe336a06f1080098476f
:105a3400094b1b7803f00703022b06d1b37e23b96d
:105a44002379012b01d0fef70ff80023eb65fdf756
:105a5400c1fecae6a03f0020902c00201440002084
