:020000040000fa
:10000000f0ff012099a8010185c5010189c5010101
:1000100091c5010195c5010199c5010100000000cc
:100020000000000000000000000000005940010135
:100030008dc5010100000000bd4001012541010105
:10004000a75f0101819b0101a75f010141510101ee
:10005000a75f0101a75f0101a75f0101a75f010180
:10006000a75f0101a75f0101a75f0101a75f010170
:10007000c9fe0001a75f0101a75f0101a75f0101a0
:10008000a75f0101a75f0101a75f0101158f0101b2
:10009000a75f0101a75f0101a75f0101a75f010140
:1000a000a75f0101a75f0101a75f0101a75f010130
:1000b000a75f0101a75f0101557e0101a75f010153
:1000c000a75f0101cd9b0101a75f0101a75f0101ae
:1000d000a75f0101a75f0101a75f0101a75f010100
:020000040000fa
:020000040004f6
:045f8800ffff000017
:020000040000fa
:020000040004f6
:045f8c0000400e843f
:020000040000fa
:020000040004f6
:045f900038fc745f06
:020000040000fa
:020000040004f6
:045f94003844121467
:020000040000fa
:020000040004f6
:045f98000300007191
:020000040000fa
:020000040004f6
:045f9c000000000001
:020000040000fa
:020000040004f6
:045fbc0000000010d1
:020000040000fa
:020000040100f9
:10400000f8b500bff8bc08bc9e467047f1bb010183
:10401000f8b500bff8bc08bc9e467047cdbb010197
:020000040000fa
:020000040100f9
:08402000580e01000100000030
:020000040000fa
:020000040100f9
:1040280070b4d200db0020fa03f320fa02f2039cfa
:10403800ddb2d2b2c90082ea050320fa01f1e40038
:104048005940e040c4b2c9b284ea010646f3c0133d
:1040580003f01b0385ea040083ea46035840c3b211
:1040680043f3c01000f01b00544080ea4300604056
:10407800c0b240f3c01303f01b0383ea400048407a
:10408800c0b270bc704700bf2de9f04fd0f8f030d7
:104098004fea530e8db00ef1ff33062b099200f252
:1040a8001a82d1f800a0d1f804908f68d1f80cc01a
:1040b8000168d0e902239afa8afa8aea0104416877
:1040c80099fa89f99cfa8cfc89ea01098cea030cb3
:1040d80000f1100100f12003009301eb4e133fbae9
:1040e80008934fea4e030b9157400a93a246dd4dc1
:1040f8004fea1a645ffa8cf32e5deb5c5ffa8af084
:10410800c9f307412c5c4fea1962c7f3072043ea59
:104118000663d44eaa5c16f800806d5cf8b24feacc
:104128001c6144ea0264715c365cce483a0ec7f3ff
:104138000747805ccb4a46ea0166d25dc94f5ffa01
:1041480089f1c9f3072917f801e017f809b0caf38c
:104158000741caf3072a17f80190ccf307414eea42
:10416800006e17f80a0017f801a043ea0543ccf3dc
:10417800072c43ea08234eea0a4e17f80c104eeab9
:10418800002ec3f3072746ea094c44ea0242c3f368
:1041980007491c0edbb2049384ea030acef30743f3
:1041a80089ea07060193cef3072386ea04000693fb
:1041b800049b4cea0b2c80ea4a004af3c01b8aeaab
:1041c800070a8aea460a5f4046f3c016049b89ea52
:1041d800040406f01b0663408aea060accf30726a5
:1041e800059689ea0709009e83ea470347f3c01743
:1041f8000bf01b0b07f01b0780ea0b0089ea440948
:104208007b4044f3c01456f8107c069e04f01b044f
:10421800c0b242ea0122784089ea04094fea1e6bdb
:10422800c2f30748c2f3072580ea09695ffa8efee0
:104238000198cdf808e088ea0507110e4fea1c64da
:10424800d2b2ccf3074e5ffa8afa5ffa8cfccdf84b
:104258000ce0cdf810c080ea060e81ea020c87ea6d
:104268000100dbb289ea0a4a80ea4c008aea032a9a
:104278004cf3c0138cea050c8cea470c554047f305
:10428800c01788ea010103f01b0388ea050807f054
:104298001b0788ea410858404a408cea070c059bee
:1042a800039f029e41f3c01101f01b0188ea01013e
:1042b80082ea450287ea030845f3c015009b05f02a
:1042c8001b056a4053f80c3c049d8bea0606d2b2e3
:1042d800c0b2584007928eea0b0346f3c01280ea38
:1042e800016183ea46035ffa8cfc02f01b02019825
:1042f80081ea0c495a400299069b80ea0b075e4006
:1043080081ea03000199d3b286ea4e064ef3c01e35
:1043180081ea000b01930299039a0ef01b03654092
:10432800734087ea010e029345f3c01188ea04033b
:1043380083ea450301f01b01049e4b4005998bea73
:10434800470b47f3c01707f01b074d407140544017
:104358008bea070b82ea010787ea440784ea060c1e
:1043680044f3c01404f01b047c40009f019e57f8de
:10437800082c57f8047c564032469df8086082eabb
:104388000b6282ea0646dbb2009a7b4085ea480562
:1043980083ea046448f3c01802f11003079a0093f3
:1043a8008eea400e8cea410c08f01b0840f3c0105e
:1043b80041f3c01100f01b0085ea080501f01b015c
:1043c80089ea0229089a8eea0000edb28cea010c0b
:1043d800c0b25ffa8cfc84ea05449a4286ea002758
:1043e80084ea0c2c7ff483ae0a9b1e4e0b9d03f1ce
:1043f8008053013b1b015ffa8cf4e858e918355dde
:10440800d1f804805ffa8af2454050463346b45cde
:10441800000e5ffa89f6185c13f806b01e4688eaa3
:104428000403fcb2d1e9022116f804e08eea010e79
:104438004fea19618bea020b745c83ea04634fea62
:104448001c64c9f30741345d3a0e8eea046ec7f363
:104458000744c7f3072785ea006516f80780705cec
:1044680002e000bf48660101b25c345dccf3074747
:10447800c9f30729ccf3072c16f809108bea026256
:1044880085ea004016f807b016f80c70134ecaf308
:104498000745caf3072a755d16f80ac083ea04437c
:1044a80082ea0b4b8eea054e83ea072780ea08204a
:1044b800099b8bea0c2b8eea012100ba3fba9bfac2
:1044c8008bfb09ba18605f60c3f808b0d960002098
:1044d8000db0bde8f08f6ff0e100f9e74866010123
:1044e8002de9f04fd0f8f0305b085c1e062c8bb03d
:1044f80000f2cb8107460992d7e90252d1f800a011
:10450800d1f804c0d1f80890c8680392d7e900161a
:104518009afa8afa07f110029cfa8cfc8aea010ad4
:104528000399089299fa89f902eb431200ba8ceac6
:1045380006085b00d64c069289ea0509484007f14f
:10454800200b0793cdf80c80039b5bf8105c5bf89d
:10455800041c54fa83f204eb1a6392f8007193f87e
:1045680000617d4085ea0665c9f3072754fa8af693
:10457800274454fa89fe96f8006197f80071049769
:104588005be90323c0f3074c9ef800814e4054fac0
:1045980080f704eb1061a444c0f3072020449cf882
:1045a80000c190f800e197f80071049891f80011a3
:1045b80088ea0208039a85ea0c4504eb12625f4018
:1045c80085ea0020caf3074ccaf307230490a444e1
:1045d800039892f800219cf800a1234488ea02621b
:1045e80093f800c1c0f3074804eb1963c9f30749fe
:1045f800a044a144c0f3072093f8003198f8005173
:1046080099f80091204486ea016190f800810498a5
:1046180087ea0363032683ea054781ea094582eab4
:104628000a4a85ea082501230222002100968aea1f
:104638000e2987ea0c270595fff7f2fc049d022353
:10464800804600932846314600230122fff7e8fc04
:1046580001234fea004c00932846334600220221ea
:104668008cea0868fff7dcfc0023824600932846a2
:10467800324602230121fff7d3fc012388ea000810
:104688000222484600210096fff7cafc022305468d
:1046980000934846314600230122fff7c1fc01235d
:1046a8004fea004c009348463346002202218cea28
:1046b8000565fff7b5fc002300933246022301216c
:1046c80088ea0a2a80464846fff7aafc454085ea58
:1046d8000825012338460222002100960395fff79a
:1046e8009ffc0223054600933846314600230122e9
:1046f800fff796fc012300934fea004933463846fa
:1047080000220221fff78cfc002389ea0569009347
:1047180005463246384602230121fff781fcddf8c1
:104728001480009689ea00090123022200214046ec
:10473800fff776fc0223009331460023012289ea21
:10474800052905464046fff76bfc01230704009343
:104758000022334602214046fff762fc002387ea25
:104768000565009307460223324640460121fff7bc
:1047780057fc069b0bf1100b68405b4580ea07204d
:104788007ff4e2ae079bddf80c80089903f18053b3
:10479800013b1b0154fa89f5ca1854fa88f6c9581e
:1047a80096f80071536895f80061734054fa8af6d8
:1047b800d2e9025204eb186e96f800619ef800e107
:1047c80054fa80fc7940564004eb1a67c0f307425c
:1047d80022449cf800c197f8007183ea0e6304eb49
:1047e800106ec0f3072020448cea050592f800c13a
:1047f80081ea0761caf30722caf3074781ea0c4135
:104808009ef800a190f800e1c9f3072c04eb1960a9
:10481800c9f30749a14490f8000186ea0a6699f8a5
:1048280000a1c8f30749274485ea0065a144c8f3f5
:1048380007202244a444044497f8007199f8000121
:1048480092f800219cf800c194f8004183ea0743dc
:1048580085ea004586ea0a4683ea0e2e81ea0c2c90
:10486800099b85ea022286ea04269cfa8cfc9efab9
:104878008efe12ba36bac3f800c0c3f804e09a60d4
:10488800de6000200bb0bde8f08f6ff0e100f9e7c3
:10489800486601012de9f04f034689b04ff0000e3c
:1048a800cde90610d0e90047de688068cdf80ce055
:1048b800a1f108030493f246f346049bd3e90215d9
:1048c800083305934ff0400c029100bf00f001033c
:1048d800009300230193dde90089029a0399d8f136
:1048e80000084feae57369eb4909921809f0614835
:1048f800029203ea070903ea040281ea02016d4110
:10490800e20789ea0b0b640803ea0009bcf1010c11
:1049180003ea06034fea500044eac77440eac67047
:10492800039189ea0e0e88ea570783ea0a0a42eadf
:104938005606cbd1069b049a934207d1079bc3e93d
:10494800001bc3e902ea09b0bde8f08f059b049398
:10495800b3e700bf2de9f041d0f834710237804643
:104968000c4615464fea131610d1beb104eb0616d5
:1049780001e0b44212d0224629464046fff784fba4
:10498800103410350028f4d0bde8f08104f0b2f8f6
:104998006ff487739842e8d0bde8f0810020bde845
:1049a800f08100bf0f2af8b5164607460d461c468b
:1049b8001bd900bf44ea0503990719d1231f291ff2
:1049c80004f10c0c53f8042f51f8040f9c4582eaab
:1049d80000021a60f6d1224621463846fff754fbfa
:1049e8001035103e18b90f2ee4d87eb93046f8bd00
:1049f800631e691e04f10f0c13f8012f11f8010f43
:104a0800634582ea00021a70f6d1e4e746ea040236
:104a18002a439207234613d1b0080ad0043d04eb79
:104a28008000196855f8042f4a4043f8042b98422f
:104a3800f7d1384622462146bde8f840fff724bba7
:104a4800631e013d1e4400bf13f8012f15f8011f16
:104a5800b34282ea01021a70f6d1eae72de9f0477b
:104a6800b2f57f4f1f785e78c2f30725d4b220d203
:104a78006f4066400d2a1f705e7003f1020570d802
:104a880015430d43ad070c4654d192080bd001ebea
:104a980082029d1e54f8046b55f8041f944281ea63
:104aa80006012960f6d11a461946bde8f047fff716
:104ab800ebbaff4393f8048093f802e093f803c03d
:104ac8001f705f7985ea08057c4086f0fe068eea4d
:104ad800126e8cea124c5e7083f802e083f803c011
:104ae8001d715c710a274ff0060808f1ff344d1e4e
:104af8001e19844605eb070e15f8010f16f8014f2d
:104b0800ae4584ea00043470f6d10d46144660467a
:104b18001a46194666469946fff7b6faf8b9a4f157
:104b2800100212eb08021ad04b46e9193046bde8cc
:104b3800f04737e7002ab6d05c1c0139224400bf91
:104b480014f8015f11f8016fa24285ea0605257085
:104b5800f6d11a461946bde8f047fff795babde801
:104b6800f0870e274ff00208bfe700bfe0b100f161
:104b7800f80379b170b4ca680e684d688c68c0f8db
:104b8800f8605d609c60da600023c0f8843170bc16
:104b980018467047c0f8f81059609960d96000232a
:104ba800c0f88431184670476ff0ac00704700bffa
:104bb8002de9f04f1e4685b0d0f83431ddf83c9031
:104bc800054602330e980090884617462cd0202ab6
:104bd80025d805f5c47017f0a7fcb9f1000f27d147
:104be800bc08a21dc5e93c270023c5f8843141460d
:104bf8003a46284617f098fc4cb1291f002200bffe
:104c080051f8043f01321bbaa2420b60f8d3182fa7
:104c180016d0202f00f0c180102f00f08b806ff08d
:104c2800ac0005b0bde8f08fb9f1000f00f00981c4
:104c3800102f00f01081182fd2d0202fd0d0eee7ff
:104c4800904f05f1a808a7f5017329464ff0807425
:104c5800a946b44607e00a6954406040c1e90a40e1
:104c680057f8044b183148690d68020ec6b29a5cb1
:104c780013f806e0c0f307466a4082ea0e2213f8ea
:104c880006e04d68c0f3072682ea0e629e5d82ea5e
:104c9800064262408a616a408d68cc6882ea0506ed
:104ca80074404145c1e907264c62d4d166464d4659
:104cb800009b0021012b8df80c108df80d108df83c
:104cc8000e108df80f1006d03146284605b0bde805
:104cd800f04ffff74bbfd5f8f0309f001ad005eb27
:104ce80003132a461c68106814605c6818605068d2
:104cf80054609c6858609068946004319860d868e3
:104d0800d468d060781a8142dc6002f11002a3f105
:104d18001003e7d30023314628468df80c308df870
:104d28000d308df80e308df80f3005b0bde8f04f1e
:104d3800fff71cbf54484ff0807205f1900ea0f5a4
:104d480000732c469446b046aa4602e050f804cfb9
:104d58001034e168276865680a0eceb29a5c13f8c9
:104d680006905740c1f3074687ea0922c1f307278f
:104d78009e5ddf5d82ea066282ea074282ea0c02f1
:104d8800a76822616a405740794074456261c4e966
:104d98000671dbd1464655468ae7dff8e8c001953b
:104da8004ff0807705f1c00eacf5017329463c46fb
:104db800b0461ae00a6913f80b7013f80aa013f842
:104dc80009909e5d4c69574087ea0a6787ea094758
:104dd80087ea06278a690f637c4062405040c1e930
:104de8000e204c635cf8044b2031c8690a684d6892
:104df800070ec6b2df5d13f806907a40c0f3074687
:104e080082ea0927c0f307229e5d9a5c87ea066753
:104e180087ea02476740d1e902420f626f407c404f
:104e2800624071455ffa82fb4fea126ac2f3074992
:104e3800c2f30726c1e90974ca62bbd14646019d7f
:104e480036e79408a31df02ac5f88491c5e93c32d9
:104e58007ff6cdaee3e600220a23c5f8f470c5f864
:104e68008421c5f8f030d8f80010d8f80420d8f814
:104e78000830d8f80c00e86029606a60ab60042448
:104e8800bbe600bf4c6801014868010130b583b03a
:104e980048b1f02a07d8069d0124cde90054fff750
:104ea80087fe03b030bd6ff0ac00fae730b583b0d1
:104eb80048b1f02a07d8069d0024cde90054fff731
:104ec80077fe03b030bd6ff0ac00fae713460a4630
:104ed8001946fff7d9b800bf13460a461946fff727
:104ee800ffba00bf2de9f041002855d0002953d062
:104ef800002a51d0b3b3d0f8344102340d461646d7
:104f080007464fea131830d1b8f1000f2ad006eb44
:104f1800081807f1f80400bf44ea06039b072cd1e0
:104f280007f1f403311f07f5827c00bf53f8042f03
:104f380051f8040f9c4582ea00021a60f6d1224615
:104f480021463846fff7a0f868b91036216862682c
:104f5800a368e068e860464529606a60ab6005f1cf
:104f68001005d9d10020bde8f08103f0ddfc6ff415
:104f780087739842c8d0bde8f08107f1f703711e26
:104f880007f2071c13f8012f11f8010f634582ea95
:104f980000021a70f6d1d2e76ff0ac00e3e700bf69
:104fa800002865d0002963d0002a61d0002b62d088
:104fb80013f00f0f5cd12de9f041d0f834410234e1
:104fc8000e461546984607463bd15fea181835d075
:104fd80005eb081807f5847429686a68e868ab68ff
:104fe800a360e06021606260214632463846fff7e0
:104ff80077fa20bb07f1f80343ea0602920728d1a3
:10500800321f07f1f40006f10c0e00bf52f8041f1e
:1050180050f804cf724581ea0c011160f6d11035c1
:10502800d4f800c06068a168e268c7f8f8c04545d0
:1050380006f1100658609960da60cdd10020bde80d
:10504800f08103f0bdfc6ff487739842bdd0bde8d2
:10505800f081721e07f1f70006f10f0e12f8011f1a
:1050680010f801cf724581ea0c011170f6d1d6e72c
:105078006ff0ac0070470020704700bf002800f0b8
:105088001d81002900f01a81002a00f017812de9fe
:10509800f04fd0f83441023485b0894615461f4692
:1050a80080465cd1d8f8843108f5847ac3f11002bf
:1050b8005244d34683b1002f5ad015f8013b12f859
:1050c800011b4b4009f8013bd8f88431013b013ff3
:1050d800c8f88431002beed14d4500f090800f2f99
:1050e80047d93e09701e08f1f804ac46b646494651
:1050f80062682568a368e668ce604a600d608b60c8
:105108005246103112f8013d0133dbb213700bb96e
:10511800a242f7d110f1ff30ead276463401654653
:1051280023464a4649464046fff714fc45ea090328
:105138009b0753d1a9f10403e618291f53f8042f3c
:1051480051f8040f9e4282ea00021a60f6d1254403
:10515800a1443f1bbfb9002005b0bde8f08f03f0a4
:105168007dfc6ff4877398429cd005b0bde8f08f42
:1051780000276e46002300bf06f8013b04aa9642aa
:10518800fad1002fe7d008f1f804214652464046ec
:10519800fef77aff002840f0898000bf1af8013d29
:1051a8000133dbb28af800300bb95445f6d107f564
:1051b800847110234144c8f8843100bf1bf8012bc7
:1051c80015f8013b534009f8013bd8f884318b4569
:1051d80003f1ff33c8f88431f0d1bce709f1ff339c
:1051e8001e19691e13f8012f11f8010fb34282ea44
:1051f80000021a70f6d12544a1443f1baae70f2fdd
:105208005fd90c3508f1f8046e463246214640460f
:10521800fef73aff00283fd1a5f10c0c1cf0030f54
:10522800324629d1a5f11001106851f8043f4340d6
:10523800a94242f8043bf7d1b646bee80f00ccf8c5
:105248000820ccf80000ccf80410ccf80c305246fa
:1052580012f8013d0133dbb213700bb9a242f7d14a
:10526800103f00230f2f05f10409c8f8843105f118
:105278001005cad84d467de70df1ff33a5f10d01a4
:105288000df10f0e13f8012f11f8010f734582ea83
:1052980000021a70f6d1cfe7002300bf06f8013be1
:1052a80004aa9642fad105b0bde8f08f6b460022f9
:1052b80003f8012b04a98b42fad156e76ff0ac0032
:1052c8007047a9466e4655e7f0b522f00803102b43
:1052d80087b001d0202a26d128b3002615460122fe
:1052e800cde9006202ab2a46cde90266cde9046643
:1052f8000f460446fff75cfc064660b1d4f834312b
:10530800023305d02a46394604f5c47017f00cf963
:10531800304607b0f0bd02a904f592722046fef7a8
:10532800b3fe0646eae76ff0ac06f1e72de9f04f69
:10533800002691b00027cde90467cde9066700286b
:1053480000f08f801d4600f592730c46d0f82401ba
:10535800596892469a68db6808ae0fc6dde90912fb
:105368000b9b00ba09ba12ba1bbacde90810cde9ed
:105378000a32baf1000f77d156465446d0465746fe
:105388000df110091a9b002b49d0002d47d003f0ce
:105398000f0300931a9b5fea131b00f010810cabfc
:1053a800cdf804a0bc4605eb0b1b47469a4603e024
:1053b800dde9047cdde9066428686968aa68eb68a9
:1053c800d646aee80f00dde90c01dde90e2391fabf
:1053d80081fe90fa80f812ba1bba8cea080c87eaa8
:1053e8000e0754405e40103508a94846cdf814c051
:1053f800cdf834800497cdf830e007940f920696e4
:105408000e93fff747faab45d2d1dde90487dde912
:105418000664ddf804a0009b002b40f09f801a9ad8
:1054280088eaca0386eac20684ea527408a948468a
:1054380087ea5a77cde90664cde90437fff72afaf7
:10544800dde90440dde9062326ba05ba14ba1bba19
:105458004946dde91b02cde90456cde9063417f0cb
:1054680063f811b0bde8f08f002c00f09b800af0c3
:105478000f035fea1a16009300f09a80002704ebe6
:1054880006130caacde901a50393be463e460df1cd
:10549800100998463d46924603e0dde90456dde9e9
:1054a800067e20686168a268e368d446ace80f000d
:1054b800dde90c01dde90e2391fa81fc90fa80fb0d
:1054c80012ba1bba85ea0c058eea020e5f40103448
:1054d80086ea0b0608a948460596cdf834b0049527
:1054e800cdf830c0cdf81ce00f9206970e93fff769
:1054f800d1f9a045d1d1dde901a5dde90487dde9d0
:105508000664009b002b3ff43daf0cab4ff0000c42
:10551800009acdf830c0cdf834c003990093c3e9a0
:1055280002cc184617f000f8dde90c01dde90e237e
:1055380000ba09ba12ba1bba474081ea08085440af
:105548005e4008a94846cde90487cde90664fff71f
:10555800a1f9dde90487dde9066413e71a4659462f
:1055680000230ca8cde90c33cde90e3316f0dcff8f
:10557800dde90c01dde90e2300ba09ba12ba1bba3b
:10558800474088ea010554405e4008a94846cde9ed
:105598000457cde90664fff77df9dde90487dde905
:1055a80006643ce72646a04627460df11009e9e6c1
:1055b8000394b046344637460df11009a1e7ab46cf
:1055c80029e700bf2de9f04f95b0dde91eb7079335
:1055d800002800f07981002f00f07681219d0c3d94
:1055e800042d00f27181d0f83451023588461446f2
:1055f800814613d0239d0595229d0495219d0395f1
:10560800209dcdf800b0cde9017503f045f86ff4a1
:105618008773984202d015b0bde8f08f079b0c2f16
:105628004fea131a00f0bd800022102108ae00973f
:105638005b46cde9016148461146fff777fe96e8db
:105648000f000cafa04587e80f0000f0c380079b50
:105658000f2b40f2bf80baf1000f00f038810af139
:10566800010a4fea0a1a08eb0a0e08f1100c0df1ac
:105678002c0b3a4612f8013d0133dbb213700bb91b
:105688005a45f7d135460fcdacf110054cf8100c42
:105698000cf1100cf4456960aa60eb60e9d1aaf13d
:1056a800100a08eb0a05079b23f00f0ab8f1000f50
:1056b80005d05346424641464846fff74bf944ea6f
:1056c80008039a0740f0d08008eb0a0cacf1040cf0
:1056d800a8f10403211f00bf53f8042f51f8040f49
:1056e8009c4582ea00021a60f6d1a244079b13f097
:1056f8000f0429d03a460ba912f8013d0133dbb259
:1057080013700bb99142f7d1314610aa4846fef7fb
:10571800bbfc00287ff47faf10ab43ea04022a43a6
:1057280051460a43900740f0b080a4080cd0043dcd
:105738000aeb840451f8040b53f8042b8c4282ead8
:10574800000245f8042ff5d1209b33b3219b029327
:10575800209b0193079b0093dde9221248464346ac
:10576800fff7e4fd3946484610aafef78dfc0028ed
:105778007ff451afdde920321a43920710a940f0b7
:105788009480219a22f003041c441a6851f8040bef
:10579800424043f8042b9c42f7d1002015b0bde8e5
:1057a800f08f08aedbf80000dbf80410dbf8082007
:1057b800334607c300230122adf82c308df82e3074
:1057c8008df82f2096e80f000cafa04587e80f0052
:1057d8007ff43daf4546baf1000f7ad004eb0a1ac0
:1057e8000df12c0b3a4600bf12f8013d0133dbb234
:1057f80013700bb95a45f7d110aa31464846fef73f
:1058080043fc00287ff407af45ea04039b0710a96f
:1058180014d1231f281f04f10c0c00bf53f8042fc8
:1058280051f804eb634582ea0e0240f8042ff5d1e3
:105838001034544505f11005d4d157e70df13f0355
:10584800601e691e0df14f0c13f8012f10f801efbf
:10585800634582ea0e0201f8012ff5d11034544550
:1058680005f11005bed141e70af1ff3cc44408f137
:10587800ff33611e13f8012f11f8010f634582ea07
:1058880000021a70f6d1a24430e7013c5444013dad
:105898000af1ff3a1af8011f13f8012ba24582ea10
:1058a800010205f8012ff5d14ee7209b219a013b13
:1058b8009a1800bf13f8014f11f8010b9a4280eab9
:1058c80004001870f6d168e76ff0ac00a3e645460f
:1058d800e9e6a2460ae700bf2de9f04f9bb09846db
:1058e800dde9249a279b002800f00681b9f1000f12
:1058f80000f002810c4615460746b8f1000f40f04b
:10590800f780269a002a00f0f7805a1e0f2a08927c
:1059180000f2f280baf1000f00f0ee80d7f83421df
:10592800023218d0299a0592289acdf80090cde92c
:105938000332269b2a46cde901a321464346384631
:1059480002f0fcfe6ff487739842064603d0304697
:105958001bb0bde8f08fbaf10c0f00f0d0800aab95
:10596800102100220793cde900a302914b4611466e
:105978003846fff7dbfc1023029312abdde928124f
:10598800019338462b46cdf80080fff7cffc16aac6
:1059980007993846fef778fb06460028d7d1129ab1
:1059a80016981399179b424012921898149a4b40d4
:1059b80050401393159a199ba54282ea0302cde938
:1059c80014024fea181300f0ac80b8f10f0f40f240
:1059d800a880002b00f010811b0104f1100e099320
:1059e8000eeb030b0df1340aa4460df138094a46b3
:1059f80012f8013d0133dbb213700bb99245f7d1b0
:105a0800079c0fccaef110044ef8100c0ef1100ede
:105a1800f3456160a260e360e9d1099b6344644691
:105a2800994628f00f0b2cb15b4622462146384692
:105a3800fef790ff45ea04039b0740f0c080043c52
:105a48000beb04002a1f00bf54f8043f52f8041f50
:105a5800a04283ea01032360f6d1ab444c4618f018
:105a68000f082dd00df138094a460da912f8013d4d
:105a78000133dbb213700bb99142f7d138464a466d
:105a88000799fef701fb002840f0948048ea0b02d2
:105a9800920759464b4640f0a1805fea980518bf27
:105aa8000beb850507d01a6851f8040b42408d426c
:105ab80043f8042bf7d142464946204616f034fdf8
:105ac800269a089b1344184612a9531e13f8014f2f
:105ad80011f8012b984282ea040246ea0206f5d13f
:105ae8007642f61726f0b30630461bb0bde8f08fb5
:105af80012b100297ff405af6ff0ac0627e7d9f89b
:105b08000820d9f80000d9f804100aab079307c396
:105b180000230122adf834308df836308df8372067
:105b280029e7ab46002b9ad005eb031b0df1340a8d
:105b38000df138094a4600bf12f8013d0133dbb2c6
:105b480013700bb95245f7d14a4607993846fef704
:105b58009bfa78bb44ea05039807494614d12a1fe3
:105b6800201f05f10c0c00bf52f8043f51f804eb5c
:105b7800624583ea0e0340f8043ff5d110355d45d0
:105b880004f11004d6d16ae70df13702681e611ed0
:105b98000df1470c12f8013f10f801ef624583ea56
:105ba8000e0301f8013ff5d110355d4504f11004ed
:105bb800c0d154e7064630461bb0bde8f08f013c23
:105bc80004eb0b006a1e00bf14f8013f12f8011f16
:105bd800a04283ea01032370f6d13ee708f1ff30c3
:105be80058440bf1ff3b1a781bf8011f4a405845ef
:105bf80003f8012bf7d15ee7a14612e7d0b1c9b18e
:105c080038b522f00403082b04d0102a02d06ff014
:105c1800ac0038bd04461546f83016f085fcb5f1e1
:105c28000c0318bf4ff0ff330020c4e94735c4f810
:105c3800180138bd6ff0ac00704700bf70b5049e06
:105c480030b12eb121f00404082c04d0102902d060
:105c58006ff0ac0070bdcab1042bf9d11268c0f85e
:105c6800f82000f1f8020d460446d1183046ea1a29
:105c780004f07cfd0028edd1b5f10c0318bf4ff0fe
:105c8800ff33c4f81801c4e9473570bd00f1f802c4
:105c9800002be8d0dce700bf2de9f04387b00f9c6c
:105ca80040b10bb132b129b10e9d1db1d0f82051d0
:105cb800a54204d06ff0ac0007b0bde8f083129d98
:105cc800002d45d0d0f818510135c0f8185135b914
:105cd800d0f81c510135c0f81c51002d3cd000f102
:105ce800f808054617468946224641460e981e463c
:105cf80016f01afc139b0593129b0493119b0393b4
:105d0800109bcdf80080cde901433a463346494619
:105d18002846fff757fc0028ced1621eccd418f8cd
:105d280002300133dbb208f80230002bc4d104f191
:105d3800f7026ff0f8012a44491b06e012f8013d0a
:105d48000133dbb21370002bb6d1d142f6d5b3e7dd
:105d5800139d002daed1b5e70048ade7fcfeffff6f
:105d68002de9f043f5b0dde97e56809f7c9c0797ce
:105d780048b342b324b335b32eb3079f1fb3994634
:105d8800904600230a466ff0010c014609a8cdf899
:105d980058c173935793fff797fab8b16baa73acce
:105da800002100bf02f8011ba242fbd109aa002171
:105db80002f8011b74ab9a42fad175b0bde8f083c2
:105dc8007d9f002fd7d06ff0ac00f6e7079b0093bc
:105dd80002460346494609a8fff730ff0028ddd1ef
:105de8007d9b0246cde9044301460346cde90256b0
:105df800cde9008909a8fff74fffcfe72de9f0416a
:105e0800f2b0dde97a47789d48b342b325b334b39d
:105e18007e1e0f2e23d89846164600230a466ff09a
:105e2800010c014607a8cdf850c171935593fff7af
:105e38004bfab8b169aa71ac002100bf02f8011b86
:105e4800a242fbd107aa002102f8011b72ab9a42b9
:105e5800fad172b0bde8f081799e002ed7d06ff0ec
:105e6800ac00f6e7799b0246cde9045301460346a8
:105e7800cde90247cde9006807a8fff72dfdd9e76e
:105e880010b109b1fff720ba6ff0ac00704700bf3e
:105e980090b130b587b01c460a9d0091cde9044504
:105ea8000c9c03940b9c0023cde9012419461a4647
:105eb800fff788fb07b030bd6ff0ac00704700bf3c
:105ec80022f00803102b01d0202a0ad148b110b5be
:105ed800002382b00124cde90034fef769fe02b048
:105ee80010bd6ff0ac007047102809d8064b23fa94
:105ef80000f010f0010f14bf00206ff0ac007047e5
:105f08006ff0ac00704700bf505501002de9f04f0d
:105f180091b0dde91a5406911d9e002800f08f808b
:105f280093461f468146002b40f08580002d00f0e7
:105f380086801c9b002b00f08280e31f062b7ed8f6
:105f4800102e7cd83046fff7cfff002877d1d9f83c
:105f58003431023317d01f9b05931e9b0095cde962
:105f680003631c9b0699cde901435a463b464846c4
:105f780002f036fc6ff487739842824603d050468d
:105f880011b0bde8f08f2946224600250df13100f9
:105f9800e4b2cde90855cde90a5516f0c5fa1f9abd
:105fa800b31ec4f10e0803ebd373aa425ffa88f854
:105fb8004fea630308ebc30314bf40222a461a447e
:105fc800c4f10f042b46e4b28df8302010a8ff214d
:105fd80079b301eac302032b27fa02f228d80a4050
:105fe8000133a34200f8012df2d10cad294608aacd
:105ff8004846fef749f8824620bb1f9b002b40f01d
:10600800bd8057b308ab3a4659464846fef7cafc26
:10601800824610b308ab002203f8012bab42fbd138
:10602800002200bf03f8012b10a98b42fad1a6e782
:1060380000210a46d4e712b100297ff477af6ff048
:10604800ac0a9ce7002300bf05f8013b10aa954263
:10605800fad1504611b0bde8f08f10ab324608a90e
:106068001c981c1b16f060fa8df8308010ab0022cb
:1060780003f8012da342fbd108aa29464846fef79a
:1060880003f8824688b108ab002200bf03f8012b51
:10609800ab42fbd1002200bf03f8012b10a98b42b1
:1060a800fad1504611b0bde8f08f1c9b08a943ea0d
:1060b80006020791910700f0898076b11c9b721e39
:1060c8001a4408a8013b00bf13f8016f10f8011b20
:1060d800934281ea06011970f6d101230f2f8df83a
:1060e8003f303bd9069b0bf10c0603f1100808aab8
:1060f80029464846fdf7c8ff002875d1b20755d193
:10610800a6f1100108aa106851f8043f43408e42d6
:1061180042f8043bf7d10df1200cbce80f00a8f1c0
:10612800100c48f8100cccf80410ccf80820ccf867
:106138000c30414610aa00bf12f8013d0133dbb212
:1061480013700bb9a242f7d1103f0f2f06f1040bc1
:1061580008f1100806f11006c9d80691002f52d18f
:1061680008ab002203f8012bab42fbd1002200bf91
:1061780003f8012b10a98b42fad100e71a461e99a1
:1061880008ab4846fef76afc824600283ff439af60
:1061980008ab002203f8012bab42fbd1002200bf61
:1061a80003f8012b10a98b42fad1e8e60df11f0381
:1061b800a6f10d010df12f0c13f8012f11f8010fa5
:1061c8009c4582ea00021a70f6d1a4e7b60884d08a
:1061d80003eb860608a91a6851f8040b424043f8f5
:1061e800042bb342f7d178e708ab002203f8012b60
:1061f800ab42fbd1002200bf03f8012b10a98b4250
:10620800fad18246bbe6484608aa2946fdf73cff74
:1062180078b108ab002200bf03f8012bab42fbd1d9
:10622800002200bf03f8012b10a98b42fad1824645
:10623800a5e647ea0b039b075a4612d1b8080ad0cd
:1062480007990beb80000b6852f8044b63408242bd
:1062580041f8043bf7d13a46069808a916f064f9c4
:106268007ee7791e079a59440bf1ff3b13781bf818
:10627800010f4340594502f8013bf7d1ebe700bf56
:106288002de9f04f95b0cde90631dde91e5400281f
:1062980000f0c48092468146002b40f0bb80002d60
:1062a80000f0bc80209b002b00f0b880e31f062b79
:1062b80000f2b480219b102b00f2b0801846fff743
:1062c80013fe002840f0aa80d9f83431023313d0e5
:1062d800239b0593229b0493219b0393209b00956a
:1062e800cde901435246069b0799484602f0cafa8f
:1062f8006ff4877398427ad1294622460025e4b282
:106308000df14100cde90c55cde90e5516f00cf90b
:10631800c4f10e03dbb2c4f10f04e1b208930df12e
:1063280040088df8403014ab09912a465c1acdf824
:1063380028809b4603f8012da342fbd1069f012329
:106348000f2f8df84f307dd9079b0af10c0503f10b
:1063580010060caa41464846fdf796fe002860d173
:10636800a8070caa46d1a5f11001106851f8043ffe
:106378004340a94242f8043bf7d10df1300cbce888
:106388000f00a6f1100c46f8100cccf80410ccf84d
:106398000c30ccf808203346594600bf11f8012dbf
:1063a8000132d2b20a700ab9a142f7d1103f0f2fb9
:1063b80005f1040a06f1100605f11005c9d80caa62
:1063c800414648460b93fdf75ffe0b9b002800f003
:1063d800b9800cab002200bf03f8012b4345fbd169
:1063e800002200bf03f8012b14a98b42fad115b083
:1063f800bde8f08f0df12f03a5f10d010df13f0c54
:1064080013f8012f11f8010f634582ea00021a7090
:10641800f6d1b2e712b100297ff441af6ff0ac00ba
:10642800e5e70cab002200bf03f8012b4345fbd185
:10643800002200bf03f8012b14a98b42fad115b032
:10644800bde8f08f069b002b40f023815b460022bd
:1064580003f8012da342fbd10caa41464846fdf79b
:1064680013fe00284ad1219b239a099d023b002a4a
:1064780003ebd373089a4fea630302ebc30314bf19
:106488004022002213448df840305946ff2212b1b1
:10649800032841d9002213460130a84201f8013de2
:1064a800f5d10caa41464846fdf7eefd00283ad141
:1064b800239b002b40f0a380069b002b40f0b68066
:1064c800089b8df8403000230bf8013da345fbd114
:1064d800484642464146fdf7d7fd00284ad00cab56
:1064e800002200bf03f8012b4345fbd1002200bf67
:1064f80003f8012b14a98b42fad178e70cab0022e0
:1065080003f8012b4345fbd1002200bf03f8012b00
:1065180014a98b42fad16ae7069e02eac00326fa5a
:1065280003f31340b8e70cab002200bf03f8012bbc
:106538004345fbd1002200bf03f8012b14a98b426d
:10654800fad154e74aea070189070caa504647d10d
:10655800bd0809d00aeb8505116850f8046b714035
:10656800a84242f8041bf7d13a4618460ca915f080
:10657800dbff6be7219b9a070cad6fd013b3219a11
:106588000a990cab9c181a7811f8016b724003f841
:10659800012b9c42f7d1209bdde9207c013b0024a4
:1065a8005e7815f8011b9a1cd21b7140944544ea89
:1065b800010403f10103f3dc24b1069b002b60d135
:1065c8006ff0b4000cab002203f8012b4345fbd15c
:1065d800002200bf03f8012b14a98b42fad106e769
:1065e800002fc1d0781e50440af1ff3a11781af8ea
:1065f800015f6940824502f8011bf7d1b4e70cab93
:10660800dde922124846fef729fa00283ff454af84
:106618000cab002203f8012b4345fbd1002200bf3d
:1066280003f8012b14a98b42fad1e0e60cabdde9a3
:1066380006214846fef7b6f900283ff441af0cabf7
:10664800002200bf03f8012b4345fbd1002200bf05
:1066580003f8012b14a98b42fad1c8e6219b9908ab
:106668000bd00cab0a9c03eb81011a6854f8046b3d
:10667800724043f8042b8b42f7d1219b002b8ad11f
:10668800a0e71a460798002116f00cf86ff0b4003e
:1066980098e71f46079b92e638b580b179b1d41fb9
:1066a800062c0cd80446f830154615f03dff00209e
:1066b8004ff06043c4f82051c4e9460338bd6ff079
:1066c800ac0038bd70b586b060b159b1002a49d068
:1066d8000a9c3cb10e9c002c47d0d0f820410b9d61
:1066e800ac4204d06ff0ac05284606b070bdd0f8b7
:1066f80018410134c0f81841002c3ad0044600f182
:10670800f8060f9805900e9804900d9803900c9831
:1067180002900b98cde900602046fff7f7fb05468d
:106728000028e1d1d4f820210a98314615f0fcfe62
:10673800d4f82021511ed7d4735c0133dbb27354d3
:10674800002bd1d1f7326ff0f8012244091b06e083
:1067580012f8013d0133dbb21370002bc4d1d142d2
:10676800f6d5c1e7002bbdd1b2e70f9c002cb9d1fb
:10677800b3e7d0f81c410134c0f81c41002cbdd14e
:106788006ff48275b0e700bf30b10023c0f8a811dc
:10679800c0e94d23184670476ff0ac00704700bf42
:1067a800b8b1202a02d96ff08300704770b5c0f8dd
:1067b800a831049b044600251646c0e94d3500f56e
:1067c8009e7015f0b1fec4f880512846c4f85c618b
:1067d80070bd6ff0ac00704708b301b32de9f84302
:1067e800044608461f4690460e4615f003ff8146ac
:1067f800c0b1202816d800250246c4f8a881c4f8dc
:1068080034713146c4f8385104f5b07015f08cfe77
:10681800c4f85c512846c4f88091bde8f8836ff04d
:10682800ac0070476ff08300bde8f88340b100f515
:10683800c473002200f5d47003f8012b9842fbd1f1
:10684800704700bfc8b1c1b1d0f8f0300c2b08d0e8
:106858000e2b0ed00a2b08d000230b606ff0ac0073
:10686800704718230b600020704710230b6000202e
:10687800704720230b60002070476ff0ac00704712
:1068880030b422b119b110b130bcfef763b86ff063
:10689800ac0030bc704700bf2de9f04142b339b3ba
:1068a80030b3d0f83451023506460c4617464fea45
:1068b800131812d104eb0815b8f1000f02d114e037
:1068c800ac4212d0224639463046fdf709fe103454
:1068d80010370028f4d0bde8f08102f057f96ff4c2
:1068e80087739842e6d0bde8f0810020bde8f081ca
:1068f8006ff0ac00efe700bf002800f0a38000298c
:1069080000f0a080002a00f09d802de9f843984609
:10691800d0f88431164600f58475c3f110020f468d
:1069280004462a4493b1b8f1000f78d016f8013b19
:1069380012f8011b4b4007f8013bd4f88431013ba6
:1069480008f1ff38c4f88431002becd1b8f10f0fef
:1069580088bf04f1f80938d92a4649462046fdf788
:1069680093fb00285cd1eb6828686968aa68c9f8b5
:106978000c3045ea06039b07c9f80000c9f8041063
:10698800c9f808204ed104f58273311f04f58a70c6
:1069980053f8042f51f804cf834282ea0c021a609c
:1069a800f6d1eb6828686968aa68fb60a8f1100846
:1069b8000023b8f10f0f38607960ba6006f110064d
:1069c80007f11007c4f88431c6d8b8f1000f26d0f3
:1069d80004f1f80949462a462046fdf755fbf8b95f
:1069e8001023c4f8843128686968aa68eb68c4f879
:1069f8000431c4f8f800b044c4f8fc10c4f800210d
:106a080016f8013b15f8012b534007f8013bd4f861
:106a18008431464503f1ff33c4f88431f0d10020b6
:106a2800bde8f88304f20713711e04f2171000bfc3
:106a380013f8012f11f801cf834282ea0c021a7071
:106a4800f6d1aee76ff0ac00704700bf002800f049
:106a5800a580002900f0a280002a00f09f802de97f
:106a6800f8439846d0f88431164600f58474c3f18b
:106a780010020f460546224493b1b8f1000f74d0b6
:106a880016f8013b12f8011b4b4007f8013bd5f8fb
:106a98008431013b08f1ff38c5f88431002becd173
:106aa800b8f1100f88bf05f1f80971d92246494697
:106ab8002846fdf7e9fa002858d1e368206861689c
:106ac800a268c9f80c3044ea06039b07c9f800001d
:106ad800c9f80410c9f808204ad105f58273311f96
:106ae80005f58a7053f8042f51f804cf834282eadf
:106af8000c021a60f6d1e36820686168a268fb603e
:106b0800a8f110080023b8f1100f38607960ba6056
:106b180006f1100607f11007c5f88431c6d82246d9
:106b280049462846fdf7b0fa00bbe368206861686b
:106b3800a268c9f80c301023c9f80000c9f804107d
:106b4800c9f80820b044c5f8843100bf16f8012bf5
:106b580014f8011b4a4007f8012bd5f88421464553
:106b680002f1ff32c5f88421f0d10020bde8f88396
:106b780005f20713711e05f2171000bf13f8012f55
:106b880011f801cf834282ea0c021a70f6d1b2e7fb
:106b9800b8f1000fe9d005f1f809c0e76ff0ac00d3
:046ba800704700bf73
:020000040000fa
:020000040100f9
:106bac00f8b5214c2568626863680027064682f8b0
:106bbc005170181d0f4613f09ffc38b96268a3681a
:106bcc00d16a01228a4023ea0203a360731c14d009
:106bdc006368ad195d6006d3206a6168bde8f84052
:106bec00043113f06fbc606a6168043113f06afc05
:106bfc00a36aab4288bfa562f8bd002fe8d0236919
:106c0c006068626899688360d16060689d6861683b
:106c1c006668e268043068600431013203489960a8
:106c2c00e2607061f8bd00bf58bb002064bb00205f
:106c3c00094b9a68012a5a68d06a04d908b1002015
:106c4c007047db6a70470028f9d1da6a012af7d855
:106c5c00986a1b68c01a704758bb0020024b5a6ace
:106c6c00d26812689a62704758bb00202de9f8432d
:106c7c009500074628460e4698460ff0f1fb002873
:106c8c0000f08f80814654200ff0eafb0446002868
:106c9c0000f08b805422002115f002fd2a46c4f826
:106cac0030904846a52115f0fbfc236b043d1d4498
:106cbc0025f0070576b1731e04f133010f3600bfc2
:106ccc0013f8012f01f8012f0ab1b342f8d10023b8
:106cdc0084f84330089e042e28bf042604f10409ce
:106cec00e6626664484613f0d9fbc6f1050604f16a
:106cfc00180013f0d3fba661246164624246394646
:106d0c0028460df08df9099b206003b11c604a4d9b
:106d1c000df0b4f9d5f890300133c5f890306b68ac
:106d2c00002b4fd0d5f8e420e36a002a44d005f1bb
:106d3c002c0703eb830189006818d5f808c0026b97
:106d4c00a260012606fa03f343ea0c03ab609368d6
:106d5c00e3609368d0f82cc0c3f804903944d5f89c
:106d6c00e870c2f808900ceb0602bb196161c262b4
:106d7c00c5f8e8300df092f9d5f8e43073b16a68d3
:106d8c00e36ad26a9a4209d22c4b4ff080521a60b5
:106d9c00bff34f8fbff36f8f304600e03046bde836
:106dac00f8834ff0ff30bde8f88348460ff0c4fb82
:106dbc004ff0ff30bde8f8836a68d26a9a4298bff8
:106dcc006c60b4e76c60d5f89030012b03d0e36aab
:106ddc0005f12c07ade705f12c07384613f052fbf3
:106dec0005f1400013f04efb05f1540013f04afb83
:106dfc0005f1680013f046fb05f1940805f17c00e1
:106e0c0013f040fb05f1a806404613f03bfb30465f
:106e1c0013f038fb05f1bc0013f034fb05f1d00086
:106e2c0013f030fb05f10c0013f02cfbc5f824809b
:106e3c00e36a2e627de700bf58bb002004ed00e042
:106e4c0070b505462d4c0df019f9002d41d02e1db5
:106e5c00304613f051fb30b9ea6a02eb820304ebc3
:106e6c008303db6a6bb3ab6a1bb105f1180013f03b
:106e7c0043fbd4f8e83062680133aa42c4f8e83026
:106e8c0032d0d4f89030013bc4f89030636a1b6860
:106e9c009bb1fff7e3fe0df001f96368ab4205d03f
:106eac00286b0ff049fb28460ff046fbd4f8e43072
:106ebc0013b16368ab420ed070bd4ff0ff33a362c9
:106ecc00e9e7a368012101fa02f223ea0202a260b7
:106edc00c9e76568bbe70a4b4ff080521a60bff3f5
:106eec004f8fbff36f8f70bd3146064813f0dafa3f
:106efc00d4f8ec300133c4f8ec30cce758bb0020ac
:106f0c0004ed00e028bc00202de9f041174c63682b
:106f1c0083421cd005460df0b1f8676a6e69d4f84f
:106f2c0020800df0bbf8be420ed046450cd004f1cb
:106f3c000c039e420ed0d034a64215d0002e0cbfae
:106f4c0004200120bde8f0810220bde8f081002082
:106f5c00bde8f081ab6a002bf6d195f85030012bcf
:106f6c000cbf02200320f0e70420eee758bb002002
:106f7c0010b504460df082f824b1e46a0df08ef8d9
:106f8c00204610bd034b5c68e46a0df087f8204680
:106f9c0010bd00bf58bb0020eff311834ff020024f
:106fac0082f31188bff36f8fbff34f8f18b1c06a94
:106fbc0083f311887047034a5068c06a83f31188c1
:106fcc00704700bf58bb002004292de9f84328bfa7
:106fdc00042104460d460df051f8002c61d0636c71
:106fec00ab425ad0dff8cc800bd2d8f80420a242a6
:106ffc005ad0d8f80420d76aaf428cbf002701279b
:10700c0005e0d8f804703f1bb7fa87f77f09e66aea
:10701c006564b342a36908bfe562002ba4bfc5f148
:10702c000505a561214d626906eb860305eb83031b
:10703c009a4229d104f10409484613f05dfa40b98b
:10704c00d8f80830012202fa06f623ea0606c8f838
:10705c000860e26ad8f8086002eb8201890008eb4c
:10706c00010001239340026b3343c8f80830936846
:10707c00e360c36a9668a2600d440133c6f80490bd
:10708c00c2f808906561c3623fb1094b4ff0805262
:10709c001a60bff34f8fbff36f8fbde8f8430cf04e
:1070ac00fdbf044b5c689ae70027b0e784bb002067
:1070bc0004ed00e058bb00202de9f041224d6b6837
:1070cc0083420cd058b104460cf0d8ff626905f12c
:1070dc000c039a4205d0bde8f0410cf0dfbfbde8cf
:1070ec00f081a36a05f1bc029342f4d0002bf2d1db
:1070fc0004f10408404613f0fff9e26aaf6802ebb2
:10710c00820080002e180123316ba16093403b4319
:10711c008f68e760ab608b68f76ac3f8048005f191
:10712c002c0318440137c1f808806061f7626b6862
:10713c00db6a9a42cfd3054b4ff080521a60bff3f3
:10714c004f8fbff36f8fc6e758bb002004ed00e0f4
:10715c0030b5164d1649174883b005f1f0030024dd
:10716c00cde900434ff480722346fff77ffd0128e1
:10717c0003d0114b1b6803b030bd0cf0e5fa0128ad
:10718c00f7d14ff0200383f31188bff36f8fbff358
:10719c004f8f4ff0ff33ab62c5f8e4002c600df05d
:1071ac0073f8054b1b6803b030bd00bf58bb002003
:1071bc00a0c701019175000128c100204ff02003e8
:1071cc0083f31188bff36f8fbff34f8f024b0022f5
:1071dc00c3f8e4200cf050bf58bb0020034ad2f88f
:1071ec00f4300133c2f8f430704700bf58bb0020b4
:1071fc00014b1868704700bf58bb0020014b186842
:10720c00704700bf58bb0020014bd3f8900070476b
:10721c0058bb002008b134307047024b58683430ea
:10722c00704700bf58bb002038b50c4c2268a36acd
:10723c0002449a42054603d023682b44236038bd90
:10724c000cf01cffd4f8f8300133c4f8f8300cf013
:10725c0025ff2368013d2b44236038bd58bb00201b
:10726c002de9f04f564cd4f8f43083b0002b40f09d
:10727c00908020680130206080b9636a226a626263
:10728c002362d4f8fc300133c4f8fc30636a1b6809
:10729c00002b40f08a804ff0ff33a362a36a984220
:1072ac004ff000065cd3dff81c81b4464ff0010ea2
:1072bc004fe0636adb68db685a68904203f10405af
:1072cc0003f118097ad35a69d3e90271d2f804a0f0
:1072dc00b960aa454f60176808bf5160996ac3f836
:1072ec0014c0013f176071b1d3e90772d1f804a043
:1072fc00ba601a6aca45576008bf4a600a68c3f880
:10730c0028c0013a0a60d96aa76801eb8102920091
:10731c0004eb02090efa01fbd9f830a0c3f808a05f
:10732c004bea0707a760daf80870df604244d9f827
:10733c002c700192daf8082001375560019acaf8ce
:10734c0008505a61c9f82c706368db6a994288bf8f
:10735c000126636a1b68002babd14ff0ff33a3628d
:10736c006368db6a03eb830304eb8303da6ad4f808
:10737c00f830022a28bf012643b1d4f80031002b83
:10738c0018bf0126304603b0bde8f08f14f09afa0e
:10739c00f3e7d4f8f8300133c4f8f83014f092fa6b
:1073ac000026304603b0bde8f08ffff757fca36a08
:1073bc0098424ff00006bff476afd1e7a262cfe758
:1073cc0058bb002084bb00202de9f047464c0cf044
:1073dc0055fed4f8f430013bc4f8f430d4f8f43052
:1073ec00002b69d1d4f89020002a65d09e464ff02e
:1073fc00010a04f12c0c00bfd4f8bc20002a44d0a4
:10740c00d4f8c830db68d9691d6a9a6a8d60186a2d
:10741c005668416003f118018e42116808bf55602f
:10742c000139c3f828e011605869d3e902124568a4
:10743c008a6003f104085160d96a0668454508bfa3
:10744c00426001eb81029200013e0660a518a6681d
:10745c00286b98600afa01f949ea0606a660866864
:10746c00de60ee6a876862440136c7f80480c0f8b3
:10747c0008805a61ee626268d26a9142bcd3c4f849
:10748c0000a1d4f8bc20002abad12bb1636a1b68c6
:10749c0033bb4ff0ff33a362d4f8f8504db1012643
:1074ac00fff7defe08b1c4f80061013df8d1c4f865
:1074bc00f850d4f800312bb900240cf0effd204625
:1074cc00bde8f087094b4ff080521a60bff34f8f25
:1074dc00bff36f8f01240cf0e1fd2046bde8f0876f
:1074ec00fff7bcfbd8e700bf58bb002004ed00e061
:1074fc00134ad2f8f430013310b5c2f8f4300368f3
:10750c00146859182cbf01220022a34201600ed925
:10751c0072b90024fff758ff38b90a4b4ff080526c
:10752c001a60bff34f8fbff36f8f204610bd0ab99f
:10753c008c42eed2081b0021fff732fb0124e9e755
:10754c0058bb002004ed00e008b540b90b4b4ff0e0
:10755c0080521a60bff34f8fbff36f8f08bd084a7c
:10756c00d2f8f4300133c2f8f4300021fff718fbe5
:10757c00fff72aff0028e9d008bd00bf04ed00e0aa
:10758c0058bb0020f8b51f4c1f4f4ff0805619e028
:10759c000cf074fdd4f8dc30dd68281d12f0acff63
:1075ac00d4f89030013bc4f89030d4f8ec30013b67
:1075bc00c4f8ec300cf072fd286b0ef0bdff2846c1
:1075cc000ef0baffd4f8ec30002be1d1e36a012bba
:1075dc0004d93e60bff34f8fbff36f8f14f070f977
:1075ec00fff726fb0428edd9d4f8f4300133c4f8a6
:1075fc00f430fff71dfb042801d914f07ff8fff7d6
:10760c00e3fedfe758bb002004ed00e038b50a4c80
:10761c00d4f8f42001320546c4f8f4200cf02efd09
:10762c00d4f8f8302b44c4f8f8300cf037fdbde832
:10763c003840fff7c9be00bf58bb00202de9f04110
:10764c00294cd4f8f4300133c4f8f4300546fff774
:10765c005bfc022805d00024fff7b6fe2046bde8ef
:10766c00f0812e1d304612f047ff0cf007fdab6a7f
:10767c0033b105f1180012f03fff012385f85130aa
:10768c000cf00cfdea6ad4f80880dff860e002eb3d
:10769c008200800004eb000c0123dcf83010a960a0
:1076ac0003fa02f747ea0807a7608f68ef60dcf877
:1076bc002c70864488681f4446608e60c5f814e0c0
:1076cc00ccf82c706168c96a8a4207d9c4f80031b9
:1076dc001c46fff779fe2046bde8f0811c46fff7fb
:1076ec0073fe2046bde8f08158bb002084bb00200f
:1076fc0010b51c4cd4f8f4301bb10123c4f8003184
:10770c0010bdc4f8003163681b6b1a68b2f1a53f59
:10771c0003d15a68b2f1a53f1ad060686168343160
:10772c0014f0baf8a368b3fa83f3dbb2c3f11f0306
:10773c0003eb83039b00e1180b480a6b52680a6346
:10774c0003449a4204bf52680a63d368636010bd55
:10775c009a68b2f1a53fe0d1db68b3f1a53fdcd16b
:10776c00e0e700bf58bb00208cbb002070b504467e
:10777c002c4d0cf083fc002c41d0261d304612f011
:10778c00bbfe30b9e26a02eb820305eb8303db6ad2
:10779c001bb3a36a1bb104f1180012f0adfe314605
:1077ac00214812f07ffe94f85030012b04bf0023c7
:1077bc0084f850300cf072fcd5f8e430abb96b683f
:1077cc00a34200d070bdd5f8e430f3b9e968d5f820
:1077dc009020914222d16b6070bdab68012101faff
:1077ec0002f223ea0203ab60d3e70cf047fc6b6aae
:1077fc001b6833b1fff732fa0cf050fcdfe76c6812
:10780c00bbe74ff0ff33ab62f6e7084b4ff080520b
:10781c001a60bff34f8fbff36f8f70bdbde8704020
:10782c00fff766bf58bb002064bb002004ed00e0ee
:10783c0010b5064b5b680c4603f1180112f042fec2
:10784c0020460121bde81040fff7aab958bb002023
:10785c000e4bf0b445685f685e68044641f0004129
:10786c005868b961a9685f68f561016259685e681a
:10787c0023681046aa681837183101335760a9607d
:10788c00b46201212360f0bcfff78ab958bb002019
:10789c00134b2de9f00145685f68ae68fd61044645
:1078ac005868d3f804c006625f685e682368b2f15a
:1078bc000008aa6807f118070cf1180c03f1010372
:1078cc00c2f804c008bf0846af604146b46218bf96
:1078dc004ff0ff302360bde8f001fff761b900bf46
:1078ec0058bb0020f8b5c368d9688b6ad1e9074248
:1078fc005d68a26001f118008542546008bf5a60af
:10790c001a682b4c013a00258d621a60d4f8f420c9
:10791c00cb6a002a3ad188684a69cd688560566876
:10792c00cd68dff890e0686001f1040c10686645e2
:10793c0008bf556003eb8305ad0001381060661974
:10794c00a768306b886001229a403a43a26087682e
:10795c00f26acf60876801327544c7f804c0c0f87a
:10796c0008c04d61f262626a12685ab1fff776f98b
:10797c00cb6a6268d26a9a423abf0120c4f800010d
:10798c000020f8bd4ff0ff32a262f2e7d4f8c0201d
:10799c00ca6195680d629668d4f8bc507060013568
:1079ac0004f1bc069060c4f8bc508e62e1e700bfe5
:1079bc0058bb002084bb0020426803692de9f041cc
:1079cc0041f0004184680160c168946084685d681e
:1079dc0062601a68854208bf5c60013a1f4c002542
:1079ec0005611a60636a1b68002b34d14ff0ff33ba
:1079fc00a3624a69dff868c055681668d1e90203ca
:107a0c0001f1040e75458360586008bf5360cb6a62
:107a1c0003eb83008000013e16602518a7682a6bd3
:107a2c008a604ff0010808fa03f63e43a660966898
:107a3c00ce60ee6a976860444644c7f804e0c2f82a
:107a4c0008e04861ee626268d26a934288bfc4f86b
:107a5c000081bde8f081fff701f9cae758bb0020af
:107a6c0084bb002010b504460cf008fb044bd3f883
:107a7c00fc201b68c4e90023bde810400cf00ebbd1
:107a8c0058bb0020034bd3f8fc201b68c0e9002333
:107a9c00704700bf58bb0020f8b505460c460cf0eb
:107aac00edfa1b4a1068536893f8513043b1536890
:107abc00002283f8512001240cf0f0fa2046f8bd86
:107acc0021684e1c1ed0d5e90073d2f8fc60b74279
:107adc0008d0834206d80023236001240cf0defa80
:107aec002046f8bdc61ab142f5d9091a1944d2f884
:107afc00fc0013682160c5e9000300240cf0cefae9
:107b0c002046f8bd1c460cf0c9fa2046f8bd00bf53
:107b1c0058bb0020024b0122c3f80021704700bf64
:107b2c0058bb00200b4bd3f8bc0018b9d3f800217c
:107b3c0012b1704700207047d3f8f81009b1104605
:107b4c007047d868d3f89030013b984214bf01209d
:107b5c000220704758bb0020014b5868704700bf8b
:107b6c0058bb0020064bd3f8e42032b1d3f8f430e4
:107b7c00002b0cbf0220002070470120704700bf73
:107b8c0058bb002018b3f8b5284cc36a6268d26a97
:107b9c00934214d28269002a04db6268d26ac2f171
:107bac0005028261224d426903eb830305eb8303db
:107bbc009a420dd06368db6ac3620120f8bd63682a
:107bcc00406cdb6a98422cbf00200120f8bd704746
:107bdc00071d0646384612f08ffc30b9f16aa368cf
:107bec0001228a4023ea0203a3606368d4f808e008
:107bfc00db6af36203eb8301890004eb010c0120c7
:107c0c00dcf83020b26000fa03f343ea0e03a36001
:107c1c009368dcf82c40f36093680d4404445f6077
:107c2c0097607561ccf82c40f8bd00bf58bb0020a4
:107c3c0084bb002038b1836cc16a426c013b914219
:107c4c00836400d00bb1002070472de9f04100f1a6
:107c5c0004080446404612f04ffc164d30b9e16a58
:107c6c00ab6801228a4023ea0203ab60636cd5f84f
:107c7c0008e0dff844c0e36203eb830189006e186f
:107c8c000120326b9768e76000fa03f747ea0e07aa
:107c9c00af60f56a9768a2606144c3f105030544bf
:107cac00a361c7f80480c2f808806161f562bde881
:107cbc00f08100bf58bb002084bb002058b1426c3f
:107ccc00f8b59142c36a38bf11468b4202d0826c20
:107cdc00012a01d0f8bd704782691b4dc162002a90
:107cec0003eb8303426905f12c06a8bfc1f1050122
:107cfc0006eb8303a8bf81619a42ebd1071d0446b2
:107d0c00384612f0f9fbe36ab8b10121994003eb54
:107d1c0083039b00e818d5f808c0026ba2604ceafc
:107d2c000101a9609168c56ae16091681e44013542
:107d3c004f6097606661c562f8bdaa6801219940e1
:107d4c0022ea0102aa60e2e758bb0020044a51680b
:107d5c0053685268db6a8869c3f105039361704705
:107d6c0058bb0020044b5a681ab159688a6c01320e
:107d7c008a645868704700bf58bb00202de9f04159
:107d8c001f4d06460f4690460cf078f96b6806f1cd
:107d9c00120403eb84035b683bb96b683344012129
:107dac0083f85010b8f1000f1ed10cf077f90cf0dd
:107dbc0065f96b68a4002344d3f80480b8f1000f74
:107dcc0004d06b681c445fb1002363606b68334460
:107ddc00002283f850200cf061f94046bde8f08198
:107dec0008f1ff336360f1e74046fef7d9fe054b1f
:107dfc004ff080521a60bff34f8fbff36f8fd4e7f1
:107e0c0058bb002004ed00e02de9f041264d04465e
:107e1c001f46884616460cf031f96b68234493f8dc
:107e2c005030022b0dd06b6803eb84030121da6c0c
:107e3c0022ea0802da646b68234483f85010069b2c
:107e4c00e3b90cf02bf90cf019f937b16b6804f1ac
:107e5c00120203eb82035b683b606b68234493f86c
:107e6c005030022b16d000276b681c44002384f87a
:107e7c0050300cf013f93846bde8f0811846fef787
:107e8c008ffe0a4b4ff080521a60bff34f8fbff337
:107e9c006f8fd6e76b6803eb84030127da6c22ea59
:107eac000606de64e0e700bf58bb002004ed00e0ee
:107ebc002de9f041ddf8188004460d4617461e46a4
:107ecc000cf0dcf8b8f1000f06d005f1120304eb4e
:107edc0083035b68c8f800306219022192f85000e5
:107eec0082f85010731ec0b2032b08d8dfe803f0e1
:107efc000254110f04eb8505eb6c1f43ef64012852
:107f0c000dd001240cf0caf82046bde8f0810228ff
:107f1c004cd0123504eb850501286f60f1d1a268b5
:107f2c00e16863699160e16858684a6004f1040c87
:107f3c00e26a6045186808bf596002eb82051c496b
:107f4c00ad00013818604e198f68306ba0600123aa
:107f5c0093403b438b608768f36ae760876801f165
:107f6c002c0e01337544c7f804c0c0f808c0656115
:107f7c00f3624b6a1b68abb1fef770fee26a4b68aa
:107f8c00db6a9342bdd20b4b4ff080521a60bff3a9
:107f9c004f8fbff36f8fb4e704eb8505eb6c0133a8
:107fac00eb64ace74ff0ff338b62e8e70024a9e702
:107fbc0058bb002004ed00e02de9f041069deff3e5
:107fcc0011864ff0200484f31188bff36f8fbff339
:107fdc004f8f2db101f1120400eb840464682c6006
:107fec004418022794f8505084f85070013bedb2bd
:107ffc00032b08d8dfe803f0023d100e00eb8101e3
:10800c00cb6c1a43ca64012d0cd0012086f3118865
:10801c00bde8f081022d5fd0123100eb8101012d02
:10802c004a60f2d12d4bc26ad3f8f41039b3d3f8ad
:10803c00c010c1618c6804628d68d3f8bc4000f13b
:10804c0018076f60013403f1bc058f60c3f8bc40a6
:10805c0085625968c96a9142d7d2079a12b10799b9
:10806c0001220a600120c3f8000186f31188bde8e3
:10807c00f08100eb8101cb6c0133cb64c3e78468e6
:10808c004169c568a5604f68c568dff854e06c604d
:10809c0000f104080c68474508bf4d6002eb8205ef
:1080ac00ad00013c0c6003eb050c9f68dcf8304024
:1080bc0084600121914039439960a768c760dcf85e
:1080cc002c70a16875440137c1f80480c4f808808d
:1080dc004561ccf82c70bce7002097e758bb00201a
:1080ec0084bb00202de9f043eff311844ff0200303
:1080fc0083f31188bff36f8fbff34f8f43180226a2
:10810c0000eb810193f8505083f85060cb6c012d3b
:10811c0003f10103cb6403d084f31188bde8f08331
:10812c002b4bc16ad3f8f4500db3d3f8c050c561d2
:10813c00ae680662af68d3f8bc6000f1180cc7f8e3
:10814c0004c0013603f1bc07c5f808c0c3f8bc6015
:10815c0087625868c06a8842ded20ab10121116078
:10816c000122c3f8002184f31188bde8f0838668ee
:10817c00c7684569b760c768d5f804c07e6000f170
:10818c0004092e68dff84c80cc4501eb810c4feada
:10819c008c0c06f1ff362e6003eb0c0e08bf6f60e3
:1081ac009f68def83060866001258d403d439d6000
:1081bc00b768c760def82c70b568c4440137c5f8e1
:1081cc000490c6f80890c0f814c0cef82c70c0e724
:1081dc0058bb002084bb002038b50d4680b1044646
:1081ec002c440bf04bff94f85030022b05bf0023ae
:1081fc0084f85030002401240bf050ff204638bd89
:10820c00014b5c68ece700bf58bb002070b50e4614
:10821c00154668b104460bf031ff04eb8601cc6cbb
:10822c00cb6c23ea0503cb640bf038ff204670bd02
:0c823c00014b5c68efe700bf58bb00205e
:020000040000fa
:020000040100f9
:10824800054b6ff001021a60da609a615a621a638c
:10825800da639a645a657047e0bd00200728034630
:1082680013dc00eb400291000a4a50580a44811c72
:1082780005d00de052f80c1f11f1020f03d10133a4
:10828800082bf7d17047084670476ff00100704718
:10829800704700bfe0bd0020f0b4144e00233746fd
:1082a80034462568a84204f10c040fd00133082b8a
:1082b800f7d100243368023306f10c0610d00134dc
:1082c800082cf7d16ff08300f0bc704703eb430331
:1082d80007eb8303c3e900019a600020f0bc7047f4
:1082e80004eb440407eb8403f4e700bfe0bd00207f
:1082f80030b40d4c002322461168884202f10c026a
:1083080004d00133082bf7d130bc704703eb43038b
:108318009b00191d6518002262506ff001006a6009
:10832800e05030bc704700bfe0bd0020f0b58fb012
:10833800ddf854c0bcf1000f0fd041f254141b4ead
:108348005cf804709e46354600242b689f4205f170
:108358000c0506d00134082cf7d16ff487700fb0e4
:10836800f0bd04eb440406eb84046668002ef4d0e8
:1083780073460693149b049100254ff0030e0121c8
:10838800cde9073c169b03900592cde901e10993dd
:10839800a2680b9538460a95cde90c5501a9b04756
:1083a80010f1ae0fd9d00fb0f0bd00bfe0bd002076
:1083b800002838d02de9f04341f254131b4fc6581a
:1083c8008fb03c4600232568ae4204f10c0407d068
:1083d8000133082bf7d16ff487700fb0bde8f08335
:1083e80003eb430307eb8307d7f80490b9f1000fb9
:1083f800f1d0044690460d462022002106a814f02c
:1084080051f903210a230191cde90345cdf81480e0
:10841800ba680293304601a9c84710f1ae0fdad006
:108428000fb0bde8f0836ff487707047e0bd00209f
:10843800002a35d0f0b51c4ed2f8b8788fb09c46db
:10844800354600242b689f4205f10c0506d00134ff
:10845800082cf7d16ff487700fb0f0bd04eb44041b
:1084680006eb84046668002ef4d000256346049168
:108478004ff0030c092103900592cde901c1069341
:10848800a268089538460795cde90955cde90b55f9
:108498000d9501a9b04710f1ae0fdbd00fb0f0bdbc
:1084a8006ff48770704700bfe0bd0020002832d00d
:1084b800f0b51a4ed0f8b8788fb09c4635460024ef
:1084c8002b689f4205f10c0506d00134082cf7d122
:1084d8006ff487700fb0f0bd04eb440406eb84041e
:1084e8006668002ef4d00025049103210390cde99d
:1084f800052ccde90111a268089538460795cde904
:108508000955cde90b550d9501a9b04710f1ae0fee
:10851800ded00fb0f0bd6ff487707047e0bd00206b
:10852800f0b58fb0ddf854c0bcf1000f0dd01a4e75
:10853800dcf8b8789e46354600242b689f4205f142
:108548000c0506d00134082cf7d16ff487700fb0f2
:10855800f0bd04eb440406eb84046668002ef4d0f6
:1085680073460693149b049100254ff0030e0421d3
:1085780003900592cde901e1cde9073ca2680a958f
:1085880038460995cde90b550d956944b04710f16a
:10859800ae0fdad00fb0f0bde0bd0020f0b58fb05f
:1085a800ddf854c0bcf1000f0dd01a4edcf8b878d5
:1085b8009e46354600242b689f4205f10c0506d0df
:1085c8000134082cf7d16ff487700fb0f0bd04ebbd
:1085d800440406eb84046668002ef4d073460693c0
:1085e800149b049100254ff0030e0521039005927a
:1085f800cde901e1cde9073ca2680a95384609951d
:10860800cde90b550d9501a9b04710f1ae0fdad0a1
:108618000fb0f0bde0bd0020002837d02de9f043b1
:108628001c4fd0f8b8688fb03c4600232568ae428e
:1086380004f10c0407d00133082bf7d16ff48770cd
:108648000fb0bde8f08303eb430307eb8307d7f8cc
:108658000490b9f1000ff1d0044690460d4620224f
:10866800002106a814f01ef803210b230191cde97f
:108678000345cdf81480ba680293304601a9c8476b
:1086880010f1ae0fdad00fb0bde8f0836ff4877049
:10869800704700bfe0bd0020f0b59c468fb0264f64
:1086a80078b1d0f834613d4600242b689e4205f12c
:1086b8000c051ad00134082cf7d16ff487700fb06d
:1086c800f0bd3e4605463468023406f10c0607d173
:1086d8000135082df1d03468023406f10c06f7d0c4
:1086e80005eb450507eb850403e004eb440407ebc1
:1086f80084046568002de0d0149b0893159b0993aa
:10870800169b0a93179b0b93189b049005910320c3
:1087180001210c930226199b0391cde9062ccde982
:1087280001600d93a268206801a9a84710f1ae0f57
:10873800c3d00fb0f0bd00bfe0bd0020f0b59c462f
:108748008fb0264f78b1d0f834613d4600242b68ad
:108758009e4205f10c051ad00134082cf7d16ff4ac
:1087680087700fb0f0bd3e4605463468023406f106
:108778000c0607d10135082df1d03468023406f112
:108788000c06f7d005eb450507eb850403e004eb81
:10879800440407eb84046568002de0d0149b08931b
:1087a800159b0993169b0a93179b0b93189b049090
:1087b8000591022003210c930026199b0d93cde906
:1087c8000101cde9062c0396a268206801a9a847f3
:1087d80010f1ae0fc3d00fb0f0bd00bfe0bd002058
:1087e800f0b59c468fb0264f78b1d0f834613d463d
:1087f80000242b689e4205f10c051ad00134082c80
:10880800f7d16ff487700fb0f0bd3e460546346867
:10881800023406f10c0607d10135082df1d0346871
:10882800023406f10c06f7d005eb450507eb850485
:1088380003e004eb440407eb84046568002de0d0f2
:10884800149b0893159b0993169b0a93179b0b93ec
:10885800189b049005910c2001210c930226199b6a
:108868000391cde9062ccde901600d93a26820683b
:1088780001a9a84710f1ae0fc3d00fb0f0bd00bfdb
:10888800e0bd0020f0b59c468fb0264f78b1d0f8f7
:1088980034613d4600242b689e4205f10c051ad030
:1088a8000134082cf7d16ff487700fb0f0bd3e4645
:1088b80005463468023406f10c0607d10135082d47
:1088c800f1d03468023406f10c06f7d005eb450503
:1088d80007eb850403e004eb440407eb84046568b4
:1088e800002de0d0149b0893159b0993169b0a93bf
:1088f800179b0b93189b0490059102200c210c9355
:108908000026199b0d93cde90101cde9062c0396ac
:10891800a268206801a9a84710f1ae0fc3d00fb014
:10892800f0bd00bfe0bd0020f0b59c468fb0234fde
:1089380078b1d0f834613d4600242b689e4205f199
:108948000c051ad00134082cf7d16ff487700fb0da
:10895800f0bd3e4605463468023406f10c0607d1e0
:108968000135082df1d03468023406f10c06f7d031
:1089780005eb450507eb850403e004eb440407eb2e
:1089880084046568002de0d0049005910020022140
:1089980006920122cde90800cde90a00cde90c00d4
:1089a800cde901110392cdf81cc0a268206801a985
:1089b800a84710f1ae0fc8d00fb0f0bde0bd002041
:1089c8002de9f043dff890c08fb080b1d0f8347152
:1089d800654600242e68b74205f10c051bd001340a
:1089e800082cf7d16ff487700fb0bde8f0836646a6
:1089f80005463768023706f10c0607d10135082d00
:108a0800f0d03768023706f10c06f7d005eb4505bc
:108a18000ceb850403e004eb44040ceb8404656868
:108a2800002ddfd00746904689462c22002103a856
:108a38001e4613f037fe0223cde90479cde90686f8
:108a480001a9cde90133a2682068a84710f1ae0f4b
:108a5800c8d00fb0bde8f083e0bd0020f0b5dff866
:108a680090c08fb078b1d0f83471654600242e6874
:108a7800b74205f10c051ad00134082cf7d16ff470
:108a880087700fb0f0bd664605463768023706f1b5
:108a98000c0607d10135082df1d03768023706f1e9
:108aa8000c06f7d005eb45050ceb850403e004eb59
:108ab80044040ceb84046568002de0d00490059113
:108ac800002002210692079304220123cde9011216
:108ad800cde90800cde90a00cde90c000393a268ae
:108ae800206801a9a84710f1ae0fc8d00fb0f0bd9b
:108af800e0bd0020f0b5dff890c08fb078b1d0f8b5
:108b08003471654600242e68b74205f10c051ad069
:108b18000134082cf7d16ff487700fb0f0bd6646aa
:108b280005463768023706f10c0607d10135082dce
:108b3800f1d03768023706f10c06f7d005eb45058a
:108b48000ceb850403e004eb44040ceb8404656837
:108b5800002de0d004900591002002210692079391
:108b68000d220123cde90112cde90800cde90a0063
:108b7800cde90c000393a268206801a9a84710f169
:108b8800ae0fc8d00fb0f0bde0bd00202de9f04316
:108b9800dff894c08fb080b1d0f8347165460024f6
:108ba8002e68b74205f10c051bd00134082cf7d10b
:108bb8006ff487700fb0bde8f083664605463768e6
:108bc800023706f10c0607d10135082df0d03768b9
:108bd800023706f10c06f7d005eb45050ceb8504ca
:108be80003e004eb44040ceb84046568002ddfd03b
:108bf8000646904689462c22002103a81f4613f0fa
:108c080051fd02220d23cde90123cde90469cde907
:108c1800068701a9a2682068a84710f1ae0fc7d03f
:108c28000fb0bde8f08300bfe0bd0020f0b5dff86d
:108c380090c08fb078b1d0f8a871654600242e682e
:108c4800b74205f10c051ad00134082cf7d16ff49e
:108c580087700fb0f0bd664605463768023706f1e3
:108c68000c0607d10135082df1d03768023706f117
:108c78000c06f7d005eb45050ceb850403e004eb87
:108c880044040ceb84046568002de0d00490059141
:108c9800002002210692079307220123cde9011241
:108ca800cde90800cde90a00cde90c000393a268dc
:108cb800206801a9a84710f1ae0fc8d00fb0f0bdc9
:108cc800e0bd00202de9f043dff894c08fb080b1fb
:108cd800d0f8a871654600242e68b74205f10c0546
:108ce8001bd00134082cf7d16ff487700fb0bde8a2
:108cf800f083664605463768023706f10c0607d149
:108d08000135082df0d03768023706f10c06f7d088
:108d180005eb45050ceb850403e004eb44040ceb80
:108d280084046568002ddfd00646904689462c22cb
:108d3800002103a81f4613f0b5fc02220723cde942
:108d48000123cde90469cde9068701a9a268206855
:108d5800a84710f1ae0fc7d00fb0bde8f08300bf31
:108d6800e0bd0020f0b59c468fb0234f70b1466e31
:108d78003d4600242b689e4205f10c051ad00134ab
:108d8800082cf7d16ff487700fb0f0bd3e4605464a
:108d98003468023406f10c0607d10135082df1d0ec
:108da8003468023406f10c06f7d005eb450507ebed
:108db800850403e004eb440407eb84046568002d94
:108dc800e0d0069003910020012104920422cde90d
:108dd8000112cde90700cde90900cde90b000d909e
:108de800cdf814c0a268206801a9a84710f1ae0ff9
:108df800c8d00fb0f0bd00bfe0bd0020f0b59c4664
:108e08008fb0234f70b1066f3d4600242b689e42f9
:108e180005f10c051ad00134082cf7d16ff48770ce
:108e28000fb0f0bd3e4605463468023406f10c0624
:108e380007d10135082df1d03468023406f10c064b
:108e4800f7d005eb450507eb850403e004eb440484
:108e580007eb84046568002de0d00690039100209c
:108e6800012104920622cde90112cde90700cde9de
:108e78000900cde90b000d90cdf814c0a268206858
:108e880001a9a84710f1ae0fc8d00fb0f0bd00bfc0
:108e9800e0bd0020002834d0f0b51b4ed0f8247176
:108ea8008fb09c46354600242b689f4205f10c057f
:108eb80006d00134082cf7d16ff487700fb0f0bddd
:108ec80004eb440406eb84046568002df4d0149b7d
:108ed8000291062600210392cde9053008910791f9
:108ee800cde90911cde90b110d91cdf810c0a2689b
:108ef8000196384601a9a84710f1ae0fdcd00fb093
:108f0800f0bd6ff487707047e0bd00202de9f04197
:108f1800224e8eb078b14769344600232568af42a7
:108f280004f10c041bd00133082bf7d16ff48770c0
:108f38000eb0bde8f081354604462b68023305f1d2
:108f48000c0507d10134082cf0d02b68023305f149
:108f58000c05f7d004eb440406eb840403e003ebb0
:108f6800430306eb83046568002ddfd08046164670
:108f78000f462422002105a813f094fb0423cde911
:108f8800028704960deb03010193a2682068a847a5
:108f980010f1ae0fcad00eb0bde8f081e0bd0020e0
:108fa8002de9f043194f46688fb03c4600232568e9
:108fb800ae4204f10c0407d00133082bf7d16ff44b
:108fc80087700fb0bde8f08303eb430307eb83071b
:108fd800d7f80490b9f1000ff1d090460d46044639
:108fe8002422002105a813f05dfb0523cde90245e5
:108ff800cdf81080ba680193304601a9c84710f12e
:10900800ae0fdcd00fb0bde8f08300bfe0bd00209c
:089018006ff00100704700bf7a
:020000040000fa
:020000040100f9
:1090200008b5044b186818b1804780f00100c0b241
:1090300008bd00bfd0b1002009b91046704780b10b
:10904000037883ea122383ea131343ea022282eab3
:10905000033282ea431292b200b10130013989b27f
:10906000eae7ff23ede72de9f04f85b081460e9e3c
:109070008a46904606b11e4443449cb24746554634
:10908000a74203d1012005b0bde8f08f95b36a4631
:109090001023294648460bf0d5fabdf80420944227
:1090a00008d9bdf8063013449bb29f4202d29c42bd
:1090b00003d91f46bdf80a50e8e79742a4eb020126
:1090c00028bfe31b89b234bf0b469bb2a4eb030459
:1090d00032bfbdf80ab04746d346a4b246b11035f8
:1090e0002944f61ac91a324689b248460bf0aafa40
:1090f0005d46c5e72846c6e72de9f74fd488968830
:10910000dff8588082468b4644f307254ff6ff77f9
:10911000002d03da384603b0bde8f08f1ad0a4f56d
:1091200080741ffa84f94ff48074cdf800802346d0
:10913000324659465046fff796ff38b13a46214627
:109140004046fff779ff2644b6b20746013d6db2af
:109150004c46dde7002cddd0a146e6e7d4b1002087
:1091600010b5094c94f804010bf00afb4ff40052bf
:10917000002194f804010bf02dfb18b14ff480731b
:10918000a4f8063110bd00bfd0b100202de9f04198
:10919000094c05460e46174613460a46014694f802
:1091a00004010bf085fa3b463246294694f8040147
:1091b000bde8f0410bf05cbbd0b1002003292cd8f6
:1091c000dfe801f002091b23184bb3f80621104415
:1091d000a3f806017047154ab2f80631184480b268
:1091e000c11c4ff6fc730b40984203d90430a2f81f
:1091f00006017047a2f8063170470c4ab2f80631f2
:109200000f33184420f00f00f1e7084ab2f8063196
:109210003f33184420f03f00e9e74ff0200383f389
:109220001188bff36f8fbff34f8ffee7d0b10020df
:109230004ff0200383f31188bff36f8fbff34f8f7d
:10924000fee770b50c4a92f808410023d9b28c426f
:1092500001d800200be05d1c9b00d118b1f809611a
:10926000864207d1b1f80b2112b10448184470bdf1
:10927000fff7deff2b46e9e7d0b10020d9b200208e
:1092800008b5fff7deff00b1408808bd10b5044601
:10929000fff7d7ff40b14ff0200383f31188bff3ee
:1092a0006f8fbff34f8ffee7094b93f8080102065b
:1092b00001d5fff7bdff421c83f8082103eb8002b4
:1092c00003f20913a2f8094103eb800010bd00bfaf
:1092d000d0b1002008b5fff7b4ff08b9fff7a8ff29
:1092e000064a92f80831013bdbb282f8083102eb02
:1092f0008303d3f80931036008bd00bfd0b100205b
:109300002de9f041244cb4f80a33b4f80c6303445b
:109310009bb204f20e37ff2b0546a4f80a3307eb85
:10932000060004f104080ad82a464146354413f0e1
:10933000fff80126a4f80c533046bde8f081c6f5cd
:109340008072414613f0f4f84ff480723946b4f855
:109350000601fff71bff06460028edd000214ff461
:109360008070fff72bffb4f80a53b4f80c13a5f57f
:1093700080750023adb2a4f80c33a4f80a53002d75
:10938000dad0c1f580712a4618fa81f1384613f017
:10939000cff8a4f80c53cfe7d0b100207fb545f249
:1093a0004143adf806300d4bcde902300c4bc043c4
:1093b000b3f80e3404904ff6ff7210210df1060041
:1093c000adf81430fff738fe1222adf8040001a901
:1093d0000020fff7dbfe07b05df804fb534e76324a
:1093e000d0b100202de9f04f724c94f804710025a3
:1093f0008fb0122309aa29463846a4f81054a4f8bd
:109400001254a4f80c53a4f80a530bf01bf90b9b4d
:10941000039394f804310133dbb2012b94bf84f839
:10942000043184f8045194f80431bb4208d14ff060
:10943000200383f31188bff36f8fbff34f8ffee7d5
:10944000fff78efe0028e4d04ff0000adff87081ad
:1094500080e004eb8a091023b9f80bb105aa59463c
:1094600038460bf0eff80026bdf81c50adf81a5046
:1094700005aa59463846adf81860adf81e60adf83b
:109480002060fff739fe4ff6ff72adf814000e2191
:1094900005a8fff7d1fdf022adf82200ff214648d4
:1094a00013f004f905ab03cb1035c8f80000c8f879
:1094b0000410b4f80c2303cbb4f80631c8f8080044
:1094c000adb21344b5f5807fc8f80c10a9f80b3184
:1094d00019d8394b00933246bdf81c3059463846ee
:1094e000fff7c1fd50b1b4f80631b4f80c231344b2
:1094f000a9f80b312846fff703ff38bb00242046ac
:109500000fb0bde8f08f1023b5f5807f2a4628bf45
:109510004ff48072a2eb03091ffa89f943440292c7
:10952000009332464b4659463846fff79cfd0028cb
:10953000e4d00298fff7e4fe0028dfd0029bed1a8a
:109540004e44adb2b6b20023002dddd10af10103c5
:109550005ffa83fa94f8083153453ff67aafb4f8ce
:109560000a23fab9b4f80a030021fff727feb4f87a
:109570000631a4f80e34039b581efff70fff044674
:109580000028bbd002210020fff718fe1222ff2185
:1095900009a813f08bf8122309aa002138460bf012
:1095a00087f8ace70549b4f80601fff7effd00289e
:1095b000d8d1a3e7d0b10020e4b10020deb4002070
:1095c000d4b1002008b50a4bb3f80631c3f50053f7
:1095d0009bb283420bd2fff705ff40b94ff0200347
:1095e00083f31188bff36f8fbff34f8ffee708bd82
:1095f000d0b100202de9f84f344e0446351d894680
:109600004ff48072ff21284613f050f8e1884ff69e
:10961000ff724846fff710fd4ff6ff7220800e21c3
:109620002046fff709fd2346e08103cb70606960a7
:1096300003cba860e960e28802f11007bfb2b9f17c
:10964000000f07d0b7f5807f17d8494606f1140000
:1096500012f06effe2881e49b6f80601f02a28bf14
:10966000f022103292b2fff791fd8046e088103070
:10967000022180b2fff7a2fd25e04ff0000b102081
:10968000b7f5807f3c4628bf4ff48074a4eb000af6
:10969000524609eb0b01284412f04aff22460c49be
:1096a000b6f80601fff772fd804660b12046022140
:1096b0003f1bfff783fdbfb20beb0a031ffa83fbcf
:1096c0000020002fdcd14046bde8f88fd0b100204b
:1096d000d4b100202de9f041674c00258eb084f80c
:1096e00008514ff0ff38ff27122304aa0021284613
:1096f0000af0a8ffdde906637340013326d19df827
:109700001230412b22d19df81330542b1ed19df8dd
:109710001430532b1ad19df815304e2b16d19df8cd
:109720001630762b12d19df81730322b0ed14ff612
:10973000ff7210210df11200fff77efcbdf8103012
:10974000834203d146453cbfb0462f46e5b1ff2fcb
:109750002cd1002384f804314ff6ff766ff0010519
:10976000fff7fefc90b994f804310133dbb2012b12
:1097700084f80431f4d94ff0200383f31188bff348
:109780006f8fbff34f8ffee70125ade72846a4f8a2
:109790000e64fff703fe0028e5d0002384f80831ab
:1097a000012384f814340eb0bde8f0814ff48073c7
:1097b000a4f806313846122309aa002184f804715e
:1097c0000af040ff4ff6ff77b4f80631b3f5005fbb
:1097d000e6d2bdf83420ba4201d09a4217d802210d
:1097e0000020fff7ebfc022510236a46b4f80611af
:1097f00094f804010af026ff6a46102312f8011bb0
:10980000ff291ed1013b9bb2002bf7d1c8e70025f1
:10981000eae729461020fff7d1fcd5e7bdf8026042
:109820003046fff70efd10b93046fff72ffdb4f8b4
:1098300006314380bdf80830bbb93046fff74afd1a
:1098400013e03a460e216846fff7f6fbbdf80e60be
:109850008642ded16a46b4f8061194f80401fff797
:109860004bfcbdf800308342d8d0bdf80600103064
:10987000294680b2cfe700bfd0b10020034b93f858
:1098800014340bb9fff726bf704700bfd0b10020da
:109890002de9ff478a4616469846054630b12bb15a
:1098a000fff7befb044650b1052045e04ff0200312
:1098b00083f31188bff36f8fbff34f8ffee706f17d
:1098c000100080b2fff77efe2846fff7bafc07467d
:1098d000a8b3b0f802901d4d10236a46494695f88a
:1098e00004010af0affebdf808300aeb06029a4206
:1098f00027d8b34218bfbdf80c40adf804a01cbf78
:109900000134a4b241466846adf80c40adf806609b
:10991000adf80a90b5f80641fff76cfe98b1bdf8b6
:109920000c307c80642b4ff0000005d9bdf802306c
:10993000a5f81034a5f8120404b0bde8f0870320a0
:10994000fae70420f8e70120f6e700bfd0b10020d5
:1099500073b50c4615461e46c0b1bbb1fff790fc6f
:1099600080b16319b3f5803f09d201460c480096d7
:109970002b46224690f80401fff775fb20b904201e
:1099800002b070bd0320fbe70020f9e74ff0200391
:1099900083f31188bff36f8fbff34f8ffee700bfd4
:1099a000d0b100201fb540b94ff0200383f31188d8
:1099b000bff36f8fbff34f8ffee7fff761fc48b136
:1099c00001460648102390f804016a460af03afe60
:1099d000bdf8080005b05df804fb00bfd0b1002061
:1099e0002de9f04f431e14469bb24ff6fd72934291
:1099f0008bb080460e461dd8b1f5006f1ad8fff720
:109a00003ffc00bbfff70cfb054648bb06f110000e
:109a100080b2fff7d7fd8d4b93f90821002a80f221
:109a2000f7804ff0200383f31188bff36f8fbff3ec
:109a30004f8ffee74ff0200383f31188bff36f8f42
:109a4000bff34f8ffee74046fff7acff86420fd0d3
:109a50007e4da5f81084a5f81264fff7e1fa08b16d
:109a600005200ee0b5f8120470b9b5f810347bb9d2
:109a7000002c00f0e6802346324600214046fff7e6
:109a800067ff0bb0bde8f08f103080b2fff79afd92
:109a9000b5f81004fff7d5fb81460028e8d0b0f8f0
:109aa00002b095f80401102306aa59460af0cafd2f
:109ab000b5f81234ebb9bdf82000103080b2fff7d2
:109ac00081fdb5f81004fff7bcfb814640b94ff0ab
:109ad000200383f31188bff36f8fbff34f8ffee72f
:109ae000b0f802b095f80401102306aa59460af00e
:109af000a9fdb5f81224b5f806310493bdf820305d
:109b000022b19342adf8202028bf13460022bdf8b1
:109b10002010adf81c20adf81e10adf82220adf8d5
:109b200024200df1180cbce80300dff824a16860c4
:109b300003f11007caf80410bce80300bfb2b7f580
:109b4000807fcaf80800caf80c1030d80af110015a
:109b5000009195f804015946fff785fa002872d064
:109b600006ab03cbbdf81e206860caf8041003cb17
:109b70001032caf80800caf80c1092b25146b5f873
:109b80000601fff703fb00283ff472afbdf81e008b
:109b90001030022180b2fff711fb2c4b0022a3f8fa
:109ba0001024a3f81224049ba9f8023060e715469c
:109bb0001023cdf814a0b7f5807fba4628bf4ff424
:109bc000807aaaeb030292b20392059a1f481344cb
:109bd00000932a46039b90f804015946fff743fa85
:109be00088b31b495246b1f80201fff7cffa0028ab
:109bf0003ff43eaf02215046fff7e0fa039ba7eb8c
:109c00000a072b44bfb29db20023002fd3d1c4e773
:109c1000214606a8b3f80671adf81a80adf81c50bd
:109c2000adf81e60adf82060adf82250adf82450bc
:109c3000fff7e0fc38b14046fff728fb47800220e1
:109c40001fe720461de701201be700bfd0b1002021
:109c5000d4b10020f0b5074685b040b94ff02003dd
:109c600083f31188bff36f8fbff34f8ffee7fff7ca
:109c700007fb00283fd0fff7d3f9044600283cd16a
:109c80001020fff79ffc4ff6ff720e216846adf8db
:109c90000020adf80270cde90144adf80c40fff7ab
:109ca000cbf96b46adf80e0003cb154d6860a9608b
:109cb00003cb2e1de860296110223146b5f806015c
:109cc000fff764fa68b91022b5f8061195f8040197
:109cd0000af080fd18b902211020fff76ffa012069
:109ce00007e002211020fff769fa3846fff7f2fa81
:109cf000204605b0f0bd0320fbe70520f9e700bfd3
:109d0000d0b10020f8b50446fff78af9054668bbd4
:109d100064b10af035fd01200af032fd4ff4007203
:109d20002946134812f0c2fc002020e0114d95f89e
:109d30000871e3b29f420cd8fff754fb0028f3d11f
:109d40004ff0200383f31188bff36f8fbff34f8f62
:109d5000fee705eb8403b3f80961304605f01cfc0f
:109d600010b93046fff7b6fa0134e2e70520f8bd36
:109d7000d9b20020d0b10020014b1860704700bf5d
:109d8000d0b1002008b5fff77bfa003018bf0120e2
:109d900008bd08b5fff726fb40b94ff0200383f359
:109da0001188bff36f8fbff34f8ffee708bd00bf71
:020000040000fa
:020000040100f9
:109db0002de9f04f9946dc0013f01f03adb018bf3a
:109dc000012324ba012513eb591304948df80f5085
:109dd000019300f0868082468b4617464ff00008bc
:109de0000dae05ac07e0304601f040fa019b08f1ea
:109df0000108434559d0dbf80020daf8001030465e
:109e000000f05eff002863d101220df10f01304602
:109e100000f066ff05460028e5d19df80f300422ca
:109e2000013304a930468df80f3000f059ff054684
:109e30000028d8d19df8d830042b07d0012236a9ac
:109e4000304600f04dff05460028ccd1dde9371241
:109e5000304600f045ff05460028c4d1399b0bb1c0
:109e60003a9b33bb2146304600f0e6ff05463046bc
:109e700001f0fcf9002db9d1b9f1200f22d9a44687
:109e8000bce80f0038607960ba60fb60bce80f0086
:109e9000fb61019b386108f1010843457961ba61b2
:109ea000a9f1200907f12007a5d1281c18bf01201e
:109eb0000fe01a463999304600f012ff0546002897
:109ec000d0d090e74a462146384612f031fb8de764
:109ed0000120002304f8013bb442fbd12db0bde8c2
:109ee000f08f28460dae05acf3e700bf2de9f04f2b
:109ef00087b004468a46934600218422994612f090
:109f0000d5fb119bcdf80c90a367129be36704f17e
:109f10000806109b049304f1780504f17c080427db
:109f2000cde901ab32462846414600973723fff77b
:109f30003fff18b1012007b0bde8f08f3723cde90e
:109f40000300cde9000641462846029304f13f0292
:109f5000fff72eff0028edd10123606084f8800018
:109f6000236007b0bde8f08f2de9f04f064695b0ad
:109f700037248a4693460021224606a806f10807a0
:109f800006f1780806f17c09012512f08ffbcde976
:109f900003ab0294234601974046494606aa009522
:109fa000fff706ff98bb0df1180c3d460df1480e6a
:109fb00064460fcc744528606960aa60eb60a446d3
:109fc00005f11005f4d1a188a27920682860a98044
:109fd000aa7106ab0df14f01002200bf03f8012b5f
:109fe0008b42fbd13723cde90322cde90027494637
:109ff0004046029306f13f02fff7dafe38b901232b
:10a00000706086f88000336015b0bde8f08f0120e5
:10a0100015b0bde8f08f00bf2de9f04fbbb00028b0
:10a0200000f05e819246b44b026801929a428846e3
:10a0300000f050810323054604928df80f30baf1e9
:10a04000000f1bd100f108030dac00931e46a4467f
:10a0500000f1380e30687168b268f36867460fc760
:10a0600010367645bc46f5d130683860b388b27991
:10a07000ba714ff0010abb80d34623e01af01f09e2
:10a0800018bf4ff0010900f1080309eb5a190dac94
:10a090000093cb461e46a44600f1380e3068716826
:10a0a000b268f36867460fc710367645bc46f5d1ef
:10a0b00030683860b388b279ba71bb80b9f1000feb
:10a0c00000f014814ff000091bafd5e91e1238468d
:10a0d00000f0f6fd0646c8b1384601f0c7f8234641
:10a0e0000df16b01002200bf03f8012b8b42fbd165
:10a0f000002e73d04ff0010815aa002304f8013b8d
:10a100009442fbd140463bb0bde8f08f3722214658
:10a11000384600f0e5fd06460028ddd105a93846a1
:10a1200000f08afe0646384601f0a0f8002ed6d18f
:10a130002a68059b012a02d96a68934218d0002236
:10a140006b6085f88020b8f1000f0cd0baf1000fd9
:10a1500009d0baf11f0f1ad8524605a9404612f08d
:10a16000e7f94ff0000a09f10109d945addbb6e77f
:10a1700095f88030012bbdd00bf1ff3399454ff09e
:10a18000010308bf0bf1010b85f88030dbe70df10f
:10a19000140cbce80f00c8f80000c8f80410c8f898
:10a1a0000820c8f80c30bce80f00aaf1200ac8f853
:10a1b0001820c8f81000c8f81410c8f81c300df1a9
:10a1c0006b0208f1200800bf12f8013d0133dbb239
:10a1d0001370002bc7d19442f6d1c4e71baf3846a9
:10a1e000d5e91e1200f06cfd40b1384601f03ef892
:10a1f0004ff001082b6801332b607de701220df140
:10a200000f01384600f06cfd0028eed1372200998e
:10a21000384600f065fd0028e7d12146384600f0b9
:10a220000bfe8046384601f021f8b8f1000f5fd1ef
:10a2300005f13f0108460df153078c4600e0174633
:10a240003a4610f8013d12f801190b441e44bc4275
:10a250000670c6f30f26f2d13346009e614605f123
:10a260001f0200bf12f8010d03449bb29642137007
:10a270004fea1323f6d1009f0846002310f8012c63
:10a2800090f836603244134400f8013d8742c3f32e
:10a290000f23f3d1019b1bba049305ae05f13b00dc
:10a2a000002300bf11f8012d16f8017d3a44134434
:10a2b00088420b70c3f30f23f4d10146009800bf0e
:10a2c00011f8012d13449bb288420b704fea1323ff
:10a2d000f6d18fe74ff0020840463bb0bde8f08f63
:10a2e0004ff0010840463bb0bde8f08f0126f6e68e
:10a2f0004ff001087ee700bf40420f0028b121b1b6
:10a30000c06800b130e6012070476ff0ac007047c4
:10a310002de9f041a1f1040e7746042f28bf042750
:10a32000bef1000f26d04ff0000c8046604600bf03
:10a330000ceb0704e7b108eb0c024444174400257a
:10a3400012f8013b14f8016b974283ea060345ead1
:10a350000305f5d1002d08bf03200cf1040ca1eb7f
:10a360000c07042f28bf0427e645e1d8bde8f0819b
:10a370000320f2e77046bde8f08100bf38b518b39e
:10a38000c4680546e4b104f184012346002200bffd
:10a3900003f8012b8b42fbd1631e04f183010024df
:10a3a00013f8012f8b4244ea0204f9d1e868002c2b
:10a3b00018bf6ff0c60408b111f0e6fb0023eb6094
:10a3c00000232b74204638bd6ff0ac04fae700bfc1
:10a3d00088b110b50446fff7d1ff04f118012346f8
:10a3e000002200bf03f8012b8b42fbd12046bde8c1
:10a3f000104011f0c9bb7047f0b5a7b0dde92f647c
:10a40000329f002b38d0002e36d090bb802c40d10c
:10a410001c460b4631990297cde90021054621469d
:10a4200005a82c9afff762fd60b92db1dde92d1268
:10a4300005a8fff799fd28b98022314605a8fff746
:10a44000ebfde0b14ff0ff3005ab002203f8012b2c
:10a4500026a98b42fad10df113030df197040022c6
:10a4600013f8011fa34242ea0102f9d18ab927b0c9
:10a47000f0bd2d9d002dc9d16ff0ac00f7e731463e
:10a48000802205a8fff7c8fd003018bf0120404218
:10a49000dae74ff0ff30eae7f0b589b0dde90e7694
:10a4a000109d00926ff001040022019302970b4669
:10a4b000cde90365cde905241146fff79dff09b0fd
:10a4c000f0bd00bff8b516460d4601f0d5fe00eb15
:10a4d000800000eb800012f049f956b312f0a6f8a4
:10a4e0004342dbb2c0b22e4458bf58422c46013e14
:10a4f0002870c5f10107a64207eb040519d000bf7b
:10a5000012f094f84342dbb205f00705c0b258bf21
:10a510005842072d04f8010fedd101f0adfe00eb1c
:10a52000800000eb800012f021f9a64207eb040541
:10a53000e6d10020f8bd00bf2de9f04fa9b0ddf84d
:10a54000c8b0002800f0cb80002900f08c80002ae1
:10a550004ff000048360c0f814b0c0f804b00cbf22
:10a560004ff034084ff02408c46004748025302371
:10a570001746894600226ff00101049508ad044694
:10a58000cde905210093cde901221146104603953e
:10a59000544bfff731ff002840f09c80dff848a1c2
:10a5a0000df11f0551462a460df19f06a446d323ff
:10a5b00002e000bf11f8013f12f8014f6340b242c0
:10a5c00040ea0300f6d16446002840f083806ff033
:10a5d0000102444b069208a920224ff0800ccde9dd
:10a5e000020100920590019003f12001cdf810c006
:10a5f0001022fff701ff00286cd1d32302e000bf37
:10a600001af8013f15f8012f5340ae4240ea03000b
:10a61000f6d100285ed1842010f0b6fee06000285c
:10a620004cd0424608a92046fff74cff00284ad1eb
:10a63000414608a8fff76cfee2680546f8b112b182
:10a64000104611f0a1fa0023e36008ab9844002201
:10a6500003f8012b4345fbd125bb01232374284676
:10a6600029b0bde8f08f002a39d18360c0f814b05a
:10a67000c0f804b0c26002744ff0340876e7cdf839
:10a6800008b0a368019310464b460097a8f1040256
:10a6900009a9fff72bfc05460028d6d0e268002a5e
:10a6a000ced1d0e7032d15d0012d08bf6ff0c60520
:10a6b00002232846237429b0bde8f08f02232374b7
:10a6c0006ff07c05c1e7e268022323740125002aac
:10a6d000b6d1b8e7032323746ff0d005bfe76ff05e
:10a6e000ac05bce7607b0101907b0101f0b505463c
:10a6f00083b018200e46174610f046fe044648b1b7
:10a700006ff0010c3b4632462946cdf800c0fff7fa
:10a7100013ff10b9204603b0f0bd204611f034fa03
:10a720000024f7e700b583b000236ff00102009228
:10a7300019461a46fff700ff03b05df804fb00bf9f
:10a7400000b583b00b46009200221146fff7f4fedd
:10a7500003b05df804fb00bf00b583b06ff00103e8
:10a7600000930023fff7e8fe03b05df804fb00bf91
:10a77000e2e600bf002800f09580002900f09280fa
:10a78000002a00f085802de9f04343690233a9b027
:10a79000154606460c4618d1b5f5803f7fd896f889
:10a7a0001080b8f1010f77d12a462146f068fff7f3
:10a7b00033fc022816d088b1032864d002233374f6
:10a7c0006ff0c60029b0bde8f083fef7a3fb6ff47d
:10a7d00087739842e0d029b0bde8f083002029b00b
:10a7e000bde8f083dff8c490cdf804904ff0800c02
:10a7f0006ff00101002208af4ff0200ecdf810c01d
:10a800004ff0300ccde905214046a9f13003114647
:10a81000cde902e7cdf800c0fff7eefd98bb09f1e6
:10a8200020010df11f020df19f0ea446042301e04b
:10a8300011f8013f12f8014f6340964540ea0300ca
:10a84000f6d16446f8b9242239463046fff73afe7d
:10a8500000bb24213846fff75bfd58b9f068c8b14a
:10a86000202209a9fff780fb20b92a462146f0687b
:10a87000fff7d2fb3b4611a9002200bf03f8012bd2
:10a880008b42fbd197e7032333746ff0d00099e735
:10a89000002070470120ede76ff0c60092e76ff0ef
:10a8a000ac008fe76ff0ac00704700bf407c010147
:08a8b0000122fff75fbf00bfaa
:020000040000fa
:020000040100f9
:10a8b8002de9f04fd5b0031f00f11c040b930a9447
:10a8c8000baa00bf53f8040f42f8040f9c42f9d1b9
:10a8d80014ac0439234624a851f8042f43f8042b58
:10a8e8009842f9d104f1c00c22461346966b52f8ef
:10a8f800040f5d6a1f684feaf64383ea76434fea1e
:10a90800b04183ea96233d4481eaf0112b4481ea61
:10a91800d0010b449445d363e7d1139d0995dff823
:10a9280028c3c34ddff824e3dff824830d98dff84c
:10a9380024930c9abf4b0193cde9075cbe4d00945c
:10a94800cde9055ebd4d0f9f12990e9e119bddf856
:10a9580040a0cde90358ba4d0295044693464846af
:10a96800ddf8249014e055e90802029255f8182cf5
:10a97800039255f8142c049255f8102c059255f8aa
:10a988000c2c069255f8082c079255f8042c0892be
:10a9980081ea030c4feafa25009a85eaba150cea0f
:10a9a8000a0c8cea010c85ea7a651268654415443c
:10a9b800a9448144009807eb09058aea030840681e
:10a9c80008ea05085a46014488ea030888444fea19
:10a9d800f52e4bea040b114621408eeab51e0bea10
:10a9e800060b4bea010b8eea756e0299c6448e443b
:10a9f8004fea723706eb0e0187eab207009e87ea34
:10aa0800b2578aea05005f44b6684f4400ea010974
:10aa180089ea0a09981947ea020c09eb00064fea85
:10aa280077390cea040b4feaf12807ea020c89eaa5
:10aa3800b70989eab75988eab1184bea0c0c88ead1
:10aa48007168cc44039bf44446441e4447ea0c0313
:10aa580003ea0209009b344485ea010bdb684feaec
:10aa68007c3e0bea040b4feaf42807ea0c008bea59
:10aa7800050b8eeabc0e9a4488eab4188eeabc5ece
:10aa880088ea746840ea0900da44049b7044c244c6
:10aa980030449a4402eb0a0e4cea0009009a0cea88
:10aaa80000084fea703309ea07091669526949ea4a
:10aab800080983eab00381ea040808ea0e0883ea71
:10aac800b0534feafe2b88ea01084b4435448bea21
:10aad800be1b9a4445448bea7e6b059bab449b4462
:10aae80040ea0a054fea7a3607eb0b0984ea0e03b7
:10aaf80000ea0a0705ea0c0586eaba0686eaba56a3
:10ab08003d4303ea09034feaf928354463401144f9
:10ab180088eab91805eb0b07194488ea7968069a98
:10ab280001eb08064aea070b4fea773332440aea90
:10ab380007080bea000683eab70346ea080683ea31
:10ab4800b7531e44009b0ceb02019b698eea090c6b
:10ab58000cea010c4feaf12b16441c448cea0e0552
:10ab68008beab11b25448bea716b47ea06084fea6a
:10ab78007633079a05eb0b0408ea0a0807ea060b7e
:10ab880083eab603224448ea0b0883eab6544444ed
:10ab980083181444009ad2690eeb0208019a89ead4
:10aba800010000ea030520324feaf32085ea090e86
:10abb800019280eab310089a46ea040c4fea743509
:10abc800c64480ea736006ea04080cea070c85eac2
:10abd800b405704485eab45596464cea080c864498
:10abe80005eb0c007044009a019d834615482032fd
:10abf800a8420092f2447ff4b6aecde91131cde916
:10ac08000cb45a46cdf84c90cdf840a0cde90e676b
:10ac18000da9dde90a4301e051f8042b53f8040fac
:10ac280002449c421a60f7d1002055b0bde8f08f6d
:10ac3800a4823f92c09401015bc25639cffbc0b5d4
:10ac480091443771c0950101d55e1cabf111f159e2
:10ac5800a5dbb5e9982f8a4238b5d0b104460e492c
:10ac68000e4a0f4b0f4d1048216062600f49104a81
:10ac7800a360104be5600025c4e90401c4e906237c
:10ac8800c4e91855a566a567fef7c2f920672846e6
:10ac980038bd6ff0ac05fae767e6096a85ae67bbb1
:10aca80072f36e3c3af54fa57f520e518c68059ba6
:10acb800abd9831f19cde05b50b170b5044615467a
:10acc8000e46fff7c9ff10b9c4e91b65606770bd80
:10acd8006ff0ac00704700bf00287ed000294dd02f
:10ace8002de9f843036f02330c461546064608d093
:10acf8000023fef783f86ff48773984201d0bde80c
:10ad0800f883306e3f286bd8736eeb18736602d3e6
:10ad1800b36e0133b36606f1200890bb3f2d29d9e5
:10ad280006f11c0706f15c09214604f1400243467e
:10ad3800d1f800c04c688868d1f80ce0c3f80ce082
:10ad480010319142c3f800c05c60986003f11003b1
:10ad5800eed10c46403d3b4653f8042f12ba4b4502
:10ad68001a60f9d141463046fff7a2fd0028c6d146
:10ad78003f2dd9d855bb0020bde8f8836abb002019
:10ad88007047c0f14007af4228bf2f4621464044d4
:10ad98003a4611f0c9fb336e3b44402ba5eb07053f
:10ada8003c443366bad106f11c0306f15c0900bfc6
:10adb80053f8042f12ba99451a60f9d14146304622
:10adc800fff776fd00289ad13066a7e7214640466e
:10add8002a4611f0a9fb3566cde76ff0ac00704745
:10ade8006ff083008be700bf30b488b0e8b1e1b101
:10adf8000d46021fadf104011c3000bf52f8043f9c
:10ae08001bba824241f8043ff8d16c460fcc286047
:10ae18006960aa60eb600fcc002428616961aa61af
:10ae2800eb61204608b030bc70476ff0ac04f8e71f
:10ae380000287dd000297bd0036f02332de9f04133
:10ae480004460d460ad000222b461146fdf7d6ffd0
:10ae58006ff48773984201d0bde8f081236e04f146
:10ae68002008591c8022216608f80320236e382bfd
:10ae780040d808eb0300c3f1380204f11c0604f1c2
:10ae88005c07002111f00efcd4e91932590f01ebcf
:10ae9800c202db00c4e91932334600bf53f8042f5d
:10aea80012babb421a60f9d1a26e636ea26541461e
:10aeb800e3652046fff7fcfc0028cdd1231f00bf27
:10aec80053f8042f12bab3421a60f9d121686268a4
:10aed800a368e068e86029606a60ab60e06921699e
:10aee8006269a369ab61e86129616a612046bde8ce
:10aef800f041b1e6c3f1400208eb0300002111f074
:10af0800d1fb04f11c064023236604f15c07334699
:10af180053f8042f12ba9f421a60f9d141462046cd
:10af2800fff7c6fc002897d1206638224046a8e7dc
:10af38006ff0ac00704700bff0b170b4104c114a0c
:10af48000460a4f1b144104bc166104d8260a4f5b1
:10af580036140f490f4a104ec360a4f6c7140023d5
:10af68004660c0e90454c0e90612c0e91833836694
:10af7800836770bc184670476ff0ac00704700bf1d
:10af8800d89e05c117dd703039590ef7310bc0ff57
:10af9800a78ff964a44ffabe07d57c36002874d071
:10afa80000296fd02de9f8430546006e3f286fd879
:10afb8006b6ed3180c4616466b6638d205f120081e
:10afc80000283bd13f2e28d905f11c0705f15c0963
:10afd800214604f140024346d1f800c04c68886815
:10afe800d1f80ce0c3f80ce010319142c3f800c06e
:10aff8005c60986003f11003eed10c46403e3b467e
:10b0080053f8042f12ba4b451a60f9d14146284625
:10b01800fff74efc48b93f2edad82eb121464046fc
:10b02800324611f081fa2e660020bde8f883ab6e37
:10b038000133ab6605f120080028c3d0c0f14007f2
:10b04800b74228bf3746214640443a4611f06cfac9
:10b058002b6e3b44402ba6eb07063c442b66b1d134
:10b0680005f11c0305f15c0953f8042f12ba994540
:10b078001a60f9d141462846fff71afc0028d4d1b6
:10b0880028669fe70ab9002070476ff0ac00704748
:10b098006ff08300c9e700bf002800f0898000290d
:10b0a80000f08680036e2de9f04100f120080e467d
:10b0b8008022591c016608f80320036e382b0446c9
:10b0c80057d808eb0300c3f1380204f11c0504f15a
:10b0d8005c07002111f0e6fad4e91921500f00ebc2
:10b0e800c101d200c4e919212b4600bf53f8042f2f
:10b0f80012ba9f421a60f9d1a26e636ea2654146e8
:10b10800e3652046fff7d4fb88bb231f04f1180131
:10b1180053f8042f12ba8b421a60f9d12168626879
:10b12800a368e568f56031607260b360216962699f
:10b13800a369b361316172611f4f204e204d2149cf
:10b14800dff88880dff888e0dff888c01e4ac4f896
:10b1580000800023c4e90376c4e90551c4e9183323
:10b16800c4f804e0c4f808c0e261a366a367bde8b8
:10b17800f081c3f1400208eb0300002111f092fabc
:10b1880004f11c054023236604f15c072b4600bf2d
:10b1980053f8042f12ba9f421a60f9d1414620464b
:10b1a800fff786fb0028e2d120663822404690e768
:10b1b8006ff0ac00704700bf39590ef7310bc0ff74
:10b1c80011155868a78ff964a44ffabed89e05c117
:10b1d80007d57c3617dd703038b50446fdf718ff03
:10b1e800d4b10f490f4d104a104b616001f147511e
:10b1f8002560a2600e4d0f4ae36001f5da110e4b8f
:10b2080000200a31e066c4e91800a066a067c4e916
:10b218000451c4e9062338bd6ff0ac0038bd00bf47
:10b2280007d57c36d89e05c117dd703039590ef721
:10b23800310bc0ffa78ff964a44ffabe704700bf57
:10b2480038b50446fdf7e4fe44b105462046fff74d
:10b2580003fd10b9c4e91b05606738bd6ff0ac0089
:10b2680038bd00bf704700bf30b5a1b00d460446d9
:10b27800fdf7cefe16491748174a029100231c9382
:10b28800cde919331b9301f14751144b019001f596
:10b29800da11134803920493124a134b0a31cde989
:10b2a8000501cde907237cb175b1214601a87c22af
:10b2b80011f03af91f9b01a843f0020329461f9396
:10b2c800fff7eafe21b030bd6ff0ac00fae700bf2f
:10b2d80007d57c36d89e05c117dd703039590ef771
:10b2e800310bc0ffa78ff964a44ffabe00b1816784
:10b2f8000020704790b189b110b5a0b00c467c22ef
:10b30800014601a811f010f91f9b01a843f00203a0
:10b3180021461f93fff78cfd20b010bd6ff0ac00e5
:10b32800704700bf68b161b108b50b467c22014681
:10b33800184611f0f9f8826f42f002028267002085
:10b3480008bd6ff0ac007047fff7ecbf00b1816734
:10b358000020704710b109b1836f0b60002070475f
:04b36800fff7f8bf34
:020000040000fa
:020000040100f9
:10b36c0070b51646026c856b04462ab90668013521
:10b37c0046b30020a56370bd86b9406811f0d2f8c1
:10b38c006368216ca2680b44934205f1010563606c
:10b39c00efd3236863603046a56370bdc06811f0bd
:10b3ac00c1f8226ce3682168524213448b42e3607b
:10b3bc0002d2a3681a44e260022e08d001350020a4
:10b3cc00a56370bd8068fcf735fca660d2e7002d44
:10b3dc00cfd101250020cde7026c72b110b40b4621
:10b3ec00d0e902411144a142c16024bf0168c1608f
:10b3fc005df8044b184611f095b8704770b5846c25
:10b40c00a26be36b82b09a42019003d300252846cd
:10b41c0002b070bd94f84560002201a92046fff7e8
:10b42c009fff76b2731c05460ad1636a002beed0df
:10b43c0004f12400fcf756fa002818bf0125e6e7b2
:10b44c00fbf7e2fe8642e2d2013676b284f8456022
:10b45c00dde700bf70b5054608f010fe95f84540d5
:10b46c0064b2002c1bdd05f1240606e0fff7c6ffd5
:10b47c0070b9013ce3b25cb28bb1ab6c2846002bcb
:10b48c00f4d16b6a304653b1fcf72cfa0028f0d09b
:10b49c00013cfcf73ffbe3b25cb2002bedd1ff2388
:10b4ac0085f8453008f0fafd08f0e8fd95f84440c1
:10b4bc0064b2002c16dd2b69a3b105f1100605e072
:10b4cc00013ce3b25cb26bb12b695bb13046fcf76b
:10b4dc0009fa0028f4d0013cfcf71cfbe3b25cb287
:10b4ec00002bf1d1ff2385f84430bde8704008f003
:10b4fc00d5bd00bf30b3c36b13b370b5056ca5fbe2
:10b50c0003350023002d36d104460e4608f0b6fd57
:10b51c00d4e90f322168a56303fb02f39a1aff20ca
:10b52c000a440b4484f84400c4e90232616084f894
:10b53c004500beb9236933b908f0b0fd012070bdd8
:10b54c0018467047704704f11000fcf7cbf900283f
:10b55c00f2d00a4b4ff080521a60bff34f8fbff3fb
:10b56c006f8fe9e704f110000ef08cff04f124005a
:10b57c000ef088ffe0e7184670bd00bf04ed00e058
:10b58c0001fb00f313f14d0f70b515d8064603f10e
:10b59c004c000d460af064ff044668b17db100f121
:10b5ac004c032360c4e90f6501212046fff7a2ff7d
:10b5bc000023a364204670bd0024204670bd0346c2
:10b5cc00efe700bf024618b1a2fb012303b9d7e78e
:10b5dc000020704758b1884207d310b50c460021a3
:10b5ec00fff7ceff00b1846310bd00207047704799
:10b5fc002de9f04385b00446894601921f4600268a
:10b60c00dff82c8107e008f049fd2046fff722ff08
:10b61c00fbf7dafe012608f031fda26be36b9a42d0
:10b62c0043d3022f5dd0019d002d65d0002e38d064
:10b63c0008f034fdfbf7d2fd08f020fd94f84430ff
:10b64c00ff2b04bf002384f8443094f84530ff2bc3
:10b65c0004bf002384f8453008f020fd01a902a89e
:10b66c00fcf71afa00284dd108f008fda26be36b29
:10b67c009a42c8d108f012fd019904f11000fcf7b0
:10b68c00d7f82046fff7e6fefbf79efe0028c1d157
:10b69c004ff08053c8f80030bff34f8fbff36f8f5c
:10b6ac00b8e702a8fcf7eef9c2e749463a4620464d
:10b6bc00a56bfff755fea36c6bb3022f19d0204678
:10b6cc00fff79cfe38b11a4b4ff080521a60bff353
:10b6dc004f8fbff36f8f08f0e1fc012005b0bde880
:10b6ec00f0833a4649462046a56bfff739fea36c1a
:10b6fc008bb1002de3d0eee708f0d0fc284605b066
:10b70c00bde8f0832046fff7a5fefbf75dfe0020a9
:10b71c0005b0bde8f083636a13b90028dbd0d2e72b
:10b72c0004f12400fcf7def80028d4d0cbe700bfee
:10b73c0004ed00e010b500210120fff721ff0446c5
:10b74c0038b1002383600360c3601a461946fff7c3
:10b75c004fff204610bd00bf2de9f843eff31186d3
:10b76c004ff0200484f31188bff36f8fbff34f8f1a
:10b77c00856bc46ba54206d3022b04d0002086f344
:10b78c001188bde8f88390f84550d0f838901746ea
:10b79c006db21a4698460446fff7e2fd6b1c0fd1ba
:10b7ac00a36cd3b1b8f1020f02d1b9f1000f0fd1d4
:10b7bc002046fff723fe58b157b101203860dee771
:10b7cc00fbf722fd854203d201356db284f845505a
:10b7dc00012086f31188bde8f883636a002bf7d04b
:10b7ec0004f12400fcf77ef80028e5d1f0e700bf57
:10b7fc00f8b5eff311864ff0200383f31188bff3f4
:10b80c006f8fbff34f8f836bc26b9a4210d990f836
:10b81c00455001336db283636b1c0f460cd1836ca6
:10b82c00bbb1fff7ebfd80b17fb10120386000e0c8
:10b83c00002086f31188f8bd0446fbf7e5fc854231
:10b84c0003d201356db284f84550012086f311887e
:10b85c00f8bd436a002bf8d02430fcf743f80028dd
:10b86c00e2d1f2e7f0b5044685b00f46019208f03c
:10b87c0005fca56b002d57d1019b002b36d002a8df
:10b88c00fcf700f93a4e08f009fcfbf7a7fc08f0ae
:10b89c00f5fb94f84430ff2b04bf002384f84430ac
:10b8ac0094f84530ff2b04bf002384f8453008f092
:10b8bc00f5fb01a902a8fcf7eff8e0b908f0defbf4
:10b8cc00a36b2bbb08f0eafb019904f12400fbf7f6
:10b8dc00afff2046fff7befdfbf776fd88b308f0ff
:10b8ec00cdfba56b05bb019b002bccd108f0d6fb87
:10b8fc00002005b0f0bd2046fff7acfdfbf764fd62
:10b90c0008f0bcfba36b002bf0d008f0c7fbe6e7fc
:10b91c0008f0c4fb2046fff79dfdfbf755fd08f032
:10b92c00adfba56b002dded039462046013dfff75f
:10b93c0053fda563236963b908f0b0fb012005b082
:10b94c00f0bd4ff080533360bff34f8fbff36f8f59
:10b95c00c5e704f11000fbf7c5ff0028ecd0044b41
:10b96c004ff080521a60bff34f8fbff36f8fe3e736
:10b97c0004ed00e02de9f043044685b000f1240805
:10b98c00019108f07bfba36bdff84c9100273e463e
:10b99c00002b42d1019d002d7ad0002e59d008f0f9
:10b9ac007dfbfbf71bfc08f069fb94f84430ff2b84
:10b9bc0004bf002384f8443094f84530ff2b04bfb7
:10b9cc00002384f8453008f069fb01a902a8fcf7b4
:10b9dc0063f8002830d108f051fba36b002b3cd14d
:10b9ec0008f05cfb2368002b59d001994046fbf70b
:10b9fc001fff2046fff72efdfbf7e6fc38b94ff092
:10ba0c008053c9f80030bff34f8fbff36f8f0126ff
:10ba1c0008f034fba36b002bbcd02268013ba36362
:10ba2c00002a54d02369002b42d108f037fb0127a0
:10ba3c00384605b0bde8f0832046fff70bfdfbf759
:10ba4c00c3fc08f01bfba36b83b108f027fb01269a
:10ba5c00dee702a8fcf716f8a1e708f01ffb20466a
:10ba6c00fff7f8fc0126fbf7affcd1e708f016fb5b
:10ba7c001fb9384605b0bde8f08308f0fffa616adb
:10ba8c0019b1236b1968c1f10501a068fcf716f90f
:10ba9c0008f004fb0027384605b0bde8f08308f039
:10baac00edfaa068fcf76ef8074608f0f7fa9ce789
:10babc0004f11000fbf716ff0028b6d0064b4ff030
:10bacc0080521a60bff34f8fbff36f8fade7fcf757
:10badc0049f9a060a6e700bf04ed00e070b504468c
:10baec0084b00e46019208f0c9faa36b002b5bd10f
:10bafc00019b002b36d002a8fbf7c4ff384d08f091
:10bb0c00cdfafbf76bfb08f0b9fa94f84430ff2b35
:10bb1c0004bf002384f8443094f84530ff2b04bf55
:10bb2c00002384f8453008f0b9fa01a902a8fbf704
:10bb3c00b3ffe0b908f0a2faa36b2bbb08f0aefa86
:10bb4c00019904f12400fbf773fe2046fff782fcf9
:10bb5c00fbf73afc00b308f091faa36b23bb019bf3
:10bb6c00002bccd108f09afa002004b070bd20460e
:10bb7c00fff770fcfbf728fc08f080faa36b002b96
:10bb8c00f0d008f08bfae6e708f088fa2046fff7c9
:10bb9c0061fcfbf719fcdee74ff080532b60bff321
:10bbac004f8fbff36f8fd6e731462046e568fff71e
:10bbbc0013fc636ae56023b908f070fa012004b045
:10bbcc0070bd04f12400fbf78dfe0028f4d0044b6b
:10bbdc004ff080521a60bff34f8fbff36f8febe7bc
:10bbec0004ed00e02de9f041eff311864ff0200455
:10bbfc0084f31188bff36f8fbff34f8f846b24b91d
:10bc0c00204686f31188bde8f08190f84470054613
:10bc1c007fb29046013cfff7dffb7b1cac6306d187
:10bc2c002b696bb9012086f31188bde8f081fbf715
:10bc3c00ebfa8742f6d201377fb285f84470f1e710
:10bc4c0005f11000fbf74efe0028ebd0b8f1000f09
:10bc5c00e8d00120c8f80000d3e700bf70b5eff3bf
:10bc6c0011854ff0200383f31188bff36f8fbff35f
:10bc7c004f8f836b1bb9184685f3118870bd044632
:10bc8c00c668fff7a9fbe660012085f3118870bd3b
:10bc9c0010b5044608f0f2f9a46b08f0fff9204641
:10bcac0010bd00bf38b5054608f0e8f9a86bec6b81
:10bcbc00241a08f0f3f9204638bd00bf806b70479a
:10bccc000af03abc806bb0fa80f04009704700bfb4
:10bcdc00836bc06bc01ab0fa80f04009704700bf8c
:10bcec0070b504460d46164608f0c8f994f8443071
:10bcfc00ff2b04bf002384f8443094f84530ff2b0d
:10bd0c0004bf002384f8453008f0c8f9a36b23b1b5
:10bd1c002046bde87040fff79dbb04f1240032467d
:10bd2c002946fbf7b5fd2046bde87040fff792bbf6
:10bd3c00034618b19b0f01d1042121e40020704768
:10bd4c0038b504460d4608f099f9a36c23b10024cc
:10bd5c0008f0a4f9204638bda26b22b11c4608f0ad
:10bd6c009df9204638bda564012408f097f92046ba
:10bd7c0038bd00bf38b5836c8b4201d0002038bd74
:10bd8c00856b002dfad1044608f078f9a56408f00b
:10bd9c0085f9012038bd00bf00b583b00a460023e9
:10bdac0001a90193fff75efd019803b05df804fb58
:10bdbc0000b5002383b01a4601a90193fff712ffc7
:08bdcc00019803b05df804fbcf
:020000040000fa
:020000040100f9
:10bdd4002de9d04f204c636b626922611bb19a68d4
:10bde400b2f5004f30d3636947f6ff76002716ebb0
:10bdf400030a47f1000b63689b69984721698142f4
:10be040082b24ff0000306d94ff6ff7152184ff07b
:10be1400000141eb0303216a12eb010843f100091d
:10be2400cb4508bfc2453abf5218e261c4f81ca012
:10be3400e3699bb20bb90123e361e069636880b2f3
:10be44005b69bde8d04f18479e686369002716eb0d
:10be5400030a47f1000bcee7d8b90020144b5a6b04
:10be6400cab1824230b403d117e0984206d01a46d0
:10be74009369002bf9d1184630bc704783691bb114
:10be84008468996821449960936100230022826147
:10be940030bc1846704710467047916919b19568cf
:10bea4008c682c448c6092695a630123eee700bfce
:10beb400d8b90020002843d02de9f043dff88ce006
:10bec400d0f808c0def834307bb3e0464ff0000908
:10bed40000210024002500e013469a68a61845f1c5
:10bee4000007b94508bfb04516d399689a69641824
:10bef40045f100051946002aeed1826198618369f3
:10bf0400aceb04048460e3b1002280689968091ae8
:10bf140099601046bde8f08379b9aceb0404cef81f
:10bf24003400012284608361efe70122c0f808c075
:10bf3400cef834001046bde8f0838a690b46dce78e
:10bf440070471a461046bde8f08300bfd8b90020f8
:10bf540010b4104c636b7bb170b19a68904210d9e5
:10bf6400002103e040b19a6882420ad29a6899603b
:10bf74009b69801a002bf5d1636923615df8044b3a
:10bf840070479a68101a9860636923615df8044bde
:10bf9400704700bfd8b9002010b5084c94f8311090
:10bfa40094f908000ff014f894f8303003b110bd80
:10bfb40004f13800bde810400bf042bfd8b90020ae
:10bfc4002de97848154c63689b690646984760617b
:10bfd40063692569ab4298bf03f580335d1b28462e
:10bfe400fff7b6ff0ef0ccffd4e90abc1beb050249
:10bff4004cf10003c4e90a230ef0c4ff3046fff7f6
:10c0040059ff08b9bde878880ef0baff0446fff777
:10c01400dffe2046bde878480ef0b4bfd8b9002052
:10c0240070b50c4d95f8304014b10124204670bd14
:10c034004ff0ff3105f138000bf000ff01280646f0
:10c04400f4d195f908000ef09fff344685f83100cd
:10c05400ece700bfd8b900202de9f84381460d462e
:10c0640017461e469df82080fff7daff002836d0d9
:10c074001d4b93f90020022a06d04ff0ff34fff73e
:10c084008bff2046bde8f883002df6d04d45f4d350
:10c094004033002404e001340a2c03f12003ecd0e3
:10c0a4001a78002af7d111481a75b0f800c05a75e9
:10c0b4000cf10101a5eb090289b29a604ff6ff72f7
:10c0c400914208bf012144ea0c44012283f8028012
:10c0d4005d60c3e90376dc6101801a80cfe74ff02d
:10c0e400ff342046bde8f883d8b90020cec0002034
:10c0f400431e033310b515d882b2092a12d80c4b4b
:10c1040003eb4213da6d90420cd193f8404054b1e2
:10c1140093f854400022e4b283f85420fff73cff24
:10c12400204610bd0024fff737ff204610bd00bf96
:10c13400d8b9002000294ed000284cd12de9f8436d
:10c14400264c064604f138000d460bf05bfe012830
:10c1540003d04ff0ff30bde8f8832b686360db68e1
:10c1640098470746e8201e4ae7600023a7fb000122
:10c174000ff0b2ff6368297984f8306002304ff61b
:10c18400ff7247f6ff754ff000084ff000091b6877
:10c19400266120622172e561a26166633146c4e9c9
:10c1a4000a891048984763681a6912b1208b90472e
:10c1b4006368e0695b6980b2984763685b68984725
:10c1c4004ff4a0720021084810f06efa02230348cd
:10c1d4002370bde8f8834ff0ff307047d8b90020d2
:10c1e4000090d0034dc4000118ba002010b50a4cc9
:10c1f400844200d010bd63689b6898474ff4a072d6
:10c20400002104f1400010f04ffa204640220021a2
:10c21400bde8104010f048bad8b90020034b83425f
:10c224000cbf93f900000020704700bfd8b900206c
:10c23400014bd868704700bfd8b9002070b50c4cca
:10c244000ef09efe63689b69064698472369d4e90d
:10c254000a12984296bfc3f58033c31a1b18cc1830
:10c26400304642f100050ef08dfe2046294670bd91
:10c27400d8b9002008b5fff7e1ff08bd38b504467a
:10c284000ef07efe03490025c1e90a45bde83840a9
:10c294000ef078bed8b9002008b5044a044ba0fbc0
:10c2a4000201da6800230ff017ff08bd40420f00b7
:10c2b400d8b9002008b5054a4ff47a73d268a0fbb8
:10c2c400030100230ff008ff08bd00bfd8b9002008
:10c2d40008b5044b044ad9680023a0fb01010ff000
:10c2e400fbfe08bdd8b9002040420f0008b5054b3d
:10c2f400d9684ff47a720023a0fb01010ff0ecfe21
:10c3040008bd00bfd8b9002010b49df8044004b99a
:10c314001ab101945df8044b9ee64ff0ff305df8ce
:10c32400044b70472de9f84f0446894690461f4652
:10c334009df82c60fff774fe002844d00eb9002f3e
:10c3440045d0631e033338d8a3b2092b35d8dff8a0
:10c354008cb05d010beb050adaf85c309c422cd101
:10c364009af840304bb3b8f1000f26d0c84524d317
:10c374000bf140042c442046fff770fd9bf830106d
:10c384000a98caf850000023a8eb09028af854302e
:10c394008af842608af85530caf84480caf84c706a
:10c3a400caf848202046b1b9fff70afe0beb050393
:10c3b400012283f84120002400e00124fff7ecfd72
:10c3c4002046bde8f88f01242046bde8f88ffff72a
:10c3d400e3fd0124f4e7fff76dfde7e7d8b900209a
:10c3e400f8b50446fff71cfef8b1631e033317d8f3
:10c3f400a3b2092b14d8134e5d017719fb6d9c422f
:10c404000ed197f840305bb197f8413083b9731976
:10c41400002483f8544083f8404083f8554000e0fa
:10c424000124fff7b9fd2046f8bd01242046f8bddc
:10c4340006f140002844fff711fd002387f841303e
:10c44400e5e700bfd8b90020f8b5344d6b686c6bd4
:10c454009b69984768616b692869d5e90a678342d3
:10c4640098bf03f58033181a321847f10003c5e961
:10c474000a23002c48d095f83030013385f8303049
:10c48400fff766fd6c6becb1a368dbb901260ce029
:10c49400e36883b1e069fff7a3ffe3680bb12069a8
:10c4a40098476c6b74b1a36863b9a378267520466a
:10c4b4006675002becd0fff7d1fca378002becd1f0
:10c4c4006370eae7164c002603e00a2e04f1200408
:10c4d40015d005eb4613002193f855200136002aa8
:10c4e400f3d0a27883f85510012aeed162689a64d9
:10c4f4002046fff7dffc0a2e04f12004e9d195f869
:10c504003030013b85f830300ef03afd0446fff739
:10c514005ffc2046bde8f8400ef034bdd8b90020d9
:10c5240018ba002070b50446fff77afd60b3631ea5
:10c53400033324d8a3b2092b21d8174e5d017219f5
:10c54400d36d9c421bd192f84030c3b192f8413074
:10c55400ebb9936c0bb9536c9364104896f8303074
:10c564002844b3b1fff7a6fc73190022012183f814
:10c57400542083f84110144683f8552000e0012428
:10c58400fff70afd204670bd0124204670bd00243b
:10c59400f6e7fff715fde7e7d8b9002018ba002041
:10c5a40038b50446fff73cfd20b3631e03331cd8a3
:10c5b400a0b2092819d8114b40011d18ea6d944204
:10c5c40013d195f8402082b195f8414074b14033bd
:10c5d4001844fff743fc00246b6c85f8544085f83d
:10c5e400414085f85540ab6400e00124fff7d4fcda
:10c5f400204638bd0124204638bd00bfd8b90020ec
:10c60400f8b504460d46fff70bfd00283ad0002d7f
:10c6140033d0631e033330d8a3b2092b2dd81e4e5a
:10c624005b01f218d16d8c4227d192f8401021b3ee
:10c6340092f841204ab3746b5cb306f14002134490
:10c64400002203e0a168a4690a4414b3a342f9d107
:10c654007368a7689b69174498473369984296bfe3
:10c66400c3f58033c01ac018874263680ed33a1ae0
:10c6740093420ad3c01b034408e00124fff78cfc57
:10c684002046f8bd01242046f8bd00232b60002479
:10c69400f4e700239b68ffded8b9002010b50446f8
:10c6a400fff7befc18b12046bde8104020e510bde0
:10c6b40001b108b90120704730b50e4b0e4a0d4642
:10c6c400d96883b00023a0fb01010ff005fd00240d
:10c6d40001462346009422462046fff7bdfc431c36
:10c6e400286002d1012003b030bdfff71bff2046b4
:10c6f40003b030bdd8b9002040420f0001b108b9e1
:10c704000120704730b50f4b0d46d96883b04ff404
:10c714007a720023a0fb01010ff0defc0024014625
:10c724002346009422462046fff796fc431c2860cb
:10c7340002d1012003b030bdfff7f4fe204603b060
:10c7440030bd00bfd8b9002038b50546fff768fcf6
:10c7540020b12846fff7ccfc044610b9002420463b
:10c7640038bd2846fff73cfe204638bdf0b583b0ff
:10c7740003b900b122b94ff0ff34204603b0f0bd35
:10c784001e460d4b0546d86814460f460b4a002337
:10c79400a4fb00010ff0a0fc3b46014600962a468c
:10c7a4000020fff759fc431c0446e6d0fff7bafe0d
:10c7b400204603b0f0bd00bfd8b9002040420f00ae
:10c7c400f0b583b003b900b122b94ff0ff3420466d
:10c7d40003b0f0bd1e460d4b0546d86814460f46ff
:10c7e4004ff47a720023a4fb00010ff075fc3b4662
:10c7f400014600962a460020fff72efc431c0446ff
:10c80400e5d0fff78ffe204603b0f0bdd8b9002075
:020000040000fa
:020000040100f9
:10c81400f0b5154689b0f02800f2f181dfe810f098
:10c82400d801ef01d801d801d801ef01ef01ef01e0
:10c83400ef01ef01ef01ef01ef01ef01ef01ef0174
:10c84400ef01ef01ef01ef01ef01ef01ef01ef0164
:10c85400ef01ef01ef01ef01ef01ef01ef01ef0154
:10c86400ef01ef01ef01ef01ef01ef01ef01ef0144
:10c87400ef01ef01ef01ef01ef01ef01ef01ef0134
:10c88400ef01ef01ef01ef01ef01ef01ef01ef0124
:10c89400ef01ef01ef01ef01ef01ef01ef01ef0114
:10c8a400d301ce01c901d801c401ba01b301d80131
:10c8b400ef01ae01e801e301a901ef01d801d801bc
:10c8c400d801ef019b01d801d80196019101d8014b
:10c8d4008c01d8018701ef01ef01d301ef01ef01d2
:10c8e400ef01ef01ef01ef01ef01ef01ef01ef01c4
:10c8f400ef01ef01ef01ef01ef01ef01ef01ef01b4
:10c90400ef013c01330163012a011d0114010e01f1
:10c91400ef01ef01ef01ef0108010201f100ef0166
:10c92400ef01ef01ef01ef01ef01ef01ef01ef0183
:10c93400ef01ef01ef01ef01ef01ef01ef01ef0173
:10c94400ef01ef01ef01ef01ef01ef01ef01ef0163
:10c95400ef01ef01ef01ef01ef01ef01ef01ef0153
:10c96400ef01ef01ef01ef01ef01ef01ef01ef0143
:10c97400ef01ef01ef01ef01ef01ef01ef01ef0133
:10c98400ef01ef01ef01ef01ef01ef01ef01ef0123
:10c99400ef01ef01ef01ef01ef01ef01ef01ef0113
:10c9a400ef01ef01ef01ef01ef01ef01ef01ef0103
:10c9b400ef01ef01ef01ef01ef01ef01ef01ef01f3
:10c9c400ef01ef01ef01ef01ef01ef01ef01ef01e3
:10c9d400ef01ef01ef01ef01ef01ef01ef01ef01d3
:10c9e400ef01ef01ef01ef01ef01ef01ef01ef01c3
:10c9f400ef01ef01ef01ef01ef01ef01ef01ef01b3
:10ca0400d801a84a2988a2f8c01100243bb1a64d38
:10ca14002b7823b1a54bde7d002e00f0f28020465a
:10ca240009b0f0bda24a28686968002403c2ede792
:10ca3400a04a28686968002403c2e7e7994a29687c
:10ca4400c2f8ac110024e1e72a78022a00f2de8061
:10ca54009449002481f8aa21d8e7924a92f8aa01bd
:10ca6400884240f2d58002eb81012a68c1f8a221f4
:10ca74000024cbe72a880a2a00f2c88089490024c6
:10ca8400a1f8a021c2e72a78042a00f2bf808549d0
:10ca9400002481f8ac20b9e7824a92f8ac008842bd
:10caa40040f2b68009b201eb4100c0ebc00001ebdb
:10cab40040010a4405f120072c686868a968ee68fb
:10cac400d6601035bd4214605060916002f11002ce
:10cad400f2d129686868506011602989a87a907237
:10cae4001181002492e76f4eb6f8a0218a4240f2e9
:10caf4008f8001eb410406ebc4042a88a4f8b0201b
:10cb04006a88a4f8b2202f46182257f8040f02fbb3
:10cb140001627968b83203c2ea68c4f8c0202a7c8a
:10cb2400003218bf012284f8c42000246ee75f4a53
:10cb34002988d181002469e75c4a298891810024ed
:10cb440064e75a4a2978d17400245fe7574a298850
:10cb5400118100245ae72c78544a0193d475002c8f
:10cb640058d007f0e1f801200ef078fa0024019b78
:10cb74004ce74e4a29789175002447e74b4a2978b7
:10cb84009174002442e72a78342a3fd84749002484
:10cb94004a743be7454a4848527c019329460ff0c2
:10cba400c5fc0024019b31e7404a297851750024d3
:10cbb4002ce73e4a29781175002427e73b4a297857
:10cbc4001174002422e7394a2978117600241de7dc
:10cbd40029460193044608f045fd8128019b1dd098
:10cbe40040b3002412e7314a2988518100240de71b
:10cbf400d5e900012d4a0024c2e9000106e7f42426
:10cc040004e730460ef098fe2e7008e7e824fde6af
:10cc1400f924fbe607f040f8019bf7e60ff064fb0c
:10cc24002946204608f01efd019b0028d9d11e4a42
:10cc34000121117002a9572001930bf073fd04a97f
:10cc44004f200bf06ffd06a94e200bf06bfd9df8f5
:10cc540008509df810109df81800019b6e1a86422a
:10cc640004461dda0122f0b2aa40241a013a12fb4a
:10cc740004f292b20d4e60b101384c1c54fa80f0ab
:10cc8400012500bf05fa01f401312244884292b221
:10cc9400f8d102eb8202920002f58572b281a0e71c
:10cca4000022e7e700010020d6bf0020e0000020ba
:10ccb400b8020020b00200209800002070b50d4694
:10ccc40082b0f02800f23282dfe810f08c01840197
:10ccd4007b0172016901600157014e01300230028b
:10cce40030023002300230023002300230023002b0
:10ccf40030023002300230023002300230023002a0
:10cd0400300230023002300230023002300230028f
:10cd1400300230023002300230023002300230027f
:10cd2400300230023002300230023002300230026f
:10cd3400300230023002300230023002300230025f
:10cd44003002300230023002300230023002490137
:10cd54004401300230023c0137013002300232011a
:10cd64002c01270122013002c801bf01b6013002a3
:10cd7400b101a8013002a3019e019501e401db0188
:10cd8400d60130023002d1013002300230023002ca
:10cd940030023002300230023002300230023002ff
:10cda4003002300230023002300230023002ef0131
:10cdb400e90115021c010f010901030130023002cf
:10cdc40030023002fd003002300230023002300204
:10cdd40030023002300230023002300230023002bf
:10cde40030023002300230023002300230023002af
:10cdf400300230023002300230023002300230029f
:10ce0400300230023002300230023002300230028e
:10ce1400300230023002300230023002300230027e
:10ce2400300230023002300230023002300230026e
:10ce3400300230023002300230023002300230025e
:10ce4400300230023002300230023002300230024e
:10ce5400300230023002300230023002300230023e
:10ce6400300230023002300230023002300230022e
:10ce7400300230023002300230023002300230021e
:10ce8400300230023002300230023002300230020e
:10ce940030023002300230023002300230023002fe
:10cea400300230023002300230023002f1006946b2
:10ceb400f0200bf037fc6b4603cb0024286069603c
:10cec400204602b070bd9b4b03cb002428606960f0
:10ced400f6e7994bd3f8ac310b600024f0e7964b9e
:10cee40093f8aa310b700024eae7934b93f8aa1144
:10cef400914240f21d8103eb82020024d2f8a23158
:10cf04002b60dde78c4bb3f8a0310b800024d7e70e
:10cf14008a4b9b7d0b700024d2e7884b5b890b8086
:10cf24000024cde7854b03cb002428606960c7e764
:10cf3400824b9b7c0b700024c2e7804b5b7c0b70a4
:10cf44000024bde77d4b7e495a7c28460ff0eefa5b
:10cf54000024b5e7794b1b7d0b700024b0e7774bb9
:10cf64001b7c0b700024abe7694607200bf0dafb4f
:10cf74009df800302b700024a2e7694606200bf0d0
:10cf8400d1fb9df800302b70002499e769460520f9
:10cf94000bf0c8fbbdf800302b80002490e76946f5
:10cfa40004200bf0bffb9df800302b70002487e7b2
:10cfb400694603200bf0b6fb9df800302b7000246b
:10cfc4007ee7694602200bf0adfb9df800302b7024
:10cfd400002475e7694601200bf0a4fb009b2b603d
:10cfe40000246de70446694600200bf09bfb9df886
:10cff40000302b7064e7694657200bf093fb9df8d3
:10d0040000302b7000245be74c4bdb7c0b7000245e
:10d0140056e74a4b1b890b80002451e7694653208d
:10d024000bf080fbbdf800302b80002448e7434b15
:10d03400db7d0b70002443e7694650200bf072fb44
:10d04400bdf800302b8000243ae769464f200bf0ee
:10d0540069fb9df800302b70002431e769464e20af
:10d064000bf060fb9df800302b70002428e7334b55
:10d074001b7e0b70002423e7304bdb890b800024dc
:10d084001ee7694659200bf04dfb9df800302b70cc
:10d09400002415e7294b9b890b80002410e7264bbd
:10d0a40093f8ac300b7000240ae7234b93f8ac10d0
:10d0b40091423dd912b202eb4201c1ebc10102eb34
:10d0c4004102134403f12006186859689a68dc6821
:10d0d400ec601033b34228606960aa6005f1100562
:10d0e400f2d11a68596869602a601a899b7aab720e
:10d0f4002a810024e4e6104bb3f8a011914217d919
:10d1040002eb420203ebc202d2e92e01b2f8b030c4
:10d114002b80b2f8b2306b80c5e90101d2f8c0307f
:10d12400eb6092f8c4302b740024c9e6f424c7e6fb
:10d13400f924c5e6b002002000010020e000002030
:10d144009800002070b50468a6780546324604f1bc
:10d1540008016078fff7b2fd6278e6701e23607004
:10d164002946a270237003480cf052fbbde87040be
:10d174000df086bb0000002070b50468a678054653
:10d18400314604f1080201236078fff741fb62781d
:10d19400e6701f2360702946a270237003480cf0c8
:10d1a40037fbbde870400df06bbb00bf00000020f2
:10d1b40038b50a4b1c78012c03d0bde8384008f080
:10d1c40051ba0d46044606f0affd2946204608f044
:10d1d40049fa044606f060fd204638bdd502002019
:10d1e400452811d007280cd9a0f140031f2b0ed9d4
:10d1f400a0f171030d2b0fd9f02834bf00200820b3
:10d204007047084b185c7047074b587c7047054bb8
:10d21400184410f8380c7047024b184410f8490ca5
:0cd22400704700bf34be0101e000002094
:020000040000fa
:020000040100f9
:10d230002de9f84fdff8689099f8ac30abb1013bbd
:10d24000dbb24ff02b08002792460c46064603fb44
:10d250000888bb464d46ab7a13b16b7aa34209d01e
:10d260002b37b84505f12b05f5d14ff0f30b584698
:10d27000bde8f88f94b1012c16bf4ff0df0b0922e7
:10d280000522314628460ff045f900b20028e7d1c3
:10d290004f44caf800705846bde8f88f0522f0e701
:10d2a00000010020012303fa00f010f0220f0ad140
:10d2b00010f0880f05d110f0440f14bf0820002093
:10d2c0007047102070470420704700bf0138c0b27b
:10d2d00002289abf014b185c002070479c9c0101fa
:10d2e000cb7c013bdbb2022b70b50546887c29d88c
:10d2f000224ce45c0534e4b2072803d8fff7d2ffe0
:10d300000444e4b22b681e4e1b1b2b6010780444af
:10d310001470cb7c8a7c2868db0002f0070203f0e3
:10d32000180313430370d6f8ac315a1c18d0c0f858
:10d330000130cb7c012b07d0022b09d0032b11d05d
:10d34000002070bd0524d7e70b7e4371002070bd1f
:10d350004b691b68c0f805300b7e4372002070bd1e
:10d36000db2070bd4b691a685b68c0f80930c0f8f3
:10d3700005200b7e4373002070bd00bf9c9c010103
:10d38000000100202de9f04f83695b7813f008035a
:10d39000b1b040f0858093740f46d17c00231546d0
:10d3a0000646cde90c338df838300893002940f05b
:10d3b00083809378022b00f0bf80032b40f0938092
:10d3c00052f8080f51680cab03c3012108aa0ca83e
:10d3d000fff72eff089b04938146002840f08a80c7
:10d3e000a87c072802d8fff75dff8146002306a925
:10d3f000f020cde90833cde90a330bf095f995f823
:10d4000012a00df121020df11f030df1170000bf55
:10d4100013f8011902f8011b8342f9d14b4c0df1ad
:10d420002903211f14f8012903f8012b8c42f9d19b
:10d43000b6698df82da0711ca7eb0108a8eb0908af
:10d440005ffa88f842460ca80ff072f8767816f06a
:10d4500002062cd16b7e05930caa02eb080b394611
:10d460001a4658460ff064f8049a059b009308a9e1
:10d470004346cde901a61b320ca80cf095f8d4f870
:10d4800001300133c4f801306a7e4a445946a7eba3
:10d490000900d2b20ff04cf8304631b0bde8f08f41
:10d4a000937c23b12a4b1b7e002b7ff475afdf26c4
:10d4b000304631b0bde8f08f01292ed002291ed0b0
:10d4c0000329f4d153690df12f0203f1080000bfc5
:10d4d00013f8011b02f8011f8342f9d12b7e8df84e
:10d4e0003830012172e70ca808aafff7a1fe814697
:10d4f0000028dcd04e46304631b0bde8f08f53698d
:10d500000caa181d13f8011b02f8011b9842f9d14f
:10d510002b7e8df83430002158e70e4b0df12f0291
:10d5200003f1080413f8010b02f8010f9c42f9d132
:10d530002b7e8df8383049e792882b8952ba5bba36
:10d54000adf83020adf8323040e700bfaf02002028
:10d55000e0000020b00200202de9f04f177880f89d
:10d560002070feb2c6f3c106013ef6b2d2f8014009
:10d570008462022e96bfc44c0026a65d80f824600b
:10d580007c079db061d017f01807cde9051304465c
:10d5900015460fd0012e02f1050806f1ff3604d919
:10d5a000f2b241462c300ef0c3ffa31918f8062042
:10d5b00083f82c20228841f208031340082b4ad01c
:10d5c000b24b1b7e002b40d00faa0023cde91233b3
:10d5d000cde914330f9353601372002f3ed194f8aa
:10d5e0001080b8f1020f00f0e581b8f1030f00f0f0
:10d5f000fb81b8f1000f00f0e7814ff0df08104623
:10d6000039460aaafff714fe8146d8b9a378ddf897
:10d6100028a007931a46032a9af81a3036d08bb1fd
:10d620009af81820079882423cd05a1ed2b20aebd0
:10d630004202534602e0197e814233d09a4203f1fe
:10d640000203f8d14ff0f30801e04ff0df08404645
:10d650001db0bde8f08f4ff0de08f8e7082f00f0ae
:10d660008881102f00f00681182febd104f12b03d5
:10d670000df13b0104f1340613f8010f01f8010f1d
:10d68000b342f9d14ff000080127b8e7002bd9d0f9
:10d690009af8183094f83520032bd3d19af8193022
:10d6a0009342cfd1237c022b00f0f480032b00f0b7
:10d6b000c580002b00f0cb804ff0df089af81700f0
:10d6c0000028bfd05746182317f80bcfdff8c0b19a
:10d6d0009af80c20b02113fb0c135b440893002a2a
:10d6e00040f0ab81cdf820a0cdf824800126824601
:10d6f000984614e0b9f1080f00f0d780f3b2534513
:10d700004ff018089ed217f803cf7b7808fb0cb8af
:10d71000324608f1b0080136002b40f03d810ceb99
:10d720004c0c0bebcc0c0cf1b00cbce80f000df169
:10d73000580eaee80f009ce80300b9f1040f8ee824
:10d740000300d7d1bdf85800bdf85a3040ba5bbad3
:10d75000adf834004a460da90ba8adf836300ef0ee
:10d76000d9fe00b20028c9d1bb78002bc6d1ddf8a4
:10d7700020a0cdf82080ddf82480b8f1000f7ff4e0
:10d7800061af079b012b0af11b0240f29e8094f8c7
:10d790002090c9f302095ffa89f10846fff782fd7c
:10d7a000089e0df1490c334606f1070e0f3366460d
:10d7b000844600bf13f8010906f8010b7345f9d13f
:10d7c00004f12b030df1510604f1270e13f80109a2
:10d7d00006f8010b9e45f9d1079b8df855906046e0
:10d7e000002b7dd0012b7ff430af94f8246002939e
:10d7f000059b0536eb1af6b2e57801913344dbb2ae
:10d80000023ded1a2d1aedb212a9059800950bf004
:10d81000cbfe002840f0f180069b1e70a37884f8b0
:10d820003c50012b3ff613afa36a089a01331361f2
:10d8300001337ff40caf0123bb7008e722460bab2a
:10d8400052f8180f51684ff0080903c336e7104a21
:10d85000b2f8c0114ff6fd760846b04249ba00f260
:10d86000dc80e388adf82e105bbaadf82c304ff0b9
:10d87000040923e794f83010e36a8df840100f9301
:10d880004ff000084746bae69c9c0101e0000020ea
:10d8900000010020628a238b52ba5bbaadf82c20bb
:10d8a000adf82e304ff0040908e718ab93e80300f9
:10d8b0000dab83e803004a4619460ba80ef02afe7a
:10d8c00000b200287ff41aaf4ee7a36a591c04d0b7
:10d8d000089909698b42bff45aaf4ff0db08b6e6ee
:10d8e00094f82460059b94f803e006f10509a5eb84
:10d8f000030c5ffa89f6b4445ffa8cfc6344aef122
:10d9000002059b7803f0070313eb4303a5eb0c051b
:10d91000a5eb00051abf03f1050e581c0798059bdf
:10d920001844604408bf4ff0040ec0780191c0f362
:10d93000021100f0070000eb81000eeb4003edb296
:10d94000a5eb030e5ffa8efe63444ff0010c12a9a3
:10d950000598cdf800e0dbb2cdf808c00bf024fe4e
:10d9600000284ad1069b35441e70a37884f83c50a9
:10d9700057e7334b0df13b0103f1080613f8010b98
:10d9800001f8010f9e42f9d194f82c308df8443003
:10d990004ff00008012732e6ddf820a0cdf8208006
:10d9a000ddf8248002eb42025244537b002b3ff40b
:10d9b000e4ae47e6618a238b49ba5bbaadf83c1006
:10d9c000adf83e30b8461ae61e4bb3f8c0114ff61c
:10d9d000fd760846b04249ba12d8e388adf83e1049
:10d9e0005bbaadf83c300ae62146134651f8180ff1
:10d9f0004968b84603c3012701e64ff0e40826e66c
:10da00004ff6fe7188427ff43baf03f5dc7393e879
:10da10000300012782e80300f1e54ff6fe7188421a
:10da200001d099464ae602f5dc7292e803000bab9e
:10da300083e803004ff0080940e60022b2e700bf88
:10da4000b0020020000100202de9f0438a69b2f8fd
:10da50000160b70b5ffa87fcc6f3812483b080f8be
:10da600001c08470002c39d1131d47b1750658bf11
:10da70000233022f6ad0bcf1030f08bf083334070a
:10da80001fd51a78344c02f0070282741a78c2f358
:10da9000c102c274d4f8ac21c3f80120c27c013a9f
:10daa000d2b2022a09d82d4ca25c022a03f1050445
:10dab0003ed0032a37d0012a2fd0002303768a696b
:10dac00043610b7a037409691378c161891a5a1e7c
:10dad000521a4276002003b0bde8f0839388838019
:10dae0004ff000084ff00009022cc0e9028924d051
:10daf000032c02f10603b8d10df1ff3402f10e0e32
:10db000013f8015b04f8015f9e45f9d1dde900459a
:10db1000c0e90245002fb2d0a8e7002242615b793c
:10db200003768a69cde74461db7903768a69c8e7c1
:10db300044619b7903768a69c3e7d3880024c0e9ee
:10db4000023402f10803002f99d08fe7340703f164
:10db50000203b6d595e700bf000100209c9c01019f
:020000040000fa
:020000040100f9
:10db60002b4b2c4941f24852995002f5de724ff48a
:10db70008041995018324ff01451995003f5b95221
:10db80002549116041f224722449995004322449f4
:10db90009950043223499950043223499950043250
:10dba000e02199500432214999500432204999507a
:10dbb00003f5ba524ff44031116041f244721d49ed
:10dbc000995004321c49995004321c49995004322e
:10dbd0000621995004321a49995004321949995032
:10dbe00004324ff40041995003f5bb5216491160bd
:10dbf00041f2647215499950043245f233619950eb
:10dc000004324ff4f051995004324021995070473a
:10dc1000002001411e00ffffc0464654a040000cfa
:10dc200010928fbe18d410007aa64f4053a94821f5
:10dc30004b055046f1813d8cd3080c0c9002061820
:10dc400020875c006400ffff110d400605292400b9
:10dc5000024a536823f40063536070470040014157
:10dc6000c82300bf00bf00bf00bf00bf00bf00bf90
:10dc700000bf00bf00bf00bf00bf00bf00bf00bfac
:10dc800000bf00bf00bf00bf00bf00bf00bf013b1f
:10dc900013f0ff03e5d1704708b540f65a21012083
:10dca0000af03afa4ff49e7103200af035fa4ff465
:10dcb000987104200af030fa43f2152105200af089
:10dcc0002bfa43f2060107200af026fa4ff400610e
:10dcd00013200af021fa40f2ad2114200af01cfab8
:10dce00044f2e00117200af017fa4ff48941182096
:10dcf0000af012fa4cf6862119200af00dfa4ff4b8
:10dd00007e711f200af008fa4ff4686133200af090
:10dd100003fa46f27a213a200af0fef941f60401ac
:10dd20003e200af0f9f94cf6052144200af0f4f9f6
:10dd3000012147200af0f0f94cf6072148200af0ab
:10dd4000ebf9ff214f200af0e7f94af6ac315120f8
:10dd50000af0e2f94ff478615d200af0ddf94df642
:10dd600060016b200af0d8f947f678016c200af0c0
:10dd7000d3f94ef619116d200af0cef94ff6e17184
:10dd800071200af0c9f94ff648617220bde80840d9
:10dd90000af0c2b908b54ef24e3108200af0bcf9bb
:10dda0004ef254313d200af0b7f942f20201492007
:10ddb0000af0b2f942f2ff6162200af0adf942f2d4
:10ddc000ff0164200af0a8f942f202016a200af079
:10ddd000a3f942f2040175200af09ef942f204010f
:10dde0007d200af099f942f2ff7180200af094f93f
:10ddf0004ef24e3181200af08ff942f2fa71822000
:10de00000af08af94ef24e3183200af085f942f287
:10de1000f57184200af080f94ef24e3185200af027
:10de20007bf942f2f27186200af076f94ef24e3119
:10de300087200af071f942f2ea7188200af06cf941
:10de40004ef24e3189200af067f942f2e0718a20e1
:10de50000af062f94ef24e318b200af05df942f27f
:10de6000d6718c200af058f94ef24e318d200af00e
:10de700053f942f2fb118e200af04ef94ef2543162
:10de80008f200af049f942f2ed1190200af044f98e
:10de90004ef2543191200af03ff942f2e011922003
:10dea0000af03af94ef2543193200af035f942f271
:10deb000d61194200af030f94ef2543195200af030
:10dec0002bf942f2ca1196200af026f94ef254318b
:10ded00097200af021f94ff4075198200af01cf915
:10dee0004ef2543199200af017f942f296119a2015
:10def0000af012f94ef254319b200af00df942f269
:10df000090119c200af008f94ef254319d200af03d
:10df100003f942f28a119e200af0fef84ef25431c3
:10df20009f20bde808400af0f7b808b50821602036
:10df30000af0f2f8fff794fefff792fefff790fe6b
:10df4000fff78efefff78cfe00216020bde8084041
:10df50000af0e2b82de9f74f00200af0f5f81f208b
:10df60000af0f2f883461d200af0eef8824660209f
:10df70000af0eaf8814654200af0e6f88046592073
:10df80000af0e2f807461a200af0def806465520a5
:10df90000af0daf805464f200af0d6f80446742055
:10dfa0000af0d2f844f48071009089b24f200af050
:10dfb000b3f8009bc3f30b0141f4405174200af005
:10dfc000abf8522100200af0a7f840f6f8311f20e4
:10dfd0000af0a2f84ff620011d200af09df8042156
:10dfe00060200af099f842f6b05154200af094f8f3
:10dff00048f21c0159200af08ff848f21c011a203f
:10e000000af08af84ef2100155200af085f8fff761
:10e0100027fefff725fe2549d1f83c3443f00803dd
:10e02000c1f83c34fff71cfe214b1a6842f4007221
:10e030001a601a46136813f40073fbd141f2505270
:10e0400001938a58d1f83c04009220f00800c1f8ee
:10e050003c044ff6ff6121404f200af05df859461d
:10e060001f200af059f851461d200af055f849467c
:10e0700060200af051f8414654200af04df8394624
:10e0800059200af049f831461a200af045f8294685
:10e0900055200af041f8019b122019460af03cf87d
:10e0a000009ac2f3094003b0bde8f08f002001419f
:10e0b0004035014173b506460df106000c460bf0e4
:10e0c000a9fcbdf8060000284cd0314d2a78801bf1
:10e0d000002a49d00ef092f927a3d3e900230af0d1
:10e0e000bbfb0df077fc07ee900ab3ee047ac7eea7
:10e0f000877a17ee900a0df029ff9fed210b41ec76
:10e10000110b04f025f90022224b51ec100b0af000
:10e11000a3fb41ec100b0cf08bfc51ec100b0ef040
:10e120005bf92a78c3b2002a14bf19201e203c2ba9
:10e1300020d8984238bf184641f26873164ad15821
:10e1400021f4fc41d150d15841ea4021d150a307dc
:10e1500008d5a2f5005292f8a03003f0c00318438e
:10e1600082f8a00002b070bd0ef048f906a3d3e912
:10e170000023b4e73c20dfe7ce1951da1b7ca13f36
:10e180000000000000002440e59b6d6e4c4f883f6e
:10e19000ac030020008045400020014173b50646d5
:10e1a0000df106000d460bf035fcbdf80640dcb164
:10e1b0000df1050002f02bffa41ba5235c4343f6e1
:10e1c000cf439c42c9bf9df805309df90530023b05
:10e1d0005bb2aa0708d5054991f8a42002f0e00235
:10e1e0001343dbb281f8a43002b070bd00000141de
:10e1f00037b505460df106000bf00cfcbdf80640e6
:10e20000ecb16d2009f0a0ffc0f38210052816d1f3
:10e21000a523641b5c43a3f5e7539c42124c10da20
:10e22000012009f091ff4ff61f71014041f060019c
:10e23000012009f071fffff778fe0123237003b07e
:10e2400030bd2378002bfad0012009f07dff4ff676
:10e250001f71014041f04001012009f05dfffff70f
:10e2600064fe0023eae700bfb0030020094a41f63c
:10e270002863d358084a12689b1a084a23f070434f
:10e28000934205d8064b1878003018bf012070471c
:10e290000020704700200141b4030020feffff076b
:10e2a000ad030020f7b50023adf806300646fff7b2
:10e2b00051fe05460df106000bf0acfbbdf8063033
:10e2c000dbb1144f5b1ba5245c434ff48b7394fbb1
:10e2d000f3f4b7f900301934a342b4bfe31a1b1b9f
:10e2e000132b02ddfff721fe3c8031462846fff765
:10e2f000e1fe31462846fff751ff074a41f6286301
:10e30000d358064a03f5403323f07043136003b03b
:10e31000f0bd00bfae03002000200141b403002087
:10e3200013b5244a05211170234a00238df80530c6
:10e330001370044628b1fff7affcfff711fcfff79d
:10e3400087fc22460df10501072002f0b3fd5cb306
:10e350009df805300bb9fff71dfdfff7e6fd0df148
:10e3600006000bf057fbbdf806201449144beab128
:10e3700019220a8001221a70124b4ff440321a609f
:10e38000114b00221a704ff08843104a1a65104b47
:10e3900040f27142012c9a600cbfff227f229a61e9
:10e3a00013221a604022da6002b010bdff200880fc
:10e3b000e1e700bfa8030020ac030020ae0300206b
:10e3c000ad030020b4030020b00300204c0040e067
:10e3d000001001410021122009f09ebe08b5064b35
:10e3e0004ff088721a6046f2e2515e2009f094fe06
:10e3f000bde80840fff7eebf004001410c4b0d495e
:10e4000001221a700c4b02225a615a630b4a53685c
:10e4100043f44033536041f638028b5843f40053c1
:10e420008b50074b02f5081202f2da721a6070473d
:10e43000ac030020002001410023004400400141c2
:04e44000084001414e
:020000040000fa
:020000040100f9
:10e44400037b13b94389013b43810020704700bf1c
:10e45400037b23b94089b0fa80f04009704700205b
:10e46400704700bf007a0b78c01ab0fa80f04009f8
:10e47400704700bf38b504681025a17062706360ee
:10e484000146257003480bf0c3f9bde838400cf091
:10e49400f7b900bf000000202de9f0435d4c94f86b
:10e4a4003c5085b0002d00f0838003682279267cdf
:10e4b40083f82120a16b59625e70b11e8446012944
:10e4c400608a58804ff0000053d9dff858e1986013
:10e4d4009ef80010d86091420646074658804e4880
:10e4e4005cd061798ef80020c0e90067e288197475
:10e4f400002600270329c3e906675a8268d0022947
:10e5040077d000225a8294f8362083f8202094f899
:10e5140020204248c2f3020283f8282094f82020e5
:10e52400c2f3c10283f8292094f82c2083f82a200e
:10e5340083f82b50226cda62112261461a700bf0b8
:10e5440067f92388db063cd5354b1b78032b0bd0ae
:10e55400227c022a52d0032a3fd0002300931a4679
:10e564001946184603f0a0fa0cf08af905b0bde884
:10e57400f083dff8b0e0022e4ff00001c3e902019e
:10e5840018bfd4e906679ef8001008bf268b2248fe
:10e5940008bf00279142c3e90267a2d1d0e90089ec
:10e5a400b94508bfb0459cd160460af0dffec8e714
:10e5b4000af0dcfe05f070fb0cf062f905b0bde872
:10e5c400f08305f069fb0cf05bf905b0bde8f0835e
:10e5d400d4e90201c3e9060195e7d4e90667638a31
:10e5e40000930021084602abcde9026703f05cfa10
:10e5f400bae720890021c3e9060184e7638a00930e
:10e604000021238badf80830084602ab03f04cfa26
:10e61400aae700bf400000202000002000000020e6
:10e62400d6020020d402002010b50a4a0a4b107802
:10e6340082b00024cde9004422464ff4705107f023
:10e6440097f908b902b010bd204602b0bde81040e9
:10e654000ae200bfda0200206dea00012de9f04170
:10e66400046892b06168a268e3680646206802ad57
:10e674000fc56169e3692069a2690fc59df8193066
:10e6840013f0040140f0c680ca48cb4a05781078dc
:10e694009df81820284340f0de80dd0700f1bf809c
:10e6a400029b23f07f4323f0ff03002b00f0e28062
:10e6b4009df80930012b00f0be809df80a10012955
:10e6c40000f0b98000210e202070227221739df881
:10e6d40021209df81a10c2f1b20525440532019596
:10e6e4008df80320002940f00681022b00f04181bf
:10e6f400032b00f06b810aaf394650200af012f860
:10e70400bdf82830bdf80c209a4200f0fe809df838
:10e71400092062b1019a9df80310901e0190023104
:10e72400180a8df8031002f8023c02f8010c9df857
:10e734000a20002a40f0ad8096460121dff8888245
:10e74400019b98f81620581e02f1010c88f816c097
:10e75400019003f8012c9df81a301bb14ef480513e
:10e7640041f009019df819309df80a20d8079df859
:10e774002130019848bf41f02001662b9df80930f3
:10e784004fea822288bf41f4805142ea83330b432b
:10e794009bb21a0a811e019100f8012c00f8023c78
:10e7a4009df80330190600f1be80019a511e0191b3
:10e7b40002f8013c25619df81930019aa2615a07bb
:10e7c40005d57e4b1b78023b012b40f21b8105f0e3
:10e7d400abfaa36966605b781b070dd52022002184
:10e7e40038460df061ff21463846fff72bf99df8b6
:10e7f4003a30002b40f018812046012202210bf010
:10e80400d9fc002840f0a2806d4b01221a7012b08e
:10e81400bde8f081dd079df818207ff541af9df834
:10e824000a30022b7ff43cafbdf810104ff6ff7393
:10e8340099427ff435afe8200023102562703146f9
:10e84400a070636025705f480af0e2ff0cf018f8ce
:10e8540012b0bde8f081e123102062706160207085
:10e864003146a37057480af0d3ff0cf009f812b0f0
:10e87400bde8f0811025f520627063603146a07018
:10e88400257050480af0c4ff0bf0faff12b0bde83f
:10e89400f08101214ff0000e022addf804c09df83a
:10e8a4000380dde9043076d0acf1080208f10808f1
:10e8b40001928df80380acf109020cf1ff3c00bf1a
:10e8c40002f8013f1b0a944543ea00634fea102013
:10e8d400f6d19df80320019bbdf80c0002328df89f
:10e8e4000320a3f1020c020acdf804c003f8020cc1
:10e8f40003f8012c22e702a90df1030201a8fef797
:10e90400edfc88b99df80930efe69df809109df8f3
:10e914000a2000293ff40daf002a3ff4fbae412149
:10e924004ff0400eb8e7e52033689df818205a7080
:10e9340010240022987031461c705a6021480af055
:10e9440067ff0bf09dff12b0bde8f08133689df8be
:10e9540018205a7010240022e120987031461c704f
:10e964005a6018480af054ff0bf08aff05f094f936
:10e974006ee7019a9df803300aaf023a0233394632
:10e98400532001928df8033009f0ccfe019bbdf8b1
:10e9940028201a80b0e608f10208acf10200c3f3a3
:10e9a40007228df8038001900cf8023c0cf8012c2e
:10e9b4008fe700bf3d00002028000020d602002081
:10e9c4001000002000000020e0000020019a9df8c3
:10e9d40003300aaf083a08333946f02001928df823
:10e9e400033009f09ffe0198dde90a31421e073029
:10e9f40002f8013f1b0a904243ea01634fea1121e6
:10ea0400f6d179e6314615480af002ff012814d000
:10ea1400134bb8f808206281187807f00ff8002823
:10ea24008fd1fff701fe8ce73a4621692046fef7b5
:10ea3400a7fc00283ff4e0ae76e733689df8182081
:10ea44005a7010240022f120987031461c705a60cc
:10ea540004480af0ddfe0bf013fff9e6c8020020bb
:10ea6400da0200200000002070b582b01e4b1f485f
:10ea7400009369460023044601930af0e3fe1c4b0d
:10ea840000932646f025694630460af0d7fe014633
:10ea940088b103681a78032a1ed00e2a0fd0022ade
:10eaa400f1d1f02005f004f9694630460af0c6febb
:10eab40001460028edd1637a93b902b070bd1a7a89
:10eac4005a701020002218709d705a6009480af08c
:10ead4009ffe0bf0d5fed6e7f02105f02ff8d2e724
:10eae400fff7a2fd02b070bd45e40001c80200209a
:10eaf40055e400010000002030b504680f4a85b0d9
:10eb04001223237063788df8073005460df107034f
:10eb14000b4802a9cde902230af090fe48b9e72385
:10eb2400a370294607480af073fe0bf0a9fe05b04e
:10eb340030bd0af01bfc0023a370f2e769e4000176
:08eb4400c802002000000020bf
:020000040000fa
:020000040100f9
:10eb4c00014b08225a63704700230044014b80227a
:10eb5c009a6370470023004408b50749002007f06a
:10eb6c00d7f80649002007f0d3f805490020bde886
:10eb7c00084007f0cdb800bfe06101010862010157
:10eb8c003462010170b5154b1549164e164d012412
:10eb9c0020229c6308205a63802282b058639a63b7
:10ebac00002007f0b5f8fff7d7ff104b00930023b8
:10ebbc001a463046962104f0e3fd00230c4a2860e7
:10ebcc00009230461a46962104f0dafd6860204621
:10ebdc0002b0bde8704003f029bf00bf0023004421
:10ebec005c6201017c620101fcbe00204deb000166
:10ebfc0059eb000130b5024685b052f8010f51684f
:10ec0c0002ab03c322499df80820002007f048f806
:10ec1c009df809404cb1f12c26d0f02c1dd0e92cdc
:10ec2c0031d0e12c31d005b030bd204619491a4df8
:10ec3c0007f06ef8194b686880225a6304f02cfeba
:10ec4c00c8b96c68f8f7d4fa002302460093204642
:10ec5c00012104f0b9fd05b030bd1149002005b00b
:10ec6c00bde8304007f054b80e49002005b0bde8af
:10ec7c00304007f04db800942346224603216868c3
:10ec8c0004f0a2fddde70849e8e70849e6e700bf24
:10ec9c0008b2010188620101fcbe0020002300447f
:10ecac00ac62010194620101c4620101e4620101e0
:10ecbc0070b505468ab055f8010f6968aa68eb680b
:10eccc0003ac0fc428696969aa69039b07c41a8934
:10ecdc001a49002006f0e4ff9df8145075b1069c0b
:10ecec00174e013d54fa85f5013c00bf14f8012f75
:10ecfc003146002006f0d4ffac42f7d10020114978
:10ed0c00114c07f005f8114b206808229a6304f0a7
:10ed1c00c3fd58b92468f8f76bfa00230246009338
:10ed2c002046012104f050fd0ab070bd0023009371
:10ed3c001a460321206804f047fdebe728b20101d5
:10ed4c000863010104630101fcbe002000230044a0
:10ed5c002de9f0410246274b52f8016f03f1600197
:10ed6c0057689c461a4600bfb2f80080b8f1000ff5
:10ed7c0005d0d2e90245af4208bfa6422cd01832ca
:10ed8c008a42f1d100211c884a1c18331ffa82f8e0
:10ed9c0074b1042a1146f6d1174d01243046394678
:10edac0023462c704ff6ff72bde8f04103f0c8bd4e
:10edbc0001eb4101114d437ab5f800e0c900204642
:10edcc002cf8018061440ef10104c1e902670b7457
:10eddc000b492c8006f064ff0a4b074d20245c6322
:10edec00002442463046394623462c70bde8f0419b
:10edfc0003f0a6bd40030020f0c000203a03002021
:10ee0c003cb201010023004410b5024684b052f814
:10ee1c00010f5168926801ab07c39df80c3013b910
:10ee2c00094c217809b104b010bd6388074a01333d
:10ee3c007420638003f034fea178712004b0bde827
:10ee4c00104003f00fbe00bff0c000203a030020ba
:10ee5c002de9f0437b4e7c4997b0002006f058ff1b
:10ee6c003388002b73d0794d95f80880b8f1000fda
:10ee7c0076d0b8f1010f60d1754f0fcf0aac0fc42b
:10ee8c000fcf0fc497e80f0007c4724f23800aa955
:10ee9c00002006f005ff0fcf05f10c040fc497e816
:10eeac00070003c4b6f800c02270bcf1000f51d0ab
:10eebc00dff8b88100244ff0020904e001343388f4
:10eecc00e4b29c4239d204eb440708ebc70341f28d
:10eedc00111293f910308df81890002badf81a2000
:10eeec00ecda95f82a3038f837205b49adf8202059
:10eefc000133dbb21a46002085f82a3006f0d0fe2a
:10ef0c0018f8373095f82a200593012000210523a5
:10ef1c00cde90310cde901330092504b192206a91b
:10ef2c00022003f071fc0028c8d14d4906f0f0fe18
:10ef3c0001343388e4b29c42c5d36a89934209d91f
:10ef4c00013292b293426a814cd000232b7217b0db
:10ef5c00bde8f08300232b726b8117b0bde8f08302
:10ef6c00404f95f80ac0dff804910fcf0aac0fc4dc
:10ef7c000fcf0fc497e8070003c43b4f22700aa9b8
:10ef8c000cf10102404606f08bfe0fcfb5f80ac01b
:10ef9c0005f10c040fc40ceb4c03db0097e80300e9
:10efac0009eb0302206092f9102024f8041f39f8b1
:10efbc000300adf82000090c022741f21113002abe
:10efcc0004f8021f8df81870adf81a300ddb338879
:10efdc006345bfd90cf1010c1ffa8cfc6345a5f8f5
:10efec000ac0b2d101232b72b1e795f82a301a4925
:10effc000133dbb21a46404685f82a3006f050fe43
:10f00c006b89cdf80c8003eb430395f82a1019f8a3
:10f01c003330059305224ff0010ccde9012200910c
:10f02c00a4f116033846cdf810c0172206a903f038
:10f03c00ebfb10b1b5f80ac0c9e7094906f068fe48
:10f04c00f8e700bf3a0300200c630101fcbe00206e
:10f05c00686301014c63010154b2010108bf002037
:10f06c003c6301019863010124630101400300200a
:10f07c0070b4024685b052f8010f516802ab03c35d
:10f08c009df8081059b99df80930039a042b42d009
:10f09c00712b25d0012b07d005b070bc7047012017
:10f0ac0005b070bc03f0c2bc01ab101d12f8011b03
:10f0bc0003f8011b9042f9d10199002302e00133be
:10f0cc00202b06d021fa03f2d207f8d51a4a0e33b8
:10f0dc0013701a4a00217c2005b070bc03f0e0bc10
:10f0ec00d57d8db1d37aff2b1dd0012302f10806fb
:10f0fc0002e0305dff2816d0d8b21946854203f1e4
:10f10c00010303eb4304f4d89df80a10712005b0f9
:10f11c0070bc03f0c5bc0a4b12781a70012005b004
:10f12c0070bc03f09fbc01eb4101064b11445b88a2
:10f13c00cb7201230b73e7e73c0300201cc10020ba
:10f14c0038030020f0c00020417811b9042003f0ee
:10f15c0089bc012003f06abc10b5094b094a197827
:10f16c00127884b00f2300200124cde90200cde9f0
:10f17c00003441f2111003f009fd04b010bd00bfc2
:10f18c003c0300203803002010b582b040784ff4c7
:10f19c002f73adf80630a0b90c4a0d4b12780d49ff
:10f1ac00012483f82b4006f07bfd0b4b20225c6383
:10f1bc009a630df106020021552003f071fc02b098
:10f1cc0010bd012003f032fcf3e700bf3c0300202c
:10f1dc00fcbe0020c463010100230044704700bf43
:10f1ec000149002006f094bdf46301010378023b51
:10f1fc000c2b20d8dfe803f0090e1012141f1f1679
:10f20c0017191b1d0700fff723be4178b9b904205d
:10f21c0003f028bcfff72cbf03f038bffff79cbfef
:10f22c00fff796bd7047fff743bdfff7e3bcfff751
:10f23c00ebbdfff7a9bf0349002006f069bd012013
:08f24c0003f0f4bbf4630101bf
:020000040000fa
:020000040100f9
:10f2540080b588b000afb96011461a460346fb81f9
:10f264000b46bb811346fb80fb893b82bb687b61f9
:10f27400bb893b83fb887b830e4b1b68fb6110e0df
:10f28400fb691b6807f1100210469847034683f098
:10f294000103dbb2002b01d0002306e0fb695b68ad
:10f2a400fb61fb69002bebd1012318462037bd46d7
:10f2b40080bd00bf88bf00201fb504466946008892
:10f2c40000f0acf968b3bdf80230abb1019b9bb15f
:10f2d400029bd3b9a2882088cab1a368bbb1618854
:10f2e400faf7d4fad0b14ff0200383f31188bff3b7
:10f2f4006f8fbff34f8ffee74ff0200383f3118826
:10f30400bff36f8fbff34f8ffee79847e2e7019b90
:10f31400bdf802200021faf7b9fae3e7208800f0eb
:10f32400c4f904b010bd7fb56946054600f076f90e
:10f3340010b9002004b070bdbdf80230a3b1019b28
:10f3440093b1029bcbb92846faf72afb019abdf880
:10f35400021006462846faf741fb022804460ed15d
:10f36400b4fa84f04009e5e74ff0200383f31188f1
:10f37400bff36f8fbff34f8ffee79847e3e740b1ca
:10f384004ff0200383f31188bff36f8fbff34f8fc8
:10f39400fee73346bdf8022001992846fff758ffdf
:10f3a4000028ddd1c5e71fb504466946008800f092
:10f3b40035f910b9002004b010bdbdf8023093b186
:10f3c400019b83b1029b83b96188a288bdf8023096
:10f3d40088189842eedca3682088faf7b7fab0fae6
:10f3e40080f04009e7e700f029f89847ece773b5a7
:10f3f400104adff844c005460e4600236c46bcf8ac
:10f404000210994201d800200de092e8030084e83c
:10f414000300d1888d4208d1adf8065094e803006a
:10f4240086e80300012002b070bd013308329bb2ac
:10f43400e5e700bf004000018cbf00204ff020032f
:10f4440083f31188bff36f8fbff34f8ffee72de96e
:10f454007f431b4d80462868fcf71efc0024814630
:10f464002646a14509d836bb3246414614480af01f
:10f474002ffa01281fd0fff7e1ff002201a9284637
:10f484000af050fa01280dd1019ad8f8003001a9e8
:10f494009a4208bf01262846002201340af018facd
:10f4a400e4b2dee74ff0200383f31188bff36f8fdc
:10f4b400bff34f8ffee7012004b0bde8708300bfa7
:10f4c400d4b9002010b5044688b1082006f0ccff5a
:10f4d40040b94ff0200383f31188bff36f8fbff35c
:10f4e4004f8ffee7024b04601a694260186110bd39
:10f4f4008cbf002010b5044688b1082006f0b4ff84
:10f5040040b94ff0200383f31188bff36f8fbff32b
:10f514004f8ffee7024b04601a684260186010bd0a
:10f5240088bf002010b50446082006f09dff28b1ce
:10f53400034b04805a6942605861012010bd00bf2a
:10f544008cbf002000f44063b3f5406f13b514d1b1
:10f554006946fff74cff70b9002002b010bd009b54
:10f5640033f81400faf774fb0134e4b2bdf8043044
:10f57400a342f4d8f0e70024f8e7faf769fbebe7d5
:10f58400034b00229880181dda801a81da605ee746
:10f594008cbf0020054b5b690bb9184670471a886d
:10f5a400824201d05b68f7e7012070478cbf0020de
:10f5b4007fb5184b184d5e6904464eb90120faf721
:10f5c4009ffb31462868fbf799ff002004b070bd0b
:10f5d400faf796fb24b100212868fbf78ffff4e7c4
:10f5e4002868fcf759fb0646a642eed9002201a979
:10f5f40028460af097f9012809d1bdf80400fff75d
:10f60400c9ff20b1002201a928460af061f901349a
:10f61400e4b2e9e78cbf0020d4b900202de97041a1
:10f62400dff848c0dff8488085b086460e460025de
:10f634006c46bcf80030ab4201d8002010e008eb67
:10f6440005130fcb84e80f00bdf8003073450ad1d1
:10f65400234603cb3060716003cbb060f1600120be
:10f6640005b0bde870810135e3e700bf8cbf002021
:10f67400004000011fb50446008800f44063b3f560
:10f68400406f02d1002004b010bd6946fff7c6ffe9
:10f694000028f7d0a28863881344bdf8022093425f
:10f6a400f0dc2046fff7d3feede738b5044b1c69c8
:10f6b400054604b938bd2368284698476468f8e7c6
:10f6c4008cbf002030b585b0044669460088fff73a
:10f6d400a5ff002845d0bdf80230d3b1019bc3b1ca
:10f6e400029bfbb92088faf74bfb2588e0b9019a05
:10f6f400bdf802102846faf771f910f0fd0f2dd06d
:10f704004ff0200383f31188bff36f8fbff34f8f44
:10f71400fee74ff0200383f31188bff36f8fbff32d
:10f724004f8ffee79847dde7a2887ab1a3686bb1f3
:10f7340061882846faf7aaf880b14ff0200383f3d2
:10f744001188bff36f8fbff34f8ffee7019bbdf8a6
:10f75400022000212846faf799f8ede72088fff700
:10f76400a4ff05b030bd08b5024b1868fcf794fa45
:10f77400c0b208bdd4b9002030b5184d89b00022fc
:10f7840002a928460af0cef8012801d009b030bdfc
:10f79400bdf8080000f44063b3f5406f19d1694621
:10f7a400fff725fe0028ead00024adf81640adf896
:10f7b40018400794bdf80430a342e0d9009b05a883
:10f7c40033f81430adf814300134fff77bffe4b2a2
:10f7d400f0e702a8fff776ffd1e700bfd4b9002015
:10f7e40030b50446008800f44063b3f5406f85b03b
:10f7f40003d10025284605b030bd6946fff70eff4a
:10f8040005460028f5d0a28863881344bdf8022079
:10f814009342eedc2046fff755ffebe700f440632c
:10f82400b3f5406f37b518d16946fff7e0fd0546db
:10f8340088b900250ce0009b33f81400faf7a0fa0d
:10f844000028f6d00134e4b2bdf80430a342f2d863
:10f85400284603b030bd0024f6e7faf791fa0546ce
:10f86400f6e700f44063b3f5406f13b516d169466b
:10f87400fff7bdfd80b9012002b010bd009b33f835
:10f884001400fff750fd0028f6d00134e4b2bdf8af
:10f894000430a342f2d8eee70024f8e7fff743fd73
:10f8a400eae7038803f44063b3f5406f00d07ae5d8
:04f8b4000020704779
:020000040000fa
:020000040100f9
:10f8b8001a4b1b4a1a604ff440314ff6a0029a8146
:10f8c8001a465960d369002bfcd11368134943f0d9
:10f8d80002031360cb69002bfcd1124a13629362b6
:10f8e800d36282f8343082f83c309363d387136054
:10f8f8009360d3601375137793614b6803f0070324
:10f90800012b14bf4ff48073802313631361034bdf
:10f918008021042299759a75704700bf000c004039
:10f9280004011240e8b50020004870470090d00359
:10f93800002853d0f8b50468002c4dd0414b00295d
:10f9480008bf1946b1eb041f054648d2b1ebc40ff6
:10f9580063d30a46e004610b00230cf0bbfbc0f53f
:10f96800803084b24ff48047374b1a6822f0020285
:10f978001a60da69002afcd168689c810228d5e9f6
:10f98800026537d0196821f0706121f4604139436c
:10f9980041f0807119605a6822f40152304322f014
:10f9a800070202432a435a60274ad369002bfcd135
:10f9b8001368254943f002031360cb69002bfcd17f
:10f9c8004868224b00f00700012822d04ff48072cb
:10f9d8001a6301201a61f8bd2046f8bd70470a462f
:10f9e8002005210b00230cf075fbc0f5803084b294
:10f9f8000027b9e71c6824f0706424f460443c4391
:10fa08001c60596845ea060021f047010843586020
:10fa1800cae780221a631a61f8bd04eb44038b42db
:10fa28000dd84ff440300a460023a4fb00010cf027
:10fa380051fbc0f5803084b24ff4004794e70027ab
:10fa48003c4691e70090d003000c0040e8b5002048
:10fa5800054a13689b0706d4136843f00203136032
:10fa6800d369002bfcd17047000c0040054a13688d
:10fa78009b0706d5136823f002031360d369002b94
:10fa8800fcd17047000c0040024b0022d88fda8767
:10fa9800704700bfe8b500202de9f0411e4deb6a24
:10faa800ae6a71b3b34208bf00212bd000f1ff3c0e
:10fab8001a4f002202380ce098f840300cf8023057
:10fac8002b6b9e4534bf734600238a4219d0b3423c
:10fad8001cd07c6804f00704012c05eb030802f134
:10fae800010203f1010ee7d15b00ec18013394f831
:10faf800404000f812402b4493f840300cf8123084
:10fb0800dee71e46ee620846bde8f0811146ee6269
:10fb18000846bde8f08100bfe8b50020000c0040b1
:10fb2800044bd86a9a6a904284bf1b6bd218101a89
:10fb3800704700bfe8b50020054b1a6bd86a996a70
:10fb4800884284bf1b6bc918081a013a101a7047fb
:10fb5800e8b50020014b186b01387047e8b5002064
:10fb6800044b93f8342083f83400104683f83c1093
:10fb7800704700bfe8b5002008b1014b9863704793
:10fb8800e8b50020014b186259627047e8b50020bb
:10fb9800024b187ec0f34000704700bf000c0040c5
:10fba800044a9368d06883423cbf12699b18181aac
:10fbb800704700bfe8b50020002967d02de9f04361
:10fbc80006460020394b3a4d8446771c14e04245de
:10fbd80028bf0022964536d0d5f804e016f80080f4
:10fbe8000ef0070ebef1010f3ad01c4484f8408194
:10fbf800013081429a6026d96a689c68d3f80ce083
:10fc0800d3f8108002f00702012a04f10102ded1c4
:10fc1800424528bf0022964515d0d5f8048017f82c
:10fc2800109016f810e008f007084eea092eb8f10f
:10fc3800010f5ffa8ef91dd01c440130814284f80f
:10fc480040919a60d8d89968da6891423cbf1b699c
:10fc5800c9188a1a12b1164b01229a75bde8f083a9
:10fc6800640004f1010e9e441c4484f840818ef81f
:10fc780040c1bde7640004f1010898441c444fea00
:10fc88001e2e84f8409188f840e1b1e7074b0846fa
:10fc98009968da6891423cbf1b69c9188a1a1ab177
:10fca800034b01229a757047704700bfe8b50020e2
:10fcb800000c0040054b1a699968d86881423cbf1e
:10fcc8001b69c918081a013a101a7047e8b50020cc
:10fcd800014b186901387047e8b50020024b1a7dbe
:10fce8001875104619777047e8b5002008b1014b20
:10fcf80098617047e8b50020014b1860596070475b
:10fd0800e8b500200f4b5a8b12f0070200d170475c
:10fd18000d4810b407218024c2871c7659831a7ea7
:10fd2800510703d59a6a1a7e5207fbd4036a2bb18e
:10fd3800416a5df8044b036a022018475df8044bda
:10fd4800704700bf000c0040e8b50020f8b52c4d06
:10fd58002c4c2b7e5b074bd5ae6aa36a206be16afd
:10fd68000133834228bf0023994228d0e16a99428f
:10fd7800efd06a6802f00702012af0b2a26a2cd01a
:10fd8800224482f84000a36294f83430002be0d07b
:10fd9800e36aa26a934284bf216b5218d31a226a7b
:10fda800002ad6d0616a94f83c2002f0ff0002b322
:10fdb800a26b9a42cdd8236a00209847c9e7226ae5
:10fdc800002ad3d0616a236a01209847a36a226b6c
:10fdd8000133934228bf0023c8e75200571ca118db
:10fde8002744c6f3072281f8400087f84020cae775
:10fdf800f8bda26b9342acd1236a9847a9e700bf2c
:10fe0800000c0040e8b5002030b52b4d2b4c83b0da
:10fe18002b7edb0739d5a268e3689a4237d0696838
:10fe280001f00701012903f1010234d0234493f8ba
:10fe380040318df806302169bdf806308a4228bf66
:10fe48000022e2606a6802f00702012a18bfdbb2ea
:10fe5800ab62237d002bdbd02269a168e36899425d
:10fe68003cbf20690918cb1a21680029d0d06168e5
:10fe7800207f013ad31aa269d0b19342c8d323682c
:10fe8800032098472b7edb07c5d403b030bd012380
:10fe98002b7503b030bd5b00591c2144234493f8f3
:10fea800403191f840118df807108df80630c2e7ff
:10feb8009342add1e3e700bf000c0040e8b5002055
:10fec80008b5124b9a7dbab11a7e9b7d1906d2b23b
:10fed80013d40e4a137e927dd007dbb201d5d90721
:10fee80010d40a4a137e927d5207dbb204d55b0711
:10fef80002d5bde8084029e708bd1306e9d5fff794
:10ff080001ffe6e7fff780ffebe700bf000c0040ca
:020000040000fa
:020000040100f9
:10ff180010b582b004466946502008f001fc0b4b2e
:10ff2800b3f84020520409d55b8a1cb9bdf80020fb
:10ff38009a4205d0064a12889a4201d002b010bdf2
:10ff4800ee2009f085f802b010bd00bf4000002087
:10ff580094000020f0b53d4cb4f840305b0485b007
:10ff680001d405b0f0bd05466946502008f0d8fb1d
:10ff7800638a002d60d1bdf800209a425cd1344dcf
:10ff8800228b6b899a42ecd0d4e90601d5e900238b
:10ff9800994208bf9042e4d0b42009f0c5f904465c
:10ffa8000028ded0066805237060337086f8b1300b
:10ffb80002a9f02008f0b4fbdde9023106f1a8003f
:10ffc800024606f1b00700bf02f8013f1b0aba4219
:10ffd80043ea01634fea1121f6d1d5e9003106f170
:10ffe800a00200bf02f8013f1b0a824243ea0163f4
:10fff8004fea1121f6d102a9502008f091fbab7d00
:020000040101f8
:10000800bdf80810a6f89f1046f21832cc21a6f8c1
:100018009b2006f19b0286f89e3086f89d100133de
:10002800b261304601220221ab750af0c1f848b925
:10003800084b01221a7094e7074a12889a429ed008
:1000480005b0f0bd204609f08ff98ae7400000208e
:10005800e000002010000020940000202de9f04767
:10006800d0f80090b04cd9f818301a78e2701344e0
:1000780084b05b7884f83630d9f818700022019281
:10008800b7f80180fb782371043705463846a4f891
:10009800008009f0c5fc08f00702032aa27004bf1b
:1000a8003b5c84f8353018f0080307eb000620d1d4
:1000b80094f82010012a63f3020184f8201029d053
:1000c800002a3cd0032a05d0284609f04df904b08f
:1000d800bde8f08794f83530013b072bf4d8dfe80a
:1000e80013f0d6007201d6004a014a014a014a01ba
:1000f8005c01d9f818108c48013101ab3246fdf784
:1001080027fa8146002840f0e880a2789df804305c
:10011800012ad5d194f83c20002a40f0ab80834bcb
:100128001b78002b42d0a378032b00f02981804a4a
:100138001278032ac8d8dfe802f0639441419a1c78
:10014800f15aa4f84010d2b2b25c84f8422012f0fe
:1001580007021abf043352fa83f30333dbb2f25cab
:1001680084f84320110942ea010001334007dbb259
:1001780001f0070109d012f0070206eb030018bfcf
:1001880003eb4203606418bfdbb211b103ebc10398
:10019800dbb294f83c209a4275d9d21a3344e3640e
:1001a800624b84f848201b78002bbcd1604b1b782d
:1001b800032b89d8dfe803f02452020208f0fefd81
:1001c800a378012b50d0032b7ff47eaf94f8353001
:1001d800013b072b3ff678af01a252f823f000bf8e
:1001e800df030101d100010107040101ef0301014f
:1001f800d1000101e703010113040101ff0301011b
:100208004c4b1b78002b40f09d804b4e3378022bd3
:1002180040f21d81032b7ff457afa378012b23d025
:1002280058b2002800f04d81032b7ff44daf94f8ad
:100238003530013b062b3ff647af01a252f823f0b9
:10024800df030101d10001012d040101ef030101c8
:1002580025040101e70301011d040101a378032b13
:100268002ed0012b7ff430af2846fef713f904b0e7
:10027800bde8f087752a88bf7622334488bf84f8a2
:100288003c2023644be7002384f8483047e7737821
:1002980084f84030254b1b78002b87d094f83530f4
:1002a800234a1278032a3ff60faf01a151f822f032
:1002b80009020101cd020101c5010101c5010101c8
:1002c80094f83530022b7ff4ffae1c4b187805f0fc
:1002d80093fb284601f0a8fff9e6b42009f024f8ba
:1002e800824600283ff4f0ae06681c23337002a94a
:1002f800502008f015fabdf808307380237c33715c
:10030800d4e90623c6e90223d4e9022360793074cc
:100318005146c6e9062386f82090094809f076fa7e
:100328000af0acfad0e600bf400000201000002020
:100338003d00002028000020d6020020d70200201f
:1003480000000020032b71d0042b02d0022b7ff475
:10035800bbaea378002b7ff4b7ae634e3378032b84
:1003680000f0bd80614bd87c012800f0b0802846a1
:1003780006f0a6ffabe65e4b1b78002b3ff416afea
:1003880094f83530042b01d0072b89d129465948d8
:1003980009f03cfa0af072fa99e6b6f80130a4f8c6
:1003a8004030b6f80330a4f84230737984f844300a
:1003b800f388a4f8463018f4805f3ff46baf337ac3
:1003c80084f8483066e7b6f80130a4f84030f3788e
:1003d80084f842305ee7284601f084fe77e6284636
:1003e8000af0e2fc73e6444b5b7a002b6cd028469b
:1003f80001f0fafc6be6284608f07efe67e6284620
:1004080003f078fb03f070fd61e6374b1b78022b95
:100418007ff45aae284606f055fe58e6ee2008f05e
:1004280017fe51e6284603f065fb50e6a378032b38
:100438007ff44aae94f83530082b7ff445ae2f4b45
:10044800187805f0d9fa284600f03cfb3fe6a27878
:10045800012a3ff409af50b240b3032a7ff434ae07
:1004680094f83520013a072a3ff62eae01a151f83b
:1004780022f000bfdf030101d1000101a504010141
:10048800ef030101d1000101e70301019d0401010e
:10049800ff030101022b7ff417aebbe7284603f0e8
:1004a80029fb3378012b7ff412aeabe70f4ad27cdd
:1004b800012a7ff409ae002b3ff406aefff74afd90
:1004c80002e6fff725fdffe501f0e6fbfce53378e2
:1004d800013b012b3ff64baffff73cfd47e70120ff
:1004e800fff716fd3ee700bfd6020020e00000201f
:1004f80010000020cc000020c8020020d8020020f4
:10050800f8b50446b42063681f7808f00dffd0b131
:1005180006680546c7f1b4003044b06127b1616888
:1005280011b13a460cf000f823680022327053b13a
:100538002946054809f06af9206808f015ffbde862
:0c054800f8400af09bb9f8bdcc00002080
:020000040000fa
:020000040101f8
:1005540010b501460d480e4c09f05af90d4b2146d1
:100564001b7823700420fcf723fe0b4b21461b78d9
:1005740001f8013f0020fcf71bfe084b00221a7013
:1005840003f08afbbde810400af07ab900000020ad
:1005940020c00020d80000203c00002028000020bb
:1005a4002b4bf0b51b681c6883b0636004f1a9058c
:1005b40068b32346072203f8b12b082784f8b12037
:1005c4004ff0030c0a26ff22224903f8022c03f8f9
:1005d400012c03f8042c03f8032c8a7d501c887525
:1005e40003f8052c03f807cc03f8067c03f8086c21
:1005f40020460022a561022109f0dcfd20b9164b3a
:100604000120187003b0f0bd002003b0f0bd062334
:10061400237084f8b1306946f02008f083f8dde9ee
:10062400003104f1a80204f1b00000bf02f8013f58
:100634001b0a904243ea01634fea1121f6d12b468b
:10064400c82704f1a1054ff0430c1226bbe700bff5
:10065400dc000020e00000201000002000b5194b51
:100664001b78022b83b007d0032b16d0012b0bd0a1
:1006740000bf03b05df804fbf0b1134a53780133b3
:10068400537003b05df804fb0028f6d10e490f4afd
:100694008878137009f068fbebe70028edd1fff7c9
:1006a4007fff0028e5d10a4b0df107001b788df878
:1006b400073000f0d5f8dce70120fff771ff0028d0
:1006c400d7d1f0e72800002020c00020100000202f
:1006d400d80200202de9f843594f0e460546394605
:1006e40004203468fcf764fd7a781a2a2ad8dff8e3
:1006f4006c81544b98f800c093f81490d0b24ff02a
:10070400000e10e0bcf1040f12d0032d24d0616858
:10071400d14011f0010f02f1010236d1d0b21a28f2
:100724004ff0010e46d8431cbcf1020fdbb2e9d1f5
:10073400b9f1010fe9d1217a0429e6d9bef1000ffc
:1007440000d07870012d38d06bb2002b44d0032d2b
:1007540009d000bfbde8f883217a0029d7d0bef1c3
:10076400000f00d07870384d286808f0fffd237a18
:10077400002b4ff0000314bf1a46ea222b602372a9
:1007840062703046bde8f843e2e6bef1000f00d0e7
:100794007870012d25d0032d2c4908bf88f800500e
:1007a4000020fcf705fd28bbfff758ffbde8f84320
:1007b4000af066b8012d7b70c6d1234d286808f075
:1007c400d5fd204b1b7d00222a6063b3237a042bc2
:1007d40033d83bb3627027e063703046bde8f8431a
:1007e400b6e60223194988f800300020fcf7e0fc43
:1007f4000028d9d0144f0025386808f0b7fd3d60b3
:1008040003f04afaea23314663702572104808f06f
:10081400ffff852088f80050fff720ffbde8f8436c
:100824000af02eb8ea2363700a495020fcf7c0fc92
:10083400094b1868bde8f8438ae6fa236370f3e7c6
:1008440020c00020e0000020dc00002021c00020a7
:1008540000000020940000202c000020280000202c
:100864000a4b1b78023b022b01d900bf704730b4fe
:10087400074b0848196845780c68c07863680122fa
:10088400aa4023ea0203636030bc23e72800002067
:100894002c00002020c0002010b5194a937d01339c
:1008a40084b09375c0b9174b1b78022b0cd0d18937
:1008b400154c164b207800220901cde9002205f0e1
:1008c40057f8a0b904b010bd114b9b784ff4707168
:1008d400994001f57071ebe70d4b0e495a78d878c1
:1008e400096801325a70fff7f5fe04b010bd237891
:1008f4008df80f300df10f00fff7b2ff04b010bdfb
:10090400e000002028000020d80200206508010132
:1009140020c000202c0000202de9f041064686b0be
:1009240002a9002034684f4ddff858814e4f07f07c
:10093400f9fe4e4b9df808201a7002a9042007f016
:10094400f1fe4b4b62784b4993f800c03e60637aea
:1009540098f800009df808e0ea70a2701b222b7042
:1009640081f800e022700022217ae3702272636829
:1009740022745cea0002a9706b6007d133b123f0e2
:10098400ff6323f4ff230bb90e290ad9e823314668
:100994006370394808f03cff09f072ff06b0bde807
:1009a400f08103f0c1f9eb7834680b226a70032bf1
:1009b40047d8dfe803f03d0e0e02b42008f0b6fc81
:1009c4002e4b186000283cd039680320fff782fec4
:1009d400e4e74ff6ff7304a95020adf8063007f0a2
:1009e400a1fe274bbdf810201a800df106015020fe
:1009f400fcf7defbeb78012b08bf204b4ff0b40073
:100a040008bf1e6008f092fc01463860c8b1e8785f
:100a1400022821d00b686c6898701b221a702a78ff
:100a2400da7000225c601a721a74fff753feb5e79d
:100a3400002001233146607488f80030fff74afe35
:100a4400ace7e823314663700b4808f0e1fe03f09d
:100a540023f909f015ffa1e7304608f087fc39684f
:100a6400e878d7e720c000202c0000203c000020bc
:100a74003d000020d800002000000020dc00002001
:100a84009400002028000020f0b40c4a0c4b11689c
:100a940093f801c00b680b4f1a7a5c689e18012505
:100aa400013205fa0cf5307424ea05051a720024a3
:100ab400747420465d603c70f0bc0be62c00002092
:100ac40020c0002010000020f8b5224e224d074619
:100ad400306808f04bfc214b214819680b6800244e
:100ae4001b2234601a8003229a705c601c7208f026
:100af4008ffe1c4b1c7003f0cff8384608f036fc10
:100b040005f140015020fcf753fbb5f846204ff6a1
:100b1400ff739a4204d005f146015320fcf748fbc9
:100b24002b88114ab5f842105181db040cd40f49cb
:100b34000020fcf73dfb002818bf8520fff78efd41
:100b4400bde8f84009f09cbe09490420fcf730fbdd
:100b5400ede700bfdc000020400000202c00002056
:100b64000000002028000020e00000208400002075
:040b740088000020d5
:020000040000fa
:020000040101f8
:100b7800704770b5e9b101444ff6ff7348f2084574
:100b880089b210f8014b082284ea030616f0010f17
:100b98004fea530302f1ff3214bf6b409bb212f0cd
:100ba800ff024fea5404efd182b28a42e9d1db4313
:100bb80099b2084670bd10b51378ed2b144611d1c3
:100bc8005378032b0ed1937853b1012b0ad1fff739
:100bd800d0ff2279e37803eb02231b1a18bf012305
:100be800184610bd0123fbe7f0b5034640780622fe
:100bf800b0fbf2f102fb110212f0ff001fd1114eff
:100c0800114fdff848c0cdb20146a94200d1f0bd6e
:100c1800dc789a7893f804e002eb042202f182442b
:100c280004f59034013184f800e05c7994559c799e
:100c3800d455dc7902f80c40c9b20633e5e7012047
:100c4800e5e700bf012001410220014103200141e5
:100c58002de9f04343780622b3fbf2f602fb163285
:100c680012f0ff0237d102391c4fdff874c0dff8e9
:100c780074e0f6b203461546c9b2b54202d1104631
:100c8800bde8f083dc789878012900eb042080b275
:100c980012d800f1824404f5803893f8049088f85b
:100ca800009004f1011493f8058084f800809c7981
:100cb800c455dc7900f80c40a42808d1187900f054
:100cc8001f00c40648bf60f01f008ef80000013501
:100cd800edb20633d1e70122d1e700bf020001419e
:100ce80003000141a80300204078023818bf012002
:100cf80070474378042b05d1034bd0f802201a60c3
:100d080001221a710020704750c00020f8b50f4624
:100d180004460026a1f10805a54202d84ff0ff3489
:100d280006e02378ff2b13d1230703d144f07f4437
:100d38002046f8bd24f003031c1da742eed95a68cb
:100d4800013205d15b69013302d114f00c0fedd0eb
:100d58002378012b0ad16378012b07d1a178621d72
:100d68000a44e01cfff727ff0028e1d00eb1d3e7c3
:100d78000434a542d0d923680133cdd0234613f8d3
:100d8800012bef2a0bd16378002bf1d1a378ed2b3f
:100d9800eed1e378032bebd107340126bce71c46e0
:100da800e7e72de9f04785789df8206004460f466f
:100db8009046994603354ff0010a2378434508bf0a
:100dc80089f800a02378082b2bd00fd8022b1bd032
:100dd800072b20d00020a7421bd96378023ded1acb
:100de8002db20233002d1c44e7dc12e00a2b22d07e
:100df8001bd3552beed1a4f5c043b3f5776fe9d2d9
:100e08002046fff776ff02e02046fff76dff012836
:100e1800e1d1bde8f087002edcd0204608f0d6fdf1
:100e2800f5e7204608f090fdf1e7002ed2d02046e5
:100e3800fff7dafeebe731462046fff709ffe6e762
:100e48002de9f7430f469046994628b3164b1a7971
:100e58003ab3186800f5776600250be04346cdf8ed
:100e680000903a463146fff79cff0546a07804f10a
:100e78000a031844b0420bd23146fff747ff10f07f
:100e88007f4f0446ead084b2b4f5c04f08bf0125ad
:100e9800284603b0bde8f08346f670764ff4c040ac
:100ea800dae78525f4e700bf50c0002013b51346e4
:100eb80014460a4601460020fff7c2ff054b1b797e
:100ec80033b123460df1070200210120fff7b8ffd7
:100ed80002b010bd50c000202de9f0478678089d6b
:100ee8009df824a0894604461746984603360021f3
:100ef80023786278ff2fdbb208d1013bdbb2fd2bf0
:100f08002ed828880232214640440ae0bb4227d125
:100f1800baf1000ff5d0062f0cd1072a1cd1a11c5d
:100f280040460bf001fb2b889a1c637813442b80f6
:100f3800012115e00b2f01d1042aefe70c2f01d175
:100f4800012aebe7102f01d1022ae7e7152f01d17b
:100f5800082ae3e7182fefd02b8802331a442a8097
:100f68006378023ef61a36b20233002e1c4401ddc5
:100f78004c45bdd3012914bf80200020bde8f0876f
:100f88002de9ff47002407468846adf80e404ff488
:100f9800c04046f670754ff0010946f66f7629464f
:100fa800fff7b4fe10f07f4f824613d10df10e0308
:100fb8000093cdf8049043463a462946fff78cff44
:100fc80000289af802000af10a03184408bf01240d
:100fd800b042e4d9012c14bf8020002004b0bde841
:100fe800f087014608b50620fff7caffb0fa80f07f
:100ff800400908bd014608b51520fff7c1ffb0fa42
:1010080080f0400908bd034b93f9003003700120bc
:10101800704700bfa803002013b5044601a90b20a0
:10102800fff7aeff28b9bdf804302380012002b0d5
:1010380010bd0020fbe713b5044601a90b20fff7fc
:101048009fff28b9bdf806302380012002b010bdeb
:101058000020fbe713b504460df107010c20fff74c
:101068008fff28b99df807302370012002b010bd0a
:101078000020fbe7014b1879704700bf50c00020e3
:10108800014b1871704700bf50c00020014b186811
:08109800704700bf50c00020aa
:020000040000fa
:020000040101f8
:1010a0002de9f04f2ded028bd2e9008997b0cde903
:1010b0000c138b6808930b690f90d1e900b6149359
:1010c000cd6800220023404649460af007ff40b998
:1010d0001bf0040f32d11bf00803059330d02023fe
:1010e00003e089f0004399462d232b70089b03f100
:1010f000ff3a012305934c4929f0004300208b421d
:1011000008bf80451fd10d9b413b192b059b94bf08
:10111000464947492b4418460bf02efb28460bf056
:101120006dfacdf800b00246089b0f98294609f0e9
:1011300047fd17b0bdec028bbde8f08f2b23d4e741
:10114000ddf820a0d7e7994208bf404509d20d9ba2
:10115000413b192b059b94bf364937492b44184610
:10116000dae700220023404649460af086ff9fed59
:101170002c7b8ded027b48b300240d980bf0dbfa3d
:10118000002ec3b20993c0f2d781672b5ad1002e2b
:1011900008bf0126231d02dbb442c0f2c6816527c9
:1011a00061e09ded067b8ded027b01340022234b37
:1011b000dde9020107f050fb42464b46cde906014e
:1011c0000af0a8fe0028ecd000271fe00446ede757
:1011d00014f5967f11da87b90022194b404649462b
:1011e00007f03afb002280468946154bdde90201f3
:1011f00007f032fbcde902010127dde902010022ff
:101200000e4b05f055fdcde90201013cdde902235d
:10121000404649460af062fe0028d9d1ade700bf3a
:10122000000000000000f03f0000f07f18c701013f
:101230001cc7010120c7010124c70101000024408f
:1012400000005043099f662f06f101060bd1002cc8
:1012500004da9fedbd7b8ded027b0024099b672b9b
:1012600018bf361966279ded027bcde906898ded05
:101270000a7b00230e93dde90a23dde9060105f070
:1012800017fd41ec100b08f00bfd51ec100bb0ee0c
:10129000408af0ee608a0af0c3fbb0ee480af0ee36
:1012a000680a069b1093079b159083f000431193e7
:1012b0009ded0a1b9ded102b0af0aeff53ec102b99
:1012c00083f000430793dde90a01a34b8ded060a85
:1012d000002205f0edfc0e9b01339e42cde90a0190
:1012e0000e93c8d100229d4b07f0b6facde90a0152
:1012f00002460b46dde906010af0f0fd002840f049
:101300008180dde90a23dde906010af0b6fe10b1ad
:10131000159bda0776d5dde90a234046494604f0f5
:1013200023fd0022cde906018b4bdde9020107f028
:1013300093fadde90623cde90a010af05dfd0028f4
:1013400065d0662f04f1010465d10136a146a9ebf1
:1013500006034ff00008059e1093cdf80880109bff
:10136000994540f08180029b002b00f0c880a819ad
:101370000022652f027029d1149b1499013b9442dd
:10138000ea54c1f1030ebcbf644201220a21002cc1
:1013900040f0bc800eeb030cbcf1000f00f3b680f4
:1013a000002a03f1ff3114bf2d222b226a540d9a1b
:1013b000023b413a192a05eb030198bf45279e429b
:1013c0000f70aaf1020a01da0bf0d6f90bf0030351
:1013d000022b7ff4a3aebaf1000f7ff79fae284631
:1013e0000bf00cf905eb0a03059a824240f3998051
:1013f000059b2b441846524630210bf057f9002329
:1014000008938be69fed527b8ded0a7b83e79ded84
:10141000027b8ded0a7b652f14bfa1464ff00009ba
:1014200095e7029a52b9b9f1000f07da0e992e2208
:101430006a54012201360af1ff3a029205eb0801d3
:10144000aa193144302001e002f8010b9142fbd18e
:1014500008eb06023033aaeb080808f1ff3a561ce5
:10146000ab544ff0000828e00c9b0e961b69053b1f
:10147000b3427ff678afdde90a23dde9060105f026
:1014800017fc41ec100b08f00bfc51ec100bb0ee0c
:10149000408af0ee608a0af0c3fa0bf010020928c5
:1014a0000346a8bf09230243bbd1099a672ab8d1d2
:1014b000b9f1000fc2da08f10108069b1293079bed
:1014c000b0ee480af0ee680a83f0004313939dedf6
:1014d0000a1b9ded122b0af09ffe53ec102b83f09c
:1014e00000430793dde90a0100221b4b8ded060a3c
:1014f00005f0defb09f1ff39cde90a012fe71bf00a
:10150000100f1ebf2e23ab55013630e7b4fbf1fca4
:10151000013b01fb1c443034ec540af1ff3a6446b1
:1015200035e72a5c1a5401385ee7002cbff69aae04
:10153000662788e606262de6099b672bfad01f460c
:10154000062680e6aff30080000000000000f03fb8
:1015500000000000000000000000244000001440d3
:020000040000fa
:020000040101f8
:101560002de9f04f95b0cde912030b68089392ed89
:10157000007b4b680a938b6809930b690d93cc68c9
:101580000022002351ec170b8ded047b0af0a6fc22
:1015900040b9089b580734d4089b13f0080732d091
:1015a000202306e0dde9042181f00043cde9042396
:1015b0002d232370099b01275a1edde90403dff860
:1015c000f8b223f000414ff0000a594508bf5045da
:1015d0001bd1139b413b192b04eb070094bfb0496f
:1015e000b0490bf0c9f8af480bf008f8089b00931e
:1015f0000246099b1298214609f0e2fa15b0bde8af
:10160000f08f2b23d5e7099ad7e7139b8b45a3f1de
:10161000410308bf82450b9309d2192b04eb070045
:1016200094bfa149a1490bf0a7f8a048dce73021fd
:10163000e1550b997b1c1a2934bf58217821e154bc
:10164000931e079300220023dde9040102370af00c
:1016500014fd002800f07b819fed8f7b8ded027bd8
:1016600000250a9bdde90289002bdde904abb8bf48
:1016700018230e93002642464b465046594605f025
:1016800017fb41ec100b08f00bfb42464b4651ecac
:10169000100b8ded100b07f0dff802460b4650469d
:1016a00059460bf085f8824b82468b4640464946a8
:1016b000002207f0d1f8731c0c930a9b002b804684
:1016c000894606da00220023504659460af0d5fc26
:1016d00028b90e9bb34200f3408101330c930022e2
:1016e000744b4046494607f0b7f8804689460246a3
:1016f0000b46504659460af0f1fb002840f02f8176
:1017000042464b46504659460af0b7fc30b1dde937
:1017100010010af085f9c10740f1218142464b468c
:10172000dde9040104f020fbcde90401dde9042139
:1017300021f00043604900208b4208bf82423ff401
:1017400048af4ff000083e46c246c1460d9b053be0
:10175000b342b34633d9dde90223dde9040105f0e4
:10176000a7fa41ec100b08f09bfa51ec100b8ded31
:101770000e0b0af055f9002840f0f680b9f1000f81
:1017800000f0f28008f10108dde90223dde90e0135
:1017900007f062f802460b46dde904010bf008f899
:1017a000434bcde904010022dde9020107f054f8c2
:1017b0000c9b09f101094b45cde90201c6d1baf1f3
:1017c000000f1ed1b8f1000f00f015810a9b002b0d
:1017d00040f31181089bda0700f10d81a3192e2235
:1017e0001a7008eb06022244302100bf03f8011fe3
:1017f0009a42fbd1079b46446fea080843440136ee
:1018000007930d9b0d990022a019013b9542027090
:10181000b8bf6d42e254c1f1020eb8bf01224ff0d1
:101820000a08002d40f0d7800eeb030cbcf1010f2d
:1018300000f0d180002a03f1ff3114bf2d222b22aa
:1018400062540b9a023b1a2a04eb030134bf502264
:1018500070229e420a7001da0af08eff089b03f0a4
:101860000303022b14d1079ba3f10208b8f1000f68
:101870000edd20460af0c2fe04eb0803b84280f2f7
:10188000b68042463021e0190af010ff0023099388
:101890002046a9e6aff30080000000000000f03f02
:1018a00008c701010cc7010110c7010114c70101dc
:1018b0000000b03f000020400000f07fcde9028929
:1018c0000135dde902231046194604f04dfa804641
:1018d000894602460b46dde904010af0fffa0028ba
:1018e000ecd0dff82cb1dff82c914ff0000a4ff06c
:1018f0000008dde90223dde904010af0effa00281f
:101900003ff4afae52465b46dde9020106f0a4ffac
:10191000002200230af0b1fb78b142464b46dde9d4
:10192000020106f099ff4246cde902014b46dde98e
:10193000040106f091ffcde90401dde90201524600
:101940005b4606f089ff013dcde90201d1e79fed3d
:101950002e7b05468ded027bb3e70c9e8be64ff0a8
:1019600000084ff00009d9e6baf1000f0bd1b9f128
:10197000000f08d02e2304f80b30079b013b0136e3
:1019800007934ff0010a04eb0803a21933443021f6
:1019900002e000bf02f8011b9a42fbd1079b06eb55
:1019a000080ba3eb08080b9b0928d4bf3030573035
:1019b000192b06d840f02003613b192b01d80af0ff
:1019c000c1fe08f1ff330bf1010604f80b00079389
:1019d0004ff00008d8e60799b5fbf8fc013b08fb7f
:1019e0001c5530350139e5540791654619e7225ced
:1019f0001a54013842e7089bdb067ff502af2e231d
:101a0000a3550136fde600bf000000000000f03fd6
:081a10000000e03f000050431c
:020000040000fa
:020000040101f8
:101a1800037b53b910b48469a278c2f38102022a05
:101a280005d018465df8044b704700207047e388de
:101a380008885df8044bc01ab0fa80f04009704776
:101a480010b4027b85b00446086849686b4603c336
:101a580052b9a1698b78c3f38103032b09d01046cf
:101a680005b05df8044b7047002005b05df8044be5
:101a780070478b1d0df107020e3100bf13f8010be3
:101a880002f8010f8b42f9d1dde90001dde90223fb
:101a9800994206bf90420120002005b05df8044b32
:101aa800704700bf2de9f04f83b08046b4208946c7
:101ab80015461f46bdf8306007f036fc002875d083
:101ac800b8f1000fd0f8008014bf04220c220423c0
:101ad80088f80020c8f8040088f8b1300446694640
:101ae800532006f01dfebdf80020931c9bb2012b6d
:101af80003d9b9f1000f00f088806946f02006f09c
:101b08000ffedde9003108f1a90908f1a80208f182
:101b1800b00000bf02f8013f1b0a824243ea01639a
:101b28004fea1121f6d14cf2230b4ff0120a694605
:101b3800502006f0f5fd002d3bd1022d4bf0400b57
:101b48004ff0010248d0032d6fd0514f7b894ff6db
:101b5800fe718b4200f08380190a4bf4006b09f880
:101b6800023c09f8011ca9f10205002a41d1330af7
:101b780005f8026c05f8013cba7d2b46511cb97575
:101b88004fea1b2105f8032c05f8041c05f805bcd1
:101b980003f806ad4046c8f818300122022108f0c3
:101ba80007fb00283ad13b4b0120187003b0bde871
:101bb800f08fbdf80030b342bfd01a0a0af1020a0a
:101bc800022d09f8012c09f8023c5ffa8afa4ff055
:101bd8000002a9f10209b6d13b8809f8023c1b0aa8
:101be80009f8013c4bf4006ba9f10205284f002ac3
:101bf800bdd06946502006f093fdbdf8003005f8c9
:101c0800023c1b0a05f8013cb6e7a8f8af2008f12a
:101c1800af0948f2230b4ff00c0a88e7204607f07b
:101c2800a3fb002003b0bde8f08fd7e900300af12c
:101c3800060aa9f10805a9f109015ffa8afa4bf425
:101c4800406b09f1ff3900bf01f8013f1b0a8945c4
:101c580043ea00634fea1020f6d10d4f85e7d7e934
:101c680000300af1060aa9f10805a9f109015ffa8d
:101c78008afa4bf4406b09f1ff3900bf01f8013fc4
:101c88001b0a494543ea00634fea1020f6d16ce786
:101c9800e0000020100000202de9f041b42082b0bf
:101ca80007f042fb00285dd0046800230d22606025
:101cb8002373694605462270532006f031fdbdf8ae
:101cc800003002339bb2012b69464ed9532006f0ef
:101cd80027fdbdf80030a4f8b03004f1b0064ff489
:101ce80000480b276946502006f01afd3b48bdf80e
:101cf8000030428a9a4267d01a0a023706f8012c45
:101d0800ffb206f8023cb21e037c032b45d0038bbe
:101d180002f8023c48f400661b0a46f0010602f885
:101d2800013c911e438a01f8023c2d481b0a01f828
:101d3800013c827d0b4602f1010c80f816c0300a86
:101d480001f8032c01f8056c01f8040c03f8067d72
:101d58000022a3612868022108f02afac0bb214b9f
:101d680001221a7002b0bde8f081f02006f0d8fc1c
:101d7800dde9003104f1aa0604f1a90204f1b10079
:101d880002f8013f1b0a904243ea01634fea11211e
:101d9800f6d14ff440481127a4e7d0e9063c0637ae
:101da800a2f10801a2f10906ffb2013a06f8013fc3
:101db8001b0a964243ea0c634fea1c2cf6d148f4fe
:101dc800406646f00106ade748f0400832469be71a
:101dd800284607f0c9fa02b0bde8f08140000020ab
:101de800e00000201000002030b58bb007f0bcfaee
:101df8002b4b1b78012b3cd92a4c237c022b3ad045
:101e0800032b36d1284b009304f11803019369463c
:101e1800264807f015fd002833d00568628aab69ab
:101e28009b889a422dd10123686069462b731f480d
:101e380007f006fd20b1aa69537843f010035370e8
:101e4800ab695b781b070bd52022002102a80af09a
:101e580029fc294602a8fbf7f3fd9df81a30a3b91f
:101e680000220221284608f0a3f9a8b9104b012244
:101e78001a700bb030bd0f4b009304f11803019397
:101e8800c5e7fff709ff0bb030bd02aa296928464c
:101e9800fbf774fa0028e3d000232b730bb030bd96
:101ea800d602002040000020491a0101c802002083
:081eb80010000020191a0101bd
:020000040000fa
:020000040101f8
:101ec000124b1348196830b50b68eb224ff6ff74bc
:101ed000142583b01d701a715c8007f09bfc08f01c
:101ee000d1fc0c4badf8064000220df1060150204c
:101ef0001a70fbf75ff9084b00200021c3e90001cd
:101f00005c8101f0cbfe03b030bd00bf2c0000208f
:101f1000000000203d000020e000002038b50368ec
:101f20000446142519715a8021461d70034807f094
:101f300071fcbde8384008f0a5bc00bf00000020df
:101f40002de9f0470668654f7168b268f36888b09c
:101f5000044630683c6002ad0fc59df80b30306917
:101f600071699a1e012a03c500f28f80022b00f0ce
:101f70008780dde904235a4ec6e900234ff6fe733d
:101f8000738103a95020fbf715f901f0cffe2568f6
:101f900001232b706c609df8182085f8b03085f80f
:101fa000b1206946f02006f0bffbdde9003105f104
:101fb000a70205f1af0000bf02f8013f1b0a8242f1
:101fc00043ea01634fea1121f6d19df80b304ff03f
:101fd000ff32022ba5f8a62005f19e0765d0d6e9b1
:101fe000003105f19d0205f1a50000bf02f8013f97
:101ff0001b0a904243ea01634fea1121f6d105f131
:1020000098084ff0cc0a4ff01b096946502006f0a3
:102010008bfbbdf8003007f8023c1b0a07f8013cb7
:10202000b37d2322591cb175042007f8033c07f83f
:10203000052c0df10a0107f804ac07f8069cc5f859
:102040001880fbf7b7f80df1090106460020fbf7f1
:10205000b1f8304310f0ff0f32d0236821484ff61b
:10206000ff721426e12521461e701d715a8007f06b
:10207000d1fb08f007fc01f011fe08b0bde8f087c5
:10208000174ebdf8103073817be7e8224ff6ff73df
:1020900014202146307032717380124807f0bafb69
:1020a00008f0f0fb08b0bde8f0877389a5f8a4300c
:1020b000b8464ff0c80a05f1a4074ff01509a4e788
:1020c00028460122022108f077f80028c5d1064be6
:1020d00001221a7008b0bde8f08700bf2c00002074
:1020e000e000002000000020100000200c4b1b7cb2
:1020f0009bb10c4a036870b5d2e9064592f840607e
:102100001e7413220146c3e9024507481a7007f0fe
:1021100081fbbde8704008f0b5bb07f029b900bfee
:10212000e00000204000002000000020f0b504681e
:102130003b4f6168a268e3683f7889b00546206834
:1021400002ae0fc6023f20696169012f03c659d84c
:102150000223bdf818109df81a20237084f8ae30c1
:10216000a4f8af1084f8b1206946f02006f0dcfa3c
:10217000dde9003104f1a500024604f1ad0600bf1f
:1021800002f8013f1b0ab24243ea01634fea112100
:10219000f6d1dde9043104f19d0200bf02f8013ff0
:1021a0001b0a824243ea01634fea1121f6d11d4e18
:1021b0006946502006f0b8fab37dbdf8002084f8d7
:1021c0009b300133b37546f21b30cc21a4f89c2020
:1021d000002304f19802a4f8980084f89a10a261f0
:1021e00023732946104807f015fb01280fd00f4b29
:1021f00032896281187803f023fc70b108f042fb49
:1022000009b0f0bd284607f0b3f809b0f0bd294683
:10221000f12001f04ffd09b0f0bdfcf707faede742
:10222000d6020020e0000020c8020020da020020d0
:102230002de9f043214c94f8426083b007f098f800
:102240002ebb04f140015320faf7b4ff1c491d4b8b
:1022500008781d4fb4f84050d4e90689c3e90089d5
:102260001a4b012203283a701e7023d0184b1948cc
:1022700019680b6814221e715d801a7007f0cafa83
:1022800008f000fb01f00afd03b0bde8f0830f4b3e
:1022900000224ff6ff750df1060150201a70adf8bf
:1022a0000650faf787ff074b00200021c3e9000121
:1022b0005d81dbe702230b70d8e700bf4000002000
:1022c00011000020e0000020d60200203d00002088
:1022d0002c0000200000002030b583b00024174df2
:1022e00000942346224620460121ed89fff7defbbc
:1022f00088b1cde90044124b29011878114b2246d0
:1023000003f038fb08b903b030bd204603b0bde888
:102310003040fff7d5bd0c4b0c4819680b684ff6e1
:10232000ff721425e1241d701c715a8007f072faa7
:1023300003b0bde8304008f0a5ba00bfe0000020bf
:10234000d7020020c11e01012c0000200000002047
:020000040000fa
:020000040101f8
:102350002de9f04fca4b2ded048b59ec108b002268
:1023600099458fb008bf90458ded021b00f0d480d9
:10237000dde90267b319009347eb07030193dde939
:102380000001c04b4ff0ff328b4208bf824280f009
:10239000008118eb080a49eb090b5b4508bf524561
:1023a00010ee104a4d4633d26ff400134ff0ff3257
:1023b0005b4508bf524532d2c5f30a53013b40f298
:1023c000fd72934200f2ab80c7f30a53013b934284
:1023d00000f2a580dde9020109f022fb82460af045
:1023e0000df88f4208bf864268d040464946002219
:1023f000002309f073fd00284ad09fed9b8bb0eebf
:10240000480af0ee680a0fb0bdec048bbde8f08f0f
:10241000002e77f1000302da9b4b22221a60002c77
:1024200075f10003c8dadde900016ff400134ff025
:10243000ff328b4208bf8242bed3c7f30a5eaef2c0
:10244000ff33332b049340f2a780b3f5806f40f243
:10245000508100988d4b8a4a0021091a019963eb3b
:10246000010302eae37207f0004342ea030100209d
:10247000cde9060102460b46dde9020109f0fdfd4a
:10248000002899d1804b21221a609fed778bb6e707
:10249000224625f0004343ec102b04f01dfedde93d
:1024a000020153ec102b06f0d7f941ec100b04f0ad
:1024b000dff9b0ee408af0ee608aa0e7baf1004f93
:1024c00093d0baf1000fc0f20d8118bf002460d084
:1024d0009fed678b1af0010f07d051ec180b4246a5
:1024e0004b4606f0b9f941ec180b5fea5a0a42462e
:1024f0004b46404649460ad1002c80d053ec182b5d
:1025000000205f4904f0d4fb41ec180b77e706f09c
:10251000a3f980468946dde749ec188b6fe75c4bf1
:1025200000225b4508bf5245f6d3dde900018b422e
:1025300008bf8242c0f0da80bbf5001f08bfbaf1c5
:10254000000fc0f0af80534b00229d4208bf944261
:1025500000f0ff80504b00229d4208bf944200f0e3
:10256000fe809f4208bf964200f0df804b4925f075
:1025700000434ff0ff30994208bfa04280f0e68050
:10258000474b00229d4208bf944202d09fed3a8bf8
:1025900035e79fed378b32e7c3f1340c4ff0ff3254
:1025a000acf1200002fa00f002fa0cf3ccf12001a9
:1025b00022fa01f1034302fa0cf243ea01009118f6
:1025c000049b0b920c9047f48012404122ea0002d7
:1025d00002fa03f0c3f120030993ccf1200326eaa9
:1025e00001010a93aef21f4e099b01fa0efe40ea6a
:1025f0000e0021fa03fe049bcdf824e001fa03f358
:102600000d930a9b02fa03fe099bcdf810e01843d4
:102610000d9bdb180d93049b21fa0cf1acf1200efd
:1026200041ea030122fa0ef322fa0cf20992099a06
:1026300041ea030140410d9b10430b43c0f31401d9
:1026400005910c980b99049306ea010207ea00032e
:10265000dde90401b1f5801f08bf012850d2cde9a2
:10266000062309e7aff30080000000000000f87fb8
:10267000000000000000f03f000000000000f07fbc
:102680000000f03fffff1f007cc000200000c07f63
:102690000000e0ff0000f07f0000f0ffffffef3fd1
:1026a0000000f0bfdde9020109f0baf9824609f045
:1026b000a5fe8f4208bf86427ff497ae002e77f1c9
:1026c000000368db9fed3a8b002108461af0010fea
:1026d0003ff495ae05f000440a4684ea000343ec5b
:1026e000182b8ce6caf1000a0124f1e69ded028b5d
:1026f00085e69ded027b8ded067b53ec172bbbe64b
:10270000012101fa0ef00a994ff0010e2efa01fe96
:10271000012101fa0cf1891840ea0e0040eb030395
:1027200006910793dde90623a6e6294b00229d4288
:1027300008bf94423ff42daf264925f000434ff0e7
:10274000ff30994208bfa042bff420af9fed188b25
:1027500055e6002e77f10003bff618aff6e7002e1e
:1027600077f100031cdb9fed149b9fed158bdde9da
:10277000020109f055f9044609f040fe8f4208bff6
:1027800086427ff43caee3077ff539aeb0ee498a6e
:10279000f0ee698a33e69fed0a8b0f48002195e73a
:1027a0009fed099b9fed028be1e700bfaff3008037
:1027b0000000000000000000000000000000f0ff2a
:1027c000000000000000f07f00000000000000801a
:0c27d0000000f0bfffffef3f0000f07fb3
:020000040000fa
:020000040101f8
:1027dc0008b5ff21034807f011f8bde8084001f0e7
:1027ec0047bb00bf0000002010b507f097fc00218c
:1027fc000446044807f01ef810b109f05bfe0124f2
:10280c00204610bd000000202de9f04f83b0762a41
:10281c009df830509df834b09df838a09df840904c
:10282c009df8448003d9002003b0bde8f08f064624
:10283c00b420cde90031144606f074fd074600289b
:10284c00f1d0006801994670032303700b788370f4
:10285c00023b4a888280012b9cbfd1e90223c0e94c
:10286c0002230f9a4261c4f1b203057480f811b0cf
:10287c0080f812a080f8139080f8188044760099a4
:10288c001844224609f04efe3946074806f0bcffb4
:10289c0028b907f0f1ff012003b0bde8f08f3846ee
:1028ac0006f060fdbfe700bf1400002038b50546f8
:1028bc00b42006f037fd60b10368044604220848d2
:1028cc005d701a70214606f09fff18b907f0d4ff0f
:1028dc00012038bd204606f045fd002038bd00bf64
:1028ec00140000202de9f8430646b420884617460c
:1028fc00994606f017fdc0b1046866700126267073
:10290c003b78e3707b88a380d7e90223054684f8e3
:10291c0010900a4884f80280c4e90223294606f084
:10292c0073ff20b907f0a8ff3046bde8f8832846ae
:10293c0006f018fd0020bde8f88300bf140000204d
:10294c002de9f0410646b4200f4690461d4606f090
:10295c00e9fc80b1016804460223a1f81080c1e9aa
:10296c0002678d740b700848214606f04dff20b9a4
:10297c0007f082ff0120bde8f081204606f0f2fc52
:10298c000020bde8f08100bf140000202de9f041cb
:10299c000546b4200e46904606f0c4fcb0b1036860
:1029ac0005221e741a702a785a70d5e902676a8853
:1029bc005a80044683f811800848c3e9026721460f
:1029cc0006f022ff20b907f057ff0120bde8f08187
:1029dc00204606f0c7fc0020bde8f0811400002062
:1029ec002de9f0410646b4200f4690461d4606f0f0
:1029fc0099fc80b1016804460723a1f81080c1e955
:102a0c0002678d740b700848214606f0fdfe20b954
:102a1c0007f032ff0120bde8f081204606f0a2fc51
:102a2c000020bde8f08100bf1400002038b5054639
:102a3c00b42006f077fc60b103680446092208480c
:102a4c005d701a70214606f0dffe18b907f014ff0e
:102a5c00012038bd204606f085fc002038bd00bfa3
:102a6c001400002070b50646b4200d4606f05afc42
:102a7c0068b103680446082208485e709d701a709d
:102a8c00214606f0c1fe18b907f0f6fe012070bd14
:102a9c00204606f067fc002070bd00bf140000202b
:102aac00f8b50546b4200e46174606f03bfc88b137
:102abc0004462846faf790fb236806225d709e7048
:102acc001a7068b921460d4806f09efe18b907f039
:102adc00d3fe0120f8bd204606f044fc0020f8bdd2
:102aec000246394603f1080009f01cfd2146034853
:102afc0006f08afe0028ead0ede700bf14000020a3
:102b0c00f8b50746b4200e46154606f00bfc70b11e
:102b1c00036804460a2209485f70c3e901651a700c
:102b2c00214606f071fe18b907f0a6fe0120f8bd8b
:102b3c00204606f017fc0020f8bd00bf1400002052
:102b4c002de9f8438146b420884617461e4606f008
:102b5c00e9fb88b1056804460b230b4885f8019006
:102b6c00c5f804802f726e722b70214606f04cfe55
:102b7c0020b907f081fe0120bde8f883204606f05d
:102b8c00f1fb0020bde8f883140000202de9f04f84
:102b9c0083b08346b420019115469a469df8309037
:102bac009df834809df838709df83c6006f0bafbb7
:102bbc00d0b104680199217103460d2219460f48c2
:102bcc00a4f802b084f806a084f8079084f8088072
:102bdc006772a67265712270019306f015fe019b57
:102bec0028b907f049fe012003b0bde8f08f184664
:102bfc0006f0b8fb002003b0bde8f08f14000020f5
:102c0c0038b50546b42006f08dfbb8b103680e222a
:102c1c001a702a785a7069885980022a044612bfa1
:102c2c00d5e9020128890021c3e9020121460648a1
:102c3c0006f0eafd18b907f01ffe012038bd20464a
:0c2c4c0006f090fb002038bd14000020b2
:020000040000fa
:020000040101f8
:102c58006cbf00201c00000000000000d8bf00204e
:102c68001800000000000000c8bf00200e0000008f
:102c78000000000020c00020080000000000000044
:102c8800000000200c0000000000000010000020e0
:102c9800cb0200000000000028c00020080000004f
:102ca80000000000d6bf0020010000000000000066
:102cb80028b80020ac01000000000000cdc00020b2
:102cc800010000000100000001000000a4bf002076
:102cd800100000000000000038bd0020a500000022
:102ce80000000000d4a30020fc0d0000000000003c
:102cf800ccbe0020300000000000000030c00020e2
:102d08000800000000000000e8b5002040020000b4
:102d18000000000038c0002008000000000000008b
:102d28005cbc0020dc00000000000000f0bf0020b8
:102d38000c00000000000000cec0002002000000cf
:102d48000100000001000000d8b900208001000047
:102d580000000000d0c0002020000000010000009a
:102d6800064a136823f49f7323f0010343f0110309
:102d78001360092300bf013bfcd1704700240144c4
:102d8800dc0200205800000000000000f0c0002015
:102d98001c000000010000000100ffff4d69637284
:102da8006f6368697020626561636f6e2064656d2a
:102db8006f203000fcbe00202c0000000000000046
:102dc8003803002068000000000000001cc100203b
:102dd8000800000001000000ff00000000000000e3
:102de8006abf0020020000000000000024c100208b
:102df8000400000001000000aaaaaaaafcbf002043
:102e08000c00000000000000b80300201ca0000017
:102e18000000000090be00203c0000000000000000
:102e280028c1002004000000010000000400000088
:102e380058bb00200401000000000000e0bd002095
:102e48006000000000000000a0030020080000004f
:102e58000000000088bf00201c00000000000000e7
:102e6800d4b900200400000000000000b4bf002016
:102e78000400000000000000d0b10020150400008c
:102e88000000000050c00020050000000000000005
:102e9800a80300200100000000000000ac0300208f
:102ea8000c0000000000000058c0002004000000d2
:102eb8000000000028bf00202400000000000000df
:102ec8005cc00020040000000000000008c00020d2
:102ed8000c000000000000004cbf00201e00000095
:102ee8000000000060c00020040000000000000096
:102ef800d7bf0020010000000000000064c00020cf
:102f08000400000000000000e5b5002003000000f8
:102f180000000000ddbd00200100000000000000ee
:102f28008dc000204000000001000000736a625b51
:102f380037332f2b28261d1915110f0b7f736a6243
:102f48005b332b28231b15110d09070514131211c8
:102f5800100f0e0d0c0a0806040200fefcfbfaf91d
:102f6800f8f7f6f5f4f2f0eeeceae8e60cc100202a
:102f780010000000010000000c0b0a0908070605f4
:102f8800040201fefcf9f6f240c000201000000027
:102f980000000000debd002001000000000000006d
:102fa80068c000200400000000000000b8bf002036
:102fb8001000000000000000dfbd0020010000003c
:102fc8000000000030c100200300000001000000e4
:102fd8002020300055c00020020000000000000042
:102fe8006cc00020040000000000000057c0002052
:102ff800010000000000000070c000200400000074
:103008000000000088c0002002000000000000004e
:103018008ac00020030000000000000033c1002027
:1030280001000000010000002000000074c0002022
:1030380008000000000000002cc10020040000006f
:1030480001000000010000007cc000200400000016
:103058000000000040be00205000000000000000fa
:1030680080c00020040000000000000084c0002090
:10307800040000000000000014c000200c00000044
:1030880000000000000000000000000066666666a0
:020000040000fa
:020000040101f8
:103098002de9f04143788cb0002b40f08f80a84d8b
:1030a80083782c78b4b9762bc27800f0e18160d9a6
:1030b8007d2b00f0d3814ed8772b00f0bd807c2b80
:1030c80054d10223214601aa76208df80430fff757
:1030d800e9fc4be0413b3b2b70d8dfe813f0fa00ea
:1030e8006f006f006f00e400f4006f006f006f0066
:1030f8006f006f0047006f006f006f006f006f0078
:10310800270103016f0047006f006f006f006f0019
:103118006f006f006f006f006f006f006f006f002f
:103128006f006f006f006f006f006f006f006f001f
:103138006f006f006f006f006f006f006f00470037
:1031480075001501b70065000c0147006f006f009e
:103158006f006f001e017e2b64d0f02b06d1214634
:1031680001aa7e20adf80440fff79cfc0cb0bde836
:10317800f081732b00f084810dd8712b4ad0722b0b
:10318800f4d1042321460deb03027420adf804307a
:10319800fff788fceae7742b16d0752be6d1012ad5
:1031a80000f05481002ae1d104230deb0302002131
:1031b80072208df80430fff775fcd7e70120fff780
:1031c80037fc0cb0bde8f0815e4b5f4d5f48604c4a
:1031d800d3e90021049505f1ca255e4b01920291bd
:1031e8005d4a5e49039005f54c055d4805940693d4
:1031f80007920891c8354cf6cd64cf2301aa032164
:10320800099071200a95adf82c408df82e30fff703
:1032180049fcabe7032aa9d8dfe812f0fd00e20079
:10322800d100b600214601aa5320adf80440fff7ab
:1032380039fc01232b7099e74a4a4b4b01922146ee
:1032480001aa7d200293fff72dfc8fe7474e6b788c
:1032580032889cb2a24223d9454f07f1080800bf23
:1032680004eb440308ebc30258f83310526837f8ec
:1032780033c0039241f2111000230291adf804000b
:10328800e1b201aa732004938df81430adf806c09a
:103298000134fff707fc3388a4b2a342e0d86b7867
:1032a80001336b7062e7334b1b78002b7ff45eaf02
:1032b800314a324b11781b78012000fa01f10522be
:1032c800fff740fc52e72e4a00214520fff7eafbb2
:1032d8004ce7012301aa002152208df80430fff7a2
:1032e800e1fb43e7012301aa002141208df80430c6
:1032f800fff7d8fb3ae7234b01aa1b68019300218b
:103308007520fff7cffb31e70023194601aa4c20af
:103318008df80430fff7c6fb28e7022301aa002135
:1033280076208df80430fff7bdfb1fe7132301aab1
:10333800002146208df80430fff7b4fb16e700bfe4
:103348006abf00201cc100200100ff01040101ff29
:1033580000ff0100ff010004010001c0c1c2c3c495
:10336800c5c6c7c800563412785634123a0300202e
:103378004003002027bf00203c0300203803002022
:10338800f4c00020d4c70101414b4248424a434996
:103398000390d3e90054424b019502944ff47f0502
:1033a8004ff47f44049505940693079208913d488d
:1033b8003d4d4cf6cd64cf2301aa002120e741f210
:1033c80011133a4d3a4c019301aa002303217320ab
:1033d800cde9025404938df81430fff763fbc5e67a
:1033e8002b4b34482c4a2d490390d3e900542c4bdd
:1033f800019502944ff47f054ff47f44049505949a
:103408000693079208912748274d4cf6cd64d1239f
:1034180001aa0221f4e61e4b27481f4a1f490390c0
:10342800d3e900541e4b019502944ff47f054ff4e5
:103438007f440495059406930792089119481a4dfc
:103448004cf6cd64d02301aa0121d9e621461846bd
:1034580001aa1a4b0193fff725fb87e6134a144b81
:103468000192214601aaf0200293fff71bfb7de69b
:10347800134b019301aa01217520fff713fb75e691
:103488000123214601aa77200193fff70bfb6de684
:103498001cc10020010101ff010001c0c1c2c3c459
:1034a800ff000004c5c6c7c8c9cacbcc0056341231
:1034b80078563412030101ff020101ff01000501e2
:0434c80000000501fa
:020000040000fa
:020000040101f8
:1034cc00f8b50f4c00f0dafd25681db1bde8f840e9
:1034dc0000f0e4bd271d384604f1180606f0d2ffb3
:1034ec00304606f0cfff2a460c210a20c4e90b76a1
:1034fc00f8f768f82060bde8f84000f0cfbd00bfd9
:10350c0090be0020914208b50061416005d88169e8
:10351c00d21a8a420cd3012008bd9a4201d2994298
:10352c00f9d2074b011dd86a06f0ccff002008bd6c
:10353c00034b011d186b06f0c5ff002008bd00bf32
:10354c0090be002070b504460d46164604e0a269f4
:10355c00236a204615449847a1692b4629443246d4
:10356c002046fff7cfff0028f1d170bd104bdb6a6e
:10357c00db6870b5dc680546201d0e4606f0bcff06
:10358c0094f824305a0708d423f0010384f824302b
:10359c002046236abde8704018472046324629462b
:1035ac00fff7d0ff236a2046bde87040184700bfe4
:1035bc0090be002010b5094ce36a1a684ab1db686a
:1035cc004ff0ff311868fff7d1ffe36a1a68002a41
:1035dc00f5d1226bc4e90b2310bd00bf90be0020b7
:1035ec002de9f041564cdff85c8184b04ff08057e8
:1035fc00e36a1e68002e77d0db681e68f3f7eefdd9
:10360c00f3f7f6fd636b984205467cd38642606304
:10361c0040f282800022711b2068f8f761fbf3f7ff
:10362c00d3fe28b9c8f80070bff34f8fbff36f8f6c
:10363c00002201a92068f8f715f90028d8d0019bc1
:10364c00002bf5db039d6b6913b1281d06f054ffad
:10365c00f3f7cefd636b984206465ad3019b666323
:10366c00013b082be4d8dfe803f024241d0e0524cd
:10367c00241d0e0095f824309a0754d523f001032d
:10368c0085f82430d4e795f824300299a96143f0e9
:10369c00010385f824303144284633463246fff77f
:1036ac0031ffc5e795f8243023f0010385f8243069
:1036bc00bee795f82420029ba96942f0010285f827
:1036cc002420194432462846fff71cff0028afd0af
:1036dc0095f8243059072ad423f0010385f82430b7
:1036ec002b6a28469847a3e7f3f778fdf3f780fd9c
:1036fc00636b8342054606d8236b65631a68b2fa7e
:10370c0082f2520987e7fff755ff6563f3f75cfe1a
:10371c008ee7fff74fffa1e7f3f756fe2946304639
:10372c00fff724ff84e7284602f006ff80e70299a2
:10373c00ab69324619442846fff704ffd0e700bfb7
:10374c0090be002004ed00e000b583b0fff7b8fe9a
:10375c00084b186850b138330122cde900230649d3
:10376c00064800234ff48072f3f780fa03b05df83b
:10377c0004fb00bf90be002098c70101ed3501018c
:10378c002de9f041804628200f4615461e4602f0d2
:10379c0067fe0446a0b1002380f82430fff790feaa
:1037ac00069bc4f80080c4e906762362201d06f04f
:1037bc0075fe2db194f8243043f0040384f82430c2
:1037cc002046bde8f08100bf30b5144d2c6885b0a3
:1037dc00c4b10529cde9011203900bdcf4f7c2f951
:1037ec00022812d0002328681a4601a9f7f700ff17
:1037fc0005b030bd1a462046002301a9f7f7acffef
:10380c0005b030bd204605b030bd2868089a0023ad
:10381c0001a9f7f7edfe05b030bd00bf90be00204a
:10382c00014b986b704700bf90be002080697047b9
:10383c0038b504460d4600f021fc94f824303db117
:10384c0043f0040384f82430bde8384000f026bc73
:10385c0003f0fb0384f82430bde8384000f01ebcb4
:10386c0010b5044600f00afc94f82440c4f380041c
:10387c0000f014fc204610bd10b5044600f0fefb11
:10388c0094f82440c4f3800400f008fc204610bdda
:10389c00406870470068704710b5044600f0eefbb6
:1038ac0094f8244004f0010400f0f8fb204610bd0d
:1038bc0010b5044600f0e2fbe46900f0effb204693
:1038cc0010bd00bf38b504460d4600f0d7fbe561ce
:0838dc00bde8384000f0e2bb3a
:020000040000fa
:020000040101f8
:1038e40038b50468049d6170a270022aa38012bfd7
:1038f400d5e900232a88002316212170c4e9022374
:103904000146034805f084ffbde8384006f0b8bf1f
:10391400000000202de9f04304688bb06168a268c0
:10392400e3680546206804ae0fc62069616903c6d2
:1039340002a9502004f0f6febdf81230bdf80820ac
:103944009a420ad006aa009228469df81120e8213e
:10395400fff7c6ff0bb0bde8f08303232370656057
:103964009df8202084f8b03084f8b12002a9f0201a
:1039740004f0d8fedde9023104f1a7073a4604f168
:10398400af0000bf02f8013f1b0a904243ea016303
:103994004fea1121f6d19df81110bdf81800022943
:1039a400dde9063204f1a00667d004f19f0100bfef
:1039b40001f8013f1b0ab94243ea02634fea1222ab
:1039c400f6d104f19a074ff0190902a9502004f026
:1039d400a9febdf8083006f8023cdff81881414a18
:1039e4001b0a06f8013c98f81630591c88f8161082
:1039f40006f8033c9df8113006f8069c9b0063f022
:103a04003f03632106f8043c06f8051c1378a761fc
:103a1400023b0022012b227321d89df82130f3b1ff
:103a24009df81120022a3fd0032a43d1dde906671d
:103a3400d8e900018f4208bf86423bd029462a4874
:103a440005f0e6fe012841d0284bb8f80820628131
:103a5400187801f0f3ffb0b306f012ff7ae700f034
:103a640063f901220221286806f0a4fb68b9204bff
:103a740001221a700bb0bde8f0833746a4f8a60003
:103a840004f1a6064ff013099fe706ab28460093fe
:103a94009df81120bdf81230e121fff721ff00f05d
:103aa400fbf80bb0bde8f083dde90601002908bf8f
:103ab4004b28c3d106ab00932846bdf81230e82149
:103ac400fff70eff46e7faf7affdc5e706ab009335
:103ad4002846bdf812309df81120f121fff700ffb0
:103ae40038e700bfd6020020c8020020da02002016
:103af40010000020e00000200d4a38b5d2e9064548
:103b0400036892f840201a74152201461a70c3e91a
:103b14000245084805f07cfe074b00200021c3e95c
:103b240000014ff6ff725a81bde8384006f0a8be86
:103b34004000002000000020e0000020f0b50368f1
:103b4400002400258bb0cde906459d69ac78c4f30b
:103b54008104a31e012b06460f464dd93c4b1b780e
:103b6400032b5dd0022b2ad1022c23d0032c12d19b
:103b7400ab1d0df11f020e3513f8011b02f8011fd6
:103b8400ab42f9d13349dde90823d1e90001994277
:103b940008bf904213d002a9502004f0c3fd06ab25
:103ba4000093224639463046bdf80830fff798fea8
:103bb4000bb0f0bd274aeb8852899a42ebd104a995
:103bc400532004f0affd02a9502004f0abfd08a976
:103bd400f02004f0a7fdbdf8103002339bb2012b96
:103be4002ad904ab0093bdf8083039463046022286
:103bf400fff776fe0bb0f0bdab1d0df11f0105f113
:103c04000e0200bf13f8010b01f8010f9342f9d122
:103c1400dde90823cde906230d4b1b78032ba1d145
:103c240002a9502004f07efd06ab009322463946db
:103c34003046bdf80830dbe708ab00933946304620
:103c4400bdf808300322fff74bfe0bb0f0bd00bff8
:083c5400d6020020e000002070
:020000040000fa
:020000040101f8
:103c5c0008b5002007f06cfe10b9024b01221a7057
:103c6c0008bd00bfd5020020024b1b7803b1704782
:103c7c00eee700bfd502002008b508f031fb85281f
:103c8c0002d0024b00221a7008bd00bfd5020020e2
:103c9c00034bdb7d1bb9034b1b7803b9e4e770477f
:103cac00e0000020300000202de9f0430c68a369ef
:103cbc00814653f8060f85b00d4659681c2202ab9d
:103ccc00227003c36946502004f028fd4ff003080e
:103cdc00bdf800306380694684f80480f02004f05d
:103cec001dfddde90223dde900672946c4e9062351
:103cfc0084f8209084f81080c4e90267034805f02a
:103d0c0083fd06f0b9fd05b0bde8f083000000208e
:103d1c00024b1b7803b170479ae700bfd502002015
:103d2c00024b1b78012b00d07047a5e7d502002071
:103d3c0008b5094801f070fe60b9084801f06cfe46
:103d4c0040b9074801f068fe20b9064801f064fe4e
:103d5c0000b908bd852008bdd7020020da0200207a
:103d6c00d8020020d902002008b50b4b187801f0be
:103d7c0041fe78b9094b187801f03cfe50b9084b5c
:103d8c00187801f037fe28b9064b187801f032fe8e
:103d9c0000b908bd852008bdd7020020da0200203a
:103dac00d8020020d9020020f8b5244b2449254a1a
:103dbc00254f264edff8b4c000241c70244b0c7029
:103dcc0014702449244a3c7034704ff0ff374ff084
:103ddc00ff36c3e90067054620468cf800400c709e
:103dec00147007f037f905f0f9f90646fff7bcff38
:103dfc00304605f0fdf905b9f8bd184d184beb60d0
:103e0c0001222c822a76ec7408f00afc154ba8745b
:103e1c0040f2016200200021ab60aa82c5e90001da
:103e2c0008f0fefb104ba87583f8ac4083f8aa4150
:103e3c00ec75a3f8a041c3f8ac41f8bd28000020f4
:103e4c00d6020020d5020020110000203d000020e9
:103e5c0020000020d402002030000020e0000020d0
:103e6c00c2070078f401ffff0001002010000020c1
:103e7c0010b582b005f08efbfff75aff18bb01207e
:103e8c00fff792ff6846082101f006fe0446d0b900
:103e9c006946f02001f0e2fb0d4bdb7d23b90d4ba5
:103eac001b780bb9fff7e0feff210b4805f0a6fcd1
:103ebc00ff210a4805f0a2fcff21094805f09efcf1
:103ecc00204602b010bd8524204602b010bd00bfb4
:103edc00e00000203000002014000020cc00002066
:103eec00c802002000b5124b1b78012b83b01cd0ec
:103efc004ff6ff7301a95320adf80430adf806302e
:103f0c00f9f752f90df106015020f9f74df901209e
:103f1c00fff74aff074bdb7d23b9074b1b780bb927
:103f2c00fff7a2fe03b05df804fbfff7a5fedfe789
:103f3c00d5020020e0000020300000201a4b1b7836
:103f4c00012b70b5054604682ad06478003418bf7c
:103f5c000124204607f0ecf806462046fff724ff24
:103f6c00124bdb7d23b9124b1b780bb9fff77cfe90
:103f7c00104805f067fc104805f064fc0f4805f08c
:103f8c0061fc0f4805f05efc2b680c485e7020222b
:103f9c0029461a7005f038fcbde8704006f06cbc80
:103fac00fff76afed1e700bfd5020020e000002039
:103fbc003000002014000020cc0000200000002065
:043fcc00c802002007
:020000040000fa
:020000040101f8
:103fd00082b0002301934ff0200383f31188bff3d5
:103fe0006f8fbff34f8f019b002bfcd002b0704747
:103ff00008480068006880f308884ff0000080f3ec
:10400000148862b661b6bff34f8fbff36f8f00dfc6
:1040100000bf000008ed00e0dff80c00016841f48b
:10402000700101607047000088ed00e030b421f0bd
:1040300001014ff08075074c40f80c4c6ff0020303
:1040400040f8202c40e9021540f8243c30bc4438ac
:10405000704700bfd13f0101094b19680868b0e8fb
:10406000f04f80f30988bff36f8f4ff0000080f3ab
:1040700011887047aff30080aff30080aff300808a
:104080005cbb0020704700bf4ff0200383f3118812
:10409000bff36f8fbff34f8f024a13680133136072
:1040a000704700bf24c10020034a1368013b13601e
:1040b0000bb983f31188704724c10020eff3098006
:1040c000bff36f8f164b1a681ef0100f08bf20ed5c
:1040d000108a20e9f04f10602de909004ff0200010
:1040e00080f31188bff34f8fbff36f8ff3f706fb99
:1040f0004ff0000080f3118809bc19680868b0e827
:10410000f04f1ef0100f08bfb0ec108a80f3098842
:10411000bff36f8f704700bfaff30080aff3008035
:104120005cbb002008b54ff0200383f31188bff378
:104130006f8fbff34f8ff3f799f818b1034b4ff020
:1041400080521a60002383f3118808bd04ed00e05b
:10415000f8b53b4c0546266872b6bff34f8fbff3e8
:104160006f8ff3f7e5fc002862d0364a364b062104
:1041700011601a68002a5dd0676834493346ae4240
:104180000e6828bf2b46581e750107fb002704d573
:1041900066684ff00072bf1b0a60a2682c4e294966
:1041a000ba4238bfbf1a284a3760002616600a682c
:1041b00042f001020a6023b1bff34f8f30bfbff35b
:1041c0006f8f62b6bff34f8fbff36f8f72b6bff3bf
:1041d0004f8fbff36f8f1b4906220a600a68d20314
:1041e0000cd5194b61681b68a2680b44013bdb1bb3
:1041f0009a4222d34b1e164a13600de012496268a0
:104200000968134d03fb02f3581acb1ab0fbf2f006
:1042100000fb022213442b6063680b4c09490c4ad3
:1042200000252560013b07240c601360f3f702f8ba
:1042300062b6f8bd626817469fe79942dbd2d9e7bc
:10424000fcbf002010e000e018e000e004ed00e01a
:1042500014e000e030b40b4b0b4a0c4d0c484ff40b
:1042600083741c604ff47a415e2459609c60002185
:104270004ff6ff140723116029600460136030bcff
:10428000704700bffcbf002010e000e018e000e035
:1042900014e000e0144b1a6810b542f460021a6092
:1042a0001a6842f0604282b01a60fff7d3ff0f4bea
:1042b00000241c60fff7b0fe0d4a136843f0404332
:1042c0001360fff795fef3f719fa01944ff02003fe
:1042d00083f31188bff36f8fbff34f8f019b002bc8
:1042e000fcd0002002b010bd20ed00e024c1002071
:0442f00034ef00e0c7
:020000040000fa
:020000040101f8
:1042f4002de9f041aeb00646154605910027059913
:104304000b78002b00f0fa8000244ff0ff33cde946
:1043140009430eab0c9380230b940d930b5d0bb1ef
:10432400252b26d134b12246304608f01bf8059bd4
:1043340023440593059b1a78252a40f0d78003f17e
:104344000108cdf81480059803782b2b1ad025d8b2
:10435400202b1bd0232b1dd02a2b27d007f0ccfbde
:104364000b90059b1a78303a092a2ed8013305930d
:10437400f7e70134d2e7099b43f0010301300993c5
:104384000590e0e7099b43f00403f7e7099b43f03a
:104394000803f3e7099b43f01003efe72d2bead062
:1043a400302bd9d1099b43f00203e7e72b681a1d90
:1043b4001b682a600130002b05900b9305da099adb
:1043c4005b4282f0010209920b93099bda0744bf16
:1043d40023f002030993059b1a782e2a0dd100229b
:1043e400581c0a9205905a782a2a25d1023305933b
:1043f4002b681a1d1b682a600a9305a807f0dcfcc9
:10440400059b0390187808f094f96928039979d0ea
:1044140032dc632800f0cb8019dc252800f0d98039
:10442400612853d000234ff0ff32cdf81480099354
:104434000b930a920093d4e007f05efb0a90059b6d
:104444001a78303a092ad8d801330593f7e7642853
:1044540058d06728e6dc2a4606a807f007ff00289c
:1044640000f0a180059b5a1c05921b7806aa09a995
:104474003046fcf713fe38e0702873d015dc6e2844
:1044840000f08c806f28cdd12b46002206a805f0c1
:1044940053ff002800f08780059b06aa013309a971
:1044a4003046059306f030fd1fe075283ad0782891
:1044b40048d07328b6d1802975d1059b2a68013369
:1044c4000593131d2b60126800237de02a4606a87d
:1044d40007f0ccfe002866d0059b5a1c05921b7879
:1044e40006aa09a93046fdf739f804443c44a7421a
:1044f4007add3e4b4f221a604ff0ff3738462eb01c
:10450400bde8f0812b46012206a805f015ff00281e
:1045140049d0059b06aa013309a93046059305f045
:1045240061ffe2e72b46002206a805f005ff0028fc
:1045340039d0059b06aa013309a93046059307f033
:104544008df8d2e72b46002206a805f0f5fe50b3fd
:10455400059b5a1c05921b7806aa09a9304604f04b
:10456400a7fac2e72b460022f02106a805f0e4fed4
:10457400c8b1059b01330593dde9062313430bd131
:104584001b4808f039f8099b009319490b9b024614
:10459400304606f013fba8e77823dde72b463a19eb
:1045a40006a806f04dfb059b013305939ee7802981
:1045b400f9d1059b013305932b681a1d1b682a60ea
:1045c4008df8183006aa012309a9304607f01af815
:1045d4008be78029e7d1059b01330593099b009361
:1045e4000b9b04490122d3e7274688e67cc00020c0
:0845f400b8c70101bec70101b7
:020000040000fa
:020000040101f8
:1045fc000c4b13f0ff0f08d04ff0200383f31188fe
:10460c00bff36f8fbff34f8ffee7074a934208d07b
:10461c004ff0200383f31188bff36f8fbff34f8fdd
:10462c00fee770470000000100000001014b18601c
:10463c00704700bfb4bf002030b4184c1546184a60
:10464c000c4404eb4030541e844208d24ff020033b
:10465c0083f31188bff36f8fbff34f8ffee71c18e6
:10466c00a24208d24ff0200383f31188bff36f8f5f
:10467c00bff34f8ffee71944b1f5005f08dd4ff033
:10468c00200383f31188bff36f8fbff34f8ffee7c7
:10469c0001461a46284630bc07f044bf0000000112
:1046ac0000400001f8b5304d0d4405eb4035174680
:1046bc002a071c4608d04ff0200383f31188bff360
:1046cc006f8fbff34f8ffee743b94ff0200383f397
:1046dc001188bff36f8fbff34f8ffee7234b5a1e2a
:1046ec00aa4208d24ff0200383f31188bff36f8fd7
:1046fc00bff34f8ffee76219934208d24ff02003ad
:10470c0083f31188bff36f8fbff34f8ffee7214404
:10471c00b1f5005f08dd4ff0200383f31188bff380
:10472c006f8fbff34f8ffee7114b1b6803b1984798
:10473c0023071ebf24f00f0310339cb24ff6f07307
:10474c002340fe18ed1bbe4204d100f0c1fd002831
:10475c00fbd1f8bd00f0bcfd0028fbd1791938461f
:10476c0000f03efd1037eee70000000100400001b4
:10477c00b4bf002010b5124c124b04eb4034a342d2
:10478c0014d300f0a5fd0028fbd1204600f076fde7
:10479c0004f5805400f09cfd0028fbd1204600f06d
:1047ac006dfd00f095fd0028fbd110bd4ff02003ee
:1047bc0083f31188bff36f8fbff34f8ffee700bffa
:1047cc0000000001ff3f000137b542b94ff0200354
:1047dc0083f31188bff36f8fbff34f8ffee71f4c2e
:1047ec000c4404eb40341e48431ea34208d24ff045
:1047fc00200383f31188bff36f8fbff34f8ffee756
:10480c001319984208d24ff0200383f31188bff399
:10481c006f8fbff34f8ffee71144b1f5005f08ddda
:10482c004ff0200383f31188bff36f8fbff34f8fcb
:10483c00fee74ff0ff3201929db204220deb020114
:10484c00204607f061fe30b90434a3b29d42f4d186
:10485c00012003b030bd0020fbe700bf00000001c9
:10486c000040000138b5154643b94ff0200383f3df
:10487c001188bff36f8fbff34f8ffee7184c194aa7
:10488c000c4404eb4030541e844208d24ff02003f9
:10489c0083f31188bff36f8fbff34f8ffee71c18a4
:1048ac00a24208d24ff0200383f31188bff36f8f1d
:1048bc00bff34f8ffee7ca18b2f5005f08dd4ff06b
:1048cc00200383f31188bff36f8fbff34f8ffee785
:1048dc001a46294607f018feb0fa80f0400938bd98
:0848ec00000000010040000182
:020000040000fa
:020000040101f8
:1048f400f8b5044607f044ffa94d0f28687071d13c
:104904000f2c15d000232b7106f0d8f901230222b5
:1049140004210d2007f032fb01230722802104200b
:1049240007f02cfb07f02cff082c68706cd10824ce
:104934002046f8bd062c00f09c80082c6ed16b78c4
:10494400082b6bd0974b01201c7007f0ebfe65e041
:10495400162c00f0bc8020d80f2c5fd1914b032281
:104964001a700421002302220d2007f007fb802186
:1049740004200023072207f001fb8b4a8b4b1b7892
:10498400137843f01003137007f06ef8232007f038
:10499400c9fe07f0f5fe687040e0192c00f0db80da
:1049a400202c3bd17f4b03221a70042100230222c6
:1049b4000d2007f0e3fa802104200023072207f0ea
:1049c400ddfa794a794b1b78137843f0100313709e
:1049d40007f0d4f9232007f0a5fe07f0d1fe044622
:1049e4006870a5e7202811d1202ca1d006f066f923
:1049f4006f4a1378dbb2082bfbd16b7002f058fdc1
:104a040005f0d6fa082c92d0032c90d0092c0dd0a6
:104a14009ed8042c25d08dd8032c90d0644b1c78c0
:104a240004f01f041f2c6c70f9d081e76b78082bfd
:104a340012d00cd8062bf1d103236b71594b0822e9
:104a44001a70012007f06efe06f084fde6e7162bcf
:104a5400f2d0192be2d1efe703236b7106f07afd54
:104a6400dce76b78082bf7d04e4b03226a711c707d
:104a7400d4e76b78092b16d011d8082bced102239a
:104a84006b7106f067fd502007f04cfe454e347004
:104a940007f076fe00f01f000628f8d1bee7162bbb
:104aa40001d0192bbad13f4c0823237002236b7118
:104ab40006f050fd502007f035fe4ff00606267034
:104ac40007f05efe00f01f000628f8d1a6e76b7819
:104ad400192ba3d80126374a06fa03f31a409ab9c8
:104ae40013f0021f1ed1db0598d56e7106f032fd5e
:104af400502007f017fe2b4e347007f041fe00f0f3
:104b04001f001628f8d189e7264f08233b706e71e1
:104b140006f020fd3c7007f033fe00f01f0016285d
:104b2400f8d17be7142007f0fdfd07f029fe00f023
:104b34001f0008287ff472af6e7106f00bfd502041
:104b440007f0f0fd174e347007f01afe00f01f0056
:104b54001628f8d162e76b78082b16d00fd8062bed
:104b64007ff45caf0f4c0823237000236b7106f0b5
:104b7400f1fc502007f0d6fd192323704ee7092bd2
:104b8400f0d0162b7ff44aafece700236b7106f0ec
:104b9400e1fc502007f0c6fd024b1c703ee700bf4d
:104ba40028bf0020020001410e0001410f00014115
:084bb400010001414002000272
:020000040000fa
:020000040101f8
:104bbc0000b5c5b001ab02928df804008df805105c
:104bcc0003cb0022cdf80d00cdf811100b2303a957
:104bdc0003488df80c3004f077fe45b05df804fb0b
:104bec00a403002070b5c8b001914e9c9df83c11f7
:104bfc008df8082003939df840219df844319df8d1
:104c0c0034619df8305105948df811608df8105079
:104c1c008df818108df819208df81a3000906c460c
:104c2c000fcccdf81d00cdf82110cdf8252007cce8
:104c3c000a24cdf82d00cdf83110cdf8352007a978
:104c4c0000220448cdf829308df81c4004f03cfebd
:104c5c0048b070bda4030020704700bf00b5c3b0be
:104c6c0006238df80d20cdf80500cdf80910002293
:104c7c0001a904488df8043004f026fe43b05df819
:104c8c0004fb00bfa403002000b5c3b000228df8c4
:104c9c000210adf80000009bcdf8053001a90723e8
:104cac0003488df8043004f00ffe43b05df804fbac
:104cbc00a403002030b5c9b09df830414d9d8df84e
:104ccc001440069504938df8040002918df80c2085
:104cdc0001ac0fcccdf81d00cdf8211003cccdf8d4
:104cec002520cdf82d00cdf83110092407a900227c
:104cfc000448cdf829308df81c4004f0e5fd49b08e
:104d0c0030bd00bfa403002000b5c5b0cde9000143
:104d1c008df808206b4607cb0c23cdf80d00cdf891
:104d2c001110cdf815200deb0301002203488df86e
:104d3c000c3004f0c9fd45b05df804fba403002061
:104d4c00704700bf704700bf10b5c4b001ac8df800
:104d5c00062002938df805108df8040003cc032374
:104d6c00cdf80d00cdf81110002203a903488df8e1
:104d7c000c3004f0a9fd44b010bd00bfa40300200a
:104d8c00704700bf00b5c3b008238df8050001a91a
:104d9c00002204488df8043004f096fd43b05df811
:104dac0004fb00bfa403002000b5c3b002238df8a0
:104dbc00050001a9002204488df8043004f084fd9c
:104dcc0043b05df804fb00bfa4030020704700bf94
:104ddc0010b5c6b0499c8df804009df820010494d0
:104dec008df806208df8051002938df80c0001ac9f
:104dfc000fcc0524cdf81500cdf81910cdf81d20d9
:104e0c0005a900220448cdf821308df8144004f097
:104e1c005bfd46b010bd00bfa403002000b5c3b0bd
:104e2c0004238df805008df806108df807200deb86
:104e3c000301002203488df8043004f045fd43b013
:104e4c005df804fba403002000b5c3b00d238df85e
:104e5c00050001a9002204488df8043004f034fd4b
:0c4e6c0043b05df804fb00bfa40300206d
:020000040000fa
:020000040101f8
:104e78002de9f04f099f154604468e461e46002b25
:104e880040f0cc808a42b2fa82fc4cd9bcf1000fc7
:104e98000bd0ccf1200801fa0cfe20fa08f802fa2f
:104ea8000cf548ea0e0e00fa0cf44fea15491ffa01
:104eb80085f8befbf9fa210c09fb1ae30afb08fb8b
:104ec80041ea03439b452ad9eb180af1ff3004d283
:104ed8009b4502d9aaf102002b44a3eb0b03a4b211
:104ee800b3fbf9f209fb123302fb08f844ea034466
:104ef800a04516d92c1902f1ff3303d2a04501d9d8
:104f0800931e2c44a4eb080443ea004027b124fa7a
:104f18000cf400233c607b603146bde8f08f5046be
:104f2800dbe71346eee702b9ffdebcf1000f2ed136
:104f38008b1a01264fea154eaab2b3fbfef8210cd4
:104f48000efb183308fb02f941ea0343994561d97e
:104f5800eb1808f1ff3004d2994502d9a8f10200f4
:104f68002b44a3eb0903a4b2b3fbfef10efb1133f0
:104f78004a4344ea0344a2424ed92c1901f1ff33b3
:104f880003d2a24201d98b1e2c44a41abce7ccf14f
:104f9800200e02fa0cf521fa0ef901fa0cf320faa8
:104fa8000efe4eea03034fea154800fa0cf4b9fb6b
:104fb800f8f11ffa85fe08fb1192180c01fb0ef69a
:104fc80040ea0242964221d9aa1801f1ff3003d2e1
:104fd800964201d9881e2a44921b9bb2b2fbf8f96b
:104fe80008fb192209fb0efe43ea02439e450fd92e
:104ff800eb1809f1ff3604d29e4502d9a9f1020641
:105008002b44a3eb0e0346ea004693e70846e3e782
:105018004e46f6e74046a4e70b46b6e78b4206d96c
:10502800002f7ed00026c7e90001304674e7b3faa6
:1050380083fcbcf1000f0fd18b4201d3824209d807
:10504800841a61eb030e0120002f6dd0c7e9004ed2
:10505800002661e76046f7e7ccf1200e03fa0cf36f
:1050680022fa0ef521fa0ef41d4301fa0cf320fa88
:105078000ef10b434fea154a00fa0cf6b4fbfaf9a5
:105088001ffa85f80afb19401c0c09fb08f144ead1
:105098000044a14202fa0cf23fd92c1909f1ff3061
:1050a80004d2a14202d9a9f102002c44641a9bb28d
:1050b800b4fbfaf90afb194409fb08f843ea04416e
:1050c80088452cd9691809f1ff3304d2884502d9db
:1050d800a9f10203294443ea0040a1eb0801a0fb1f
:1050e80002894945c2464c4602d306d1464504d2f8
:1050f800b8eb020a69eb05040138afb1b6eb0a0355
:1051080061eb040606fa0efe23fa0cf34eea0303db
:1051180026fa0cf6c7e900369ae74846c6e74b4632
:0c512800d9e73e463846f7e63e46f5e67d
:020000040000fa
:020000040101f8
:10513400014b18605960704730c00020034b1a6857
:1051440012b158681b681847704700bf30c0002070
:105154000d4b30b41d6beff3108072b64ff48041e9
:1051640000220f241d635960084d5c609a60084c4e
:1051740099604ff400411a621d621c62996080f3c9
:10518400108830bc704700bf00060044556699aad9
:10519400aa99665508b513460a46194607f0c6f992
:1051a400012008bd0d4b70b41864eff3108472b67f
:1051b4004ff480420f250120196300265a600849e4
:1051c4005d609860074d9a604ff400421e621d6254
:1051d40019629a6084f3108870bc7047000600441a
:1051e400aa996655556699aa114b026870b41a6457
:1051f40042681a6582681a66c2681a67eff31080fb
:1052040072b64ff480420f240226196300255a60b7
:1052140008495c609e60084c9a604ff400421d622d
:105224001c6219629a6080f31088012070bc704778
:1052340000060044aa996655556699aa0e4b70b4a7
:10524400c3f8c000eff3108072b64ff480420f240d
:105254000326196300255a6008495c609e60084c67
:105264009a604ff400421d621c6219629a6080f3d6
:105274001088012070bc704700060044aa99665546
:10528400556699aa30b4eff3108172b60b4b0c4dee
:1052940018634ff480420f205a60586004209860cd
:1052a400084c9a6000204ff4004218621d621c6290
:1052b4009a6081f31088012030bc704700060044d6
:1052c400556699aaaa996655024b186800f440508d
:1052d400704700bf00060044024b1868c0f3c0309a
:1052e400704700bf0006004430b4eff3108472b678
:1052f4000e4b0f4a002520f07f4021f07f411d62b4
:1053040040f000401a6241f000414ff00042094d64
:105314001d62c3f8d020c3f8e820c3f8d000c3f856
:10532400e01084f3108830bc704700bf00060044ce
:10533400556699aaaa99665530b4eff3108172b6ee
:10534400084b094c09484ff0004200251d621c62bd
:105354001862c3f8d420c3f8e42081f3108830bc69
:10536400704700bf00060044556699aaaa9966557d
:1053740030b4eff3108272b6074b084c084920f0a2
:105384007f4000251d621c621962c3f8f40082f399
:10539400108830bc704700bf00060044556699aac7
:1053a400aa99665530b4eff3108272b6074b084cd5
:1053b400084920f07f4000251d621c621962c3f871
:1053c400f80082f3108830bc704700bf0006004428
:0853d400556699aaaa996655d5
:020000040000fa
:020000040101f8
:1053dc002de9f04f804600688fb090f82a50447841
:1053ec00b0f8029090f810e0b0f812c0c36a90f8d0
:1053fc002b208df81840d0e90267d0e906ab059553
:10540c0090f829400494cde9086790f82860039639
:10541c00466a029690f82140019490f82000009082
:10542c000aa906a88df828e0adf82ac0adf81a90a4
:10543c00cde90cabfff7d6fb404603f093ff0fb062
:10544c00bde8f08f10b5036804465a68587899780f
:10545c00fff7aefb2046bde8104003f083bf00bf52
:10546c0010b50368044699785878fff7f5fb204689
:10547c00bde8104003f076bf10b5036804461979f7
:10548c005888fff701fc2046bde8104003f06abfc6
:10549c0010b5036804461a7cd3e90201fff7defb62
:1054ac002046bde8104003f05dbf00bf30b5016879
:1054bc0083b04d6bcb6a91f828200446487801954f
:1054cc0091f8305000950831fff7f4fb204603b0fb
:1054dc00bde8304003f046bf2de9f041036888b0c9
:1054ec005a88adf80220d3e90267d3e90645804615
:1054fc00adf81220187c1a798df8002004a993f8c5
:10550c0020208df810006846cde90267cde90645ec
:10551c00fff7fafb404603f025ff08b0bde8f08129
:10552c00d0b50368d3e9026784b09a788df800206f
:10553c0004469888adf80200cde9026769465878b0
:10554c00fff7fefb204603f00dff04b0d0bd00bffb
:10555c0010b5036804461a7cd3e90201fff7f2fb8d
:10556c002046bde8104003f0fdbe00bf10b5044658
:10557c00006800f10803c27881784078fff7e4fbfb
:10558c002046bde8104003f0edbe00bf10b5036827
:10559c000446d3e90201fff7f3fb2046bde81040b7
:1055ac0003f0e0be10b5036804465878fff7eafb39
:1055bc002046bde8104003f0d5be00bf10b503680f
:1055cc0004465878fff7f0fb2046bde8104003f086
:1055dc00c9be00bf10b5036804465878fff7f6fb48
:1055ec002046bde8104003f0bdbe00bf70b5046896
:1055fc0082b004f110066368e278a1780546607801
:10560c000196247a0094fff7e3fb284602b0bde82c
:10561c00704003f0a7be00bf10b503680446da78eb
:10562c0058789978fff7fafb2046bde8104003f054
:10563c0099be00bf10b5036804465878fff704fc08
:10564c002046bde8104003f08dbe00bf00684379d2
:0c565c0002794188407801f037bd00bfa2
:020000040000fa
:020000040101f8
:10566800f8b5954e3478042c0d4600f02281512867
:105678000ed0592806d04e282ad1904b0a781a7590
:10568800002403e08d4b0a781a7700242046f8bde1
:105698000c788a4b002c14bf012200225a7712d0b2
:1056a80006f020fe864b1c682cb90920fff71ef96e
:1056b8000123b370eae70620fff718f9002000f08d
:1056c8002dfa0024e2e70820fff710f9b470dde7af
:1056d80076780f2e00f0eb800b2800f0df802bd8b7
:1056e800022800f0a58003d8002862d08924cde7dd
:1056f800032800f0c9800428f8d1002c40f0d98094
:10570800082e05d00820fff7f1f80828fad1162648
:105718002d78284602f08cf8082e074607d0162068
:10572800fff7e4f81628fad1002000f0f7f9002f67
:1057380046d0624b1d76a9e753282fd00ed84f28a4
:105748001ed05028d2d10b885c4a5e49d381dbb287
:105758000b705d4bd27b1a70002497e7572859d0fd
:10576800f028c3d1554b0a681a604a685a605749ed
:10577800574a13f8010b02f8010b8a42f9d13ee0af
:105788004e4a0b78d17e8b4228bf0b4653750f21aa
:1057980000222f2006f022fc002477e70b88474ad6
:1057a8004c499381dbb20b704b4b527b1a7000242f
:1057b8006ce7002c7dd10a78484bd340da0701d436
:1057c800882463e7082e05d00820fff78ff80828fb
:1057d800fad116262b78394d00221f210820eb74a8
:1057e80006f0fcfbeb7c0a3b03eb83035b004ff604
:1057f800fe7119400f2005f067fc082e01d1002426
:1058080044e71620fff772f81628fad1002000f0b6
:1058180085f93be7294a0b78517dd376994288bfb1
:105828005375f02104222f2006f0d8fb00242de721
:10583800224d0878e87504f0cdfce87505f0eefa1d
:105848000022034604460f21052006f0c7fb072067
:1058580005f0cafb20f4786141ea042189b241f0dd
:105868008001072005f030fce97d8b0642bf4942e4
:1058780001f01f014942204654bf01f03f0149b2df
