:020000040000fa
:10000000f0ff012071aa01015dc7010161c7010173
:1000100069c701016dc7010171c70101000000003e
:100020000000000000000000000000008942010103
:1000300065c7010100000000ed42010155430101c7
:1000400027640101b99c0101276401017953010171
:10005000276401012764010127640101276401016c
:10006000276401012764010127640101276401015c
:10007000b90001012764010127640101276401011e
:1000800027640101276401012764010165910101d1
:10009000276401012764010127640101276401012c
:1000a000276401012764010127640101276401011c
:1000b0002764010127640101a58001012764010172
:1000c00027640101059d01012764010127640101e5
:1000d00027640101276401012764010127640101ec
:020000040000fa
:020000040004f6
:045f8800ffff000017
:020000040000fa
:020000040004f6
:045f8c0000400e843f
:020000040000fa
:020000040004f6
:045f900038fc745f06
:020000040000fa
:020000040004f6
:045f94003844121467
:020000040000fa
:020000040004f6
:045f98000300007191
:020000040000fa
:020000040004f6
:045f9c000000000001
:020000040000fa
:020000040004f6
:045fbc0000000010d1
:020000040000fa
:020000040100f9
:10400000f8b500bff8bc08bc9e467047c9bd0101a9
:10401000f8b500bff8bc08bc9e467047a5bd0101bd
:020000040000fa
:020000040100f9
:084020009010010001000000f6
:020000040000fa
:020000040100f9
:1040280070b4d200db0020fa03f320fa02f2039cfa
:10403800ddb2d2b2c90082ea050320fa01f1e40038
:104048005940e040c4b2c9b284ea010646f3c0133d
:1040580003f01b0385ea040083ea46035840c3b211
:1040680043f3c01000f01b00544080ea4300604056
:10407800c0b240f3c01303f01b0383ea400048407a
:10408800c0b270bc704700bf2de9f04fd0f8f030d7
:104098004fea530e8db00ef1ff33062b099200f252
:1040a8001a82d1f800a0d1f804908f68d1f80cc01a
:1040b8000168d0e902239afa8afa8aea0104416877
:1040c80099fa89f99cfa8cfc89ea01098cea030cb3
:1040d80000f1100100f12003009301eb4e133fbae9
:1040e80008934fea4e030b9157400a93a246dd4dc1
:1040f8004fea1a645ffa8cf32e5deb5c5ffa8af084
:10410800c9f307412c5c4fea1962c7f3072043ea59
:104118000663d44eaa5c16f800806d5cf8b24feacc
:104128001c6144ea0264715c365cce483a0ec7f3ff
:104138000747805ccb4a46ea0166d25dc94f5ffa01
:1041480089f1c9f3072917f801e017f809b0caf38c
:104158000741caf3072a17f80190ccf307414eea42
:10416800006e17f80a0017f801a043ea0543ccf3dc
:10417800072c43ea08234eea0a4e17f80c104eeab9
:10418800002ec3f3072746ea094c44ea0242c3f368
:1041980007491c0edbb2049384ea030acef30743f3
:1041a80089ea07060193cef3072386ea04000693fb
:1041b800049b4cea0b2c80ea4a004af3c01b8aeaab
:1041c800070a8aea460a5f4046f3c016049b89ea52
:1041d800040406f01b0663408aea060accf30726a5
:1041e800059689ea0709009e83ea470347f3c01743
:1041f8000bf01b0b07f01b0780ea0b0089ea440948
:104208007b4044f3c01456f8107c069e04f01b044f
:10421800c0b242ea0122784089ea04094fea1e6bdb
:10422800c2f30748c2f3072580ea09695ffa8efee0
:104238000198cdf808e088ea0507110e4fea1c64da
:10424800d2b2ccf3074e5ffa8afa5ffa8cfccdf84b
:104258000ce0cdf810c080ea060e81ea020c87ea6d
:104268000100dbb289ea0a4a80ea4c008aea032a9a
:104278004cf3c0138cea050c8cea470c554047f305
:10428800c01788ea010103f01b0388ea050807f054
:104298001b0788ea410858404a408cea070c059bee
:1042a800039f029e41f3c01101f01b0188ea01013e
:1042b80082ea450287ea030845f3c015009b05f02a
:1042c8001b056a4053f80c3c049d8bea0606d2b2e3
:1042d800c0b2584007928eea0b0346f3c01280ea38
:1042e800016183ea46035ffa8cfc02f01b02019825
:1042f80081ea0c495a400299069b80ea0b075e4006
:1043080081ea03000199d3b286ea4e064ef3c01e35
:1043180081ea000b01930299039a0ef01b03654092
:10432800734087ea010e029345f3c01188ea04033b
:1043380083ea450301f01b01049e4b4005998bea73
:10434800470b47f3c01707f01b074d407140544017
:104358008bea070b82ea010787ea440784ea060c1e
:1043680044f3c01404f01b047c40009f019e57f8de
:10437800082c57f8047c564032469df8086082eabb
:104388000b6282ea0646dbb2009a7b4085ea480562
:1043980083ea046448f3c01802f11003079a0093f3
:1043a8008eea400e8cea410c08f01b0840f3c0105e
:1043b80041f3c01100f01b0085ea080501f01b015c
:1043c80089ea0229089a8eea0000edb28cea010c0b
:1043d800c0b25ffa8cfc84ea05449a4286ea002758
:1043e80084ea0c2c7ff483ae0a9b1e4e0b9d03f1ce
:1043f8008053013b1b015ffa8cf4e858e918355dde
:10440800d1f804805ffa8af2454050463346b45cde
:10441800000e5ffa89f6185c13f806b01e4688eaa3
:104428000403fcb2d1e9022116f804e08eea010e79
:104438004fea19618bea020b745c83ea04634fea62
:104448001c64c9f30741345d3a0e8eea046ec7f363
:104458000744c7f3072785ea006516f80780705cec
:1044680002e000bf94680101b25c345dccf30747f9
:10447800c9f30729ccf3072c16f809108bea026256
:1044880085ea004016f807b016f80c70134ecaf308
:104498000745caf3072a755d16f80ac083ea04437c
:1044a80082ea0b4b8eea054e83ea072780ea08204a
:1044b800099b8bea0c2b8eea012100ba3fba9bfac2
:1044c8008bfb09ba18605f60c3f808b0d960002098
:1044d8000db0bde8f08f6ff0e100f9e794680101d5
:1044e8002de9f04fd0f8f0305b085c1e062c8bb03d
:1044f80000f2cb8107460992d7e90252d1f800a011
:10450800d1f804c0d1f80890c8680392d7e900161a
:104518009afa8afa07f110029cfa8cfc8aea010ad4
:104528000399089299fa89f902eb431200ba8ceac6
:1045380006085b00d64c069289ea0509484007f14f
:10454800200b0793cdf80c80039b5bf8105c5bf89d
:10455800041c54fa83f204eb1a6392f8007193f87e
:1045680000617d4085ea0665c9f3072754fa8af693
:10457800274454fa89fe96f8006197f80071049769
:104588005be90323c0f3074c9ef800814e4054fac0
:1045980080f704eb1061a444c0f3072020449cf882
:1045a80000c190f800e197f80071049891f80011a3
:1045b80088ea0208039a85ea0c4504eb12625f4018
:1045c80085ea0020caf3074ccaf307230490a444e1
:1045d800039892f800219cf800a1234488ea02621b
:1045e80093f800c1c0f3074804eb1963c9f30749fe
:1045f800a044a144c0f3072093f8003198f8005173
:1046080099f80091204486ea016190f800810498a5
:1046180087ea0363032683ea054781ea094582eab4
:104628000a4a85ea082501230222002100968aea1f
:104638000e2987ea0c270595fff7f2fc049d022353
:10464800804600932846314600230122fff7e8fc04
:1046580001234fea004c00932846334600220221ea
:104668008cea0868fff7dcfc0023824600932846a2
:10467800324602230121fff7d3fc012388ea000810
:104688000222484600210096fff7cafc022305468d
:1046980000934846314600230122fff7c1fc01235d
:1046a8004fea004c009348463346002202218cea28
:1046b8000565fff7b5fc002300933246022301216c
:1046c80088ea0a2a80464846fff7aafc454085ea58
:1046d8000825012338460222002100960395fff79a
:1046e8009ffc0223054600933846314600230122e9
:1046f800fff796fc012300934fea004933463846fa
:1047080000220221fff78cfc002389ea0569009347
:1047180005463246384602230121fff781fcddf8c1
:104728001480009689ea00090123022200214046ec
:10473800fff776fc0223009331460023012289ea21
:10474800052905464046fff76bfc01230704009343
:104758000022334602214046fff762fc002387ea25
:104768000565009307460223324640460121fff7bc
:1047780057fc069b0bf1100b68405b4580ea07204d
:104788007ff4e2ae079bddf80c80089903f18053b3
:10479800013b1b0154fa89f5ca1854fa88f6c9581e
:1047a80096f80071536895f80061734054fa8af6d8
:1047b800d2e9025204eb186e96f800619ef800e107
:1047c80054fa80fc7940564004eb1a67c0f307425c
:1047d80022449cf800c197f8007183ea0e6304eb49
:1047e800106ec0f3072020448cea050592f800c13a
:1047f80081ea0761caf30722caf3074781ea0c4135
:104808009ef800a190f800e1c9f3072c04eb1960a9
:10481800c9f30749a14490f8000186ea0a6699f8a5
:1048280000a1c8f30749274485ea0065a144c8f3f5
:1048380007202244a444044497f8007199f8000121
:1048480092f800219cf800c194f8004183ea0743dc
:1048580085ea004586ea0a4683ea0e2e81ea0c2c90
:10486800099b85ea022286ea04269cfa8cfc9efab9
:104878008efe12ba36bac3f800c0c3f804e09a60d4
:10488800de6000200bb0bde8f08f6ff0e100f9e7c3
:10489800946801012de9f04f034689b04ff0000eee
:1048a800cde90610d0e90047de688068cdf80ce055
:1048b800a1f108030493f246f346049bd3e90215d9
:1048c800083305934ff0400c029100bf00f001033c
:1048d800009300230193dde90089029a0399d8f136
:1048e80000084feae57369eb4909921809f0614835
:1048f800029203ea070903ea040281ea02016d4110
:10490800e20789ea0b0b640803ea0009bcf1010c11
:1049180003ea06034fea500044eac77440eac67047
:10492800039189ea0e0e88ea570783ea0a0a42eadf
:104938005606cbd1069b049a934207d1079bc3e93d
:10494800001bc3e902ea09b0bde8f08f059b049398
:10495800b3e700bf2de9f041d0f834710237804643
:104968000c4615464fea131610d1beb104eb0616d5
:1049780001e0b44212d0224629464046fff784fba4
:10498800103410350028f4d0bde8f08104f0b2f9f5
:104998006ff487739842e8d0bde8f0810020bde845
:1049a800f08100bf0f2af8b5164607460d461c468b
:1049b8001bd900bf44ea0503990719d1231f291ff2
:1049c80004f10c0c53f8042f51f8040f9c4582eaab
:1049d80000021a60f6d1224621463846fff754fbfa
:1049e8001035103e18b90f2ee4d87eb93046f8bd00
:1049f800631e691e04f10f0c13f8012f11f8010f43
:104a0800634582ea00021a70f6d1e4e746ea040236
:104a18002a439207234613d1b0080ad0043d04eb79
:104a28008000196855f8042f4a4043f8042b98422f
:104a3800f7d1384622462146bde8f840fff724bba7
:104a4800631e013d1e4400bf13f8012f15f8011f16
:104a5800b34282ea01021a70f6d1eae72de9f0477b
:104a6800b2f57f4f1f785e78c2f30725d4b218d20b
:104a78006f4066400d2a1f705e7055d85ab15c1c95
:104a88000139224414f8015f11f8016fa24285ea46
:104a980006052570f6d11a461946bde8f047fff716
:104aa800f3baff4393f8048093f802e093f803c045
:104ab8001f705f7985ea08057c4086f0fe068eea5d
:104ac800126e8cea124c5e7083f802e083f803c021
:104ad8001d715c710a274ff0060808f1ff344d1e5e
:104ae8001c44844605eb070e15f8010f14f8016ff6
:104af800ae4586ea00062670f6d10d461446604695
:104b08001a46194666469946fff7befa20b9a4f137
:104b1800100212eb080201d1bde8f0874b46e919f3
:104b28003046bde8f0473de70e274ff00208d4e7ce
:104b3800e0b100f1f80379b170b4ca680e684d6845
:104b48008c68c0f8f8605d609c60da600023c0f88b
:104b5800843170bc18467047c0f8f81059609960e5
:104b6800d9600023c0f88431184670476ff0ac0054
:104b7800704700bf2de9f04f1e4685b0d0f834319c
:104b8800ddf83c90054602330e980090884617469b
:104b98002cd0202a25d805f5c47017f0b1fdb9f13d
:104ba800000f27d1bc08a21dc5e93c270023c5f882
:104bb800843141463a46284617f0a2fd4cb1291fd8
:104bc800002200bf51f8043f01321bbaa2420b6019
:104bd800f8d3182f16d0202f00f0c180102f00f026
:104be8008b806ff0ac0005b0bde8f08fb9f1000f15
:104bf80000f00981102f00f01081182fd2d0202f3b
:104c0800d0d0eee7904f05f1a808a7f50173294623
:104c18004ff08074a946b44607e00a6954406040e2
:104c2800c1e90a4057f8044b183148690d68020e6b
:104c3800c6b29a5c13f806e0c0f307466a4082eaf7
:104c48000e2213f806e04d68c0f3072682ea0e62ca
:104c58009e5d82ea064262408a616a408d68cc683d
:104c680082ea050674404145c1e907264c62d4d161
:104c780066464d46009b0021012b8df80c108df8df
:104c88000d108df80e108df80f1006d031462846fd
:104c980005b0bde8f04ffff74bbfd5f8f0309f00e7
:104ca8001ad005eb03132a461c68106814605c6868
:104cb8001860506854609c6858609068946004312b
:104cc8009860d868d468d060781a8142dc6002f1b4
:104cd8001002a3f11003e7d30023314628468df8cc
:104ce8000c308df80d308df80e308df80f3005b082
:104cf800bde8f04ffff71cbf54484ff0807205f134
:104d0800900ea0f500732c469446b046aa4602e0e1
:104d180050f804cf1034e168276865680a0eceb2ef
:104d28009a5c13f806905740c1f3074687ea0922b0
:104d3800c1f307279e5ddf5d82ea066282ea0742c9
:104d480082ea0c02a76822616a405740794074459c
:104d58006261c4e90671dbd1464655468ae7dff849
:104d6800e8c001954ff0807705f1c00eacf50173ee
:104d780029463c46b0461ae00a6913f80b7013f846
:104d88000aa013f809909e5d4c69574087ea0a67a4
:104d980087ea094787ea06278a690f637c406240e9
:104da8005040c1e90e204c635cf8044b2031c869bf
:104db8000a684d68070ec6b2df5d13f806907a40a0
:104dc800c0f3074682ea0927c0f307229e5d9a5c72
:104dd80087ea066787ea02476740d1e902420f621d
:104de8006f407c40624071455ffa82fb4fea126a6d
:104df800c2f30749c2f30726c1e90974ca62bbd1e5
:104e08004646019d36e79408a31df02ac5f884910b
:104e1800c5e93c327ff6cdaee3e600220a23c5f8a9
:104e2800f470c5f88421c5f8f030d8f80010d8f827
:104e38000420d8f80830d8f80c00e86029606a60c7
:104e4800ab600424bbe600bf986a0101946a0101c3
:104e580030b583b048b1f02a07d8069d0124cde9c2
:104e68000054fff787fe03b030bd6ff0ac00fae7df
:104e780030b583b048b1f02a07d8069d0024cde9a3
:104e88000054fff777fe03b030bd6ff0ac00fae7cf
:104e980013460a461946fff7f7b800bf13460a46f5
:104ea8001946fff71dbb00bf2de9f041002855d07a
:104eb800002953d0002a51d0b3b3d0f8344102347a
:104ec8000d46164607464fea131830d1b8f1000fc1
:104ed8002ad006eb081807f1f80400bf44ea0603d5
:104ee8009b072cd107f1f403311f07f5827c00bf23
:104ef80053f8042f51f8040f9c4582ea00021a6007
:104f0800f6d1224621463846fff7bef868b9103672
:104f180021686268a368e068e860464529606a60bd
:104f2800ab6005f11005d9d10020bde8f08103f090
:104f3800fbfd6ff487739842c8d0bde8f08107f194
:104f4800f703711e07f2071c13f8012f11f8010f60
:104f5800634582ea00021a70f6d1d2e76ff0ac001e
:104f6800e3e700bf002865d0002963d0002a61d09c
:104f7800002b62d013f00f0f5cd12de9f041d0f86f
:104f8800344102340e461546984607463bd15fea3f
:104f9800181835d005eb081807f5847429686a686d
:104fa800e868ab68a360e060216062602146324631
:104fb8003846fff795fa20bb07f1f80343ea0602e3
:104fc800920728d1321f07f1f40006f10c0e00bf3a
:104fd80052f8041f50f804cf724581ea0c011160a1
:104fe800f6d11035d4f800c06068a168e268c7f847
:104ff800f8c0454506f1100658609960da60cdd1d1
:105008000020bde8f08103f0dbfd6ff48773984260
:10501800bdd0bde8f081721e07f1f70006f10f0e52
:1050280012f8011f10f801cf724581ea0c011170c6
:10503800f6d1d6e76ff0ac0070470020704700bf8c
:10504800002800f01d81002900f01a81002a00f0d4
:1050580017812de9f04fd0f83441023485b08946e4
:1050680015461f4680465cd1d8f8843108f5847a05
:10507800c3f110025244d34683b1002f5ad015f819
:10508800013b12f8011b4b4009f8013bd8f8843169
:10509800013b013fc8f88431002beed14d4500f0ab
:1050a80090800f2f47d93e09701e08f1f804ac46ce
:1050b800b646494662682568a368e668ce604a60d5
:1050c8000d608b605246103112f8013d0133dbb29e
:1050d80013700bb9a242f7d110f1ff30ead276462d
:1050e8003401654623464a4649464046fff732fca6
:1050f80045ea09039b0753d1a9f10403e618291fc0
:1051080053f8042f51f8040f9e4282ea00021a60f5
:10511800f6d12544a1443f1bbfb9002005b0bde826
:10512800f08f03f09bfd6ff4877398429cd005b015
:10513800bde8f08f00276e46002300bf06f8013b4c
:1051480004aa9642fad1002fe7d008f1f8042146c4
:1051580052464046fef798ff002840f0898000bf7d
:105168001af8013d0133dbb28af800300bb9544517
:10517800f6d107f5847110234144c8f8843100bf83
:105188001bf8012b15f8013b534009f8013bd8f8ef
:1051980084318b4503f1ff33c8f88431f0d1bce783
:1051a80009f1ff331e19691e13f8012f11f8010fb9
:1051b800b34282ea00021a70f6d12544a1443f1b8b
:1051c800aae70f2f5fd90c3508f1f8046e4632466e
:1051d80021464046fef758ff00283fd1a5f10c0ca8
:1051e8001cf0030f324629d1a5f11001106851f8bf
:1051f800043f4340a94242f8043bf7d1b646bee813
:105208000f00ccf80820ccf80000ccf80410ccf83b
:105218000c30524612f8013d0133dbb213700bb962
:10522800a242f7d1103f00230f2f05f10409c8f857
:10523800843105f11005cad84d467de70df1ff33dd
:10524800a5f10d010df10f0e13f8012f11f8010f43
:10525800734582ea00021a70f6d1cfe7002300bf37
:1052680006f8013b04aa9642fad105b0bde8f08fd2
:105278006b46002203f8012b04a98b42fad156e7aa
:105288006ff0ac007047a9466e4655e7f0b522f0be
:105298000803102b87b001d0202a26d128b3002676
:1052a80015460122cde9006202ab2a46cde9026625
:1052b800cde904660f460446fff75cfc064660b17c
:1052c800d4f83431023305d02a46394604f5c4707f
:1052d80017f016fa304607b0f0bd02a904f592722d
:1052e8002046fef7d1fe0646eae76ff0ac06f1e786
:1052f8002de9f04f002691b00027cde90467cde9ec
:105308000667002800f08f801d4600f592730c4652
:10531800d0f82401596892469a68db6808ae0fc62f
:10532800dde909120b9b00ba09ba12ba1bbacde91a
:105338000810cde90a32baf1000f77d15646544623
:10534800d04657460df110091a9b002b49d0002d65
:1053580047d003f00f0300931a9b5fea131b00f07a
:1053680010810cabcdf804a0bc4605eb0b1b4746df
:105378009a4603e0dde9047cdde90664286869688b
:10538800aa68eb68d646aee80f00dde90c01dde956
:105398000e2391fa81fe90fa80f812ba1bba8ceab1
:1053a800080c87ea0e0754405e40103508a94846a5
:1053b800cdf814c0cdf834800497cdf830e00794c8
:1053c8000f9206960e93fff765faab45d2d1dde949
:1053d8000487dde90664ddf804a0009b002b40f09b
:1053e8009f801a9a88eaca0386eac20684ea527437
:1053f80008a9484687ea5a77cde90664cde9043713
:10540800fff748fadde90440dde9062326ba05bac4
:1054180014ba1bba4946dde91b02cde90456cde9a9
:10542800063417f06df911b0bde8f08f002c00f0cc
:105438009b800af00f035fea1a16009300f09a8027
:10544800002704eb06130caacde901a50393be4679
:105458003e460df1100998463d46924603e0dde9c7
:105468000456dde9067e20686168a268e368d446d0
:10547800ace80f00dde90c01dde90e2391fa81fcaf
:1054880090fa80fb12ba1bba85ea0c058eea020e66
:105498005f40103486ea0b0608a948460596cdf801
:1054a80034b00495cdf830c0cdf81ce00f920697c3
:1054b8000e93fff7eff9a045d1d1dde901a5dde9ac
:1054c8000487dde90664009b002b3ff43daf0cab7d
:1054d8004ff0000c009acdf830c0cdf834c00399d5
:1054e8000093c3e902cc184617f00af9dde90c016c
:1054f800dde90e2300ba09ba12ba1bba474081ea9d
:10550800080854405e4008a94846cde90487cde91b
:105518000664fff7bff9dde90487dde9066413e7f0
:105528001a46594600230ca8cde90c33cde90e33b1
:1055380017f0e6f8dde90c01dde90e2300ba09ba37
:1055480012ba1bba474088ea010554405e4008a9d0
:105558004846cde90457cde90664fff79bf9dde934
:105568000487dde906643ce72646a04627460df198
:105578001009e9e60394b046344637460df11009a0
:10558800a1e7ab4629e700bf2de9f04f95b0dde96b
:105598001eb70793002800f07981002f00f076816c
:1055a800219d0c3d042d00f27181d0f83451023553
:1055b80088461446814613d0239d0595229d04955f
:1055c800219d0395209dcdf800b0cde9017503f02c
:1055d80063f96ff48773984202d015b0bde8f08f75
:1055e800079b0c2f4fea131a00f0bd8000221021f0
:1055f80008ae00975b46cde9016148461146fff7c2
:1056080077fe96e80f000cafa04587e80f0000f082
:10561800c380079b0f2b40f2bf80baf1000f00f048
:1056280038810af1010a4fea0a1a08eb0a0e08f152
:10563800100c0df12c0b3a4612f8013d0133dbb288
:1056480013700bb95a45f7d135460fcdacf110059b
:105658004cf8100c0cf1100cf4456960aa60eb6072
:10566800e9d1aaf1100a08eb0a05079b23f00f0af3
:10567800b8f1000f05d05346424641464846fff769
:1056880069f944ea08039a0740f0d08008eb0a0c4d
:10569800acf1040ca8f10403211f00bf53f8042f38
:1056a80051f8040f9c4582ea00021a60f6d1a24420
:1056b800079b13f00f0429d03a460ba912f8013db5
:1056c8000133dbb213700bb99142f7d1314610aafe
:1056d8004846fef7d9fc00287ff47faf10ab43eab9
:1056e80004022a4351460a43900740f0b080a408b8
:1056f8000cd0043d0aeb840451f8040b53f8042b36
:105708008c4282ea000245f8042ff5d1209b33b37e
:10571800219b0293209b0193079b0093dde92212b2
:1057280048464346fff7e4fd3946484610aafef7c7
:10573800abfc00287ff451afdde920321a43920711
:1057480010a940f09480219a22f003041c441a689e
:1057580051f8040b424043f8042b9c42f7d1002037
:1057680015b0bde8f08f08aedbf80000dbf80410d8
:10577800dbf80820334607c300230122adf82c309c
:105788008df82e308df82f2096e80f000cafa0452d
:1057980087e80f007ff43daf4546baf1000f7ad095
:1057a80004eb0a1a0df12c0b3a4600bf12f8013d22
:1057b8000133dbb213700bb95a45f7d110aa314641
:1057c8004846fef761fc00287ff407af45ea04036a
:1057d8009b0710a914d1231f281f04f10c0c00bf2c
:1057e80053f8042f51f804eb634582ea0e0240f89f
:1057f800042ff5d11034544505f11005d4d157e7dd
:105808000df13f03601e691e0df14f0c13f8012fb7
:1058180010f801ef634582ea0e0201f8012ff5d175
:105828001034544505f11005bed141e70af1ff3c9b
:10583800c44408f1ff33611e13f8012f11f8010f5a
:10584800634582ea00021a70f6d1a24430e7013caf
:105858005444013d0af1ff3a1af8011f13f8012bcd
:10586800a24582ea010205f8012ff5d14ee7209bf7
:10587800219a013b9a1800bf13f8014f11f8010b48
:105888009a4280ea04001870f6d168e76ff0ac001d
:10589800a3e64546e9e6a2460ae700bf2de9f04f30
:1058a8009bb09846dde9249a279b002800f00681e2
:1058b800b9f1000f00f002810c4615460746b8f111
:1058c800000f40f0f780269a002a00f0f7805a1e51
:1058d8000f2a089200f2f280baf1000f00f0ee8071
:1058e800d7f83421023218d0299a0592289acdf88f
:1058f8000090cde90332269b2a46cde901a3214633
:105908004346384603f01af86ff487739842064600
:1059180003d030461bb0bde8f08fbaf10c0f00f091
:10592800d0800aab102100220793cde900a3029191
:105938004b4611463846fff7dbfc1023029312aba7
:10594800dde92812019338462b46cdf80080fff791
:10595800cffc16aa07993846fef796fb064600289c
:10596800d7d1129a16981399179b424012921898f9
:10597800149a4b4050401393159a199ba54282eafa
:105988000302cde914024fea181300f0ac80b8f115
:105998000f0f40f2a880002b00f010811b0104f1ca
:1059a800100e09930eeb030b0df1340aa4460df10a
:1059b80038094a4612f8013d0133dbb213700bb9be
:1059c8009245f7d1079c0fccaef110044ef8100c9d
:1059d8000ef1100ef3456160a260e360e9d1099b06
:1059e80063446446994628f00f0b2cb15b46224667
:1059f80021463846fef7aeff45ea04039b0740f010
:105a0800c080043c0beb04002a1f00bf54f8043f7d
:105a180052f8041fa04283ea01032360f6d1ab4485
:105a28004c4618f00f082dd00df138094a460da93b
:105a380012f8013d0133dbb213700bb99142f7d173
:105a480038464a460799fef71ffb002840f0948025
:105a580048ea0b02920759464b4640f0a1805fea9c
:105a6800980518bf0beb850507d01a6851f8040b89
:105a780042408d4243f8042bf7d14246494620461e
:105a880016f03efe269a089b1344184612a9531e88
:105a980013f8014f11f8012b984282ea040246eaf2
:105aa8000206f5d17642f61726f0b30630461bb04b
:105ab800bde8f08f12b100297ff405af6ff0ac0696
:105ac80027e7d9f80820d9f80000d9f804100aab5c
:105ad800079307c300230122adf834308df8363020
:105ae8008df8372029e7ab46002b9ad005eb031b2e
:105af8000df1340a0df138094a4600bf12f8013d8c
:105b08000133dbb213700bb95245f7d14a460799f6
:105b18003846fef7b9fa78bb44ea050398074946c0
:105b280014d12a1f201f05f10c0c00bf52f8043fa6
:105b380051f804eb624583ea0e0340f8043ff5d1bf
:105b480010355d4504f11004d6d16ae70df137022e
:105b5800681e611e0df1470c12f8013f10f801efa5
:105b6800624583ea0e0301f8013ff5d110355d4522
:105b780004f11004c0d154e7064630461bb0bde816
:105b8800f08f013c04eb0b006a1e00bf14f8013fc4
:105b980012f8011fa04283ea01032370f6d13ee701
:105ba80008f1ff3058440bf1ff3b1a781bf8011f2e
:105bb8004a40584503f8012bf7d15ee7a14612e7a2
:105bc800d0b1c9b138b522f00403082b04d0102a8b
:105bd80002d06ff0ac0038bd04461546f83016f018
:105be8008ffdb5f10c0318bf4ff0ff330020c4e957
:105bf8004735c4f8180138bd6ff0ac00704700bfd6
:105c080070b5049e30b12eb121f00404082c04d0e4
:105c1800102902d06ff0ac0070bdcab1042bf9d1c5
:105c28001268c0f8f82000f1f8020d460446d118b1
:105c38003046ea1a04f08cfe0028edd1b5f10c03c9
:105c480018bf4ff0ff33c4f81801c4e9473570bdd9
:105c580000f1f802002be8d0dce700bf2de9f043a3
:105c680087b00f9c40b10bb132b129b10e9d1db167
:105c7800d0f82051a54204d06ff0ac0007b0bde8c1
:105c8800f083129d002d45d0d0f818510135c0f889
:105c9800185135b9d0f81c510135c0f81c51002de8
:105ca8003cd000f1f8080546174689462246414689
:105cb8000e981e4616f024fd139b0593129b049321
:105cc800119b0393109bcdf80080cde901433a4620
:105cd800334649462846fff757fc0028ced1621eb6
:105ce800ccd418f802300133dbb208f80230002bac
:105cf800c4d104f1f7026ff0f8012a44491b06e009
:105d080012f8013d0133dbb21370002bb6d1d1423a
:105d1800f6d5b3e7139d002daed1b5e70048ade742
:105d2800fcfeffff2de9f043f5b0dde97e56809fcc
:105d38007c9c079748b342b324b335b32eb3079f6f
:105d48001fb39946904600230a466ff0010c01469e
:105d580009a8cdf858c173935793fff797fab8b1cc
:105d68006baa73ac002100bf02f8011ba242fbd151
:105d780009aa002102f8011b74ab9a42fad175b046
:105d8800bde8f0837d9f002fd7d06ff0ac00f6e719
:105d9800079b009302460346494609a8fff730ffd0
:105da8000028ddd17d9b0246cde904430146034628
:105db800cde90256cde9008909a8fff74fffcfe7e3
:105dc8002de9f041f2b0dde97a47789d48b342b356
:105dd80025b334b37e1e0f2e23d8984616460023cb
:105de8000a466ff0010c014607a8cdf850c171931f
:105df8005593fff74bfab8b169aa71ac002100bfff
:105e080002f8011ba242fbd107aa002102f8011bdc
:105e180072ab9a42fad172b0bde8f081799e002e39
:105e2800d7d06ff0ac00f6e7799b0246cde9045372
:105e380001460346cde90247cde9006807a8fff708
:105e48002dfdd9e710b109b1fff720ba6ff0ac000a
:105e5800704700bf90b130b587b01c460a9d0091cd
:105e6800cde904450c9c03940b9c0023cde9012447
:105e780019461a46fff788fb07b030bd6ff0ac0033
:105e8800704700bf22f00803102b01d0202a0ad146
:105e980048b110b5002382b00124cde90034fef7e3
:105ea80069fe02b010bd6ff0ac007047102809d829
:105eb800064b23fa00f010f0010f14bf00206ff01a
:105ec800ac0070476ff0ac00704700bf5055010040
:105ed8002de9f04f91b0dde91a5406911d9e002876
:105ee80000f08f8093461f468146002b40f0858046
:105ef800002d00f086801c9b002b00f08280e31fa1
:105f0800062b7ed8102e7cd83046fff7cfff00280e
:105f180077d1d9f83431023317d01f9b05931e9bd4
:105f28000095cde903631c9b0699cde901435a46c8
:105f38003b46484602f054fd6ff487739842824608
:105f480003d0504611b0bde8f08f294622460025ff
:105f58000df13100e4b2cde90855cde90a5516f046
:105f6800cffb1f9ab31ec4f10e0803ebd373aa42ea
:105f78005ffa88f84fea630308ebc30314bf4022b3
:105f88002a461a44c4f10f042b46e4b28df8302097
:105f980010a8ff2179b301eac302032b27fa02f202
:105fa80028d80a400133a34200f8012df2d10cade4
:105fb800294608aa4846fef767f8824620bb1f9b79
:105fc800002b40f0bd8057b308ab3a4659464846c7
:105fd800fef7e8fc824610b308ab002203f8012b59
:105fe800ab42fbd1002200bf03f8012b10a98b4262
:105ff800fad1a6e700210a46d4e712b100297ff4b6
:1060080077af6ff0ac0a9ce7002300bf05f8013baf
:1060180010aa9542fad1504611b0bde8f08f10abe6
:10602800324608a91c981c1b16f06afb8df83080b4
:1060380010ab002203f8012da342fbd108aa294680
:106048004846fef721f8824688b108ab002200bf17
:1060580003f8012bab42fbd1002200bf03f8012b50
:1060680010a98b42fad1504611b0bde8f08f1c9ba5
:1060780008a943ea06020791910700f0898076b1e2
:106088001c9b721e1a4408a8013b00bf13f8016f3d
:1060980010f8011b934281ea06011970f6d1012319
:1060a8000f2f8df83f303bd9069b0bf10c0603f1ff
:1060b800100808aa29464846fdf7e6ff002875d1ca
:1060c800b20755d1a6f1100108aa106851f8043f8b
:1060d80043408e4242f8043bf7d10df1200cbce856
:1060e8000f00a8f1100c48f8100cccf80410ccf8ec
:1060f8000820ccf80c30414610aa00bf12f8013d28
:106108000133dbb213700bb9a242f7d1103f0f2f46
:1061180006f1040b08f1100806f11006c9d806911b
:10612800002f52d108ab002203f8012bab42fbd160
:10613800002200bf03f8012b10a98b42fad100e717
:106148001a461e9908ab4846fef788fc8246002886
:106158003ff439af08ab002203f8012bab42fbd167
:10616800002200bf03f8012b10a98b42fad1e8e600
:106178000df11f03a6f10d010df12f0c13f8012fde
:1061880011f8010f9c4582ea00021a70f6d1a4e7c3
:10619800b60884d003eb860608a91a6851f8040be0
:1061a800424043f8042bb342f7d178e708ab00220a
:1061b80003f8012bab42fbd1002200bf03f8012bef
:1061c80010a98b42fad18246bbe6484608aa29465e
:1061d800fdf75aff78b108ab002200bf03f8012b86
:1061e800ab42fbd1002200bf03f8012b10a98b4260
:1061f800fad18246a5e647ea0b039b075a4612d115
:10620800b8080ad007990beb80000b6852f8044bca
:106218006340824241f8043bf7d13a46069808a900
:1062280016f06efa7ee7791e079a59440bf1ff3b88
:1062380013781bf8010f4340594502f8013bf7d189
:10624800ebe700bf2de9f04f95b0cde90631dde968
:106258001e54002800f0c48092468146002b40f06e
:10626800bb80002d00f0bc80209b002b00f0b88084
:10627800e31f062b00f2b480219b102b00f2b080a4
:106288001846fff713fe002840f0aa80d9f83431e9
:10629800023313d0239b0593229b0493219b0393e2
:1062a800209b0095cde901435246069b0799484635
:1062b80002f0e8fb6ff4877398427ad129462246a8
:1062c8000025e4b20df14100cde90c55cde90e559c
:1062d80016f016fac4f10e03dbb2c4f10f04e1b2f2
:1062e80008930df140088df8403014ab09912a4607
:1062f8005c1acdf828809b4603f8012da342fbd1f8
:10630800069f01230f2f8df84f307dd9079b0af187
:106318000c0503f110060caa41464846fdf7b4fee9
:10632800002860d1a8070caa46d1a5f11001106871
:1063380051f8043f4340a94242f8043bf7d10df11c
:10634800300cbce80f00a6f1100c46f8100cccf885
:106358000410ccf80c30ccf808203346594600bf5e
:1063680011f8012d0132d2b20a700ab9a142f7d14f
:10637800103f0f2f05f1040a06f1100605f110056c
:10638800c9d80caa414648460b93fdf77dfe0b9be6
:10639800002800f0b9800cab002200bf03f8012be5
:1063a8004345fbd1002200bf03f8012b14a98b42ff
:1063b800fad115b0bde8f08f0df12f03a5f10d014d
:1063c8000df13f0c13f8012f11f8010f634582ea14
:1063d80000021a70f6d1b2e712b100297ff441af7a
:1063e8006ff0ac00e5e70cab002200bf03f8012b0f
:1063f8004345fbd1002200bf03f8012b14a98b42af
:10640800fad115b0bde8f08f069b002b40f0238130
:106418005b46002203f8012da342fbd10caa41469a
:106428004846fdf731fe00284ad1219b239a099d51
:10643800023b002a03ebd373089a4fea630302eb8b
:10644800c30314bf4022002213448df8403059463c
:10645800ff2212b1032841d9002213460130a84275
:1064680001f8013df5d10caa41464846fdf70cfe5e
:1064780000283ad1239b002b40f0a380069b002bd9
:1064880040f0b680089b8df8403000230bf8013da2
:10649800a345fbd1484642464146fdf7f5fd002895
:1064a8004ad00cab002200bf03f8012b4345fbd1b7
:1064b800002200bf03f8012b14a98b42fad178e718
:1064c8000cab002203f8012b4345fbd1002200bf8f
:1064d80003f8012b14a98b42fad16ae7069e02ea57
:1064e800c00326fa03f31340b8e70cab002200bf41
:1064f80003f8012b4345fbd1002200bf03f8012b11
:1065080014a98b42fad154e74aea070189070caa71
:10651800504647d1bd0809d00aeb8505116850f8e7
:10652800046b7140a84242f8041bf7d13a4618465a
:106538000ca916f0e5f86be7219b9a070cad6fd014
:1065480013b3219a0a990cab9c181a7811f8016bad
:10655800724003f8012b9c42f7d1209bdde9207c97
:10656800013b00245e7815f8011b9a1cd21b714070
:10657800944544ea010403f10103f3dc24b1069bca
:10658800002b60d16ff0b4000cab002203f8012b94
:106598004345fbd1002200bf03f8012b14a98b420d
:1065a800fad106e7002fc1d0781e50440af1ff3a0d
:1065b80011781af8015f6940824502f8011bf7d18a
:1065c800b4e70cabdde922124846fef747fa00288b
:1065d8003ff454af0cab002203f8012b4345fbd129
:1065e800002200bf03f8012b14a98b42fad1e0e680
:1065f8000cabdde906214846fef7d4f900283ff444
:1066080041af0cab002200bf03f8012b4345fbd17f
:10661800002200bf03f8012b14a98b42fad1c8e667
:10662800219b99080bd00cab0a9c03eb81011a68db
:1066380054f8046b724043f8042b8b42f7d1219b2a
:10664800002b8ad1a0e71a460798002116f016f900
:106658006ff0b40098e71f46079b92e638b580b103
:1066680079b1d41f062c0cd80446f830154616f01c
:1066780047f800204ff06043c4f82051c4e94603ae
:1066880038bd6ff0ac0038bd70b586b060b159b197
:10669800002a49d00a9c3cb10e9c002c47d0d0f867
:1066a80020410b9dac4204d06ff0ac05284606b0e3
:1066b80070bdd0f818410134c0f81841002c3ad008
:1066c800044600f1f8060f9805900e9804900d986e
:1066d80003900c9802900b98cde900602046fff7d4
:1066e800f7fb05460028e1d1d4f820210a98314665
:1066f80016f006f8d4f82021511ed7d4735c013364
:10670800dbb27354002bd1d1f7326ff0f801224479
:10671800091b06e012f8013d0133dbb21370002bb0
:10672800c4d1d142f6d5c1e7002bbdd1b2e70f9c49
:10673800002cb9d1b3e7d0f81c410134c0f81c4192
:10674800002cbdd16ff48275b0e700bf30b10023d3
:10675800c0f8a811c0e94d23184670476ff0ac0087
:10676800704700bfb8b1202a02d96ff08300704784
:1067780070b5c0f8a831049b044600251646c0e948
:106788004d3500f59e7015f0bbffc4f880512846c2
:10679800c4f85c6170bd6ff0ac00704708b301b31a
:1067a8002de9f843044608461f4690460e4616f063
:1067b8000df88146c0b1202816d800250246c4f835
:1067c800a881c4f834713146c4f8385104f5b07062
:1067d80015f096ffc4f85c512846c4f88091bde8ce
:1067e800f8836ff0ac0070476ff08300bde8f88362
:1067f80040b100f5c473002200f5d47003f8012bf2
:106808009842fbd1704700bfc8b1c1b1d0f8f03091
:106818000c2b08d00e2b0ed00a2b08d000230b60af
:106828006ff0ac00704718230b60002070471023ee
:106838000b600020704720230b60002070476ff02a
:10684800ac00704730b422b119b110b130bcfef7ba
:1068580081b86ff0ac0030bc704700bf2de9f04143
:1068680042b339b330b3d0f83451023506460c463a
:1068780017464fea131812d104eb0815b8f1000fa8
:1068880002d114e0ac4212d0224639463046fdf718
:1068980027fe103410370028f4d0bde8f08102f04c
:1068a80075fa6ff487739842e6d0bde8f08100204e
:1068b800bde8f0816ff0ac00efe700bf002800f002
:1068c800a380002900f0a080002a00f09d802de917
:1068d800f8439846d0f88431164600f58475c3f11c
:1068e80010020f4604462a4493b1b8f1000f78d03d
:1068f80016f8013b12f8011b4b4007f8013bd4f88e
:106908008431013b08f1ff38c4f88431002becd105
:10691800b8f10f0f88bf04f1f80938d92a4649465b
:106928002046fdf7b1fb00285cd1eb682868696850
:10693800aa68c9f80c3045ea06039b07c9f80000a5
:10694800c9f80410c9f808204ed104f58273311f24
:1069580004f58a7053f8042f51f804cf834282ea71
:106968000c021a60f6d1eb6828686968aa68fb60af
:10697800a8f110080023b8f10f0f38607960ba60e9
:1069880006f1100607f11007c4f88431c6d8b8f12b
:10699800000f26d004f1f80949462a462046fdf79b
:1069a80073fbf8b91023c4f8843128686968aa68a9
:1069b800eb68c4f80431c4f8f800b044c4f8fc101b
:1069c800c4f8002116f8013b15f8012b534007f8cd
:1069d800013bd4f88431464503f1ff33c4f88431d0
:1069e800f0d10020bde8f88304f20713711e04f209
:1069f800171000bf13f8012f11f801cf834282ea64
:106a08000c021a70f6d1aee76ff0ac00704700bf09
:106a1800002800f0a580002900f0a280002a00f0dc
:106a28009f802de9f8439846d0f88431164600f542
:106a38008474c3f110020f460546224493b1b8f19d
:106a4800000f74d016f8013b12f8011b4b4007f8f1
:106a5800013bd5f88431013b08f1ff38c5f8843192
:106a6800002becd1b8f1100f88bf05f1f80971d9e6
:106a7800224649462846fdf707fb002858d1e36817
:106a880020686168a268c9f80c3044ea06039b07cd
:106a9800c9f80000c9f80410c9f808204ad105f55a
:106aa8008273311f05f58a7053f8042f51f804cf0b
:106ab800834282ea0c021a60f6d1e36820686168b2
:106ac800a268fb60a8f110080023b8f1100f386025
:106ad8007960ba6006f1100607f11007c5f884312d
:106ae800c6d8224649462846fdf7cefa00bbe368d9
:106af80020686168a268c9f80c301023c9f8000042
:106b0800c9f80410c9f80820b044c5f8843100bf9a
:106b180016f8012b14f8011b4a4007f8012bd5f889
:106b28008421464502f1ff32c5f88421f0d10020c6
:106b3800bde8f88305f20713711e05f2171000bfb0
:106b480013f8012f11f801cf834282ea0c021a7060
:106b5800f6d1b2e7b8f1000fe9d005f1f809c0e7be
:086b68006ff0ac00704700bfa4
:020000040000fa
:020000040100f9
:106b70002de9f041424c05460df09efb23680133a0
:106b800023606368002b41d0d4f8d830e96a002b29
:106b900036d004f1080601eb81029200a71806eb3b
:106ba000020cfa68d7f808e09368eb609068aa6076
:106bb0002b1d4360d4f8e0609360d4f8dc20c5f866
:106bc00014c001230ef101008b403343b860561c02
:106bd000c4f8e030c4f8dc600df07efbd4f8d830a7
:106be00063b16268eb6ad26a9a4207d2254b4ff0d2
:106bf00080521a60bff34f8fbff36f8fbde8f081f3
:106c00006368db6a8b4298bf6560c2e76560236892
:106c1000012b03d0e96a04f10806bce704f1080679
:106c2000304613f021fd04f11c0013f01dfd04f1aa
:106c3000300013f019fd04f1440013f015fd04f1c8
:106c40006c0804f1580013f00ffd04f18007404672
:106c500013f00afd384613f007fd04f1940013f019
:106c600003fd04f1a80013f0fffc04f1bc0013f0d5
:106c7000fbfcc4f8d080e96ac4f8d4708be700bf8d
:106c800058bb002004ed00e038b5104cd4f8e430d7
:106c9000dbb10df011fbd4f8b430dd68281d13f022
:106ca0001dfd2368013b2360d4f8e430013bc4f8a8
:106cb000e4300df011fb286b0ef0aeff28460ef00d
:106cc000abffd4f8e430002be3d138bd58bb002033
:106cd0002de9f843284cd4f8e850d4f8d070d4f813
:106ce000d480626863684ff0000c064682f851c099
:106cf000181d894613f0f2fc48b96268d4f8e030f8
:106d0000d16a01228a4023ea0203c4f8e030731cee
:106d100016d063686168ad195d600bd238460431e6
:106d200013f0c2fcd4f8ec30ab4288bfc4f8ec508e
:106d3000bde8f88340460431bde8f84313f0b4bc25
:106d4000b9f1000fe5d0d4f8c03060686268996886
:106d50008360d16060689d686168d4f8bc20666813
:106d6000043068600431013204489960c4f8bc20e2
:106d70007061bde8f88300bf58bb002014bc002040
:106d80000b4bd3f8e020012a02d95b680020704742
:106d90005a68d06a18b99a68012a02d97047002047
:106da0007047d3f8ec00d3f8e830c01a704700bf42
:106db00058bb0020034bd3f8d020d2681268c3f828
:106dc000ec20704758bb00202de9f843950007469a
:106dd00028460e4698460ef0a3fe002844d0814671
:106de00054200ef09dfe0446002841d0542200217c
:106df00015f048fd2a46c4f830904846a52115f004
:106e000041fd236b043d1d4425f0070576b1731e3b
:106e100004f133010f3600bf13f8012f01f8012fe1
:106e20000ab1b342f8d1002384f84330089e042eff
:106e300028bf0426e6626664201d13f021fcc6f11b
:106e4000050604f1180013f01bfca66124616462be
:106e50004246394628460df001fa099b206003b1ed
:106e60001c602046bde8f88304462046bde8f88350
:106e700048460ef0d1fe2046bde8f88330b583b019
:106e8000dde90654cde90054fff79eff20b1fff77e
:106e90006ffe012003b030bd4ff0ff3003b030bdb6
:106ea00070b50546304c0df007fa002d50d02e1d60
:106eb000304613f013fc30b9ea6a02eb820304ebac
:106ec00083039b6863b3ab6a1bb105f1180013f031
:106ed00005fcd4f8dc3062680133aa42c4f8dc3027
:106ee000d4f8d83026d02368013b2360d4f8d030c2
:106ef0001b6883b1fff75eff0df0eef9286b0ef013
:106f00008bfe28460ef088fed4f8d83013b16368a3
:106f1000ab421fd070bd4ff0ff33c4f8ec30ebe74d
:106f2000d4f8e030012101fa02f223ea0202c4f8a7
:106f3000e020c8e7002bd6d031460c4813f0a4fb64
:106f4000d4f8e4300133c4f8e4300df0c5f9dbe7e0
:106f50006568ace7064b4ff080521a60bff34f8f65
:106f6000bff36f8f70bd00bf58bb002000bc002076
:106f700004ed00e02de9f8431b4c636883421fd009
:106f800005460df099f9af6ad4f8d0806e69d4f84f
:106f9000d4900df0a1f904f194039f4213d046451b
:106fa00016d04e4514d004f1bc039e420ed0a83436
:106fb000a64217d0002e14bf01200420bde8f8839c
:106fc0000020bde8f8830120bde8f883ab6a13b167
:106fd0000220bde8f88395f85030012b0cbf022049
:106fe0000320eee70420ece758bb002010b5044670
:106ff0000df062f924b1e46a0df06ef9204610bd7f
:10700000034b5c68e46a0df067f9204610bd00bfd1
:1070100058bb0020eff311834ff0200282f3118858
:10702000bff36f8fbff34f8f18b1c06a83f311881e
:107030007047034a5068c06a83f31188704700bfe5
:1070400058bb002010b504460df036f924b1646c2d
:107050000df042f9204610bd034b5c68646c0df0e6
:107060003bf9204610bd00bf58bb0020eff3118351
:107070004ff0200282f31188bff36f8fbff34f8f61
:1070800018b1406c83f311887047034a5068406c14
:1070900083f31188704700bf58bb002004292de9f5
:1070a000f84328bf042104460d460df005f9002cd5
:1070b00039d0636cab4226d0dff8dc8027d3d8f818
:1070c00004703f1bb7fa87f77f09e66ab34201d025
:1070d000ae4200d2e562a3696564002ba4bfc5f18e
:1070e0000505a5612a4d626906eb860305eb83035e
:1070f0009a421bd03fb1274b4ff080521a60bff32a
:107100004f8fbff36f8fbde8f8430df0e5b8d8f8a7
:107110000420a24239d0d8f80420d76aaf422cbf4d
:1071200000270127d1e71c4b5c68c2e704f1040982
:10713000484613f0d3fa40b9d8f8e030012202faf9
:1071400006f623ea0606c8f8e060e66ad8f8e0002a
:1071500006eb8602920008eb02011544d1f80cc040
:10716000c4f808c0dcf80820e260dcf808308a685f
:10717000c3f804900123b34001320343ccf80890d4
:10718000c8f8e03065618a60b4e700279de700bf7a
:1071900060bb002004ed00e058bb0020f8b5264d90
:1071a0006b6883420cd058b104460df085f86269d3
:1071b00005f1bc039a4204d0bde8f8400df08cb84c
:1071c000f8bda36a05f194029342f5d0002bf3d1e8
:1071d00094f85030012befd0261d304613f07efa84
:1071e000e26ad5f8e0c002eb820398002f18012371
:1071f000f968a160934043ea0c03c5f8e0308b685e
:10720000e360d5f804c08b68dcf82ce0d7f808c040
:107210005e6005f10803034472450cf101008e60c5
:107220006361b860c8d9054b4ff080521a60bff354
:107230004f8fbff36f8fbfe758bb002004ed00e016
:1072400030b5174d174b184887b00024029305f14d
:10725000f003cde900434ff48072234602a98df874
:107260000c40fff7b1fdb8b1fff782fc0bf034ff23
:10727000012811d14ff0200383f31188bff36f8fe2
:10728000bff34f8f4ff0ff33c5f8ec30c5f8d8008f
:10729000c5f8e8400df016f9044b1b6807b030bd87
:1072a00058bb002049444c45c976000128c1002044
:1072b00010b50d4c0bf08afffff7f2fdd4f8f0008b
:1072c000fff7eefdfff7e0fc4ff0200383f311889a
:1072d000bff36f8fbff34f8f0023c4f8d830bde8e2
:1072e00010400cf0e7bf00bf58bb0020034ad2f8a3
:1072f000f4300133c2f8f430704700bf58bb0020af
:10730000014bd3f8e800704758bb0020014bd3f87d
:10731000e800704758bb0020014b1868704700bf59
:1073200058bb002008b134307047024b58683430e5
:10733000704700bf58bb002038b50f4cd4f8e82088
:10734000d4f8ec3002449342054605d0d4f8e83036
:107350002b44c4f8e83038bd0cf0aeffd4f8f83058
:107360000133c4f8f8300cf0b7ffd4f8e830013d31
:107370002b44c4f8e83038bd58bb00202de9f84f45
:107380005c4cd4f8f430002b40f09b80d4f8e8300b
:1073900003f10109c4f8e890b9f1000f16d1d4f84f
:1073a000d030d4f8d420c4f8d020c4f8d430d4f8e5
:1073b000fc300133c4f8fc30d4f8d0301b68002b0b
:1073c00040f08b804ff0ff33c4f8ec30d4f8ec3051
:1073d00099454ff000085ad3dff81ca1c4464ff07e
:1073e000010e4be0d4f8d030db68db685a68914579
:1073f00003f1040603f1180579d35a69d3e90201b0
:1074000057688160b7424860106808bf5160996a48
:10741000c3f814c00138106069b1d3e907024f689e
:1074200082601a6aaf42506008bf4a600a68c3f8b7
:1074300028c0013a0a60dd6ad4f8e01005eb850245
:107440009200a7180efa05f00843c4f8e000f968a6
:10745000d4f804b08868d860dbf82c00d7f808b0fe
:107460009960854288bf4ff00108886852440bf14b
:10747000010b46608e605a61c7f808b0d4f8d0306e
:107480001b68002baed14ff0ff33c4f8ec306368bb
:10749000d4f8f820db6a03eb830304eb83039b68d7
:1074a000022b28bf4ff0010842b1d4f80031002b65
:1074b00018bf4ff001084046bde8f88f14f0f4fa09
:1074c000f3e7d4f8f8304ff000080133c4f8f8308f
:1074d00014f0eafa4046bde8f88ffff76bfcd4f8e9
:1074e000ec3099454ff00008bff476afcfe7c4f811
:1074f000ec20cce758bb002060bb00202de9f04712
:10750000494c0cf0d9fed4f8f430013bc4f8f43007
:10751000d4f8f430002b6fd12268002a6cd0984642
:107520004ff0010c04f1080ed4f89420002a49d041
:10753000d4f8a030db68d9691d6a9a6a8d60186a30
:107540005668416003f118018e42116808bf55600a
:107550000139c3f8288011605d69d4f8e07068686b
:10756000d3e9021203f104098a605160d96a4845df
:1075700008bf6a6001eb81029200a6180cfa01faba
:107580004aea070a2f68f068c4f8e0a0013fd0f883
:1075900008a02f606768b568ff6ac3f80ca0d0f830
:1075a00008a0986072440135b942caf80490c0f846
:1075b00008905a61b560b7d9d4f89420c4f800c1d6
:1075c000002ab5d13bb1d4f8d0301b684bbb4ff08b
:1075d000ff33c4f8ec30d4f8f85055b1012600bfa1
:1075e000fff7ccfe08b1c4f80061013df8d1c4f842
:1075f000f850d4f800312bb900240cf06dfe204671
:10760000bde8f087094b62684ff080521a60bff303
:107610004f8fbff36f8f01240cf05efe2046bde854
:10762000f087fff7c7fbd6e758bb002004ed00e06a
:10763000144ad2f8f430013310b5c2f8f4300368bc
:10764000d2f8e84059182cbf01220022a342016061
:107650000ed972b90024fff751ff38b90a4b4ff029
:1076600080521a60bff34f8fbff36f8f204610bd5b
:107670000ab98c42eed2081b0021fff729fb012436
:10768000e9e700bf58bb002004ed00e008b540b9b1
:107690000b4b4ff080521a60bff34f8fbff36f8fc9
:1076a00008bd084ad2f8f4300133c2f8f4300021a2
:1076b000fff70efbfff722ff0028e9d008bd00bf4f
:1076c00004ed00e058bb002070b5114c114e4ff096
:1076d0008055fff7d9faa368012b04d93560bff3b1
:1076e0004f8fbff36f8f14f0ddf9fff749fb0428cc
:1076f000efd9d4f8f4300133c4f8f430fff740fb8d
:10770000042801d914f0ecf8fff7f8fee1e700bf18
:1077100058bb002004ed00e038b50a4cd4f8f42042
:1077200001320546c4f8f4200cf0c6fdd4f8f83058
:107730002b44c4f8f8300cf0cffdbde83840fff71b
:10774000ddbe00bf58bb00202de9f0412a4cd4f823
:10775000f4300133c4f8f4300546fff70bfc02287f
:1077600005d00024fff7cafe2046bde8f0812f1d9a
:10777000384612f0b3ff0cf09ffdab6a33b105f150
:10778000180012f0abff012385f851300cf0a4fd76
:10779000ea6ad4f8e080dff864e002eb820080005f
:1077a00004eb000c0123dcf80c10a96003fa02f6cc
:1077b00046ea0806c4f8e0608e68ee606668d6f8af
:1077c0002c80dcf80860864488681e444245476087
:1077d0008f60c5f814e0ccf8086007d9c4f8003110
:1077e0001c46fff78bfe2046bde8f0811c46fff7e4
:1077f00085fe2046bde8f08158bb002060bb00201c
:1078000010b51d4cd4f8f4301bb10123c4f800317d
:1078100010bdc4f8003163681b6b1a68b2f1a53f54
:1078200003d15a68b2f1a53f1cd061686068343159
:1078300014f024f9d4f8e030b3fa83f3dbb2c3f1e7
:107840001f0303eb83039b00e1180c48ca685268ce
:10785000ca6003449a4204bf4a69ca60d36863603d
:10786000636810bd9a68b2f1a53fded1db68b3f161
:10787000a53fdad1dee700bf58bb002068bb00207f
:1078800070b504462e4d0cf017fd002c44d0261d7b
:10789000304612f023ff30b9e26a02eb820305ebb7
:1078a00083039b681bb3a36a1bb104f1180012f099
:1078b00015ff3146234812f0e7fe94f85030012bb3
:1078c00004bf002384f850300cf006fdd5f8d83002
:1078d000bbb96b68a34200d070bdd5f8d83013bbdc
:1078e0002968d5f8bc20914226d16b6070bdd5f8cf
:1078f000e030012101fa02f223ea0203c5f8e03088
:10790000d1e70cf0d9fcd5f8d0301b6833b1fff7c4
:1079100051fa0cf0e1fcdce76c68b8e74ff0ff339c
:10792000c5f8ec30f5e7084b4ff080521a60bff312
:107930004f8fbff36f8f70bdbde87040fff760bf22
:1079400058bb002014bc002004ed00e010b5064b2d
:107950005b680c4603f1180112f0a6fe20460121d7
:10796000bde81040fff7b4b958bb00200e4bf0b48f
:1079700045685f685e68044641f000415868b96137
:10798000a968f5610162206859685f685e68431cf8
:107990001046aa68183118375160af600121b462ef
:1079a0002360f0bcfff794b958bb0020134b2de9be
:1079b000f04245685f68ae68fd6104465868d3f8d8
:1079c00004e00662b2f100095e68aa685f6808bf59
:1079d000084621680ef1180c06f1180301f10106a2
:1079e000c2f804c04946ab6018bf4ff0ff30bc621c
:1079f0002660bde8f042fff76bb900bf58bb00201e
:107a0000c368d9688b6a2de9f041d1e907425d6806
:107a1000a26001f1180054608542304c08bf5a60e2
:107a20001a68d4f8f450013a00268e621a60cb6ac4
:107a3000002d42d14e698a687568c868906001f16e
:107a4000040cc868d4f8e0804260654503eb830508
:107a50004fea8505326808bf70606719013af86817
:107a6000326001228668ce609a40be68dff870e01e
:107a700042ea0802c4f8e0208268d4f8d080886026
:107a800075440136c2f804c0c0f808c04d61be603c
:107a9000d8f8002062b1fff78df9cb6a6268d26a2c
:107aa0009a423abf0120c4f800010020bde8f081ed
:107ab0004ff0ff32c4f8ec20f0e7d4f89820ca6108
:107ac00095680d629668d4f894507060013504f1a1
:107ad00094069060c4f894508e62dfe758bb002093
:107ae00060bb00202de9f8434268036984685d6843
:107af00041f000410160c168946084688542626021
:107b00001a6808bf5c60234c00250561013ad4f86f
:107b1000d0001a600368002b39d14ff0ff33c4f84e
:107b2000ec304d69d4f8e09068682f68dff8688021
:107b3000d1e9022301f1040c604593605a6008bf4b
:107b40006b60cb6a03eb8300800026184ff0010eb8
:107b5000013ff2682f600efa03f545ea0905c4f803
:107b6000e05067689568ff6acd60b5688a608044b8
:107b700090687544bb42c0f804c088bfc4f800e1f7
:107b8000c2f808c0c1f81480b560bde8f883fff7fb
:107b900011f9c6e758bb002060bb002010b50446b1
:107ba0000cf08afb054bd3f8fc20d3f8e830c4e98d
:107bb0000023bde810400cf08fbb00bf58bb002075
:107bc000034bd3f8fc20d3f8e830c0e9002370471a
:107bd00058bb0020f8b505460c460cf06dfb1c4a5e
:107be000d2f8e800536893f8513043b1536800224b
:107bf00083f8512001240cf06ffb2046f8bd21686a
:107c00004e1c1fd0d5e90073d2f8fc60b74208d0f3
:107c1000834206d80023236001240cf05dfb20463c
:107c2000f8bdc61ab142f5d9091a1944d2f8fc00b8
:107c3000d2f8e8302160c5e9000300240cf04cfbc9
:107c40002046f8bd1c460cf047fb2046f8bd00bf9f
:107c500058bb0020024b0122c3f80021704700bf2f
:107c600058bb00200b4bd3f8940018b9d3f800216f
:107c700012b1704700207047d3f8f81009b11046d0
:107c800070471a68d3f8bc00531e984214bf0120f5
:107c90000220704758bb0020014b5868704700bf56
:107ca00058bb002010b9024b58687047002070473d
:107cb00058bb0020064bd3f8d82032b1d3f8f430ab
:107cc000002b0cbf0220002070470120704700bf2e
:107cd00058bb002018b3f8b5284cc36a6268d26a52
:107ce000934214d28269002a04db6268d26ac2f12c
:107cf00005028261224d426903eb830305eb830396
:107d00009a420dd06368db6ac3620120f8bd6368e4
:107d1000406cdb6a98422cbf00200120f8bd704700
:107d2000071d0646384612f0d9fc40b9f16ad4f86e
:107d3000e03001228a4023ea0203c4f8e03063689d
:107d4000d4f8e0c0db6af36203eb83029200a1186f
:107d50001544ca68d1f808e09068f0609068b26095
:107d60004760012000fa03f3864443ea0c0397605e
:107d7000c4f8e0307561c1f808e0f8bd58bb0020d8
:107d800060bb002060b12de9f843c16a836c426c8e
:107d9000013b9142836400d023b10020bde8f88309
:107da00000207047051d0446284612f097fc184a2b
:107db00040b9e06ad2f8e0300121814023ea0103b2
:107dc000c2f8e030636c134fd2f8e080e36203eb5b
:107dd0008301890056180f44f168a1608868e0604b
:107de000b068d1f808e000f1010c0120c3f10509e9
:107df00000fa03f343ea0803c4f81890c2f8e0302d
:107e0000cef804508d606761c6f808c0bde8f883fd
:107e100058bb002060bb002058b1426cf8b59142bd
:107e2000c36a38bf11468b4202d0826c012a01d04e
:107e3000f8bd704782691e4dc162002a03eb8303bf
:107e4000426905f10806a8bfc1f1050106eb8303ed
:107e5000a8bf81619a42ebd1071d0446384612f053
:107e60003dfce36ad0b101229a4003eb83039b00ff
:107e7000e9181e44cb68d1f808e09868e06098687b
:107e8000d5f8e0c0a3604cea020247600ef10100a1
:107e90009f60c5f8e02066618860f8bdd5f8e01005
:107ea00001229a4021ea0201c5f8e010dde700bf97
:107eb00058bb0020044a516853685268db6a8869dd
:107ec000c3f105039361704758bb0020034b58680a
:107ed00010b1836c01338364704700bf58bb00202e
:107ee0002de9f843274cd4f8f430013306460f4609
:107ef0009046c4f8f4300cf0dff9636806f112051f
:107f000003eb85035b6843b9636833444ff00109b1
:107f100083f85090b8f1000f1cd10cf0ddf9fff799
:107f2000edfa0cf0c9f96368ad002b44d3f8048076
:107f3000b8f1000f04d063681d44f7b100236b60f3
:107f400063683344002283f850200cf0c5f94046a2
:107f5000bde8f8830cf0c0f949464046fef7b8fe8c
:107f6000fff7ccfa0028dcd1074b4ff080521a60a3
:107f7000bff34f8fbff36f8fd3e708f1ff336b6011
:107f8000dee700bf58bb002004ed00e02de9f84318
:107f90002e4cd4f8f46001360546894617469846bb
:107fa000c4f8f4600cf088f963682b4493f85030ff
:107fb000022b0dd0636803eb85030126da6c22eafd
:107fc0000902da6463682b4483f85060089b0bbb9a
:107fd0000cf082f9fff792fa0cf06ef9b8f1000f8d
:107fe00007d0636805f1120203eb82035b68c8f8ef
:107ff000003063682b4493f85030022b1dd00026cc
:1080000063681d44002385f850300cf065f9304654
:10801000bde8f8830cf060f931460898fef758fe89
:10802000fff76cfa0028d7d1094b4ff080521a6045
:10803000bff34f8fbff36f8fcee7636803eb85030a
:108040000126da6c22ea0707df64d9e758bb002073
:1080500004ed00e02de9f041ddf8188004460d46fe
:1080600017461e460cf028f9b8f1000f06d005f1ae
:10807000120304eb83035b68c8f800306219022125
:1080800092f8500082f85010731ec0b2032b08d82b
:10809000dfe803f0025a110f04eb8505eb6c1f4378
:1080a000ef6401280dd001240cf016f92046bde83c
:1080b000f081022853d0123504eb850501286f604a
:1080c000f1d16669a368e2689a607168e268306815
:1080d000536004f1040c614508bf7260e26a2149f3
:1080e00002eb8205ad004f19431ef868d1f8e0e0bd
:1080f000336001238668e6609340be68d0f808804c
:10810000a06043ea0e03c1f8e03001f108031d440a
:10811000d1f8d0e0c8f804c00136c0f808c06561e5
:10812000be60def80030abb1fef744fee26a4b6899
:10813000db6a9342b7d20c4b4ff080521a60bff308
:108140004f8fbff36f8faee704eb8505eb6c013308
:10815000eb64a6e74ff0ff33c1f8ec30e7e700240b
:10816000a2e700bf58bb002004ed00e02de9f04776
:10817000089deff311864ff0200484f31188bff3bc
:108180006f8fbff34f8f2db101f1120400eb840408
:1081900064682c604418022794f8505084f850709a
:1081a000013bedb2032b08d8dfe803f0023d100ecf
:1081b00000eb8101cb6c1a43ca64012d0cd0012065
:1081c00086f31188bde8f087022d66d0123100ebee
:1081d0008101012d4a60f2d1314bc26ad3f8f4100b
:1081e00039b3d3f89810c1618c6804628d68d3f8f4
:1081f000944000f118076f60013403f194058f601b
:10820000c3f8944085625968c96a9142d7d2099ae5
:1082100012b1099901220a600120c3f8000186f316
:108220001188bde8f08700eb8101cb6c0133cb6492
:10823000c3e741698468c568a5604f68c568dff811
:1082400064906c6000f10408474508bf4d6002eb84
:108250008205ad0003eb050c0f68dcf80c40013f14
:10826000d4f808a00f60dcf808e0c0f80ca00121e9
:10827000d3f8e0a08460914009eb05070ef10105f9
:1082800041ea0a0ea168c3f8e0e0c1f80480c4f82e
:1082900008804761ccf80850b5e7002090e700bfa0
:1082a00058bb002060bb00202de9f04feff3118494
:1082b0004ff0200383f31188bff36f8fbff34f8f0d
:1082c0004318022600eb810193f8505083f8506068
:1082d000cb6c012d03f10103cb6403d084f311882f
:1082e000bde8f08f2f4bc16ad3f8f4500db3d3f82b
:1082f0009850c561ae680662af68d3f8946000f12b
:10830000180cc7f804c0013603f19407c5f808c07b
:10831000c3f8946087625868c06a8842ded20ab1a6
:10832000012111600122c3f8002184f31188bde806
:10833000f08f8568c668d0f814c0ae60c668dcf8f7
:108340000470756001eb810500f10408ad0003ebda
:10835000050e474508bfccf80460dcf80060def885
:108360000c70dff84490d7f808b0013eccf80060fc
:10837000def808a0d3f8e0c0c0f80cb00126a9448c
:108380008e40bd6887600af1010a46ea0c06c5f80e
:108390000480c3f8e060c7f80880c0f81490cef8f5
:1083a00008a0b8e758bb002060bb002038b50d46d8
:1083b00080b104462c440bf07fff94f85030022b20
:1083c00005bf002384f85030002401240bf084ff03
:1083d000204638bd014b5c68ece700bf58bb00206d
:1083e00070b50e46154668b104460bf065ff04eb08
:1083f0008601cc6ccb6c23ea0503cb640bf06cffdd
:10840000204670bd014b5c68efe700bf58bb002001
:108410000c4b00225a60c3f8dc20c3f8e4201a6039
:10842000c3f8e820c3f8e020c3f8d820c3f8f82048
:10843000c3f80021c3f8fc20c3f8ec20c3f8f420f3
:08844000704700bf58bb00208b
:020000040000fa
:020000040100f9
:10844800054b6ff001021a60da609a615a621a638a
:10845800da639a645a657047e0bd0020072803462e
:1084680013dc00eb400291000a4a50580a44811c70
:1084780005d00de052f80c1f11f1020f03d10133a2
:10848800082bf7d17047084670476ff00100704716
:10849800704700bfe0bd0020f0b4144e00233746fb
:1084a80034462568a84204f10c040fd00133082b88
:1084b800f7d100243368023306f10c0610d00134da
:1084c800082cf7d16ff08300f0bc704703eb43032f
:1084d80007eb8303c3e900019a600020f0bc7047f2
:1084e80004eb440407eb8403f4e700bfe0bd00207d
:1084f80030b40d4c002322461168884202f10c0268
:1085080004d00133082bf7d130bc704703eb430389
:108518009b00191d6518002262506ff001006a6007
:10852800e05030bc704700bfe0bd0020f0b58fb010
:10853800ddf854c0bcf1000f0fd041f254141b4eab
:108548005cf804709e46354600242b689f4205f16e
:108558000c0506d00134082cf7d16ff487700fb0e2
:10856800f0bd04eb440406eb84046668002ef4d0e6
:1085780073460693149b049100254ff0030e0121c6
:10858800cde9073c169b03900592cde901e10993db
:10859800a2680b9538460a95cde90c5501a9b04754
:1085a80010f1ae0fd9d00fb0f0bd00bfe0bd002074
:1085b800002838d02de9f04341f254131b4fc65818
:1085c8008fb03c4600232568ae4204f10c0407d066
:1085d8000133082bf7d16ff487700fb0bde8f08333
:1085e80003eb430307eb8307d7f80490b9f1000fb7
:1085f800f1d0044690460d462022002106a814f02a
:108608003df903210a230191cde90345cdf81480f2
:10861800ba680293304601a9c84710f1ae0fdad004
:108628000fb0bde8f0836ff487707047e0bd00209d
:10863800002a35d0f0b51c4ed2f8b8788fb09c46d9
:10864800354600242b689f4205f10c0506d00134fd
:10865800082cf7d16ff487700fb0f0bd04eb440419
:1086680006eb84046668002ef4d000256346049166
:108678004ff0030c092103900592cde901c106933f
:10868800a268089538460795cde90955cde90b55f7
:108698000d9501a9b04710f1ae0fdbd00fb0f0bdba
:1086a8006ff48770704700bfe0bd0020002832d00b
:1086b800f0b51a4ed0f8b8788fb09c4635460024ed
:1086c8002b689f4205f10c0506d00134082cf7d120
:1086d8006ff487700fb0f0bd04eb440406eb84041c
:1086e8006668002ef4d00025049103210390cde99b
:1086f800052ccde90111a268089538460795cde902
:108708000955cde90b550d9501a9b04710f1ae0fec
:10871800ded00fb0f0bd6ff487707047e0bd002069
:10872800f0b58fb0ddf854c0bcf1000f0dd01a4e73
:10873800dcf8b8789e46354600242b689f4205f140
:108748000c0506d00134082cf7d16ff487700fb0f0
:10875800f0bd04eb440406eb84046668002ef4d0f4
:1087680073460693149b049100254ff0030e0421d1
:1087780003900592cde901e1cde9073ca2680a958d
:1087880038460995cde90b550d956944b04710f168
:10879800ae0fdad00fb0f0bde0bd0020f0b58fb05d
:1087a800ddf854c0bcf1000f0dd01a4edcf8b878d3
:1087b8009e46354600242b689f4205f10c0506d0dd
:1087c8000134082cf7d16ff487700fb0f0bd04ebbb
:1087d800440406eb84046668002ef4d073460693be
:1087e800149b049100254ff0030e05210390059278
:1087f800cde901e1cde9073ca2680a95384609951b
:10880800cde90b550d9501a9b04710f1ae0fdad09f
:108818000fb0f0bde0bd0020002837d02de9f043af
:108828001c4fd0f8b8688fb03c4600232568ae428c
:1088380004f10c0407d00133082bf7d16ff48770cb
:108848000fb0bde8f08303eb430307eb8307d7f8ca
:108858000490b9f1000ff1d0044690460d4620224d
:10886800002106a814f00af803210b230191cde991
:108878000345cdf81480ba680293304601a9c84769
:1088880010f1ae0fdad00fb0bde8f0836ff4877047
:10889800704700bfe0bd0020f0b59c468fb0264f62
:1088a80078b1d0f834613d4600242b689e4205f12a
:1088b8000c051ad00134082cf7d16ff487700fb06b
:1088c800f0bd3e4605463468023406f10c0607d171
:1088d8000135082df1d03468023406f10c06f7d0c2
:1088e80005eb450507eb850403e004eb440407ebbf
:1088f80084046568002de0d0149b0893159b0993a8
:10890800169b0a93179b0b93189b049005910320c1
:1089180001210c930226199b0391cde9062ccde980
:1089280001600d93a268206801a9a84710f1ae0f55
:10893800c3d00fb0f0bd00bfe0bd0020f0b59c462d
:108948008fb0264f78b1d0f834613d4600242b68ab
:108958009e4205f10c051ad00134082cf7d16ff4aa
:1089680087700fb0f0bd3e4605463468023406f104
:108978000c0607d10135082df1d03468023406f110
:108988000c06f7d005eb450507eb850403e004eb7f
:10899800440407eb84046568002de0d0149b089319
:1089a800159b0993169b0a93179b0b93189b04908e
:1089b8000591022003210c930026199b0d93cde904
:1089c8000101cde9062c0396a268206801a9a847f1
:1089d80010f1ae0fc3d00fb0f0bd00bfe0bd002056
:1089e800f0b59c468fb0264f78b1d0f834613d463b
:1089f80000242b689e4205f10c051ad00134082c7e
:108a0800f7d16ff487700fb0f0bd3e460546346865
:108a1800023406f10c0607d10135082df1d034686f
:108a2800023406f10c06f7d005eb450507eb850483
:108a380003e004eb440407eb84046568002de0d0f0
:108a4800149b0893159b0993169b0a93179b0b93ea
:108a5800189b049005910c2001210c930226199b68
:108a68000391cde9062ccde901600d93a268206839
:108a780001a9a84710f1ae0fc3d00fb0f0bd00bfd9
:108a8800e0bd0020f0b59c468fb0264f78b1d0f8f5
:108a980034613d4600242b689e4205f10c051ad02e
:108aa8000134082cf7d16ff487700fb0f0bd3e4643
:108ab80005463468023406f10c0607d10135082d45
:108ac800f1d03468023406f10c06f7d005eb450501
:108ad80007eb850403e004eb440407eb84046568b2
:108ae800002de0d0149b0893159b0993169b0a93bd
:108af800179b0b93189b0490059102200c210c9353
:108b08000026199b0d93cde90101cde9062c0396aa
:108b1800a268206801a9a84710f1ae0fc3d00fb012
:108b2800f0bd00bfe0bd0020f0b59c468fb0234fdc
:108b380078b1d0f834613d4600242b689e4205f197
:108b48000c051ad00134082cf7d16ff487700fb0d8
:108b5800f0bd3e4605463468023406f10c0607d1de
:108b68000135082df1d03468023406f10c06f7d02f
:108b780005eb450507eb850403e004eb440407eb2c
:108b880084046568002de0d004900591002002213e
:108b980006920122cde90800cde90a00cde90c00d2
:108ba800cde901110392cdf81cc0a268206801a983
:108bb800a84710f1ae0fc8d00fb0f0bde0bd00203f
:108bc8002de9f043dff890c08fb080b1d0f8347150
:108bd800654600242e68b74205f10c051bd0013408
:108be800082cf7d16ff487700fb0bde8f0836646a4
:108bf80005463768023706f10c0607d10135082dfe
:108c0800f0d03768023706f10c06f7d005eb4505ba
:108c18000ceb850403e004eb44040ceb8404656866
:108c2800002ddfd00746904689462c22002103a854
:108c38001e4613f023fe0223cde90479cde906860a
:108c480001a9cde90133a2682068a84710f1ae0f49
:108c5800c8d00fb0bde8f083e0bd0020f0b5dff864
:108c680090c08fb078b1d0f83471654600242e6872
:108c7800b74205f10c051ad00134082cf7d16ff46e
:108c880087700fb0f0bd664605463768023706f1b3
:108c98000c0607d10135082df1d03768023706f1e7
:108ca8000c06f7d005eb45050ceb850403e004eb57
:108cb80044040ceb84046568002de0d00490059111
:108cc800002002210692079304220123cde9011214
:108cd800cde90800cde90a00cde90c000393a268ac
:108ce800206801a9a84710f1ae0fc8d00fb0f0bd99
:108cf800e0bd0020f0b5dff890c08fb078b1d0f8b3
:108d08003471654600242e68b74205f10c051ad067
:108d18000134082cf7d16ff487700fb0f0bd6646a8
:108d280005463768023706f10c0607d10135082dcc
:108d3800f1d03768023706f10c06f7d005eb450588
:108d48000ceb850403e004eb44040ceb8404656835
:108d5800002de0d00490059100200221069207938f
:108d68000d220123cde90112cde90800cde90a0061
:108d7800cde90c000393a268206801a9a84710f167
:108d8800ae0fc8d00fb0f0bde0bd00202de9f04314
:108d9800dff894c08fb080b1d0f8347165460024f4
:108da8002e68b74205f10c051bd00134082cf7d109
:108db8006ff487700fb0bde8f083664605463768e4
:108dc800023706f10c0607d10135082df0d03768b7
:108dd800023706f10c06f7d005eb45050ceb8504c8
:108de80003e004eb44040ceb84046568002ddfd039
:108df8000646904689462c22002103a81f4613f0f8
:108e08003dfd02220d23cde90123cde90469cde919
:108e1800068701a9a2682068a84710f1ae0fc7d03d
:108e28000fb0bde8f08300bfe0bd0020f0b5dff86b
:108e380090c08fb078b1d0f8a871654600242e682c
:108e4800b74205f10c051ad00134082cf7d16ff49c
:108e580087700fb0f0bd664605463768023706f1e1
:108e68000c0607d10135082df1d03768023706f115
:108e78000c06f7d005eb45050ceb850403e004eb85
:108e880044040ceb84046568002de0d0049005913f
:108e9800002002210692079307220123cde901123f
:108ea800cde90800cde90a00cde90c000393a268da
:108eb800206801a9a84710f1ae0fc8d00fb0f0bdc7
:108ec800e0bd00202de9f043dff894c08fb080b1f9
:108ed800d0f8a871654600242e68b74205f10c0544
:108ee8001bd00134082cf7d16ff487700fb0bde8a0
:108ef800f083664605463768023706f10c0607d147
:108f08000135082df0d03768023706f10c06f7d086
:108f180005eb45050ceb850403e004eb44040ceb7e
:108f280084046568002ddfd00646904689462c22c9
:108f3800002103a81f4613f0a1fc02220723cde954
:108f48000123cde90469cde9068701a9a268206853
:108f5800a84710f1ae0fc7d00fb0bde8f08300bf2f
:108f6800e0bd0020f0b59c468fb0234f70b1466e2f
:108f78003d4600242b689e4205f10c051ad00134a9
:108f8800082cf7d16ff487700fb0f0bd3e46054648
:108f98003468023406f10c0607d10135082df1d0ea
:108fa8003468023406f10c06f7d005eb450507ebeb
:108fb800850403e004eb440407eb84046568002d92
:108fc800e0d0069003910020012104920422cde90b
:108fd8000112cde90700cde90900cde90b000d909c
:108fe800cdf814c0a268206801a9a84710f1ae0ff7
:108ff800c8d00fb0f0bd00bfe0bd0020f0b59c4662
:109008008fb0234f70b1066f3d4600242b689e42f7
:1090180005f10c051ad00134082cf7d16ff48770cc
:109028000fb0f0bd3e4605463468023406f10c0622
:1090380007d10135082df1d03468023406f10c0649
:10904800f7d005eb450507eb850403e004eb440482
:1090580007eb84046568002de0d00690039100209a
:10906800012104920622cde90112cde90700cde9dc
:109078000900cde90b000d90cdf814c0a268206856
:1090880001a9a84710f1ae0fc8d00fb0f0bd00bfbe
:10909800e0bd0020002834d0f0b51b4ed0f8247174
:1090a8008fb09c46354600242b689f4205f10c057d
:1090b80006d00134082cf7d16ff487700fb0f0bddb
:1090c80004eb440406eb84046568002df4d0149b7b
:1090d8000291062600210392cde9053008910791f7
:1090e800cde90911cde90b110d91cdf810c0a26899
:1090f8000196384601a9a84710f1ae0fdcd00fb091
:10910800f0bd6ff487707047e0bd00202de9f04195
:10911800224e8eb078b14769344600232568af42a5
:1091280004f10c041bd00133082bf7d16ff48770be
:109138000eb0bde8f081354604462b68023305f1d0
:109148000c0507d10134082cf0d02b68023305f147
:109158000c05f7d004eb440406eb840403e003ebae
:10916800430306eb83046568002ddfd0804616466e
:109178000f462422002105a813f080fb0423cde923
:10918800028704960deb03010193a2682068a847a3
:1091980010f1ae0fcad00eb0bde8f081e0bd0020de
:1091a8002de9f043194f46688fb03c4600232568e7
:1091b800ae4204f10c0407d00133082bf7d16ff449
:1091c80087700fb0bde8f08303eb430307eb830719
:1091d800d7f80490b9f1000ff1d090460d46044637
:1091e8002422002105a813f049fb0523cde90245f7
:1091f800cdf81080ba680193304601a9c84710f12c
:10920800ae0fdcd00fb0bde8f08300bfe0bd00209a
:089218006ff00100704700bf78
:020000040000fa
:020000040100f9
:1092200008b5044b186818b1804780f00100c0b23f
:1092300008bd00bfd0b1002009b91046704780b109
:10924000037883ea122383ea131343ea022282eab1
:10925000033282ea431292b200b10130013989b27d
:10926000eae7ff23ede72de9f04f85b081460e9e3a
:109270008a46904606b11e4443449cb24746554632
:10928000a74203d1012005b0bde8f08f95b36a462f
:109290001023294648460bf0f1fabdf80420944209
:1092a00008d9bdf8063013449bb29f4202d29c42bb
:1092b00003d91f46bdf80a50e8e79742a4eb020124
:1092c00028bfe31b89b234bf0b469bb2a4eb030457
:1092d00032bfbdf80ab04746d346a4b246b11035f6
:1092e0002944f61ac91a324689b248460bf0c6fa22
:1092f0005d46c5e72846c6e72de9f74fd48896882e
:10930000dff8588082468b4644f307254ff6ff77f7
:10931000002d03da384603b0bde8f08f1ad0a4f56b
:1093200080741ffa84f94ff48074cdf800802346ce
:10933000324659465046fff796ff38b13a46214625
:109340004046fff779ff2644b6b20746013d6db2ad
:109350004c46dde7002cddd0a146e6e7d4b1002085
:1093600010b5094c94f804010bf026fb4ff40052a1
:10937000002194f804010bf049fb18b14ff48073fd
:10938000a4f8063110bd00bfd0b100202de9f04196
:10939000094c05460e46174613460a46014694f800
:1093a00004010bf0a1fa3b463246294694f8040129
:1093b000bde8f0410bf078bbd0b1002003292cd8d8
:1093c000dfe801f002091b23184bb3f80621104413
:1093d000a3f806017047154ab2f80631184480b266
:1093e000c11c4ff6fc730b40984203d90430a2f81d
:1093f00006017047a2f8063170470c4ab2f80631f0
:109400000f33184420f00f00f1e7084ab2f8063194
:109410003f33184420f03f00e9e74ff0200383f387
:109420001188bff36f8fbff34f8ffee7d0b10020dd
:109430004ff0200383f31188bff36f8fbff34f8f7b
:10944000fee770b50c4a92f808410023d9b28c426d
:1094500001d800200be05d1c9b00d118b1f8096118
:10946000864207d1b1f80b2112b10448184470bdef
:10947000fff7deff2b46e9e7d0b10020d9b200208c
:1094800008b5fff7deff00b1408808bd10b50446ff
:10949000fff7d7ff40b14ff0200383f31188bff3ec
:1094a0006f8fbff34f8ffee7094b93f80801020659
:1094b00001d5fff7bdff421c83f8082103eb8002b2
:1094c00003f20913a2f8094103eb800010bd00bfad
:1094d000d0b1002008b5fff7b4ff08b9fff7a8ff27
:1094e000064a92f80831013bdbb282f8083102eb00
:1094f0008303d3f80931036008bd00bfd0b1002059
:109500002de9f041244cb4f80a33b4f80c63034459
:109510009bb204f20e37ff2b0546a4f80a3307eb83
:10952000060004f104080ad82a464146354413f0df
:10953000ebf80126a4f80c533046bde8f081c6f5df
:109540008072414613f0e0f84ff480723946b4f867
:109550000601fff71bff06460028edd000214ff45f
:109560008070fff72bffb4f80a53b4f80c13a5f57d
:1095700080750023adb2a4f80c33a4f80a53002d73
:10958000dad0c1f580712a4618fa81f1384613f015
:10959000bbf8a4f80c53cfe7d0b100207fb545f25b
:1095a0004143adf806300d4bcde902300c4bc043c2
:1095b000b3f80e3404904ff6ff7210210df106003f
:1095c000adf81430fff738fe1222adf8040001a9ff
:1095d0000020fff7dbfe07b05df804fb534e763248
:1095e000d0b100202de9f04f724c94f804710025a1
:1095f0008fb0122309aa29463846a4f81054a4f8bb
:109600001254a4f80c53a4f80a530bf037f90b9b2f
:10961000039394f804310133dbb2012b94bf84f837
:10962000043184f8045194f80431bb4208d14ff05e
:10963000200383f31188bff36f8fbff34f8ffee7d3
:10964000fff78efe0028e4d04ff0000adff87081ab
:1096500080e004eb8a091023b9f80bb105aa59463a
:1096600038460bf00bf90026bdf81c50adf81a5027
:1096700005aa59463846adf81860adf81e60adf839
:109680002060fff739fe4ff6ff72adf814000e218f
:1096900005a8fff7d1fdf022adf82200ff214648d2
:1096a00013f0f0f805ab03cb1035c8f80000c8f88c
:1096b0000410b4f80c2303cbb4f80631c8f8080042
:1096c000adb21344b5f5807fc8f80c10a9f80b3182
:1096d00019d8394b00933246bdf81c3059463846ec
:1096e000fff7c1fd50b1b4f80631b4f80c231344b0
:1096f000a9f80b312846fff703ff38bb00242046aa
:109700000fb0bde8f08f1023b5f5807f2a4628bf43
:109710004ff48072a2eb03091ffa89f943440292c5
:10972000009332464b4659463846fff79cfd0028c9
:10973000e4d00298fff7e4fe0028dfd0029bed1a88
:109740004e44adb2b6b20023002dddd10af10103c3
:109750005ffa83fa94f8083153453ff67aafb4f8cc
:109760000a23fab9b4f80a030021fff727feb4f878
:109770000631a4f80e34039b581efff70fff044672
:109780000028bbd002210020fff718fe1222ff2183
:1097900009a813f077f8122309aa002138460bf024
:1097a000a3f8ace70549b4f80601fff7effd002880
:1097b000d8d1a3e7d0b10020e4b10020deb400206e
:1097c000d4b1002008b50a4bb3f80631c3f50053f5
:1097d0009bb283420bd2fff705ff40b94ff0200345
:1097e00083f31188bff36f8fbff34f8ffee708bd80
:1097f000d0b100202de9f84f344e0446351d89467e
:109800004ff48072ff21284613f03cf8e1884ff6b0
:10981000ff724846fff710fd4ff6ff7220800e21c1
:109820002046fff709fd2346e08103cb70606960a5
:1098300003cba860e960e28802f11007bfb2b9f17a
:10984000000f07d0b7f5807f17d8494606f11400fe
:1098500012f05affe2881e49b6f80601f02a28bf26
:10986000f022103292b2fff791fd8046e08810306e
:10987000022180b2fff7a2fd25e04ff0000b10207f
:10988000b7f5807f3c4628bf4ff48074a4eb000af4
:10989000524609eb0b01284412f036ff22460c49d0
:1098a000b6f80601fff772fd804660b1204602213e
:1098b0003f1bfff783fdbfb20beb0a031ffa83fbcd
:1098c0000020002fdcd14046bde8f88fd0b1002049
:1098d000d4b100202de9f041674c00258eb084f80a
:1098e00008514ff0ff38ff27122304aa0021284611
:1098f0000af0c4ffdde906637340013326d19df809
:109900001230412b22d19df81330542b1ed19df8db
:109910001430532b1ad19df815304e2b16d19df8cb
:109920001630762b12d19df81730322b0ed14ff610
