:020000040000fa
:10000000f8fb012061200000e32c0000bb2d000064
:1000100057300000bf300000e33200000000000055
:10002000000000000000000000000000f7270000b2
:10003000032f000000000000f7270000f727000052
:10004000f7270000f7270000f727000051350000d0
:10005000f7270000f7270000f7270000f727000028
:10006000f7270000f7270000f7270000f727000018
:1000700011290000f7270000000000000000000028
:10008000f7270000f7270000f727000039320000ab
:10009000f7270000f7270000d55d0000f7270000d4
:1000a00000000000f7270000f7270000f7270000f6
:1000b000f7270000f7270000f7270000f7270000c8
:1000c000f7270000f7270000f7270000f7270000b8
:1000d000f7270000f7270000f7270000f7270000a8
:020000040000fa
:10010000f8b500bff8bc08bc9e467047692e0000d9
:10011000f8b500bff8bc08bc9e467047452e0000ed
:020000040000fa
:080120001407000001000000bb
:020000040000fa
:100128002de9f84f0746884642f2107241f2100155
:10013800984802f097fc002800f08b8103f0f8f94a
:10014800944b1c68944b1c60250cabb2934a1380eb
:10015800a6b25680043b0e2b00f26d81dfe813f047
:1001680054001f0026017c016b016b0183016b01a8
:100178006b016b016b016b016b0187000f0002f0d3
:10018800b3ff0020854b1d88072d00f066810a2dde
:1001980000f06a812d04042828bf02206ee17d4bff
:1001a800d3f804907d4bc3f8049043463a46494639
:1001b800484602f067ff0746002800f05d81a4b2b8
:1001c800038803fb04944368426913449c4280f00b
:1001d80053818369002b00f077811a68002a00f0a8
:1001e80065819047b86a49ea0009f86a09ea000097
:1001f800bb69002b00f02181db68002b00f01f8118
:100208003146984780b2bde7624b5868634b5860e7
:1002180043463a46014602f035ff0446002800f0fe
:100228002b8142690088b2fbf0f66368b1b200fb2b
:1002380001311a44914200f21f81a269002a00f09c
:1002480043811168002900f0258188476068a36a06
:100258001843e36a1840a369002b00f0f280db68ba
:10026800002b00f0f080b1b2984780b28ae7494b82
:10027800d3f804a0494ac2f804a0d3f80890c2f8f9
:100288000890dc68d4601033136143463a460aeba1
:100298000901504602f0f6fe0746002800f0ec80ff
:1002a800836a4aea030ac36a0aea030a83696bb1e2
:1002b8001a6812b19047bb6943b15b6833b14a46cb
:1002c800514637489847002840f0bf80012e07d094
:1002d800022e31d00025ac4214bf0220002051e785
:1002e8005646bb6943b1d3f80880b9f1000f4ed028
:1002f80000252c4fba4605e04ff00008f5e7b9f1a4
:10030800000fe8d0284b1a684a4528bf4a4693464a
:1003180043465146304602f0a1ff5e44a9eb0b0963
:10032800bbf1000febd00beb07023b4613f8011ba8
:100338000d449a42fad1e2e75646bb6923b3d3f893
:1003480008804ff6ff7002f0b7fbb9f1000f17d025
:10035800dff854a0daf800504d4528bf4d46114f3c
:1003680043462a463946304602f078ff2e44a9eb28
:1003780005092946384602f0fdfdb9f1000fe9d11b
:1003880003f050fa0546a6e74ff00008d9e74d46b6
:10039800a1e700bfa04700207cff0120ecff01205f
:1003a800b047002000000020ec5a0020484a50685e
:1003b800484b58609168996043463a46014402f0b8
:1003c80061fe8046002857d0836913b11b6803b1ca
:1003d8009847404b5f68d8f828201743d8f82c2056
:1003e8001740d3f80890d8f83050b9f1000f2ed044
:1003f800394b1e684e4528bf4e46d8f818309bb179
:100408009b68364c32462146384602f027ff37446f
:1004180026f0030222442146914207d051f8043bba
:100428009d42f9d00220ade60023eae7b9eb0609c0
:10043800ded10020a6e60320a4e60020a2e60020e4
:10044800a0e600209ee600209ce602209ae6002016
:1004580098e64ff0ff301be0012040f4e020204bed
:10046800186004210ee0002040f420201c4b186086
:1004780000225a60082105e02d0402202843184b69
:1004880018600421164803f008fa03f051f8002018
:10049800bde8f88fa06a0343e06a1840d368002bd0
:1004a8007ff4e1ae0b4b1d88002073e6826a49eaaf
:1004b8000209c06a09ea0000db68002b7ff4a0aedd
:1004c800044b1d88002065e6024b1d88002061e66c
:1004d800a0470020ecff0120ec5a0020000000207b
:0404e800905a002006
:020000040000fa
:1004ec002de9f04fadf27c4d0d46cb691b691c68b4
:1004fc00c54e304603f0caf9eb691b691022d96866
:10050c00304600f09dfce4b2231d194602930027ef
:10051c000097234606f108028946bc4802f01cfbf2
:10052c00bb4e264404f10c023946304603f006f962
:10053c0006eb040808f10c0b44223946584603f02c
:10054c00fdf84fea490a5246394608f1500003f0cb
:10055c00f5f830223946af4803f0f0f8dff8c082e6
:10056c00d8f800304ff480725a80d8f800301a79dd
:10057c0002f0fe0267f3c3021a71a7b29f824ff416
:10058c0080521a8207eb020909f10409a3f81290b0
:10059c0007f608025600de8206f144029a835022c6
:1005ac001a70d8f800004cf2010303819a4b98475b
:1005bc00d8f800301b8923b118460df27c4dbde8ec
:1005cc00f08f30220021934803f0b8f88e4803f0e6
:1005dc005df9eb691b691022d9698b4800f030fc7e
:1005ec000beb04030c33aaf1080a05930aeb030185
:1005fc00069101f10803039303eb040a0af1040ac0
:10060c004ff00008cdf800802346844a02995046ea
:10061c0002f0a2fa7c4803f039f9eb691b6910224d
:10062c00196a794800f00cfca2440af1040acdf8ce
:10063c0000802346794a0299504602f08dfa4ff019
:10064c00010c8df877c4a2440af1040acdf800809d
:10065c0001230df277420299504602f07dfa6a4866
:10066c0003f014f9eb691b6910229969664800f0d4
:10067c00e7fbcdf800802346684a0299584602f001
:10068c006bfa614803f002f9eb691b6910221969d6
:10069c005d4800f0d5fba2440af1040a0aeb040bf6
:1006ac000bf1040b0beb0403043304931819011d19
:1006bc000846cdf800802346584a0299079002f06c
:1006cc004bfaea699369cdf800809b0020320299bd
:1006dc00504602f041faea69d2f84032cdf8008077
:1006ec009b0002f51272ddf808a05146584602f044
:1006fc0033faea69d2f86834cdf800809b0002f531
:10070c008e625146049802f027fa6b694ff0010c87
:10071c00cdf800c0a34228bf23462a69514603984e
:10072c0002f01afa0df5137c604603f0aff80df1e8
:10073c00240c604603f0aaf809ab93aae968a868f0
:10074c0001f010fd034600287ff436af939bcdf8e3
:10075c0000809b0095aa5146059802f0fdf9099b73
:10076c000698001bcdf800809b000baa5146043064
:10077c0002f0f2f9e200079820442c324146043092
:10078c0002f0dcff264c2368a3f802802268578411
:10079c004ff480539382a2f8169007f2044007ebb3
:1007ac0080003b1803f118011182568207eb4701b8
:1007bc000b449bb2194489b201f1300ca2f81cc055
:1007cc002433138397841430d08307f10c03334400
:1007dc00538334370f4417845523137020684cf21d
:1007ec00010303810f4b98472368188920b9ab6923
:1007fc0001221a600346dfe648f202039842f9d15f
:10080c00ab6900221a60f5e700fc01200010010220
:10081c000410010288fe01200900000208fc0120de
:08082c00b8fe01202d000002be
:020000040000fa
:100834002de9f04f099f154604468e461e46002baf
:1008440040f0cc808a42b2fa82fc4cd9bcf1000f51
:100854000bd0ccf1200801fa0cfe20fa08f802fab9
:100864000cf548ea0e0e00fa0cf44fea15491ffa8b
:1008740085f8befbf9fa210c09fb1ae30afb08fb15
:1008840041ea03439b452ad9eb180af1ff3004d20d
:100894009b4502d9aaf102002b44a3eb0b03a4b29b
:1008a400b3fbf9f209fb123302fb08f844ea0344f0
:1008b400a04516d92c1902f1ff3303d2a04501d962
:1008c400931e2c44a4eb080443ea004027b124fa05
:1008d4000cf400233c607b603146bde8f08f504649
:1008e400dbe71346eee702b9ffdebcf1000f2ed1c1
:1008f4008b1a01264fea154eaab2b3fbfef8210c5f
:100904000efb183308fb02f941ea0343994561d908
:10091400eb1808f1ff3004d2994502d9a8f102007e
:100924002b44a3eb0903a4b2b3fbfef10efb11337a
:100934004a4344ea0344a2424ed92c1901f1ff333d
:1009440003d2a24201d98b1e2c44a41abce7ccf1d9
:10095400200e02fa0cf521fa0ef901fa0cf320fa32
:100964000efe4eea03034fea154800fa0cf4b9fbf5
:10097400f8f11ffa85fe08fb1192180c01fb0ef624
:1009840040ea0242964221d9aa1801f1ff3003d26b
:10099400964201d9881e2a44921b9bb2b2fbf8f9f5
:1009a40008fb192209fb0efe43ea02439e450fd9b8
:1009b400eb1809f1ff3604d29e4502d9a9f10206cb
:1009c4002b44a3eb0e0346ea004693e70846e3e70d
:1009d4004e46f6e74046a4e70b46b6e78b4206d9f7
:1009e400002f7ed00026c7e90001304674e7b3fa31
:1009f40083fcbcf1000f0fd18b4201d3824209d892
:100a0400841a61eb030e0120002f6dd0c7e9004e5c
:100a1400002661e76046f7e7ccf1200e03fa0cf3f9
:100a240022fa0ef521fa0ef41d4301fa0cf320fa12
:100a34000ef10b434fea154a00fa0cf6b4fbfaf92f
:100a44001ffa85f80afb19401c0c09fb08f144ea5b
:100a54000044a14202fa0cf23fd92c1909f1ff30eb
:100a640004d2a14202d9a9f102002c44641a9bb217
:100a7400b4fbfaf90afb194409fb08f843ea0441f8
:100a840088452cd9691809f1ff3304d2884502d965
:100a9400a9f10203294443ea0040a1eb0801a0fba9
:100aa40002894945c2464c4602d306d1464504d282
:100ab400b8eb020a69eb05040138afb1b6eb0a03df
:100ac40061eb040606fa0efe23fa0cf34eea030366
:100ad40026fa0cf6c7e900369ae74846c6e74b46bd
:0c0ae400d9e73e463846f7e63e46f5e608
:020000040000fa
:100af000536c6f7430200000536c6f743120000011
:100b0000c2818fbb2861478ba2533779d463187c8d
:100b10008b4159a95f0b6b944eb957a103fe20bfbf
:100b20002bb8142a64b5ae4a8380dde6ee2989dd50
:100b3000a09ac7da82eb5662905d66c5bc303c84f1
:100b40004d68656164657220736861323536204690
:100b500061696c6564210d0a000000004d686561e3
:100b60006465722073686132353620566572696635
:100b7000696564210d0a00004d65746168656164f2
:100b80006572204543445341205665726966696524
:100b900064210d0a000000004d65746168656164a0
:100ba0006572204543445341204661696c65642168
:100bb0000d0a0000465720736861323536204661c1
:100bc000696c6564210d0a004657207368613235ef
:100bd00036205665726966696564210d0a00000059
:100be00046572045434453412056657269666965fe
:100bf00064210d0a0000000046572045434453413c
:100c0000204661696c6564210d0a0000536c6f74a5
:100c100031204572617365640d0a0000536c6f7476
:100c200030204572617365640d0a0000536c6f7467
:100c30003120436f7069656420746f20536c6f744a
:100c4000300d0a00436f70792056657269666965d8
:100c5000640d0a00436f7079204469666665720d01
:100c60000a000000496e76616c696420536c6f74f1
:100c70003120496d6167650d0a000000496e76619b
:100c80006c696420536c6f743020496d6167650d29
:100c90000a000000444655204e6f77210d0a0000df
:0c0ca0004446552045786974210d0a0077
:020000040000fa
:100cac00d0ff01201c00000000000000bdfe012050
:100cbc000100000000000000ecff01201400000007
:100ccc00000000007cff0120040000000000000078
:100cdc00a04700201010000000000000905a0020d7
:100cec001800000000000000b057002000020000b7
:100cfc000000000000000020a01f00000000000009
:100d0c00ec5a00200400000001000000001000005c
:100d1c00befe0120020000000000000074ff012054
:100d2c000800000000000000a01f002000280000a8
:100d3c000000000090ff01204000000000000000b7
:100d4c00a85a00201000000000000000505a00209b
:100d5c004000000000000000b0590020a00000007e
:100d6c0000000000cc5a0020200000000100000010
:100d7c00064a136823f49f7323f0010343f0110315
:100d8c001360092300bf013bfcd1704700240144d0
:100d9c00b85a0020040000000000000088fe01206a
:100dac003000000000000000bcfe0120010000002b
:100dbc0000000000b8fe012004000000000000004c
:100dcc00c0fe0120600000000000000080ff012038
:100ddc00100000000000000000fc012028020000b0
:100dec000000000028fe0120600000000000000050
:100dfc00c85a0020010000000000000020ff012064
:100e0c000200000000000000bc5a00200800000096
:100e1c000000000024ff0120500000000000000032
:100e2c00c45a002004000000000000000000000074
:100e3c0000000000666666666666666666666666de
:020000040000fa
:100e4c002de9f84305460c46174602f045fc102fd9
:100e5c0014d0b846bb1e3e2b00f29d8023782d2b60
:100e6c0064d04ff000092078002877d12b68002b34
:100e7c0000f08680c5f80490002381e023782d2ba8
:100e8c0006bf013401260026204602f0c7fb0128cc
:100e9c0000f18c80204400210a461ce0a7f161037c
:100eac00dbb2052b71d8a7f15703dbb2202a08bfa0
:100ebc00013102f01f0287296adc05eb810e934099
:100ecc00def808703b43cef8083004320238031bbe
:100edc006046002b11db00f1ff3c10f8017ca7f100
:100eec003003dbb2092be1d9a7f14103dbb2052baf
:100efc00d4d8a7f13703dbb2d8e701312960002938
:100f0c0051d04a1e4b1c55f8233063b9013105eb07
:100f1c00810300e00246002a43d0501e53f8041d02
:100f2c000029f7d02a606e60002329e001344ff0cd
:100f3c00010998e7b74231dd2a464146284600f0c0
:100f4c00bdfc0346e0b92a463146284602f099f921
:100f5c000346a8b914f8010f002887d0242f02dc0f
:100f6c0002f050fcc0b230280dd0124b012613f801
:100f7c00012f8242ded00136402ef8d14ff0ff33e4
:100f8c001846bde8f8830026d6e74ff0ff33f7e7a5
:100f9c004ff0ff33f4e74ff0ff33f1e74ff0ff333f
:100fac00eee700232b6000236b60e9e70121296049
:080fbc00a7e700bf002e0000b2
:020000040000fa
:100fc4004ff08842d2f8003113f4007ffad00023a6
:100fd400434901334a6a12f0010f11d1b3f5fa5fa4
:100fe400f7d13f4b5b6a13f0010f0cd13c4a5368b5
:100ff40043f480735360536a13f0010ffbd002e093
:10100400b3f5fa5fedd2374ab2f8ba3403f0fd0310
:10101400a2f8ba340022324901324b6a03f00303c6
:10102400032b13d0b2f5fa5ff6d12d4b5b6a03f0b4
:101034000303032b0dd02a4a536843f4007353600f
:10104400536a03f00303032bfad102e0b2f5fa5f0b
:10105400ebd24ff088430022c3f8b020224ac3f8f1
:10106400b02002f12b42a2f54b12a2f6ab42c3f818
:10107400b02003f520631d4a1a624ff480721a608f
:1010840001229a601a46136813f0010ffbd1184b22
:1010940048f20902c3f8502140f201221a674ff4c2
:1010a40000429a674ff08843124a1a6600221a6770
:1010b4004ff01942c3f880200f4ac3f8c02047f20a
:1010c400ce42c3f8e0204ff03332c3f8b020044bd3
:1010d4005a6842f010025a604ff080721a607047ea
:1010e4000040014100200141556699aa080100c051
:0c10f400000a004400900009cf01012018
:020000040000fa
:101100001c0000000e000000445000005050000081
:101110008c500000c85000000451000040510000f5
:101120007c510000ec38000005000000d1000000f8
:10113000010000001e00000004000000b851000083
:10114000c4510000045200004452000084520000c8
:10115000c452000004530000e438000008000000fe
:101160000b0200000100000020000000070000004a
:10117000445300005053000094530000d853000023
:101180001c54000060540000a4540000f438000017
:10119000080000000e020000010000003000000006
:1011a0000f000000e8540000f454000058550000ff
:1011b000bc5500002056000084560000e856000090
:1011c000fc38000005000000d20000000100000013
:1011d00042000000100000004c570000585700006b
:1011e000dc57000060580000e45800006859000017
:1011f000ec5900000439000005000000d300000095
:101200000100000000000000ffffffff00000000e1
:1012100000000000000000000000000000000000ce
:1012200000000000000000000000000000000000be
:081230000000000000000000b6
:020000040000fa
:101238002de9f04f83b007468b469046d0e91e2330
:1012480012eb080043f10001c7e91e0112f03f0943
:1012580028d0c9f14005454501d9002423e007f10c
:1012680018042a46594604eb090002f053f9dff83e
:10127800ccc007f1580e664620686168a268e3682a
:101288000fc61034b4467445f5d140222b49384670
:1012980000f09efc0446ab44a8f14008c8444ff057
:1012a800000900e00024b8f13f0f2bd91bf03f0fd5
:1012b8002fd00bf14006a8f140039a0901920bf1d7
:1012c800800a23f03f039a44a6f14004dff86cc07b
:1012d800b646654620686168a268e3680fc51034a1
:1012e800ac467445f5d140221449384600f070fcec
:1012f80040365645e8d10446019b01330beb831b6e
:1013080008f03f08b8f1000f0fd1204603b0bde840
:10131800f08f28f03f052a465946384600f058fc19
:101328000446ab4408f03f08ece707f118004246d2
:101338005946484402f0eef8e7e700bfc0fe012036
:020000040000fa
:10134800f0b5bdb0064630a802f016fa309b002b67
:1013580071d09a6adc6a42f0847727409968b14272
:101368000bd29b69db6801213846984700b1fee73c
:101378000e21324802f0c6f95de042f08072144056
:101388001988b6fbf1f295b201fb12620ab1013578
:10139800adb29b6933b1db6823b129462046984733
:1013a80000b1fee70e21264802f0acf9309b9b699c
:1013b80043b15b6833b1324621464ff08470984799
:1013c80000b1fee717211f4802f09cf9684602f0b9
:1013d8007bf932464ff080716846fff729ff28a94c
:1013e800684600f0a3fd684602f06ef932464ff0f9
:1013f80084716846fff71cff20a9684600f096fd37
:10140800202220a928a802f077f880b90f210e48d9
:1014180002f078f9309b9b69db6829463846984783
:1014280000b1fee70e21054802f06cf903e00d213a
:10143800064802f067f93db0f0bd00bf0c0c000093
:101448001c0c00002c0c0000440c0000540c000084
:020000040000fa
:1014580038b54ff088431c6a4ff0847002f05cf98d
:1014680030b10546b0f1ff3f49d02846fff768ff85
:101478004ff0807002f050f9013810f1030f43d893
:101488002a4b013bfdd101f089ff01f04bfc274bb2
:10149800013bfdd172b6264b4ff0ff32c3f88020d6
:1014a800c3f88420c3f88820c3f88c20c3f89020a0
:1014b800c3f89420c3f89820c3f89c20c3f880216f
:1014c800c3f88421c3f88821c3f88c21c3f890217c
:1014d800c3f89421c3f89821c3f89c2162b600236d
:1014e80083f31488bff36f8f124b1b6883f308884c
:1014f800114b01221a70114b1b68984738bd1521f2
:101508000f4802f0fff8b0e715210e4802f0faf88c
:10151800064b013bfdd104f400040b4945f243722c
:1015280000e00a80002cfcd1fee700bfffff0500a9
:1015380000e100e00002000120ff01200402000198
:0c154800640c00007c0c00000205004454
:020000040000fa
:101554002de9f04f83b00c680368a342b8bf23465b
:101564001468a646882ca8bf4ff0880e1360002b81
:1015740058dd0430043102f104084ff0000a4ff042
:10158400000b4ff0000c50f8049f51f8044f002555
:1015940014eb090645f10007cde9006716eb0a06ce
:1015a400019c44eb0b0448f8046f4ff0000ba24677
:1015b4000cf1010c6345e6d119465aea0b0005d03b
:1015c400882b28d0023342f823404b1c13609e45dd
:1015d4000add981c02eb80001946002440f8044bf5
:1015e40001318e45fad1dbb1591e581c52f8200046
:1015f40058b9013302eb830300e0214671b14c1e5c
:1016040053f8040d0028f8d011605368536000208b
:1016140003b0bde8f08f4ff0ff30f9e7002313600b
:101624000023f3e7002313609c42c8bf0023d0dcef
:02163400f6e7d7
:020000040000fa
:021636007047fb
:020000040000fa
:10163800f8b5344c656b63689b699847606160696d
:1016480001f0d6ffd4e90a67321847f10003c4e96c
:101658000a23002d4cd094f83030013384f8303010
:1016680001f05afd646b2cb1a3681bb90125002752
:10167800244e10e0244d00242e461fe0e06901f0be
:101688005bfce3680bb120699847746b002cf1d0c0
:10169800a368002beed125756575a37813b9e368a7
:1016a800002bebd1204601f0d3f8a378002be8d12a
:1016b8006770e6e701342035052c13d006eb441398
:1016c8005b7d002bf6d006eb441300225a75ab78ed
:1016d800012befd16b6806eb44118b60284600f0b4
:1016e80073fce7e7074a92f83030013b82f8303064
:1016f80002f0e4f8044600f0c7fa204602f0e2f8e7
:0c170800f8bd00bf505a0020b05900206e
:020000040000fa
:101714002de9f04f80469246d2f800900c6800689c
:101724001060002c49dd08f1040e043102f1040cb0
:1017340000231a461d465ef804bfbbeb030662ebaa
:10174400420751f804bfb6eb0b0267f100034cf8f3
:10175400042f03f0010300220135ac42ebd1d8f889
:101764000010a14214dda51cad0008eb050655448c
:10177400002756f8041bc91a62eb420245f8041b01
:1017840002f001033a460134d8f80010a142f0dc1b
:10179400a14508dda31c0aeb8303002243f8042bb4
:1017a4000134a145fad1d8b1431e421c5af8222073
:1017b40082b901300aeb800004e000231a461c467b
:1017c400cde70b464bb1591e50f8042d002af8d032
:1017d400caf80030daf8043003e00023caf8003015
:0a17e4000023caf80430bde8f08fbe
:020000040000fa
:0217ee00704742
:020000040000fa
:1017f0002de9f84300295ed00f4600242f4e304bd0
:1018000000f1010edff8bcc006e00cf801809a6020
:10181000621c0134974244d9726802f00702012a1f
:1018200018d09968dd684a1cd3f81080424528bf5b
:101830000022954236d010f80480756805f007053f
:10184000012de2d14d000cf81180691c00250cf827
:101850000150dce7d3f80880d96808f101021d695e
:10186000aa4228bf002291421cd01ef8145010f842
:10187000141041ea0521756805f00705012d05d012
:10188000c9b20cf808109a60621cc2e74fea48051a
:101890005ffa81f90cf818900135090a0cf8051067
:1018a000f1e7144601f060fe10b1044b01229a7575
:1018b0002046bde8f8830c46f4e700bf000c00406a
:0818c00090ff0120a03300207d
:020000040000fa
:1018c8002de9f04fd2f80080d0f800a0c2f800a0af
:1018d800d0f804b0c2f804b00368002b54dd00f15e
:1018e800040c131d4ff0000e00240025f14600e003
:1018f800b6465cf8046fe1fb06452f4643f8044ff3
:101908003c464d460ef101060768b742f0dc54ea42
:1019180005030ad0882f2bd00af1010313600af1be
:10192800020a42f82a400ef10206b0450cdd872e65
:101938000adcb31c02eb8303002143f8041b0136c5
:10194800b04501d0882ef8d11168b1b14b1e481ca2
:1019580052f8200098b9013102eb810100e02346da
:101968004bb15c1e51f8040d0028f8d0136006e056
:101978004ff0ff3006e0002313604ff0000bc2f871
:1019880004b00020bde8f08fb8f1000fc8bf0026f2
:04199800cfdcd9e7e0
:020000040000fa
:10199c00002950d0f8b50e4600284fd1294c012310
:1019ac0084f838300b686360db689847e060074662
:1019bc000021c300420f1b1a62eb0102550145eadc
:1019cc00d3655801181842eb05051f4a0023c019ae
:1019dc0045eb010101f0cefb0230206296f9043098
:1019ec002372002121614ff6ff73a36147f6ff7349
:1019fc00e36100220023c4e90a23616384f83010f8
:101a0c0063681b681148984763681b690bb1208b8e
:101a1c0098470c4ce06963685b6980b298476368cf
:101a2c005b689847a0220021094801f087fe022339
:101a3c0023702046f8bd4ff0ff3070474ff0ff3059
:101a4c00f8e700bf505a00200090d0033916000070
:041a5c00b05900205d
:020000040000fa
:101a6000f8b5002855d00546002955d00c682368e4
:101a700083421cbf002384f82430206094f8243073
:101a800022ea03061a4384f8242016f0010f0fd12e
:101a9000002716f0020f13d116f0080f19d116f017
:101aa000100f1fd116f0200f24d167bb3846f8bda8
:101ab0000123221dc168204601f02cf80746e8e703
:101ac000022304f108022969204601f023f80744a3
:101ad000e2e7082304f10c02a969204601f01af894
:101ae0000744dce71023e218e969204601f012f808
:101af0000744d7e7202304f11402296a204601f0a5
:101b000009f80744d1e7204600f070f96ff06e073e
:0e1b1000cce76ff0ac07c9e76ff0ac07c6e793
:020000040000fa
:021b1e0070470e
:020000040000fa
:101b20002de9f041294e2a4c4ff00108294f13e0ce
:101b3000226afab1616a236a40469847a36a013370
:101b4000226b934228bf002314e0a26aedb2bd5479
:101b5000a36294f83430fbb9337e13f0040f32d013
:101b6000b56aa36a0133226b934228bf0023e26a5d
:101b70009a42ddd0e26a9a42eed0726802f0070221
:101b8000012ae2d1a16a4a00e8b207f81100013245
:101b9000c5f30725bd54dbe701f0f2fc236a002bf7
:101ba000dad0616a94f83c3033b1a36b9842d3d356
:101bb000236a00209847cfe7a36b9842ccd1236ad1
:101bc00000209847c8e7bde8f08100bf000c004046
:081bd00090ff0120a01f00207e
:020000040000fa
:101bd8002de9f843054688469146284c042363605e
:101be80081609309013b0361254f03463e4653f844
:101bf800080f59689a68db680fc61021384600f04c
:101c08003afc4946404600f036fcbff35f8f276335
:101c180043f2040323601b4b6363ab6da363eb6d5b
:101c2800e3632b6e23646b6e6364ab6ea364eb6e2d
:101c3800e3642b6f23656b6f636501232361636026
:101c48002246d36913f00f0ffbd00c4b02225a60c7
:101c580004225a600b4c20212046fff75cffbff39b
:101c68005f8f0fcca865e9652a666b660fcca866fe
:101c7800e9662a676b670020bde8f883002c0042fc
:081c880080ff012000ff012094
:020000040000fa
:101c90002de9f8432a4b5a6b59691961002a40d043
:101ca0009368b3f5004f33d3254b5b6947f6ff7458
:101cb000002514eb030845f10009214e73689b6968
:101cc000984782b200233169814206d94ff6ff71ed
:101cd00052184ff0000141eb03031949096a5618e5
:101ce00043f10007b94508bfb04524d20a44144b5c
:101cf000da61134bdb699bb213b9114b0122da6134
:101d00000f4bd8695b685b6980b29847bde8f88380
:101d100094680b4b5b69002514eb030845f100093f
:101d2000cbe7074b5b6947f6ff74002514eb03080c
:101d300045f10009c1e7024bc3f81c80d9e700bf99
:041d4000505a0020d5
:020000040000fa
:101d440070b582b0254d264c264e14e0f25c8df819
:101d54000620013322699a4298bf0023e3606b682e
:101d640003f00703012b14bf9df80630bdf80630bd
:101d7400ab62237dbbb92b7e13f0010f2cd0a2687c
:101d8400e3689a4225d06a6802f00702012addd18d
:101d94005a0016f813108df806100132b25c8df853
:101da40007200133d6e701f069fc2368002be2d059
:101db4006168237f33b1a3699842dcd3236803208d
:101dc4009847d8e7a3699842d5d123680320984758
:101dd400d1e7024b01221a7502b070bd000c00401d
:081de40090ff0120a033002054
:020000040000fa
:101dec00002850d010b5044690f8243013f0010fa1
:101dfc0017d194f8243013f0020f1dd194f824302d
:101e0c0013f0080f23d194f8243013f0100f29d1bc
:101e1c0094f8243013f0200f2fd1002384f82430b1
:101e2c0010bd406808b101f031fd94f8243023f066
:101e3c00010384f82430dce7a06808b101f026fd2a
:101e4c0094f8243023f0020384f82430d6e7e068b9
:101e5c0008b101f01bfd94f8243023f0080384f83a
:101e6c002430d0e7206908b101f010fd94f824303b
:101e7c0023f0100384f82430cae760690028ccd022
:081e8c0001f004fdc9e77047f5
:020000040000fa
:101e94002de9f041adf6f82d06460f461446984656
:101ea40002ad019528220021284601f04bfc0cab21
:101eb400ab610523eb61acb3beb30023a360424620
:101ec4003946204600f0dafa0546f8b9ddf8103b49
:101ed400e360d4f8b83813f1020f0ad0434622461f
:101ee4003946304600f01efc05466ff4877398426d
:101ef4000cd104f5d266304601f0bafc054650b167
:101f0400304601f001fd0198fff76eff28460df6fb
:101f1400f82dbde8f0813b2201a92069fff79efd61
:101f24000546ede76ff0ac05f0e76ff0ac05ede7c3
:020000040000fa
:101f340070b582b005460c46826fc36fdb0043ea7e
:101f44005273d100180e8df80000180c8df80100a2
:101f5400180a8df802008df803300b0e8df804304a
:101f64000b0c8df805300b0a8df806308df8071030
:101f740002f03f02372a94bfc2f13802c2f178025c
:101f8400d2b211492846fff755f908226946284676
:101f9400fff750f92b4653f8586f58689968da6878
:101fa40026606060a160e2601e6958699969da6917
:101fb40026616061a161e26100221146284600f0b9
:0c1fc4000bfb02b070bd00bf84230000c6
:020000040000fa
:101fd00030b32de9f0418646204b5a6bd0f808808b
:101fe000c2b193684046002198451bd300240025c8
:101ff0009368e41845f100059369dbb1d3f808c094
:1020000014eb0c0645f10007b94208bfb04211d3ea
:102010001a46ede7c0f80880104b586301201ae01b
:10202000002070470d4bc3f834e0cef81820002490
:10203000012004e0cef81830c2f818e00020a8eb28
:102040000404cef80840def8183023b1def808109a
:102050009a68521a9a60bde8f08100bf505a002079
:020000040000fa
:1020600008b5194b9847194b9847eff3108172b692
:10207000174ad2f8883043f47003c2f88830bff3af
:102080004f8fbff36f8f01b962b6124a936823f086
:10209000010393601346da6812f0010ffbd10d4b78
:1020a00024225a6001229a6000f0d0fd0a4b23f0ee
:1020b0007f03074a9360094b9847094b9847094ba0
:1020c000984701f09efbfee7c93400006b25000035
:1020d00000ed00e00020004100000000b5280000f5
:0820e0006b2500006b250000d8
:020000040000fa
:1020e80038b51a4b93f9000000b138bd184c3022ae
:1020f8000021204601f024fb164d2c605b23237041
:102108004cf2010323812046134b98472a68138910
:10211800002bfdd11169114b994206d00b4bff22c0
:102128001a700a4b93f90000dfe791690c4b99424a
:1021380003d0064bfe221a70f3e7d269094b9a4284
:10214800024b14bffd2201221a70eae7bcfe0120ef
:1021580088fe0120b8fe0120550000020001070496
:08216800d2dd706e4fd6c825d0
:020000040000fa
:10217000f0b583b005460c4616461f460023019372
:1021800000930b466a4601a901f042fa00282adbb7
:10219000019b009a1344a34228d1234601aa294651
:1021a000304600f038fc002823db234601aa2946ec
:1021b000384600f030fc002806db019ba34208bf34
:1021c000002007d103b0f0bd304601f065fb6ff091
:1021d000aa00f7e7304601f05ffb384601f05cfbf0
:1021e0006ff0aa00eee76ff0aa00ebe76ff0aa002d
:0821f000e8e76ff0aa00e5e743
:020000040000fa
:1021f8002de9f0414ff088431c6a04f400049a6901
:1022080042f400329a610a21144801f07bfa144b17
:10221800013bfdd1134b00221a70134b1968134868
:1022280001f01efb00f0eeff01f0dcf8dff844805f
:102238000c4d0f4f08e0a8f800600be00b21384662
:1022480001f060fafff704f945f2437601f019f955
:10225800002cf0d12b78002bf8d0efe7940c00007d
:10226800ffff020021ff0120bc5a00208138000036
:08227800a00c00000205004467
:020000040000fa
:102280002de9f0411c4ad36a956a89b30e46ab42e8
:1022900008bf002227d00122dff864c0174ca0f14c
:1022a000020e0138144f0ce0e15c81540133396bac
:1022b000994298bf0023b24214d2511cab4212d0b3
:1022c0000a46dcf8041001f007010129ecd159009d
:1022d00014f813800ef812800131615c00f81210be
:1022e0000133e4e71d46044bdd621046bde8f08192
:1022f0001d460a46f7e700bf90ff0120a01f0020ff
:04230000000c00408d
:020000040000fa
:102304001c4b1d4a1a604ff6a0029a814ff44032ca
:102314005a601a46d369002bfcd1164a136843f05d
:1023240002031360d369002bfcd1144b00221a6200
:102334009a62da6283f8342083f83c209a63da875d
:102344001a609a60da601a751a779a61094b5b68a9
:1023540003f00703012b094b14bf4ff4a0524ff4b1
:1023640020621a631a61034b80229a7504229a75bb
:10237400704700bf000c00400401124090ff012090
:020000040000fa
:1023840080000000000000000000000000000000c9
:102394000000000000000000000000000000000039
:1023a4000000000000000000000000000000000029
:1023b4000000000000000000000000000000000019
:1023c4000000000000000000000000000000000009
:1023d40000000000000000000000000000000000f9
:1023e40000000000000000000000000000000000e9
:1023f40000000000000000000000000000000000d9
:020000040000fa
:10240400f0b40c6800251560661c9e4229d8051995
:10241400005d10f0800f0bd13746049c14b1c41931
:102424009c4227d80f60002800dd1060f0bc704784
:1024340000f07f0037189f4216d8042817d868b1d7
:102444002c460544002014f8016f46ea0020ac42f3
:10245400f9d10028e1da6ff08b00e7e73746002076
:10246400e0e76ff08300e1e76ff08300dee76ff0f1
:0a2474008b00dbe76ff08300d8e770
:020000040000fa
:02247e007047a5
:020000040000fa
:1024800060b370b4064600290bdd422929dc73686d
:10249000b3f1ff3f28d000237360336115481c243b
:1024a0000ae0002af3da6ff0ac0012e0a14208dd86
:1024b000013350f8344f74b1002af7dd4568954276
:1024c000f6d19cb173600b4a342101fb03233361c5
:1024d000002070bc70476ff0ab00fae76ff0ac0003
:1024e00070476ff0a900f4e70020f2e76ff0ab004f
:0824f000efe700bf001100003e
:020000040000fa
:1024f8002de9f04395b01d9d55b31e46914688467b
:102508000746d5f8b80800f01ffe044618b343681c
:1025180023b32c22002109a801f012f90323019307
:10252800052302930397cdf81080cdf814900696f2
:102538001c9b079308956368a26801a920689847bf
:1025480010f1ae0f08bf6ff4877015b0bde8f083c7
:102558006ff48770f9e76ff48770f6e76ff48770a8
:02256800f3e797
:020000040000fa
:02256a007047b8
:020000040000fa
:10256c00194bda6822f4e0621204120c42f0bf62da
:10257c0042f40032da60bff35f8f62b6134ae02197
:10258c0082f803130820106082f80c134ff480506b
:10259c00106082f813134ff40020106082f81613a9
:1025ac004ff4800111605a6a42f480225a625a69cf
:1025bc0042f010025a615a6a42f400325a625a6a64
:1025cc0042f480325a62704700ed00e000e100e016
:020000040000fa
:1025dc0010b504465822002101f0b0f804232373ef
:1025ec004ff00003012262f3061363730d4ba365d6
:1025fc0003f1ee5303f5052303f65163e3650a4b30
:10260c0023660a4b63660a4ba3660a4be3660a4bc6
:10261c0023670a4b636700220023c4e91e230020b2
:10262c0010bd00bf6a09e6673c6ef372a54ff53a20
:10263c00510e527f9b05688c1f83d9ab5be0cd1983
:020000040000fa
:10264c0070b505460c46164601f046f8b6f5087fff
:10265c0004dda6f508734ff408761c44f31c9b08a4
:10266c002b60002e09dd06f108032b44a21914f887
:10267c00011b03f8011d9442f9d12a68b2b1531e13
:10268c00511c55f8211059b9013205eb820200e0ba
:10269c0003464bb1581e52f8041d0029f8d02b608c
:1026ac006b686b60002070bd00232b600023f8e783
:020000040000fa
:1026bc0070b582b006460d46144601220192009375
:1026cc0023460a46022100f049f9002820db236842
:1026dc00012b1cdd2b68f25cff2a0fd0e2b9013311
:1026ec002b602368013b2360002b13dd2b68f35612
:1026fc00002bb4bf00206ff08b0009e01e4496f94c
:10270c000130002bb4bf6ff08b00002000e00020e4
:0c271c0002b070bd0020fbe70020f9e7d0
:020000040000fa
:102728004ab32de9f04194b0144698460f46064640
:10273800d2f8b80800f008fd0546f8b1436803b3bd
:102748003422002107a800f0fbff0323019309238b
:102758000293039604970594cdf818806b68aa68cd
:1027680001a92868984710f1ae0f08bf6ff4877069
:1027780014b0bde8f0816ff4877070476ff487700c
:08278800f6e76ff48770f3e738
:020000040000fa
:1027900002680b689a4220dc21db531e22d430b43d
:1027a0009c1c50f8245051f82440a5421cd81dd33d
:1027b0009200043210441144013bb3f1ff3f09d0b1
:1027c00050f8044d51f8042d944212d8f4d24ff031
:1027d000ff3000e0002030bc7047012070474ff010
:1027e000ff307047002070470120f4e74ff0ff30c2
:0627f000f1e70120efe714
:020000040000fa
:0227f600fee7fc
:020000040000fa
:1027f80008b5134b9847fef7e1fb124a136823f418
:102808009f7323f0010343f011031360fef7ebfffe
:10281800fef70dfffff772fd00f060fa00f02efbe7
:1028280000f020ff08490020fff7b4f8074b1860b4
:1028380000f040ff01f026f8fff794fe08bd00bf46
:10284800cd5a002000240144d4380000b85a002092
:020000040000fa
:10285800154b5a6b1ab310b40146824204d18369ee
:10286800abb1002206e01a469369d3b19942fad176
:102878008b6923b18c689868204498604ab18b6949
:102888009361002000238b615df8044b70471a4662
:10289800f4e7054b5a6b92695a630120f2e700206e
:0c28a80070470020f0e700bf505a0020ed
:020000040000fa
:1028b4000e4a38b5002313600d4a0e4c13600e4abd
:1028c4000e4d13600e4a13600e4a13600e4a536293
:1028d40013610123936000f0f4fd00f0f2fdac42bb
:1028e40000d338bd54f8043b9847f8e7c45a002095
:1028f40030ff01200c0100002cff0120100100001a
:0c29040024ff012028ff012034ff0120e7
:020000040000fa
:1029100008b5144b9b7df3b1124a137edbb2927d56
:1029200012f0800f18d10f4a137edbb2927d12f0a5
:10293000010f04d013f0010f01d0fff703fa094a89
:10294000137edbb2927d12f0040f04d013f0040f5b
:1029500001d0fff7e5f808bd13f0800fe3d000f0d9
:082960004ff9e0e7000c004014
:020000040000fa
:10296800f0b587b006460d4614461f461368059312
:102978000c9b0df1130205a900f034fb98b99df8e2
:102988001330ab4212d10d9b00930c9b03aa05a9ef
:102998003046fff733fd00280bdb03983860059bb2
:1029a800236007b0f0bd6ff08b00fae76ff08b0083
:0829b800f7e76ff08b00f4e774
:020000040000fa
:1029c0002de9f8438146144621f00f0812f00f0f4d
:1029d00008d0524204f00f0302f00f0258bf5342d6
:1029e000e41a1034254604eb08014f1b09eb0400e0
:1029f000461b002d0add00f0e5fe0028fbd139461c
:102a0000304600f06ffc20b1103dece70020bde83f
:062a1000f8830120fbe742
:020000040000fa
:102a160070b582b006460c461546126801926a46a3
:102a260001a92046fff747fe034610b1184602b03b
:102a360070bd304600f01bff90b9009a0199214401
:102a4600304600f064ff034620b9019a00990a4413
:102a56002a60ebe7304600f01cff6ff08d03e5e7d8
:062a66006ff06d03e2e7d2
:020000040000fa
:102a6c002de9f04180460f46164600f0adfe3d467e
:102a7c00d7b100250ae0b34216d80121fff7fafbc3
:102a8c000b4b00221a700135af420dd008eb05003c
:102a9c00074b1b78002bf0d13446054901330a78db
:102aac00002ae8d1a342f9d92846bde8f08100bf3d
:042abc00bdfe01203a
:020000040000fa
:102ac000f0b4124b1880124800f5806700221646b9
:102ad00041f2210506e040f8043f02f5807292b20f
:102ae000b84210d011460824334683ea010c1cf486
:102af000004f14bf85ea43035b009bb2490089b2d3
:102b0000013cf2d1e7e7f0bc704700bfbefe0120f8
:042b1000ac5700209e
:020000040000fa
:102b14002de9f041046ac569ac421ed21f4616462f
:102b2400884605468069631c2b624ff40a7303fbd5
:102b34000400106000f09cfe034610b11846bde886
:102b4400f08195f824301f4385f824701022414603
:102b54003068fef779f90346f0e76ff0a903ede773
:020000040000fa
:102b64002de9f04105460e46144698469df8187026
:102b74000a46002100f0e6fd3046464528bf40469f
:102b840057b938b1013d231814f8016b05f8016fea
:102b9400a342f9d1bde8f0810028fbd005442318f5
:0e2ba40014f8016b05f8016d9c42f9d1f2e7bf
:020000040000fa
:102bb200f0b170b582b0044615460e4640f60412d6
:102bc200002100f0c0fd0023c4f8b858019300931f
:102bd20004f58d6304f5107204f1180104f5d26056
:102be20000f06ff9034638b96661184602b070bd4d
:0e2bf2006ff0ac03184670476ff07c03f5e7f8
:020000040000fa
:102c000008b5104b5b8b13f0070300d108bd0e4acb
:102c1000d3870c4b80221a7607225a831b7e13f02f
:102c2000040f05d0074b9a6a1a7e12f0040ffad1ee
:102c3000054b1b6a002be9d0034b596a1b6a022023
:0c2c40009847e3e7000c004090ff0120e3
:020000040000fa
:102c4c0070b50e4b0e4a0021934208d30d480e4d21
:102c5c004ff6ff76016829b943681bb970bd03f8bc
:102c6c00011bf1e783684268334000f10c0455f80e
:102c7c0023302046984704eb8000ebe7000000204f
:0c2c8c0000000020ac0c000034370000f9
:020000040000fa
:102c98002de9f0414768d1f80480474510d0044633
:102ca8000d461646fff770fdb0f1ff3f0cd0776078
:102cb800324629462046fef729fd0020bde8f0816e
:102cc8005760fef743fcf9e7c6f804803246214610
:0a2cd8002846fef71bfd0020f0e780
:020000040000fa
:022ce200fee70b
:020000040000fa
:102ce4000e4b01221a601a46136913f0010ffbd12f
:102cf4000a4b4ff4a3621a6003221a7304225a7116
:102d0400074ada6133229a72064a002111600122cd
:102d14005a721a461369002bfcd170470014004004
:082d2400bf270900b05a00208e
:020000040000fa
:102d2c00104b0822c3f88020bff34f8fbff36f8f77
:102d3c004ff48052c3f88020bff34f8fbff36f8fd7
:102d4c004ff48002c3f88020bff34f8fbff36f8f17
:102d5c004ff40022c3f88020bff34f8fbff36f8f67
:082d6c00704700bf00e100e028
:020000040000fa
:102d740070b582b0069d079c88b1064692b1a5b194
:102d8400b4b1d4f8b80810f1020f02d1002002b097
:102d940070bd304601940095fff7acfbf7e76ff088
:102da400a900f4e76ff0a900f1e76ff0a900eee7de
:062db4006ff0a900ebe73f
:020000040000fa
:022dba00fee732
:020000040000fa
:102dbc0038b5044600f0ccfc002c16db63090c493a
:102dcc0051f8235004f01f04e54005f001050122e1
:102ddc0002fa04f4203341f82340bff34f8fbff3c2
:102dec006f8f00f0befc284638bd0025f9e700bf08
:042dfc0000e100e012
:020000040000fa
:102e00003031323334353637383941424344454620
:102e10004748494a4b4c4d4e4f50515253545556ca
:102e20005758595a6162636465666768696a6b6c72
:102e30006d6e6f707172737475767778797a2b2fe7
:042e4000000000bfcf
:020000040000fa
:102e440010b5054c227832b9044b13b10448aff3e2
:102e540000800123237010bdd0ff0120000000007a
:102e64000000000008b5034b1bb103490348aff34e
:102e7400008008bd00000000d4ff01200000000015
:020000040000fa
:102e84000d4b01221a601a46136913f0010ffbd18e
:102e9400094b10221a6003221a734ff6ff129a8309
:102ea40033229a72054a0021116020225a721a466e
:102eb4001369002bfcd1704700200040a85a002061
:020000040000fa
:102ec400f8b50c4617461e46069d08b100f008fcee
:102ed40014b1204600f004fc17b1384600f000fca1
:102ee40016b1304600f0fcfb15b1284600f0f8fba3
:0e2ef400079b13b1184600f0f3fb0020f8bd59
:020000040000fa
:022f0200fee7e8
:020000040000fa
:102f0400431e13f1030f0fd883b2042b0ed80a4ac1
:102f140002eb4312d26982420ad15a0106498a5c01
:102f240042b101eb43107047002070470020704706
:0c2f34000020704700207047b0590020ba
:020000040000fa
:102f400010b5044600f036f8b0b12046fff7daffbe
:102f5000044678b1437843b900202075607520702d
:102f6000044600f00dfa204610bdfff775fc002363
:0c2f70006370f1e70124f4e70124f4e7aa
:020000040000fa
:102f7c00a1b110b40a4b1b8841180a4c10f8012b54
:102f8c0082ea132254f8222082ea03239bb288425d
:102f9c00f4d1034a13805df8044b7047704700bfaf
:082fac00befe0120b057002019
:020000040000fa
:102fb4000c4b93f830309bb90a4b93f83830012b03
:102fc40001d00020704710b5064c002384f8383037
:102fd40094f90800fff7f0fe84f83100012010bdd9
:082fe40001207047505a002043
:020000040000fa
:102fec006ab130b4154669b178b10c68621c9a426a
:102ffc000ed8035d2b700a60002030bc70476ff058
:10300c00ac0070476ff0ac00f7e76ff0ac00f4e782
:06301c006ff08300f1e7f4
:020000040000fa
:1030220038b505460c46c0f30b037bb964b100f01a
:10303200c8fb0028fbd1284600f0fdfb40b1013c53
:10304200a4b205f58055f1e7002000e0022038bd6a
:043052000120fce776
:020000040000fa
:02305600fee793
:020000040000fa
:103058000010000400000001000010000200000041
:103068000c3400000000f000583600000100000099
:1030780028390000fe0fffff00000000ffffff0fd0
:04308800ffffffff48
:020000040000fa
:10308c00abb1f0b405461e46043a002402e001340c
:10309c00b44209d052f8040f4368ab42f7d84769e1
:1030ac003b448b42f3d300e00020f0bc704700207f
:0230bc0070475b
:020000040000fa
:0230be00fee72b
:020000040000fa
:1030c00038b5eff3108572b6084c20634ff4804397
:1030d00063600f2262601140a160a36000f03ef9be
:1030e0004ff40043a36085f3108838bd0006004408
:020000040000fa
:1030f0004ff088430022c3f8b020084ac3f8b0203c
:1031000002f12b42a2f54b12a2f6ab42c3f8b0205b
:1031100003f5206301229a641b6cfee7556699aaa9
:020000040000fa
:103120000a4b5b6b73b168b1002105e09a68801aa5
:1031300099609b6933b128b19a688242f6d39a6844
:10314000101a9860014b5a691a617047505a002052
:020000040000fa
:103150000a4b1b6898420ad0084a0123d168814271
:1031600006d001330c32082bf8d100207047002321
:1031700003eb4303014800eb8300704728fe012066
:020000040000fa
:1031800053b94ab9002908bf00281cbf4ff0ff31ce
:103190004ff0ff3000f0ccbbadf1080c6de904ce70
:1031a000fdf748fbddf804e0dde9022304b07047d9
:020000040000fa
:1031b00070b505460c461646fef796ff002808db5c
:1031c0006368052b08d1324621462846fdf78ef963
:0e31d00070bd6ff48770fbe76ff48770f8e74f
:020000040000fa
:1031de0070b506460d461446fff7b3ff034620b101
:1031ee001e605d609c60002070bd6ff00100fff7f7
:0e31fe00a8ff03460028f3d16ff08300f4e72a
:020000040000fa
:10320c00094a136823f002031360136913f0020fc9
:10321c00fbd1054a136843f002031360136913f0e2
:0c322c00020ffbd1704700bf00140040ef
:020000040000fa
:1032380008b5084b5b7a63b1064b987ac0b2332263
:103248009a72054b1b6823b118b1034b59681b6868
:0c325800984708bd00140040b05a002048
:020000040000fa
:1032640093b1f8b51f4616460d460446002128467c
:1032740000f068fa3346224629460020b847002861
:0a3284000cbf28460020f8bd70477b
:020000040000fa
:10328e0070b5adf50a7d04460e461546684600f04b
:10329e0022fa3146684600f0ccf92a4669462046a5
:0a32ae00fff7f3fc0df50a7d70bd7b
:020000040000fa
:1032b800012911d930b44d080139014401380023de
:1032c8000a7810f8014f01f8014902700133dbb2a6
:0a32d800ab42f5d330bc70477047dd
:020000040000fa
:0232e200fee705
:020000040000fa
:1032e40008b5024608461168064b19645168196509
:1032f40091681966d2681a670221fff7dffe012080
:0833040008bd00bf00060044f3
:020000040000fa
:10330c00084a537943f080035371136913f0040f87
:10331c00fbd1044a537913f0e00ffbd1014b988a8f
:08332c00704700bf00200040c3
:020000040000fa
:1033340008b510b1012805d008bd0621044800f0e5
:10334400e3f9f9e70621034800f0def9f4e700bfea
:08335400f00a0000f80a000075
:020000040000fa
:10335c00064b00221a62064a1a6202f12b42a2f5af
:10336c004b12a2f6ab421a62704700bf0006004433
:04337c00556699aa4f
:020000040000fa
:1033800010b5074c94f8311094f9080000f04ef88d
:1033900094f8303013b9012284f8382010bd00bff2
:0433a000505a00205f
:020000040000fa
:1033a400074b00221a609a815a601a46d369002b8f
:1033b400fcd1034bbf221a7500221a76704700bf56
:0433c400000c0040b9
:020000040000fa
:1033c80008b50b68032b06d14b68043b012b05d8c5
:1033d800fff7eafe08bd6ff48770fbe76ff48770ac
:0233e800f8e704
:020000040000fa
:0233ea0070472a
:020000040000fa
:1033ec0008b50121084600f0d1f8012000f024fabc
:1033fc000021024800f026fa08bd00bfa5370000e6
:020000040000fa
:10340c0000000001ffff07000000000001000000a9
:10341c0000008001ffff0700000000000100000019
:020000040000fa
:10342c0051b1002808db420900f01f00012303fa08
:10343c0000f0024b43f82200704700bf00e100e0af
:020000040000fa
:10344c0008b5064b1b7813b1012b04d008bd034bf8
:10345c0001221a70fae7fef7c9fe00bfc85a002015
:020000040000fa
:10346c0000230360436000f1080200f50a7019465e
:0e347c00134603f8011b1a468342f9d170472c
:020000040000fa
:10348a0000b58db0684600f076f9009b23b19df82f
:0e349a002c10684600f0bef90db05df804fb82
:020000040000fa
:1034a80010b50023934206d113f0030018bf012082
:0e34b80000eb930010bdc45ccc540133f2e76e
:020000040000fa
:0234c60070474d
:020000040000fa
:1034c80008b5044b1b6b13f4806f02d0024b1b68ca
:0c34d800984708bd000a004404020001ef
:020000040000fa
:1034e4005d380000b1350000c9350000bd3800006a
:0c34f40095360000a93600000d330000e2
:020000040000fa
:1035000030b501390024a24206d0035d01340d5dbf
:0c351000ab42f8d0581b00e0002030bd9a
:020000040000fa
:10351c005ab110b40a44431e11f8014b03f8014f81
:0c352c009142f9d15df8044b70477047e4
:020000040000fa
:1035380008b500f051f8034b00221a70fff762fe3d
:0835480008bd00bf21ff0120b6
:020000040000fa
:1035500008b5044b1b681bb1024b58681b689847a1
:0835600008bd00bf74ff01204b
:020000040000fa
:10356800044a9368d06883423ebf024a12699b1896
:08357800181a704790ff0120b2
:020000040000fa
:10358000044bd86a9b6a984282bf024a126b9b180e
:08359000181a704790ff01209a
:020000040000fa
:10359800044b93f8342083f8340083f83c10104629
:0835a800704700bf90ff0120f5
:020000040000fa
:1035b000044a136843f002031360136913f0020f07
:0835c000fbd170470020004020
:020000040000fa
:1035c800044a136823f002031360136913f0020f0f
:0835d800fbd170470020004008
:020000040000fa
:1035e000044a136823f002031360136913f0020ff7
:0835f000fbd1704700140040fc
:020000040000fa
:1035f800044b1b69834232bfc01ac3f58033c0181d
:08360800704700bf505a00207a
:020000040000fa
:1036100010b582b001240194009313460a4630216c
:08362000fff7a2f902b010bd92
:020000040000fa
:10362800037833b1034613f8012f002afbd1181a87
:0836380070471846704700bfff
:020000040000fa
:1036400038b505460c4600f04df8ac60003418bfa4
:0636500001242c6038bdce
:020000040000fa
:10365800ab380000c1290000f53700002330000016
:043668002339000002
:020000040000fa
:10366c0008b5034b186b0021fff724fd08bd00bf04
:04367c000006004400
:020000040000fa
:1036800010b5034b1c69fff76fff013c201a10bdfa
:0436900090ff012086
:020000040000fa
:10369400034b98831a46136913f0400ffbd170470c
:0436a40000200040c2
:020000040000fa
:1036a800034bd8831a46136913f0800ffbd1704778
:0436b80000200040ae
:020000040000fa
:1036bc0008b5002202491046fff78bfd08bd00bf7c
:0436cc00c9330000fe
:020000040000fa
:1036d00010b5044600f022f9024600212046fef70c
:0436e0007dff10bd9d
:020000040000fa
:1036e40008b50021016041604ff40872083000f011
:0436f40029f808bdec
:020000040000fa
:1036f80008b50021016041604ff40872083000f0fd
:043708001ff808bde1
:020000040000fa
:10370c0008b5034b1b7803b108bdfef76bf8fbe75c
:04371c0020ff012069
:020000040000fa
:1037200000b5adf6b44d01a902f0a2f90df6b44d05
:043730005df804fb41
:020000040000fa
:1037340093370000a93400002d3900002d39000012
:043744002d3900001b
:020000040000fa
:1037480032b1c9b20244034603f8011b9342fbd1cc
:04375800704700bff7
:020000040000fa
:10375c00eff3108072b6bff35f8fb0fa80f04009c0
:02376c007047a4
:020000040000fa
:10376e0018b1bff35f8f62b6704772b6bff35f8f4b
:02377e00704792
:020000040000fa
:1037800010b5044600f096f82060012384f82c3030
:0237900010bd6a
:020000040000fa
:103792000a440023914201d10020704701f8013b05
:0237a200f8e746
:020000040000fa
:1037a40010b9024b01221a70704700bfbdfe012000
:020000040000fa
:1037b40008b513460a461946fff7aefe012008bdb8
:020000040000fa
:1037c400024b1868c0f3c030704700bf00060044c5
:020000040000fa
:1037d400024bd88f0022da87704700bf90ff012088
:020000040000fa
:1037e40010b582b000240094fef752fb02b010bd65
:020000040000fa
:0e37f40008b508461946fff7dbff002008bda8
:020000040000fa
:0e38020008b50020fef7f7ff00f067f8fce7be
:020000040000fa
:0e381000a0f16103192b98bf00f05f00704714
:020000040000fa
:0c381e0008b511b108b1fcf780fc08bd32
:020000040000fa
:0c382c00014b1888704700bfbefe012051
:020000040000fa
:0c38380008b50421fff740fc012008bd8a
:020000040000fa
:0c38440008b1014a9063704790ff01201a
:020000040000fa
:0c385000014b18625962704790ff012084
:020000040000fa
:0c385c00014b186059607047a85a00200a
:020000040000fa
:0c386800014b186059607047b05a0020f6
:020000040000fa
:0c38740008b508b1fff734ff002008bdc4
:020000040000fa
:0c388000014b01221a70704721ff01204b
:020000040000fa
:0c388c00014b00221a707047c85a00203f
:020000040000fa
:0a38980008b508b1fff72cff08bdca
:020000040000fa
:0838a20008b5fdf7a4ff08bd05
:020000040000fa
:0838aa0008b5fff7defe08bdc2
:020000040000fa
:0838b400004870475830000085
:020000040000fa
:0838bc00004870470090d003a2
:020000040000fa
:0838c40008b5fff749ff08bd3c
:020000040000fa
:0838cc0008b5fff74eff08bd2f
:020000040000fa
:0838d400e434000016000000be
:020000040000fa
:0838dc0008b5fff7b5fd08bdba
:020000040000fa
:0838e4002a8648ce3d030104d1
:020000040000fa
:0838ec002b810400210000bf44
:020000040000fa
:0838f4002a8648ce3d030107be
:020000040000fa
:0838fc002b810400220000bf33
:020000040000fa
:083904002b810400230000bf29
:020000040000fa
:08390c0008b5fff7adfd08bd91
:020000040000fa
:0839140008b5fef799fe08bd9d
:020000040000fa
:06391c006ff0010070478e
:020000040000fa
:0439220000207047ca
:020000040000fa
:043928005300c4097b
:020000040000fa
:04392c0000207047c0
:020000040000fa
:04393000704700bf1d
:020000040000fa
:1050000010b54ff08843d3f8e04024f03002c3f8e5
:10501000e02068b1012810d000204ff08843c3f889
:10502000e040013810f1030f8cbf0020012010bdbb
:105030004ff0807000f01cfdefe74ff0847000f03f
:0450400017fdeae787
:020000040000fa
:1050440053454350323234523100000046464646fe
:1050540046464646464646464646464646464646ec
:105064004646464646464646464646463030303034
:10507400303030303030303030303030303030302c
:10508400303030310000000046464646464646462b
:1050940046464646464646464646464646464646ac
:1050a400464646464646464546464646464646469d
:1050b400464646464646464646464646464646458d
:1050c400000000004234303530413835304330344c
:1050d4004233414246353431333235363530343457
:1050e40042304237443742464438424132373042f4
:1050f4003339343332333535464642340000000008
:10510400464646464646464646464646464646463b
:105114004646464646464646464646463136413269
:1051240045304238463033453133444432393435de
:1051340035433543324133440000000042373045a3
:1051440030434244364242344246374633323133a6
:1051540039304239344130334331443335364332c4
:1051640031313232333433323830443631313543ed
:10517400314432310000000042443337363338388a
:10518400423546373233464234433232444645365a
:10519400434434333735413035413037343736348e
:1051a400343444353831393938353030374533348f
:1051b400000000005052494d453233395631000049
:1051c400374646464646464646464646464646468a
:1051d400464646464646464637464646464646467a
:1051e400464646463830303030303030303030305b
:1051f4003746464646464646464646460000000072
:105204003746464646464646464646464646464649
:105214004646464646464646374646464646464639
:10522400464646463830303030303030303030301a
:105234003746464646464646464646430000000034
:1052440036423031364333424443463138393431bf
:1052540044304436353439323134373543413731cb
:105264004139444232464232374431443337373984
:10527400363138354332393432433041000000008e
:1052840037464646464646464646464646464646c9
:1052940046464646464646463746464646463945c7
:1052a4003545394139463544393037314642443140
:1052b4003532323638383930394430420000000053
:1052c4003046464139363343444341383831364316
:1052d4004343333342383634324245444639303519
:1052e4004333443335383537334433463237464213
:1052f40042443342334342394141414600000000b5
:1053040037444542453845344539304135444145b3
:105314003645343035344341353330424130343608
:1053240035344233363831384345323236423339f4
:105334004643434237423032463141450000000083
:1053440053454350323536523100000046464646f6
:1053540046464646303030303030303130303030f0
:105364003030303030303030303030303030303039
:105374003030303046464646464646464646464621
:1053840046464646464646464646464600000000d1
:105394004646464646464646303030303030303158
:1053a40030303030303030303030303030303030f9
:1053b4003030303030303030464646464646464639
:1053c400464646464646464646464646464646437c
:1053d4000000000035414336333544384141334100
:1053e4003933453742334542424435353736393807
:1053f4003836424336353144303642304343353310
:1054040042304636334243453343334532374432e0
:10541400363034420000000046464646464646467c
:1054240030303030303030304646464646464646c8
:10543400464646464646464642434536464141442c
:1054440041373137394538344633423943414332a1
:1054540046433633323535310000000036423137a9
:10546400443146324531324334323437463842438c
:1054740045364535363341343430463237373033a8
:105484003744383132444542333341304634413174
:105494003339343544383938433239360000000062
:1054a4003446453334324532464531413746394234
:1054b400384545374542344137433046394531361e
:1054c400324243453333353736423331354543452c
:1054d4004342423634303638333742463531463526
:1054e400000000005345435033383452310000006b
:1054f4004646464646464646464646464646464648
:105504004646464646464646464646464646464637
:105514004646464646464646464646464646464627
:105524004646464646464646464646464646464518
:1055340046464646464646463030303030303030b7
:1055440030303030303030304646464646464646a7
:1055540000000000464646464646464646464646ff
:1055640046464646464646464646464646464646d7
:1055740046464646464646464646464646464646c7
:1055840046464646464646464646464646464646b7
:105594004646464546464646464646463030303000
:1055a400303030303030303030303030464646469f
:1055b4004646464300000000423333313246413709
:1055c4004532334545374534393838453035364228
:1055d400453346383244313931383144394336451c
:1055e400464538313431313230333134303838464d
:1055f400353031333837354143363536333938442d
:1056040038413245443139443241383543384544d0
:105614004433454332414546000000004646464671
:105624004646464646464646464646464646464616
:105634004646464646464646464646464646464606
:10564400464646464646464646464646433736332b
:1056540034443831463433373244444635383141a2
:105664003044423234384230413737414543454370
:105674003139364143434335323937330000000072
:10568400414138374341323242453842303533376d
:10569400384542314337314546333230414437345b
:1056a400364531443342363238424137394239384b
:1056b4003539463734314530383235343241333870
:1056c4003535303246323544424635353239364343
:1056d4003341353435453338373237363041423744
:1056e4000000000033363137444534413936323610
:1056f40032433646354439453938424639323932ef
:1057040044433239463846343144424432383941cc
:1057140031343743453944413331313342354630ee
:1057240042384330304136304231434531443745c5
:1057340038313944374134333144374339304541c2
:105744003045354600000000534543503532315250
:1057540031000000314646464646464646464646e1
:1057640046464646464646464646464646464646d5
:1057740046464646464646464646464646464646c5
:1057840046464646464646464646464646464646b5
:1057940046464646464646464646464646464646a5
:1057a4004646464646464646464646464646464695
:1057b4004646464646464646464646464646464685
:1057c4004646464646464646464646464646464675
:1057d40046464646464646003146464646464646c0
:1057e4004646464646464646464646464646464655
:1057f4004646464646464646464646464646464645
:105804004646464646464646464646464646464634
:105814004646464646464646464646464646464624
:105824004646464646464646464646464646464614
:105834004646464646464646464646464646464604
:1058440046464646464646464646464646464646f4
:105854004646464646464646464643003531393571
:10586400334542393631384531433941314639328d
:105874003941323141304236383534304545413290
:10588400444137323542393942333135463342386f
:105894004234383939313845463130394531353675
:1058a4003139333935314543374539333742313668
:1058b4003532433042443342423142463037333545
:1058c400373344463838334432433334463145461b
:1058d40034353146443436423530334630300000b6
:1058e4003146464646464646464646464646464669
:1058f4004646464646464646464646464646464644
:105904004646464646464646464646464646464633
:105914004646464646464646464646464646464623
:1059240046464135313836383738334246324639bf
:1059340036364237464343303134384637303941be
:1059440035443033424235433942383839394334a7
:10595400374145424236464237314539313338368c
:1059640034303900433638353845303642373034f0
:10597400303445394344394533454342363632336e
:1059840039354234343239433634383133393035a9
:105994003346423532314638323841463630364263
:1059a4003444334442414131344235453737454626
:1059b400453735393238464531444331323741323f
:1059c400464641384445333334384233433138351d
:1059d400364134323942463937453745333143321b
:1059e40045354244363600003131383339323936a0
:1059f4004137383941334243303034354338413507
:105a040046423432433744314244393938463534d6
:105a140034343935373942343436383137414642f3
:105a240044313732373345363632433937454537d3
:105a340032393935454634323634304335353042df
:105a440039303133464144303736313335334337d7
:105a540030383641323732433234303838424539bf
:0c5a6400343736394644313636353000d0
:020000040000fa
:105a70002de9f04f9db005460c460caecb4f0fcf35
:105a80000fc60fcf0fc60fcf0fc697e80f0086e8df
:105a90000f0000230b932e46049305930693079360
:105aa000089309930a9302238df8243001238df87b
:105ab000253055238df82a30b5f1807f0dd0b5f112
:105ac000847f14bf022701273369013b13f1030fc1
:105ad00005d900201db0bde8f08f0027f4e74ff492
:105ae000007229462046fdf719fd0023a3602374a8
:105af0006374a374e374a3751c2204a92046fdf704
:105b0000fffc08b10020e5e704f5007a04f6043b49
:105b100004f60c4804f68c49fdf7d0fd20210ca8b2
:105b2000fdf7cafb202114a8fdf7c6fbab7d5bb9ce
:105b300095f82430002b40f0a8809d4b013bfdd10f
:105b4000306a00f50070c5e74046fdf7c1fd4ff42f
:105b5000007229462046fdf7e1fc002184f8b711c8
:105b6000482204f5dc70fdf7effd4ff4f67204f106
:105b700014014046fbf760fb49464046fcf7daf962
:105b80004046fdf732fcab7d012b61d0ab7d022b93
:105b9000ced1002211465046fdf70bf8072352469e
:105ba00020215846fdf71efe0df1300cbce80f0019
:105bb000c4f82002c4f82412c4f82822c4f82c32f5
:105bc000bce80f00c4f83002c4f83412c4f838221c
:105bd000c4f83c320823c4f818320023c4f81c323d
:105be0000df1500cbce80f00c4f84804c4f84c1484
:105bf000c4f85024c4f85434bce80f00c4f8580466
:105c0000c4f85c14c4f86024c4f864340823c4f8ed
:105c100040340023c4f844340123c4f86836c4f87f
:105c2000703695f8b711cdf804a00bab0093202384
:105c30004a4605f5dc70fdf79df803903846fdf700
:105c400079fb039bd3b91c215a48fdf75ffd6fe731
:105c50003846fdf76ffb202205f5dc714846fdf75d
:105c60004ffc20b91a215448fdf750fd8ee718214a
:105c70005248fdf74bfd4ff0ff302be71a215048fb
:105c8000fdf744fd4ff0ff3024e74046fdf720fdcf
:105c9000326a05f500714046fbf7cefa49464046a8
:105ca000fcf748f995f82430012b62d095f82430a0
:105cb000022b7ff442af002211465046fcf779ffd9
:105cc0000723524620215846fdf78cfd0df1300c7c
:105cd000bce80f00c4f82002c4f82412c4f828223b
:105ce000c4f82c32bce80f00c4f83002c4f83412f7
:105cf000c4f83822c4f83c324ff0080bc4f818b28c
:105d00004ff00008c4f81c820df1500cbce80f00e5
:105d1000c4f84804c4f84c14c4f85024c4f85434eb
:105d2000bce80f00c4f85804c4f85c14c4f860243c
:105d3000c4f86434c4f840b4c4f844840123c4f8fb
:105d40006836c4f8703695f82810cdf804a00bab6f
:105d5000009320234a4605f12900fdf70bf804467d
:105d60003846fdf7e7fad4b914211648fdf7cefc02
:105d7000e3e63846fdf7defa202205f12901484620
:105d8000fdf7befb20b915210f48fdf7bffc8de7dd
:105d900013210e48fdf7bafc4ff0ff309ae61221ae
:105da0000b48fdf7b3fc4ff0ff3093e6000b00000b
:105db000ffff0500780b00005c0b0000400b0000ab
:105dc000980b0000e00b0000c80b0000b40b0000b3
:045dd000f80b0000cc
:020000040000fa
:105dd40008b5084b5b7a63b1064b987ac0b233229c
:105de4009a72054b1b6823b118b1034b59681b68a1
:0c5df400984708bd00200040a85a00207d
:00000001FF
