:020000040000FA
:10000000F0FB012001010000732A00003B2C0000DE
:100010008B300000DF3100007B3200000000000068
:100020000000000000000000000000003B2900006C
:100030006B2E0000000000003B2900003B2900005F
:100040003B2900003B2900003B29000089360000C5
:100050003B2900003B2900003B2900003B29000010
:100060003B2900003B2900003B2900003B29000000
:10007000951100003B2900003B2900003B290000AE
:100080003B2900003B2900003B290000F133000020
:100090003B2900003B290000993300003B29000068
:1000A0003B2900003B2900003B2900003B290000C0
:1000B0003B2900003B2900003B2900003B290000B0
:1000C0003B2900003B2900003B2900003B290000A0
:1000D0003B2900003B2900003B2900003B29000090
:1000E000F8B500BFF8BC08BC9E467047F12F000071
:1000F000F8B500BFF8BC08BC9E467047CD2F000085
:1001000008B5194B9847194B9847EFF3108172B611
:10011000174AD2F8883043F47003C2F88830BFF32E
:100120004F8FBFF36F8F01B962B6124A936823F005
:10013000010393601346DA6812F0010FFBD10D4BF7
:1001400024225A6001229A6002F036F90A4B23F009
:100150007F03074A9360094B9847094B9847094B1F
:10016000984703F0D1FBFEE71D3600009B340000EA
:1001700000ED00E00020004100000000312B0000F5
:100180009B3400009B3400005345435031313252C0
:100190003100000044423743324142463632453353
:1001A00035453636383037364245414432303842AC
:1001B0000000000044423743324142463632453364
:1001C0003545363638303736424541443230383896
:1001D0000000000036353945463842413034333965
:1001E0003136454544453839313137303242323283
:1001F0000000000044423743324142463632453324
:100200003545373632384446414336353631433545
:100210000000000039343837323339393935413547
:100220004545373642353546394332463039380050
:10023000413839434535414638373234433041320D
:100240003345304530464637373530300000000002
:10025000534543503132385231000000464646463D
:100260004646464446464646464646464646464630
:100270004646464646464646464646460000000036
:100280004646464646464644464646464646464610
:100290004646464646464646464646464646464301
:1002A00000000000453837353739433131303739B0
:1002B0004634334444383234393933433243454584
:1002C000354544330000000046464646464646450E
:1002D00030303030303030303735413330443142D7
:1002E0003930333841313135000000003136314684
:1002F0004637353238423839394232443043323861
:10030000363037434135324335423836000000003D
:10031000434635414338333935424146454231330E
:100320004330324441323932444445443741383312
:100330000000000053454350313630523100000078
:10034000464646464646464646464646464646464D
:10035000464646464646464646464646464646463D
:100360003746464646464646000000004646464654
:10037000464646464646464646464646464646461D
:10038000464646464646464646464646374646461C
:100390004646464300000000314339374245464354
:1003A0003534424437413842363541434638394680
:1003B000383144344434414443353635464134358C
:1003C00000000000313030303030303030303030EC
:1003D00030303030303030303146344338463932C6
:1003E0003741454433434137353232353700000019
:1003F0003441393642353638384546353733323868
:10040000343636343639383936384333384242395F
:100410003133434246433832000000003233413624
:100420003238353533313638393437443539444349
:100430004339313230343233353133373741433554
:1004400046423332000000005345435031393252A6
:100450003100000046464646464646464646464623
:10046000464646464646464646464646464646462C
:10047000464646454646464646464646464646461D
:100480004646464600000000464646464646464624
:1004900046464646464646464646464646464646FC
:1004A00046464646464646454646464646464646ED
:1004B0004646464646464643000000003634323142
:1004C0003035313945353943383045373046413795
:1004D0004539414237323234333034394645423877
:1004E000444545434331343642394231000000002F
:1004F000464646464646464646464646464646469C
:1005000046464646464646463939444546383336D9
:100510003134364243394231423444323238333155
:100520000000000031383844413830454230333023
:100530003930463637434246323045423433413112
:1005400038383030463446463041464438324646E4
:10055000313031320000000037313932423935460E
:1005600046433844413738363331303131454436EB
:1005700042323443444435373346393737413131D9
:1005800045373934383131005345435032323452D3
:1005900031000000464646464646464646464646E2
:1005A00046464646464646464646464646464646EB
:1005B00046464646303030303030303030303030E3
:1005C00030303030303030303030303100000000EA
:1005D00046464646464646464646464646464646BB
:1005E00046464646464646464646464646464645AC
:1005F000464646464646464646464646464646469B
:1006000046464646464646450000000042343035E0
:10061000304138353043303442334142463534314D
:10062000333235363530343442304237443742463F
:10063000443842413237304233393433323335353E
:100640004646423400000000464646464646464678
:10065000464646464646464646464646464646463A
:1006600046464646313641324530423846303345BB
:1006700031334444323934353543354332413344E0
:100680000000000042373045304342443642423495
:1006900042463746333231333930423934413033D0
:1006A00043314433353643323131323233343332ED
:1006B00038304436313135433144323100000000A6
:1006C0004244333736333838423546373233464280
:1006D000344332324446453643443433373541306F
:1006E000354130373437363434344435383139399C
:1006F0003835303037453334000000005052494D12
:10070000453233395631000037464646464646465E
:100710004646464646464646464646464646464679
:1007200037464646464646464646464638303030C8
:100730003030303030303030374646464646464618
:100740004646464600000000374646464646464670
:100750004646464646464646464646464646464639
:100760003746464646464646464646463830303088
:1007700030303030303030303746464646464646D8
:10078000464646430000000036423031364333428D
:1007900044434631383934314430443635343932C3
:1007A00031343735434137314139444232464232A0
:1007B00037443144333737393631383543323934B9
:1007C0003243304100000000374646464646464622
:1007D00046464646464646464646464646464646B9
:1007E000374646464646394535453941394635440A
:1007F0003930373146424431353232363838393083
:100800003944304200000000304646413936334317
:100810004443413838313643434333334238363426
:100820003242454446393035433344333538353721
:1008300033443346323746424244334233434239EB
:1008400041414146000000003744454245384534A7
:1008500045393041354441453645343035344341DE
:10086000353330424130343635344233363831381E
:1008700043453232364233394643434237423032BF
:100880004631414500000000534543503235365251
:100890003100000046464646464646463030303037
:1008A0003030303130303030303030303030303047
:1008B00030303030303030303030303046464646E0
:1008C00046464646464646464646464646464646C8
:1008D00046464646000000004646464646464646D0
:1008E0003030303030303031303030303030303007
:1008F00030303030303030303030303030303030F8
:100900004646464646464646464646464646464687
:1009100046464646464646430000000035414336BB
:100920003335443841413341393345374233454209
:100930004244353537363938383642433635314416
:1009400030364230434335334230463633424345F6
:1009500033433345323744323630344200000000EE
:1009600046464646464646463030303030303030D7
:100970004646464646464646464646464646464617
:100980004243453646414144413731373945383491
:1009900046334239434143324643363332353531AB
:1009A000000000003642313744314632453132438F
:1009B0003432343746384243453645353633413490
:1009C0003430463237373033374438313244454299
:1009D0003333413046344131333934354438393892
:1009E0004332393600000000344645333432453254
:1009F000464531413746394238454537454234410D
:100A00003743304639453136324243453333353743
:100A10003642333135454345434242363430363829
:100A200033374246353146350000000053454350C8
:100A30003338345231000000464646464646464664
:100A40004646464646464646464646464646464646
:100A50004646464646464646464646464646464636
:100A60004646464646464646464646464646464626
:100A70004646464646464645464646464646464617
:100A80003030303030303030303030303030303066
:100A9000464646464646464600000000464646460E
:100AA00046464646464646464646464646464646E6
:100AB00046464646464646464646464646464646D6
:100AC00046464646464646464646464646464646C6
:100AD00046464646464646464646464546464646B7
:100AE00046464646303030303030303030303030AE
:100AF0003030303046464646464646430000000009
:100B00004233333132464137453233454537453438
:100B10003938384530353642453346383244313934
:100B20003138314439433645464538313431313234
:100B30003033313430383846353031333837354159
:100B400043363536333938443841324544313944F7
:100B500032413835433845444433454332414546B4
:100B6000000000004646464646464646464646463D
:100B70004646464646464646464646464646464615
:100B80004646464646464646464646464646464605
:100B90004646464643373633344438314634333795
:100BA00032444446353831413044423234384230A0
:100BB0004137374145434543313936414343433556
:100BC0003239373300000000414138374341323277
:100BD0004245384230353337384542314337314565
:100BE000463332304144373436453144334236326D
:100BF0003842413739423938353946373431453052
:100C00003832353432413338353530324632354476
:100C1000424635353239364333413534354533383C
:100C20003732373630414237000000003336313733
:100C300044453441393632363243364635443945F7
:100C400039384246393239324443323946384634EB
:100C500031444244323839413134374345394441D3
:100C6000333131334235463042384330304136300B
:100C700042314345314437453831394437413433C3
:100C80003144374339304541304535460000000096
:100C9000534543503532315231000000314646460B
:100CA00046464646464646464646464646464646E4
:100CB00046464646464646464646464646464646D4
:100CC00046464646464646464646464646464646C4
:100CD00046464646464646464646464646464646B4
:100CE00046464646464646464646464646464646A4
:100CF0004646464646464646464646464646464694
:100D00004646464646464646464646464646464683
:100D100046464646464646464646464646464600B9
:100D20003146464646464646464646464646464678
:100D30004646464646464646464646464646464653
:100D40004646464646464646464646464646464643
:100D50004646464646464646464646464646464633
:100D60004646464646464646464646464646464623
:100D70004646464646464646464646464646464613
:100D80004646464646464646464646464646464603
:100D900046464646464646464646464646464646F3
:100DA00046464300353139353345423936313845C9
:100DB000314339413146393239413231413042369D
:100DC000383534304545413244413732354239397E
:100DD0004233313546334238423438393931384577
:100DE000463130394531353631393339353145437E
:100DF0003745393337423136353243304244334256
:100E0000423142463037333537334446383833443D
:100E10003243333446314546343531464434364224
:100E20003530334630300000314646464646464669
:100E30004646464646464646464646464646464652
:100E40004646464646464646464646464646464642
:100E50004646464646464646464646464646464632
:100E60004646464646464646464641353138363879
:100E700037383342463246393636423746434330B6
:100E800031343846373039413544303342423543C6
:100E9000394238383939433437414542423646427F
:100EA0003731453931333836343039004336383507
:100EB000384530364237303430344539434439458B
:100EC000334543423636323339354234343239438E
:100ED000363438313339303533464235323146389D
:100EE000323841463630364234443344424141314F
:100EF000344235453737454645373539323846452A
:100F00003144433132374132464641384445333328
:100F10003438423343313835364134323942463938
:100F20003745374533314332453542443636000084
:100F30003131383339323936413738394133424328
:100F4000303034354338413546423432433744310A
:100F500042443939384635343434393537394234F6
:100F600034363831374146424431373237334536EB
:100F700036324339374545373239393545463432CB
:100F800036343043353530423930313346414430E0
:100F900037363133353343373038364132373243E1
:100FA00032343038384245393437363946443136B0
:100FB00036353000905A00201C0000000000000070
:100FC000BDFE01200100000000000000C45A002006
:100FD00014000000000000007CFF0120040000005D
:100FE00000000000A04700201010000000000000DA
:100FF000AC5A00201800000000000000B05700208C
:10100000000200000000000000000020A01F0000FF
:1010100000000000F8FF01200400000001000000B3
:1010200000100000BEFE01200200000000000000D1
:10103000FCFF01200400000000000000D85A00203E
:101040000400000000000000A01F002000140000A9
:1010500000000000A0330020001400000000000089
:1010600090FF0120400000000000000074FF0120FC
:101070000800000000000000F0FF01200800000050
:1010800000000000505A0020400000000000000056
:10109000B0590020A000000000000000D0FF012097
:1010A0002000000001000000064A136823F49F732B
:1010B00023F0010343F011031360092300BF013B38
:1010C000FCD1704700240144DC5A002004000000D9
:1010D0000000000088FE0120300000000000000039
:1010E000BCFE01200100000000000000B8FE01204D
:1010F000040000000000000000FC012028020000A5
:1011000000000000C0FE01204000000000000000C0
:1011100000FF0120200000000000000080FF0120EF
:10112000100000000000000028FE01206000000008
:1011300000000000EC5A0020010000000000000048
:1011400020FF0120010000000000000021FF01201D
:101150000100000000000000E05A00200400000030
:1011600000000000E45A002004000000000000001D
:1011700024FF01205000000000000000E85A002079
:10118000040000000000000000000000000000005B
:1011900022222222704B9B7D002B00F0DC80F0B5D8
:1011A00083B06D4A137EDBB2927D12F0800F11D1B5
:1011B000694A137EDBB2927D12F0010F00F0BC8011
:1011C00013F0010F00F0B880644C634D644E206949
:1011D000217D34E013F0800FEAD05F4B5B8B13F07E
:1011E0000703E5D05D4AD3875B4B80221A7607223E
:1011F0005A831B7E13F0040F05D0574B9A6A1A7E50
:1012000012F0040FFAD1554B1B6A002BD0D0534A71
:10121000516A02209847CBE7F25C8DF80620013333
:10122000984298BF0023E3606B6803F00703012B2B
:1012300014BF9DF80630BDF80630AB62B9B92B7EFD
:1012400013F0010F78D0A268E3689A4271D06A68FF
:1012500002F00702012ADFD116F813208DF80620CC
:1012600006EB430252788DF807200133D8E702F0ED
:10127000A1FA2368002BAAD0227F32B1A269904242
:10128000A5D3616803209847A1E7A26990429ED147
:101290006168032098479AE7226A002A37D0616A7A
:1012A00038469047A36A0133226B934228BF00233C
:1012B0002DE0A16A2B4A02F8115002EB4102C5F35E
:1012C000072555702EE002F0F7F9236A002B2ED087
:1012D00094F83C2032B1A26B904228D3616A00207E
:1012E000984724E0A26B904221D1616A0020984780
:1012F0001DE0337E13F0040F2BD0B56AA36A0133CF
:10130000226B934228BF0023E26A9A42C4D0E26A69
:101310009A42EED0726802F00702012AC9D0A26A8E
:1013200010498D54A36294F83430002BCBD101279F
:10133000DFE7094B01221A75074A137EDBB2927D63
:1013400012F0040F05D013F0040F02D0024E034C2C
:10135000EDE703B0F0BD7047000C004090FF0120A6
:10136000A0330020A01F0020536C6F7430200000B9
:10137000536C6F7431200000C2818FBB2861478B92
:10138000A2533779D463187C8B4159A95F0B6B94B6
:101390004EB957A103FE20BF2BB8142A64B5AE4A3C
:1013A0008380DDE6EE2989DDA09AC7DA82EB5662FA
:1013B000905D66C5BC303C844D6865616465722093
:1013C000736861323536204661696C6564210D0AA7
:1013D000000000004D6865616465722073686132C9
:1013E0003536205665726966696564210D0A00000C
:1013F0004D6574616865616465722045434453417D
:10140000205665726966696564210D0A0000000056
:101410004D6574616865616465722045434453415C
:10142000204661696C6564210D0A000046572073EF
:101430006861323536204661696C6564210D0A00A9
:101440004657207368613235362056657269666981
:101450006564210D0A00000046572045434453416E
:10146000205665726966696564210D0A00000000F6
:101470004657204543445341204661696C656421C9
:101480000D0A0000536C6F743120457261736564FE
:101490000D0A0000536C6F743020457261736564EF
:1014A0000D0A0000536C6F743120436F70696564DE
:1014B00020746F20536C6F74300D0A00436F707985
:1014C0002056657269666965640D0A00436F70791C
:1014D000204469666665720D0A000000496E7661F7
:1014E0006C696420536C6F743120496D6167650DC0
:1014F0000A000000496E76616C696420536C6F7459
:101500003020496D6167650D0A0000004446552092
:101510004E6F77210D0A00004446552045786974C6
:10152000210D0A002DE9F84305460C46174602F046
:1015300069F9102F14D0B846BB1E3E2B00F29D80D7
:1015400023782D2B64D04FF000092078002877D124
:101550002B68002B00F08680C5F80490002381E002
:1015600023782D2B06BF013401260026204602F0E9
:10157000B5F9012800F18C80204400210A461CE0C6
:10158000A7F16103DBB2052B71D8A7F15703DBB2DA
:10159000202A08BF013102F01F0287296ADC05EB0F
:1015A000810E9340DEF808703B43CEF808300432D9
:1015B0000238031B6046002B11DB00F1FF3C10F8E2
:1015C000017CA7F13003DBB2092BE1D9A7F141037C
:1015D000DBB2052BD4D8A7F13703DBB2D8E7013152
:1015E0002960002951D04A1E4B1C55F8233063B99D
:1015F000013105EB810300E00246002A43D0501E72
:1016000053F8041D0029F7D02A606E60002329E0FA
:1016100001344FF0010998E7B74231DD2A464146CF
:10162000284600F0C9F90346E0B92A463146284663
:1016300001F009FF0346A8B914F8010F002887D06C
:10164000242F02DC02F067F9C0B230280DD0124B13
:10165000012613F8012F8242DED00136402EF8D148
:101660004FF0FF331846BDE8F8830026D6E74FF069
:10167000FF33F7E74FF0FF33F4E74FF0FF33F1E7C5
:101680004FF0FF33EEE700232B6000236B60E9E7A8
:1016900001212960A7E700BF882F00002DE9F04F46
:1016A00083B007468B469046D0E91E2312EB080014
:1016B00043F10001C7E91E0112F03F0928D0C9F12A
:1016C0004005454501D9002423E007F118042A46C6
:1016D000594604EB090002F04EF8DFF8CCC007F1E0
:1016E000580E664620686168A268E3680FC6103429
:1016F000B4467445F5D140222B49384600F0E8FB4A
:101700000446AB44A8F14008C8444FF0000900E08B
:101710000024B8F13F0F2BD91BF03F0F2FD00BF156
:101720004006A8F140039A0901920BF1800A23F0C8
:101730003F039A44A6F14004DFF86CC0B646654604
:1017400020686168A268E3680FC51034AC46744530
:10175000F5D140221449384600F0BAFB40365645D0
:10176000E8D10446019B01330BEB831B08F03F08D3
:10177000B8F1000F0FD1204603B0BDE8F08F28F07C
:101780003F052A465946384600F0A2FB0446AB44C2
:1017900008F03F08ECE707F1180042465946484474
:1017A00001F0E9FFE7E700BFC0FE0120F0B5BDB0E2
:1017B000064630A802F060F8309B002B71D09A6A80
:1017C000DC6A42F0847727409968B1420BD29B696A
:1017D000DB6801213846984700B1FEE70E21324808
:1017E00002F024F85DE042F0807214401988B6FBE4
:1017F000F1F295B201FB12620AB10135ADB29B69FB
:1018000033B1DB6823B129462046984700B1FEE793
:101810000E21264802F00AF8309B9B6943B15B68B1
:1018200033B1324621464FF08470984700B1FEE74D
:1018300017211F4801F0FAFF684602F05EF83246B1
:101840004FF080716846FFF729FF28A9684600F02D
:1018500047FC684602F051F832464FF08471684602
:10186000FFF71CFF20A9684600F03AFC202220A9BF
:1018700028A801F0EFFE80B90F210E4801F0D6FF35
:10188000309B9B69DB6829463846984700B1FEE7E4
:101890000E21054801F0CAFF03E00D21064801F0C2
:1018A000C5FF3DB0F0BD00BF8414000094140000DB
:1018B000A4140000BC140000CC14000038B54FF094
:1018C00088431C6A4FF0847001F0BAFF30B10546BE
:1018D000B0F1FF3F49D02846FFF768FF4FF0807016
:1018E00001F0AEFF013810F1030F43D82A4B013B42
:1018F000FDD101F021FE01F001FB274B013BFDD1A1
:1019000072B6264B4FF0FF32C3F88020C3F8842014
:10191000C3F88820C3F88C20C3F89020C3F8942023
:10192000C3F89820C3F89C20C3F88021C3F8842111
:10193000C3F88821C3F88C21C3F89021C3F89421FF
:10194000C3F89821C3F89C2162B6002383F314885E
:10195000BFF36F8F124B1B6883F30888114B012272
:101960001A70114B1B68984738BD15210F4801F0BC
:101970005DFFB0E715210E4801F058FF064B013B13
:10198000FDD104F400040B4945F2437200E00A80E3
:10199000002CFCD1FEE700BFFFFF050000E100E0E6
:1019A0000002000120FF012004020001DC140000FD
:1019B000F4140000020500442DE9F04FD2F8008035
:1019C000D0F800B0C2F800B0D0F804A0C2F804A06B
:1019D0000368002B5DDD00F1040C131D4FF0000EB9
:1019E00000240025F14600E0B6465CF8046FE1FBF8
:1019F00006452F4643F8044F3C464D460EF101067E
:101A00000768B742F0DC54EA05030AD0882F08D0F3
:101A10000BF1010313600BF1020B42F82B400EF1A6
:101A20000206B0450FDD872E0FDCB31C02EB8303EB
:101A3000002143F8041B0136B04507D0882EF8D1A9
:101A40004FF0FF3023E0B04600E0B046B8F1880F19
:101A500013D01168B1B14B1E481C52F8200098B940
:101A6000013102EB810100E023464BB15C1E51F8CD
:101A7000040D0028F8D0136006E04FF0FF3006E0B8
:101A8000002313604FF0000AC2F804A00020BDE854
:101A9000F08FB8F1000FD8BF4FF00008D6DD002658
:101AA000C3E77047F8B5344C656B63689B6998472A
:101AB0006061606901F03CFED4E90A67321847F1C1
:101AC0000003C4E90A23002D4CD094F830300133D0
:101AD00084F8303001F002FC646B2CB1A3681BB9B0
:101AE00001250027244E11E0244D00242E462746D0
:101AF0001FE0E06901F0E8FAE3680BB1206998475C
:101B0000746B002CF0D0A368002BEDD125756575A2
:101B1000A37813B9E368002BEBD1204600F0DAFF7D
:101B2000A378002BE8D16770E6E701342035052C57
:101B300012D006EB44135B7D002BF6D006EB44136A
:101B40005F75AB78012BF0D16B6806EB44129360A4
:101B5000284600F061FBE8E7074A92F83030013B85
:101B600082F8303001F02CFF044600F00DFA2046D8
:101B700001F02AFFF8BD00BF505A0020B0590020E4
:101B80002DE9F04F83B00C680368A342B8BF234629
:101B90001468882CA8BF8824A6461360002B46DD55
:101BA0000430043102F104084FF0000A4FF0000B3A
:101BB0004FF0000C50F8049F51F8044F002514EB2F
:101BC000090645F10007CDE9006716EB0A06019CFE
:101BD00044EB0B0448F8046F4FF0000BA2460CF1E5
:101BE000010C6345E6D15AEA0B0007D0872B05DCD0
:101BF000581C1060023342F823400346882B26D03D
:101C000013609E4509DD981C02EB800019460024F4
:101C100040F8044B01318E45FAD1EBB1591E581CE6
:101C200052F8200068B9013302EB830302E000237D
:101C3000E6E7214671B14C1E53F8040D0028F8D098
:101C4000116053685360002003B0BDE8F08F4FF07F
:101C5000FF30F9E7002313600023F3E72DE9F04F8D
:101C600080469246D2F800900C6800681060002C04
:101C700049DD08F1040E043102F1040C00231A4678
:101C80001D465EF804BFBBEB030662EB420751F84A
:101C900004BFB6EB0B0267F100034CF8042F03F00E
:101CA000010300220135AC42EBD1D8F80010A1426B
:101CB00014DDA51CAD0008EB05065544002756F8B9
:101CC000041BC91A62EB420245F8041B02F001032F
:101CD0003A460134D8F80010A142F0DCA14508DDF5
:101CE000A31C0AEB8303002243F8042B0134A14513
:101CF000FAD1D8B1431E421C5AF8222082B90130D1
:101D00000AEB800004E000231A461C46CDE70B4690
:101D10004BB1591E50F8042D002AF8D0CAF80030F3
:101D2000DAF8043003E00023CAF800300023CAF8D0
:101D30000430BDE8F08F70472DE9F04700295ED0F0
:101D40000F46304B1E6900242F4D1A4600F1010E3C
:101D5000DFF8B8C0A04615E010F804A0D5F804904C
:101D600009F00709B9F1010F11BF0CF801A00CF837
:101D700011A00CEB410181F801809360631C0134D8
:101D80009F423AD96B6803F00703012B11D0916889
:101D9000D2F80C904B1CB34228BF00239945DBD1ED
:101DA00001F07EFC10B1184B01229A752046BDE867
:101DB000F0879168D2F80C904B1CB34228BF0023E7
:101DC0009945EDD01EF814A010F8149049EA0A299C
:101DD000D5F804A00AF0070ABAF1010F04D00CF8F4
:101DE00001909360631CCAE70CF811900CEB410161
:101DF0004FEA192981F80190F3E71C46D0E70C4619
:101E0000CEE700BF90FF0120000C0040A03300206F
:101E1000F8B5002855D00546002955D00C68236830
:101E200083421CBF002384F82430206094F82430BF
:101E300022EA03061A4384F8242016F0010F0FD17A
:101E4000002716F0020F13D116F0080F19D116F063
:101E5000100F1FD116F0200F24D167BB3846F8BDF4
:101E600001232246211DC06800F064FF0746E8E711
:101E70000223224604F10801286900F05BFF0744B1
:101E8000E2E70823224604F10C01A86900F052FFA2
:101E90000744DCE710232246E118E86900F04AFF16
:101EA0000744D7E72023224604F11401286A00F0F2
:101EB00041FF0744D1E7204600F00AFD6FF06E07AE
:101EC000CCE76FF0AC07C9E76FF0AC07C6E7704727
:101ED0002DE9F843054688469146284C0423636063
:101EE00081609309013B0361254F03463E4653F849
:101EF000080F59689A68DB680FC61021384600F051
:101F00008AF94946404600F086F9BFF35F8F2763A0
:101F100043F2040323601B4B6363AB6DA363EB6D60
:101F2000E3632B6E23646B6E6364AB6EA364EB6E32
:101F3000E3642B6F23656B6F63650123236163602B
:101F40002246D36913F00F0FFBD00C4B02225A60CC
:101F500004225A600B4C20212046FFF7B8FFBFF344
:101F60005F8F0FCCA865E9652A666B660FCCA86603
:101F7000E9662A676B670020BDE8F883002C004201
:101F800080FF012000FF01202DE9F8432A4B5A6B06
:101F900059691961002A40D09368B3F5004F33D3D3
:101FA000254B5B6947F6FF74002514EB030845F1E8
:101FB0000009214E73689B69984782B200233169FA
:101FC000814206D94FF6FF7152184FF0000141EBE4
:101FD00003031949096A561843F10007B94508BFB8
:101FE000B04524D20A44144BDA61134BDB699BB22F
:101FF00013B9114B0122DA610F4BD8695B685B6939
:1020000080B29847BDE8F88394680B4B5B69002564
:1020100014EB030845F10009CBE7074B5B6947F672
:10202000FF74002514EB030845F10009C1E7024BDA
:10203000C3F81C80D9E700BF505A0020002941D0C6
:1020400038B50D46002840D1214C012384F83830A2
:102050000B686360DB689847E0601E4BB3FBF0F3EE
:10206000BC2090FBF3F00230206295F9043023721B
:10207000002121614FF6FF73A36147F6FF73E3610F
:1020800000220023C4E90A23616384F830106368E6
:102090001B681148984763681B690BB1208B9847F0
:1020A0000B4CE06963685B6980B2984763685B6862
:1020B0009847A0220021094801F008FC0223237060
:1020C000204638BD4FF0FF3070474FF0FF30F8E743
:1020D000505A00200090D003A51A0000B0590020EB
:1020E00070B582B005460C46826FC36FDB0043EAD1
:1020F0005273D100180E8DF80000180C8DF80100F5
:10210000180A8DF802008DF803300B0E8DF804309C
:102110000B0C8DF805300B0A8DF806308DF8071082
:1021200002F03F02372A94BFC2F13802C2F17802AE
:10213000D2B211492846FFF7B1FA0822694628466B
:10214000FFF7ACFA2B4653F8586F58689968DA686D
:1021500026606060A160E2601E6958699969DA6969
:1021600026616061A161E26100221146284600F00B
:102170009BFA02B070BD00BFC02400002DE9F04101
:10218000ADF6F82D06460F461446984602AD019569
:1021900028220021284601F099FB0CABAB610523F6
:1021A000EB6194B3A6B30023A360424639462046B0
:1021B00000F022FB0546E0B9D4F8B83813F1020F5D
:1021C0000AD0434622463946304600F0EBFB05462E
:1021D0006FF4877398420CD104F5D266304601F053
:1021E000CBFB054650B1304601F01EFC019800F0D3
:1021F0006FFB28460DF6F82DBDE8F0813B2201A9C2
:102200002069FFF705FE0546EDE76FF0AC05F0E746
:102210006FF0AC05EDE7704730B32DE9F04186462D
:10222000204B5A6BD0F80880C2B193684046002119
:1022300098451BD3002400259368E41845F1000558
:102240009369DBB1D3F808C014EB0C0645F1000725
:10225000B94208BFB04211D31A46EDE7C0F8088072
:10226000104B586301201AE0002070470D4BC3F853
:1022700034E0CEF818200024012004E0CEF8183015
:10228000C2F818E00020A8EB0404CEF80840DEF8FD
:10229000183023B1DEF808109A68521A9A60BDE827
:1022A000F08100BF505A002038B51A4B93F9000056
:1022B00000B138BD184C30220021204601F006FB49
:1022C000164D2C605B2323704CF2010323812046C2
:1022D000134B98472A681389002BFDD11169114BC4
:1022E000994206D00B4BFF221A700A4B93F900005B
:1022F000DFE791690C4B994203D0064BFE221A701E
:10230000F3E7D269094B9A42024B14BFFD22012226
:102310001A70EAE7BCFE012088FE0120B8FE012009
:102320005500000200010704D2DD706E4FD6C825AB
:102330002DE9F0414FF088431D6A05F400059A69C4
:1023400042F400329A610A21144801F06FFA144BEA
:10235000013BFDD1134B00221A70134B196813482F
:1023600001F004FB01F02EF801F00AF9DFF84480D7
:102370000F4F08E0A8F800600CE00B21384601F090
:1023800055FAFFF79BFA45F24376064C01F037F910
:10239000002DEFD12378002BF8D0EEE70C150000CC
:1023A000FFFF020021FF0120E05A002085390000D4
:1023B00018150000020500441E4B1F4A9342F0B45A
:1023C00038BF002103D203F8011B9342FBD11B4A03
:1023D000D2E9000150EA01034FF0000610D09468E2
:1023E000034602F10C076CB921B1014403F8016BFB
:1023F0009942FBD13A46D2E9000150EA0103EED1FD
:10240000F0BC704759B101F10C030C38801A1A4422
:102410003B461C1813F8015B25709342F9D111F06B
:10242000030318BF012303EB910107EB81073A4631
:10243000E1E700BF0000002000000020B40F000012
:102440001C4B1D4A1A604FF6A0029A814FF440328D
:102450005A601A46D369002BFCD1164A136843F020
:1024600002031360D369002BFCD1144B00221A62C3
:102470009A62DA6283F8342083F83C209A63DA8720
:102480001A609A60DA601A751A779A61094B5B686C
:1024900003F00703012B094B14BF4FF4A0524FF474
:1024A00020621A631A61034B80229A7504229A757E
:1024B000704700BF000C00400401124090FF012053
:1024C000800000000000000000000000000000008C
:1024D00000000000000000000000000000000000FC
:1024E00000000000000000000000000000000000EC
:1024F00000000000000000000000000000000000DC
:1025000000000000000000000000000000000000CB
:1025100000000000000000000000000000000000BB
:1025200000000000000000000000000000000000AB
:10253000000000000000000000000000000000009B
:10254000F0B51B4AD36A956A61B30E46AB422CD0F4
:10255000D2F830C00122174FA0F1020E164C0138FC
:102560000BE0E15C815401339C4598BF0023B242EB
:1025700013D2511CAB4211D00A46796801F0070111
:102580000129EED114F813100EF8121004EB4301D8
:10259000497800F812100133E6E71D46044BDD626E
:1025A0001046F0BD1D460A46F8E70022F6E700BFD8
:1025B00090FF0120000C0040A01F0020F0B40C6828
:1025C00000251560661C9E4229D80519005D10F093
:1025D000800F0BD13746049C14B1C4199C4227D8F4
:1025E0000F60002800DD1060F0BC704700F07F0035
:1025F00037189F4216D8042817D868B12C460544CE
:10260000002014F8016F46EA0020AC42F9D10028FE
:10261000E1DA6FF08B00E7E737460020E0E76FF084
:102620008300E1E76FF08300DEE76FF08B00DBE70C
:102630006FF08300D8E72DE9F04395B01D9D55B3A9
:102640001E46914688460746D5F8B80800F05EFE5B
:10265000044618B3436823B32C22002109A801F0D3
:1026600035F903230193052302930397CDF81080D6
:10267000CDF8149006961C9B079308956368A26892
:1026800001A92068984710F1AE0F08BF6FF487705A
:1026900015B0BDE8F0836FF48770F9E76FF48770C9
:1026A000F6E76FF48770F3E710B50446582200216F
:1026B00001F00CF9042323734FF00003012262F3AD
:1026C000061363730D4BA36503F1EE5303F5052366
:1026D00003F65163E3650A4B23660A4B63660A4BB4
:1026E000A3660A4BE3660A4B23670A4B6367002223
:1026F0000023C4E91E23002010BD00BF6A09E6675D
:102700003C6EF372A54FF53A510E527F9B05688CD3
:102710001F83D9AB5BE0CD1970B505460C46164654
:1027200001F070F8B6F5087F04DDA6F508734FF4E4
:1027300008761C44F31C9B082B60002E09DD06F173
:1027400008032B44A21914F8011B03F8011D94423D
:10275000F9D12A68B2B1531E511C55F8211059B94C
:10276000013205EB820200E003464BB1581E52F8DD
:10277000041D0029F8D02B606B686B60002070BDD1
:1027800000232B600023F8E7F0B583B005460C4624
:1027900016461F460023019300930B466A4601A983
:1027A00000F0D2FF00281EDB019B009A1344A342D5
:1027B0001CD1234601AA2946304600F013FA00280E
:1027C00017DB234601AA2946384600F00BFA0028F9
:1027D000A8BF002001DB03B0F0BD304601F0DEF8F9
:1027E0006FF0AA00F7E76FF0AA00F4E76FF0AA0015
:1027F000F1E76FF0AA00EEE700290CDD422927DCA3
:102800004368B3F1FF3F26D070B4002343600361F7
:10281000134C0E250AE0002AF2DA6FF0AC00704784
:10282000A94208DD013354F8345F75B1002AF7DDA1
:1028300066689642F6D185B14360094A342101FBAE
:1028400003230361002070BC70476FF0AB00FAE710
:102850006FF0A9007047002070476FF0AB00F2E7FF
:10286000B45A000070B582B006460D4614460122E7
:102870000192009323460A46022100F087F90028BE
:1028800020DB2368012B1CDD2B68F25CFF2A0FD0B4
:10289000E2B901332B602368013B2360002B13DD79
:1028A0002B68F356002BB4BF00206FF08B0009E0BB
:1028B0001E4496F90130002BB4BF6FF08B0000204E
:1028C00000E0002002B070BD0020FBE70020F9E727
:1028D00090B310B5044690F8243013F0010F17D1CF
:1028E00094F8243013F0020F16D194F8243013F02A
:1028F000080F15D194F8243013F0100F14D194F868
:10290000243013F0200F13D1002384F8243010BD9D
:10291000406801F043F8E3E7A06801F03FF8E4E71E
:10292000E06801F03BF8E5E7206901F037F8E6E7F9
:10293000606901F033F8E7E77047FEE7174BDA68A4
:1029400022F4E0621204120C42F0BF6242F4003240
:10295000DA60BFF35F8F62B6114AE02182F8031399
:102960000820106082F80C134FF48050106082F839
:1029700013134FF40020106082F816134FF48001F7
:1029800011605A6A42F480225A625A6942F0100277
:102990005A615A6A42F400325A62704700ED00E010
:1029A00000E100E04AB32DE9F04194B014469846A6
:1029B0000F460646D2F8B80800F0A8FC0546F8B164
:1029C000436803B33422002107A800F07FFF0323EC
:1029D000019309230293039604970594CDF8188078
:1029E0006B68AA6801A92868984710F1AE0F08BF64
:1029F0006FF4877014B0BDE8F0816FF48770704792
:102A00006FF48770F6E76FF48770F3E702680B687E
:102A10009A4220DC21DB531E22D430B49C1C50F897
:102A2000245051F82440A5421CD81DD392000432F2
:102A300010441144013BB3F1FF3F09D050F8044D5D
:102A400051F8042D944212D8F4D24FF0FF3000E038
:102A5000002030BC7047012070474FF0FF307047B6
:102A6000002070470120F4E74FF0FF30F1E701202C
:102A7000EFE7FEE708B5134B984703F01FF9124A3A
:102A8000136823F49F7323F0010343F011031360D1
:102A9000FFF751F9FFF7D4FCFFF703F800F0E6F970
:102AA00000F0B4FA00F07CFE08490020FFF7C6FAF7
:102AB000074B186000F09CFE00F06AFFFFF73EFF36
:102AC00008BD00BFD1FF012000240144D839000017
:102AD000DC5A0020154B5A6B1AB310B401468242DF
:102AE00004D18369ABB1002206E01A469369D3B1E1
:102AF0009942FAD18B6923B18C6898682044986018
:102B00004AB18B699361002000238B615DF8044B0F
:102B100070471A46F4E7054B5A6B92695A630120D5
:102B2000F2E7002070470020F0E700BF505A002075
:102B30000E4A38B5002313600D4A0E4C13600E4A3E
:102B40000E4D13600E4A13600E4A13600E4A536214
:102B500013610123936000F098FE00F096FEAC42F2
:102B600000D338BD54F8043B9847F8E7E85A0020F2
:102B700030FF0120EC0000002CFF0120F0000000DD
:102B800024FF012028FF012034FF0120F0B587B089
:102B900006460D4614461F46136805930C9B0DF11F
:102BA000130205A900F0E6FA98B99DF81330AB427C
:102BB00012D10D9B00930C9B03AA05A93046FFF789
:102BC000FDFC00280BDB03983860059B236007B0F1
:102BD000F0BD6FF08B00FAE76FF08B00F7E76FF056
:102BE0008B00F4E770B582B006460C4615461268B5
:102BF00001926A4601A92046FFF734FE034610B150
:102C0000184602B070BD304600F0B6FE90B9009A8A
:102C100001992144304600F00BFF034620B9019A88
:102C200000990A442A60EBE7304600F0B7FE6FF0E7
:102C30008D03E5E76FF06D03E2E7FEE72DE9F0476E
:102C400080460F46914600F039FE3E46D7B1002639
:102C50000E4C4D464FF0010A09E04B4512D8514643
:102C6000FFF76EFC002323700136B7420AD008EB51
:102C700006002378002BF2D101332278002AECD110
:102C8000AB42F9D93046BDE8F08700BFBDFE012058
:102C9000F0B4124B1880124800F5806700221646E7
:102CA00041F2210506E040F8043F02F5807292B23D
:102CB000B84210D011460824334683EA010C1CF4B4
:102CC000004F14BF85EA43035B009BB2490089B201
:102CD000013CF2D1E7E7F0BC704700BFBEFE012027
:102CE000AC5700202DE9F04121F00F0112F00F0F39
:102CF00008D0544202F00F0304F00F0458BF63429F
:102D0000D21A1032144656188518A6EB04082F1B49
:102D1000002C0ADD00F0CAFD0028FBD141463846F0
:102D200000F0BCFB20B1103CEFE70020BDE8F081D3
:102D30000120FBE72DE9F041146AD669B4421ED2A6
:102D40001F4616460D4680469069631C13624FF479
:102D50000A7303FB0400086000F00EFE034610B186
:102D60001846BDE8F08196F824301F4386F8247099
:102D7000102241462868FEF7D5FB0346F0E76FF0C6
:102D8000A903EDE72DE9F04105460E4614469846A5
:102D90009DF818700A46002100F098FD304646451F
:102DA00028BF404657B938B1013D231814F8016BCC
:102DB00005F8016FA342F9D1BDE8F0810028FBD0EE
:102DC0000544231814F8016B05F8016D9C42F9D1F4
:102DD000F2E7F0B170B582B0044615460E4640F6F3
:102DE0000412002100F072FD0023C4F8B8580193CA
:102DF000009304F58D6304F5107204F1180104F5D5
:102E0000D26000F023F9034638B96661184602B073
:102E100070BD6FF0AC03184670476FF07C03F5E7A8
:102E20002DE9F0414768D1F80480474510D00446A9
:102E30000D461646FFF7EAFDB0F1FF3F0CD0776074
:102E4000324629462046FEF709FF0020BDE8F08102
:102E50005760FEF795FEF9E7C6F804803246214632
:102E60002846FEF7FBFE0020F0E7FEE70E4B0122AE
:102E70001A601A46136913F0010FFBD10A4B4FF485
:102E8000A3621A6003221A7304225A71074ADA6194
:102E900033229A72064A0021116001225A721A46A0
:102EA0001369002BFCD1704700140040C0270900B3
:102EB000F0FF0120F0B583B0089D099C90B1064653
:102EC0009AB1ADB1BCB1D4F8B80810F1020F02D17B
:102ED000384603B0F0BD304601940095FFF7ABFBD8
:102EE0000746F5E76FF0A907F2E76FF0A907EFE7EC
:102EF0006FF0A907ECE76FF0A907E9E7104B08228C
:102F0000C3F88020BFF34F8FBFF36F8F4FF4805211
:102F1000C3F88020BFF34F8FBFF36F8F4FF4800251
:102F2000C3F88020BFF34F8FBFF36F8F4FF40022A1
:102F3000C3F88020BFF34F8FBFF36F8F704700BF80
:102F400000E100E038B5044600F084FC002C16DBFC
:102F500063090C4951F8235004F01F04E54005F0C3
:102F60000105012202FA04F4203341F82340BFF3A3
:102F70004F8FBFF36F8F00F076FC284638BD0025D9
:102F8000F9E700BF00E100E0303132333435363745
:102F900038394142434445464748494A4B4C4D4ED7
:102FA0004F505152535455565758595A61626364A1
:102FB00065666768696A6B6C6D6E6F707172737449
:102FC00075767778797A2B2F000000BF10B5054C05
:102FD000227832B9044B13B10448AFF300800123C7
:102FE000237010BD905A0020000000000000000077
:102FF00008B5034B1BB103490348AFF3008008BD7C
:1030000000000000945A0020000000000D4B012237
:103010001A601A46136913F0010FFBD1094B1022F5
:103020001A6003221A734FF47A429A8333229A72F7
:10303000054A0021116020225A721A461369002B9A
:10304000FCD170470020004074FF0120F8B50C4609
:1030500017461E46069D08B100F0D4FB14B1204669
:1030600000F0D0FB17B1384600F0CCFB16B130466B
:1030700000F0C8FB15B1284600F0C4FB079B13B154
:10308000184600F0BFFB0020F8BDFEE7431E13F119
:10309000030F0FD883B2042B0ED80A4A02EB431257
:1030A000D26982420AD15A0106498A5C42B101EBD7
:1030B0004310704700207047002070470020704781
:1030C00000207047B059002010B5044600F0A2F867
:1030D000B0B12046FFF7DAFF044678B1437843B930
:1030E0000020207560752070044600F027F8204607
:1030F00010BDFFF7EFFC00236370F1E70124F4E754
:103100000124F4E7A1B110B40A4B1B8841180A4C02
:1031100010F8012B82EA132254F8222082EA0323BA
:103120009BB28842F4D1034A13805DF8044B704788
:10313000704700BFBEFE0120B05700200B4B93F933
:103140000830002B08DB590903F01F03012202FAA3
:1031500003F3074A42F82130044B93F830301BB98F
:10316000024B012283F83820704700BF505A0020DC
:1031700000E100E06AB130B4154669B178B10C687D
:10318000621C9A420ED8035D2B700A60002030BC8E
:1031900070476FF0AC0070476FF0AC00F7E76FF06E
:1031A000AC00F4E76FF08300F1E738B505460C4654
:1031B000C0F30B037BB964B100F078FB0028FBD1AE
:1031C000284600F0BBFB40B1013CA4B205F5805598
:1031D000F1E7002000E0022038BD0120FCE7FEE717
:1031E00000100004000000010000100002000000B8
:1031F000A03500000000F0008C3700000100000046
:103200003C3A0000FE0FFFFF00000000FFFFFF0F31
:10321000FFFFFFFF08B50B4B93F8303083B9094B24
:1032200093F83830012B01D000200AE0054B002232
:1032300083F8382093F90800FFF784FE012000E0AE
:10324000012008BD505A0020ABB1F0B405461E461F
:10325000043A002402E00134B44209D052F8040FC9
:103260004368AB42F7D847693B448B42F3D300E055
:103270000020F0BC704700207047FEE738B5EFF340
:10328000108572B6084C20634FF4804363600F22B0
:1032900062601140A160A36000F03CF94FF400436C
:1032A000A36085F3108838BD000600444FF08843C2
:1032B0000022C3F8B020084AC3F8B02002F12B4224
:1032C000A2F54B12A2F6AB42C3F8B02003F520637F
:1032D00001229A641B6CFEE7556699AA0A4B5B6B48
:1032E00073B168B1002105E09A68801A99609B6902
:1032F00033B128B19A688242F6D39A68101A98605E
:10330000014B5A691A617047505A00200A4B1B68DA
:1033100098420AD0084A0123D168814206D001337D
:103320000C32082BF8D100207047002303EB430335
:10333000014800EB8300704728FE012070B5054668
:103340000C461646FEF7B0FF002808DB6368052B25
:1033500008D132462146284602F008FA70BD6FF4C3
:103360008770FBE76FF48770F8E770B506460D4687
:103370001446FFF7CBFF034620B11E605D609C60E2
:10338000002070BD6FF00100FFF7C0FF034600286A
:10339000F3D16FF08300F4E708B5084B5B7A63B1B3
:1033A000064A937A3321917203F0FF002BB1044B4C
:1033B0001B6813B1024A5168984708BD00200040BD
:1033C00074FF0120094A136823F002031360136994
:1033D00013F0020FFBD1054A136843F00203136098
:1033E000136913F0020FFBD1704700BF00140040B7
:1033F00008B5084B5B7A63B1064A937A3321917220
:1034000003F0FF002BB1044B1B6813B1024A516853
:10341000984708BD00140040F0FF012093B1F8B5B3
:103420001F4616460D4604460021284600F04EFA77
:103430003346224629460020B84700280CBF2846BC
:103440000020F8BD704770B5ADF50A7D04460E4604
:103450001546684600F0D6F93146684600F080F916
:103460002A4669462046FFF7DBFC0DF50A7D70BD54
:10347000012911D930B44D08013901440138002324
:103480000A7810F8014F01F8014902700133DBB2EC
:10349000AB42F5D330BC70477047704708B5024661
:1034A00008461168064B19645168196591681966D8
:1034B000D2681A670221FFF7E1FE012008BD00BFB4
:1034C00000060044084A537943F08003537113699E
:1034D00013F0040FFBD1044A537913F0E00FFBD132
:1034E000014B988A704700BF0020004008B510B11A
:1034F000012805D008BD0621044800F097F9F9E736
:103500000621034800F092F9F4E700BF68130000B9
:1035100070130000064B00221A62064A1A6202F17A
:103520002B42A2F54B12A2F6AB421A62704700BFC3
:1035300000060044556699AA074B00221A609A813A
:103540005A601A46D369002BFCD1034BBF221A756F
:1035500000221A76704700BF000C004008B50B68C7
:10356000032B06D14B68043B012B05D8FFF7E6FE81
:1035700008BD6FF48770FBE76FF48770F8E770475A
:1035800008B50121084600F0A3F8012000F0DCF99D
:103590000021024800F0DEF908BD00BF8D380000B0
:1035A00000000001FFFF0700000000000100000014
:1035B00000008001FFFF0700000000000100000084
:1035C00008B5064B1B7813B1012B04D008BD034B83
:1035D00001221A70FAE7FEF7ABFE00BFEC5A00209A
:1035E00000230360436000F1080200F50A701946E9
:1035F000134603F8011B1A468342F9D1704700B500
:103600008DB0684600F038F9009B23B19DF82C106E
:10361000684600F087F90DB05DF804FB08B5044B6F
:103620001B6B13F4806F02D0024B1B68984708BDD8
:10363000000A00440402000161390000E93600007C
:1036400001370000B9390000C9370000DD3700003C
:10365000C534000030B501390024A24206D0035D14
:1036600001340D5DAB42F8D0581B00E0002030BDA6
:1036700008B500F051F8034B00221A70FFF7A2FEC4
:1036800008BD00BF21FF012008B5034B1B6813B123
:10369000024A1068984708BDFCFF0120D85A002054
:1036A000044A9368D06883423EBF024A12699B185D
:1036B000181A704790FF0120044BD86A9B6A984201
:1036C00082BF024A126B9B18181A704790FF0120A4
:1036D000044B93F8342083F8340083F83C101046F0
:1036E000704700BF90FF0120044A136843F00203B3
:1036F0001360136913F0020FFBD1704700200040E4
:10370000044A136823F002031360136913F0020FD5
:10371000FBD1704700200040044A136823F00203E5
:103720001360136913F0020FFBD1704700140040BF
:10373000044B1B69834232BFC01AC3F58033C018E3
:10374000704700BF505A002010B582B00124019488
:10375000009313460A463021FFF718FA02B010BD55
:1037600038B505460C4600F04DF8AC60003418BF83
:1037700001242C6038BD10B5431E0A44914200D18B
:1037800010BD11F8014B03F8014FF7E7A73900000E
:10379000E52C0000ED380000AB310000393A0000A4
:1037A00008B5034B186B0021FFF768FD08BD00BF8B
:1037B0000006004410B5034B1C69FFF771FF013C84
:1037C000201A10BD90FF0120034B98831A461369FD
:1037D00013F0400FFBD1704700200040034BD8830B
:1037E0001A46136913F0800FFBD170470020004088
:1037F00008B5002202491046FFF7B7FD08BD00BF1B
:103800005D35000008B50021016041604FF4087289
:10381000083000F05BF808BD08B500210160416088
:103820004FF40872083000F051F808BD08B5034B9A
:103830001B7803B108BDFEF77FFAFBE720FF0120EC
:1038400000B5ADF6B44D01A901F0DEFD0DF6B44DA5
:103850005DF804FBEFF3108072B6BFF35F8FB0FA30
:1038600080F04009704718B1BFF35F8F62B67047B0
:1038700072B6BFF35F8F704710B5044600F098F83A
:103880002060012384F82C3010BD704710B9024B22
:1038900001221A70704700BFBDFE012008B5134613
:1038A0000A461946FFF767FF012008BD024B18685A
:1038B000C0F3C030704700BF00060044024BD88FF1
:1038C0000022DA87704700BF90FF012002440346C0
:1038D000934200D1704703F8011BF9E703461A46EB
:1038E000013311780029FAD1101A704708B508463B
:1038F0001946FFF7D3FF002008BD08B56FF001029D
:103900000021FEF7D1FE08BD08B50020FFF7B2F890
:1039100000F05EF8FCE7A0F16103192B98BF00F0FE
:103920005F00704708B511B108B101F08BFB08BD0D
:10393000014B1888704700BFBEFE012008B5042166
:10394000FFF79CFC012008BD08B1014A9063704755
:1039500090FF0120014B18625962704790FF0120CF
:10396000014B18605960704774FF0120014B1860CB
:1039700059607047F0FF012008B508B1FFF742FF1A
:10398000002008BD014B01221A70704721FF012061
:10399000014B00221A707047EC5A002008B508B19C
:0E39A000FFF73AFF08BD08B5FFF7FAFE08BDB5
:1039B00000487047E0310000004870470090D00395
:1039C00008B5FFF747FF08BD08B5FFF74CFF08BD76
:1039D00008B5FFF7F5FD08BD3836000016000000F9
:1039E0002A8648CE3D0301042B810400060000BF57
:1039F0002B8104001C0000BF2B810400080000BFC5
:103A00002A8648CE3D0301012B810400210000BF1E
:103A10002A8648CE3D0301072B810400220000BF07
:103A20002B810400230000BF08B5FFF7D9FD08BDB6
:103A300008B5FEF771FE08BD002070475300C409A9
:1050000010B54FF08843D3F8E04024F03002C3F8E5
:10501000E02068B1012810D000204FF08843C3F889
:10502000E040013810F1030F8CBF0020012010BDBB
:105030004FF0807000F0E8F9EFE74FF0847000F077
:10504000E3F9EAE72DE9F84F0746884642F2107285
:1050500041F210019848FDF7F1FD002800F08C8125
:10506000FEF706FB944B1C68944B1C60250CABB2FE
:10507000934A1380A6B25680043B0E2B00F26E8139
:10508000DFE813F054001F0026017D016C016C0164
:1050900084016C016C016C016C016C016C01870076
:1050A0000F00FEF703F90020854B1D88072D00F047
:1050B00067810A2D00F06B812D04042828BF02208F
:1050C0006FE17D4BD3F804907D4BC3F804904346C9
:1050D0003A4649464846FEF7B7F80746002800F02A
:1050E0005E81A4B2038803FB0494436842691344BD
:1050F0009C4280F054818369002B00F076811A680D
:10510000002A00F064819047B86A49EA0009F86A09
:1051100009EA0000BB69002B00F02281DB68002B4C
:1051200000F020813146984780B2BDE7624B586855
:10513000634B586043463A460146FEF785F80446FD
:10514000002800F02C8142690088B2FBF0F6636809
:10515000B1B200FB01311A44914200F22081A269F0
:10516000002A00F042811168002900F0248188475C
:105170006068A36A1843E36A1840A369002B00F033
:10518000F380DB68002B00F0F180B1B2984780B269
:105190008AE7494BD3F804A0494AC2F804A0D3F8DF
:1051A0000890C2F80890DC68D4601033136143465D
:1051B0003A460AEB09015046FEF746F80746002832
:1051C00000F0ED80836A4AEA030AC36A0AEA030A26
:1051D00083696BB11A6812B19047BB6943B15B68D0
:1051E00033B14A46514637489847002840F0C080BE
:1051F000012E07D0022E32D00025AC4214BF02206F
:10520000002051E75646BB694BB1D3F80880B9F18D
:10521000000F4FD00025DFF8B4A02B4F05E04FF072
:105220000008F4E7B9F1000FE7D0DAF800204A45AA
:1052300028BF4A469346434639463046FEF7EEF8C5
:105240005E44A9EB0B09BBF1000FEBD00BEB07029F
:105250003B4613F8011B0D449A42FAD1E2E7564649
:10526000BB6923B3D3F808804FF6FF70FDF710FD3C
:10527000B9F1000F17D0DFF854A0134FDAF800503F
:105280004D4528BF4D4643462A4639463046FEF72F
:10529000C5F82E44A9EB050929463846FDF732FF2B
:1052A000B9F1000FEAD1FEF743FB0546A5E74FF041
:1052B0000008D9E74D46A0E7A04700207CFF012069
:1052C000C45A0020B047002000000020F8FF012051
:1052D000484A5068484B58609168996043463A463E
:1052E0000144FDF7B1FF0746002858D0836913B188
:1052F0001B6803B19847404B5E68BA6A1643FA6A66
:105300001640D3F808803C6BB8F1000F32D0DFF8BC
:10531000F0A04FF0000BDFF8EC90DAF800504545B4
:1053200028BF4546BB6993B19B682A46494630462B
:10533000FEF774F82E4425F0030149444B468B4296
:1053400007D053F8042B9442F9D00220ACE65B4618
:10535000EBE7B8EB0508E0D10020A5E60320A3E6C3
:105360000020A1E600209FE600209DE600209BE6AD
:10537000022099E6002097E64FF0FF3019E0012067
:1053800040F4E0201D4B186004210EE0002040F4A2
:1053900020201A4B186000225A60082105E02D04D5
:1053A00002202843154B18600421144800F024FD06
:1053B0000020BDE8F88FA06A0343E06A1840D36874
:1053C000002B7FF4E2AE0C4B1D88002074E6826A4D
:1053D00049EA0209C06A09EA0000DB68002B7FF491
:1053E000A1AE054B1D88002066E6034B1D880020FA
:1053F00062E600BFA0470020C45A0020AC5A00203B
:10540000F8FF0120000000202DE9F04F9DB0054677
:105410000C460CAECB4F0FCF0FC60FCF0FC60FCF22
:105420000FC697E80F0086E80F0000230B932E4667
:105430000493059306930793089309930A93022311
:105440008DF8243001238DF8253055238DF82A302E
:10545000B5F1807F0DD0B5F1847F14BF02270127FD
:105460003369013B13F1030F05D900201DB0BDE8DE
:10547000F08F0027F4E74FF4007229462046FEF72C
:105480007AF90023A36023746374A374E374A3758F
:105490001C2204A92046FEF7DDF808B10020E5E74C
:1054A00004F5007A04F6043B04F60C4804F68C4933
:1054B000FEF79EF920210CA8FDF7DAFF202114A8A1
:1054C000FDF7D6FFAB7D5BB995F82430002B40F09B
:1054D000A8809D4B013BFDD1306A00F50070C5E707
:1054E0004046FEF70AFA4FF4007229462046FEF7BE
:1054F00042F9002184F8B711482204F5DC70FEF768
:10550000E5F94FF4F67204F114014046FCF7C6F8D1
:1055100049464046FCF7E4FD4046FEF730F8AB7DD7
:10552000012B61D0AB7D022BCED10022114650461B
:10553000FDF74FFC0723524620215846FCF71EFE7C
:105540000DF1300CBCE80F00C4F82002C4F824129E
:10555000C4F82822C4F82C32BCE80F00C4F830028A
:10556000C4F83412C4F83822C4F83C320823C4F812
:1055700018320023C4F81C320DF1500CBCE80F00A7
:10558000C4F84804C4F84C14C4F85024C4F8543483
:10559000BCE80F00C4F85804C4F85C14C4F86024D4
:1055A000C4F864340823C4F840340023C4F84434F5
:1055B0000123C4F86836C4F8703695F8B711CDF8F1
:1055C00004A00BAB009320234A4605F5DC70FDF7E1
:1055D00071FC03903846FDF789FF039BD3B91C216A
:1055E0005A48FEF723F96FE73846FDF77FFF202280
:1055F00005F5DC714846FEF72DF820B91A2154480C
:10560000FEF714F98EE718215248FEF70FF94FF014
:10561000FF302BE71A215048FEF708F94FF0FF3012
:1056200024E74046FEF769F9326A05F50071404605
:10563000FCF734F849464046FCF752FD95F8243013
:10564000012B62D095F82430022B7FF442AF002268
:1056500011465046FDF7BDFB072352462021584610
:10566000FCF78CFD0DF1300CBCE80F00C4F82002F3
:10567000C4F82412C4F82822C4F82C32BCE80F0065
:10568000C4F83002C4F83412C4F83822C4F83C32EA
:105690004FF0080BC4F818B24FF00008C4F81C8291
:1056A0000DF1500CBCE80F00C4F84804C4F84C14C9
:1056B000C4F85024C4F85434BCE80F00C4F85804AB
:1056C000C4F85C14C4F86024C4F86434C4F840B46A
:1056D000C4F844840123C4F86836C4F8703695F8D9
:1056E0002810CDF804A00BAB009320234A4605F107
:1056F0002900FDF7DFFB04463846FDF7F7FED4B975
:1057000014211648FEF792F8E3E63846FDF7EEFE60
:10571000202205F129014846FDF79CFF20B91521FB
:105720000F48FEF783F88DE713210E48FEF77EF849
:105730004FF0FF309AE612210B48FEF777F84FF052
:10574000FF3093E678130000FFFF0500F013000020
:10575000D4130000B8130000101400005814000007
:10576000401400002C140000701400002DE9F04FCC
:10577000ADF27C4D0D46CB691B691C68C54E3046A9
:10578000FEF70CF9EB691B691022D9683046FBF76C
:10579000C9FEE4B2231D1946029300270097234651
:1057A00006F108028946BC48FDF7ECFABB4E2644D8
:1057B00004F10C0239463046FEF788F806EB04087F
:1057C00008F10C0B442239465846FEF77FF84FEAA1
:1057D000490A5246394608F15000FEF777F8302260
:1057E0003946AF48FEF772F8DFF8C082D8F80030CB
:1057F0004FF480725A80D8F800301A7902F0FE0215
:1058000067F3C3021A71A7B29F824FF480521A82C3
:1058100007EB020909F10409A3F8129007F6080240
:105820005600DE8206F144029A8350221A70D8F89C
:1058300000004CF2010303819A4B9847D8F80030DE
:105840001B8923B118460DF27C4DBDE8F08F302244
:1058500000219348FEF73AF88E48FEF79FF8EB696F
:105860001B691022D9698B48FBF75CFE0BEB040324
:105870000C33AAF1080A05930AEB0301069101F122
:105880000803039303EB040A0AF1040A4FF000082B
:10589000CDF800802346844A02995046FDF772FAFB
:1058A0007C48FEF77BF8EB691B691022196A79487E
:1058B000FBF738FEA2440AF1040ACDF80080234623
:1058C000794A02995046FDF75DFA4FF0010C8DF8C8
:1058D00077C4A2440AF1040ACDF8008001230DF236
:1058E000774202995046FDF74DFA6A48FEF756F89E
:1058F000EB691B69102299696648FBF713FECDF826
:1059000000802346684A02995846FDF73BFA6148F1
:10591000FEF744F8EB691B69102219695D48FBF733
:1059200001FEA2440AF1040A0AEB040B0BF1040B7A
:105930000BEB0403043304931819011D0846CDF83A
:1059400000802346584A02990790FDF71BFAEA693E
:105950009369CDF800809B00203202995046FDF7F4
:1059600011FAEA69D2F84032CDF800809B0002F5C6
:105970001272DDF808A051465846FDF703FAEA69AD
:10598000D2F86834CDF800809B0002F58E62514653
:105990000498FDF7F7F96B694FF0010CCDF800C0E2
:1059A000A34228BF23462A6951460398FDF7EAF926
:1059B0000DF5137C6046FDF7F1FF0DF1240C6046F8
:1059C000FDF7ECFF09AB93AAE968A868FCF7DCFED9
:1059D000034600287FF436AF939BCDF800809B00F0
:1059E00095AA51460598FDF7CDF9099B0698001B2D
:1059F000CDF800809B000BAA51460430FDF7C2F998
:105A0000E200079820442C3241460430FDF75EFF47
:105A1000264C2368A3F80280226857844FF48053F1
:105A20009382A2F8169007F2044007EB80003B181F
:105A300003F118011182568207EB47010B449BB218
:105A4000194489B201F1300CA2F81CC0243313832D
:105A500097841430D08307F10C03334453833437D5
:105A60000F4417845523137020684CF201030381FF
:105A70000F4B98472368188920B9AB6901221A6037
:105A80000346DFE648F202039842F9D1AB690022EF
:105A90001A60F5E700FC0120001001020410010269
:105AA00088FE01200900000208FC0120B8FE012048
:105AB0002D0000020E000000080000008801000018
:105AC00094010000B4010000D4010000F4010000C2
:105AD0001402000030020000E83900000500000058
:105AE000B600000001000000100000000A000000E5
:105AF000500200005C02000080020000A4020000CE
:105B0000C8020000EC02000010030000F0390000A1
:105B100005000000CC00000001000000140000009F
:105B20000C00000034030000400300006C03000080
:105B300098030000C4030000F00300001C040000F0
:105B4000F839000005000000B80000000100000066
:105B50001800000001000000480400005404000088
:105B600088040000BC040000F004000024050000CC
:105B700058050000003A000008000000080200007C
:105B8000010000001C0000000E000000880500005D
:105B900094050000D00500000C0600004806000037
:105BA00084060000C0060000083A0000050000005E
:105BB000D1000000010000001E00000004000000F1
:105BC000FC060000080700004807000088070000E6
:105BD000C80700000808000048080000E03900007D
:105BE000080000000B02000001000000200000007F
:105BF000070000008808000094080000D808000092
:105C00001C09000060090000A4090000E809000068
:105C1000103A0000080000000E0200000100000021
:105C2000300000000F0000002C0A0000380A0000BD
:105C30009C0A0000000B0000640B0000C80B000071
:105C40002C0C0000183A000005000000D2000000F3
:105C5000010000004200000010000000900C000055
:105C60009C0C0000200D0000A40D0000280E000078
:105C7000AC0E0000300F0000203A000005000000CC
:105C8000D30000000100000000000000FFFFFFFF44
:105C90000000000000000000000000000000000004
:105CA00000000000000000000000000000000000F4
:105CB0000000000000000000000000004FF08842DB
:105CC000D2F8003113F4007FFAD0002343490133A6
:105CD0004A6A12F0010F11D1B3F5FA5FF7D13F4BC9
:105CE0005B6A13F0010F0CD13C4A536843F4807394
:105CF0005360536A13F0010FFBD002E0B3F5FA5F73
:105D0000EDD2374AB2F8BA3403F0FD03A2F8BA3440
:105D10000022324901324B6A03F00303032B13D0F4
:105D2000B2F5FA5FF6D12D4B5B6A03F00303032B48
:105D30000DD02A4A536843F400735360536A03F04A
:105D40000303032BFAD102E0B2F5FA5FEBD24FF076
:105D500088430022C3F8B020224AC3F8B02002F1E1
:105D60002B42A2F54B12A2F6AB42C3F8B02003F5CA
:105D700020631D4A1A624FF480721A6001229A60F1
:105D80001A46136813F0010FFBD1184B48F20902B1
:105D9000C3F8502140F201221A674FF400429A677B
:105DA0004FF08843124A1A6600221A674FF01942D0
:105DB000C3F880200F4AC3F8C02047F2CE42C3F890
:105DC000E0204FF03332C3F8B020044B5A6842F061
:105DD00010025A604FF080721A6070470040014113
:105DE00000200141556699AA080100C0000A00443C
:105DF00000900009CF01012008B5FBF79DFF08BD09
:020000040004F6
:105F8800FFFF000000400E8438FC745F3844121490
:085F980003000071000000008D
:045FBC0000000010D1
:020000040100F9
:1000000000000000000000004D43485000000000C8
:100010000100000002010200000055000000000184
:1000200080A8040002000000483046022100C9F701
:10003000FF247848225778070245851FB189A032EE
:1000400018CF3A0CA81D23F8F334EF4B5B40022184
:1000500000F37868CF432CB6B9DC204C35F57DA988
:10006000C4AFB38FD43E950B8876491D837C8DC871
:100070008F000000000000000000000000000000F1
:100080000000000000000000000000000000000070
:100090000000000000000000000000000000000060
:1000A0000000000000000000000000000000000050
:1000B0000000000000000000000000000000000040
:1000C0000000000000000000000000000000000030
:1000D0000000000000000000000000000000000020
:1000E0000000000000000000000000000000000010
:1000F0000000000000000000000000000000000000
:1001000000000000000000000000000000000000EF
:1001100000000000000000000000000000000000DF
:1001200000000000000000000000000000000000CF
:1001300000000000000000000000000000000000BF
:1001400000000000000000000000000000000000AF
:10015000000000000000000000000000000000009F
:10016000000000000000000000000000000000008F
:10017000000000000000000000000000000000007F
:10018000000000000000000000000000000000006F
:10019000000000000000000000000000000000005F
:1001A000000000000000000000000000000000004F
:1001B00000000000000000483046022100D0E24567
:1001C00061C8649D1B9D64CF04FA5CD6691BA4744E
:1001D000E702D65C6888C5BC7451ED822502210017
:1001E000ED7F424D53799D1781C45D38EA53D2802B
:1001F000B4952452FC717EFFB1FC40983AF78761B8
:10020000F0FF0120C9850401C9A60401CDA604019F
:10021000D5A60401D9A60401DDA604010000000052
:1002200000000000000000000000000039BA0301D7
:10023000D1A60401000000009DBA030105BB030123
:10024000BD3504016D6F0401CB10030181EA030188
:10025000CB100301CB100301A1900301CB100301CC
:10026000CB100301CB100301CB100301CB10030112
:1002700011530301CB100301CB100301CB10030179
:10028000CB100301CB100301CB100301655D04010A
:10029000CB100301CB100301CB100301CB100301E2
:1002A000CB100301CB100301CB100301CB100301D2
:1002B000CB100301CB100301ED890201CB10030128
:1002C000CB10030119890201CB100301CB100301EC
:1002D000CB100301CB100301CB100301CB100301A2
:1002E00000430800F023012000000000000000008F
:1002F00001430100A92201200000000000000000CD
:1003000002430100AC2201200000000000000000B8
:100310000A4001008A3700200000000000000000B1
:1003200000400400842C00200000000000000000B9
:1003300009400100D52C0020000000000000000052
:1003400008402000D00D0020000000000100000047
:1003500007403002A8140020000000000100000047
:1003600006400200F82C0020000000000000000001
:1003700005403800F00D00200000000002000000E1
:1003800004400300F22C00200000000000000000E8
:100390000340F00058190020000000000300000096
:1003A0000240C800A0010020000000000100000081
:1003B00001406000002D0020518C0301000000006E
:1003C00084A704010900004CF8B500BFF8BC08BCC4
:1003D0009E467047F99D0401F8B500BFF8BC08BC03
:1003E0009E467047D59D04011CE1030001000000FA
:1003F000A0F57F40FB3804281CD8DFE800F0050E8C
:10040000161B0300012070470B4B93F82E20012A86
:1004100010D1187AC0F380007047074B93F82E0074
:1004200001288CBF002001207047034B187AC0F3CD
:10043000C000704700207047A82C0020034B93F8A1
:100440005201A0F1AA03584258417047C03700201A
:100450000A4AF0B5D2E93A321978C90707D5D0E986
:100460000067D3E90245AF4208BFA64203D010336C
:100470009A42F1D800231846F0BD00BFC0370020D3
:10048000074AD2E93A321978C90702D55988814218
:1004900003D010339A42F6D800231846704700BFA5
:1004A000C0370020F0B50C4BD3F8E06093F8E5506E
:1004B00000231C4606EBC302D7783FB1178887425A
:1004C00004D197788F4204BFD47054600133DBB2FB
:1004D0009D42EFD2F0BD00BFC0370020034B93F820
:1004E0004C00A0F14103584258417047C0370020EA
:1004F0003D2803D111B1024B0A881A80704700BF12
:10050000000B0120034B93F83C00A0F1D6035842A6
:1005100058417047C0370020034B93F8C400A0F146
:100520001303584258417047C0370020034B93F8DB
:100530007801A0F1B703584258417047C0370020F6
:10054000437800F1080210B513F008040A611DBFDA
:100550000A6000F110020A610C6013F010021FBF64
:100560000A694A6008320A6108BF4A6013F0010252
:100570001FBF0A698A6001320A6108BF8A6013F0EE
:1005800004031DBF0B69CB601A78CB601EBF01321C
:1005900003EB42030B610B69181A087510BD084A7A
:1005A000D2F80C3292F8082203EB8212934201D364
:1005B00001207047197809B94033F7E700207047E8
:1005C000C0370020034B93F80002A0F1DA03584231
:1005D00058417047C0370020014BFD221A70704708
:1005E000C0370020034B93F8B900A0F1E60358424E
:1005F00058417047C0370020034B93F87C02023803
:1006000018BF0120704700BFC0370020034B93F88C
:100610007001A0F18E03584258417047C037002046
:10062000024BFB2283F86823704700BFC0370020CD
:10063000034B93F86803A0F1FB03584258417047FD
:10064000C03700200C4B30B12830D3F8F82090424E
:1006500004D300207047D3F8F400F6E7037803F0E2
:10066000FB03012B05D1837EDB0702D483888B42F9
:10067000F0D12830EBE700BFC0370020084AD2F89D
:10068000F430C01A074BC0104343D2F8FC0000EB13
:10069000C3008079430714BF00F0070007207047AC
:1006A000C0370020CDCCCCCC144B93F800319A420B
:1006B00094BF9B1ADB1ADBB299421DD2104B68B172
:1006C000597C890708D493F84800904294BF0020D1
:1006D000012080F0010070470020FAE75A7CD20721
:1006E00005D493F84900884294BF0020012080F08F
:1006F000010000F00100704701207047C037002062
:10070000A82C00200B4A10B5D2E93D311A78062AF0
:1007100009D05C78022C06D102F0FB02012A02D13A
:100720009A88824203D028339942EFD80023184692
:1007300010BD00BFC03700204BF6DD734343C3F349
:100740000333094A32F8331030EA010103D102EBD6
:10075000C3035B680BB9002070479A88824201D0BE
:100760005B6AF7E701207047103C0020024B6622CD
:1007700083F8B023704700BFC037002073B50D4B1E
:10078000D3F8DC1293F8E052002201230839D4B2E6
:10079000A54206D8002064F3070063F30F2002B0DF
:1007A00070BD013251F832608642F3D05B00DBB29B
:1007B000EDE700BFC03700202DE9F04F074685B0B8
:1007C0000020994688461646244CFFF7D7FF94F838
:1007D000E032ADF80C00C0B2834232D904F1F4012A
:1007E00091E80A109DF80D20DFF874E001930D46A2
:1007F0006FEA020A2B78062BA5EB01030AD095F8C5
:1008000001B0BBF1020F05D0B5F804B0C34501D06B
:10081000B34519D1DB100EFB03F30CEBC30393F8C4
:1008200007B00BEA0A0B83F807B0019B28359D42FD
:10083000E0D3D4F8DC3203EBC0000760868080F898
:10084000069005B0BDE8F08FDB100EFB03F30CEB58
:10085000C30393F807B042EA0B0BE4E7C03700206C
:10086000CDCCCCCC07B5FFF789FF074B93F8E0223E
:10087000C0B2824282BFD3F8DC32002243F830207B
:1008800003B05DF804FB00BFC0370020044B93F8B1
:10089000100200F0FD00A0F1480358425841704793
:1008A000C0370020024B272283F81023704700BF77
:1008B000C0370020034B93F81003A0F127035842E0
:1008C00058417047C0370020034B187CA0F1190332
:1008D00058425841704700BFC0370020094B30B51F
:1008E000D3F8A823B3F8AC4300239C4202D10021E3
:1008F000084630BD114632F8145B8542F8D001330A
:100900009BB2F2E7C037002038B505460C46FFF72A
:10091000E5FF50B9124AB2F8AE33D2F8A81314204A
:1009200000FB03100133A2F8AE336278428020F856
:10093000045B002399B28A420AD8094BB3F8AE236C
:10094000B3F8AC1391429CBF0022A3F8AE2338BD8C
:1009500004EB4301498820F813100133EAE700BF94
:10096000C0370020034BD3F88002B0FA80F0400972
:10097000704700BFC0370020084A10B5D2E9A7323F
:100980001C782CB19C7A8C4202D19C88844203D082
:1009900018339A42F4D80023184610BDC0370020FF
:1009A00010B50446006948B1636923B15A68A24290
:1009B00004BF00225A60C368103098470023237098
:1009C00010BD436810B4C3B11A69B2B15C69844206
:1009D00013D151B114205074002018701046D36800
:1009E00000F8101F5DF8044B1847107928B95878A3
:1009F000196161F3C3005870F0E75DF8044B70476C
:100A0000034B93F8A402B0FA80F04009704700BF8E
:100A1000C0370020114930B5B1F8AC32D1F8A80286
:100A2000C3EBC303C21800230479E40709D593B1CB
:100A300045795C79A54238BF034607309042F3D32D
:100A40001846037943F00103037191F8AE220123A4
:100A50009340437130BD0346EFE700BFC03700202D
:100A60000C4A10B5D2F8A832B2F8AC22C2EBC202DE
:100A70001A441C7914F0010F06D0C4F300148C4200
:100A800002D11C88844203D007339342F1D3002360
:100A9000184610BDC037002008B5FFF7E1FF18B1B8
:100AA00003796FF30003037108BDF8B507460E46DE
:100AB00015461C46FFF7D4FF58B18379A34207D3EC
:100AC000094B93F8AE220123934043714580847112
:100AD000F8BDFFF79FFF0379078003F0F10366F38A
:100AE00004130371F2E700BFC037002010B50A4BB2
:100AF00093F82014D3F824240023994202D1FF2331
:100B0000184610BD147814B154788442F8D00133DB
:100B1000DBB21C32F1E700BFC037002008B5FFF799
:100B2000E5FF084B93F82024824281BF00B2D3F83E
:100B30002434C0EBC00003EB80008CBF02300020E7
:100B400008BD00BFC037002010B50446C069437817
:100B50005B078AB010D56946FFF7F2FC039B5A7811
:100B600003EB42039A78DB7842EA032323850123CF
:100B700084F832300AB010BD8378C27843EA022389
:100B8000F4E7044B93F88001A0F19A0358425841CE
:100B9000704700BFC0370020024B002283F8D522E7
:100BA000704700BFC037002090F8873043F0020341
:100BB00080F88730012380F83230704730B50D4C13
:100BC00030B12830D4F8F850A84204D3002030BD0A
:100BD000D4F8F400F6E70478062C09D04478022C07
:100BE00006D08488944203D08C4201D09C42EED13E
:100BF0002830E9E7C0370020034B93F8E802A0F162
:100C00003103584258417047C0370020024A5368A8
:100C100023EA000050607047C0370020024B986EF6
:100C2000B0FA80F040097047C0370020034B93F8BA
:100C30002804B0FA80F04009704700BFC037002098
:100C400010B5094C502384F85033B4F83A33A4F863
:100C5000583304F55270054BC4F8603337F014F87C
:100C60001B2384F8383310BDC03700203544000101
:100C700008485F2380F81032074BC0F83032412318
:100C800080F82032002380F8283200F5067036F014
:100C9000FBBF00BFC0370020ED13000173B506464F
:100CA0006846CDE90023FFF7D3FB0446D8B9164DBB
:100CB000D5F8F040D5F8E8309C4203D3D5F8EC30B5
:100CC0009C4205D3114B43F214121A8047F0B8FF2F
:100CD000D5E93B2310339342C5F8F03024BFD5F853
:100CE000E830C5F8F0302378668043F001032370C4
:100CF000DDE90023C4E9022323789DF8182062F37C
:100D00004103237002B070BDC0370020642D002065
:100D100007B531B35028164B08D0512824D03D28B0
:100D200007D11A8909880A441A8102E09A88013297
:100D30009A809988A9B1D88864224243B2FBF1F223
:100D4000D2B2192A0DD99A785AB901229A704FF65F
:100D5000FF73ADF8043001A814238DF8063011F0AC
:100D6000ABFC03B05DF804FBDA880132DA80E0E71F
:100D7000000B0120134B984237B5054605D0124BA6
:100D800043F205021A8047F05BFF104C002384F801
:100D900030302B789BB90E4D238C29460D2021F83D
:100DA0003A3F3EF063FD94F8313043B96B8FADF8B4
:100DB000043001A810238DF8063011F07DFC03B03B
:100DC00030BD00BF2C0B0120642D0020000B012042
:100DD000A82C0020037907B56BB1084B93F853207A
:100DE000920708D55B8FADF8043001A809238DF870
:100DF000063011F061FC03B05DF804FBA82C002064
:100E0000164AD2F8F43013B5C31A154CDB106343FD
:100E1000D2F8FC4004EBC3040378052B08D101A9E8
:100E20002C203EF0F7FC019BDB0A236002B010BDD2
:100E30004378022B05D1026A03F2E6335343019350
:100E4000F1E70DF1030114203EF0E4FC9DF80330BE
:100E500043F6982203FB02220192E4E7C037002008
:100E6000CDCCCCCCF0B585B01A4CADF804000DF16A
:100E70000F012520D4F8F4503EF0CCFCD4F8FCC08F
:100E8000D4F8F470D4F8F8109DF80560124C0020E6
:100E900002462B78062B0ED0EB1BDB1063430CEBCA
:100EA000C303DB791E426B7804BF0132D2B2022B3E
:100EB0001CBF0130C0B228358D42EAD340B19DF845
:100EC0000F30984228BF184690428CBF0020012066
:100ED00005B0F0BDC0370020CDCCCCCC0D4A0123ED
:100EE00003FA00F0536810B50B4C0343536023889A
:100EF0001B070ED43AF0B8FD238843F00803238083
:100F00003AF0C2FD054B06481B68BDE810401B695E
:100F1000184710BDC03700209E0F0120503200201E
:100F200054320020034B9A6F192083F8B9001177CF
:100F30000C20D3E7C0370020024BF92283F8B422FB
:100F40001020CBE7C0370020437843F0010361F362
:100F500041034370044B93F8A42222B9932283F8EF
:100F6000A4220520BAE77047C0370020D0B5124C44
:100F7000124AD4F8B83392F8381083F82A10D2E91C
:100F80001067528F1A8583F82B00C3E908675A69E6
:100F900003F1200090470023C4F8B833D4F8B433E9
:100FA00033B1672384F8B0331220BDE8D04095E711
:100FB000662384F8B033D0BDC0370020A82C0020B1
:100FC0000F4B0079D3F8B823127B062A00D1CDE766
:100FD000042A10D178B96A2283F8B023094AC3F8E9
:100FE000D823452283F8C823074AC3F8D02303F542
:100FF000707036F049BEEA2808BFCA20E7E700BF94
:10100000C0370020CD270001C62C0020054B0178F9
:10101000D3F87C2182F82810472283F8802106200B
:101020005CE700BFC0370020436803221A70597084
:10103000172053E737B5164C94F85221452A054638
:1010400005D0144B4FF446521A8047F0F9FD15B104
:10105000114B9D4205D00F4B43F281121A8047F08D
:10106000EFFDAA2384F852310C4BEA7A5B8FADF87E
:10107000043052B9102301A88DF8063011F01CFB82
:101080000220FFF72BFF03B030BD0923F3E700BFB9
:10109000C0370020642D0020F8380020A82C002044
:1010A00070B5184C94F8C430D4F8C060E82B0546ED
:1010B00005D0154B43F287021A8047F0C1FD2EB9C7
:1010C000114B43F288021A8047F0BAFD06F10C0377
:1010D0009D4205D00C4B43F289021A8047F0B0FDC7
:1010E000736A2A791A702A685A60EA791A72E923AF
:1010F00084F8C43094F8C53023700D20BDE87040EA
:10110000ECE600BFC0370020642D002070B5144C01
:10111000D4F8746105462EB9124B43F2B4021A801A
:1011200047F08EFD06F118039D4205D00D4B43F2AA
:10113000B5021A8047F084FD94F878315E2B05D013
:10114000084B43F2B6021A8047F07AFD2B7886F8F6
:101150004C30582384F878310920BDE87040BDE652
:10116000C0370020642D002070B5164C94F83C2048
:10117000A56B712A064605D0134B43F2D7021A809D
:1011800047F05EFD2DB9104B43F2D8021A8047F0AC
:1011900057FD05F10C039E4205D00B4B43F2D902DB
:1011A0001A8047F04DFD337913B1FA2B08BF0023A5
:1011B00085F82430722384F83C300820BDE8704064
:1011C0008CE600BFC0370020642D0020037810B5E6
:1011D0000E4C93B96F2304F5EC71062084F8D031DE
:1011E0003EF018FB0A4BC4F8E03104F5E47036F029
:1011F0004BFD352384F8003210BDD4F88C210A2031
:1012000082F82B30FFF76AFE2223F3E7C037002075
:10121000995100010D4B37B50D4CD3F82C2494F89F
:101220005350052183F82814FE2313741620FFF76A
:1012300055FEAB0708D5638FADF8043001A809232C
:101240008DF8063011F038FA03B030BDC0370020F9
:10125000A82C0020F0B5214A85B0D36E92F87070AA
:1012600000244FF4A072064602FB07328DF80740B7
:101270002546934214D335B302A940F231103EF013
:10128000C9FA04AB3344052F13F8093C13D89C4228
:101290002CBF00240124B4B12E70284605B0F0BD47
:1012A000197831B1B14201D10134E4B203F5A07330
:1012B000DFE71D46FAE713FB07F3B4EB930FB4BF68
:1012C00001240024E7E701230DF1070146208DF8F2
:1012D0000730002541F096FFDFE700BFC037002050
:1012E00008B5FFF7B7FFB8B100F11A0390F807216E
:1012F000C0F89C300023C0F8C43080F8C030C0E98A
:101300003233A0F8BC3063F34102044B80F807216C
:101310005B8FA0F80031803008BD00BFA82C0020F2
:10132000742908B501D9002008BDFFF793FF0028F4
:10133000F9D000F10C03C0F884308030F4E7F0B548
:10134000537D122B87B00D46144620D81669177DA1
:101350007178BA1C88B23B44DBB202EB4002934284
:1013600015D1AA88ADF8052000238DF804308DF83A
:10137000071001AA99B2884202F102020AD801A913
:101380003E2041F03FFF2169A888FFF7BDFA002009
:1013900007B0F0BD06EB43070133B978FF7841EAA7
:1013A00007215180E6E770B50F4D0024B5F8AC3247
:1013B000A34200D870BDD5F8A822C4EBC4063244BD
:1013C000127902F02102212A03D121460A2041F09C
:1013D00019FFD5F8A832334401341A796FF3451256
:1013E0001A71A4B2E2E700BFC037002070B50E4CFE
:1013F00010F80C1CD4F8145206462A2041F002FFC3
:1014000094F81032602B08D133782B735E2384F864
:1014100010320720BDE8704060E50DB15D23F6E7AE
:10142000482384F8103270BDC0370020164B2DE9D8
:10143000D043D3F80C4206460F4644B9134B4FF441
:1014400041521A8047F0EAFB2046BDE8D08356EAB5
:10145000070110D093F80812234604EB81110024F1
:101460008B42F1D2187858B13AB1D3E90289B94523
:1014700008BFB04505D10024E6E7D3E90689F6E7C1
:101480001C464033ECE700BFC0370020642D00202D
:1014900008B50146034846F069FC0320BDE8084052
:1014A0001CE500BF0038002010B504460120FFF7FE
:1014B00017FF58B1064A224492F85811013982F8B0
:1014C000581180F88640FFF7E3FF012010BD00BFF0
:1014D000C0370020132810B5044605D90C4B43F241
:1014E000D2121A8047F0ACFB0A4A224492F85831D3
:1014F0000133DBB282F858312BB9054B43F2D312DA
:101500001A8047F09DFB2046BDE81040CCE700BFA5
:10151000642D0020C037002003790A4A1BB103F074
:10152000EF03EA2B09D1D2F8283301688B4304D0AA
:10153000522382F810330820CCE7272382F8103397
:10154000704700BFC037002010B50446B830FFF721
:1015500089F90023124A2370D15CD8B2D1B1FFF7C8
:10156000A3FFD8B90F4C94F8A4321A2B02D105204E
:10157000FFF7B4FC94F87031902B05D1912384F8D7
:1015800070310F20FFF7AAFC636F3BB11520BDE857
:101590001040A3E40133142BDED1E3E710BD00BFFC
:1015A00018390020C037002038B50D4D01460446DB
:1015B000284646F0DBFB2B7F782B10D120232B779E
:1015C000A37D0C2B09D020894FF6F77398428CBF6E
:1015D00001200220BDE838407CE71020FAE738BD42
:1015E000783A002037B50546214C38B194F852318D
:1015F000442B03D104F59A73984205D01D4B43F256
:1016000082121A8047F01CFB2D78AA2384F85231ED
:101610004DBB194AB4F828315387ADF8043001A8FE
:1016200010238DF8063011F047F894F85431D3B1F7
:101630000D2384F82E314FF6FD73A4F820310233C8
:10164000A4F82431B4F85031A4F822310B4BC4F87B
:101650001C310B4884F82851462384F85231FFF797
:10166000A3FF03B030BD0220FFF738FCF9E700BF4D
:10167000C0370020642D0020A82C0020315100012B
:10168000D838002030B40C4C94F8D55295B984F871
:10169000D2320123A4F8C402A4F8C612A4F8CA22C4
:1016A000A4F8C82284F8CC5284F8D53204F52F70FF
:1016B00030BC79E730BC7047C037002010B441B16E
:1016C000C469B0F880206188A0885DF8044B0B23C2
:1016D000D8E75DF8044B704710B5D0F89430104C43
:1016E000C0F8A030002380F8A910C0F8A43001464B
:1016F000204646F03BFB2379412B06D1032323717F
:101700000E20BDE81040FFF7E9BB032B07D0054BC7
:1017100043F2B312BDE810401A8047F07FBA10BD03
:1017200008380020642D002038B5446890F88330D4
:1017300084F8A8300D463830FFF794F82946204643
:10174000BDE83840C8E708B500F10801084846F090
:101750000DFB084B93F8B023662A07D1672283F864
:10176000B0231220BDE80840FFF7B8BB08BD00BF9A
:10177000743B0020C03700200A49D1F80C32834264
:1017800005D891F8081203EB8113984205D3064B54
:1017900043F241021A8047F041BA4022002149F049
:1017A00023B800BFC0370020642D0020034B002267
:1017B000C3E900224FF48070FFF728BAC437002035
:1017C000094BD3F8480493F8442400239A4200D1EB
:1017D00070470178032903D11822002149F004B889
:1017E00001331830DBB2F1E7C03700202DE9F341B7
:1017F00001230746884637200DF107018DF8073091
:101800003EF008F83E4890F82E20022A4FF00006DD
:1018100006D19DF807301BB9032002B0BDE8F08166
:10182000384C002394F8E510D4F8E0C01D460CEBCA
:10183000C30292F803E0BEF1000F37D0B2F800E027
:10184000BE4536D19278424533D10020E5E738F0E5
:10185000F7FFD4F8D030D4F8E07094F8E560834214
:101860008ABFDB43C01AC0184FF0FF32002307EBDA
:10187000C301CC7854B14C6844B1A94206D084422B
:101880000ED9241AA2424C6028BF22460133DBB293
:101890009E42ECD269681C4B8A4228BF0A4625E06A
:1018A00000244C60CC70F1E70220B6E70DB91E466B
:1018B00015460133DBB29942B9D2002DF4D085F838
:1018C0000280C2682F800A320123B1426A60EB7045
:1018D00007D194F8E430013B99423CBF013184F8D0
:1018E000E51094F8C830002BB1D1074B074801210F
:1018F00048F072F8054848F083F801208DE700BFF2
:10190000A82C0020C03700201119000188380020C1
:10191000F8B5174BD3F8E060D3F8D47093F8E550DE
:101920004FF0FF32002106EBC104E07830B160686F
:10193000C01B606090B1824228BF02460131C9B22B
:101940008D42F0D2511C0BD00A4B0B48012148F0BC
:1019500043F80948BDE8F84048F052B8E070EDE7B8
:10196000002283F8E5200448BDE8F84048F050B86C
:10197000C0370020111900018838002013B540F24B
:101980000B100DF106013DF045FFBDF806303BB9E7
:101990000C4B43F215121A8047F040F902B010BD0B
:1019A000094C40F20A2021463DF01AFFBDF80620FE
:1019B0002068120183180021636048F015FF236836
:1019C000A360EBE7642D0020A838002010B50F4B72
:1019D00093F83720827793F8382081610123934070
:1019E000436140F601030446838300F11F014FF475
:1019F00082703DF00FFF04F1100140F202203DF033
:101A0000EFFE2046BDE8104036F03BB9A82C002080
:101A10002DE9F743354D95F86833FB2B49D134490F
:101A2000C8884B8F984244D1507D092841D9166906
:101A3000D1E91023D6F80690D6F802804B4508BFAE
:101A4000424536D1737813F0E00732D103F01F031B
:101A50000533B0EB430F2CD18C8F4FF482700DF116
:101A600007013DF0D7FE9DF807300133DBB20134AA
:101A7000A4B28DF8073038464FF6FF7C9AB27378DF
:101A8000C1B203F01F038B420AD9A5F86CC3002131
:101A90007778CBB207F01F079F420ED88F421CDC2D
:101AA00014491548A5F86A43FFF790FF832385F88A
:101AB0006833012003B0BDE8F0830B1D06EB430340
:101AC0005B881B1B9BB29342E8D9B5F86C739F42AD
:101AD00088BFA5F86C330131DAE7031D06EB430339
:101AE00001305C880134A4B2C9E700BFC0370020D0
:101AF000A82C002089440001303B002038B5012388
:101B000080F824300B68C36190F84D3080F82530A0
:101B10000D4B93F8373080F82630044600F1080565
:101B200000F127014FF482703DF074FE04F11801BA
:101B300040F202203DF054FE044B23622846BDE8EB
:101B4000384036F09EB800BFA82C0020C93C0001E8
:101B5000F7B52F4C94F87831D4F87451572B0646CA
:101B600005D02C4B43F2A8021A8047F069F82DB932
:101B7000284B43F2A9021A8047F062F805F11003DE
:101B80009E4205D0234B43F2AA021A8047F058F830
:101B900033796BBB3168EA6922EA0102019232B9FA
:101BA0001C4B43F2BA021A8047F038F81EE0B768BF
:101BB000F679202001229E4211D9019911420AD0C2
:101BC00017F803C0BCF1CC0F88BF914303F10103A8
:101BD00088BF0191DBB201384FEA4202EBD101A983
:101BE0002846FFF78BFF562384F8783103B0F0BD09
:101BF000FA2B03D1074B43F2BB02D4E785F84C30F4
:101C00000920582384F87831FFF768F9EEE700BF20
:101C1000C0370020642D00200348002380F87C3268
:101C200000F514703FF03ABAC037002073B5164C77
:101C30000DF107014FF486703DF0ECFD214640F2B6
:101C40000B203DF0CDFD9DF80720206802EB4202FD
:101C5000D200831800216360002648F0C5FD2020D3
:101C60002672FEF7D3FFA4F1140066723FF016FA55
:101C7000064B44F8043C4FF4807304F8086C44F8B5
:101C80000C3C02B070BD00BF5C3A0020911C00010A
:101C900038B5104C0023D4F89C5284F8A5322B7828
:101CA00033B1013BDBB22B707BB92846FEF778FEDF
:101CB000D4F8A0321835AB42F1D894F8A53243B924
:101CC0000548BDE838403FF0E9B9012384F8A53262
:101CD000EEE738BDC0370020483A002013B5002396
:101CE0000DF107014FF498708DF807303DF092FD2B
:101CF0009DF807308BB10A4C94F890238B2A05D1BC
:101D0000084B43F203221A8046F09AFF94F890336E
:101D10008A2B02D104483FF0C1F902B010BD00BFC8
:101D2000C0370020642D0020543B0020F8B5174C2C
:101D300094F82834042B0F4623D1D4F82C64156969
:101D40002EB9134B43F205521A8046F079FFBB7946
:101D5000012B18D10F483FF0A1F994F82834042B37
:101D600007D16B782BB9AB780B4A03F0070382F8E5
:101D700053306B78052284F8282416203374FFF73B
:101D8000ADF80020F8BD0120FCE700BFC0370020FF
:101D9000642D0020F03B0020A82C002003480123E4
:101DA00080F87C3200F514703FF04EB9C037002047
:101DB000054B1A78D20705D5022283F87C22002031
:101DC000FFF788BBEAE700BFC03700201E2810B528
:101DD0000C4613D10B88B3F5005F0FD1FFF71CFF42
:101DE00063681A68064BC3F85822012283F85C2204
:101DF000044AC3F86022BDE81040CFE710BD00BF21
:101E0000C0370020B11D0001084831B9042380F813
:101E1000283400F586603FF017B9D0F82C3405223D
:101E200080F8282419741620FFF758B8C03700200E
:101E30000B4881B9552380F81033012380F82033F3
:101E400042F21073C0F81C33064BC0F8243300F57F
:101E500045703FF0F9B8272380F81033704700BF72
:101E6000C0370020A508000107B54FF48A7001A90A
:101E70003DF0D0FC134B93F87A221946D2B193F877
:101E80007B22013AD2B283F87B229AB1019858B1F1
:101E90000122C3F86C0283F87C2203F519703FF02D
:101EA000D3F803B05DF804FB022283F87C22FFF72D
:101EB00011FBF6E743F69823C1F85832FFF76EFF9F
:101EC000EFE700BFC0370020194B70B5D3E9A74139
:101ED0000646002522784AB993F8A522B2B9012214
:101EE00083F8A52213483FF0AFF80FE060780007B1
:101EF00004D4D5B12878904288BF25461834A14231
:101F0000E8D885B12846FEF74BFD2C461822002163
:101F1000204648F069FC4FF0000366F3C30363708A
:101F2000272323702546284670BD2546E6E700BFD7
:101F3000C0370020483A002038B50D4CD4F8F45092
:101F40002846FEF75DFFD4F8F83028359D42F7D3D8
:101F5000084BC4F814314FF40063C4F80C3100236B
:101F600084F810310448BDE838403FF06DB800BF38
:101F7000C0370020518F0001C438002010B50F4C2D
:101F80001D2021463DF046FC2368B3B142F25D724C
:101F900093420B489CBF42F25E732360012380F89A
:101FA000A033084BC0F8A4338A2380F89033BDE8EF
:101FB000104000F565703FF047B810BD5C3B002055
:101FC000C03700207179000107B500230DF107012A
:101FD0004FF498708DF807303DF01CFC9DF80730E9
:101FE00053B1084B93F89033892B08D0064B4FF42C
:101FF00048521A8046F012FE03B05DF804FBFFF76A
:10200000BDFFF9E7C0370020642D002008B5074B5D
:1020100093F890338B2B05D0054B43F202221A80A4
:1020200046F00EFEBDE80840A8E700BFC03700201C
:10203000642D00202DE9F0470D4691F82010017223
:1020400090461E4642686B6A9342044608D20B448F
:102050009A4205D21A4B43F2A7121A8046F0F0FDBD
:10206000227A696A606848F0F7FA04F11001606842
:10207000B5F808A095F82890277A95F92A50FEF728
:102080005FFA94F824309DF8202084F82890FF1AF5
:10209000237884F8257084F8295062F3000398F8B7
:1020A0000120A4F826A0520862F341039DF82420E1
:1020B00066F3C70362F382032370BDE8F08700BFB5
:1020C000642D002010B5074C002384F8883004F1FB
:1020D0008000054BC4F88C3035F090FD142384F853
:1020E000B93010BDC0370020D1890001036893F9D1
:1020F0001230002B05DA1323002180F84130084606
:10210000E0E7122380F841300620FFF7E3B910B56D
:102110001D4C94F82834D4F82C04012B224620D1ED
:102120002378DB0618D503790E2B03D8437913F0F7
:10213000FE0F09D0052382F82834C123037416202A
:10214000BDE81040FEF7CABE022384F828341220EE
:10215000BDE81040FFF7BEB9052384F82834C22338
:10216000ECE7052B0FD183680C30984704F22C4024
:1021700045F020FED4F82C341BB1012384F8283418
:10218000DDE784F8283410BDC037002010B50720E3
:10219000FFF760F80446C0B10C4845F00BFE04F1AF
:1021A0003503C4F81031037984F8313103468034A3
:1021B00043F80C4F826818469047054B5B6F23B17C
:1021C0001520BDE81040FEF789BE10BD3438002050
:1021D000C037002070B5144D064605F57D70D5F862
:1021E000F44345F0E7FD114991F8383084F8223086
:1021F000D1E91023C4E906234B8F238484F823609C
:10220000E36804F118009847D5F8F4333BB117237D
:1022100085F8F0331320BDE87040FEF75FBE16234B
:1022200085F8F03370BD00BFC0370020A82C002017
:10223000007810B9014BBD221A70CBE7C0370020DF
:1022400070B5244C04F56D70D4F8B45345F0B2FD6C
:102250002378287913F0100FA5F1080623461AD029
:10226000042818D11C4B2A7C1A72682384F8B033D6
:102270001A4BC4F8D83306206F2304F57471C4F8E0
:10228000B86384F8C8333DF0C5FA04F57070BDE852
:10229000704035F0F9BC062812D10F4A297C117222
:1022A000682283F8B0230D4AC3F8D8236F22C3F8FD
:1022B000B86383F8C8230A493DF0ACFA0948E6E759
:1022C000C22385F8233005F11800EB68BDE87040A3
:1022D000184700BFC0370020A82C0020CD270001E0
:1022E000903B0020803B002038B51D4D284645F02E
:1022F00061FD2B79032B044605D01A4B43F2B4122F
:102300001A8046F09DFC2CB9164B43F2B5121A8088
:1023100046F096FCD4F898303BB9124B43F2B61213
:102320001A80BDE8384046F079BC04F19C0098471B
:1023300094F8A9301BB90C493C2040F063FF0B49CD
:102340003D2040F02DFF0A4B9A6C22B10E20BDE8D3
:102350003840FEF7C3BD412283F84C2038BD00BF92
:1023600008380020642D0020000B0120CC1F012024
:10237000C037002070B5314C94F8C430E72B48D1F9
:10238000D4F8C0502DB92E4B43F281021A8046F08A
:1023900057FC237813F0010F6B6A1FD01A6AAA61E9
:1023A000002685F8206093F8242085F82120254A0E
:1023B00092F8372085F822201022093385F823204F
:1023C000214A6B61EA61281D35F05BFC237884F8B3
:1023D000C5302670E82384F8C43070BDC3221A705B
:1023E000E92384F8C430194845F0E4FC054628B9CF
:1023F000134B43F282021A8046F022FC686A836A19
:102400006BB90F4B43F28302BDE870401A8046F06F
:1024100005BCE92BE7D00A4B43F28602F4E7984764
:10242000D4F8C0303BB1E72384F8C4300D20BDE8B8
:102430007040FEF753BD1323CDE700BFC037002027
:10244000642D0020A82C0020A1100001803800205D
:1024500073B5304890F810325D2B054632D10278C2
:10246000D0F81432D20714D5602280F810221B79DC
:10247000294AC0F83022003318BF0123412280F8D6
:10248000202280F8283200F5067035F0FDFB02B0FE
:1024900070BDC2221A735E2380F810321F4C204692
:1024A00045F088FC236806467BB1C22303735D2395
:1024B00085F810320720FEF711FDB36806F10C0015
:1024C0009847E4E75E2BE2D1E8E703795A1ED2B2DF
:1024D000FD2A0BD84FF47A72534304F12400E362CF
:1024E0003EF0B2FD4A2385F81032E6E7FF2B0FD10C
:1024F0000DF107014FF495703DF08CF99DF8073010
:10250000012B01D1064BE8E7022B01D1054BE4E793
:102510004823E8E7C0370020ED130001D43900203C
:1025200000C8AF0030E003002DE9F041424CA4F5B3
:102530002077204645F03EFC3B78DB07054674D506
:102540003E4EC188708FD4E907321C782CB11C89AB
:102550008C4202D19C88844207D018339342F4D332
:102560000120FFF7B1FC044630B904236B74EB681B
:1025700005F1100098474CE02A79637862F346131E
:102580006A7A62F304136370FF23E370738FA3808E
:10259000EB88238197F884325A1E0D2A41D996F888
:1025A0002D30013313F0FF034FF0010214BF86F802
:1025B0002D3086F82D2087F8842296F82D102620BD
:1025C00040F020FE96F82D305A1E97F8843243EAE8
:1025D0000213A3722B7AE372B37A25610133DBB263
:1025E0004FF0000863730121204684F80C80B37219
:1025F000FEF7AAFC124B598E4FF6FF72914208BFAC
:10260000A3F832805A8E0F49013245205A8640F095
:10261000F9FDD7F880326BB10420BDE8F041FEF738
:102620005DBC013387F88432CCE7C22300F8103F49
:10263000EB689FE7BDE8F081403A0020A82C00201D
:10264000000B0120320B012038B5104D2B7CC22B22
:102650002C4618D105F1140045F0ACFB4368083056
:1026600098476B6963B1C1232B74012384F8203030
:10267000074B6362074835F0C1FAC323237401E0B6
:1026800019232B7438BDC12BFCD1EEE7C0370020D5
:10269000599A0001D83700200178134BE12910B472
:1026A0001846D3F8EC4216D193F8E922032A12D83F
:1026B0000E490132888F0988A3F8001383F8E922B4
:1026C000A421A3F8FA0283F8E81203F53C705DF840
:1026D000044B35F0DFBAA523217380F8E8325DF8AA
:1026E000044B0120FEF7FABBC0370020A82C0020C5
:1026F000027810B51AB11046BDE810406AE543787B
:102700002E4C502B3DD011D8462B1DD04B2B32D008
:10271000452B3CD1462384F800340F2384F8083439
:1027200004F57E70BDE8104035F0AEBA532B13D0DF
:102730006F2B1AD0522B2AD1532384F80034204B0C
:102740005B8FA4F80834EBE7522384F800341C4B69
:102750001B7AC3F3C003E1E76F2304F58161062010
:1027600084F800343DF056F8DAE74B2384F800345F
:10277000134B1B88E5E7502384F80034104B9B8FE4
:10278000DFE70F4B84F8002493F83830C6E794F85D
:1027900000348BB90A4B0B481B7A13F0080F14BF97
:1027A0006FF07F430023C4F80034074BC4F80434AF
:1027B000BDE8104035F062BA10BD00BFC037002040
:1027C000A82C0020B83B002031220001027812B171
:1027D0001046FEF7CBBB4378462B30D002D8452BB2
:1027E00022D07047522B33D06F2B43D1224869211E
:1027F00080F8B013032180F8DC13D0F8B8130B6B0A
:10280000C0F8D43391F8341080F8DD131B4980F8F8
:10281000DF2391F837101A4A80F8DE13C0F8D82366
:1028200000F5707035F02DBA1348462380F8C83390
:102830000F2380F8D03300F5707035F025BA0E48BC
:10284000522380F8C8330D4B1B7AC3F3C003F0E763
:102850000A4B09481B7A13F0080F14BF6FF07F432F
:102860000023C0F8C833074BC0F8CC3300F57070B4
:1028700035F004BA704700BFC0370020A82C0020F4
:10288000C10F00010929000170B51C4CD4F8745126
:1028900006462DB91A4B43F2B1021A8046F0D0F920
:1028A00005F11C039E4205D0154B43F2B2021A807B
:1028B00046F0C6F994F878315D2B05D0104B43F201
:1028C000B3021A8046F0BCF9337863B96FF07F43E6
:1028D0002B610C4B6B6105F1080035F0CFF95E23DD
:1028E00084F8783170BD85F84C30582384F87831FD
:1028F0000920BDE87040FEF7F1BA00BFC0370020E4
:10290000642D00200D110001007868B907486B2381
:1029100080F8B033064BC0F8CC33532380F8C8336B
:1029200000F5707035F067B9FEF720BBC0370020A6
:10293000B5370001426810B4537813F0010108BFA5
:10294000022180F85410D478917841EA0421A0F84B
:1029500056101179527941EA0222A0F85820C28C0F
:10296000A0F85A2090F8252080F85C20C3F340039B
:10297000026A026680F86C30028D064BA0F8642073
:102980000367002380F86D305DF8044B383009F0A0
:10299000A9BE00BF7F340001F8B5384DD5F86C41B1
:1029A000062094F8B110FEF7BBFC2E46002861D03B
:1029B0000546B4F8AC2015F8383B23F00703037044
:1029C00094F8B030A0F856202D4A80F85430528F39
:1029D000A0F8582094F8B12080F85C20012BD4F89E
:1029E000901094F8B57080F86C700CBF0923082320
:1029F000CB1A5B7813F0040F436815BF1B33093300
:102A00000366036614BF02F11B0302F1090303729C
:102A100017B1036E0E3303661A4B0367012380F868
:102A20006D30006E47F018FE174845F0C3F90023DB
:102A3000A4F8A830D4F89430C4F8A03094F8B73093
:102A40008BB9D4F8983004F19C009847284609F0D7
:102A500049FED6F86C315BB10F20FEF73FFA8F23A9
:102A600086F87031F8BD04F10800FEF711FDEDE7BE
:102A70008E23F5E7902385F87031F3E7C037002007
:102A8000A82C00207F3400012C390020F0B5284DFF
:102A9000D5F80C4295F8086287B004EB861684B32B
:102AA00041F64C57B44232D22178022931D1238CDD
:102AB000ADF80030D4E90623CDE90223ADF81110BA
:102AC00063789B0712D595F87C32022B0ED0FFF766
:102AD000A3F847F035FE80B2B0FBF7F307FB130312
:102AE00017FA83F3C5F85832FFF758F963788DF871
:102AF00010302046FEF740FE68460FF0B5FC40342B
:102B0000D0E70C4B43F242021A8046F087F807B038
:102B1000F0BD0329F3D1238AADF80030D4E90223B4
:102B2000CDE90223637D8DF811108DF81230C7E7CF
:102B3000C0370020642D002010B5164A0023038002
:102B400092F83340017864F38501017004684FF610
:102B5000FC51214041F400710160518F818092F855
:102B600034104900FF2928BFFF218171917A01317A
:102B7000C9B29172C17192F82E10022904D192F853
:102B80005330003318BF0123427863F3451242707B
:102B900010BD00BFA82C0020F8B5C469174E05462B
:102BA0002046B76FFFF7C8FF238823F4805323F034
:102BB000030343F4805343F0010323802FF082FE8C
:102BC000D0E90023E3603B8A63806378A2606FF3FF
:102BD000C30363700123A37146F20403238212230B
:102BE00085F830303B8AA5F880302B8502221823E7
:102BF00085F8252086F8B930F8BD00BFC037002021
:102C0000F8B5C469204D06462046AF6FFFF794FF24
:102C1000238823F4805323F0030343F4805343F0C9
:102C2000010323802FF04EFED0E900236361B5F845
:102C3000883063806378226143F008036370D5F8BD
:102C40008030A360D5F88430E3600123A37144F29F
:102C500004032383FB7C002B14BFC0234023637633
:102C60003A7D12B143F020036376B5F8883033859E
:102C70001A2386F8303095F88A3086F832301623D9
:102C800085F8B930F8BD00BFC0370020F8B5294B32
:102C9000D3F80C4293F80832064604EB8313A342A0
:102CA00007D8254B43F243021A80BDE8F84045F0AF
:102CB000B5BF2778012F01D04034F0E7F5692846E9
:102CC000FFF73AFF2B88627D23F4C05323F0030300
:102CD00043F4C05343F001032B806B7862F341034C
:102CE0006B70638A6B80A368AB60E368EB60134B27
:102CF0005B8FAB802FF0E6FDD0E900236B610723EB
:102D0000AF712B76238AA5F81930237DEB76638A81
:102D10002A6133856378746013F0080F4FF01C0349
:102D200086F8303008BF0527042386F832702370F8
:102D3000F8BD00BFC0370020642D0020A82C002063
:102D4000F8B5C469194E1A4F05462046FFF7F4FE40
:102D50002388D6F88C2123F4C05323F0030343F4D3
:102D6000805343F001032380527B637862F3410375
:102D70006370D6F890319B8863807B8FA3802FF09F
:102D8000A1FDD0E90023E3600123A371A260062224
:102D900022743A7A6274D6F89021928885F832309B
:102DA00012232A8585F83030F8BD00BFC0370020D7
:102DB000A82C00202DE9F04FC4697F4E85B007464E
:102DC0002046FFF7B9FE238823F4805323F0030342
:102DD00043F4805343F0010323802FF073FDD0E9C7
:102DE0000023E3606FF00303A3700333E370012358
:102DF000A371238AA26003F4FE4343F008032382F5
:102E00006E4BB6F878E2D6E93D12D3E9108900207E
:102E10004FF6F77A914273D31A2800F2908096F811
:102E20007A22637C002A40F0828023F0600343F022
:102E30006003637404F160030193D6F8F4300093E7
:102E4000D6F8F8300393D6F8FC3002935B4BB6F813
:102E5000785296F87AC2D3E9102304F112099B46FE
:102E60009246AE464B464FF00008009A0026039962
:102E70008A42C0F0848026B3009AB5881D80B11ABA
:102E80004F4AC9105143029A02EBC1019A788879DE
:102E90008979C0F3C20060F30202C1F3020161F359
:102EA000061202F07702BCF1000F9A701CBFAE460A
:102EB000E0465207019A18BF033301359A42ADB27A
:102EC000D3D8B8F1000F02D03B4AA2F878E2A3EBC6
:102ED00009093C4B627C03FB09F363F3040262744F
:102EE000BCF1000F02D1344AA2F878C203F01F03EC
:102EF00003EB4303123387F8303005B0BDE8F08FA1
:102F00000B78062B11D04D78022D0ED0D1E904BCE0
:102F1000E14508BFD84508D18B88534505D8012D18
:102F200003D19E459CBF0130C0B2283172E7002218
:102F300023F0600386F87A2243F0400379E796F89D
:102F40007A521DB1637C23F0600372E71E4940F2A0
:102F500013103CF05FFC96F87B32012B637C23F06E
:102F600060031BBF43F02003637443F0600301233D
:102F70000ABF637486F87A3286F87A525AE7117873
:102F8000062914D05178022911D0D2E904018B45C9
:102F900008BF82450BD191884FF6F770814206D861
:102FA0008D4204D82EB1B088884288BF1646283298
:102FB0005DE71646FBE700BFC0370020A82C0020C5
:102FC000CDCCCCCCABAAAAAA3B3A00202DE9F0414B
:102FD000C469204DDFF88080AF6F06462046FFF7BA
:102FE000ABFD238823F4805323F0030343F4805381
:102FF00043F0010323802FF065FCD0E90023E36058
:103000006FF00203A3700233E370A260E179B8F8B5
:103010003A00FEF7EBFB63786FF3C30363700123A1
:10302000A3714FF00403238298F82E30022B03D0B3
:10303000FB7C0BB1802363743B7D1BB1637C43F04D
:1030400020036374122386F83030132385F8B930D7
:10305000BDE8F081C0370020A82C0020F8B52A4B2D
:10306000C469D3F8485493F8442406460023934295
:103070000BD12046FFF760FD2278012363F30102A4
:10308000A371002322705B88FFDE2F78012F03D00D
:1030900001331835DBB2EAE72046FFF74DFDA77193
:1030A0006B886380238823F4805323F0030343F465
:1030B000805343F0010323802FF004FCD0E9002368
:1030C00063616378226143F008036370AB68A360B7
:1030D000EB68E3600C2323766B7863760B4B93F8F5
:1030E0005320A37E510862F3000361F34103A376EA
:1030F0001B2386F8303075600223AA742B70A37EE0
:103100006FF3C703A376F8BDC0370020A82C0020BA
:1031100038B5C46905462046FFF70EFD238823F421
:10312000805323F0030343F4805343F001032380CF
:103130002FF0C8FBD0E90023E3604FF0FF33A3700A
:10314000E3706378A2606FF3C30363700B4B1A6C78
:10315000C4F812205A6C1B7CA3764FF4857323822B
:10316000074BC4F81620B3F86A23A4F81B201D22CD
:1031700085F83020852283F8682338BDA82C0020EC
:10318000C037002030B5134C002384F8B83094F8D1
:10319000AD3085B02546BBB904F1A0002FF09EFBF1
:1031A00020B9D4E9282352EA03010FD10A490022A9
:1031B0000023C1E9102395F8AC108DF8081068467B
:1031C000CDE900230FF0AAF905B030BD94F8AC109A
:1031D000F3E700BFC0370020A82C00202DE9F04FF6
:1031E000724A90F8863090F88280C46902EB03132B
:1031F00085B01B7B8DF80B3008F1FF3305460F4679
:103200000192092B14D8DFE803F0B213051313342D
:1032100034131334E1290BD000296288ADF80C2057
:103220000CBF1323092303A88DF80E300FF044FAC6
:103230005F4B93F82E20022A07D06278D10740F125
:10324000A480227A920700F0A68095F88630019A31
:1032500002EB03139B6813B13946284698479DF843
:103260000B301BB1A5F18000FEF76EF905B0BDE88B
:10327000F08FB4F802B061781FFA8BF601F001010B
:103280003046FDF7EDFB0346002846D04279BFB932
:10329000FF2A12D1474AD2F8A832B2F8AC22C2EBC8
:1032A000C2021A441979C90741BF59794908013145
:1032B000597107339342F5D3BAE701324271B7E748
:1032C00052B13C4991F8AE1242FA01F111F0FF01FE
:1032D00008BF0121521A42715A791979003218BF78
:1032E000012262F300011971314AB4F804A0528F2F
:1032F0001FFA8AF082429BD02278920798D113B1AC
:103300001B79DB0794D4B8F1060F09D10023B5F877
:1033100080203146FEF7B6F98AE7002F88D0E3E730
:10332000244E96F8D582B8F1000F81D1B5F880907F
:103330002A8D034649464046FDF740FC00283FF4ED
:1033400077AF0C2386F8D2328388A6F8C8320123DF
:10335000A6F8C4B2A6F8C6A2A6F8CA9286F8CC828D
:1033600086F8D53206F52F70FEF71EF960E7B0F843
:1033700080206188A0880023FEF784F96178608846
:1033800001F00101FDF788FB52E761884FF6F77203
:1033900091423FF65AAF5A8801325A80002F3FF4CB
:1033A00054AF9A8801329A804FE700BF8CD1030155
:1033B000A82C0020C037002017B441688A79013A50
:1033C000D3B28B71027812F0010202D01A1C18BF1E
:1033D0000122037862F300030370DBB2DA0748D5F9
:1033E000C269A2B3182262F3C7030370037A8DF88F
:1033F000003003780191C3F3C4038DF80130C38C0E
:10340000ADF80230019B5A786FF345125A709DF85F
:10341000013080F886309DF8003080F83030019B14
:1034200090F88720C361BDF80230A0F880300023F7
:1034300063F34102436480F84030C0E9123383876C
:1034400080F8872003B05DF8044BFEF721B80A78B6
:1034500002F00302012AC9D1026A1478052C01D1B5
:103460001922C0E7032CC1D152780C2ABED11A22EE
:10347000B9E7803803B05DF8044BFEF765B810F883
:10348000743CDB0701D5743896E7F438FEF75CB876
:1034900038B5114C20460D4644F08CFC034642687A
:1034A00003F8155F1846904723688BB120222277D6
:1034B0009A7D0C2A0AD018894FF6F77398428CBF70
:1034C00001200220BDE83840FEF704B81020F9E7DB
:1034D0007823237738BD00BF783A002030B590F8C4
:1034E0003030722B8BB0044619D86946C069FDF79D
:1034F00027F8049B9DF81420587894F83010023275
:1035000045002A448A420AD10130074A58702B44A8
:10351000528F5A80023184F830100BB030BD7523C1
:1035200084F83030F9E700BFA82C00200848037861
:10353000DB0705D5022380F87C320020FDF7CABFE7
:10354000012380F87C3200F519703DF07DBD00BF8D
:10355000C03700202DE9F041537D05460C46164644
:103560007BB101784F1EFBB20B2B0AD862884FF655
:10357000F7739A4208D8114B03EB8703D3F8F03165
:10358000B3B90020BDE8F081082904D84FF489734D
:10359000CB40DB07EFD40A4BA0885B8F8342F0D08F
:1035A000E179FEF723F900F0FD000128E3D0E8E718
:1035B00032462146681CBDE8F04118478CD1030112
:1035C000A82C002008B550F80C3C40F8503C03797A
:1035D00000F83C3C0378A3B9114B30F84C2C9B8F7E
:1035E0009A4204D16438BDE8084034F056BBA0F1DB
:1035F0006C010C4844F0BAFB0320BDE80840FDF71D
:103600006DBC022B08D009D3042B8CBFC321CE2163
:103610006C38BDE80840E1E5CC21F9E7C321F7E7C4
:10362000A82C00200438002038B5204C94F8E8324B
:10363000A32B33D1D4F8EC3200221A732278D207AC
:103640005CBFC2221A731A79AAB1C1221A73A523C8
:1036500084F8E832164D284644F0ACFB83680C3001
:1036600098472B68EBB1A32384F8E8320120BDE82A
:103670003840FDF733BC1B7B002BE8D10D4B0E48C7
:103680009A8F1B88A4F800334FF4D273A4F8FA225F
:10369000A4F8E832BDE8384034F0FCBAA52BD9D004
:1036A00038BD312384F8E832FAE700BFC037002084
:1036B000AC3A0020A82C0020B03A002010B5194BDD
:1036C00093F80031994294BF5B1ADB1ADBB298423F
:1036D000154B06D393F8202002F07B0283F82020BC
:1036E00010BD5C7CA20718D493F848208A4294BF8E
:1036F0000021012193F8202061F3820283F8202029
:10370000E2070CD493F84920824294BF00200120A4
:1037100093F8202060F3C712E0E70021EAE70020D9
:10372000F6E700BFC0370020A82C00200C4A10B4D8
:10373000D2E93D34002108461A78062A0AD002F060
:10374000FB02012A06D15A78022A0BBF013001314F
:10375000C0B2C9B228339C42EED85DF8044BADE745
:10376000C0370020124B002293F832109A77DA7F8C
:1037700061F3030293F8331061F30712DA7793F8D9
:103780002020597A02F0FC0261F3C60283F820205F
:103790001A6CC3F821205A6CC3F82520FF2283F845
:1037A000292002F57F425A851A7C83F82C20BDE738
:1037B000A82C002038B5057825B12846BDE838404A
:1037C000FDF7D4BB4478502C16D0532C07D04B2C8B
:1037D0001DD11B4B02891A801A48502304E0184B54
:1037E000028918485A874B2380F8C83300F5707057
:1037F000BDE8384034F0FFB91149038921F83C3F56
:1038000017203CF033F80F4880F8C853EEE7B4B9FE
:103810000B4D037A2946162001F8383F3CF026F874
:10382000FFF7A0FF074B2046BD221A70FDF79EFB55
:1038300095F838102420BDE838403FF0E3BC38BD8F
:10384000A82C0020C0370020F8B5454DD5F87441AC
:10385000064604F108072CB9424B43F2AE021A8027
:1038600045F0EEF904F124039E4205D03D4B43F2AE
:10387000AF021A8045F0E4F933784BB184F84C304C
:10388000582385F878310920BDE8F840FDF726BBBC
:1038900095F87831593B072B59D8DFE803F0041B22
:1038A000353B585844156F23237404F11801062042
:1038B0003BF0B0FF602385F878312B4B236238460C
:1038C000BDE8F84034F0E0B9462323740F23237693
:1038D0005A23F0E7254E002306F14001332073728E
:1038E0003BF098FFD6E91023134305D12EF0EAFFF1
:1038F000D0E90023C6E91023FFF734FF45232374E2
:103900001B4BA3615B23D6E7522323740123237649
:103910005C23D0E78323237404F1180108203BF0D3
:1039200079FF5F23C7E7114B9A8F228293F83820E3
:10393000A27493F83730E3740123A3820D4BA36183
:10394000384634F0A4F95D2385F87831F8BD054B8D
:1039500043F2B0021A80BDE8F84045F05FB900BFFD
:10396000C0370020642D002049380001A82C002019
:10397000C62C00208928000173B52A4C00250DF1C2
:10398000070140F207108DF807503BF043FF9DF808
:10399000073084F8343004F148014FF483703BF071
:1039A00039FF0DF1070140F205103BF033FF94F8A9
:1039B00048209DF807309A4239BF9B1A84F8493055
:1039C00084F8483084F849500226FFF7AFFE0DF125
:1039D000070119208DF807603BF01CFF9DF80730A8
:1039E00084F82F3094F82E300F499B1B18BF012309
:1039F000222084F853303BF00DFF0C4B43F6095066
:103A000093F832502EF078FF06FB05054FF4006066
:103A10002EF072FF05EB500094F834504543E560FA
:103A200002B070BDA82C0020FC2C0020D02B002060
:103A300038B51A4C2378DB062AD5194DD4F8F4335F
:103A400018221B7C84F8F02305F13C0117202B720F
:103A50003BF0E0FE05F1380116203BF0DBFEFFF7FE
:103A60008BFFFFF77FFE0F4BC4F81034452384F81B
:103A7000003404F57E7005F11E03C4F8083434F0F8
:103A800003F995F838102420BDE838403FF0BABB60
:103A9000C220BDE83840FEF79DBB00BFC037002004
:103AA000A82C0020F12600011F49C8884B8F98429E
:103AB0002DE9704334D01D4B93F8380392282DD153
:103AC000507D0D282AD11269567816F0E00025D1D4
:103AD000012E23D1D1E91045D2F80690D2F8028008
:103AE0004D4508BF44451CD1D47A957A127BC3F862
:103AF000400344EA0222A3F83A23192283F8382328
:103B0000CA68C3F850230A4A83F83C5383F85463C5
:103B1000C3F8582303F552703DF096FA012000E0F7
:103B20000020BDE8708300BFA82C0020C037002013
:103B3000410C000110B5114CF1B9114BB4F86A13E6
:103B40001A7C84F83C230F4ADB68C4F8402319220E
:103B500084F83823C4F8503301220B4BC4F858338F
:103B600004F55270A4F83A1384F854233DF06CFA2B
:103B7000862384F8683310BDFB23FAE7C0370020A2
:103B8000A82C002021060001410C00012DE9704302
:103B900016460C46FCF7AAFF144B93F820248242E9
:103BA00003D800233360012017E0D3F8243400B297
:103BB000C0EBC00003EB800010F1140F4FF00003C6
:103BC0003360F0D0D4E900894369D3E90045A945C1
:103BD00008BFA04503D133600020BDE8708382692F
:103BE00010339A42F1D80220F7E700BFC037002017
:103BF00030B58BB043680593044690F824308DF8B7
:103C0000183005A83EF032FF0799002951D0089BD3
:103C1000002B4ED094F824200244207A824248DCC3
:103C20001A680D685B68CDE902236B1C33D001AACA
:103C300002A99DF81900FFF7A9FF01282BD0019BCD
:103C400013B19B689D4226D99DF81900FCF766FFC9
:103C5000206470B31A4B93F84B3084F84430089BBF
:103C60001A685B68C4E90C2304F13003A364636839
:103C7000E36494F8243084F85030237A84F8513087
:103C8000104B6365002384F8523004F138003EF095
:103C9000E1FE0BB030BD9DF81900FCF73FFFE38C4F
:103CA000ADF8043050B9162301A88DF806300EF097
:103CB00003FDA4F18000FDF747FCEAE71123F3E7D9
:103CC000A82C0020C79600012DE9F04F8B4F97F8E4
:103CD0007831D7F8744185B0562B0646009705D049
:103CE000874B43F2AB021A8044F0AAFF2CB9844BF5
:103CF00043F2AC021A8044F0A3FF04F110039E4289
:103D000005D07F4B43F2AD021A8044F099FF33791E
:103D100023B103F0EF02EA2A40F0E5803268E3695C
:103D20009343019300F0DE80D6F808C0F5790CF1DA
:103D3000040A504600224FF6FF7E95420DD1FF2522
:103D4000A846A94600234FF0010C019911EA0C0F77
:103D500040D00020D646014631E0B0F80080F04562
:103D600003D10132D2B21830E7E7531CDBB203EBC8
:103D7000430190F80C900CEBC1019D42F1D09A42A6
:103D800009D0B1F804B0C34505D191F810B0CB45C6
:103D900008BFA1F804E00133DBB21831EDE79EF86B
:103DA0000CB09B4507D1BEF800B04FF6FF77BB457E
:103DB0001CBF0131C9B20130C0B20EF1180E9042E1
:103DC000EDD119B91CF4C30F64D1984649453CBFE5
:103DD00089461D460133DBB2202B4FEA4C0CB4D18F
:103DE000B8F1FF0F58D1FF2D05D1454B43F2B80272
:103DF0001A8044F013FFDFF810B100238BF838501D
:103E00000DF10D011820D6F8089096F807A08DF84E
:103E10000D303BF0FFFC9DF80D805E46B8F1000FC1
:103E200041D146F08DFC80B20AF1010BADF80E00D5
:103E300043464FF6FF71884204BF4FF0010800204F
:103E400009F1040C002292450BD09CF80CE0AE4521
:103E500024D1BCF800E0864520D1013080B24FF07B
:103E6000010801339BB29B45E5D8B8F1000F01D0A2
:103E7000ADF80E00BDF80E30B3874FF6FF729342D7
:103E800017D11F4B43F2B9021A8044F0C7FE05B0A8
:103E9000BDE8F08F1D46AEE74546ACE70132D2B231
:103EA0000CF1180CCFE70DF10E0117203BF0B2FC1E
:103EB000E0E794F8453004F108000BB1B4F846305F
:103EC000738723830F4B2362009A53232374592350
:103ED00082F8783133F0D8FE96F8381024203FF07D
:103EE00091F9D4E7C423009A84F84C30582382F81F
:103EF00078310920FCF7F2FFC9E700BFC037002086
:103F0000642D002049380001A82C0020014B588F57
:103F1000704700BFA82C002070B50B4C94F83050AF
:103F20000E467DB9532323762084084BA36204F107
:103F3000100033F0A9FE012384F8303084F831609A
:103F4000284670BDC320FCE7000B0120750D000161
:103F5000014B93F831007047A82C002008B5FCF7FE
:103F600077FA18B103786FF30003037008BD08B542
:103F70000146044843F0FAFE1120BDE80840FCF772
:103F8000ADBF00BF983A002010B5014638B90F4BBD
:103F900043F2D002BDE810401A8044F03FBE0C4C02
:103FA000204643F0E3FE2379D62B06D170232371FC
:103FB0000820BDE81040FCF791BF703B022B03D9ED
:103FC000024B43F2D102E5E710BD00BF642D002093
:103FD000F837002070B5484C94F80032212B254664
:103FE00040F0858004F5C47043F0E4FEA0F10803BE
:103FF000C4F88C31414B027C1A72FFF7BDFC237868
:10400000DB062BD5D4F88C311A7B023A012A25D84D
:10401000322284F80022227093F8342084F8FD21A3
:104020001A6BC4F8F4210022C4F8F02184F8EE21C0
:104030009B7B334AC4F8F821012284F8FC212BB180
:1040400004F5E470BDE87040FFF79EBF84F8EC31E2
:1040500004F5F670BDE87040FDF7B8B8D5F88C31BE
:10406000C22283F82B20222385F80032234CD5F876
:104070008C11638F0B85D1E90023C1E9082391F8E6
:104080002B6094F8383081F82A30F6B9D5F89031A1
:10409000D3E9042304F13C011720C4E910233BF0C9
:1040A000E5FB04F1380116203BF0E0FBFFF75AFB7B
:1040B000BD232B70637AD5F89021C3EBC303DBB229
:1040C000928831463046FCF7F0FCD5F88C01436904
:1040D000203098470023C5F89031D5F888314BB18E
:1040E0000A20FCF7FBFE212385F8003201E0222B99
:1040F000BCD070BDDA23F7E7C0370020A82C002021
:10410000CD11000110B5014638B90F4B4FF44252A2
:10411000BDE810401A8044F081BD0C4C204643F0AD
:1041200025FE2379132B06D1E72323710D20BDE84B
:104130001040FCF7D3BE1933DBB2022B03D9024B7C
:1041400043F28A02E4E710BD642D0020803800208D
:1041500010B5014638B90F4B43F2A002BDE810403C
:104160001A8044F05BBD0C4C204643F0FFFD2379E0
:10417000B72B06D1542323710920BDE81040FCF76A
:10418000ADBE543B0C2B03D9024B43F2BC02E5E716
:1041900010BD00BF642D0020343900204B1EDBB25F
:1041A000FD2B10B507D90D4B43F2A0421A8044F005
:1041B00035FD00200DE00A4AD2F81834D2F81C244C
:1041C0001C783CB958801970014611203FF01AF84C
:1041D000012010BD04339A42F2D8EAE7642D002092
:1041E000C0370020F8B507460E4639B9104B43F2E8
:1041F000A1421A8044F012FD3046F8BD0D4DD5F8AD
:104200001844002023786BB16288BA420AD1FF2E8D
:1042100001D0B34206D100231120237039463EF06D
:10422000F1FF0120D5F81C340434A342EAD8E4E7B6
:10423000642D0020C037002073B5064640B9104BEE
:1042400043F2A3421A8044F0E9FC304602B070BD4C
:104250000C4DD5F818440020FF2E02D02378B3422D
:1042600008D123680193122001A93EF0CBFF00235F
:1042700023700120D5F81C340434A342ECD8E5E7C0
:10428000642D0020C037002038B50C4639B90E4BDC
:1042900043F2A2421A8044F0C1FC002038BD0B4A10
:1042A000D2F81834D2F81C141A7832B15D888542DD
:1042B00003D1FF2C05D0A24203D004339942F3D896
:1042C000EBE70120EAE700BF642D0020C0370020A3
:1042D000064AD2F81834D2F81C240020197809B9FB
:1042E0000130C0B204339A42F8D87047C03700207A
:1042F000084B30B10430D3F81C34984204D300206A
:104300007047D3F81804F6E70278002AF8D1043091
:10431000F3E700BFC037002013B50B4C0DF10701C8
:1043200040F215103BF076FA214640F211203BF0A6
:1043300057FA9DF8072020689200831800216360D7
:1043400046F052FA02B010BDD83B0020014B83F872
:1043500053007047A82C0020014B83F8540070478D
:10436000A82C0020014B93F853007047A82C002084
:10437000014B83F853007047A82C0020014B93F8A1
:1043800054007047A82C0020014B1888704700BFCC
:10439000A82C0020014B988F704700BFA82C00204C
:1043A000014B9887704700BFA82C0020014BD3E930
:1043B00010017047A82C0020D0E90001014BC3E98F
:1043C00010017047A82C0020014B93F82E00704775
:1043D000A82C0020014B93F838007047A82C00202F
:1043E000034B014683F8380024203EF00BBF00BF8A
:1043F000A82C0020014BD868704700BFA82C0020D3
:10440000014BD888704700BFA82C0020014BD880F2
:10441000704700BFA82C002008B5054B0146187452
:1044200022203EF0EFFEBDE80840FFF79BB900BF39
:10443000A82C002073B50578114CC5B9114EB4F8FD
:104440003A33B387FDF79AFA06F13C0117203BF0A7
:104450000DFA94F83C03FFF7DFFFFFF783F90F2312
:1044600001A8ADF804508DF806300EF025F992231E
:1044700084F83833D4F8403303B1984702B070BDA4
:10448000C0370020A82C002038B503791F4C054602
:104490008BB103F0EF03EA2B0DD01D4B187C0130DC
:1044A000C0B2FFF7B9FF842384F868330920BDE860
:1044B0003840FDF70FB8EA79B4F86C339B1A9BB219
:1044C000A4F86C336BB146F03BF9B4F86C2380B2BE
:1044D000B0FBF2F302FB1303B4F86A030344A4F83D
:1044E0006A330023EA799A42D7D9AA68B4F86A03F2
:1044F00003EB430102EBC10201339288824204BF05
:104500000132A4F86A23DBB2ECE700BFC037002019
:10451000A82C0020014B187C704700BFA82C00205D
:10452000014B83F830007047A82C0020014B93F812
:1045300033007047A82C0020014B5888704700BFFB
:10454000A82C0020014B9888704700BFA82C0020A1
:10455000024B0022C3F80220704700BFA82C0020A5
:10456000014B9874704700BFA82C0020084B1B7C9F
:10457000C21A002AB8BF5242C72A04DC984294BF2C
:1045800000200120704798428CBF00200120704716
:10459000A82C00200A4B1B7C98420FD0C21A002A7C
:1045A000B8BF5242C72A04DC984294BF00200120C1
:1045B000704798428CBF002001207047012070474F
:1045C000A82C00202DE9F8432F4BD3F8F4400646E1
:1045D0000F469046002599462378062B41D06378F4
:1045E000022B3ED056EA070309D0D4E90423BB428C
:1045F00008BFB24235D1607EFFF7CCFF88B3A37EFF
:10460000B8F1000F35D013F0040F2AD0002D38D0A8
:10461000D9F8F4201D48D9F8FC10A31AAA1ADB1007
:10462000D2104243434301EBC30301EBC2011B79A8
:1046300009796A7E591A637E93420AD0981A002833
:10464000B8BF4042C72817DC93428CBF0023012328
:104650003BB9193105DB46F073F810F0080F08BFBD
:104660002546D9F8F83028349C42B5D32846BDE811
:10467000F88313F0020FC8E7934294BF002301238D
:10468000E6E72546EDE700BFC0370020CDCCCCCC17
:1046900010B5154CD4F88C310122D3E90001FFF795
:1046A00091FFC4F89001A8B1002384F801320F4AA9
:1046B000C3889387A4F8D83150220D4BC4F8E03159
:1046C00004F5E47084F8D02133F0DEFA292384F86D
:1046D000003210BDD4F88C31C32283F82B200A207D
:1046E000FCF7FCFB2223F2E7C0370020A82C0020B7
:1046F0009951000110B50F4C99B9D4F89C3103F5CC
:104700001173C4F89C310C4BC4F8A43104F5CA7081
:10471000012384F8A0313CF097FC2D2384F800326B
:1047200010BDD4F890319A7E6FF382029A76BDE87C
:104730001040ADE7C03700203D4700010F4B104847
:104740001B7A13F0080F11D1022380F8B031D0F892
:104750009031DA889B88A0F8B8310A4BA0F8B221D2
:10476000C0F8C03100F5D47033F094BAD0F890316D
:104770009A7E6FF382029A768AE700BFA82C002007
:10478000C0370020E57F000182E70B4A92F8013232
:104790000133DBB2022B82F8013206D9D2F8903114
:1047A0009A7E6FF382029A7672E7282382F80032AB
:1047B0000320FCF78FBE00BFC037002010B5037880
:1047C000174CD4F88C2143B182F82B300A20FCF727
:1047D00085FB222384F8003210BD117B032915D1FB
:1047E000104B1B7A13F0080304D1C4F89C31BDE8C8
:1047F0001040CAE7812384F8D03104F5E4700A4BF5
:10480000C4F8D43133F0F7F92B23E3E782F82B30E7
:10481000222384F800320A20BDE81040FCF75EBB7A
:10482000C0370020A82C00202D480001037810B5C7
:10483000094C2BB98368C4F89C31BDE81040A4E74B
:10484000D4F88C210A2082F82B30FCF747FB222376
:1048500084F8003210BD00BFC0370020F8B58B7956
:10486000012B0F46164652D18C68CD682EF02AF8DF
:10487000D0E900239D4208BF944248D1364D95F8B7
:104880000032A3F12C02012A2C464BD805F5CA7040
:104890003CF004FCB7F819204FF6FF73934238D070
:1048A000FB7E002B35D1D5F88C112C4D81F82B30A7
:1048B0006A87D4F8902191882980D17885F83810BA
:1048C0001370137E507E0133DBB20F2B28BF0F23F2
:1048D0006B72FFF7A1FD73682BB11968D4F89021B2
:1048E0005B68C2E90213532384F8D0316B8FA4F8BC
:1048F000D8311B4BC4F8E0311A4833F0C5F92E23E8
:1049000084F8003295F8381024203EF07BFC01201A
:10491000F8BDD4F890319A7E6FF382029A76FFF751
:10492000B7FEF4E7DA2BF2D10C4A92F82E30022BC4
:10493000EDD1B7F819305387A5F8D8315322084B79
:10494000C5F8E03185F8D02105F5E47033F09CF925
:10495000312385F80032DAE7C0370020A82C002088
:10496000995100018839002010B51D4CD4F88C31C4
:104970000022D3E90001FFF725FEC4F8900108B337
:10498000002384F80132174B93F8372084F8D121A3
:10499000C27884F8D02102221B7A84F8D221C288FE
:1049A000A4F8D421828884F8E03104F5E4700E4B39
:1049B000C4F8E431A4F8D82133F014F9232384F89F
:1049C000003210BDD4F88C31CA2283F82B20222368
:1049D00084F800320A20BDE81040FCF77FBA00BF1F
:1049E000C0370020A82C0020F5600001024B0022F7
:1049F0009A705A601A817047000B012010B5FFF7BA
:104A0000F5FF3CF067FB054C6063383420463CF012
:104A100045FB2046BDE810403CF016BB000B0120D2
:104A200010F0FB0F03D1074B01221A7570470528C0
:104A300001D00E2804D1034B00221A75FFF7DEBF08
:104A4000704700BFCC1F012000487047020B0120B7
:104A5000044B054A1A64012283F84420034A9A64ED
:104A6000704700BF000B0120A075E900FD4900015F
:104A700008B53CF02FFB064B5B6BC01A054B984208
:104A800097BF4EF66023FF20B0FBF3F0C0B208BD25
:104A9000000B01209F75E900037B03F0FD02042A4F
:104AA00010B5014603D1BDE81040FCF74CBE012B08
:104AB00001F10801104C0FD104F57D7043F056F957
:104AC00094F8F033162B15D1172384F8F033132004
:104AD000BDE81040FCF702BA04F5C47043F046F993
:104AE00094F80032DA2B05D10A20FCF7F7F92123DC
:104AF00084F8003210BD00BFC037002008B5014661
:104B0000084843F033F9084B93F8B920E62A07D157
:104B1000112283F8B9200C20BDE80840FCF7DEB96B
:104B200008BD00BF38380020C037002038B5164B0C
:104B3000164993F8B8501C462DBB022A1AD1A3F887
:104B4000A800012384F8AD3000220023C4E9282303
:104B500091F8203284F8AA304FF48073A4F8AB3077
:104B60000B4BC4F8B0300B48FFF7C8FF012384F8A3
:104B7000B83008E0032AE7D100200021C3E928016A
:104B8000012283F8AD2038BDC03700208CD103014D
:104B9000853100015838002010B50E4C94F8B8301B
:104BA000B3B900220023C4E928230B4B84F8AC00DE
:104BB00093F8203284F8AA3004F19800074BC4F827
:104BC000B03084F8AB10FFF799FF012384F8B830B8
:104BD00010BD00BFC03700208CD10301853100011A
:104BE00010B4094C094AD4F8F430C31ADB105A4304
:104BF000D4F8FC305DF8044B03EBC2039A7961F3FF
:104C000002029A71FCF7FCB8C0370020CDCCCCCCA6
:104C100010B5074C94F87C32022B08D0FCF7FCFF4F
:104C2000012384F87C32BDE81040FDF7C1B810BD07
:104C3000C037002010B5084C0146204643F096F8D6
:104C400023798E2B06D18F2323710F20BDE81040CE
:104C5000FCF744B910BD00BF2C3900204FF6FF739C
:104C600098420D4A1ABF013080B20020B2F8AC124F
:104C7000D2F8A822C0EBC0031344814202D84FF6F9
:104C8000FF7070471A7902F00502052A03F1070345
:104C9000F7D0013080B2F0E7C0370020034BC0EB03
:104CA000C000D3F8A832185A704700BFC0370020A0
:104CB000034BD3F8A832C0EBC000034458887047B8
:104CC000C037002001460A203EF030BA01460A20D3
:104CD0003EF066BA0C4B30B12830D3F8F820904241
:104CE00004D300207047D3F8F400F6E7037803F00C
:104CF000FB03012B05D14378022B02D183888B4221
:104D0000F0D12830EBE700BFC037002010B50B4AC8
:104D10000B49D2F8F430898FD2F8F8201C78062C91
:104D200005D09C88844202D1DC888C4203D0283391
:104D30009A42F3D80023184610BD00BFC0370020A8
:104D4000A82C0020F8B5254AD2E93A35EB1A92F89A
:104D50000051013505EB23150E46ADB204464FF662
:104D6000F677631E9BB2BB4288BF01241C4B5B8F4E
:104D7000A34213D02046FBF783FB18BB2046FFF766
:104D8000C5FF38B1D0E90201D6E90023994208BF36
:104D9000904208D12046F8BD1D46E2E730462DF08E
:104DA0009DFD0028E6D101346B1EA4B29BB2002DFC
:104DB000F2D10C4B43F206021A804FF6FF7443F017
:104DC0002DFFE7E703789B07EDD4D0E90201D6E990
:104DD0000023994208BF9042E5D1CFE7C0370020B9
:104DE000A82C0020642D002010B586B0CDE900234A
:104DF0002023ADF80C300DF10A03ADF80A1004932E
:104E00000C46002303A91E2005933EF0FBF9059BE9
:104E100043B1BDF80A006946FFF794FF04462046F7
:104E200006B010BD0C4B93F83120002AF7D193F84F
:104E30002F30022B09D14FF6F7739C4202D945F06F
:104E40007FFC84B269462046E6E7032B0CBFBDF821
:104E500000404FF6FF74E2E7A82C002038B501228D
:104E60000546D0E90201FCF7E1FA0446D8B1AA7E72
:104E7000637862F3C30363700020AB88638220759C
:104E8000D5E902234FF6FE71FFF7AEFFD5E9022305
:104E9000C4E9022301232082637523700420BDE846
:104EA0003840FCF717BB38BDF7B54F4C227812F0ED
:104EB000400F0F46254611D094F85221AA2A0FD050
:104EC000B4F85021824209D1484B84F854115B8FC9
:104ED000934214BF0123002384F8533103B0F0BD83
:104EE000424EA4F85001728F84F85411824296F811
:104EF0002E204ED1002AF1D0022A03D096F82F306E
:104F0000022B25D0D6E91023C5E946230323A5F8B3
:104F100024310DF1070129203AF07CFC9DF807208F
:104F200001230AB185F8253196F8382085F8263115
:104F30009340C5F84831082385F84C312C4BC5F80F
:104F40002C31452385F852312A48FFF7A5FDC5E7E6
:104F5000012AC3D12DF0B6FC4FF6FE71D0E9002333
:104F60000120FFF741FF738F8342F3D04FF6F773B1
:104F70009842B3D8532385F820311F4BC5F8303100
:104F80004423A5F8280185F852311A4832F07CFEF6
:104F9000A4E7022AA2D0C9B10D22184B84F82E2111
:104FA000C4F81C314FF6FD720023A4F82021A4F8A8
:104FB0002201023284F8283104F58C704623A4F8CB
:104FC000242184F85231FCF7EFFA87E7FBF79AFBCC
:104FD000002883D0472284F85221827E67F3C302DF
:104FE0008276FFF73BFF79E7C0370020A82C00202E
:104FF00035100001D8380020E515000131510001BD
:10500000014B0021588F4FE7A82C002030B5274BCB
:105010001B78DB0787B008D5537D042B05D11469B5
:1050200065780B2D16D003D85DB1012007B030BDD7
:105030000C2D25D00D2DF8D100216088FFF734FF0D
:10504000F3E760884FF6F7739842EED82946FBF7EE
:1050500023FDEAE701238DF804306388ADF80530BD
:105060008B88ADF807303E2001A93EF0CBF8608870
:10507000FBF734FC0028D8D04FF6FF730380D4E749
:1050800002238DF804308B88ADF8053001A93E204D
:105090003EF0B8F8A378E2788DF8025043EA022394
:1050A0006846ADF800300DF007FBBEE7C0370020C2
:1050B00010B51E4C94F85231AA2B2ED1D4E93D32B2
:1050C0001978062902D0997E090703D42833934220
:1050D000F6D30023002184F85311A3B19A88A4F8D1
:1050E00050219A7E61F3C3029A760121B4F85001EF
:1050F000FFF7DAFE94F85231AA2B0ED10220BDE858
:105100001040FBF7EBBED4E93A311A7802F0030203
:10511000032A03D010338B42F7D310BD5A88A4F86A
:1051200050211A786FF341021A70DEE7C037002071
:1051300010B5164C38B194F85231462B03D104F215
:105140002D13984205D0124B43F283121A8043F07C
:1051500077FD104B93F82E30022B0ED0B4F850018F
:10516000FBF7D0FA48B1827E6FF3C3028276FFF775
:1051700075FE472384F8523110BDAA2384F85231BA
:105180000220BDE81040FBF7A9BE00BFC0370020D9
:10519000642D0020A82C0020037873B5624C53B115
:1051A000D4F88C210A2082F82B30FBF797FE2223BB
:1051B00084F800323AE094F80032243B112B35D8C1
:1051C000DFE803F04E566A343439463434347C8692
:1051D000919D34365F09D4F88C311B7B032B23D18E
:1051E000524D95F831307BB96A8F4FF6F7739A427A
:1051F00002D945F0A5FA68876E8F2DF063FB014652
:105200003046FFF79FFD6887532384F8D0316B8FBA
:10521000A4F8D831332384F800324548454BC4F80C
:10522000E03132F031FD01E0FFF79EFB02B070BDCE
:10523000FFF72EFAFAE7D4F890313C4ADB7882F88F
:105240003830002284F8D83184F8D0212A23E2E7CC
:10525000452384F8D031384BC4F8D8312423DAE719
:10526000462384F8D0310F2384F8D8312523D2E7A0
:105270008323324984F8D03108203AF0CBFA342322
:10528000C9E7522384F8D031284B1B7AC3F3C003FB
:1052900084F8D8312623BEE7244B25481B7A13F027
:1052A000080F14BF6FF07F430023C4F8D031244BA4
:1052B000C4F8D43132F0E2FC272379E74B2384F899
:1052C000D031D4F890319B88A4F8D8312F23A2E7AD
:1052D0004A2384F8D031D4F89031D3E90223C4E9C9
:1052E0007623302397E7D4F88C31002283F82B20E3
:1052F0000A20222384F80032FBF7F0FD96E70B4BDF
:105300005B8FADF8043001A810238DF806300DF046
:10531000D3F9D4F8883123B10A20FBF7DFFD21232C
:1053200046E7DA2344E700BFC0370020A82C00205E
:105330008839002099510001C62C0020983900209E
:10534000BD4700010C4B5B8F834210B5044603D16F
:10535000BDE810402DF0B6BAFFF7D8FC28B1D0E96F
:105360000223134301D0083004E02046FBF788F8FD
:105370000028F8D110BD00BFA82C0020F8B5C469E2
:105380001C4D06462046D5F82C74FDF7D5FB0123AD
:10539000A371194B1B886380238823F4805323F067
:1053A000030343F4805343F0010323802DF08AFA72
:1053B000D0E9002363616378226143F008036370DE
:1053C0006088FFF7BFFFD0E90023E3600B2323765B
:1053D0003B796376A260A37E7A7962F300036FF370
:1053E0004703A3761B2386F83030032385F828343F
:1053F000F8BD00BFC0370020A82C0020F8B5264F0C
:10540000C469D7F8B0624660338D0385012380F804
:10541000323005462046FDF78FFBF36958886080DF
:105420009B88A380238823F4805323F0030343F451
:10543000805343F001032380FFF784FF3A46D6E907
:10544000147120B3637843F008036370D0E900C39C
:105450006161C4F808C0E36027611821EB690B445F
:1054600005201870F4690D48A488408F84420BBF52
:105470000020012458705C7016BF5880022304235A
:105480000B4485F83030F82382F8B432F8BDE1607F
:10549000A7601021E2E700BFC0370020A82C002041
:1054A0002DE9F041C4693C4E05462046FDF744FB1A
:1054B0002388F088608023F4805323F0030343F4AF
:1054C000805343F001032380FFF73CFF63780028FB
:1054D0003BD043F008036370D0E90023A260E3608F
:1054E0002DF0F0F9D0E9002363612261182318340C
:1054F00085F8303023882948224603F4F85343F0D6
:10550000090322F8023B336CC4F80230D0F824734C
:10551000736C5360B38F90F823C363810437012306
:1055200000218C451DD1627863F30402627095F806
:10553000302003F01F030A3202EB430385F83030BA
:10554000542380F81033BDE8F08160F3C303637027
:105550002DF0B8F9D0E90023E360A26010231034E5
:10556000C6E704EB43023E885681002202F101089F
:10557000043204EB4202B2F802E076455FFA88F2A8
:10558000F4D1934203D20133DBB2102BCBD00131E3
:10559000C9B21837C5E700BFA82C0020C0370020CB
:1055A0002DE9F0414FF6FF73C46903858B7880F8CD
:1055B0008530064620460D46FDF7BEFA23684FF6B5
:1055C000FC721A402B4B13432360EB7AA3716B7B65
:1055D000E371A888A080FFF7B5FE40B3637843F07D
:1055E00010036370D0E900234FF00808A260E36065
:1055F000F46908F108073C44238803F4804343F02E
:10560000010323806A78637802F06001202910D1B9
:1056100043F040036370AB7AA3702B89A4F8033086
:10562000AB786371063786F83070BDE8F08180464C
:10563000DEE76FF38613637049B912F0100FDBB227
:1056400003D0022262F3C403E4E70122FAE72889C7
:10565000FFF778FE0028DED0637843F02003637004
:10566000D0E9002308F11007C4F80620C4F80A3076
:10567000D1E700BF0100FCFF2DE9F04F85B088465F
:1056800001925C4A0F9E92F82E109DF838409DF8CA
:1056900040504FF6FE7B022907469A46A6F800B016
:1056A00091461DD11288328013B9824208BF01256C
:1056B00003238DF80C308DF80D50FE238DF80E303D
:1056C0009DF80C30002063F307009DF80D3063F364
:1056D0000F209DF80E3063F3174005B0BDE8F08F42
:1056E0002BB11CB34FF6FF7333800823E1E74FF66D
:1056F000F7729042F6D8FFF709FB0446B0B1827EFC
:10570000D30707D44FF481733780ADF80C308DF890
:105710000EB0D5E70278052A02D04278022A05D1D8
:105720004FF482733780ADF80C30C6E751463846E7
:10573000FBF796F9002852D0428832801FFA82FC8B
:10574000027990F806B051073ED5B9F83A104145B4
:105750004BD1130749D40721BAF1000F01D1674596
:1057600045D05D4528BF5D46EDB214B3062920D172
:105770002148224AD0F8F430E31ADB105A43D0F81B
:10578000FC3003EBC2039879C0F3C2072046FAF756
:1057900075FF99F83530B842B8BF38465B4528BF29
:1057A0005B46DBB2984211D2A38833808346012541
:1057B00004213388434502D0019A934208D14FF621
:1057C000FE733380012103E00621C5E70029F0D1F3
:1057D0008DF80C108DF80D5099E72146F8E74FF041
:1057E000FE0B002CF9D00146C2E70A21BDE70125D6
:1057F000BBE700BFA82C0020C0370020CDCCCCCC0C
:1058000030B5C5698BB0044669462846FAF798FE5C
:105810009DF8142094F830309A4228D80123039A36
:1058200084F8323053786BB96D882846FFF76EFAEA
:1058300028B1837EDB075CBF052384F832302585E1
:105840000BB030BD1178994211D902EB4301488861
:105850000949498F88420AD1013BDBB2537002EB00
:1058600043039A78DB7842EA03232385E8E775232C
:1058700084F83030E4E700BFA82C00202DE9F34184
:1058800090F807808779002308F101085FFA88F80B
:105890004372764B80F8078093F82E30022B044633
:1058A0000E4600F0C3803D460E2F2CD8DFE807F0EF
:1058B000C9C908262633335858582B2B2BA7C900A3
:1058C00044F03EFFC0F30B0060810126E379B34250
:1058D00019D860892DF010F840096081214664488C
:1058E00042F044FA634890F85030002B3DD1012338
:1058F00080F8503054303BF0A7FB36E0B8F1010F90
:1059000032D0032F01D001252FE041F602734381ED
:1059100004260225DAE7062F13D1B8F1010FF2D8D9
:10592000B8F1010F14D144F00BFF40F6627280B25F
:10593000B0FBF2F302FB13033F335B0063810326EA
:10594000E7E750F8343C90F84D209B789A42E6E720
:105950001EB133780BB9E371D5E741F60273EDE779
:10596000092F06D1072383710025284602B0BDE820
:10597000F081B0F84800FFF7C9F9082F05461CD19F
:10598000002333706369002B6CD1B8F1020F69D822
:10599000A379082B21D12046FAF7F0FE354BADF85C
:1059A000040093F8E032C0B2984216D20198FBF797
:1059B00059FA50B10325E571D7E7002EE2D03378CC
:1059C000002BDFD10823A371DCE7E679022E04D196
:1059D00043F609536381042578E74DB16E78022EB2
:1059E00006D12B7803F0FB03012B01D10023F1E753
:1059F00044F0A6FEC0F30A0060810226EBE700290E
:105A0000B2D00B786BB1E12B14BF0126022644F013
:105A100097FEE2794FF480639340013B1840608128
:105A200077E7012343729B02438188E70E2F3FF6FD
:105A30006AAF0122BA4044F283331340002B3FF493
:105A400062AF8EB13378002B3FF45DAF012F07D0EA
:105A50000E2F0CBF02260126E12BD8D10136D6E746
:105A60000326D4E7032580E735467EE7A82C0020EF
:105A700028380020C03700202DE9F0413D4FC4698F
:105A8000D7F8B86205462046FDF756F8337C1BB1BF
:105A9000738AA380337DE37123883089608023F487
:105AA000805323F0030343F4805343F00103238026
:105AB0004FF6F773984245D8FFF744FC804600281C
:105AC00040D0637843F0080363702CF0FBFED0E90C
:105AD000002322616361D8E90023A260E3601822F9
:105AE00004F1180385F8302003221A70B27D5A7031
:105AF00072895A8095F88630102B02BF95F887304E
:105B000043F0020385F88730B089F389A5F8803027
:105B10004FF6F7739842288522D8FFF7F7F801234C
:105B200085F8323028B1837EDB0702D4052385F85F
:105B3000323095F83030043385F83030212387F83F
:105B4000D43214E063786FF3C30363702CF0BAFEB1
:105B5000D0E90023A260E360102204F11003C1E742
:105B6000054BE179588FFBF741FE0228E1D1BDE8F2
:105B7000F08100BFC0370020A82C00202DE9F84399
:105B80004B7806466FF3C3034B70C88830850123FA
:105B900086F83230F4698846FFF7D4FB0746204682
:105BA000FCF7CAFF98F80C30584AA371538FA380B2
:105BB000338D6380238823F4805323F0030343F45D
:105BC000805343F0010323809146002F00F0828030
:105BD000637843F0080363702CF074FED0E900236F
:105BE00022616361D7E900230827A260E36098F887
:105BF0000130F46903F0600310373C44A3F1200244
:105C000053425341627863F386126270238803F42F
:105C1000E04343F00203238098F80A30A370B8F8F9
:105C20000450B8F80830A4F80350A4F80530B8F8C8
:105C30000600FFF76BF8002861D099F8302034494E
:105C4000DFF8D0C0002A4CD0D1F8F420831ADB1042
:105C5000D1F8FC200CFB03F302EBC3039979C1F3E9
:105C6000C201FAF70BFD8842B8BF084698F8033026
:105C7000184480B2FE2828BFFE20E0712846FFF7B6
:105C800061FB637800283CD043F010036370D0E9D7
:105C900000230125A260E36063786FF3451363700E
:105CA0005B0610D4B4F80500FFF74CFB58B16378DD
:105CB00043F0200363700135D0E9002304EBC504F1
:105CC000EDB222606360681C07EBC00086F830000C
:105CD000BDE8F8832CF0F6FDD0E90023A260E36074
:105CE00085E7D1F8F420831ADB10D1F8FC200CFBF7
:105CF00003F302EBC3039879C0F3C200B6E70720B1
:105D0000B4E760F3041363700546C5E7A82C0020D0
:105D1000C0370020CDCCCCCC094A30B5D2E93D32D9
:105D20001C78062C05D0D3E902458D4208BF844279
:105D300003D028339A42F3D80023184630BD00BF61
:105D4000C0370020F7B51F464FF6F7739842054657
:105D5000164626D856EA070323D0FFF7F3FAB8B160
:105D6000D0E90023BB4208BFB24211D00220FBF7AA
:105D7000B5F8012430463946FFF7CEFF50B1837E97
:105D8000858064F3C303837684F0010003B0F0BD23
:105D90000024EFE7009432463B462846FAF77EFFA0
:105DA000F2E70020F2E72DE9F04D1746527D072A71
:105DB000884614D93D696B78C3F34011C3F30014CE
:105DC0000C44E4B2611CB2EBC10F08D3DA0609D46B
:105DD000A978B5F80300FAF7CFFD0646A8B9002068
:105DE000BDE8F08D364B5A8FB5F803309A42EFD1AB
:105DF000D5F808A0D5F80CB02CF064FDD0E900234C
:105E00009B4508BF9245EAD1E2E7EB79C2789A4216
:105E1000E5D9C3706B789B060CD5013CE4B2012C2C
:105E2000DDD8013405EBC404B5F8050022686368C9
:105E3000FFF788FF7178F378FA8A01F06001A1F129
:105E40002000414241413089FAF72FFE1C4BB5F842
:105E500003005A8F82421FD06B78DB0603D5AA68F5
:105E6000EB68FFF76FFF98F80630012B86BF03F150
:105E7000FF33DBB201233373737843F00403737091
:105E8000104B93F8A422002AA9D1932283F8A422CC
:105E90000520FBF723F8A2E7306918B1002202744D
:105EA000FA8A42829B7C002B99D010B1C3681030D3
:105EB00098477378002262F3C303326173708EE7F0
:105EC000A82C0020C037002037B5054628B9244B40
:105ED00043F211121A8042F0A1FED5E900230133EA
:105EE00008BFB2F1FF3F02D1002003B030BD284609
:105EF0002CF0F4FC88BB0022002369462A20CDE95F
:105F0000002339F087FCD5E90001DDE9002399423F
:105F100008BF90420ED1134C2B2004F14C0139F0F4
:105F200079FCB4F84C204FF6F7739A4202D804F18A
:105F30004C00DAE7D5E90001FFF7EEFE30B18288C8
:105F40004FF6F7739A4201D80430CEE72846FAF7A5
:105F50007FFA0028C8D00230C7E70348C5E700BF72
:105F6000642D0020000B0120E22C002082B00A4B9F
:105F7000009340F20713ADF8043000231DF803101E
:105F80008142DAB203D90133062BF7D11A46501CED
:105F9000C0B202B0704700BFFCAF601138B50B4B08
:105FA000D3F8F440001B0A4CC0106043D3F8FC4007
:105FB00004EBC004084621711546FFF7D7FFA3790B
:105FC000657160F3C503A37138BD00BFC037002001
:105FD000CDCCCCCC38B50E4BD3F8F440001B0D4CD7
:105FE000C0106043D3F8FC4004EBC004154623798D
:105FF00023B1032212FB0311C1F38701217108466B
:10600000FFF7B4FFA379657160F3C503A37138BDD1
:10601000C0370020CDCCCCCC4B682DE9F0410446F4
:106020000D46002B2ED12B68002B3FD1E88AFEF7BE
:106030006DFE064600284FD12D4B93F830609846F0
:10604000002E52D06378DB072DD462884FF6F773A9
:106050009A4228D8A7883846FEF758FE20B1037820
:1060600003F0FB03012B1ED098F83430A2799A423A
:1060700034BFD343DB43DBB2EA8A00213846FAF768
:1060800014FD10E0027802F00302012A03D10A692C
:106090001278062AC7D01A68A0885B68FFF752FEFC
:1060A0000028C0D100263046BDE8F0816278D207D2
:1060B000F8D460884FF6F7729042F3D80C4AA18862
:1060C000528F9142B2D09042B0D01A685B68FFF70D
:1060D00039FE0028AAD1E5E795F91920297EFFF7B6
:1060E00079FF3046FAF78CFEA6E70126DBE700BF12
:1060F000A82C002070B50646807C294C58B1022897
:106100003ED8D4F890319A7E6FF341029A76BDE87A
:106110007040FEF729BCD4F89011224DCB88AB8794
:1061200033886B878B882B80D6E90223C1E9022351
:1061300094F8D03185F838300B7E08700133DBB22B
:106140000F2B28BF0F23487E6B72FEF765F9D4F83A
:10615000900196F91120317CFFF73CFF452384F82C
:10616000D03124231E3584F800320F4BC4F8D851A7
:10617000C4F8E03104F5E470BDE8704031F084BD4E
:1061800094F801320133DBB2012B84F80132B8D824
:1061900004F5E47031F026FD232384F8003270BD4D
:1061A000C0370020A82C0020995100012DE9F84F9C
:1061B0000746494E087E9DF8289015469A4688461F
:1061C000FFF7D4FE96F8303095F801B0044613B9C5
:1061D0001BF0180F2ED0B8F81600FEF797FD0146F9
:1061E000002865D0FAF74AFA1BF0180F04463B4A1C
:1061F00010D0D2F8F4303A48CB1ADB104343D2F82F
:10620000FC0000EBC300847914F0070402D10020E5
:10621000BDE8F88FD2F8F430C91A314BC9104B439E
:10622000D2F8FC1001EBC3018B79C3F3C2039C428B
:10623000B8BF1C4696F83630A342E8D96B79A978E6
:10624000B8881C44A4B2FE2C28BFFE24FAF794FBA5
:10625000002833D14846FBF737FE0028D7D04378D3
:106260006AF3461343702A79EB7843EA02230381E9
:106270003B797A7943EA02238380AB788372BB79D6
:10628000013BC372FB79437389F001035B42C37026
:10629000B9F1000F10D096F834305B00FF2B28BF07
:1062A000FF23DBB203738470B8F81630C380AFE706
:1062B0001BF0180FBED0AAE70123F3E74378C3F31E
:1062C00041135345A3D1B5F8032003899A429ED1C7
:1062D0008378A342E7D89AE7A82C0020C037002093
:1062E000CDCCCCCC012B2DE9F34106460F4615460B
:1062F000984610D0224BB2F803005B8F834211D036
:10630000FEF704FD38B1047804F0FB04012C02D13F
:106310004378022B07D0B379012B29D8002002B093
:10632000BDE8F08101242A460094434639463046B0
:10633000FFF73CFF05460028F0D0114B93F83030B2
:106340002BB18378FA8AB0880021FAF7AEFB8CB1C2
:106350006B7843F004036B700A4B93F8A422002A75
:10636000DCD1932283F8A4220520FAF7B7FDD5E704
:106370000024D8E721462846FAF7E6FDCEE700BF1D
:10638000A82C0020C03700202DE9F341537D052BB8
:106390000D4617465DD9424B93F82E30022B58D04C
:1063A0004B781669D80607D5137D0F2B51D98A680B
:1063B000CB688888FFF7C6FC737813F040046CD173
:1063C000C3F3C102002A48D0022A42D8B6F80320FB
:1063D0004FF6F7739A423CD9009423463246394629
:1063E0002846FFF7E3FE804698B32146A888FAF7CF
:1063F00037FB0446002849D1FAF70CFB0379044621
:1064000023F0280343F0280303711420FAF766FDF4
:10641000AB882380FB8A63807378227903F01803AA
:10642000A3F110014B424B4142F0040263F34102DD
:10643000227198F8012063F3041298F8023088F86A
:106440000120A37198F80B301BB100214046FAF7E8
:106450007BFD002002B0BDE8F081B6F803004FF6E6
:10646000F7729042F5D8990608D57B7D0D2BF0D9AF
:10647000D6F80620D6F80A30FFF764FC022332462D
:106480003946284602B0BDE8F0412BE703795A07A8
:10649000B6D543F008030371BAE70123EFE700BF65
:1064A000A82C002000487047B4380020064AD2F8D3
:1064B000F430C01A054BC0104343D2F8FC0000EB87
:1064C000C3000079704700BFC0370020CDCCCCCCD2
:1064D000064AD2F8F430C01A054BC0104343D2F834
:1064E000FC0000EBC30090F905007047C0370020A6
:1064F000CDCCCCCC10B51446FFF70EFC034630B122
:10650000817EC1F3001014B141F01001997610BDE5
:1065100040B1431E0D2B4FF0010398BF83403C2038
:10652000584370470A2070472DE9F047BC4D95F855
:106530003C1071298AB0044640F083811021ADF8E7
:106540001C100021099190F82C10066B08900E2960
:1065500078D93178002975D1D6F80310D6F807001C
:1065600011F1FF3240F1FF334FF0FF316FF00200C5
:10657000994208BF904265D3AF6B2FB9A94B43F244
:10658000DA021A8042F05CFB97F825C097F82630B3
:1065900063450BD9BA6A02EB0C13002A40F09C80C9
:1065A000A04B43F2DB021A8042F038FB73789E4E18
:1065B00096F83320B2EB131F44D196F8322003F043
:1065C0000F0393423ED107A91E203CF01BFE099BFE
:1065D000C3BB04A93320276B39F01CF9DDE9042380
:1065E00012F1FF31009143F1FF310191DDE90089A2
:1065F0004FF0FF316FF00200494508BF404507D317
:10660000D7F80710D7F803008B4208BF824219D190
:106610000DF10F01182039F0FDF89DF80F3043B14E
:1066200004A9172039F0F6F8A289BDF810309A4273
:1066300008D196F82E80B8F1020F52D197F90230A6
:10664000002B54DB0AB0BDE8F087D6F807905168FC
:10665000D6F803801068894508BF804510D194F9A9
:106660001F100029B178B8BF82F80DA0480748BFB5
:1066700082F80EA0090648BF82F80FA04FF0010E65
:1066800010329342E1D8BEF1000F8FD1227E1A72F0
:10669000A27FC2F30302DA72A27FC2F303121A735B
:1066A000E27FD6F80310D2095A73D6F807205A6051
:1066B000B2781960C2F38001D209DA7372789973E3
:1066C000C2F303025A7272780CF1010CC2F3031286
:1066D0009A7287F825C069E74FF0000E4FF0010A63
:1066E000CFE7B8F1010F02D1BB785807AAD5D5F88A
:1066F000F4A0D4F83090D5F8F8E000278DF81070A9
:10670000D4469CF80030062B00F09280228ABCF818
:1067100004309A4240F08D80DCE90423D9F8071058
:10672000D9F803008B4208BF824240F08280F445D2
:1067300080F0848067463D4BE17FA7EB0A0A4FEA71
:10674000EA0A03FB0AFAD5F8FC3003EBCA0A3B78E5
:10675000062B04BF03233B7081F04003C3F3801377
:106760007B70BB7803F0300343F00A03BB70237ED9
:10677000FB70238ABB80A389FB8000220023C7E92A
:106780000223D9F80320D9F80730C7E9042399F880
:106790000230C3F3C3033B7699F80E307B76BB7EA1
:1067A00096F85400C90961F3410303F0FA0300228B
:1067B00043F00103BB76BA83FFF7AAFE38629AF86A
:1067C000063062F3861399F802208AF806305107E2
:1067D00006D5B8F1010F02BFBB7E43F00403BB76C0
:1067E000120606D5B8F1020F02BFBB7E43F00403C8
:1067F000BB763846FAF704FBE17E94F91D20384653
:10680000FFF7CCFB9AF806306FF302038AF80630E4
:1068100004A901234A208DF810303CF0F3FC10E06D
:10682000C0370020642D0020A82C0020CDCCCCCC7B
:1068300067460CF1280CF445FFF463AF002F7FF49A
:106840007AAF95F81033272B7FF4FCAE2B785B06DC
:106850007FF5F8AE184BA1899A8F91427FF4F2AE82
:1068600094F82C100E290BD9216BD1F80360D1F8C4
:106870000770D3E910018F4208BF86423FF4E2AEB1
:10688000598FDB88994207D00C490D48FBF79EF8D9
:10689000512385F81033D5E695F86833FB2B7FF448
:1068A000D1AE013207490848A5F86A23FBF78EF8F4
:1068B000832385F86833C5E6A82C0020191500014C
:1068C000D43A002089440001303B00202DE9F041FA
:1068D0000E4607469046FEF719FA3149B0B9D1E99C
:1068E0003D4523461A78062A11D02833AB42F9D306
:1068F000B8F1000F05D02378032B09D02834A54226
:10690000F9D8BDE8F0810022002321E003461C46AF
:10691000D1F8F450234B651BED105D43D1F8FC30EA
:1069200003EBC50540F203132380A37803F0300383
:1069300043F00A03E11C1620A37038F06BFFA78018
:10694000A11D172038F066FF002EDCD0D6E9002309
:10695000C4E9022304F110010C20134E38F05AFF51
:1069600001232376337C6376A37E23F0070343F071
:106970000703A3762046FAF743FA0022FF212046B8
:10698000FFF70CFBAB7996F8540000226FF302037B
:10699000AB71A283FFF7BCFDC4E908022046B0E753
:1069A000C0370020CDCCCCCCA82C00202DE9F04164
:1069B0008B79012B0F46904636D1254E347814F052
:1069C000080410D0536818685968FFF7A5F9044601
:1069D00058B30378012B06D1D6F8485496F84424CE
:1069E0000023934201D100201FE02978F9B101333F
:1069F0001835DBB2F5E7C1236B707A793B7943EA4E
:106A000002236B80D8F804301A685B68C5E902235A
:106A100073782B74B378C3F300036B7401232B706A
:106A20001320FAF757FDDEE70120BDE8F081D8F822
:106A3000106070780E28DED8FFF76AFD20622046CD
:106A4000FAF7DEF9B37803F00103A383D5E700BFBB
:106A5000C037002016481749D0F8F43070B510221E
:106A60000C460025013A92B20D804D600831002A93
:106A7000F8D1D0F8F8004BF6DD751A7802F0FB0279
:106A8000012A11D15A78022A0ED1998805FB01F208
:106A9000C2F3033234F83260314324F8321004EB8D
:106AA000C20251685962536028339842E5D870BDDC
:106AB000C0370020103C002007B501238DF80730B7
:106AC000037803F0FB03012B1ED14278022A0F4A00
:106AD00014D192F8201041F0800182F82010062293
:106AE0000270002242620BB1FFF7B4FF0DF1070103
:106AF0004B203CF087FB03B05DF804FB92F820309C
:106B000043F0040382F820300023E8E7A82C00209B
:106B100038B5B0F12805044607D1144B43F24602BC
:106B20001A80BDE8384042F079B810F8283C052BAF
:106B300003D00E4B43F24702F2E750E90401FFF79E
:106B4000EBF870B114F8063C4BB9237D3BB9022336
:106B500004F8283C0B20BDE83840FAF7BFB9FFF72E
:106B6000ABFF2846BDE83840FAF706BE642D00208A
:106B7000F8B5224FD7F8F440054600262378062BB7
:106B800018D0012B30D195F842305BB1D5E9020124
:106B9000D4E90223994208BF904203D12046FFF76F
:106BA0008BFF07E0164B93F82F3003B36378022B6B
:106BB00008BF2646D7F8F8302834A342DED8C6B13D
:106BC000B3882B82D6E90223C5E90223B37E13F0F2
:106BD000010308BF0523AB74152385F84130072056
:106BE000BDE8F840FAF776BC052BE3D1D6E7264698
:106BF000E0E72846BDE8F840FBF778BAC037002048
:106C0000A82C00200B48836F30B4D3E9024554EA26
:106C1000050207D0192280F8B92030BC19770C2062
:106C2000FAF75CB990F8BA30013380F8BA3030BC6A
:106C300078309DE7C037002038B544682378042BAE
:106C40000D4605D00D4B43F245021A8041F0F8FF86
:106C5000D4E90201FFF760F858B1237D2B4306D138
:106C6000032323700B20BDE83840FAF737B9FFF74C
:106C700023FF2046BDE83840FAF77EBD642D002092
:106C800073B5464C94F8B90011280FD12378A56F3D
:106C9000DB0777D56B7D7BB12A8A4FF6F7739A4273
:106CA0000AD8172384F8B930FAF714FC94F8B930ED
:106CB000192B46D002B070BDD5E902231343384EDC
:106CC0004DD005F108002BF009FE002847D18DF8C2
:106CD00007000DF107015C2038F09CFD96F82E307E
:106CE000012B3AD8D5E90201FFF716F820B3037853
:106CF000012B04D09DF80720A2B9022B12D1838862
:106D0000A4F88830D0E90223C4E92023837E13F05D
:106D1000010308BF052384F88A30152384F8B930AD
:106D20000720C1E7052B18D1FFF7C6FE192384F809
:106D3000B93000232B77B9E7C823192284F8B9208A
:106D40002B77184841F036F883691C309847A36FB9
:106D5000EBB9E62384F8B930ACE7C223EDE796F847
:106D60002E30022B0AD0EB7C43B1F12323700D4867
:106D7000002384F8BA30FFF7FBFE97E70948FBF7DA
:106D8000B5F993E7192384F8B930C223D8E7112362
:106D90000C2084F8B930FAF7A1F88BE7C03700204F
:106DA000A82C0020383800208188134A4BF6DD7368
:106DB0004B43C3F3033310B432F83340214322F87A
:106DC0003310416ADB0019B9D1184968814202D1F8
:106DD000D118496831B913445A68426258605DF865
:106DE000044B7047496A11B18142FBD1F7E75DF866
:106DF000044BFFF72FBE00BF103C00202DE9F04FE1
:106E00008BB098469DF858300793C8F3400304931D
:106E10008F4BCDE90201D3F8F40000259246D3F858
:106E2000FC20D3F8F8308DF82650059206930146E1
:106E30002E462C46A9462F4691F800E0BEF1060FDB
:106E400043D0D1E90223DDE902BC634508BF5A45BE
:106E50000EF0FB0E08BF0C46BEF1010F1BD14B78A4
:106E6000022B0BBF01360135F6B2EDB2069B28317D
:106E70008B42E1D829463046FCF720FC002C6ED12D
:106E80002A4631460498F9F70FFC20B30024204627
:106E90000BB0BDE8F08FB9F1000F1AD06D4A0B1A94
:106EA000DB10A9EB000E02FB03FC4FEAEE0E059B84
:106EB00002FB0EF203EBC20203EBCC0C12799CF83E
:106EC0000430934238BF8946D0E7002F08BF0F46F1
:106ED000CCE78946CAE71FB9B9F1000FD6D04F46B3
:106EE000DDE902235146C8F34000FDF77DFF4FF670
:106EF000F773984208F002048146C7D864B301359D
:106F0000EDB229463046FCF7D9FBDDE90234C7E98A
:106F10000234BB7EA7F804906FF30413BB760DF127
:106F2000260101234A208DF826303CF06BF93C46BF
:106F3000012323700DF12701292038F06BFC9DF807
:106F400027300BB10523237018F0020F31D0012236
:106F5000627084F8028031E00136F6B2D1E723781E
:106F600003F0FB03012B15D02A4631460498F9F7AC
:106F70009BFB00288AD118F0020F15BF013501369E
:106F8000EDB2F6B229463046FCF798FBA37E6FF3CC
:106F90000413A376304B93F83130002BC8D0A3886C
:106FA000A4F804A053451EBFA37E6FF30413A37679
:106FB000BEE7079B02226270002BCAD1264B93F8D2
:106FC0003810E170998FE180D3E91001C4E9040120
:106FD000597AA0780E299CBF0131C9B22176197C5B
:106FE0006176A17EC0F3C00060F3000101F0F901F9
:106FF000A176002193F85400A183FFF789FA022AB1
:10700000C4E9080102D12046FFF7CEFE1049114A1B
:10701000D1F8F430E31ADB105A43D1F8FC309DF874
:10702000501003EBC20320469A7922F047029A716E
:107030009DF95420FEF7B2FF2046F9F7E1FE002348
:10704000A0880093D4E90223F9F728FE1FE700BFC8
:10705000C0370020CDCCCCCCA82C00207FB51F4B56
:107060001B781B07054631D51D4B027A1B7AC2F3EC
:107070008012C3F380139A4228D10022D0E9000184
:10708000FAF7D4F9044608B395F90A3001930126BA
:107090006B7A009302962B7A4FF6FF72D5E90001C6
:1070A000FFF7ACFEA0B1002384F82230838823844C
:1070B0002B7A6370D5E90023C4E90623094B636288
:1070C00004F1080030F091FD0523237004B070BD79
:1070D00084F822604FF6FF73E9E700BFC037002055
:1070E000A82C0020116B00012DE9F043002387B08C
:1070F00090460022CDE904234B788A7913F0080FDB
:1071000001F110060ABF374601F1180701F1080620
:10711000012A0D4603D0012007B0BDE8F083314BB2
:10712000197A7B78C1F38011C3F38013994256D149
:107130002D4B1B781907EED530687168FAF776F990
:1071400004460028E7D06B789B0726D404A92A20A0
:1071500038F060FBDDE90423013308BFB2F1FF3FE3
:107160001BD12B796A7943EA0223238202232375F8
:107170007B7863706B78C3F3400363756A792B790E
:1071800043EA02236382326873680125C4E902235B
:1071900025700520FAF79EF9BDE76B78C3F340032D
:1071A000029398F91930019398F8183000937B787E
:1071B000AA8830687168FFF721FE814650B198F9BE
:1071C000192098F81810FEF705FFB9F8043023824B
:1071D0000023CCE74FF6FF7323820123C7E700208B
:1071E0009AE700BFA82C0020C03700207FB51E4DB5
:1071F000D5F8D84205F5367040F0DCFD2CB91B4BB4
:1072000043F220321A8041F01BFD01230026228A1E
:10721000CDE90163FF230093A37CD4E90201FFF7CA
:10722000EDFD78B1837E43F01003837626766369A3
:107230005BB90E4B43F221321A8004B0BDE87040B6
:1072400041F0ECBCC7232376F1E704F1180098471E
:10725000D5F8D8322BB1112004B0BDE87040F9F751
:107260003DBE04B070BD00BFC0370020642D0020BB
:1072700010B5D0E90001FEF74FFD044668B1037870
:10728000052B0BD1012303704378022B01D1FFF7AB
:107290008BFD2046F9F7B4FD012010BD0020FCE76E
:1072A000F8B51E4ED6F8F450074600242B7803B9E3
:1072B00047B16A78022A05D0012B1FBF062301348B
:1072C0002B70E4B200232A886B6203F201239A42F6
:1072D00002D12846FFF768FDD6F8F8302835AB42D2
:1072E000E4D80F4BBCB193F84820003218BF0122FC
:1072F00093F8201062F3820183F8201024B193F8F0
:107300004940003418BF012493F8202064F3C712C9
:1073100083F82020F8BD2246EAE700BFC0370020EE
:10732000A82C002010B5104C40F20120214638F066
:1073300057FA04F10C014FF4817038F06BFA237B9B
:10734000226803EB830302EBC30304F1080140F25C
:107350000320636038F044FA04F1100039F09EFE17
:107360000120BDE810409BE7B438002070B5684D9F
:1073700095F87831542B40F0B580D5F874412CB98C
:10738000644B43F2A1021A8041F05AFC624E94F819
:1073900044303372FCF7F0FA2B7894F8451096F8E5
:1073A0002E20C3F34003002936D0012A14BF002346
:1073B00003F00103B4F84620013A92B24FF6F67199
:1073C0008A428CBF002303F00103002B50D094F8B5
:1073D0003830012B24D15149172038F01BFA1620E0
:1073E0004F4938F017FA94F8453004F108000BB112
:1073F000B4F84630738723834A4B236253232374A4
:10740000592385F8783130F03FFC96F83810242065
:10741000BDE870403BF0F6BE002A18BF0023D4E759
:10742000236CF3B15A1E1A421BD0E361002294F878
:107430004D3084F8242084F8253096F8373084F8CD
:107440002630102384F8273004F12803A361364B3B
:10745000236204F1080030F014FC572385F87831DA
:1074600070BD04F140012046FAF748FB5623F5E7CA
:10747000C22384F84C30582385F878312B4840F0EB
:1074800099FC044628B9234B43F2A2021A8041F02A
:10749000D7FB94F83C3013B10120FFF701FF94F8BB
:1074A0004C30ABB91D49172038F0E0F91C491620C3
:1074B00038F0DCF995F879312BB9FAF73DFDFAF798
:1074C0006DFCFAF781FD012385F87931FD232B70DE
:1074D000A36C6BB90F4B43F2A302BDE870401A8056
:1074E00041F09CBB582BC9D00A4B43F2A402F4E7ED
:1074F00004F14C009847D5F874313BB1542385F81A
:1075000078310920BDE87040F9F7E8BCB723A5E75A
:10751000C0370020642D0020A82C0020E42C00207F
:10752000E02C002049380001511B000134390020B3
:1075300070B5324D95F83C30702B49D1AC6B2CB9FD
:107540002F4B43F2D2021A8041F07AFB2B789B0634
:1075500023D594F83430261D13B10120FFF7A0FE87
:10756000012284F82020E26AA26194F8352084F890
:1075700021200023234A84F8253092F8372084F80C
:1075800023306361204BE36184F82220304630F0E1
:1075900078FB712385F83C3070BDC22384F8243019
:1075A000722385F83C30194840F004FC044628B9A1
:1075B000134B43F2D3021A8041F042FB236B6BB9A9
:1075C0000F4B43F2D402BDE870401A8041F026BB55
:1075D000722BE8D00A4B43F2D502F4E704F1240001
:1075E0009847AB6B3BB1702385F83C300820BDE871
:1075F0007040F9F773BCD623CCE700BFC03700203A
:10760000642D0020A82C002069110001F83700200B
:1076100038B52D4D95F88031452B2C464DD12B4B4F
:10762000D5F87C0193F82E20012A15D12A7852072B
:1076300012D59A8F828193F83820827393F837306D
:10764000C37300230382224B4361043030F01FFBDD
:10765000462385F8803138BDC22380F8283047237F
:1076600084F880311B4840F0A5FB90F82030054697
:1076700013B10020FFF714FE95F8283073B92B7F63
:10768000052B08D094F881312BB9FAF755FCFAF79D
:1076900085FBFAF799FC012384F881316B6A05F1C7
:1076A00028009847D4F87C3153B1452384F88031C1
:1076B0000620BDE83840F9F711BC472BCBD1D1E704
:1076C0009A2384F88031C6E7C0370020A82C002018
:1076D0000D1000013C39002010B50F4B4468AA2260
:1076E00083F852212378042B07D00C4B43F2480235
:1076F000BDE810401A8041F091BA41B9D4E90201C5
:10770000FEF70AFB18B1228A8280FFF74DFB204664
:10771000BDE81040FAF730B8C0370020642D0020D3
:10772000F8B51B4C23781B0706462FD594F8B033C9
:10773000662B2BD1D0E90001FEF7EEFA054628B3FF
:107740000778012F22D1F9F75BFBD4F8F430114A06
:10775000EB1ADB105A43D4F8FC3003EBC20304F5F8
:1077600070709A7942F040029A71D6E90023C4E918
:10777000F223AB88A4F8D033074BC4F8D43384F891
:10778000D27330F035FA6C2384F8B033F8BD00BF03
:10779000C0370020CDCCCCCC6D0700010146064897
:1077A00010B550F8744F40F0E1FA24B91520BDE847
:1077B0001040F9F793BB10BDC03700208038F9F7AF
:1077C000C3BE13B590F824308DF8033090F83430F0
:1077D00004469BB991B1A0F1830301930198A16A7A
:1077E0009DF8032042F0D4FA019BA3659DF8033075
:1077F00084F87930A4F1380002B010BDA36A019377
:10780000F2E707B58DF807000DF10701252038F0E4
:107810002DF803B05DF804FB014B5874FBF786BFED
:10782000A82C002010B50C4C01460C4840F09EFAE4
:1078300094F81032482B05D04A2B0BD104F50E706A
:1078400039F02CFC5D2384F810320720BDE810408D
:10785000F9F744BB10BD00BFC0370020D439002069
:1078600038B5194C054604F1180125203BF05EFCA3
:1078700004F12C0137203BF059FC04F140010020B9
:107880003BF054FC04F1400104203BF04FFC04F1B8
:10789000400105203BF04AFC04F140010E203BF082
:1078A00045FC012323750948094C21F0A5FB294615
:1078B000084840F05BFA237C192B04D10020F9F72B
:1078C0000DFBC123237438BDCC1F012039070001F3
:1078D000C0370020D437002008B5074B28221846AF
:1078E000002142F081FF19220270802200F8102C42
:1078F000BDE80840F9F75ABFD037002008B5F8F7BF
:10790000EDFF10B14FF6FF73038008BD30B50729B6
:1079100087B013D88DF8051000239CB2A14205D87A
:1079200001A9F8F7F1FF002007B030BD01AC04EB6E
:10793000430432F8135065800133EEE70520F3E786
:1079400008B50379014673B903744FF6FC73C3801D
:107950004FF6FE734B82054840F008FA0420BDE85C
:107960000840F9F7BBBAD0230382F1E7403A002080
:107970000D4890F890338A2B05D00C4B43F201222E
:107980001A8041F04BB9002380F898330823A0F8FF
:107990009C33074BC0F8A0338B2380F8903300F55D
:1079A0006570FFF7CDBF00BFC0370020642D0020F9
:1079B0000D2000017FB54FF6FE73ADF81630084B71
:1079C0005A8F0DF116010023CDE9003102931146C3
:1079D000FDF752FEBDF8160007B05DF804FB00BFCE
:1079E000A82C0020F9F761B807289DBF024B83F847
:1079F000AE020020C1207047C0370020F9F74CB814
:107A00000A4A58B10730B2F8AC32D2F8A822C3EB18
:107A1000C3031344834204D800207047D2F8A8025D
:107A2000F1E70279D207F8D40730F3E7C037002036
:107A3000D3B516461F46BDF8182000238DF8073031
:107A40000223037004461F4B9ABB42700276A17852
:107A500001F0300141F00A01A17093F83810E17093
:107A6000D3E91001A2809A8FE280C4E90401C4E93D
:107A700002671A7C6276A27E93F8540022F0070215
:107A800042F00702A2760022A283FEF741FD9DF993
:107A9000202020629DF81C102046FEF77FFA01236B
:107AA0000DF107014A208DF807303BF0ABFB02B027
:107AB000D0BD01214170597A002908BF012101760A
:107AC000C5E700BFA82C00202DE9F04F55688BB00A
:107AD000002D7AD00378547DC3F30403DEB2023C58
:107AE00003EB4303DBB2E4B2A3426ED8494FB7F8CD
:107AF0003AE000244FF6FF735FFA84FC66453AD8FB
:107B00004FF6FF74A3421CBF03EB43031B18B1F8ED
:107B1000048018BFDE78137E059392F9193006931E
:107B20003D4BD5F800A0D5F804B0D3E93D434FF064
:107B3000000114BF06F0070607268DF827100793EB
:107B40000D462078062820D1002D08BF2546079B2A
:107B500028349C42F5D30DB9B9B30D46069B029368
:107B6000059B2846CDE9008352465B46FFF760FF40
:107B70003146284627E004EB440C8444BCF801C09D
:107B8000F44508BFA3B20134B6E7A388434520D12A
:107B90006378022B19D00DF127015C2037F03AFEF3
:107BA0009DF82720237852BB012B28D197F82F303E
:107BB0003BB10223237097F8203043F0040387F889
:107BC000203031462046FDF70BF801200BB0BDE810
:107BD000F08FD4E902239B4508BF9245D8D000F02E
:107BE000FB000128B3D02046F8F748FD814661B17B
:107BF0000846F8F743FD814588BF2146A7E7033BC8
:107C0000012B9CBF02232370DBE7864238BF21464D
:107C10009DE700BFA82C0020C03700202DE9F043CD
:107C2000364B87B0D3E93D42002507460E468DF816
:107C300017502378062B1CD1002D08BF2546283469
:107C4000A242F6D8002D3FD07B78B98896F919402A
:107C5000307E13F0100F49D1CDE9010400910022CC
:107C600000232846FFF7E4FE00212846FCF7B8FF72
:107C70002AE0B7F804C0A388634528D16378022BB3
:107C800016D00DF117015C2037F0C4FD9DF81730B8
:107C900073B92378012B0BD1194B93F82F203AB1EC
:107CA0000322227093F8202042F0040283F820205F
:107CB0007B78DA0608D5D4E90223134304D173682C
:107CC0001A685B68C4E9022307B0BDE8F0837B78DB
:107CD000DB06B4D57368D4E9028959681868894508
:107CE00008BF8045ABD1A4F804C0EDE773681A68FB
:107CF0005B680091CDE90104B3E700BFC037002005
:107D0000A82C00202DE9F74399460B789DF8288090
:107D100003F00303012B07460C46164646D14B7869
:107D20009A072AD597F820100320F9F7F9FA0546A3
:107D300000283CD00123CDE9008322464B4639463A
:107D4000FAF778F9637898070ED42B7803F0F803E4
:107D5000B02B09D1A379012B06D9E379A2883989FF
:107D600005F13800F8F728FD2B7899072DD528461E
:107D700003B0BDE8F043FBF73BBF214B1B789B07EB
:107D800007D48A88F38A9A4203D131462046FFF706
:107D900045FF324621463069FBF7DCFBB8F1000FA6
:107DA00001D00028BED103B0BDE8F0834BB16378A9
:107DB0009D07F8D4E179A08803B0BDE8F043F8F757
:107DC00071BB90F820100420AFE70D4B1B789A0789
:107DD00007D4A288F38A9A4203D131462046FFF79E
:107DE0001DFF23789B07284604D103B0BDE8F0436C
:107DF000FAF7A0BD03B0BDE8F043FBF7DDBA00BF62
:107E0000C0370020014B1865704700BF000B0120F0
:107E1000014B93F84B007047A82C0020014B93F8BE
:107E20004C007047A82C00202DE9F743474E96F8E8
:107E30002054012D0746894650D90846F8F756FECA
:107E4000854200F28180424B6C1EE4B293F84AE016
:107E5000D6F82434C4EBC40203EB82034FF6FF725E
:107E6000197891B1A64509D093F801C01FFA8CF199
:107E7000914203D2CC453CBF0A462046013CE4B2C5
:107E8000FF2CA3F11C03EBD10446A5425AD90FFAEB
:107E900084F8D6F82424C8EBC8084FEA880842447E
:107EA0000125157082F801903B68C2F802307B68AA
:107EB000C2F80630BB68C2F80A30FB68C2F80E3060
:107EC0004846F8F713FE96F82034834207460BD84D
:107ED000D6F82434002003F8080002E04FF0000038
:107EE00032D003B0BDE8F0830FFA80F9D6F824341D
:107EF000C9EBC90903EB890919F1140FE8D00DF199
:107F000003014FF4817037F085FC01A940F21B207A
:107F100037F066FC9DF80320019B12FB07F703EB8B
:107F20000710174403EB071712010021C9F81400CA
:107F3000C9F8187042F058FC142021463BF062F951
:107F40002846CEE70020CCE70446A0E7C037002053
:107F5000A82C002008B5F8F7C9FD084B93F8203489
:107F60008342014607D9064B83F84A0014203BF0B0
:107F700049F9012008BD0020FCE700BFC037002000
:107F8000A82C0020054B93F84A00054B93F82034A9
:107F900098422CBF00200120704700BFA82C002071
:107FA000C037002013B5C3695C7801228DF8072023
:107FB00022466FF3410229205A700DF1070137F074
:107FC00029FC9DF8070040B1FFF7DCFF28B1044B06
:107FD00093F84B0008B1C4F3400002B010BD00BFDD
:107FE000A82C002073B5174C94F800322D2B0646B0
:107FF00025461CD10DF10701292037F00BFC337801
:10800000BBB99DF80730A3B1FFF7BCFF88B10E4B99
:10801000C4F8A431012384F8A03104F5CA70782390
:10802000C4F89C3139F010F82C2384F8003202B0E7
:1080300070BDD5F890319A7E6FF382029A76FCF784
:1080400027FBF4E7C037002089470001054B064AAB
:1080500093F84A30D2F82424C3EBC30302EB830322
:1080600058787047A82C0020C0370020054B93F8A3
:108070004A00054BD3F82434C0EBC00003EB80006A
:1080800002307047A82C0020C037002030B591B0D6
:1080900004460D46FFF7EAFF134BA06093F84B3000
:1080A00023732AF00FFC20616869606195F828301D
:1080B000637606A9F8F744FA9DF82C3062692376B6
:1080C00001A801928DF808303AF0D0FC9DF8090023
:1080D000F8F724FD054BE3610023A060A37620465A
:1080E0003AF0B8FC11B030BDA82C0020C5880001C2
:1080F00013B51A49B1F84E20B1F85030ADF806303A
:10810000501E80B24FF6FD74A0421CD901339BB2C1
:108110000122ADF80420A1F84E201A04ADF8063073
:10812000A1F8503003D5002140203BF06BF800212E
:108130001F203BF067F8BDF80630013BADF8063074
:10814000019802B010BD013292B21B04ADF80420B8
:10815000A1F84E20EFD500214020EAE7A82C00200E
:10816000F0B58BB004464D690E46FFF76FFF6077A0
:10817000FFF77CFF0127A060A777FFF7B9FF114B3E
:10818000A06193F84B3084F8213084F822702AF0F3
:1081900099FB7369E060236196F8283084F82030F9
:1081A00069462846F8F7CCF99DF81430E377064B7A
:1081B00063616B7843F002036B7020463AF047FC32
:1081C0000BB0F0BDA82C0020C535000108B590F813
:1081D0008730DB070ED5C3695B7813F0020F00F11F
:1081E000080100F1500002D0BDE808404EE7BDE8AC
:1081F0000840B5E7094B028C9B8F9A4204D10830A6
:10820000BDE808402FF049BD014605483FF0AEFDEE
:108210000320BDE80840F8F761BE00BFA82C00208D
:10822000043800202DE9F8430B46044611464FF66A
:10823000FF76042B00F2AF80DFE803F003AD3C7162
:10824000260094F886300D2B0AD1636894F88520B7
:108250009B789A427BD92046BDE8F843FAF7BEBF27
:10826000012B74D1564B93F85321002A6FD0E26949
:10827000B3F85051508A854269D1527C0D2A66D19B
:10828000002283F85321E6E7D4F81C8098F80130E7
:10829000DB070FD4B8F802204FF6FF739A4209D1DA
:1082A00004F138056B693BB9274695F80490B9F19C
:1082B000000F03D0BDE8F8831D46F3E7B8F80410BB
:1082C000E868F8F7BFF9E86030B30220F9F708F87A
:1082D00006460028E9D08822214642F0BDF9A6F1E1
:1082E000660394F83020E169184642F0B5F906F1CA
:1082F0003803F061BB64EB689B883385383705230E
:10830000C6E9129786F832303046FFF75FFF2B7AC6
:1083100001332B723746C8E701232B71C5E7E369A8
:1083200004F138056A69B2B95A78D70733D45A8844
:10833000B24230D12A7982B99988E868F8F782F98F
:10834000E86050B183882385052384F832302046C5
:10835000BDE8F8433AE71546E4E7E36C01222A71E9
:10836000BBB1A26C1A61A26C02B15361A4F180008E
:10837000F9F7EAF82B7A013B2B722B7A002B99D173
:108380006B79002B96D0A5F13804012315F8151C44
:108390004FE76A71F1E7E3695B7898077FF55BAFB8
:1083A00094F887309A077FF556AF6FF3000384F88F
:1083B000873004F1080104F15000BDE8F84365E698
:1083C000C0370020F8B5134D0023AC6E85F850304F
:1083D00005F16807638926687BB10122013B85F8B6
:1083E000502063813446002EF4D195F8503083B983
:1083F0000948BDE8F84038F051BE214638463FF004
:10840000DFFC14F8152C617AA4F13800FFF70AFF9D
:10841000E8E7F8BDC03700201438002010B590F808
:10842000873090F8862061F3000380F887300A4B8C
:1084300003EB021300211B7880F83F100446A0F8DC
:10844000421080F83E303830FDF718FAE822014635
:108450002046BDE81040E5E68CD1030130B5044666
:108460008BB00D4619B36946C069F8F769F8049BEB
:10847000606C5B88228DB4F88010F8F79FFB606415
:10848000A8B1E269537843F00203537094F887303F
:1084900043F0020384F88730838823852046FFF762
:1084A00081FD01462046FFF7B9FF0BB030BD94F8BF
:1084B0008630102B03D129462046FAF7E9FFA4F1B4
:1084C0008000F9F741F8F0E738B5324B93F8B42261
:1084D000D3F8B042F62A1D462CD194F886200F2AF4
:1084E0002DD0192A2BD0F721E26983F8B4122A4B38
:1084F00090885B8F834213D0FCF708FCF8B10378B7
:1085000003F0FB03012B1AD14378022B17D1D0E9DA
:108510000223C4E914230F20BDE83840F8F7DABF7E
:108520002AF0D0F9D0E90023C4E9142395F8B43235
:10853000F72BF0D095F8B432F92B29D102E0F923CA
:1085400085F8B43215483FF035FCE36900215888BE
:10855000F8F786FA38B1037903F00602042A04BF5B
:108560006FF3C30303712046FFF71CFD014620464D
:10857000FFF754FFD5F8B0323BB1F62385F8B4329B
:108580001020BDE83840F8F7A9BC2E2385F8B43296
:1085900038BD00BFC0370020A82C0020703A002052
:1085A0002DE9F0410746012088461646F8F798FE67
:1085B0000446E8B140F2022383840E4B9B8F038470
:1085C0004FF6FE73038500250B4B8361314680F81F
:1085D0003250C04784F88670204674616660FFF7A9
:1085E000E1FC01462046FFF719FF2846BDE8F0816F
:1085F0000120FBE7A82C0020E586000170B5234D83
:10860000234ED5F89C421A2285F8A422237843B938
:10861000D5F8A0321834A342F8D8002385F8A43244
:108620001EE06378DA0721D513F0600F03F0020330
:1086300017D1002B14BF0C200E2016492246FFF73D
:10864000AFFF637860F30003D90763700ED520692C
:1086500020B104234374C36810309847002323706B
:1086600070BD002B14BF0B200D20E6E763785A077E
:10867000CED5224631460A20FFF792FF637860F399
:10868000820363705B07C3D5EAE700BFC0370020F1
:108690007D5B0001A155000138B50546044615F87B
:1086A0006039CBB950F8441C40888A8890420FD07A
:1086B00014F82E3C24F8380C43F0010304F82E3C47
:1086C0002846FFF76FFC01462846BDE83840A5E67E
:1086D000228C4988F8F7D6FF21782846BDE8384033
:1086E000FAF77CBD38B5411C0446A0F122051630CE
:1086F000FDF7C4F8627801462846BDE8384091E5A8
:108700007FB568483FF056FB0446002800F0B7806C
:1087100040F202238384644B90F886209B8F03846D
:108720004FF6FE730385002380F832305F4B836180
:108730005F4B03EB02135B6803B1984794F830304A
:10874000742B00F29780228DE5694FF6FE739A42F2
:108750002DD194F883606B78B4F88020A98868885C
:10876000029604F1280601962E7A06F0030606F119
:10877000FF3CDCF1000646EB0C0603F0010300961B
:10878000FCF77AFFC0F3072384F8820084F8833073
:10879000C0F30743C0B284F884300A287CD8DFE8ED
:1087A00000F01E7D495050505050090955000923D2
:1087B00084F8823094F88630112B08D1022384F893
:1087C000823094F8323043F0010384F8323020468E
:1087D000FFF7E8FB01462046FFF720FE1FE02B785D
:1087E00013F0C00F5AD0062384F882306B7813F050
:1087F000010308BF022384F85430AB78EA7843EAD7
:108800000223A4F85630AB7984F85830002384F85A
:108810005930284BE36504F15000FFF791F8264BDF
:108820001A6C0AB95B6CDBB3032004B0BDE870407E
:10883000F8F754BB94F8323043F0050384F8323033
:10884000B8E794F8323043F00103F7E794F8323098
:108850001A4D43F0010384F83230214628463FF098
:1088600085FA2B792E2BDAD1F6232B711020F8F70D
:1088700035FBD4E7E5212046FAF7B0FCCFE71048F6
:108880003FF098FAE82380F8233090F8313000F870
:10889000223FFFF727FFC2E7C221ECE7D121EAE739
:1088A00004B070BD00380020A82C0020E58600012F
:1088B0008CD1030199860001C0370020703A002056
:1088C0000438002050F80C3C10F8072C10B400F8C5
:1088D000402C5A7840F8543C6FF341025A700378A8
:1088E000A0F170045BB1022B14D015D3042B8CBF04
:1088F000C321CE2120465DF8044BFAF76FBCC37D3F
:1089000010F84D1CDB07F5D5A0F168015DF8044BAC
:10891000203825E4CC21EDE7C321EBE7024BD3F867
:108920004E0082B002B07047A82C0020044BFF22FA
:1089300093F84A1083F84A2014203AF063BC00BF31
:10894000A82C002013B5114B0024C3F84E400DF1A4
:1089500003014FF4817036F05DFF0DF1020140F22A
:10896000211036F057FF01A940F21B2036F038FFE6
:108970009DF802209DF80330019812FB03F21201CA
:10898000214641F031FF02B010BD00BFA82C0020ED
:1089900010B50D4C40F22110214636F03BFF211D51
:1089A00040F21A2036F01CFF084BFF2283F84A20C1
:1089B000FFF7C8FF22786068C2EBC2029200002174
:1089C000BDE8104041F010BFE03B0020A82C002083
:1089D000F8B53A4B07789D6F1C46002F66D103F11E
:1089E00068003FF0E7F994F850300646A3B184F8E8
:1089F000507004F1540038F051FB04F1680716F888
:108A0000152CA6F138000121FFF70CFC38463FF089
:108A1000D1F906460028F2D1AB7CDE0716D5D4F892
:108A20009C62337813B13046F7F7BAFFD4F8A0321E
:108A300018369E42F5D3F9F7F9F8214E30463FF04B
:108A4000B9F9034658BB1020F8F7E0F8AB7C98075B
:108A500001D5FEF767FCAB7C590701D5F8F78EFF0F
:108A6000AB7C9A0601D5FBF757FCAB7C5B0601D5C6
:108A7000FFF78EFF95F91230002BA1BF114B00209C
:108A80000021C3E9100112232370192384F8B9309F
:108A900000232B770C20BDE8F840F8F71FBA1846E2
:108AA000C22200F8102FDB689847C7E7FD221A7032
:108AB0000278192183F8B9102A77EBE7C037002034
:108AC000403A0020A82C0020F0B50F4B93F84A2024
:108AD000C2EBC2030D4AD2F8242402EB8302D2E98E
:108AE00005329A4201D800200AE0D0E90067D3E9B4
:108AF0000045AF4208BFA64203D19B680B6001202E
:108B0000F0BD1033EDE700BFA82C0020C0370020D7
:108B10002DE9D04F124B93F820C4D3F8241400222F
:108B20004FF000084FF00009944501D1BDE8D08F07
:108B30000B781BB1D1E90534A34203D30132D2B281
:108B40001C31F1E7D0E90067D3E900AB5F4508BF0E
:108B5000564501D01033EFE7C3E90089EEE700BFC7
:108B6000C03700207FB50E4615461946D0E90223CE
:108B7000044652EA03002ED031B168468DF8085001
:108B8000CDE9002309F0CAFC5DB11549154AD1F8B9
:108B9000F430E31ADB105343D1F8FC2052F83330A1
:108BA000E3B92378012B0DD14FF6FE73ADF80030F9
:108BB000A368CDF802306946E368CDF8063003209B
:108BC0003AF020FB04F1080516B12846FBF7C6F978
:108BD0002846FFF79DFF2046FDF76EFF04B070BDED
:108BE000C0370020CDCCCCCC2DE9F74300268DF842
:108BF000036042884FF6F7739A4204460F4640F2EC
:108C0000C680037803F00303012B00F0C080694D98
:108C100080886A8F82422BD0E179F8F7E7FD00F077
:108C2000FD03012B064623D10DF103015C2036F034
:108C3000F1FD9DF80350002D3FD162884FF6F77388
:108C40009A4213D9A088FB8A83420FD0FCF75EF8C2
:108C500060B14278022A09D1047804F0FB04012CA7
:108C600004D12B462A462946FFF77CFF012524E044
:108C700095F82E30504D022B23D0A08894F807C0D1
:108C8000D5F8E0E095F8E51000230EEBC30292F86A
:108C90000380B8F1000F06D0B2F80080804502D101
:108CA000927862451DD00133DBB28B42EDD9022EA2
:108CB00017D00121FCF7F8F80025284603B0BDE8DD
:108CC000F0836378DA060CD57B68D3F80080D3F89C
:108CD000049029F0F7FDD0E90023994508BF90459D
:108CE000CBD195F8E002D5F8DC32B4F804C094F8A2
:108CF00007E0002201245FFA82F84045DCD91968B8
:108D0000D60000293ED0997971453BD199886145BB
:108D100038D1F88AFBF7FAFF0028CDD0D5F8F43027
:108D20008DF80480C01A254B8DF80540C0104343D0
:108D3000D5F8FC0000EBC300C37923EA0403C37138
:108D40000198F8F78FF80028B6D0D5F8DC321C4827
:108D50009C5921463FF034F80028ADD0AB6E002B73
:108D600014BF0123002385F8503002D1154838F094
:108D700095F90321E17114F8152CA4F13800FFF7DF
:108D800051FA99E76400E4B201320833B3E763783B
:108D9000DB077FF549AF074BA0885B8F83428BD001
:108DA000E179F8F723FD00F0FD0001283FF43CAF26
:108DB00082E700BFA82C0020C0370020CDCCCCCC4F
:108DC00028380020143800202DE9F74F17460646B2
:108DD0000D4600240DF107015C208DF8074036F0A8
:108DE00019FD7B7D012B21D933784FFA83F95A067F
:108DF00003F02008C3F340164FEAD9771AD56A88E2
:108E00004FF6F7739A4211D84F4B93F82E20022A4F
:108E100007D11A88AB889A4208D1B8F1000F67D100
:108E20005DE093F85240002C40F08980204603B06A
:108E3000BDE8F08F6B78DB0601D40124F6E7A86863
:108E4000E968FCF769FF0446002864D00123324634
:108E50001946FFF787FEB8F1000F2BD1AC8800212F
:108E60002046F7F719FE394AB2F8AC12D2F8A83208
:108E7000C1EBC1011944187910F0010F06D0B3F805
:108E800002C0A44504BF6FF30000187107338B4282
:108E9000F1D3B2F8ACE3D2F8A8334FF6FF7000225A
:108EA00072450AD019888C4239D11880013292B2A9
:108EB0001433F5E72046FDF7FFFD9DF80720224B10
:108EC0001AB993F82E20022AB7D1AA881B889A4291
:108ED000B3D1B9F1000FB0DAB8F1000F03D100211E
:108EE00035203AF08FF9184B93F82E30022B08D129
:108EF000154B00200021C3E9100139463046FBF72D
:108F00004BFE114B93F82E40012C96D1394630463A
:108F1000FBF742FE8AE7B8F1000FCED19EE781420F
:108F2000C4D0B3F802A003F1040C00215145BDD018
:108F30003CF802BB5C45B8D0013189B2F6E7B8F124
:108F4000000FDED1CBE700BFA82C0020C0370020E7
:108F500070B5134D134ED5F8F4402178062913D07F
:108F6000D5F8F430D5F8FC20E31ADB10734302EB9C
:108F7000C3031A6872B9481E41424FF000034141D1
:108F80001A462046FFF7EEFDD5F8F83028349C420B
:108F9000E3D370BD013A1A60002AF5D1EBE700BFB8
:108FA000C0370020CDCCCCCC07B529200DF107016E
:108FB00036F030FC9DF8070028B1054B93F84B00C4
:108FC00008B193F84C0000F0010003B05DF804FB19
:108FD000A82C00202DE9F743044628B1D0F89030A2
:108FE00013B190F8B13043B9B84B43F2B0121A80C4
:108FF0003FF014FE03B0BDE8F083B54A90F8B770B7
:109000001B2380F88E3092F834305B0080F88B3070
:1090100090465FB190F8B030B0F8AC00022B13D19D
:10902000538F834202D0F7F7E3F90746A94B84F840
:10903000B7701B78DB0710D457B1002384F8B73022
:109040002046FBF7F7FDD5E7FF21FBF71DF9ECE71D
:10905000C2212046F8F740FBCCE794F8B030012B52
:1090600058D0022B03D0994B43F2B112BFE7B4F8AA
:10907000AC204FF6F7739A424FD8002FDDD10DF197
:1090800007014FF498708DF8077036F0C3FB9DF818
:109090000750002D3CD0B4F8AC6039463046F7F7A5
:1090A000DFFCA8BB3046F7F719FC88B3418869B3E9
:1090B000CBB25E1CD4F890207600F6B2921B03F17E
:1090C000FF3C137082F801C09BB204301FFA87FC8A
:1090D0009C4513D30836F6B22F464B1C84F88B30D0
:1090E0001E2384F88E3094F8B830C3B1B4F8AE20A3
:1090F0004FF6F7739A4212D9C121AAE702EB470C47
:1091000030F817E0ACF802E00137DFE70826E4E7C3
:109110000826E8E709260027E5E70826FBE7D4F854
:109120009050C6F100094D4400232B8098F833205D
:109130002B7862F385032B702A684FF6FC5313409B
:1091400043F400732B6094F8B830002B5AD0B4F875
:10915000AE30AB8094F8B930EB7198F834305B00E6
:10916000FF2B28BFFF23AB7198F82E30022B53D171
:1091700098F85320003218BF01226B7862F3451330
:1091800067F382036B70FFF70FFF94F88F3018B10D
:1091900094F8B520002A41D16A786FF341026A70D1
:1091A0006FF3410384F88F30B4F8AC306B8094F8DF
:1091B000B230002B3AD0AB7194F8B030012B3FF4B1
:1091C00047AF6B786FF300036B70B4F8AC304FF6B9
:1091D000F77293424AD90832934203D005339BB2C7
:1091E000022B89D81C2384F88E3094F8B83073B3DE
:1091F00094F8B910B4F8AE00F8F7F8FA02282AD1BA
:10920000D22126E7B8F83A30AB8098F80A3001331B
:10921000DBB288F80A309FE70022AEE7B4F8B62048
:10922000003218BF012262F34103BBE798F83430E3
:10923000AA795B00FF2B28BFFF23DBB29A42BBD089
:10924000224B43F2B7121A803FF0E8FCB4E7E97909
:10925000B8F83A00D0E7AB79012B07D9B8F83A2033
:10926000EB79114604F14000F7F7A6FA94F88E3036
:109270001B2B07D194F8B43023B12B78012262F371
:1092800087132B700023E36484F84830C4E9143357
:10929000A4F84430B8F83A30A4F8883094F8B130E3
:1092A000E4601E44D4F8903084F838604B44636224
:1092B00009493D2039F03AFF94F8B730002B7FF48C
:1092C000BFAE04F10800F8F7E3F893E6642D002040
:1092D000A82C0020C0370020CC1F012043789B071A
:1092E00010B5044606D5094B93F82E30022B06D153
:1092F000002010BDFFF758FE0028F4D0F8E7A07951
:10930000012894BF00200120F3E700BFA82C002013
:109310002DE9F047446A237803F03C020C2A8EB012
:10932000054606D1B24B1B6D03B198470EB0BDE8A0
:10933000F08790F82070012FF8D9AE4E96F83310D0
:10934000C3F383028A42F1D103F00303032B02D15A
:1093500004F004F8EAE70278022AE7D1027C022A44
:10936000E4D1072FE2D9A279002ADFD0A1884FF6F5
:10937000F7729142DAD8002B48D19F4B1B7813F03B
:10938000010FD3D004A92046B5F808A095F828907D
:1093900095F92A80F7F7D4F89DF8243095F8202025
:1093A000ADF826A0FF1A9A428DF825708DF8289006
:1093B0008DF82980BAD363789B0731D56078870709
:1093C00066D404A92046FCF727FE0028AED06778B3
:1093D000BB0600F18D8017F00109A7D160884FF618
:1093E000F773984240F29F80F7F702F800289DD06B
:1093F000B80740F190802046FFF770FF16230090D9
:1094000004AA21462846FEF77DFC8FE7012B8DD16B
:109410006378DA078AD4784B1B7813F0200FB0E713
:109420000DF10F01292036F0F5F99DF80F30002BD2
:10943000C4D096F84B30002BC0D0704B1A7D2378E7
:10944000D2B998073FF472AF089B1B78062B7FF4C4
:109450006DAF6378D90709D5237A9A077FF466AF91
:109460006288738F9A427FF461AFA7E762884FF6F4
:10947000F7739A42F4D959E703F00303012B03D1A0
:10948000089B1B78072BEEE7002B7FF44FAF95E787
:10949000059999B1237803F00303012B03D1089BAD
:1094A0001B78062B0AD0A2884FF6F7739A423FF634
:1094B0003DAF0A684B6813433FF438AF0499002965
:1094C00085D0C7073FF532AF62884FF6F7739A42EF
:1094D0003FF62CAF738FA08898423FF478AF9A4242
:1094E0003FF475AF0A684B6813437FF470AF1DE714
:1094F00096F82E30022B3FF419AFA088FBF706FC3C
:1095000018B14378022B3FF466AF2A78D5E90201FF
:10951000FBF70CFB0AE704A92046FFF765FB0028D0
:109520007FF469AF02E72378A08813F0030F2B893B
:109530000CBF4FF015084FF0140883420FD0FBF713
:10954000E5FB60B14378022B09D1027802F0FB02FF
:10955000012A04D14B464A464946FFF703FB60887F
:10956000738F984211D1049B1BB90023009343468B
:1095700046E71E685F6829F0A5F9D0E900239F42FD
:1095800008BF96427FF4D2AEEFE7A2889A422AD073
:109590002046FFF7A3FE00283FF4C8AE6088F7F727
:1095A000B1F895F82010A0B10220F7F7B9FE0646F1
:1095B000A0B101230022CDE90032294643462246CC
:1095C000F8F738FD33789907304604D5FAF710FBE1
:1095D000ACE60520E9E7F9F7EFFEA7E6E179A08818
:1095E000F6F760FFA2E60021F7F756FA9EE600BF05
:1095F000000B0120A82C0020C0370020CC1F012028
:1096000013B504460DF1070140F2211036F002F9BE
:109610009DF80730A34225BF034B0020C12083F8EB
:10962000204402B010BD00BFC037002003680133E2
:109630000ED041780378074A43EA0123A2F84E305E
:109640008378C17843EA0123A2F8503000207047A4
:10965000C1207047A82C00207FB5144602AA0546F9
:109660000E46FAF793FA029B1BBB00220023CDE9BA
:10967000022302A901AA2846FAF788FA0199D9B962
:10968000FEF7E4FCA8420BD2FFF748F9002804DA01
:10969000002302A80293FFF7C9FF2846FEF75AFCF1
:1096A0002368002B03DA0021402039F0ABFD04B021
:1096B00070BD22689A60E3E7D6E90023C1E9002380
:1096C00023688B60DCE7F0B5027885B00446B2BB56
:1096D00010F8583C50F80C5C40F8545C62F34103BD
:1096E00000F8583CA0F1480610F8073C00F8503C40
:1096F00031462846F6F724FF14F8503C14F8342C71
:109700009B1A04F8333C3D4B1B78980707D4AA8872
:1097100034F8323C9A4202D12846FEF77FFA3146AD
:109720002846FCF779FC50B154E90A2334F8320C8E
:10973000FCF708FB31462846FFF756FA28B9A4F192
:10974000D800F7F701FF05B0F0BD14F8583C03F05E
:10975000F803B02B0AD1AB79012B07D9EB79AA8892
:1097600034F8321CA4F12000F7F726F814F8583C1E
:109770005907A4F1580738D52B789A0711D1D4F896
:109780000320D4F80730A078CDE9022302A9D4F849
:109790000B30019301AAFFF75FFF3846F9F7CAF8CB
:1097A000D1E72946324654F8380CF9F7D3FE54F87D
:1097B000383C1B78042B05460DD0D4F80320D4F890
:1097C0000730A078CDE9022302A9D4F80B30019329
:1097D00001AAFFF741FF14F8583C13F0010F08BF2E
:1097E000002565F3000304F8583C14F8583CDB07E7
:1097F000A5D53846F9F7E0FDA5E700BFC037002042
:1098000010B5084C014620463EF0B0FA23799A2B59
:1098100006D1452323710620BDE81040F7F75EBB53
:1098200010BD00BF3C39002038B50A4B1B78802B97
:1098300008D0094D142455F8043B2BB9013C14F011
:10984000FF04F8D1002003E098470028F6D101205A
:1098500038BD00BFC0370020B0D3030110B50C469F
:10986000FFF7E2FF237880F001001840207010BD60
:1098700008B5074B93F82E30022B07D0F8F75CFBA6
:10988000F8F78CFABDE80840F8F79EBB08BD00BFAA
:10989000A82C0020034BD3E91023134314BF01204D
:1098A00000207047A82C002008B5014608483EF06B
:1098B0005DFA084B93F8E822312A07D1A32283F8F6
:1098C000E8220120BDE80840F7F708BB08BD00BF4B
:1098D000AC3A0020C037002037B5C37C027805467B
:1098E0002BB1D0E90201FBF721F903B030BD022A08
:1098F00027D10089FBF70AFA04460028F5D00DF1BC
:109900000601232035F086FF95F91220297C204698
:10991000FCF760FBBDF80630DB0702D52046F7F701
:109920006FFA0B4AD2F8F430E41A0A4BE41063439E
:10993000D2F8FC4004EBC304A37943F04003A371C5
:10994000D3E7032AD1D1D0E90201FCF7E5F9D3E747
:10995000C0370020CDCCCCCC704710B5184C217A44
:1099600060680B460133DBB2182B28BF002320FAB6
:1099700003F2D2071FD501229A4042406260114A89
:10998000237202EB8303D3F8743298476368ABB158
:109990000D4C23881B0711D432F066F8238843F05E
:1099A0000803238032F070F8084B09481B68BDE8B3
:1099B00010401B6918479942D4D1E7E710BD00BF9A
:1099C000C03700208CD103019E0F012050320020AF
:1099D0005432002013B50A4B4FF4806093F83440A2
:1099E00028F08AFF074B93F832301844444301A90A
:1099F000342035F00FFF019804EB400002B010BD99
:109A0000A82C0020D02B002013B5114C00234FF4BC
:109A1000800084F82834C4F82C34F7F7F7F804F5FC
:109A2000866037F03BFB012384F83C3401A9094BE5
:109A3000C4F84034352035F0EDFEFFF7CBFF019B35
:109A4000FA3003EB4003C4F8383402B010BD00BF55
:109A5000C0370020151200012DE9F7430778E54CC7
:109A6000002F40F04D82E44E96F82E204FF6FF7303
:109A700033800123002A40F04D8277720025DF49B0
:109A800086F85330222035F0C5FE7560758040F0B1
:109A900057FE01233582B374B072FEF779FFFDF7EC
:109AA00041FCF9F769FFF9F75DFED5493D2039F032
:109AB0003DFBD349502039F039FBD149512039F0D1
:109AC00035FBFAF7C5FFCF4884F8505037F0E6FA77
:109AD0002023E365CC4B84F860500820C4E9193595
:109AE000F7F794F841234FF4804084F84C30256414
:109AF000A564F7F78BF8C5494FF4847035F08AFEFA
:109B0000C34940F2062035F06BFE94F87020E16EF8
:109B1000A8464FF4A070EBB29A4200F200824FF4D4
:109B20000010C4F87480F7F771F8DA234FF48060FE
:109B300084F80032C4F88881F7F768F8B54884F8EB
:109B40000182C4E9638837F0A9FAB7234FF40070A3
:109B500084F87831C4F87481F7F758F8D6234FF4B5
:109B6000807084F83C3084F87981C4F83880F7F745
:109B70004DF89A23402084F88031C4F87C81F7F7AF
:109B800045F80DF1030140F20D1084F88181CDF804
:109B900004808DF8038035F03DFE01A94FF4037079
:109BA00035F01EFE9DF80320019BC4F8E0307F2AAB
:109BB00028BF7F2284F8E420002503EBC2029342F1
:109BC00040F0B381944884F8E5504FF048093FF0E5
:109BD0001FFF4A460021914840F006FEE62384F824
:109BE000B9303123A4F8E8328D4BC4F8083302238E
:109BF00084F8F832C4F8EC52F7F7C0FE89494FF404
:109C0000857035F007FE884940F2092035F0E8FDFF
:109C1000B4F8AC22D4F8A802C2EBC20200214FF083
:109C2000010840F0E1FD84F8AE82F7F7FFFF102055
:109C3000C4F88052F6F7EAFF40F082FD01A986F8E9
:109C40002D004FF48A7084F8845235F0E3FD84F8D7
:109C50007C52F7F7E1FF754884F87C5237F01EFA22
:109C600040F06EFD41F64C5280B2B0FBF2F302FBC5
:109C7000130312FA83F3C4F858326D4BC4F8603200
:109C8000019B6C49C4F86C321E206B4BC4F87432D3
:109C900084F85C8284F8708284F87A52A4F878524E
:109CA00039F044FA6548664E37F0F8F94022002151
:109CB000644840F099FD802084F81092F6F7A6FFE2
:109CC000614BC4F80852314640F209107560C4F87F
:109CD000483284F8448235F09DFD311D40F2072062
:109CE00035F07EFD94F80822D4F80C029201002190
:109CF00040F07AFD13234FF4005084F8C430C4F8C8
:109D0000C050F6F783FF06F5A07037F0C7F9302290
:109D1000002106F5987040F067FD9223242200216F
:109D200006F5847084F8383340F05EFD272328223E
:109D3000002106F5B07084F8103340F055FDFB2388
:109D400084F86833782340220021A4F8D432A6F1A5
:109D5000F0003E4BC4F8C032C4F8B85240F044FDA5
:109D6000AA23042084F85231F6F750FF1422002170
:109D7000A6F1B00040F038FD01A94FF498708DF8BD
:109D8000045035F047FD9DF8043053B1F7F7A6FFB6
:109D90001822002106F5C47040F026FD892384F8BE
:109DA000903300258E234FF4004084F87031C4F8BE
:109DB0006C51F6F72BFF2E234FF4803084F8B43229
:109DC000C4F8B052F6F722FF214940F2031035F0F3
:109DD00021FD204940F2052035F002FDB4F8AC33F6
:109DE000D4F8A80314225A43FF2140F0FDFC4FF49D
:109DF000003031E0C0370020A82C0020FC2C0020CF
:109E00002020012014380020C583000130380020B4
:109E10002C380020543900208838002038380020A1
:109E2000992600016C3A0020683A0020243A00206C
:109E3000B11D0001342001202D350001F83900202A
:109E4000C8390020D0390020710C0001990B0001A5
:109E50006C3B0020683B0020A4F8AE53C4F8D852F5
:109E6000F6F7D4FE66234FF4802084F8B033C4F8AC
:109E7000B453F6F7CBFE16234FF4002084F8F033EA
:109E8000C4F8F453F6F7C2FE4FF48010F6F7BEFEA6
:109E90002A4940F2212035F0A3FC29494FF48B7068
:109EA00035F0B8FC94F8E032D4F8DC12082B28BF67
:109EB000082384F8E0322E46EAB2934239D8214D85
:109EC000FFF7A2FD294640F22F10C5E9006635F0E4
:109ED000A1FC291D40F2232035F082FC4FF4000044
:109EE000F6F794FE2A78686802EB4202D20000215D
:109EF00040F07AFCFAF710FAF7F758FC3623237093
:109F0000636900201F72F6F7E9FFC223237403B0D0
:109F1000BDE8F0837372931E18BF0123AEE500FB0A
:109F200005F3013501F80380F5E5DD705D60083368
:109F300045E641F835600135BEE700BF9C3A002098
:109F4000A03A0020043C0020054BC3F8402319220E
:109F5000A3F83A0383F83C1383F83823F6F770BE6E
:109F6000C037002008B5014607483DF0FFFE074B0B
:109F700093F828243AB9012283F828241620BDE852
:109F80000840F6F7ABBF08BDEC3B0020C03700200F
:109F900010B50C4B93F853309B0712D50A4CFFF7C2
:109FA00033FD002384F8593004F15801074BE36571
:109FB000222035F02FFC04F15400BDE81040FFF7DB
:109FC000D1BF10BDA82C0020000B0120D50D000131
:109FD0001AE507B522200DF1070135F01BFC0B4AED
:109FE0000B4B13619DF8070000231373FCF790FAE5
:109FF0000323B0FBF3F003F2E533434310469360D1
:10A0000037F022F803B05DF804FB00BF903C00205D
:10A01000919F0001014837F041B800BF903C0020FB
:10A0200008B5094B93F82E30022B08D0074837F0BB
:10A0300035F8F7F7F1FDBDE80840F7F74FBEBDE88A
:10A040000840FFF7E7BF00BFA82C0020C43800205D
:10A0500010B51446FBF760FE014668B10378012B8A
:10A060000AD10E2C0AD82046FCF752FA086208469C
:10A07000F6F7C6FE002010BDC820FCE7C120FAE7B5
:10A080002DE9F3411A4CB4F8008064684FF0300CAD
:10A090000CFB014C884507D84FF6FC73ADF8043033
:10A0A00000238DF806300AE09CF80AE00EEA02046C
:10A0B0009C4218D178B9ADF804108DF806E0BDF8CF
:10A0C0000430002063F30F00BDF8063063F31F4037
:10A0D00002B0BDE8F081DCE90067D0E90045AF429D
:10A0E00008BFA642E7D0013189B20CF1300CD1E7AC
:10A0F000A8FF0020094A03B2506882B050B1002B7B
:10A100000ADB11889AB2914206D903EB430300EBB4
:10A1100003100B3002B070470020FBE7A8FF0020BF
:10A12000084B82B09A685B68019009B222F831004E
:10A1300001EB410103EB0111BDF806300B8102B0C8
:10A14000704700BFA8FF0020027812F003030DD172
:10A1500002F00C030C2B18D013061CD5037A13F055
:10A16000030F14BF0A23092318467047012B0ED092
:10A17000022B0ED1D106F7D413060CD5037A13F0B7
:10A18000030F0CBF09230B23EEE70923ECE702239F
:10A19000EAE70023E8E70823E6E7D0B5044608B974
:10A1A0000020D0BDAA2380F82030D0E9006728F035
:10A1B00089FBD0E900239F4208BF9642F0D1822359
:10A1C00084F82030237A013BDBB2FD2BE8D8237BD7
:10A1D000032B0FD1237E013BDBB2FD2BE0D8D4E96A
:10A1E000042313430CD1094B44F210421A803EF071
:10A1F00015FDD5E7012B03D0A62384F82030CFE747
:10A20000002384F820300120CBE700BF642D00201C
:10A2100030B4294CA2688242214606D9274B44F229
:10A22000824230BC1A803EF0F9BC2478831AE820C0
:10A23000B3FBF0F3DBB29C4203D8204B44F28342E1
:10A24000EFE700FB032393F8D8205208032A07D82E
:10A25000DFE802F002020E020A790AB1013A0A713D
:10A2600093F8D8206FF3000283F8D82030BC7047F1
:10A27000CA780AB1013ACA70D3F8A8500869854271
:10A28000A5EB00024FF06004B2FBF4F2D2B203D2AD
:10A290000A4B44F28442C4E74978914203D8074B01
:10A2A00044F28542BDE704FB020211780029D7D0B1
:10A2B00000211170D4E700BFC0330020642D0020BE
:10A2C00010B1D0F880302BB9044B44F272521A808E
:10A2D0003EF0A4BC00F8871F184700BF642D002083
:10A2E00013B504460DF10701292035F093FA9DF8C6
:10A2F000070018B194F8340000F0010002B010BD5E
:10A3000013B5044690F8340010F0010309D010F0A2
:10A31000080004D0E08D2B2894BF0020012002B05B
:10A3200010BD4FF498700DF107018DF8073035F02E
:10A3300071FA9DF8073094F83400002B14BF3F23C6
:10A34000512310F00800EAD0E08D9842E4E713B5FD
:10A35000044601A9342035F05DFA034BD868019B0F
:10A3600000FB043002B010BDA8FF002070B51D4CEA
:10A370001D4D0668C4F894014FF00003A4F89D3108
:10A380006B7884F8A23104F5CE714FF4947035F0F7
:10A3900041FA3046FFF7A4FF234630B194F89C21E0
:10A3A0002B2A84BF2B2284F89C21F48D93F89C01E6
:10A3B000B4FBF0F1CAB200FB114189B995F827103E
:10A3C00083F8A021FF228A40D243084922F00102EB
:10A3D00083F89F210A7C83F8A121501C087470BD6A
:10A3E0000132EBE7C0330020282B0020A8FF00201B
:10A3F00007B5019000B2002804DB094B1B8880B22E
:10A40000834205D8074B44F226521A803EF018FCCE
:10A410009DF80600C0F3800003B05DF804FB00BFA8
:10A42000A8FF0020642D0020F7B5384A00241578D5
:10A4300096688DF80740E827E3B2AB4238D207FBB5
:10A440000463013493F8D81011F00101F4D1C3F87A
:10A45000A81003284BD8DFE800F00202230211798C
:10A4600094788C4224D90131117193F8D9100022CB
:10A4700062F307115A6083F8D91083F8E020B3F82B
:10A48000D82022F4706222F0010242F00102A3F807
:10A49000D82060F3470283F8D82000221A6010E029
:10A4A000D5785478AC4203D9177B16698F420BD10B
:10A4B00001230DF1070146208DF8073038F0A2FE88
:10A4C0000023184603B0F0BD344616F860CBBCF14B
:10A4D000000F09D101210135D57004F84A1B83F81A
:10A4E000E010C3F8A840CAE70131C9B2DEE7012392
:10A4F0000DF1070146208DF8073038F083FE044B3C
:10A5000044F281421A803EF09BFBD9E7C033002021
:10A51000642D0020D0F8BC3070B5044680F8B91026
:10A520002BB9094B44F2F5521A803EF089FB2546BF
:10A53000412015F8B91F38F065FED4F8BC30284624
:10A54000BDE87040184700BF642D0020D0F89C3053
:10A5500010B5044680F898102BB9064B44F2F5521A
:10A560001A803EF06DFBD4F89C3004F19800BDE8F1
:10A5700010401847642D002010B5044628B90E4B32
:10A5800044F243521A803EF05BFB637884F8273034
:10A5900094F8303084F82630D4F822302BB9064BAA
:10A5A00044F244521A803EF04BFBD4F8223004F1BE
:10A5B0002600BDE810401847642D002030B5154C2A
:10A5C00085B0A368019005B22BB1002D03DB228872
:10A5D000ABB29A4205D8104B44F220521A803EF09A
:10A5E0002FFB636805EB450203EB0213A2681B898E
:10A5F00032F835200020D1B261F30700120A62F36D
:10A600000F20DAB262F317401B0A63F31F6005B034
:10A6100030BD00BFA8FF0020642D002070B50D469E
:10A62000044608B1C36F2BB9064B44F292521A800C
:10A630003EF006FB2046E36F00F8795FBDE870400E
:10A64000184700BF642D00201FB50190FFF7B6FF2B
:10A6500084B2631E9BB24FF6FD7203909342BDF825
:10A660000E3015D90133ADF80E300123ADF80C30A2
:10A6700001990398FFF754FD01A9202038F0C2FD8D
:10A68000BDF80E30013BADF80E30039804B010BD9C
:10A690002BB9074B44F228521A803EF0D1FA01340C
:10A6A000ADF80C4001990398FFF73AFDE8E700BFC9
:10A6B000642D0020002310B580F83C30836B0446E5
:10A6C0002BB9064B44F244421A803EF0B9FAA36B10
:10A6D00004F13C00BDE81040184700BF642D002085
:10A6E00038B5114DD0F8A8202B699A42044605D2FE
:10A6F0000E4B44F247421A803EF0A2FA2869D4F881
:10A70000A8406B78241A6020B4FBF0F4E4B2A342B2
:10A7100005D8064B44F248421A803EF091FA2B6964
:10A72000602000FB043038BDC0330020642D0020C1
:10A730002DE9F041284B9C691B7D03EB830304EB5F
:10A74000C30690F8203005460F4633B900F11008D3
:10A75000B4420AD385F8207005E0204B44F225422C
:10A760001A803EF05BFA002433E094F82030A42BEA
:10A7700001D0AA2B19D12A7A237A9A4215D16A8953
:10A7800063899A4211D1D4E90001D5E900239942A5
:10A7900008BF904209D12A7B237B934205D1012B2C
:10A7A00005D12A8A238A9A4213D02834D0E7032B72
:10A7B00003D00A4B44F22642D2E72A7E237E9A42F5
:10A7C000F3D1082204F1100140463FF037FF002882
:10A7D000EBD12046BDE8F081A8FF0020642D0020C9
:10A7E00010B50D4A0D4C012303FA00F0137F1843F6
:10A7F000238810779B060ED431F036F9238843F076
:10A800002003238031F040F9054B06481B68BDE862
:10A8100010401B69184710BDA8FF00209E0F0120A3
:10A82000503200205432002037B500230D468DF8F9
:10A830000730044660B180F8401002B11268E36B43
:10A8400062643BB9124B44F254421A803EF0E6F97E
:10A8500003B030BD04F14000984765B9E28B4FF674
:10A86000F7739A4207D801230DF107014E208DF8A6
:10A87000073038F0C7FC2046FFF742FD0028E7D03C
:10A88000044B0022C3F894210120FFF7A9FFDFE762
:10A89000642D0020C033002008B5064B5A7F0146C6
:10A8A000013A03F120005A773DF060FA0120BDE83B
:10A8B000084095E7A8FF002008B580F8DA1000F1FD
:10A8C0000C0103483DF052FA0220BDE8084087E73A
:10A8D0001C00012010B5044628B9084B44F2605210
:10A8E0001A803EF0ADF90023A365214604483DF0EF
:10A8F0003DFA0320BDE8104072E700BF642D002040
:10A900002000012038B5044600F1080528B90D4B98
:10A9100044F233621A803EF093F941F20133A4F815
:10A920006430032384F8663004F18003E366064B49
:10A930002367064B6367242384F868302846BDE804
:10A940003840C7E7642D002071BE000195A90001C1
:10A9500038B50D4BDC6FB3F88030A3F58873B3F5D1
:10A96000BE6F054605D9094B44F263421A803EF09A
:10A9700067F9294606483DF0F9F91CB92046BDE8BB
:10A9800038402DE738BD00BFA8FF0020642D00200F
:10A990002400012038B50D46044628B9094B44F27D
:10A9A00007621A803EF04CF9012384F89C5084F829
:10A9B0007030214604483DF0D9F90720BDE8384001
:10A9C0000EE700BF642D00202C00012008B5A0F187
:10A9D000540103483DF0CAF90320BDE80840FFE6F2
:10A9E0002000012008B5A0F1140103483DF0BEF994
:10A9F0000120BDE80840F3E63000012008B510F85A
:10AA000014393BB9014606483DF0B0F90120BDE8D4
:10AA10000840E5E60022A921BDE8084004E700BFA0
:10AA200034000120024A537F01335377FEF7D2BA34
:10AA3000A8FF00201F4B03F5A972C3F8C820B3F884
:10AA40006C21A3F8E4201C4AC3F8D0201B4A83F8E9
:10AA5000720140F60231C3E93A12822283F8522190
:10AA600093F8792183F85321D3F86E21C3F8542148
:10AA700093F8782183F8582193F87A2183F85921A3
:10AA8000022283F85A21B3F87621A3F85B2193F8C8
:10AA90007B2183F809210021AF2A83F8F010C3F845
:10AAA000681103D00B2103F1200005E703F1380002
:10AAB000B8E700BFC033002035B800010101000134
:10AAC00070B50646124C0025022084F86450FFF74A
:10AAD00087FE337863B1246E2A4620680221FFF78F
:10AAE000A3FE2046FFF794FB0120BDE8704077E607
:10AAF000206E236C94F8502080F8C920C0F8A8304C
:10AB0000012380F8CD30BDE8704018308AE700BFDF
:10AB1000A8FF002038B5446905462CB9184B44F20B
:10AB200068521A803EF08CF8D4F8903013B194F843
:10AB3000B1302BB9124B44F269521A803EF080F8C2
:10AB4000104BC4F89830022384F8B0300022AB8850
:10AB5000A4F8AC3095F85C3084F8B2202A7F84F8F1
:10AB6000B5300123C4F8945084F8B43084F8B6208A
:10AB7000A4F8B7302046BDE83840FEF72BBA00BF36
:10AB8000642D0020BDE3000170B5044686B018B105
:10AB900043680BB103682BB92D4B44F253621A8002
:10ABA0003EF04EF863689D6A2A466B4652F8050FE0
:10ABB000516803C32B79042B22D0254B44F25462F5
:10ABC0001A803EF03DF8EB788DF811302B79226831
:10ABD0008DF81030106851681E4D02AB03C3D5F8D4
:10ABE000904005F190068CB9D5F8903013B91A4809
:10ABF00036F054FA02A806F05BFC012006B070BDE6
:10AC0000684627F06BFE0028D7D0DCE794F8A83020
:10AC1000042B1AD19DF81030042B16D1D4E9280149
:10AC2000DDE90223994208BF90420ED1012384F846
:10AC30009930214630463DF0C3F894F89A3023B15C
:10AC40009DF811102046FFF765FC2468CBE700BF94
:10AC5000642D0020A8FF00203C000120F8B51F4D06
:10AC6000D5F8A840064605F1A8073CB9D5F8A830A4
:10AC70009BBB1B48BDE8F84036F010BA94F888300A
:10AC8000022B20D0042B25D0012B1AD1B37A03F04C
:10AC9000FB03012B15D1D6E90001D4E924238B4213
:10ACA00008BF82420DD1012384F87830214638460E
:10ACB0003DF086F894F879301BB100212046FFF76B
:10ACC00045FC2468D1E7B37A023B012BF9D8D6E9D9
:10ACD0000601E2E7B37A042BDCE7F8BDA8FF002009
:10ACE00054000120012370B580F8753090F874305D
:10ACF000061FBBB9036F9BB1B1B105240B4D3146A3
:10AD000005F1A8003DF05CF8D5F8A8301BB905F1B5
:10AD1000AC0036F0C3F921463046BDE8704015E47A
:10AD20000424EBE70024F6E770BD00BFA8FF002075
:10AD300090F8953070B50124061F80F89640BBB995
:10AD4000036F9BB1B1B10C4D314605F190003DF060
:10AD500037F8D5F890301BB905F1940036F09EF91C
:10AD600021463046BDE87040FFF7D4BB0224EAE735
:10AD70000024F5E770BD00BFA8FF002030B50546F0
:10AD800089B018B143680BB103682BB9134B44F277
:10AD900062621A803DF054FF6B689C6AE378042B72
:10ADA00005D00E4B44F263621A803DF049FFE37810
:10ADB0002A688DF800301068516802AB03C323463F
:10ADC00004AA53F80C0F596803C29868D96803C2E3
:10ADD00068462FF0F5FE012009B030BD642D00203B
:10ADE00038B5044628B90D4B44F227621A803DF06D
:10ADF00027FF637BA4F19C055BB954F8080C03782A
:10AE0000052B06D18288238A9A4202D1083006F0A7
:10AE1000E4FA2846BDE83840FCF7D0BC642D002099
:10AE200010B5A0F19C0428B9054B44F235621A8094
:10AE30003DF006FF2046BDE81040FCF7BFBC00BF58
:10AE4000642D002070B5B0F13C06044650F8285C33
:10AE500005D11D4B44F265521A803DF0F1FE237876
:10AE600003BB227914F8303C9A4205D9164B44F2C0
:10AE700066521A803DF0E4FE237985F8B13054F82B
:10AE80000C3CC5F8903054F8243C2BB90E4B44F2DE
:10AE900067521A803DF0D4FE54F8243C3046BDE899
:10AEA00070401847236B2BB9074B44F26D521A8040
:10AEB0003DF0C6FE3046236B022198472846BDE888
:10AEC0007040FCF77BBC00BF642D0020F8B5044641
:10AED000086849681746FAF71FFF054688B30678E1
:10AEE000012E06D0052E2CD106F06CFAB0FA80F6B1
:10AEF000760960683146FCF764FC044638B9124BA9
:10AF000044F209621A803DF089FE2046F8BD022312
:10AF100080F8B030AB88A0F8AC30C0F89450012372
:10AF20000025C0F8987080F8B45080F8B23080F8EE
:10AF3000B560A0F8B65080F8B850FEF74BF8284638
:10AF4000E4E70120E2E700BF642D002030B50446AD
:10AF500085B018B143680BB103682BB90C4B44F2B0
:10AF600093521A803DF06CFE636893F82420042A03
:10AF70000BD122689D6A106851686B4603C368460E
:10AF8000EB788DF8083006F0B3F9012005B030BD3C
:10AF9000642D002070B5436893F82460036886B080
:10AFA00004462BB90F4B44F2F4521A803DF048FE90
:10AFB000636821689B6ADD788DF8085008684968E5
:10AFC0006A46022D03C206D10C2E07D153F8040F96
:10AFD000596804AA03C268462FF05CFD012006B040
:10AFE00070BD00BF642D00201FB5044618B1436832
:10AFF0000BB103682BB90E4B44F283521A803DF01B
:10B000001FFE636893F824200B2A0ED121689A6AE8
:10B01000086849686B4603C3D2F80310D2F80730BA
:10B020006846CDE9021306F07DF9012004B010BD99
:10B03000642D002010B5044688B018B143680BB1E8
:10B0400003682BB91C4B44F273521A803DF0F8FD93
:10B05000636893F824200E2A2AD11A8C2168ADF84F
:10B060000620086849689B6A02AA03C2D3F8031045
:10B07000D3F80720CDE90412197BDA7A42EA0122DB
:10B08000ADF81A205B7B8DF818300DF105015C20BE
:10B0900034F0C0FB9DF805302BB9DDE90423BDF881
:10B0A0001A00FAF74FFE0DF1060102A83FF07CFAF4
:10B0B000012008B010BD00BF642D002050F80C3CEA
:10B0C00010B5FF210446B3F80100F9F7DDF850B1DF
:10B0D000074B44F8043C0023E376A4F19C00BDE850
:10B0E0001040F9F7A7BD2046BDE81040FFF7D4BBDC
:10B0F00099A8000170B53149314C4FF4887034F093
:10B1000089FB304940F20E2034F06AFB0023217B9A
:10B11000206960251E46DAB291423FD8284940F2A4
:10B120000F1034F077FB284940F20D2034F058FB23
:10B130002278A5680023E826D9B28A4233D8237B37
:10B1400063702249A2704FF000034FF49470A4F88A
:10B15000033034F05FFB1E4940F2291034F05AFBF3
:10B160001C494FF48C7034F055FB94F873314BB19B
:10B17000194940F20F2034F033FB18494FF40470A2
:10B1800034F02EFB94F8731194F87431A26901FB2A
:10B190000323E361002384F8723170BD05FB03F2E1
:10B1A00001338654B7E706FB0351013391F8D80009
:10B1B0006FF3000081F8D800BEE700BFCC33002059
:10B1C000C0330020D0330020C83300205C3500207D
:10B1D0003435002033350020D83300205835002086
:10B1E00010B5134C40F2122004F1180134F0F8FAB3
:10B1F00004F1140140F2171034F00CFB237D2246B9
:10B200004BB1A16939B90B4B44F22942BDE810405A
:10B210001A803DF003BD926903EB830302EBC30385
:10B22000A8219A4200D310BD82F820102832F8E7F6
:10B23000A8FF0020642D002073B5304C63680546DC
:10B240000BB1A3682BB92E4B44F222521A803DF069
:10B25000F7FCD5E900234FF0FF316FF0060099426B
:10B2600008BF90421CD20023012219461846FEF75F
:10B2700007FF0526009000B2031D28D14FF6FD738D
:10B28000ADF8043000238DF80630BDF804300020FE
:10B2900063F30F00BDF8063063F31F4002B070BDCA
:10B2A000184B1E7801231A4600212846FEF7E8FEB7
:10B2B000009000B2021D46F0010608D100230122D1
:10B2C00019461846FEF7DCFE009000B2D4E7A368EA
:10B2D000ADF8000003EBC00300221A605A606368F7
:10B2E00000EB4001D5E9004503EB0113C3E900453C
:10B2F0009E721A81009B0193C7E700BFA8FF002040
:10B30000642D00205024012013B50C4681B94FF65E
:10B31000FB73ADF804308DF80610BDF80430002042
:10B3200063F30F00BDF8063063F31F4002B010BD99
:10B33000FFF782FF030400900DD4FEF7DBFE2368C5
:10B34000036063684360A3688360E368C360694621
:10B35000152037F057FF009B0193DEE7702208B5F8
:10B3600000213FF041FA0122A0F85C20002280F881
:10B370005E2008BD38B5044600F1080528B90D4B1C
:10B3800044F213621A803DF05BFC2846FFF7E6FFAB
:10B3900040F21133A4F86530074B2367074B63670E
:10B3A0001D23E46684F868302846BDE83840FFF77E
:10B3B00091BA00BF642D002031C1000195A90001A0
:10B3C00070B50D46044610B1D0F884302BB90E4B41
:10B3D00044F282521A803DF033FC6DB9D4E91E016B
:10B3E000FAF79AFC20B101232A462946FDF7BAFB59
:10B3F00004F17800F8F7B2FD2046D4F8843000F864
:10B40000805FBDE870401847642D002070B5114D75
:10B41000D5F8A84005F1A8063CB9D5F8A830BBB1CD
:10B420000D48BDE8704035F00FBE636F1BB1013BA6
:10B4300063672468F0E794F87930002BF9D021464F
:10B4400030463CF0BDFC04212046FFF77FF8F0E7D2
:10B4500070BD00BFA8FF00205400012070B5124D40
:10B46000D5F8904005F190063CB9D5F89030D3B1AD
:10B470000E48BDE8704035F0E7BD636F1BB1013B7E
:10B4800063672468F0E794F89A302146304633B178
:10B490003CF096FC02212046FFF73CF8F1E73CF037
:10B4A0008FFC0121F7E770BDA8FF00203C000120C0
:10B4B0002DE9F041164D174FD5F8C04005F1C006F3
:10B4C00044F264683CB9D5F8C030F3B11248BDE825
:10B4D000F04135F0B9BD636F1BB1013B6367246870
:10B4E000F0E7214630463CF06BFC012384F88230C3
:10B4F000D4F884301BB9A7F800803DF0A1FBD4F844
:10B50000843004F182009847E9E7BDE8F08100BF8C
:10B51000A8FF0020642D00206C00012070B50E46AD
:10B52000044608B1C3682BB90B4B44F26B421A8036
:10B530003DF086FB094D05F17C003CF03BFC2046CC
:10B54000E36800F8106F9847EB6F23B10020BDE867
:10B550007040FFF745B970BD642D0020A8FF0020A2
:10B5600038B55B483CF026FC044628B9594B44F2F8
:10B5700001621A803DF064FB94F87030012B05D90C
:10B58000544B44F202621A803DF05AFB94F870303A
:10B59000002B40F08C8054E90223134307D14D4B1C
:10B5A00044F203621A80BDE838403DF037BB94F89E
:10B5B0009D30052B6DD801229A4012F0220FA4F184
:10B5C000080550D112F0110F23D112F00C0F60D0EA
:10B5D00015B1023B012B05D93E4B44F210621A8093
:10B5E0003DF02EFBD4E91E23134305D1394B44F221
:10B5F00011621A803DF024FB04F181001EF09EF9D7
:10B6000028B9344B44F212621A803DF019FB324BD8
:10B6100048E015B113F0FB0F05D02E4B44F2306219
:10B620001A803DF00DFBD4E91E23134312D1294BA0
:10B6300044F231621A803DF0F1FA042384F89C3020
:10B64000012384F87030D4F8983033BB214B44F296
:10B650000562A7E704F180001EF070F908BB1D4BDE
:10B6600044F23262E6E71DB103F0FB03012B05D083
:10B67000184B44F220621A803DF0E2FA94F89130BF
:10B6800013B3D4E91E2313431ED1124B44F221629B
:10B69000D0E7104B44F2046284E704F19C00984721
:10B6A00009E00E4B022284F870202846984794F84F
:10B6B0007030012BC7D00A4BD3F8843033B1072048
:10B6C000BDE83840FFF78CB8064BEBE738BD00BF4C
:10B6D0002C000120642D002075B3000105A9000194
:10B6E000A8FF0020E9B6000138B5044600F10805BE
:10B6F00028B9184B44F222621A803DF0A1FA28467C
:10B70000FFF72CFE40F21223A4F8653094F899302C
:10B71000EBB104F18002E2660F4A22670F4A6267CA
:10B72000252284F868206BB1FCF778FB50B194F8BF
:10B730009A303BB194F868300B3384F868300123B9
:10B7400084F867302846BDE83840FFF7C3B8224682
:10B75000E1E700BF642D00201DF7000195A900015D
:10B760002DE9F84F2F4C80460D4691462FF068F892
:10B7700094F8D83043B32C4ED4F8E01096F800E09B
:10B78000B368421AA1EB000A4FF0000C4FF0FF37EC
:10B7900040F2012BE64524D15DB9D6F8683143B1BA
:10B7A0009A423CBFCD182D1AAF42C6F8685128BF47
:10B7B0002F464F453A461D481D4B28BF4A4601219A
:10B7C0003EF00AF9194808E004F1D800184B4A463F
:10B7D00001213EF001F904F1D800BDE8F84F3EF038
:10B7E0000FB9B3F8D84024F0FE042405240D5C45BD
:10B7F00011D193F8D84004F0FA04022C0BD15C6804
:10B800004CB1434507D094428CBF54440024A74216
:10B810005C6028BF27460CF1010C5FFA8CFCE83312
:10B82000B8E700BFA8FF0020C0330020800001203F
:10B83000ADB8000170B5194D194C6A7F013A6A77AD
:10B8400094F87221032A05D1002384F87231C4F8D8
:10B85000683170BD022A05D0124B44F252421A8060
:10B860003DF0EEF994F87C010028EDD00E4BD5F8B0
:10B87000F05093F827205B786426013A06FB0252C9
:10B88000013801215A4384F87C0184F87211C4F80C
:10B8900068210020BDE8704062E700BFA8FF0020DB
:10B8A000C0330020642D0020282B002070B5314EBD
:10B8B0004FF0FF3400253378AB421AD8D6F8683100
:10B8C00053B12D4AD2F8E4209B1AC6F86831002BF8
:10B8D00047D10220FFF7AEF8631C46D02246274826
:10B8E000274B01213EF078F82448BDE870403EF037
:10B8F00087B8B368E82205FB023302F21912B3F8E5
:10B90000D81021F0FE010905090D914222D193F8CA
:10B91000D81001F0FA02022A1CD117485A68D0F850
:10B92000E400121A5A60C2B993F8D920042001F039
:10B93000FE0160F30302062983F8D92007D1114BD9
:10B9400093F82720FF239340DB4386F89F310120A3
:10B95000FEF746FF0135EDB2ADE7944228BF14462D
:10B96000F8E79C4228BF1C46B6E70448BDE8704093
:10B970003EF04EB8C0330020A8FF00208000012018
:10B98000ADB80001282B002038B5856A2B789B07BD
:10B99000044605D0287810F023000FD0002038BDD1
:10B9A00090F83430002BF5D1FCF732FA0028F1D0B2
:10B9B00005F092FE0028EDD00120F0E794F8343035
:10B9C000002BECD1BDE83840FDF7EEBAF7B51831E1
:10B9D0000191019A022382F8B0304FF6FD73A2F86C
:10B9E000AC3090F82E30093382F8B130036B90F808
:10B9F0003540C58E82F8B840A3F10901C2F8901015
:10BA0000A2F8AE5090F8381082F8B910C28B23F823
:10BA1000082C428D23F8062C028D23F8042C90F874
:10BA20002C2003F8022C002C3CD003F8011C13F846
:10BA3000092C02F0FC0242F00C0202F08F026FF3BC
:10BA4000C71203F8092C019B1A4AC3F89820019BDE
:10BA500090F8392083F8B220174A019B127883F8B6
:10BA6000B32090F83430019ADB43C3F3C01382F85B
:10BA7000B430019A012382F8B530019A82F8B630C9
:10BA8000019A82F8B730019B83F8B840019BA3F874
:10BA9000AE50019B019883F8B910FEF7C3FF002058
:10BAA00003B0F0BD054E327C03F8012C571C3774EF
:10BAB000BDE700BFBDB00001282B0020A8FF00207B
:10BAC0002DE9F347AC4BC1F8B030022381F8C83000
:10BAD000C38BA1F8C43090F8392081F8CA20002225
:10BAE00081F8CB200C4690F83410CA43C2F3C01240
:10BAF00084F8CC2040F20112A4F8CD204A06054675
:10BB000000F1D5804FF6F77293428CBF00230123DA
:10BB100084F8CF3095F8353084F8D030EB8EA4F827
:10BB2000C63095F8383084F8D1302846FEF7E8FB67
:10BB30000746002800F0C5800DF107015C2033F0B6
:10BB400069FE9DF807708D4E002F00F0B2808C4981
:10BB500096F89D0191F8282042FA00F313F00103B2
:10BB600000F0A9800123834022EA0302FF2384F826
:10BB7000CA30002381F8282084F8C13004F1B409C8
:10BB800096F8A03196F89D1196F89C81013B994258
:10BB900008BF95F82E30284604BF01FB183808F07E
:10BBA000FF08FEF79DFB002800F08880754B44F2EB
:10BBB00051421A803DF044F84FF04C0A2B6BD6F8F6
:10BBC000980196F89CC196F89D1150440CFB0131E8
:10BBD00042463EF041FD08F10A0384F8C930D6F828
:10BBE0009831AAF10A0A5344C4F8A830D4F8A860DE
:10BBF000E98B33784FF6F77223F0130391423370D9
:10BC00006BD86FF383033370337895F834206FF378
:10BC1000451312F004023370DBB26DD162F3861368
:10BC200033702846FEF76CFB3378002800F08580DF
:10BC300043F080035149337091F89D21337A002AF3
:10BC400075D1012262F30103337291F8A03173724E
:10BC500095F8263073706B8D73802B8DB38095F8BB
:10BC60002C30B3712846FEF74BFB002869D0434BBC
:10BC700093F8A131F37195F8353013B195F8383058
:10BC8000F3712068FEF72CFB002862D02068FEF7D5
:10BC900037FB94F8C910002858D0A1EB0801C9B2AD
:10BCA0002046FEF709FE002002B0BDE8F087012320
:10BCB0002EE7B94664E71F46994661E74FF03E0A12
:10BCC0007CE795F82E30083384F8C9302B6B083B9D
:10BCD000C4F8A8308146804688E72B49022262F3E7
:10BCE00083033370B1F8F6300133A1F8F630442005
:10BCF000F43137F087FA87E743F04003337094F864
:10BD0000D930012262F3030384F8D9302846FEF7C4
:10BD1000F7FA94F8D93038B1184A92F8A22162F3B0
:10BD2000071384F8D9307CE7154A5278F7E70221E7
:10BD300061F30103337272728AE760F3C7133370E1
:10BD400086E7114A137C591C117493E795F82E80ED
:10BD5000A3E70DF107015C2033F05CFD9DF807308F
:10BD600023B11FB14846FEF797FD9CE704F1180088
:10BD7000FEF758FE97E700BF99A80001C0330020E6
:10BD8000282B0020642D0020A8FF0020024BD3F8B0
:10BD90009411086894E600BFC033002010B528480D
:10BDA0003CF008F8044610B190F860302BB9254BF0
:10BDB00044F261521A803CF043FF606E04F048FE8A
:10BDC000F8B10388A380012384F85F301E4B236100
:10BDD00094F85D101D4B94F860200B4404F10800AA
:10BDE0009B7C13F0600318BF112313442373FBF7EC
:10BDF000D5FC174B9B6F13B30320BDE81040FEF733
:10BE0000EFBCA36D73B9626E032384F84A301368E4
:10BE1000E364536823650F4BA36504F1440004F009
:10BE200009FEE6E7E36E2BB9064B44F26D521A8029
:10BE30003CF006FFE36EEC2120469847D9E710BDA1
:10BE400020000120642D002001E40001282B0020A7
:10BE5000A8FF0020CDA9000110B5044A817001237C
:10BE60000370137C43705C1C147410BDA8FF002089
:10BE7000436970B5D3F8904005462CB9114B44F294
:10BE800034621A803CF0DCFE0521204695F89D6066
:10BE9000FFF7E2FF2A46E67052F8803F636053687E
:10BEA000A3609368E360D3682361284650F8083D97
:10BEB00063614368A36126F005FD0368E36143689D
:10BEC000236270BD642D002038B54369D3F89040DB
:10BED00005462CB9084B44F281521A803CF0B0FE62
:10BEE00007212046FFF7B8FFAB6FC4F80330EB6FB4
:10BEF000C4F8073038BD00BF642D002038B5436951
:10BF0000D3F8904005462CB9064B44F291521A8062
:10BF10003CF096FE09212046FFF79EFF95F8783009
:10BF2000E37038BD642D002038B54369D3F89040E4
:10BF300005462CB90B4B44F271521A803CF080FE3E
:10BF400006212046FFF788FFAB6FC4F80330EB6F84
:10BF5000C4F80730B5F88430A4F80B3095F8863073
:10BF6000637338BD642D002038B54369D3F8905011
:10BF700004462DB9134B44F2F1521A803CF060FE96
:10BF800008212846FFF768FF94F88430EB70022BF5
:10BF900005D1224652F88C3F6B605368AB60052395
:10BFA000094823670023A4F87430D0F8A83013B9E7
:10BFB000AC3035F049F8211F0448BDE838403BF06B
:10BFC000D5BE00BF642D0020A8FF00205000012036
:10BFD00038B54369D3F8905004462DB91A4B44F252
:10BFE00051621A803CF02CFE0F212846FFF734FFE7
:10BFF00094F8A430EB7026F065FC03686B6043682E
:10C00000AB602246114852F8A53FEB6053682B61A4
:10C0100093686B61D368AB61D4F898304FF47A724F
:10C02000B3FBF2F323674FF00003A4F89530D0F888
:10C03000903013B9943035F007F8211F0448BDE85B
:10C0400038403BF093BE00BF642D0020A8FF0020C5
:10C050003800012038B54369D3F8905004462DB913
:10C06000134B44F261621A803CF0EAFD284610212D
:10C07000FFF7F2FE94F87D30EB7094F87C302B7172
:10C0800022460C4852F8743FC5F805305368C5F88D
:10C0900009304FF4A0532367D0F8C03013B9C4302F
:10C0A00034F0D2FF211F0448BDE838403BF05EBEAB
:10C0B000642D0020A8FF00206800012038B5044648
:10C0C00028B91A4B44F224621A803CF0B9FD656924
:10C0D00095F8B1300B33DBB2412B85F8B13007D086
:10C0E000124B44F225621A80BDE838403CF096BD00
:10C0F000D5F89010362201F10B003DF049FED5F83D
:10C1000090500E212846FFF7A7FEEA7A616E2B4673
:10C110006FF3451203F8032B0A68C5F803204A6839
:10C120005A602046BDE83840FEF7F4BC642D00207C
:10C13000436970B5D3F8904005462CB9104B44F2D2
:10C1400014621A803CF07CFD0521204695F89D6024
:10C15000FFF782FE2A46E67052F8813F636053681B
:10C16000A3609368E360D36823612A4652F8783F5E
:10C1700063615368A36195F88030237770BD00BF79
:10C18000642D002070B504460D4619B1B1F1E905E2
:10C1900018BF01250F4E211F06F1C0003BF010FE15
:10C1A000D6F8C0301BB906F1C40034F077FFD4F8DC
:10C1B000803084F87E502BB9074B44F264621A80B9
:10C1C0003CF03EFDD4F8803004F17E00BDE87040C4
:10C1D000184700BFA8FF0020642D00202DE9F84F6C
:10C1E0009946204B1C7D9E6904EB84040D469046C5
:10C1F00006EBC4040746D8B1864205D91A4B44F26F
:10C2000023421A803CF01CFD2837BE1B2822B6FBB7
:10C21000F2F302FB13662EB1134B44F224421A8050
:10C220003CF00EFDA74205D300273846BDE8F88F45
:10C230003746F7E797F82010A42901D0AA290FD193
:10C240003B7A43450CD17B89AB4209D1D7E900AB9E
:10C25000D9E900239B4508BF924501D1A429E4D028
:10C260002837DFE7A8FF0020642D002070B50546C1
:10C270000E4626F027FB044638B90A4B44F2124218
:10C280001A803CF0CBFC204670BD0020234632468D
:10C290002946FFF7A3FF0028F6D0037B012BF5D139
:10C2A0001846F1E7642D00202DE9F0470F460446BB
:10C2B00026F008FBBD68814604B130BB264B44F232
:10C2C00014421A803CF0AAFCA8263046BDE8F0874C
:10C2D0002B7BBD60032B10D105F1100004F0B8FBDF
:10C2E000A92698B12B7E84F826300388E38339464B
:10C2F0002046BDE8F047FFF7E3BB2B8AE3833946CE
:10C300002046BDE8F047FFF761BBA82628464B460C
:10C3100094F82C20618DFFF761FF05460028D4D0EA
:10C32000A369002BD4D195F80CA0BAF1030FCFD19B
:10C3300005F11008404604F08BFB06460028C7D1E3
:10C3400084F80AA02B69E3606B692361034BA36146
:10C35000201D04F06FFBB8E7642D002061C30001CD
:10C36000F8B5174E3278B568A0F114070024A24240
:10C3700007D1144B44F215421A80BDE8F8403CF056
:10C380005FBC95F8D830DB0716D52B68BB4213D1BC
:10C3900029463846FFF788FF014648B10022384653
:10C3A000FEF742FA2846FDF733FF0120FEF718FAA0
:10C3B0003378A342DDD9F8BD0134E4B2E835D6E7DD
:10C3C000C0330020642D002038B50C46054600B16E
:10C3D00029B90A4B44F213421A803CF031FC002385
:10C3E000AB612846A3602146FFF75EFF054610B10A
:10C3F0002046FDF70DFF284638BD00BF642D002004
:10C40000F8B5046806460F4615462CB92D4B44F284
:10C410004F421A803CF014FCADB9CE2F38D007F053
:10C42000DF03D02B34D0D12F03D194F93430002B3B
:10C430002EDB2046FDF754FFA8B90225D6F8BC3004
:10C44000636484F84070022D24D0032D2CD0012D7C
:10C4500036D106F10C011C483BF088FC0220BDE8F7
:10C46000F840FEF7BDB994F834309A06E5D4FBF7EE
:10C47000D5FC18B194F834309B07DED42046FDF784
:10C480003FFF0028D9D1237F012BD6D00125D5E746
:10C490000325D3E733681B7F33B9A36131462046B8
:10C4A000FFF702FFA8280BD104F1440294F84010D2
:10C4B0003068FEF7B9F93046FDF7AAFE0120CEE755
:10C4C000F8BD00BF642D00201800012038B50478A5
:10C4D0005CB9064D022085F86440FEF781F92146DB
:10C4E000286E0222BDE838408AE738BDA8FF002048
:10C4F00073B50446FDF751FEF8B10DF107015C205C
:10C5000033F088F99DF8071021B92046FEF710F99D
:10C51000002838D114B194F820302BB11F4B44F2CD
:10C5200020421A803CF08CFB1D4B197D9A69002338
:10C530008B4204D1AE2384F8203002B070BD154682
:10C54000283212F8080CA8280ED1A42685F82060FD
:10C550006CB9124B44F227421A803CF05FFB002179
:10C56000102036F04FFEE8E70133DBB2E0E794F845
:10C570002030002BEDD12822214628463EF06CF8D1
:10C5800085F82060EBE7A6212046FEF7D1F80028C9
:10C59000D3D0A42380F82030E1E700BF642D002031
:10C5A000A8FF002010B5044650B1104A9369834299
:10C5B00006D8127D02EB820203EBC203984205D338
:10C5C0000B4B44F221421A803CF03AFB94F82030A5
:10C5D000A42B07D0AA2B05D0054B44F222421A8087
:10C5E0003CF02EFBA82384F8203010BDA8FF0020CB
:10C5F000642D002010B50446FDF7CFFD60B1A421E5
:10C600002046FEF795F838B1FFF7CCFF0021102047
:10C61000BDE8104036F0F6BD10BDF0B50C4A936988
:10C62000127D02EB820203EBC202AA21934200D3E5
:10C63000F0BD93F82040A42C08D1D0E90067D3E9DD
:10C640000445AF4204BFA64283F820102833EDE72B
:10C65000A8FF0020F0B50D4A9369127D02EB82021B
:10C6600003EBC202A421934200D3F0BD93F8204013
:10C67000AA2C08D1D0E90067D3E90445AF4204BF32
:10C68000A64283F820102833EDE700BFA8FF002062
:10C690000B4A50B12830137D926903EB830302EB00
:10C6A000C303834203D8002070479069F3E790F8F2
:10C6B0002020A42AF8D0AA2AF6D02830F1E700BF1B
:10C6C000A8FF0020D2E510B50146044604483BF01F
:10C6D0004DFB0023A3610120BDE81040FEF780B8A8
:10C6E0003400012010B50146044605483BF03EFBEE
:10C6F0000023A3610120BDE81040FEF771B800BF20
:10C7000030000120F8B5846A25780F466906064690
:10C7100001D40020F8BD4F4B05F00305012D197819
:10C720009A6818BF07250023994245D10220FDF7DA
:10C730007BFE0028EDD0D0F8A830328C03F8497C7D
:10C7400043F8466C0021A0F8C420434AA0F8CA1060
:10C75000C0F8B020414AC0F8CC2094F800E01A7824
:10C7600080F8D0104FF0020CCEF3810E6CF3010272
:10C770006EF3830294F800E080F8C8C04FEADE1E32
:10C7800002F09F026EF3C7121A70227802F0030EB5
:10C79000BEF1010F25D1B26A525D5A701A7842F08B
:10C7A00010021A7080F8C9C0AF2F4FD090F8C9108E
:10C7B000FEF782F80120ADE792F8D80005280CD1E9
:10C7C000B6F820C0B2F8C400844506D1D2F8A8005B
:10C7D00014F805C0405D84459BD00133DBB2E832DC
:10C7E000A2E74FF0080C80F8C9C093F800C0B66A01
:10C7F00061F3041C83F800C094F806C083F801C0FC
:10C80000B4F802C0A3F802C0B4F804C0A3F804C08E
:10C8100094F801C083F806C0755DDD711206C3D5BA
:10C82000227A12F0030204D11A72092380F8C93067
:10C83000BAE70B2280F8C920247A1A7AC4F30104DB
:10C8400064F3010261F387021A72ADE71830FEF754
:10C85000E9F8AFE7C033002099A800010101000109
:10C8600030B5374B89B005A940F2071093F8324034
:10C8700032F0D0FF06A9342032F0CCFF069B9C4258
:10C8800005D35B0006A93420069332F0EFFF2D4B51
:10C890009DF81420F534DC605443069A04EB4404FC
:10C8A0001444C3F8F0400DF11501012340F20710C4
:10C8B0008DF8163032F0AEFF0DF11601282032F05F
:10C8C000A9FF9DF815004000FF2828BFFF20C0B237
:10C8D000FDF73DFD9DF816407CB30023013C00F2BE
:10C8E000FF1214F0FF0413444FEA4000F6D1C3F3E3
:10C8F0000805003518BF01250DF1170140F2111090
:10C9000005EB53258DF8164007948DF8174032F04B
:10C9100081FF07A94FF4027032F062FFFF2D28BF9C
:10C92000FF250123EDB20193029400955B029DF86F
:10C9300017200799044837F0BFFD09B030BD00BF8C
:10C94000D02B0020A8FF0020A000012038B51F4CEC
:10C9500020B13DF0F5FE0023207463770025C4E983
:10C96000225525621A4C6423C4F88831194BC4F847
:10C970009031012384F88C312946C4F87551A4F80C
:10C980007951C4E95A55A4F8705184F87251E822DB
:10C9900004F120003DF028FF2946602204F5847050
:10C9A0003DF022FF94F8743194F87321A06903FBE1
:10C9B00002222946D2B23DF017FF04F5A973C4F84C
:10C9C000C830BDE83840FFF74BBF00BFA8FF0020CC
:10C9D000C03300208DBD000138B5364DEC6F2CB949
:10C9E000354B44F264421A803CF02AF923798A2BB1
:10C9F00016D0C52B3DD0192B53D1B5F88030B3F5E7
:10CA0000887F0CBF4FF400734FF4E063A5F88030CB
:10CA10002A4BE36004F10800BDE83840FAF720BF74
:10CA2000B5F8803040F23232934202D0B3F5C26F93
:10CA30001DD140F23F43A5F88030FFF711FF0023DE
:10CA400023731F483BF0B6F9A3682BB91A4B44F285
:10CA50006A421A803CF0F4F8A36804F10C0098478D
:10CA6000EB6F33B30020BDE83840FDF7B9BEA32318
:10CA7000E6E7B5F8802040F23F439A420BD1C1333C
:10CA8000A5F88030022323810E483CF0C1FF00232B
:10CA90006B770120E7E72046A321BDE83840FEF789
:10CAA0003DBD054B44F265421A80BDE838403CF07C
:10CAB000C7B838BDA8FF0020642D002009EB000195
:10CAC000240001208000012030B5826887B0034631
:10CAD0004020B2F80120ADF80C004FF6FF7501A818
:10CAE0000490A9424FF0010094B2059003D11204C2
:10CAF00003D407B030BD8C42FBD0ADF808101E2027
:10CB000003A9019336F07EFB0598B0FA80F0400946
:10CB1000EFE7014601483BF053B900BF3400012064
:10CB200018B9034BD3F80C0170470068704700BF79
:10CB3000A8FF002008B502460020FFF7F1FF18B15A
:10CB400083681B789342F8D108BD38B50446C0B15C
:10CB5000A62303748368A3B11878F22803D0431E78
:10CB6000DBB2EF2B0DD8FFF7E5FF054648B9E368C8
:10CB70000448B3FA83F35B09237121463BF0F6F8CE
:10CB8000257438BDB400012010B5044648B10078C2
:10CB9000FFF7D0FF014628B103483BF011F900230D
:10CBA000637010BDA623FBE7B400012008B5024660
:10CBB0000020FFF7B5FF40B1FF2A01D10171F8E76E
:10CBC00083681B789342F4D1017108BD2DE9F041CF
:10CBD000054628B91A4B44F230421A803CF030F82E
:10CBE000174F002444F231482046FFF799FF0446CE
:10CBF00008B9BDE8F0812379002BF5D1A3681BB9F2
:10CC0000A7F800803CF01CF8A98B2046FFF75CFFDA
:10CC10000028E9D0A368E8881E783146F7F734FB8E
:10CC20000028E1D0AE73E3683BB9054B44F23242D1
:10CC3000BDE8F0411A803BF0F1BF28469847D3E7A2
:10CC4000642D00202DE9F043866A8FB004460F461C
:10CC50000025018CF2796A488DF8035037F06EFC9C
:10CC600000286ED07078431EDBB2FD2B04D8FFF78E
:10CC700061FF0546002864D0237F012B67D18DF822
:10CC80000830E38BADF80A3073788DF81230022348
:10CC90008DF81330238CADF81430638CADF81C3054
:10CCA000B3798DF81E307279337943EA0223ADF8F7
:10CCB0002030F278B37843EA022394F82420ADF8C8
:10CCC000223093B2A3F10A01ADF8241000218DF8AF
:10CCD0002C1096F9001000294CDB083BADF82430ED
:10CCE000BDF824308DF82D70D21AA36A1A4494F836
:10CCF00034308DF82E3094F82C308DF82F30236B93
:10CD00000C93002994F82D300A928DF8343013DA00
:10CD1000337A03F00303022B0ED13A4FFB691A78E2
:10CD2000ADF8242093F800904FF0010897F8753182
:10CD3000434524DCBB690A93002D38D0EB6801A879
:10CD400098472046FDF7B6FC0FB0BDE8F0830223FC
:10CD50008DF80830E38BADF80A304FF6F772934246
:10CD600092D801230DF103014D208DF8033036F0E8
:10CD700049FA89E7307A8007B2D1093BAEE7D7E9B3
:10CD8000060397F8741113F8082008FB01014844C2
:10CD90003DF062FCFB69BDF82410434408F1010832
:10CDA0001A780A44ADF824201B789944BEE7237F03
:10CDB000012B03D101A8FFF709FFC2E77378FF2B0E
:10CDC0001AD12846FFF7ACFE05460028B9D0AB685B
:10CDD0001B78002BF5D02B79002BF2D1BDF8201059
:10CDE000FFF772FE0028ECD0AB681B788DF812308C
:10CDF000EB6801A89847E4E701A805F0A4FEA0E7C6
:10CE0000A0000120C03300202DE9F74F846A0746B7
:10CE10006078431EDBB2FD2B884618D8FFF78AFEE8
:10CE2000054618B1A188FFF74FFE88B9002594F98F
:10CE30000030002B80F2A081237A980700F09C81BB
:10CE4000C74C94F87331002B3AD101201CE0002527
:10CE500023781A0602D5227A9607E7D113F0400FFD
:10CE600003F00C0313D0082B28D0398C4FF6F7723F
:10CE7000914223D80DB12A7902BB41463846FFF7CB
:10CE800041FC80F00100C0B203B0BDE8F08F012585
:10CE9000082BCCD1FA8B4FF6F7739A42C7D93E8C48
:10CEA000F7F734F88642C2D0AE49B1F8F430013316
:10CEB00021F8F43F442036F0A5F9B8E70025E7E76C
:10CEC00097F82490BE6A94F872A1757AA9F10A09BC
:10CED0005FFA89F9BAF1030F00F24A81DFE81AF02C
:10CEE00004004F00390139015C200DF1070132F0D7
:10CEF00091FC9DF8070048B19B4A92F82930D90768
:10CF000004D523F0010382F82930BDE796F808B074
:10CF1000BBF1010F99D194F87321954295D894F8FB
:10CF20007431994591D802FB03220021A0693DF09C
:10CF30005BFC84F8755184F872B13B8C84F87B817A
:10CF4000A4F86C31737884F87831F278B37843EAD6
:10CF50000223A4F86E313379727943EA0223A4F8EC
:10CF60007031B37984F87931F37984F87A317E4B72
:10CF70005B7884F87C31002384F8763155465C2058
:10CF80000DF1070132F046FC9DF8070070B17649BB
:10CF900091F8293023FA05F2D20707D5012202FAC7
:10CFA00005F523EA050381F829306DE7337A03F0AC
:10CFB0000302022A02D0002D7FF447AF13F0FC0FCA
:10CFC0007FF443AF94F87531AB42FFF43EAFB4F851
:10CFD0006C213B8C9A427FF438AF94F878217378B7
:10CFE0009A427FF432AFB4F86E2173889A427FF48C
:10CFF0002CAFB4F87021B3889A427FF426AF94F82E
:10D000007921B3799A427FF420AF94F87A21F379A9
:10D010009A427FF41AAF544E94F8761196F827206E
:10D020008B189D42BFF611AFB5FBF2F38D4202FBA8
:10D030001353DBB208D2E91A84F876114FF0FF31AE
:10D0400001FA02F284F87721A26994F8741101FBC5
:10D050000521BA6A02F10A00002291453AD1E2693B
:10D0600002F8059094F876118D420ED194F875214E
:10D0700096F82700521BD2B2824228BF02464FF0D8
:10D08000FF3000FA02F284F8772101229A4094F8E6
:10D0900077311343DBB2FF2B84F877310AD194F850
:10D0A000755196F827006A1A4D1E8242D4BFAD18FA
:10D0B0002D18EDB294F87521013A954214D1FF2B49
:10D0C0000ED10320FDF7B6FC38464146FFF7BAFD06
:10D0D0000020D9E610F802C001F802C00132BCE716
:10D0E0000220FDF7A7FCB0E696F82720013A11448C
:10D0F0008D4201D0FF2B1DD10220FDF79BFC94F83F
:10D100007731FF2B7FF4A1AE96F8273094F8762183
:10D110001A4484F8762194F87521013A551BEDB232
:10D12000AB4228BF2B46012000FA03F35B4284F890
:10D130007731A9E60B4BD3F8F030642101FB0232C2
:10D1400073785A43C4F8682101210020FEF708FBD8
:10D150007BE6064B44F240421A803BF071FD74E6D8
:10D16000C0330020A8FF0020282B0020642D0020C1
:10D17000034B44F25342EFE7002D3FF466AEA3E7C2
:10D18000642D0020012111E500210FE510B50446B2
:10D1900028B90E4B44F270421A803BF051FDA17841
:10D1A0004B1EDBB2FD2B07D9084B44F27042BDE8A1
:10D1B00010401A803BF032BD2088F6F7EFFF10B127
:10D1C0000023E37010BDAE23FBE700BF642D0020F9
:10D1D00010B5044628B90E4B44F271421A803BF058
:10D1E0002FFDA1784B1EDBB2FD2B07D9084B44F273
:10D1F0007142BDE810401A803BF010BD2088F6F760
:10D20000F1FF10B10023E37010BDA623FBE700BFC0
:10D21000642D002010B5044628B90D4B44F272422B
:10D220001A803BF00DFD2078431EDBB2FD2B07D9A1
:10D23000074B44F27242BDE810401A803BF0EEBC4E
:10D24000F6F7FAFF10B10023637010BDA623FBE7C9
:10D25000642D002073B5044638B93E4B44F2405269
:10D260001A803BF0DBFC02B070BD90F849205D2ACB
:10D2700003D9384B44F24152F2E790F84830002687
:10D280000321012B80F82A6001774AD102206077C0
:10D290004FF6FF7020840E4694F84B10A56BC9071B
:10D2A00042BF94F82A1041F0080184F82A10012B9B
:10D2B0000CBF09230723ED1AB4F8421021831A4446
:10D2C00084F828202B78656143F003032B700DF15F
:10D2D00007011B2032F09EFA2B789DF8072062F39D
:10D2E00084032B702B8803F01F032B8094F84830A5
:10D2F000B600012B46F00306AE7013BF6569238E9E
:10D30000A5F80330023DB4F84630A5F80530B4F86E
:10D310004430A5F80730104B236120462AF0BDFCAD
:10D32000A1E7D0E90C01032BC4E9080104D163771C
:10D33000012184F82A10AFE7022B03D0054B44F2F9
:10D3400042528DE7208E63774FF6FF718842EFD10E
:10D350001E46A1E7642D002079A5000130B58FB0ED
:10D3600038B93C4B44F245521A803BF057FC0FB0A1
:10D3700030BD0378032BFAD14388ADF80830D0E9EB
:10D380000223CDE90423037C8DF81830438AADF8DD
:10D390001A30D0E9062390F82050CDE9082390F800
