:020000040000fa
:10000000f8fb0120a5200000bb2a0000372d0000ce
:10001000572f0000ab30000013310000000000003b
:100020000000000000000000000000003b2800006d
:100030000f2e0000000000003b2800003b280000bd
:100040003b2800003b2800003b28000069350000e9
:100050003b2800003b2800003b2800003b28000014
:100060003b2800003b2800003b2800003b28000004
:10007000b52900003b2800003b2800003b28000079
:100080003b2800003b2800003b2800008d32000088
:100090003b2800003b280000d55d00003b28000005
:1000a0003b2800003b2800003b2800003b280000c4
:1000b0003b2800003b2800003b2800003b280000b4
:1000c0003b2800003b2800003b2800003b280000a4
:1000d0003b2800003b2800003b2800003b28000094
:020000040000fa
:10010000f8b500bff8bc08bc9e467047bd2e000085
:10011000f8b500bff8bc08bc9e467047992e000099
:020000040000fa
:080120001807000001000000b7
:020000040000fa
:100128002de9f84f0746884642f2107241f2100155
:10013800984802f0bffc002800f08c8103f004fa14
:10014800944b1c68944b1c60250cabb2934a1380eb
:10015800a6b25680043b0e2b00f26e81dfe813f046
:1001680054001f0026017d016c016c0184016c01a3
:100178006c016c016c016c016c0187000f0002f0ce
:10018800ddff0020854b1d88072d00f067810a2db3
:1001980000f06b812d04042828bf02206fe17d4bfd
:1001a800d3f804907d4bc3f8049043463a46494639
:1001b800484602f091ff0746002800f05e81a4b28d
:1001c800038803fb04944368426913449c4280f00b
:1001d80054818369002b00f078811a68002a00f0a6
:1001e80066819047b86a49ea0009f86a09ea000096
:1001f800bb69002b00f02281db68002b00f0208116
:100208003146984780b2bde7624b5868634b5860e7
:1002180043463a46014602f05fff0446002800f0d4
:100228002c8142690088b2fbf0f66368b1b200fb2a
:1002380001311a44914200f22081a269002a00f09b
:1002480044811168002900f0268188476068a36a04
:100258001843e36a1840a369002b00f0f380db68b9
:10026800002b00f0f180b1b2984780b28ae7494b81
:10027800d3f804a0494ac2f804a0d3f80890c2f8f9
:100288000890dc68d4601033136143463a460aeba1
:100298000901504602f020ff0746002800f0ed80d3
:1002a800836a4aea030ac36a0aea030a83696bb1e2
:1002b8001a6812b19047bb6943b15b6833b14a46cb
:1002c800514637489847002840f0c080012e07d093
:1002d800022e32d00025ac4214bf0220002051e784
:1002e8005646bb694bb1d3f80880b9f1000f4fd01f
:1002f8000025dff8b4a02b4f05e04ff00008f4e725
:10030800b9f1000fe7d0daf800204a4528bf4a467d
:10031800934643463946304602f0caff5e44a9eb8d
:100328000b09bbf1000febd00beb07023b4613f8b0
:10033800011b0d449a42fad1e2e75646bb6923b342
:10034800d3f808804ff6ff7002f0defbb9f1000f1a
:1003580017d0dff854a0134fdaf800504d4528bfe6
:100368004d4643462a463946304602f0a1ff2e4400
:10037800a9eb05092946384602f026feb9f1000f17
:10038800ead103f04bfa0546a5e74ff00008d9e794
:100398004d46a0e7a04700207cff0120ecff01208c
:1003a800b047002000000020ec5a0020494a50685d
:1003b800494b58609168996043463a46014402f0b7
:1003c8008bfe0746002858d0836913b11b6803b118
:1003d8009847414b5e68ba6a1643fa6a1640d3f8e2
:1003e80008803c6bb8f1000f32d0dff8f4a04ff072
:1003f800000bdff8f090daf80050454528bf454675
:10040800bb6993b19b682a464946304602f050ffc3
:100418002e4425f0030149444b468b4207d053f83c
:10042800042b9442f9d00220ace65b46ebe7b8eb2c
:100438000508e0d10020a5e60320a3e60020a1e6f8
:1004480000209fe600209de600209be6022099e61a
:10045800002097e64ff0ff301be0012040f4e02039
:100468001e4b186004210ee0002040f420201b4b96
:10047800186000225a60082105e02d040220284354
:10048800164b18600421154803f003fa03f05cf8d2
:100498000020bde8f88fa06a0343e06a1840d368db
:1004a800002b7ff4e0ae0c4b1d88002072e6826ab8
:1004b80049ea0209c06a09ea0000db68002b7ff4f8
:1004c8009fae054b1d88002064e6034b1d88002065
:1004d80060e600bfa0470020ecff0120905a0020f2
:0804e800ec5a00200000002086
:020000040000fa
:1004f0002de9f04fadf27c4d0d46cb691b691c68b0
:10050000c54e304603f0c4f9eb691b691022d96867
:10051000304600f0b5fce4b2231d194602930027d3
:100520000097234606f108028946bc4802f06afba0
:10053000bb4e264404f10c023946304603f046f91e
:1005400006eb040808f10c0b44223946584603f028
:100550003df94fea490a5246394608f1500003f086
:1005600035f930223946af4803f030f9dff8c08260
:10057000d8f800304ff480725a80d8f800301a79d9
:1005800002f0fe0267f3c3021a71a7b29f824ff412
:1005900080521a8207eb020909f10409a3f81290ac
:1005a00007f608025600de8206f144029a835022c2
:1005b0001a70d8f800004cf2010303819a4b984757
:1005c000d8f800301b8923b118460df27c4dbde8e8
:1005d000f08f30220021934803f0f8f88e4803f0a2
:1005e00057f9eb691b691022d9698b4800f048fc68
:1005f0000beb04030c33aaf1080a05930aeb030181
:10060000069101f10803039303eb040a0af1040abb
:100610004ff00008cdf800802346844a02995046e6
:1006200002f0f0fa7c4803f033f9eb691b69102201
:10063000196a794800f024fca2440af1040acdf8b2
:1006400000802346794a0299504602f0dbfa4ff0c7
:10065000010c8df877c4a2440af1040acdf8008099
:1006600001230df277420299504602f0cbfa6a4814
:1006700003f00ef9eb691b6910229969664800f0d6
:10068000fffbcdf800802346684a0299584602f0e5
:10069000b9fa614803f0fcf8eb691b69102219698b
:1006a0005d4800f0edfba2440af1040a0aeb040bda
:1006b0000bf1040b0beb0403043304931819011d15
:1006c0000846cdf800802346584a0299079002f068
:1006d00099faea699369cdf800809b00203202996b
:1006e000504602f08ffaea69d2f84032cdf8008025
:1006f0009b0002f51272ddf808a05146584602f040
:1007000081faea69d2f86834cdf800809b0002f5de
:100710008e625146049802f075fa6b694ff0010c35
:10072000cdf800c0a34228bf23462a69514603984a
:1007300002f068fa0df5137c604603f0a9f80df19c
:10074000240c604603f0a4f809ab93aae968a868f2
:1007500001f030fd034600287ff436af939bcdf8bf
:1007600000809b0095aa5146059802f04bfa099b20
:100770000698001bcdf800809b000baa5146043060
:1007800002f040fae200079820442c32414604303f
:1007900003f01cf8264c2368a3f8028022685784d3
:1007a0004ff480539382a2f8169007f2044007ebaf
:1007b00080003b1803f118011182568207eb4701b4
:1007c0000b449bb2194489b201f1300ca2f81cc051
:1007d0002433138397841430d08307f10c033344fc
:1007e000538334370f4417845523137020684cf219
:1007f000010303810f4b98472368188920b9ab691f
:1008000001221a600346dfe648f202039842f9d15a
:10081000ab6900221a60f5e700fc0120001001021c
:100820000410010288fe01200900000208fc0120da
:08083000b8fe01202d000002ba
:020000040000fa
:100838002de9f04f099f154604468e461e46002bab
:1008480040f0cc808a42b2fa82fc4cd9bcf1000f4d
:100858000bd0ccf1200801fa0cfe20fa08f802fab5
:100868000cf548ea0e0e00fa0cf44fea15491ffa87
:1008780085f8befbf9fa210c09fb1ae30afb08fb11
:1008880041ea03439b452ad9eb180af1ff3004d209
:100898009b4502d9aaf102002b44a3eb0b03a4b297
:1008a800b3fbf9f209fb123302fb08f844ea0344ec
:1008b800a04516d92c1902f1ff3303d2a04501d95e
:1008c800931e2c44a4eb080443ea004027b124fa01
:1008d8000cf400233c607b603146bde8f08f504645
:1008e800dbe71346eee702b9ffdebcf1000f2ed1bd
:1008f8008b1a01264fea154eaab2b3fbfef8210c5b
:100908000efb183308fb02f941ea0343994561d904
:10091800eb1808f1ff3004d2994502d9a8f102007a
:100928002b44a3eb0903a4b2b3fbfef10efb113376
:100938004a4344ea0344a2424ed92c1901f1ff3339
:1009480003d2a24201d98b1e2c44a41abce7ccf1d5
:10095800200e02fa0cf521fa0ef901fa0cf320fa2e
:100968000efe4eea03034fea154800fa0cf4b9fbf1
:10097800f8f11ffa85fe08fb1192180c01fb0ef620
:1009880040ea0242964221d9aa1801f1ff3003d267
:10099800964201d9881e2a44921b9bb2b2fbf8f9f1
:1009a80008fb192209fb0efe43ea02439e450fd9b4
:1009b800eb1809f1ff3604d29e4502d9a9f10206c7
:1009c8002b44a3eb0e0346ea004693e70846e3e709
:1009d8004e46f6e74046a4e70b46b6e78b4206d9f3
:1009e800002f7ed00026c7e90001304674e7b3fa2d
:1009f80083fcbcf1000f0fd18b4201d3824209d88e
:100a0800841a61eb030e0120002f6dd0c7e9004e58
:100a1800002661e76046f7e7ccf1200e03fa0cf3f5
:100a280022fa0ef521fa0ef41d4301fa0cf320fa0e
:100a38000ef10b434fea154a00fa0cf6b4fbfaf92b
:100a48001ffa85f80afb19401c0c09fb08f144ea57
:100a58000044a14202fa0cf23fd92c1909f1ff30e7
:100a680004d2a14202d9a9f102002c44641a9bb213
:100a7800b4fbfaf90afb194409fb08f843ea0441f4
:100a880088452cd9691809f1ff3304d2884502d961
:100a9800a9f10203294443ea0040a1eb0801a0fba5
:100aa80002894945c2464c4602d306d1464504d27e
:100ab800b8eb020a69eb05040138afb1b6eb0a03db
:100ac80061eb040606fa0efe23fa0cf34eea030362
:100ad80026fa0cf6c7e900369ae74846c6e74b46b9
:0c0ae800d9e73e463846f7e63e46f5e604
:020000040000fa
:100af400d0ff01201c00000000000000bdfe01200a
:100b04000100000000000000ecff012014000000c0
:100b1400000000007cff0120040000000000000031
:100b2400a04700201010000000000000905a002090
:100b34001800000000000000b05700200002000070
:100b44000000000000000020a01f000000000000c2
:100b5400ec5a002004000000010000000010000016
:100b6400befe0120020000000000000074ff01200e
:100b74000800000000000000a01f00200014000076
:100b840000000000a033002000140000000000005a
:100b940090ff01204000000000000000a85a00203f
:100ba4000800000000000000505a0020400000002f
:100bb40000000000b0590020a00000000000000068
:100bc400cc5a00202000000001000000064a1368ef
:100bd40023f49f7323f0010343f0110313600923eb
:100be40000bf013bfcd1704700240144b85a0020e7
:100bf400040000000000000088fe01203000000016
:100c040000000000bcfe0120010000000000000004
:100c1400b8fe01200400000000000000c0fe012016
:100c2400400000000000000000ff01202000000040
:100c34000000000080ff0120100000000000000000
:100c440000fc0120280200000000000028fe012012
:100c54006000000000000000c85a002001000000ed
:100c64000000000020ff012001000000000000003f
:100c740021ff01200100000000000000bc5a0020f8
:100c84000400000000000000b05a0020080000002a
:100c940000000000c05a0020040000000000000012
:100ca40024ff01205000000000000000c45a00206e
:100cb400040000000000000000000000000000002c
:020000040000fa
:100cc400536c6f7430200000536c6f74312000003b
:100cd400c2818fbb2861478ba2533779d463187cb8
:100ce4008b4159a95f0b6b944eb957a103fe20bfea
:100cf4002bb8142a64b5ae4a8380dde6ee2989dd7b
:100d0400a09ac7da82eb5662905d66c5bc303c841b
:100d14004d686561646572207368613235362046ba
:100d240061696c6564210d0a000000004d6865610d
:100d3400646572207368613235362056657269665f
:100d4400696564210d0a00004d657461686561641c
:100d5400657220454344534120566572696669654e
:100d640064210d0a000000004d65746168656164ca
:100d74006572204543445341204661696c65642192
:100d84000d0a0000465720736861323536204661eb
:100d9400696c6564210d0a00465720736861323519
:100da40036205665726966696564210d0a00000083
:100db4004657204543445341205665726966696528
:100dc40064210d0a00000000465720454344534166
:100dd400204661696c6564210d0a0000536c6f74d0
:100de40031204572617365640d0a0000536c6f74a1
:100df40030204572617365640d0a0000536c6f7492
:100e04003120436f7069656420746f20536c6f7474
:100e1400300d0a00436f7079205665726966696502
:100e2400640d0a00436f7079204469666665720d2b
:100e34000a000000496e76616c696420536c6f741b
:100e44003120496d6167650d0a000000496e7661c5
:100e54006c696420536c6f743020496d6167650d53
:100e64000a000000444655204e6f77210d0a000009
:0c0e74004446552045786974210d0a00a1
:020000040000fa
:100e80002de9f84305460c46174602f02bfc102fbf
:100e900014d0b846bb1e3e2b00f29d8023782d2b2c
:100ea00064d04ff000092078002877d12b68002b00
:100eb00000f08680c5f80490002381e023782d2b74
:100ec00006bf013401260026204602f087fc0128d7
:100ed00000f18c80204400210a461ce0a7f1610348
:100ee000dbb2052b71d8a7f15703dbb2202a08bf6c
:100ef000013102f01f0287296adc05eb810e934065
:100f0000def808703b43cef8083004320238031b89
:100f10006046002b11db00f1ff3c10f8017ca7f1cb
:100f20003003dbb2092be1d9a7f14103dbb2052b7a
:100f3000d4d8a7f13703dbb2d8e701312960002903
:100f400051d04a1e4b1c55f8233063b9013105ebd3
:100f5000810300e00246002a43d0501e53f8041dce
:100f60000029f7d02a606e60002329e001344ff099
:100f7000010998e7b74231dd2a464146284600f08c
:100f8000c4fc0346e0b92a463146284602f0a9f9d6
:100f90000346a8b914f8010f002887d0242f02dcdb
:100fa00002f032fcc0b230280dd0124b012613f8eb
:100fb000012f8242ded00136402ef8d14ff0ff33b0
:100fc0001846bde8f8830026d6e74ff0ff33f7e771
:100fd0004ff0ff33f4e74ff0ff33f1e74ff0ff330b
:100fe000eee700232b6000236b60e9e70121296015
:080ff000a7e700bf542e00002a
:020000040000fa
:100ff8004ff08842d2f8003113f4007ffad0002372
:10100800434901334a6a12f0010f11d1b3f5fa5f6f
:10101800f7d13f4b5b6a13f0010f0cd13c4a536880
:1010280043f480735360536a13f0010ffbd002e05e
:10103800b3f5fa5fedd2374ab2f8ba3403f0fd03dc
:10104800a2f8ba340022324901324b6a03f0030392
:10105800032b13d0b2f5fa5ff6d12d4b5b6a03f080
:101068000303032b0dd02a4a536843f400735360db
:10107800536a03f00303032bfad102e0b2f5fa5fd7
:10108800ebd24ff088430022c3f8b020224ac3f8bd
:10109800b02002f12b42a2f54b12a2f6ab42c3f8e4
:1010a800b02003f520631d4a1a624ff480721a605b
:1010b80001229a601a46136813f0010ffbd1184bee
:1010c80048f20902c3f8502140f201221a674ff48e
:1010d80000429a674ff08843124a1a6600221a673c
:1010e8004ff01942c3f880200f4ac3f8c02047f2d6
:1010f800ce42c3f8e0204ff03332c3f8b020044b9f
:101108005a6842f010025a604ff080721a607047b5
:101118000040014100200141556699aa080100c01c
:0c112800000a004400900009cf010120e3
:020000040000fa
:101134001c0000000e00000044500000505000004d
:101144008c500000c85000000451000040510000c1
:101154007c510000e438000005000000d1000000cc
:10116400010000001e00000004000000b85100004f
:10117400c451000004520000445200008452000094
:10118400c452000004530000dc38000008000000d2
:101194000b02000001000000200000000700000016
:1011a400445300005053000094530000d8530000ef
:1011b4001c54000060540000a4540000ec380000eb
:1011c400080000000e0200000100000030000000d2
:1011d4000f000000e8540000f454000058550000cb
:1011e400bc5500002056000084560000e85600005c
:1011f400f438000005000000d200000001000000e7
:1012040042000000100000004c5700005857000036
:10121400dc57000060580000e458000068590000e2
:10122400ec590000fc38000005000000d300000069
:101234000100000000000000ffffffff00000000ad
:10124400000000000000000000000000000000009a
:10125400000000000000000000000000000000008a
:08126400000000000000000082
:020000040000fa
:10126c002de9f04f83b007468b469046d0e91e23fc
:10127c0012eb080043f10001c7e91e0112f03f090f
:10128c0028d0c9f14005454501d9002423e007f1d8
:10129c0018042a46594604eb090002f060fadff8fc
:1012ac00ccc007f1580e664620686168a268e368f6
:1012bc000fc61034b4467445f5d140222b4938463c
:1012cc0000f0a6fc0446ab44a8f14008c8444ff01b
:1012dc00000900e00024b8f13f0f2bd91bf03f0fa1
:1012ec002fd00bf14006a8f140039a0901920bf1a3
:1012fc00800a23f03f039a44a6f14004dff86cc047
:10130c00b646654620686168a268e3680fc510346c
:10131c00ac467445f5d140221449384600f078fcaf
:10132c0040365645e8d10446019b01330beb831b39
:10133c0008f03f08b8f1000f0fd1204603b0bde80c
:10134c00f08f28f03f052a465946384600f060fcdd
:10135c000446ab4408f03f08ece707f1180042469e
:10136c005946484402f0fbf9e7e700bfc0fe0120f4
:020000040000fa
:10137c00f0b5bdb0064630a802f0e8f9309b002b62
:10138c0071d09a6adc6a42f0847727409968b1423e
:10139c000bd29b69db6801213846984700b1fee708
:1013ac000e21324802f0acf95de042f0807214403c
:1013bc001988b6fbf1f295b201fb12620ab1013544
:1013cc00adb29b6933b1db6823b1294620469847ff
:1013dc0000b1fee70e21264802f092f9309b9b6982
:1013ec0043b15b6833b1324621464ff08470984765
:1013fc0000b1fee717211f4802f082f9684602f09f
:10140c0061f932464ff080716846fff729ff28a931
:10141c00684600f0abfd684602f054f932464ff0d6
:10142c0084716846fff71cff20a9684600f09efdfa
:10143c00202220a928a802f077f880b90f210e48a5
:10144c0002f05ef9309b9b69db6829463846984769
:10145c0000b1fee70e21054802f052f903e00d2120
:10146c00064802f04df93db0f0bd00bfe00d0000a4
:10147c00f00d0000000e0000180e0000280e0000f9
:020000040000fa
:10148c0038b54ff088431c6a4ff0847002f042f973
:10149c0030b10546b0f1ff3f49d02846fff768ff51
:1014ac004ff0807002f036f9013810f1030f43d879
:1014bc002a4b013bfdd101f099ff01f037fc274b82
:1014cc00013bfdd172b6264b4ff0ff32c3f88020a2
:1014dc00c3f88420c3f88820c3f88c20c3f890206c
:1014ec00c3f89420c3f89820c3f89c20c3f880213b
:1014fc00c3f88421c3f88821c3f88c21c3f8902148
:10150c00c3f89421c3f89821c3f89c2162b6002338
:10151c0083f31488bff36f8f124b1b6883f3088817
:10152c00114b01221a70114b1b68984738bd1521bd
:10153c000f4802f0e5f8b0e715210e4802f0e0f88c
:10154c00064b013bfdd104f400040b4945f24372f8
:10155c0000e00a80002cfcd1fee700bfffff050075
:10156c0000e100e00002000120ff01200402000164
:0c157c00380e0000500e00000205004474
:020000040000fa
:101588002de9f047002966d00e460024334d344b30
:1015980000f1010c334fa64606e007f801909a6067
:1015a800621c013496424cd96a6802f00702012a8b
:1015b8001cd09968d3f80c804a1cd3f810904a457f
:1015c80028bf002290453dd010f80490d5f804803b
:1015d80008f00708b8f1010fdfd14fea410807f812
:1015e800119008f1010107f801e0d8e7d3f8088065
:1015f800d96808f10102d3f810904a4528bf0022a3
:1016080091421fd01cf8149010f8141041ea0921d7
:10161800d5f8049009f00709b9f1010f05d0c9b24e
:1016280007f808109a60621cbbe74fea48095ffa9e
:1016380081fa07f818a009f10108090a07f8081043
:10164800f0e7144601f098ff10b1044b01229a7597
:101658002046bde8f0870c46f4e700bf000c0040c8
:0816680090ff0120a0330020d7
:020000040000fa
:101670002de9f04f83b00c680368a342b8bf23463e
:101680001468a646882ca8bf4ff0880e1360002b64
:1016900058dd0430043102f104084ff0000a4ff025
:1016a000000b4ff0000c50f8049f51f8044f002538
:1016b00014eb090645f10007cde9006716eb0a06b1
:1016c000019c44eb0b0448f8046f4ff0000ba2465a
:1016d0000cf1010c6345e6d119465aea0b0005d01e
:1016e000882b28d0023342f823404b1c13609e45c0
:1016f0000add981c02eb80001946002440f8044bd8
:1017000001318e45fad1dbb1591e581c52f8200028
:1017100058b9013302eb830300e0214671b14c1e3e
:1017200053f8040d0028f8d011605368536000206e
:1017300003b0bde8f08f4ff0ff30f9e700231360ee
:101740000023f3e7002313609c42c8bf0023d0dcd2
:02175000f6e7ba
:020000040000fa
:021752007047de
:020000040000fa
:10175400f8b5344c656b63689b6998476061606950
:1017640001f048ffd4e90a67321847f10003c4e9dd
:101774000a23002d4cd094f83030013384f83030f3
:1017840001f0f6fc646b2cb1a3681bb9012500279a
:10179400244e11e0244d00242e4627461fe0e06924
:1017a40001f0f6fbe3680bb120699847746b002cd9
:1017b400f0d0a368002bedd125756575a37813b916
:1017c400e368002bebd1204601f096f8a378002bb8
:1017d400e8d16770e6e701342035052c12d006eb1a
:1017e40044135b7d002bf6d006eb44135f75ab7896
:1017f400012bf0d16b6806eb44129360284600f08d
:1018040007fce8e7074a92f83030013b82f83030b1
:1018140002f052f8044600f05bfa204602f050f859
:0c182400f8bd00bf505a0020b059002051
:020000040000fa
:101830002de9f04f80469246d2f800900c6800687f
:101840001060002c49dd08f1040e043102f1040c93
:1018500000231a461d465ef804bfbbeb030662eb8d
:10186000420751f804bfb6eb0b0267f100034cf8d6
:10187000042f03f0010300220135ac42ebd1d8f86c
:101880000010a14214dda51cad0008eb050655446f
:10189000002756f8041bc91a62eb420245f8041be4
:1018a00002f001033a460134d8f80010a142f0dcfe
:1018b000a14508dda31c0aeb8303002243f8042b97
:1018c0000134a145fad1d8b1431e421c5af8222056
:1018d00082b901300aeb800004e000231a461c465e
:1018e000cde70b464bb1591e50f8042d002af8d015
:1018f000caf80030daf8043003e00023caf80030f8
:0a1900000023caf80430bde8f08fa0
:020000040000fa
:10190a002de9f04fd2f80080d0f800a0c2f800a06c
:10191a00d0f804b0c2f804b00368002b54dd00f11b
:10192a00040c131d4ff0000e00240025f14600e0c0
:10193a00b6465cf8046fe1fb06452f4643f8044fb0
:10194a003c464d460ef101060768b742f0dc54ea00
:10195a0005030ad0882f2bd00af1010313600af17c
:10196a00020a42f82a400ef10206b0450cdd872e23
:10197a000adcb31c02eb8303002143f8041b013683
:10198a00b04501d0882ef8d11168b1b14b1e481c60
:10199a0052f8200098b9013102eb810100e0234698
:1019aa004bb15c1e51f8040d0028f8d0136006e014
:1019ba004ff0ff3006e0002313604ff0000bc2f82f
:1019ca0004b00020bde8f08fb8f1000fc8bf0026b0
:0419da00cfdcd9e79e
:020000040000fa
:0219de00704750
:020000040000fa
:1019e000002950d0f8b50e4600284fd1294c0123cc
:1019f00084f838300b686360db689847e06007461e
:101a00000021c300420f1b1a62eb0102550145ea97
:101a1000d3655801181842eb05051f4a0023c01969
:101a200045eb010101f0d6fb0230206296f904304b
:101a30002372002121614ff6ff73a36147f6ff7304
:101a4000e36100220023c4e90a23616384f83010b3
:101a500063681b681148984763681b690bb1208b4a
:101a600098470c4ce06963685b6980b2984763688b
:101a70005b689847a0220021094801f0a7fe0223d5
:101a800023702046f8bd4ff0ff3070474ff0ff3015
:101a9000f8e700bf505a00200090d003551700000f
:041aa000b059002019
:020000040000fa
:101aa400f8b5002855d00546002955d00c682368a0
:101ab40083421cbf002384f82430206094f824302f
:101ac40022ea03061a4384f8242016f0010f0fd1ea
:101ad400002716f0020f13d116f0080f19d116f0d3
:101ae400100f1fd116f0200f24d167bb3846f8bd64
:101af4000123221dc168204601f05af80746e8e791
:101b0400022304f108022969204601f051f8074430
:101b1400e2e7082304f10c02a969204601f048f821
:101b24000744dce71023e218e969204601f040f895
:101b34000744d7e7202304f11402296a204601f060
:101b440037f80744d1e7204600f070f96ff06e07cc
:0e1b5400cce76ff0ac07c9e76ff0ac07c6e74f
:020000040000fa
:021b62007047ca
:020000040000fa
:101b6400f8b52a4e2a4c4ee0226a002a3ad0616a1d
:101b7400236a38469847a36a0133226b934228bfed
:101b840000232fe0a06a4200efb2224901f810704e
:101b94000132c5f307258d5430e001f0fbfc236ac4
:101ba400002b30d0616a94f83c3033b1a36b984277
:101bb40029d3236a0020984725e0a36b984222d1b9
:101bc400236a002098471ee0337e13f0040f1cd0d4
:101bd400b56aa36a0133226b934228bf0023e26ae9
:101be4009a42c1d0e26a9a42eed0726802f00702c9
:101bf400012ac7d0a26aedb206498d54a36294f8b3
:101c04003430002bc9d10127dee7f8bd000c0040b9
:081c140090ff0120a01f002039
:020000040000fa
:101c1c002de9f843054688469146284c0423636019
:101c2c0081609309013b0361254f03463e4653f8ff
:101c3c00080f59689a68db680fc61021384600f007
:101c4c003afc4946404600f036fcbff35f8f2763f1
:101c5c0043f2040323601b4b6363ab6da363eb6d17
:101c6c00e3632b6e23646b6e6364ab6ea364eb6ee9
:101c7c00e3642b6f23656b6f6365012323616360e2
:101c8c002246d36913f00f0ffbd00c4b02225a6083
:101c9c0004225a600b4c20212046fff75cffbff357
:101cac005f8f0fcca865e9652a666b660fcca866ba
:101cbc00e9662a676b670020bde8f883002c0042b8
:081ccc0080ff012000ff012050
:020000040000fa
:101cd4002de9f8432a4b5a6b59691961002a40d0ff
:101ce4009368b3f5004f33d3254b5b6947f6ff7414
:101cf400002514eb030845f10009214e73689b6924
:101d0400984782b200233169814206d94ff6ff71a8
:101d140052184ff0000141eb03031949096a5618a0
:101d240043f10007b94508bfb04524d20a44144b17
:101d3400da61134bdb699bb213b9114b0122da61ef
:101d44000f4bd8695b685b6980b29847bde8f8833c
:101d540094680b4b5b69002514eb030845f10009fb
:101d6400cbe7074b5b6947f6ff74002514eb0308c8
:101d740045f10009c1e7024bc3f81c80d9e700bf55
:041d8400505a002091
:020000040000fa
:101d880070b582b0254d264c264e14e0f25c8df8d5
:101d98000620013322699a4298bf0023e3606b68ea
:101da80003f00703012b14bf9df80630bdf8063079
:101db800ab62237dbbb92b7e13f0010f2cd0a26838
:101dc800e3689a4225d06a6802f00702012addd149
:101dd8005a0016f813108df806100132b25c8df80f
:101de80007200133d6e701f047fc2368002be2d037
:101df8006168237f33b1a3699842dcd32368032049
:101e08009847d8e7a3699842d5d123680320984713
:101e1800d1e7024b01221a7502b070bd000c0040d8
:081e280090ff0120a03300200f
:020000040000fa
:101e3000002850d010b5044690f8243013f0010f5c
:101e400017d194f8243013f0020f1dd194f82430e8
:101e500013f0080f23d194f8243013f0100f29d178
:101e600094f8243013f0200f2fd1002384f824306d
:101e700010bd406808b101f00bfd94f8243023f048
:101e8000010384f82430dce7a06808b101f000fd0c
:101e900094f8243023f0020384f82430d6e7e06875
:101ea00008b101f0f5fc94f8243023f0080384f81d
:101eb0002430d0e7206908b101f0eafc94f824301e
:101ec00023f0100384f82430cae760690028ccd0de
:081ed00001f0defcc9e77047d8
:020000040000fa
:101ed8002de9f041adf6f82d06460f461446984612
:101ee80002ad019528220021284601f06bfc0cabbd
:101ef800ab610523eb61acb3beb30023a3604246dc
:101f08003946204600f0dafa0546f8b9ddf8103b04
:101f1800e360d4f8b83813f1020f0ad043462246da
:101f28003946304600f01efc05466ff48773984228
:101f38000cd104f5d266304601f08efc054650b14e
:101f4800304601f0dbfc0198fff76eff28460df6de
:101f5800f82dbde8f0813b2201a92069fff79efd1d
:101f68000546ede76ff0ac05f0e76ff0ac05ede77f
:020000040000fa
:101f780070b582b005460c46826fc36fdb0043ea3a
:101f88005273d100180e8df80000180c8df801005e
:101f9800180a8df802008df803300b0e8df8043006
:101fa8000b0c8df805300b0a8df806308df80710ec
:101fb80002f03f02372a94bfc2f13802c2f1780218
:101fc800d2b211492846fff74df90822694628463a
:101fd800fff748f92b4653f8586f58689968da683c
:101fe80026606060a160e2601e6958699969da69d3
:101ff80026616061a161e26100221146284600f075
:0c2008000bfb02b070bd00bfc82300003d
:020000040000fa
:1020140030b32de9f0418646204b5a6bd0f8088046
:10202400c2b193684046002198451bd30024002583
:102034009368e41845f100059369dbb1d3f808c04f
:1020440014eb0c0645f10007b94208bfb04211d3a6
:102054001a46ede7c0f80880104b586301201ae0d7
:10206400002070470d4bc3f834e0cef8182000244c
:10207400012004e0cef81830c2f818e00020a8ebe4
:102084000404cef80840def8183023b1def8081056
:102094009a68521a9a60bde8f08100bf505a002035
:020000040000fa
:1020a40008b5194b9847194b9847eff3108172b64e
:1020b400174ad2f8883043f47003c2f88830bff36b
:1020c4004f8fbff36f8f01b962b6124a936823f042
:1020d400010393601346da6812f0010ffbd10d4b34
:1020e40024225a6001229a6001f01afc0a4b23f060
:1020f4007f03074a9360094b9847094b9847094b5c
:10210400984701f078fbfee7fd340000af2500009e
:1021140000ed00e00020004100000000592900000b
:08212400af250000af2500000b
:020000040000fa
:10212c0038b51a4b93f9000000b138bd184c302269
:10213c000021204601f044fb164d2c605b232370dc
:10214c004cf2010323812046134b98472a681389cc
:10215c00002bfdd11169114b994206d00b4bff227c
:10216c001a700a4b93f90000dfe791690c4b994206
:10217c0003d0064bfe221a70f3e7d269094b9a4240
:10218c00024b14bffd2201221a70eae7bcfe0120ab
:10219c0088fe0120b8fe0120550000020001070452
:0821ac00d2dd706e4fd6c8258c
:020000040000fa
:1021b400f0b583b005460c4616461f46002301932e
:1021c40000930b466a4601a901f020fa00282adb95
:1021d400019b009a1344a34228d1234601aa29460d
:1021e400304600f03dfc002823db234601aa2946a3
:1021f400384600f035fc002806db019ba34208bfeb
:10220400002007d103b0f0bd304601f03ffb6ff072
:10221400aa00f7e7304601f039fb384601f036fbf7
:102224006ff0aa00eee76ff0aa00ebe76ff0aa00e8
:08223400e8e76ff0aa00e5e7fe
:020000040000fa
:10223c002de9f0414ff088431d6a05f400059a69b9
:10224c0042f400329a610a21144801f059fa144bf5
:10225c00013bfdd1134b00221a70134b1968134824
:10226c0001f00afb00f0f6ff01f0e4f8dff844801f
:10227c000f4f08e0a8f800600ce00b21384601f085
:10228c003ffafff7fdf845f24376064c01f021f9d1
:10229c00002defd12378002bf8d0eee7680e00006c
:1022ac00ffff020021ff0120bc5a00206d38000006
:0822bc00740e0000020500444d
:020000040000fa
:1022c4002de9f0411c4ad36a956a89b30e46ab42a4
:1022d40008bf002227d00122dff864c0174ca0f108
:1022e400020e0138144f0ce0e15c81540133396b68
:1022f400994298bf0023b24214d2511cab4212d06f
:102304000a46dcf8041001f007010129ecd1590058
:1023140014f813800ef812800131615c00f8121079
:102324000133e4e71d46044bdd621046bde8f0814d
:102334001d460a46f7e700bf90ff0120a01f0020ba
:04234400000c004049
:020000040000fa
:102348001c4b1d4a1a604ff6a0029a814ff4403286
:102358005a601a46d369002bfcd1164a136843f019
:1023680002031360d369002bfcd1144b00221a62bc
:102378009a62da6283f8342083f83c209a63da8719
:102388001a609a60da601a751a779a61094b5b6865
:1023980003f00703012b094b14bf4ff4a0524ff46d
:1023a80020621a631a61034b80229a7504229a7577
:1023b800704700bf000c00400401124090ff01204c
:020000040000fa
:1023c8008000000000000000000000000000000085
:1023d80000000000000000000000000000000000f5
:1023e80000000000000000000000000000000000e5
:1023f80000000000000000000000000000000000d5
:1024080000000000000000000000000000000000c4
:1024180000000000000000000000000000000000b4
:1024280000000000000000000000000000000000a4
:102438000000000000000000000000000000000094
:020000040000fa
:10244800f0b40c6800251560661c9e4229d8051951
:10245800005d10f0800f0bd13746049c14b1c419ed
:102468009c4227d80f60002800dd1060f0bc704740
:1024780000f07f0037189f4216d8042817d868b193
:102488002c460544002014f8016f46ea0020ac42af
:10249800f9d10028e1da6ff08b00e7e73746002032
:1024a800e0e76ff08300e1e76ff08300dee76ff0ad
:0a24b8008b00dbe76ff08300d8e72c
:020000040000fa
:0224c200704761
:020000040000fa
:1024c40060b370b4064600290bdd422929dc736829
:1024d400b3f1ff3f28d000237360336115481c24f7
:1024e4000ae0002af3da6ff0ac0012e0a14208dd42
:1024f400013350f8344f74b1002af7dd4568954232
:10250400f6d19cb173600b4a342101fb0323336180
:10251400002070bc70476ff0ab00fae76ff0ac00be
:1025240070476ff0a900f4e70020f2e76ff0ab000a
:08253400efe700bf34110000c5
:020000040000fa
:10253c002de9f04395b01d9d55b31e469146884636
:10254c000746d5f8b80800f027fe044618b34368d0
:10255c0023b32c22002109a801f032f903230193a3
:10256c00052302930397cdf81080cdf814900696ae
:10257c001c9b079308956368a26801a9206898477b
:10258c0010f1ae0f08bf6ff4877015b0bde8f08383
:10259c006ff48770f9e76ff48770f6e76ff4877064
:0225ac00f3e753
:020000040000fa
:0225ae00704774
:020000040000fa
:1025b000194bda6822f4e0621204120c42f0bf6296
:1025c00042f40032da60bff35f8f62b6134ae02153
:1025d00082f803130820106082f80c134ff4805027
:1025e000106082f813134ff40020106082f8161365
:1025f0004ff4800111605a6a42f480225a625a698b
:1026000042f010025a615a6a42f400325a625a6a1f
:1026100042f480325a62704700ed00e000e100e0d1
:020000040000fa
:1026200010b504465822002101f0d0f8042323738a
:102630004ff00003012262f3061363730d4ba36591
:1026400003f1ee5303f5052303f65163e3650a4beb
:1026500023660a4b63660a4ba3660a4be3660a4b82
:1026600023670a4b636700220023c4e91e2300206e
:1026700010bd00bf6a09e6673c6ef372a54ff53adc
:10268000510e527f9b05688c1f83d9ab5be0cd193f
:020000040000fa
:1026900070b505460c46164601f024f8b6f5087fdd
:1026a00004dda6f508734ff408761c44f31c9b0860
:1026b0002b60002e09dd06f108032b44a21914f843
:1026c000011b03f8011d9442f9d12a68b2b1531ecf
:1026d000511c55f8211059b9013205eb820200e076
:1026e00003464bb1581e52f8041d0029f8d02b6048
:1026f0006b686b60002070bd00232b600023f8e73f
:020000040000fa
:1027000070b582b006460d46144601220192009330
:1027100023460a46022100f079f9002820db2368cd
:10272000012b1cdd2b68f25cff2a0fd0e2b90133cc
:102730002b602368013b2360002b13dd2b68f356cd
:10274000002bb4bf00206ff08b0009e01e4496f907
:102750000130002bb4bf6ff08b00002000e00020a0
:0c27600002b070bd0020fbe70020f9e78c
:020000040000fa
:10276c004ab32de9f04194b0144698460f460646fc
:10277c00d2f8b80800f010fd0546f8b1436803b371
:10278c003422002107a801f01bf80323019309232d
:10279c000293039604970594cdf818806b68aa6889
:1027ac0001a92868984710f1ae0f08bf6ff4877025
:1027bc0014b0bde8f0816ff4877070476ff48770c8
:0827cc00f6e76ff48770f3e7f4
:020000040000fa
:1027d40002680b689a4220dc21db531e22d430b4f9
:1027e4009c1c50f8245051f82440a5421cd81dd3f9
:1027f4009200043210441144013bb3f1ff3f09d06d
:1028040050f8044d51f8042d944212d8f4d24ff0ec
:10281400ff3000e0002030bc7047012070474ff0cb
:10282400ff307047002070470120f4e74ff0ff307d
:06283400f1e70120efe7cf
:020000040000fa
:02283a00fee7b7
:020000040000fa
:10283c0008b5134b9847fef7d9fb124a136823f4db
:10284c009f7323f0010343f011031360fff7c1f8ea
:10285c00fef779fffff772fd00f08cfa00f036fb03
:10286c0000f0fefe08490020fff7b4f8074b186093
:10287c0000f01eff00f0fafffff794fe08bd00bf4a
:10288c00cd5a002000240144cc380000b85a002056
:020000040000fa
:10289c0070b5144b144a0021934206d3134a0025f9
:1028ac00d2e9003123b919b970bd03f8011bf3e764
:1028bc00946858180c3294b11446834208d111f024
:1028cc00030318bf012303eb910102eb8102e7e73d
:1028dc0014f8016b03f8016befe703f8015b83421b
:1028ec00fbd1dde70000002000000020f40a00000e
:020000040000fa
:1028fc00154b5a6b1ab310b40146824204d183694a
:10290c00abb1002206e01a469369d3b19942fad1d1
:10291c008b6923b18c689868204498604ab18b69a4
:10292c009361002000238b615df8044b70471a46bd
:10293c00f4e7054b5a6b92695a630120f2e70020c9
:0c294c0070470020f0e700bf505a002048
:020000040000fa
:102958000e4a38b5002313600d4a0e4c13600e4a18
:102968000e4d13600e4a13600e4a13600e4a5362ee
:1029780013610123936000f05efd00f05cfdac4242
:1029880000d338bd54f8043b9847f8e7c45a0020f0
:1029980030ff01200c0100002cff01201001000075
:0c29a80024ff012028ff012034ff012043
:020000040000fa
:1029b40008b5144b9b7df3b1124a137edbb2927db2
:1029c40012f0800f18d10f4a137edbb2927d12f001
:1029d400010f04d013f0010f01d0fff7d3f9094a16
:1029e400137edbb2927d12f0040f04d013f0040fb7
:1029f40001d0fff7b5f808bd13f0800fe3d000f065
:082a04004df9e0e7000c004071
:020000040000fa
:102a0c00f0b587b006460d4614461f46136805936d
:102a1c000c9b0df1130205a900f00cfb98b99df865
:102a2c001330ab4212d10d9b00930c9b03aa05a94a
:102a3c003046fff703fd00280bdb03983860059b3d
:102a4c00236007b0f0bd6ff08b00fae76ff08b00de
:082a5c00f7e76ff08b00f4e7cf
:020000040000fa
:102a640070b582b006460c461546126801926a4655
:102a740001a92046fff742fe034610b1184602b0f2
:102a840070bd304600f0eafe90b9009a01992144e5
:102a9400304600f039ff034620b9019a00990a44f0
:102aa4002a60ebe7304600f0f1fe6ff08d03e5e7b6
:062ab4006ff06d03e2e784
:020000040000fa
:022aba00fee735
:020000040000fa
:102abc002de9f04780460f46914600f071fe3e46e8
:102acc00d7b100260e4c4d464ff0010a09e04b459c
:102adc0012d85146fff7f0fb002323700136b742a2
:102aec000ad008eb06002378002bf2d101332278b0
:102afc00002aecd1ab42f9d93046bde8f08700bfd3
:042b0c00bdfe0120e9
:020000040000fa
:102b1000f0b4124b1880124800f580670022164668
:102b200041f2210506e040f8043f02f5807292b2be
:102b3000b84210d011460824334683ea010c1cf435
:102b4000004f14bf85ea43035b009bb2490089b282
:102b5000013cf2d1e7e7f0bc704700bfbefe0120a8
:042b6000ac5700204e
:020000040000fa
:102b64002de9f04121f00f0112f00f0f08d054426b
:102b740002f00f0304f00f0458bf6342d21a10325c
:102b8400144656188518a6eb04082f1b002c0adde2
:102b940000f002fe0028fbd14146384600f0cafb93
:102ba40020b1103cefe70020bde8f0810120fbe7f5
:020000040000fa
:102bb4002de9f041046ac569ac421ed21f4616468f
:102bc400884605468069631c2b624ff40a7303fb35
:102bd4000400106000f042fe034610b11846bde840
:102be400f08195f824301f4385f824701022414663
:102bf4003068fef743f90346f0e76ff0a903ede709
:020000040000fa
:102c04002de9f04105460e46144698469df8187085
:102c14000a46002100f0d8fd3046464528bf40460c
:102c240057b938b1013d231814f8016b05f8016f49
:102c3400a342f9d1bde8f0810028fbd00544231854
:0e2c440014f8016b05f8016d9c42f9d1f2e71e
:020000040000fa
:102c5200f0b170b582b0044615460e4640f6041235
:102c6200002100f0b2fd0023c4f8b858019300938c
:102c720004f58d6304f5107204f1180104f5d260b5
:102c820000f049f9034638b96661184602b070bdd2
:0e2c92006ff0ac03184670476ff07c03f5e757
:020000040000fa
:102ca00008b5104b5b8b13f0070300d108bd0e4a2b
:102cb000d3870c4b80221a7607225a831b7e13f08f
:102cc000040f05d0074b9a6a1a7e12f0040ffad14e
:102cd000054b1b6a002be9d0034b596a1b6a022083
:0c2ce0009847e3e7000c004090ff012043
:020000040000fa
:102cec002de9f0414768d1f80480474510d00446df
:102cfc000d461646fff768fdb0f1ff3f0cd077602c
:102d0c00324629462046fef78dfd0020bde8f081b5
:102d1c005760fef7a7fcf9e7c6f804803246214657
:0a2d2c002846fef77ffd0020f0e7c7
:020000040000fa
:022d3600fee7b6
:020000040000fa
:102d3800104b0822c3f88020bff34f8fbff36f8f6b
:102d48004ff48052c3f88020bff34f8fbff36f8fcb
:102d58004ff48002c3f88020bff34f8fbff36f8f0b
:102d68004ff40022c3f88020bff34f8fbff36f8f5b
:082d7800704700bf00e100e01c
:020000040000fa
:102d80000e4b01221a601a46136913f0010ffbd192
:102d90000a4b4ff4a3621a6003221a7304225a7179
:102da000074ada6133229a72064a00211160012231
:102db0005a721a461369002bfcd170470014004068
:082dc000bf270900b05a0020f2
:020000040000fa
:102dc80070b582b0069d079c88b1064692b1a5b140
:102dd800b4b1d4f8b80810f1020f02d1002002b043
:102de80070bd304601940095fff7a4fbf7e76ff03c
:102df800a900f4e76ff0a900f1e76ff0a900eee78a
:062e08006ff0a900ebe7ea
:020000040000fa
:022e0e00fee7dd
:020000040000fa
:102e100038b5044600f08efc002c16db63090c4923
:102e200051f8235004f01f04e54005f0010501228c
:102e300002fa04f4203341f82340bff34f8fbff36d
:102e40006f8f00f080fc284638bd0025f9e700bff1
:042e500000e100e0bd
:020000040000fa
:102e540030313233343536373839414243444546cc
:102e64004748494a4b4c4d4e4f5051525354555676
:102e74005758595a6162636465666768696a6b6c1e
:102e84006d6e6f707172737475767778797a2b2f93
:042e9400000000bf7b
:020000040000fa
:102e980010b5054c227832b9044b13b10448aff38e
:102ea80000800123237010bdd0ff01200000000026
:102eb8000000000008b5034b1bb103490348aff3fa
:102ec800008008bd00000000d4ff012000000000c1
:020000040000fa
:102ed8000d4b01221a601a46136913f0010ffbd13a
:102ee800094b10221a6003221a734ff6ff129a83b5
:102ef80033229a72054a0021116020225a721a461a
:102f08001369002bfcd1704700200040a85a00200c
:020000040000fa
:102f1800f8b50c4617461e46069d08b100f0defbc4
:102f280014b1204600f0dafb17b1384600f0d6fba2
:102f380016b1304600f0d2fb15b1284600f0cefba2
:0e2f4800079b13b1184600f0c9fb0020f8bd2e
:020000040000fa
:022f5600fee794
:020000040000fa
:102f5800431e13f1030f0fd883b2042b0ed80a4a6d
:102f680002eb4312d26982420ad15a0106498a5cad
:102f780042b101eb431070470020704700207047b2
:0c2f88000020704700207047b059002066
:020000040000fa
:102f940010b5044600f036f8b0b12046fff7daff6a
:102fa400044678b1437843b90020207560752070d9
:102fb400044600f00dfa204610bdfff79dfc0023e7
:0c2fc4006370f1e70124f4e70124f4e756
:020000040000fa
:102fd000a1b110b40a4b1b8841180a4c10f8012b00
:102fe00082ea132254f8222082ea03239bb2884209
:102ff000f4d1034a13805df8044b7047704700bf5b
:08300000befe0120b0570020c4
:020000040000fa
:103008000c4b93f830309bb90a4b93f83830012bae
:1030180001d00020704710b5064c002384f83830e2
:1030280094f90800fff7f0fe84f83100012010bd84
:0830380001207047505a0020ee
:020000040000fa
:103040006ab130b4154669b178b10c68621c9a4215
:103050000ed8035d2b700a60002030bc70476ff003
:10306000ac0070476ff0ac00f7e76ff0ac00f4e72e
:063070006ff08300f1e7a0
:020000040000fa
:1030760038b505460c46c0f30b037bb964b100f0c6
:103086008afb0028fbd1284600f0cffb40b1013c6b
:10309600a4b205f58055f1e7002000e0022038bd16
:0430a6000120fce722
:020000040000fa
:0230aa00fee73f
:020000040000fa
:1030ac0000100004000000010000100002000000ed
:1030bc00603400000000f0005836000001000000f1
:1030cc0020390000fe0fffff00000000ffffff0f84
:0430dc00fffffffff4
:020000040000fa
:1030e000abb1f0b405461e46043a002402e00134b8
:1030f000b44209d052f8040f4368ab42f7d847698d
:103100003b448b42f3d300e00020f0bc704700202a
:02311000704706
:020000040000fa
:02311200fee7d6
:020000040000fa
:1031140038b5eff3108572b6084c20634ff4804342
:1031240063600f2262601140a160a36000f03ef969
:103134004ff40043a36085f3108838bd00060044b3
:020000040000fa
:103144004ff088430022c3f8b020084ac3f8b020e7
:1031540002f12b42a2f54b12a2f6ab42c3f8b02007
:1031640003f5206301229a641b6cfee7556699aa55
:020000040000fa
:103174000a4b5b6b73b168b1002105e09a68801a51
:1031840099609b6933b128b19a688242f6d39a68f0
:10319400101a9860014b5a691a617047505a0020fe
:020000040000fa
:1031a4000a4b1b6898420ad0084a0123d16881421d
:1031b40006d001330c32082bf8d1002070470023cd
:1031c40003eb4303014800eb8300704728fe012012
:020000040000fa
:1031d40053b94ab9002908bf00281cbf4ff0ff317a
:1031e4004ff0ff3000f09ebbadf1080c6de904ce4a
:1031f400fdf720fbddf804e0dde9022304b07047ad
:020000040000fa
:1032040070b505460c461646fef78eff002808db0f
:103214006368052b08d1324621462846fdf766f936
:0e32240070bd6ff48770fbe76ff48770f8e7fa
:020000040000fa
:1032320070b506460d461446fff7b3ff034620b1ac
:103242001e605d609c60002070bd6ff00100fff7a2
:0e325200a8ff03460028f3d16ff08300f4e7d5
:020000040000fa
:10326000094a136823f002031360136913f0020f75
:10327000fbd1054a136843f002031360136913f08e
:0c328000020ffbd1704700bf001400409b
:020000040000fa
:10328c0008b5084b5b7a63b1064b987ac0b233220f
:10329c009a72054b1b6823b118b1034b59681b6814
:0c32ac00984708bd00140040b05a0020f4
:020000040000fa
:1032b80093b1f8b51f4616460d4604460021284628
:1032c80000f080fa3346224629460020b8470028f5
:0a32d8000cbf28460020f8bd704727
:020000040000fa
:1032e20070b5adf50a7d04460e461546684600f0f7
:1032f200f8f93146684600f0a2f92a4669462046a6
:0a330200fff7f3fc0df50a7d70bd26
:020000040000fa
:10330c00012911d930b44d08013901440138002389
:10331c000a7810f8014f01f8014902700133dbb251
:0a332c00ab42f5d330bc7047704788
:020000040000fa
:023336007047de
:020000040000fa
:1033380008b5024608461168064b196451681965b4
:1033480091681966d2681a670221fff7dffe01202b
:0833580008bd00bf000600449f
:020000040000fa
:10336000084a537943f080035371136913f0040f33
:10337000fbd1044a537913f0e00ffbd1014b988a3b
:08338000704700bf002000406f
:020000040000fa
:1033880008b510b1012805d008bd0621044800f091
:10339800b9f9f9e70621034800f0b4f9f4e700bfea
:0833a800c40c0000cc0c000075
:020000040000fa
:1033b000064b00221a62064a1a6202f12b42a2f55b
:1033c0004b12a2f6ab421a62704700bf00060044df
:0433d000556699aafb
:020000040000fa
:1033d40010b5074c94f8311094f9080000f04ef839
:1033e40094f8303013b9012284f8382010bd00bf9e
:0433f400505a00200b
:020000040000fa
:1033f800074b00221a609a815a601a46d369002b3b
:10340800fcd1034bbf221a7500221a76704700bf01
:04341800000c004064
:020000040000fa
:10341c0008b50b68032b06d14b68043b012b05d870
:10342c00fff7eafe08bd6ff48770fbe76ff4877057
:02343c00f8e7af
:020000040000fa
:02343e007047d5
:020000040000fa
:1034400008b50121084600f0b3f8012000f0f6f9b4
:103450000021024800f0f8f908bd00bf7d370000e8
:020000040000fa
:1034600000000001ffff0700000000000100000055
:1034700000008001ffff07000000000001000000c5
:020000040000fa
:1034800051b1002808db420900f01f00012303fab4
:1034900000f0024b43f82200704700bf00e100e05b
:020000040000fa
:1034a00008b5064b1b7813b1012b04d008bd034ba4
:1034b00001221a70fae7fef7c1fe00bfc85a0020c9
:020000040000fa
:1034c00000230360436000f1080200f50a7019460a
:0e34d000134603f8011b1a468342f9d17047d8
:020000040000fa
:1034de0000b58db0684600f038f9009b23b19df819
:0e34ee002c10684600f090f90db05df804fb5c
:020000040000fa
:1034fc0008b5044b1b6b13f4806f02d0024b1b6896
:0c350c00984708bd000a004404020001ba
:020000040000fa
:1035180055380000c9350000e1350000b538000015
:0c35280095360000a93600006133000059
:020000040000fa
:1035340030b501390024a24206d0035d01340d5d8b
:0c354400ab42f8d0581b00e0002030bd66
:020000040000fa
:1035500008b500f069f8034b00221a70fff780feef
:0835600008bd00bf21ff01209e
:020000040000fa
:1035680008b5044b1b681bb1024b58681b68984789
:0835780008bd00bf74ff012033
:020000040000fa
:10358000044a9368d06883423ebf024a12699b187e
:08359000181a704790ff01209a
:020000040000fa
:10359800044bd86a9b6a984282bf024a126b9b18f6
:0835a800181a704790ff012082
:020000040000fa
:1035b000044b93f8342083f8340083f83c10104611
:0835c000704700bf90ff0120dd
:020000040000fa
:1035c800044a136843f002031360136913f0020fef
:0835d800fbd170470020004008
:020000040000fa
:1035e000044a136823f002031360136913f0020ff7
:0835f000fbd1704700200040f0
:020000040000fa
:1035f800044b1b69834232bfc01ac3f58033c0181d
:08360800704700bf505a00207a
:020000040000fa
:1036100010b582b001240194009313460a4630216c
:08362000fff7f4f902b010bd40
:020000040000fa
:10362800044a136823f002031360136913f0020fae
:08363800fbd1704700140040b3
:020000040000fa
:1036400038b505460c4600f04df8ac60003418bfa4
:0636500001242c6038bdce
:020000040000fa
:10365800a3380000652b0000ed370000773000002c
:043668001b3900000a
:020000040000fa
:10366c0008b5034b186b0021fff74efd08bd00bfda
:04367c000006004400
:020000040000fa
:1036800010b5034b1c69fff77bff013c201a10bdee
:0436900090ff012086
:020000040000fa
:10369400034b98831a46136913f0400ffbd170470c
:0436a40000200040c2
:020000040000fa
:1036a800034bd8831a46136913f0800ffbd1704778
:0436b80000200040ae
:020000040000fa
:1036bc0008b5002202491046fff7b5fd08bd00bf52
:0436cc001d340000a9
:020000040000fa
:1036d00010b5044600f01ef9024600212046fef710
:0436e0009fff10bd7b
:020000040000fa
:1036e40008b50021016041604ff40872083000f011
:0436f4006bf808bdaa
:020000040000fa
:1036f80008b50021016041604ff40872083000f0fd
:0437080061f808bd9f
:020000040000fa
:10370c0008b5034b1b7803b108bdfdf737fffbe78a
:04371c0020ff012069
:020000040000fa
:1037200000b5adf6b44d01a902f0a2f90df6b44d05
:043730005df804fb41
:020000040000fa
:10373400eff3108072b6bff35f8fb0fa80f04009e8
:023744007047cc
:020000040000fa
:1037460018b1bff35f8f62b6704772b6bff35f8f73
:023756007047ba
:020000040000fa
:1037580010b5044600f0a6f82060012384f82c3048
:0237680010bd92
:020000040000fa
:10376a0010b500239a4200d110bdcc5cc454013379
:02377a00f8e76e
:020000040000fa
:10377c0010b9024b01221a70704700bfbdfe012028
:020000040000fa
:10378c0008b513460a461946fff7e9ff012008bda4
:020000040000fa
:10379c00024b1868c0f3c030704700bf00060044ed
:020000040000fa
:1037ac00024bd88f0022da87704700bf90ff0120b0
:020000040000fa
:1037bc0010b582b000240094fef788fb02b010bd57
:020000040000fa
:1037cc0002440346934200d1704703f8011bf9e70a
:020000040000fa
:1037dc0003461a46013311780029fad1101a7047a2
:020000040000fa
:0e37ec0008b508461946fff7cbff002008bdc0
:020000040000fa
:0e37fa0008b50020fff71df800f067f8fce7a7
:020000040000fa
:0e380800a0f16103192b98bf00f05f0070471c
:020000040000fa
:0c38160008b511b108b1fcf784fc08bd36
:020000040000fa
:0c382400014b1888704700bfbefe012059
:020000040000fa
:0c38300008b50421fff76efc012008bd64
:020000040000fa
:0c383c0008b1014a9063704790ff012022
:020000040000fa
:0c384800014b18625962704790ff01208c
:020000040000fa
:0c385400014b186059607047a85a002012
:020000040000fa
:0c38600008b508b1fff73eff002008bdce
:020000040000fa
:0c386c00014b01221a70704721ff01205f
:020000040000fa
:0c387800014b00221a707047c85a002053
:020000040000fa
:0c388400014b186059607047b05a0020da
:020000040000fa
:0a38900008b508b1fff730ff08bdce
:020000040000fa
:08389a0008b5fdf774fe08bd3e
:020000040000fa
:0838a20008b5fff7e2fe08bdc6
:020000040000fa
:0838ac0000487047ac30000039
:020000040000fa
:0838b400004870470090d003aa
:020000040000fa
:0838bc0008b5fff739ff08bd54
:020000040000fa
:0838c40008b5fff73eff08bd47
:020000040000fa
:0838cc00183500001600000091
:020000040000fa
:0838d40008b5fff7e3fd08bd94
:020000040000fa
:0838dc002a8648ce3d030104d9
:020000040000fa
:0838e4002b810400210000bf4c
:020000040000fa
:0838ec002a8648ce3d030107c6
:020000040000fa
:0838f4002b810400220000bf3b
:020000040000fa
:0838fc002b810400230000bf32
:020000040000fa
:0839040008b5fff7dbfd08bd6b
:020000040000fa
:08390c0008b5fef7bffe08bd7f
:020000040000fa
:063914006ff00100704796
:020000040000fa
:04391a0000207047d2
:020000040000fa
:043920005300c40983
:020000040000fa
:04392400fef7babf31
:020000040000fa
:04392800704700bf25
:020000040000fa
:1050000010b54ff08843d3f8e04024f03002c3f8e5
:10501000e02068b1012810d000204ff08843c3f889
:10502000e040013810f1030f8cbf0020012010bdbb
:105030004ff0807000f01cfdefe74ff0847000f03f
:0450400017fdeae787
:020000040000fa
:1050440053454350323234523100000046464646fe
:1050540046464646464646464646464646464646ec
:105064004646464646464646464646463030303034
:10507400303030303030303030303030303030302c
:10508400303030310000000046464646464646462b
:1050940046464646464646464646464646464646ac
:1050a400464646464646464546464646464646469d
:1050b400464646464646464646464646464646458d
:1050c400000000004234303530413835304330344c
:1050d4004233414246353431333235363530343457
:1050e40042304237443742464438424132373042f4
:1050f4003339343332333535464642340000000008
:10510400464646464646464646464646464646463b
:105114004646464646464646464646463136413269
:1051240045304238463033453133444432393435de
:1051340035433543324133440000000042373045a3
:1051440030434244364242344246374633323133a6
:1051540039304239344130334331443335364332c4
:1051640031313232333433323830443631313543ed
:10517400314432310000000042443337363338388a
:10518400423546373233464234433232444645365a
:10519400434434333735413035413037343736348e
:1051a400343444353831393938353030374533348f
:1051b400000000005052494d453233395631000049
:1051c400374646464646464646464646464646468a
:1051d400464646464646464637464646464646467a
:1051e400464646463830303030303030303030305b
:1051f4003746464646464646464646460000000072
:105204003746464646464646464646464646464649
:105214004646464646464646374646464646464639
:10522400464646463830303030303030303030301a
:105234003746464646464646464646430000000034
:1052440036423031364333424443463138393431bf
:1052540044304436353439323134373543413731cb
:105264004139444232464232374431443337373984
:10527400363138354332393432433041000000008e
:1052840037464646464646464646464646464646c9
:1052940046464646464646463746464646463945c7
:1052a4003545394139463544393037314642443140
:1052b4003532323638383930394430420000000053
:1052c4003046464139363343444341383831364316
:1052d4004343333342383634324245444639303519
:1052e4004333443335383537334433463237464213
:1052f40042443342334342394141414600000000b5
:1053040037444542453845344539304135444145b3
:105314003645343035344341353330424130343608
:1053240035344233363831384345323236423339f4
:105334004643434237423032463141450000000083
:1053440053454350323536523100000046464646f6
:1053540046464646303030303030303130303030f0
:105364003030303030303030303030303030303039
:105374003030303046464646464646464646464621
:1053840046464646464646464646464600000000d1
:105394004646464646464646303030303030303158
:1053a40030303030303030303030303030303030f9
:1053b4003030303030303030464646464646464639
:1053c400464646464646464646464646464646437c
:1053d4000000000035414336333544384141334100
:1053e4003933453742334542424435353736393807
:1053f4003836424336353144303642304343353310
:1054040042304636334243453343334532374432e0
:10541400363034420000000046464646464646467c
:1054240030303030303030304646464646464646c8
:10543400464646464646464642434536464141442c
:1054440041373137394538344633423943414332a1
:1054540046433633323535310000000036423137a9
:10546400443146324531324334323437463842438c
:1054740045364535363341343430463237373033a8
:105484003744383132444542333341304634413174
:105494003339343544383938433239360000000062
:1054a4003446453334324532464531413746394234
:1054b400384545374542344137433046394531361e
:1054c400324243453333353736423331354543452c
:1054d4004342423634303638333742463531463526
:1054e400000000005345435033383452310000006b
:1054f4004646464646464646464646464646464648
:105504004646464646464646464646464646464637
:105514004646464646464646464646464646464627
:105524004646464646464646464646464646464518
:1055340046464646464646463030303030303030b7
:1055440030303030303030304646464646464646a7
:1055540000000000464646464646464646464646ff
:1055640046464646464646464646464646464646d7
:1055740046464646464646464646464646464646c7
:1055840046464646464646464646464646464646b7
:105594004646464546464646464646463030303000
:1055a400303030303030303030303030464646469f
:1055b4004646464300000000423333313246413709
:1055c4004532334545374534393838453035364228
:1055d400453346383244313931383144394336451c
:1055e400464538313431313230333134303838464d
:1055f400353031333837354143363536333938442d
:1056040038413245443139443241383543384544d0
:105614004433454332414546000000004646464671
:105624004646464646464646464646464646464616
:105634004646464646464646464646464646464606
:10564400464646464646464646464646433736332b
:1056540034443831463433373244444635383141a2
:105664003044423234384230413737414543454370
:105674003139364143434335323937330000000072
:10568400414138374341323242453842303533376d
:10569400384542314337314546333230414437345b
:1056a400364531443342363238424137394239384b
:1056b4003539463734314530383235343241333870
:1056c4003535303246323544424635353239364343
:1056d4003341353435453338373237363041423744
:1056e4000000000033363137444534413936323610
:1056f40032433646354439453938424639323932ef
:1057040044433239463846343144424432383941cc
:1057140031343743453944413331313342354630ee
:1057240042384330304136304231434531443745c5
:1057340038313944374134333144374339304541c2
:105744003045354600000000534543503532315250
:1057540031000000314646464646464646464646e1
:1057640046464646464646464646464646464646d5
:1057740046464646464646464646464646464646c5
:1057840046464646464646464646464646464646b5
:1057940046464646464646464646464646464646a5
:1057a4004646464646464646464646464646464695
:1057b4004646464646464646464646464646464685
:1057c4004646464646464646464646464646464675
:1057d40046464646464646003146464646464646c0
:1057e4004646464646464646464646464646464655
:1057f4004646464646464646464646464646464645
:105804004646464646464646464646464646464634
:105814004646464646464646464646464646464624
:105824004646464646464646464646464646464614
:105834004646464646464646464646464646464604
:1058440046464646464646464646464646464646f4
:105854004646464646464646464643003531393571
:10586400334542393631384531433941314639328d
:105874003941323141304236383534304545413290
:10588400444137323542393942333135463342386f
:105894004234383939313845463130394531353675
:1058a4003139333935314543374539333742313668
:1058b4003532433042443342423142463037333545
:1058c400373344463838334432433334463145461b
:1058d40034353146443436423530334630300000b6
:1058e4003146464646464646464646464646464669
:1058f4004646464646464646464646464646464644
:105904004646464646464646464646464646464633
:105914004646464646464646464646464646464623
:1059240046464135313836383738334246324639bf
:1059340036364237464343303134384637303941be
:1059440035443033424235433942383839394334a7
:10595400374145424236464237314539313338368c
:1059640034303900433638353845303642373034f0
:10597400303445394344394533454342363632336e
:1059840039354234343239433634383133393035a9
:105994003346423532314638323841463630364263
:1059a4003444334442414131344235453737454626
:1059b400453735393238464531444331323741323f
:1059c400464641384445333334384233433138351d
:1059d400364134323942463937453745333143321b
:1059e40045354244363600003131383339323936a0
:1059f4004137383941334243303034354338413507
:105a040046423432433744314244393938463534d6
:105a140034343935373942343436383137414642f3
:105a240044313732373345363632433937454537d3
:105a340032393935454634323634304335353042df
:105a440039303133464144303736313335334337d7
:105a540030383641323732433234303838424539bf
:0c5a6400343736394644313636353000d0
:020000040000fa
:105a70002de9f04f9db005460c460caecb4f0fcf35
:105a80000fc60fcf0fc60fcf0fc697e80f0086e8df
:105a90000f0000230b932e46049305930693079360
:105aa000089309930a9302238df8243001238df87b
:105ab000253055238df82a30b5f1807f0dd0b5f112
:105ac000847f14bf022701273369013b13f1030fc1
:105ad00005d900201db0bde8f08f0027f4e74ff492
:105ae000007229462046fdf740fe0023a360237480
:105af0006374a374e374a3751c2204a92046fdf704
:105b000019fd08b10020e5e704f5007a04f6043b2e
:105b100004f60c4804f68c49fdf7d0fd20210ca8b2
:105b2000fdf7f4fb202114a8fdf7f0fbab7d5bb97a
:105b300095f82430002b40f0a8809d4b013bfdd10f
:105b4000306a00f50070c5e74046fdf7c1fd4ff42f
:105b5000007229462046fdf708fe002184f8b7119f
:105b6000482204f5dc70fdf731fe4ff4f67204f1c3
:105b700014014046fbf77afb49464046fcf7fcf926
:105b80004046fdf7d8fbab7d012b61d0ab7d022bee
:105b9000ced1002211465046fdf75bf8072352464e
:105ba00020215846fdf70afe0df1300cbce80f002d
:105bb000c4f82002c4f82412c4f82822c4f82c32f5
:105bc000bce80f00c4f83002c4f83412c4f838221c
:105bd000c4f83c320823c4f818320023c4f81c323d
:105be0000df1500cbce80f00c4f84804c4f84c1484
:105bf000c4f85024c4f85434bce80f00c4f8580466
:105c0000c4f85c14c4f86024c4f864340823c4f8ed
:105c100040340023c4f844340123c4f86836c4f87f
:105c2000703695f8b711cdf804a00bab0093202384
:105c30004a4605f5dc70fdf7c7f803903846fdf7d6
:105c4000a3fb039bd3b91c215a48fdf75ffd6fe707
:105c50003846fdf799fb202205f5dc714846fdf733
:105c600069fc20b91a215448fdf750fd8ee7182130
:105c70005248fdf74bfd4ff0ff302be71a215048fb
:105c8000fdf744fd4ff0ff3024e74046fdf720fdcf
:105c9000326a05f500714046fbf7e8fa494640468e
:105ca000fcf76af995f82430012b62d095f824307e
:105cb000022b7ff442af002211465046fcf7c9ff89
:105cc0000723524620215846fdf778fd0df1300c90
:105cd000bce80f00c4f82002c4f82412c4f828223b
:105ce000c4f82c32bce80f00c4f83002c4f83412f7
:105cf000c4f83822c4f83c324ff0080bc4f818b28c
:105d00004ff00008c4f81c820df1500cbce80f00e5
:105d1000c4f84804c4f84c14c4f85024c4f85434eb
:105d2000bce80f00c4f85804c4f85c14c4f860243c
:105d3000c4f86434c4f840b4c4f844840123c4f8fb
:105d40006836c4f8703695f82810cdf804a00bab6f
:105d5000009320234a4605f12900fdf735f8044653
:105d60003846fdf711fbd4b914211648fdf7cefcd7
:105d7000e3e63846fdf708fb202205f129014846f5
:105d8000fdf7d8fb20b915210f48fdf7bffc8de7c3
:105d900013210e48fdf7bafc4ff0ff309ae61221ae
:105da0000b48fdf7b3fc4ff0ff3093e6d40c000036
:105db000ffff05004c0d0000300d0000140d000029
:105dc0006c0d0000b40d00009c0d0000880d00005b
:045dd000cc0d0000f6
:020000040000fa
:105dd40008b5084b5b7a63b1064b987ac0b233229c
:105de4009a72054b1b6823b118b1034b59681b68a1
:0c5df400984708bd00200040a85a00207d
:00000001FF
