:020000040000fa
:10000000f0fb01206d2000004f2a0000572e000059
:100010004b300000173200001f33000000000000ca
:100020000000000000000000000000007327000036
:10003000e32f00000000000073270000732700007a
:10004000732700007327000073270000313400007d
:100050007327000073270000732700007327000038
:100060007327000073270000732700007327000028
:100070004929000073270000732700007327000040
:100080007327000073270000732700007327000008
:100090007327000073270000d55d00007327000060
:1000a00073270000732700007327000073270000e8
:1000b00073270000732700007327000073270000d8
:1000c00073270000732700007327000073270000c8
:1000d00073270000732700007327000073270000b8
:020000040000fa
:10010000f8b500bff8bc08bc9e467047bd2d000086
:10011000f8b500bff8bc08bc9e467047992d00009a
:020000040000fa
:080120001007000001000000bf
:020000040000fa
:100128002de9f84f0746884642f2107241f2100155
:10013800974802f089fc002800f08a81944b1c68db
:10014800944b1c60250cabb2934a1380a6b2568020
:10015800043b0e2b00f26e81dfe813f054001f0001
:1001680026017d016c016c0184016c016c016c013c
:100178006c016c016c0187000f0002f07bff00200e
:10018800854b1d88072d00f067810a2d00f06b81d3
:100198002d04042828bf02206fe17d4bd3f804907a
:1001a8007d4bc3f8049043463a464946484602f018
:1001b8002fff0746002800f05e81a4b2038803fbe6
:1001c80004944368426913449c4280f054818369d3
:1001d800002b00f076811a68002a00f064819047ad
:1001e800b86a49ea0009f86a09ea0000bb69002b05
:1001f80000f02281db68002b00f02081314698470f
:1002080080b2bde7624b5868634b586043463a4634
:10021800014602f0fdfe0446002800f02c814269e8
:100228000088b2fbf0f66368b1b200fb01311a44f2
:10023800914200f22081a269002a00f042811168ef
:10024800002900f0248188476068a36a1843e36a9c
:100258001840a369002b00f0f380db68002b00f046
:10026800f180b1b2984780b28ae7494bd3f804a02d
:10027800494ac2f804a0d3f80890c2f80890dc688c
:10028800d4601033136143463a460aeb09015046dd
:1002980002f0befe0746002800f0ed80836a4aeab5
:1002a800030ac36a0aea030a83696bb11a6812b1be
:1002b8009047bb6943b15b6833b14a4651463748fa
:1002c8009847002840f0c080012e07d0022e32d077
:1002d8000025ac4214bf0220002051e75646bb69f6
:1002e8004bb1d3f80880b9f1000f4fd00025dff8e3
:1002f800b4a02b4f05e04ff00008f4e7b9f1000f68
:10030800e7d0daf800204a4528bf4a4693464346d4
:100318003946304602f03cff5e44a9eb0b09bbf1bd
:10032800000febd00beb07023b4613f8011b0d4403
:100338009a42fad1e2e75646bb6923b3d3f808805c
:100348004ff6ff7002f0aafbb9f1000f17d0dff8e3
:1003580054a0134fdaf800504d4528bf4d46434688
:100368002a463946304602f013ff2e44a9eb050908
:100378002946384602f0a8fdb9f1000fead103f08a
:10038800a5f90546a5e74ff00008d9e74d46a0e7cf
:10039800a04700207cff0120ecff0120b04700208f
:1003a80000000020e05a0020484a5068484b586036
:1003b8009168996043463a46014402f029fe07468f
:1003c800002858d0836913b11b6803b19847404b84
:1003d8005e68ba6a1643fa6a1640d3f808803c6b1e
:1003e800b8f1000f32d0dff8f0a04ff0000bdff8c3
:1003f800ec90daf80050454528bf4546bb6993b1f3
:100408009b682a464946304602f0c2fe2e4425f033
:10041800030149444b468b4207d053f8042b9442be
:10042800f9d00220ace65b46ebe7b8eb0508e0d173
:100438000020a5e60320a3e60020a1e600209fe611
:1004480000209de600209be6022099e6002097e622
:100458004ff0ff3019e0012040f4e0201d4b1860f8
:1004680004210ee0002040f420201a4b18600022de
:100478005a60082105e02d0402202843154b186016
:100488000421144803f051f90020bde8f88fa06a50
:100498000343e06a1840d368002b7ff4e2ae0c4bac
:1004a8001d88002074e6826a49ea0209c06a09eade
:1004b8000000db68002b7ff4a1ae054b1d880020ef
:1004c80066e6034b1d88002062e600bfa0470020b7
:1004d800ecff0120905a0020e05a00200000002084
:020000040000fa
:1004e8002de9f04fadf27c4d0d46cb691b691c68b8
:1004f800c54e304603f014f9eb691b691022d96820
:10050800304600f09ffce4b2231d194602930027f1
:100518000097234606f108028946bc4802f038fbda
:10052800bb4e264404f10c023946304603f0a2f8cb
:1005380006eb040808f10c0b44223946584603f030
:1005480099f84fea490a5246394608f1500003f033
:1005580091f830223946af4803f08cf8dff8c082b2
:10056800d8f800304ff480725a80d8f800301a79e1
:1005780002f0fe0267f3c3021a71a7b29f824ff41a
:1005880080521a8207eb020909f10409a3f81290b4
:1005980007f608025600de8206f144029a835022ca
:1005a8001a70d8f800004cf2010303819a4b98475f
:1005b800d8f800301b8923b118460df27c4dbde8f0
:1005c800f08f30220021934803f054f88e4803f04e
:1005d800a7f8eb691b691022d9698b4800f032fc37
:1005e8000beb04030c33aaf1080a05930aeb030189
:1005f800069101f10803039303eb040a0af1040ac4
:100608004ff00008cdf800802346844a02995046ee
:1006180002f0befa7c4803f083f8eb691b691022ec
:10062800196a794800f00efca2440af1040acdf8d0
:1006380000802346794a0299504602f0a9fa4ff001
:10064800010c8df877c4a2440af1040acdf80080a1
:1006580001230df277420299504602f099fa6a484e
:1006680003f05ef8eb691b6910229969664800f08f
:10067800e9fbcdf800802346684a0299584602f003
:1006880087fa614803f04cf8eb691b691022196975
:100698005d4800f0d7fba2440af1040a0aeb040bf8
:1006a8000bf1040b0beb0403043304931819011d1d
:1006b8000846cdf800802346584a0299079002f070
:1006c80067faea699369cdf800809b0020320299a5
:1006d800504602f05dfaea69d2f84032cdf800805f
:1006e8009b0002f51272ddf808a05146584602f048
:1006f8004ffaea69d2f86834cdf800809b0002f519
:100708008e625146049802f043fa6b694ff0010c6f
:10071800cdf800c0a34228bf23462a695146039852
:1007280002f036fa0df5137c604602f0f9ff0df180
:10073800240c604602f0f4ff09ab93aae968a868a4
:1007480001f018fd034600287ff436af939bcdf8df
:1007580000809b0095aa5146059802f019fa099b5a
:100768000698001bcdf800809b000baa5146043068
:1007780002f00efae200079820442c324146043079
:1007880002f078ff264c2368a3f802802268578479
:100798004ff480539382a2f8169007f2044007ebb7
:1007a80080003b1803f118011182568207eb4701bc
:1007b8000b449bb2194489b201f1300ca2f81cc059
:1007c8002433138397841430d08307f10c03334404
:1007d800538334370f4417845523137020684cf221
:1007e800010303810f4b98472368188920b9ab6927
:1007f80001221a600346dfe648f202039842f9d163
:10080800ab6900221a60f5e700fc01200010010224
:100818000410010288fe01200900000208fc0120e2
:08082800b8fe01202d000002c2
:020000040000fa
:100830002de9f04f099f154604468e461e46002bb3
:1008400040f0cc808a42b2fa82fc4cd9bcf1000f55
:100850000bd0ccf1200801fa0cfe20fa08f802fabd
:100860000cf548ea0e0e00fa0cf44fea15491ffa8f
:1008700085f8befbf9fa210c09fb1ae30afb08fb19
:1008800041ea03439b452ad9eb180af1ff3004d211
:100890009b4502d9aaf102002b44a3eb0b03a4b29f
:1008a000b3fbf9f209fb123302fb08f844ea0344f4
:1008b000a04516d92c1902f1ff3303d2a04501d966
:1008c000931e2c44a4eb080443ea004027b124fa09
:1008d0000cf400233c607b603146bde8f08f50464d
:1008e000dbe71346eee702b9ffdebcf1000f2ed1c5
:1008f0008b1a01264fea154eaab2b3fbfef8210c63
:100900000efb183308fb02f941ea0343994561d90c
:10091000eb1808f1ff3004d2994502d9a8f1020082
:100920002b44a3eb0903a4b2b3fbfef10efb11337e
:100930004a4344ea0344a2424ed92c1901f1ff3341
:1009400003d2a24201d98b1e2c44a41abce7ccf1dd
:10095000200e02fa0cf521fa0ef901fa0cf320fa36
:100960000efe4eea03034fea154800fa0cf4b9fbf9
:10097000f8f11ffa85fe08fb1192180c01fb0ef628
:1009800040ea0242964221d9aa1801f1ff3003d26f
:10099000964201d9881e2a44921b9bb2b2fbf8f9f9
:1009a00008fb192209fb0efe43ea02439e450fd9bc
:1009b000eb1809f1ff3604d29e4502d9a9f10206cf
:1009c0002b44a3eb0e0346ea004693e70846e3e711
:1009d0004e46f6e74046a4e70b46b6e78b4206d9fb
:1009e000002f7ed00026c7e90001304674e7b3fa35
:1009f00083fcbcf1000f0fd18b4201d3824209d896
:100a0000841a61eb030e0120002f6dd0c7e9004e60
:100a1000002661e76046f7e7ccf1200e03fa0cf3fd
:100a200022fa0ef521fa0ef41d4301fa0cf320fa16
:100a30000ef10b434fea154a00fa0cf6b4fbfaf933
:100a40001ffa85f80afb19401c0c09fb08f144ea5f
:100a50000044a14202fa0cf23fd92c1909f1ff30ef
:100a600004d2a14202d9a9f102002c44641a9bb21b
:100a7000b4fbfaf90afb194409fb08f843ea0441fc
:100a800088452cd9691809f1ff3304d2884502d969
:100a9000a9f10203294443ea0040a1eb0801a0fbad
:100aa00002894945c2464c4602d306d1464504d286
:100ab000b8eb020a69eb05040138afb1b6eb0a03e3
:100ac00061eb040606fa0efe23fa0cf34eea03036a
:100ad00026fa0cf6c7e900369ae74846c6e74b46c1
:0c0ae000d9e73e463846f7e63e46f5e60c
:020000040000fa
:100aec00536c6f7430200000536c6f743120000015
:100afc00c2818fbb2861478ba2533779d463187c92
:100b0c008b4159a95f0b6b944eb957a103fe20bfc3
:100b1c002bb8142a64b5ae4a8380dde6ee2989dd54
:100b2c00a09ac7da82eb5662905d66c5bc303c84f5
:100b3c004d68656164657220736861323536204694
:100b4c0061696c6564210d0a000000004d686561e7
:100b5c006465722073686132353620566572696639
:100b6c00696564210d0a00004d65746168656164f6
:100b7c006572204543445341205665726966696528
:100b8c0064210d0a000000004d65746168656164a4
:100b9c006572204543445341204661696c6564216c
:100bac000d0a0000465720736861323536204661c5
:100bbc00696c6564210d0a004657207368613235f3
:100bcc0036205665726966696564210d0a0000005d
:100bdc004657204543445341205665726966696502
:100bec0064210d0a00000000465720454344534140
:100bfc00204661696c6564210d0a0000536c6f74aa
:100c0c0031204572617365640d0a0000536c6f747a
:100c1c0030204572617365640d0a0000536c6f746b
:100c2c003120436f7069656420746f20536c6f744e
:100c3c00300d0a00436f70792056657269666965dc
:100c4c00640d0a00436f7079204469666665720d05
:100c5c000a000000496e76616c696420536c6f74f5
:100c6c003120496d6167650d0a000000496e76619f
:100c7c006c696420536c6f743020496d6167650d2d
:100c8c000a000000444655204e6f77210d0a0000e3
:020000040000fa
:100c9c00d0ff01201c00000000000000bdfe012060
:100cac000100000000000000ecff01201400000017
:100cbc00000000007cff0120040000000000000088
:100ccc00a04700201010000000000000905a0020e7
:100cdc001800000000000000b057002000020000c7
:100cec000000000000000020a01f00000000000019
:100cfc00e05a002004000000010000000010000079
:100d0c00befe0120020000000000000074ff012064
:100d1c000800000000000000a01f002000140000cc
:100d2c0000000000a03300200014000000000000b0
:100d3c0090ff01204000000000000000a85a002095
:100d4c000800000000000000505a00204000000085
:100d5c0000000000b0590020a000000000000000be
:100d6c00c05a00202000000001000000064a136851
:100d7c0023f49f7323f0010343f011031360092341
:100d8c0000bf013bfcd1704700240144b05a002045
:100d9c00040000000000000088fe0120300000006c
:100dac0000000000bcfe012001000000000000005b
:100dbc00b8fe01200400000000000000c0fe01206d
:100dcc00400000000000000000ff01202000000097
:100ddc000000000080ff0120100000000000000057
:100dec0000fc0120280200000000000028fe012069
:100dfc006000000000000000bc5a00200100000050
:100e0c000000000020ff0120010000000000000095
:100e1c00b45a0020040000000000000024ff012050
:100e2c005000000000000000b85a00200400000030
:100e3c000000000000000000000000004444444496
:020000040000fa
:100e4c002de9f84305460c46174602f09dfb102f82
:100e5c0014d0b846bb1e3e2b00f29d8023782d2b60
:100e6c0064d04ff000092078002877d12b68002b34
:100e7c0000f08680c5f80490002381e023782d2ba8
:100e8c0006bf013401260026204602f0f9fb01289a
:100e9c0000f18c80204400210a461ce0a7f161037c
:100eac00dbb2052b71d8a7f15703dbb2202a08bfa0
:100ebc00013102f01f0287296adc05eb810e934099
:100ecc00def808703b43cef8083004320238031bbe
:100edc006046002b11db00f1ff3c10f8017ca7f100
:100eec003003dbb2092be1d9a7f14103dbb2052baf
:100efc00d4d8a7f13703dbb2d8e701312960002938
:100f0c0051d04a1e4b1c55f8233063b9013105eb07
:100f1c00810300e00246002a43d0501e53f8041d02
:100f2c000029f7d02a606e60002329e001344ff0cd
:100f3c00010998e7b74231dd2a464146284600f0c0
:100f4c00c2fc0346e0b92a463146284602f033f982
:100f5c000346a8b914f8010f002887d0242f02dc0f
:100f6c0002f0a4fbc0b230280dd0124b012613f8ae
:100f7c00012f8242ded00136402ef8d14ff0ff33e4
:100f8c001846bde8f8830026d6e74ff0ff33f7e7a5
:100f9c004ff0ff33f4e74ff0ff33f1e74ff0ff333f
:100fac00eee700232b6000236b60e9e70121296049
:080fbc00a7e700bf542d00005f
:020000040000fa
:100fc4004ff08842d2f8003113f4007ffad00023a6
:100fd400424901334a6a12f0010f11d1b3f5fa5fa5
:100fe400f7d13e4b5b6a13f0010f0cd13b4a5368b7
:100ff40043f480735360536a13f0010ffbd002e093
:10100400b3f5fa5fedd2364ab2f8ba3403f0fd0311
:10101400a2f8ba340022314901324b6a03f00303c7
:10102400032b13d0b2f5fa5ff6d12c4b5b6a03f0b5
:101034000303032b0dd0294a536843f40073536010
:10104400536a03f00303032bfad102e0b2f5fa5f0b
:10105400ebd24ff088430022c3f8b020214ac3f8f2
:10106400b02002f12b42a2f54b12a2f6ab42c3f818
:10107400b02003f520631c4a1a624ff480721a6090
:1010840001229a601a46136813f0010ffbd1174b23
:1010940048f20902c3f8502140f201221a674ff4c2
:1010a40000429a674ff08843114a1a6600221a6771
:1010b400c3f880200f4ac3f8c02047f2ce72c3f8a9
:1010c400e0204ff03332c3f8b020044b5a6842f0aa
:1010d40010025a604ff080721a607047004001415c
:1010e40000200141556699aa080100c0000a004485
:0810f40000900009cf0101206a
:020000040000fa
:1010fc001c0000000e000000445000005050000086
:10110c008c500000c85000000451000040510000f9
:10111c007c5100007c37000005000000d10000006d
:10112c00010000001e00000004000000b851000087
:10113c00c4510000045200004452000084520000cc
:10114c00c452000004530000743700000800000073
:10115c000b0200000100000020000000070000004e
:10116c00445300005053000094530000d853000027
:10117c001c54000060540000a4540000843700008c
:10118c00080000000e02000001000000300000000a
:10119c000f000000e8540000f45400005855000003
:1011ac00bc5500002056000084560000e856000094
:1011bc008c37000005000000d20000000100000088
:1011cc0042000000100000004c570000585700006f
:1011dc00dc57000060580000e4580000685900001b
:1011ec00ec5900009437000005000000d30000000b
:1011fc000100000000000000ffffffff00000000e6
:10120c0000000000000000000000000000000000d2
:10121c0000000000000000000000000000000000c2
:08122c000000000000000000ba
:020000040000fa
:101234002de9f04f83b007468b469046d0e91e2334
:1012440012eb080043f10001c7e91e0112f03f0947
:1012540028d0c9f14005454501d9002423e007f110
:1012640018042a46594604eb090002f0d4f9dff8c1
:10127400ccc007f1580e664620686168a268e3682e
:101284000fc61034b4467445f5d140222b49384674
:1012940000f0a6fc0446ab44a8f14008c8444ff053
:1012a400000900e00024b8f13f0f2bd91bf03f0fd9
:1012b4002fd00bf14006a8f140039a0901920bf1db
:1012c400800a23f03f039a44a6f14004dff86cc07f
:1012d400b646654620686168a268e3680fc51034a5
:1012e400ac467445f5d140221449384600f078fce8
:1012f40040365645e8d10446019b01330beb831b72
:1013040008f03f08b8f1000f0fd1204603b0bde844
:10131400f08f28f03f052a465946384600f060fc15
:101324000446ab4408f03f08ece707f118004246d6
:101334005946484402f06ff9e7e700bfc0fe0120b8
:020000040000fa
:10134400f0b5bdb0064630a802f05cf9309b002b26
:1013540071d09a6adc6a42f0847727409968b14276
:101364000bd29b69db6801213846984700b1fee740
:101374000e21324802f020f95de042f08072144000
:101384001988b6fbf1f295b201fb12620ab101357c
:10139400adb29b6933b1db6823b129462046984737
:1013a40000b1fee70e21264802f006f9309b9b6946
:1013b40043b15b6833b1324621464ff0847098479d
:1013c40000b1fee717211f4802f0f6f8684602f064
:1013d400d5f832464ff080716846fff729ff28a9f7
:1013e400684600f0abfd684602f0c8f832464ff09c
:1013f40084716846fff71cff20a9684600f09efd33
:10140400202220a928a802f003f880b90f210e4851
:1014140002f0d2f8309b9b69db682946384698472e
:1014240000b1fee70e21054802f0c6f803e00d21e5
:10143400064802f0c1f83db0f0bd00bf080c000042
:10144400180c0000280c0000400c0000500c000098
:020000040000fa
:1014540038b54ff088431c6a4ff0847002f0b6f838
:1014640030b10546b0f1ff3f49d02846fff768ff89
:101474004ff0807002f0aaf8013810f1030f43d83e
:101484002a4b013bfdd101f025ff01f057fd274b0d
:10149400013bfdd172b6264b4ff0ff32c3f88020da
:1014a400c3f88420c3f88820c3f88c20c3f89020a4
:1014b400c3f89420c3f89820c3f89c20c3f8802173
:1014c400c3f88421c3f88821c3f88c21c3f8902180
:1014d400c3f89421c3f89821c3f89c2162b6002371
:1014e40083f31488bff36f8f124b1b6883f3088850
:1014f400114b01221a70114b1b68984738bd1521f6
:101504000f4802f059f8b0e715210e4802f054f8dc
:10151400064b013bfdd104f400040b4945f2437230
:1015240000e00a80002cfcd1fee700bfffff0500ad
:1015340000e100e00002000120ff0120040200019c
:0c154400600c0000780c00000205004460
:020000040000fa
:101550002de9f047002966d00e460024334d344b68
:1015600000f1010c334fa64606e007f801909a609f
:10157000621c013496424cd96a6802f00702012ac3
:101580001cd09968d3f80c804a1cd3f810904a45b7
:1015900028bf002290453dd010f80490d5f8048073
:1015a00008f00708b8f1010fdfd14fea410807f84a
:1015b000119008f1010107f801e0d8e7d3f808809d
:1015c000d96808f10102d3f810904a4528bf0022db
:1015d00091421fd01cf8149010f8141041ea092110
:1015e000d5f8049009f00709b9f1010f05d0c9b287
:1015f00007f808109a60621cbbe74fea48095ffad7
:1016000081fa07f818a009f10108090a07f808107b
:10161000f0e7144601f018ff10b1044b01229a754f
:101620002046bde8f0870c46f4e700bf000c004000
:0816300090ff0120a03300200f
:020000040000fa
:101638002de9f04f83b00c680368a342b8bf234676
:101648001468a646882ca8bf4ff0880e1360002b9c
:1016580058dd0430043102f104084ff0000a4ff05d
:10166800000b4ff0000c50f8049f51f8044f002570
:1016780014eb090645f10007cde9006716eb0a06e9
:10168800019c44eb0b0448f8046f4ff0000ba24692
:101698000cf1010c6345e6d119465aea0b0005d056
:1016a800882b28d0023342f823404b1c13609e45f8
:1016b8000add981c02eb80001946002440f8044b10
:1016c80001318e45fad1dbb1591e581c52f8200061
:1016d80058b9013302eb830300e0214671b14c1e77
:1016e80053f8040d0028f8d01160536853600020a7
:1016f80003b0bde8f08f4ff0ff30f9e70023136027
:101708000023f3e7002313609c42c8bf0023d0dc0a
:02171800f6e7f2
:020000040000fa
:02171a00704716
:020000040000fa
:10171c00f8b5344c656b63689b6998476061606988
:10172c0001f0c8fed4e90a67321847f10003c4e996
:10173c000a23002d4cd094f83030013384f830302b
:10174c0001f0aefc646b2cb1a3681bb9012500271a
:10175c00244e11e0244d00242e4627461fe0e0695c
:10176c0001f092fbe3680bb120699847746b002c75
:10177c00f0d0a368002bedd125756575a37813b94e
:10178c00e368002bebd1204601f04ef8a378002b38
:10179c00e8d16770e6e701342035052c12d006eb52
:1017ac0044135b7d002bf6d006eb44135f75ab78ce
:1017bc00012bf0d16b6806eb44129360284600f0c5
:1017cc0007fce8e7074a92f83030013b82f83030ea
:1017dc0001f0baff044600f05bfa204601f0b8ffb6
:0c17ec00f8bd00bf505a0020b05900208a
:020000040000fa
:1017f8002de9f04f80469246d2f800900c680068b8
:101808001060002c49dd08f1040e043102f1040ccb
:1018180000231a461d465ef804bfbbeb030662ebc5
:10182800420751f804bfb6eb0b0267f100034cf80e
:10183800042f03f0010300220135ac42ebd1d8f8a4
:101848000010a14214dda51cad0008eb05065544a7
:10185800002756f8041bc91a62eb420245f8041b1c
:1018680002f001033a460134d8f80010a142f0dc36
:10187800a14508dda31c0aeb8303002243f8042bcf
:101888000134a145fad1d8b1431e421c5af822208e
:1018980082b901300aeb800004e000231a461c4696
:1018a800cde70b464bb1591e50f8042d002af8d04d
:1018b800caf80030daf8043003e00023caf8003030
:0a18c8000023caf80430bde8f08fd9
:020000040000fa
:1018d2002de9f04fd2f80080d0f800a0c2f800a0a5
:1018e200d0f804b0c2f804b00368002b54dd00f154
:1018f200040c131d4ff0000e00240025f14600e0f9
:10190200b6465cf8046fe1fb06452f4643f8044fe8
:101912003c464d460ef101060768b742f0dc54ea38
:1019220005030ad0882f2bd00af1010313600af1b4
:10193200020a42f82a400ef10206b0450cdd872e5b
:101942000adcb31c02eb8303002143f8041b0136bb
:10195200b04501d0882ef8d11168b1b14b1e481c98
:1019620052f8200098b9013102eb810100e02346d0
:101972004bb15c1e51f8040d0028f8d0136006e04c
:101982004ff0ff3006e0002313604ff0000bc2f867
:1019920004b00020bde8f08fb8f1000fc8bf0026e8
:0419a200cfdcd9e7d6
:020000040000fa
:0219a600704788
:020000040000fa
:1019a800002950d0f8b50e4600284fd1294c012304
:1019b80084f838300b686360db689847e060074656
:1019c8000021c300420f1b1a62eb0102550145ead0
:1019d800d3655801181842eb05051f4a0023c019a2
:1019e80045eb010101f08efb0230206296f90430cc
:1019f8002372002121614ff6ff73a36147f6ff733d
:101a0800e36100220023c4e90a23616384f83010eb
:101a180063681b681148984763681b690bb1208b82
:101a280098470c4ce06963685b6980b298476368c3
:101a38005b689847a0220021094801f01bfe022399
:101a480023702046f8bd4ff0ff3070474ff0ff304d
:101a5800f8e700bf505a00200090d0031d1700007f
:041a6800b059002051
:020000040000fa
:101a6c00f8b5002855d00546002955d00c682368d8
:101a7c0083421cbf002384f82430206094f8243067
:101a8c0022ea03061a4384f8242016f0010f0fd122
:101a9c00002716f0020f13d116f0080f19d116f00b
:101aac00100f1fd116f0200f24d167bb3846f8bd9c
:101abc000123221dc168204601f040f80746e8e7e3
:101acc00022304f108022969204601f037f8074483
:101adc00e2e7082304f10c02a969204601f02ef874
:101aec000744dce71023e218e969204601f026f8e8
:101afc000744d7e7202304f11402296a204601f099
:101b0c001df80744d1e7204600f070f96ff06e071e
:0e1b1c00cce76ff0ac07c9e76ff0ac07c6e787
:020000040000fa
:021b2a00704702
:020000040000fa
:101b2c00f8b52a4e2a4c4ee0226a002a3ad0616a55
:101b3c00236a38469847a36a0133226b934228bf25
:101b4c0000232fe0a06a4200efb2224901f8107086
:101b5c000132c5f307258d5430e001f07bfc236a7c
:101b6c00002b30d0616a94f83c3033b1a36b9842af
:101b7c0029d3236a0020984725e0a36b984222d1f1
:101b8c00236a002098471ee0337e13f0040f1cd00c
:101b9c00b56aa36a0133226b934228bf0023e26a21
:101bac009a42c1d0e26a9a42eed0726802f0070201
:101bbc00012ac7d0a26aedb206498d54a36294f8eb
:101bcc003430002bc9d10127dee7f8bd000c0040f2
:081bdc0090ff0120a01f002072
:020000040000fa
:101be4002de9f843054688469146284c0423636052
:101bf40081609309013b0361254f03463e4653f838
:101c0400080f59689a68db680fc61021384600f03f
:101c1400f6fb4946404600f0f2fbbff35f8f2763b3
:101c240043f2040323601b4b6363ab6da363eb6d4f
:101c3400e3632b6e23646b6e6364ab6ea364eb6e21
:101c4400e3642b6f23656b6f63650123236163601a
:101c54002246d36913f00f0ffbd00c4b02225a60bb
:101c640004225a600b4c20212046fff75cffbff38f
:101c74005f8f0fcca865e9652a666b660fcca866f2
:101c8400e9662a676b670020bde8f883002c0042f0
:081c940080ff012000ff012088
:020000040000fa
:101c9c002de9f8432a4b5a6b59691961002a40d037
:101cac009368b3f5004f33d3254b5b6947f6ff744c
:101cbc00002514eb030845f10009214e73689b695c
:101ccc00984782b200233169814206d94ff6ff71e1
:101cdc0052184ff0000141eb03031949096a5618d9
:101cec0043f10007b94508bfb04524d20a44144b50
:101cfc00da61134bdb699bb213b9114b0122da6128
:101d0c000f4bd8695b685b6980b29847bde8f88374
:101d1c0094680b4b5b69002514eb030845f1000933
:101d2c00cbe7074b5b6947f6ff74002514eb030800
:101d3c0045f10009c1e7024bc3f81c80d9e700bf8d
:041d4c00505a0020c9
:020000040000fa
:101d500070b582b0254d264c264e14e0f25c8df80d
:101d60000620013322699a4298bf0023e3606b6822
:101d700003f00703012b14bf9df80630bdf80630b1
:101d8000ab62237dbbb92b7e13f0010f2cd0a26870
:101d9000e3689a4225d06a6802f00702012addd181
:101da0005a0016f813108df806100132b25c8df847
:101db00007200133d6e701f0bbfb2368002be2d0fc
:101dc0006168237f33b1a3699842dcd32368032081
:101dd0009847d8e7a3699842d5d12368032098474c
:101de000d1e7024b01221a7502b070bd000c004011
:081df00090ff0120a033002048
:020000040000fa
:101df800002850d010b5044690f8243013f0010f95
:101e080017d194f8243013f0020f1dd194f8243020
:101e180013f0080f23d194f8243013f0100f29d1b0
:101e280094f8243013f0200f2fd1002384f82430a5
:101e380010bd406808b101f073fc94f8243023f019
:101e4800010384f82430dce7a06808b101f068fcdd
:101e580094f8243023f0020384f82430d6e7e068ad
:101e680008b101f05dfc94f8243023f0080384f8ed
:101e78002430d0e7206908b101f052fc94f82430ee
:101e880023f0100384f82430cae760690028ccd016
:081e980001f046fcc9e77047a8
:020000040000fa
:101ea0002de9f041adf6f82d06460f46144698464a
:101eb00002ad019528220021284601f0dffb0cab82
:101ec000ab610523eb61acb3beb30023a360424614
:101ed0003946204600f096fa0546f8b9ddf8103b81
:101ee000e360d4f8b83813f1020f0ad04346224613
:101ef0003946304600f0d6fb05466ff487739842aa
:101f00000cd104f5d266304601f002fc054650b112
:101f1000304601f043fc0198fff76eff28460df6ae
:101f2000f82dbde8f0813b2201a92069fff79efd55
:101f30000546ede76ff0ac05f0e76ff0ac05ede7b7
:020000040000fa
:101f400070b582b005460c46826fc36fdb0043ea72
:101f50005273d100180e8df80000180c8df8010096
:101f6000180a8df802008df803300b0e8df804303e
:101f70000b0c8df805300b0a8df806308df8071024
:101f800002f03f02372a94bfc2f13802c2f1780250
:101f9000d2b211492846fff74df908226946284672
:101fa000fff748f92b4653f8586f58689968da6874
:101fb00026606060a160e2601e6958699969da690b
:101fc00026616061a161e26100221146284600f0ad
:0c1fd0008ffa02b070bd00bf08230000b3
:020000040000fa
:101fdc0030b32de9f0418646204b5a6bd0f808807f
:101fec00c2b193684046002198451bd300240025bc
:101ffc009368e41845f100059369dbb1d3f808c088
:10200c0014eb0c0645f10007b94208bfb04211d3de
:10201c001a46ede7c0f80880104b586301201ae00f
:10202c00002070470d4bc3f834e0cef81820002484
:10203c00012004e0cef81830c2f818e00020a8eb1c
:10204c000404cef80840def8183023b1def808108e
:10205c009a68521a9a60bde8f08100bf505a00206d
:020000040000fa
:10206c0008b5194b9847194b9847eff3108172b686
:10207c00174ad2f8883043f47003c2f88830bff3a3
:10208c004f8fbff36f8f01b962b6124a936823f07a
:10209c00010393601346da6812f0010ffbd10d4b6c
:1020ac0024225a6001229a6001f082fb0a4b23f031
:1020bc007f03074a9360094b9847094b9847094b94
:1020cc00984701f0ecfafee7dd330000ef24000046
:1020dc0000ed00e00020004100000000ed280000b1
:0820ec00ef240000ef240000c6
:020000040000fa
:1020f40038b51a4b93f9000000b138bd184c3022a2
:102104000021204601f0b8fa164d2c605b232370a1
:102114004cf2010323812046134b98472a68138904
:10212400002bfdd11169114b994206d00b4bff22b4
:102134001a700a4b93f90000dfe791690c4b99423e
:1021440003d0064bfe221a70f3e7d269094b9a4278
:10215400024b14bffd2201221a70eae7bcfe0120e3
:1021640088fe0120b8fe012055000002000107048a
:08217400d2dd706e4fd6c825c4
:020000040000fa
:10217c00f0b583b005460c4616461f460023019366
:10218c0000930b466a4601a901f0a0f900282adb4e
:10219c00019b009a1344a34228d1234601aa294645
:1021ac00304600f023fc002823db234601aa2946f5
:1021bc00384600f01bfc002806db019ba34208bf3d
:1021cc00002007d103b0f0bd304601f0a7fa6ff044
:1021dc00aa00f7e7304601f0a1fa384601f09efa62
:1021ec006ff0aa00eee76ff0aa00ebe76ff0aa0021
:0821fc00e8e76ff0aa00e5e737
:020000040000fa
:102204002de9f0411c4ad36a956a89b30e46ab4264
:1022140008bf002227d00122dff864c0174ca0f1c8
:10222400020e0138144f0ce0e15c81540133396b28
:10223400994298bf0023b24214d2511cab4212d02f
:102244000a46dcf8041001f007010129ecd1590019
:1022540014f813800ef812800131615c00f812103a
:102264000133e4e71d46044bdd621046bde8f0810e
:102274001d460a46f7e700bf90ff0120a01f00207b
:04228400000c00400a
:020000040000fa
:102288001c4b1d4a1a604ff6a0029a814ff4403247
:102298005a601a46d369002bfcd1164a136843f0da
:1022a80002031360d369002bfcd1144b00221a627d
:1022b8009a62da6283f8342083f83c209a63da87da
:1022c8001a609a60da601a751a779a61094b5b6826
:1022d80003f00703012b094b14bf4ff4a0524ff42e
:1022e80020621a631a61034b80229a7504229a7538
:1022f800704700bf000c00400401124090ff01200d
:020000040000fa
:102308008000000000000000000000000000000045
:1023180000000000000000000000000000000000b5
:1023280000000000000000000000000000000000a5
:102338000000000000000000000000000000000095
:102348000000000000000000000000000000000085
:102358000000000000000000000000000000000075
:102368000000000000000000000000000000000065
:102378000000000000000000000000000000000055
:020000040000fa
:10238800f0b40c6800251560661c9e4229d8051912
:10239800005d10f0800f0bd13746049c14b1c419ae
:1023a8009c4227d80f60002800dd1060f0bc704701
:1023b80000f07f0037189f4216d8042817d868b154
:1023c8002c460544002014f8016f46ea0020ac4270
:1023d800f9d10028e1da6ff08b00e7e737460020f3
:1023e800e0e76ff08300e1e76ff08300dee76ff06e
:0a23f8008b00dbe76ff08300d8e7ed
:020000040000fa
:02240200704721
:020000040000fa
:1024040060b370b4064600290bdd422929dc7368e9
:10241400b3f1ff3f28d000237360336115481c24b7
:102424000ae0002af3da6ff0ac0012e0a14208dd02
:10243400013350f8344f74b1002af7dd45689542f2
:10244400f6d19cb173600b4a342101fb0323336141
:10245400002070bc70476ff0ab00fae76ff0ac007f
:1024640070476ff0a900f4e70020f2e76ff0ab00cb
:08247400efe700bffc100000bf
:020000040000fa
:10247c002de9f04395b01d9d55b31e4691468846f7
:10248c000746d5f8b80800f023fe044618b3436895
:10249c0023b32c22002109a801f0eaf803230193ad
:1024ac00052302930397cdf81080cdf8149006966f
:1024bc001c9b079308956368a26801a9206898473c
:1024cc0010f1ae0f08bf6ff4877015b0bde8f08344
:1024dc006ff48770f9e76ff48770f6e76ff4877025
:0224ec00f3e714
:020000040000fa
:0224ee00704735
:020000040000fa
:1024f00010b504465822002101f0c0f804232373cc
:102500004ff00003012262f3061363730d4ba365c2
:1025100003f1ee5303f5052303f65163e3650a4b1c
:1025200023660a4b63660a4ba3660a4be3660a4bb3
:1025300023670a4b636700220023c4e91e2300209f
:1025400010bd00bf6a09e6673c6ef372a54ff53a0d
:10255000510e527f9b05688c1f83d9ab5be0cd1970
:020000040000fa
:1025600070b505460c46164601f014f8b6f5087f1e
:1025700004dda6f508734ff408761c44f31c9b0891
:102580002b60002e09dd06f108032b44a21914f874
:10259000011b03f8011d9442f9d12a68b2b1531e00
:1025a000511c55f8211059b9013205eb820200e0a7
:1025b00003464bb1581e52f8041d0029f8d02b6079
:1025c0006b686b60002070bd00232b600023f8e770
:020000040000fa
:1025d00070b582b006460d46144601220192009362
:1025e00023460a46022100f0dbf9002820db23689d
:1025f000012b1cdd2b68f25cff2a0fd0e2b90133fe
:102600002b602368013b2360002b13dd2b68f356fe
:10261000002bb4bf00206ff08b0009e01e4496f938
:102620000130002bb4bf6ff08b00002000e00020d1
:0c26300002b070bd0020fbe70020f9e7bd
:020000040000fa
:10263c00174bda6822f4e0621204120c42f0bf620b
:10264c0042f40032da60bff35f8f62b6114ae021c8
:10265c0082f803130820106082f80c134ff480509a
:10266c00106082f816134ff4800111605a6a42f41c
:10267c0080225a625a6942f010025a615a6a42f434
:10268c0000325a625a6a42f480325a62704700bf72
:08269c0000ed00e000e100e0a8
:020000040000fa
:1026a4004ab32de9f04194b0144698460f460646c5
:1026b400d2f8b80800f010fd0546f8b1436803b33a
:1026c4003422002107a800f0d7ff03230193092334
:1026d4000293039604970594cdf818806b68aa6852
:1026e40001a92868984710f1ae0f08bf6ff48770ee
:1026f40014b0bde8f0816ff4877070476ff4877091
:08270400f6e76ff48770f3e7bc
:020000040000fa
:10270c0002680b689a4220dc21db531e22d430b4c1
:10271c009c1c50f8245051f82440a5421cd81dd3c1
:10272c009200043210441144013bb3f1ff3f09d035
:10273c0050f8044d51f8042d944212d8f4d24ff0b5
:10274c00ff3000e0002030bc7047012070474ff094
:10275c00ff307047002070470120f4e74ff0ff3046
:06276c00f1e70120efe798
:020000040000fa
:02277200fee780
:020000040000fa
:1027740070b54ff088431c6a114910224a609a6967
:1027840042f400329a610b6a13f0100f02d0fef784
:102794005ffefee70a210b4800f00eff0a4b013be7
:1027a400fdd100f0bbfd04f40004084e45f243756e
:1027b40000e0358000f001fe002cfbd0f9e700bffb
:1027c40000230044900c0000ffff020002050044b7
:020000040000fa
:1027d40070b5144b144a0021934206d3134a0025c2
:1027e400d2e9003123b919b970bd03f8011bf3e72d
:1027f400946858180c3294b11446834208d111f0ed
:10280400030318bf012303eb910102eb8102e7e705
:1028140014f8016b03f8016befe703f8015b8342e3
:10282400fbd1dde700000020000000209c0c00002c
:020000040000fa
:10283400154b5a6b1ab310b40146824204d1836912
:10284400abb1002206e01a469369d3b19942fad19a
:102854008b6923b18c689868204498604ab18b696d
:102864009361002000238b615df8044b70471a4686
:10287400f4e7054b5a6b92695a630120f2e7002092
:0c28840070470020f0e700bf505a002011
:020000040000fa
:1028900008b5124b9847fef795fb114a136823f4cd
:1028a0009f7323f0010343f011031360fff77bf8dc
:1028b000fef733fffff7e8fc00f08efa00f02efe83
:1028c00008490020fff770f8074b186000f04efe33
:1028d00000f024fffff7b2fe08bd00bfc15a002080
:0c28e0000024014464370000b05a0020be
:020000040000fa
:1028ec000e4a38b5002313600d4a0e4c13600e4a85
:1028fc000e4d13600e4a13600e4a13600e4a53625b
:10290c0013610123936000f0defe00f0dcfeac42ac
:10291c0000d338bd54f8043b9847f8e7b85a002068
:10292c0030ff01200c0100002cff012010010000e1
:0c293c0024ff012028ff012034ff0120af
:020000040000fa
:1029480008b5144b9b7df3b1124a137edbb2927d1e
:1029580012f0800f18d10f4a137edbb2927d12f06d
:10296800010f04d013f0010f01d0fff7edf9094a68
:10297800137edbb2927d12f0040f04d013f0040f23
:1029880001d0fff7cff808bd13f0800fe3d000f0b7
:082998004df9e0e7000c0040de
:020000040000fa
:1029a000f0b587b006460d4614461f4613680593da
:1029b0000c9b0df1130205a900f0defa98b99df801
:1029c0001330ab4212d10d9b00930c9b03aa05a9b7
:1029d0003046fff7d9fc00280bdb03983860059bd5
:1029e000236007b0f0bd6ff08b00fae76ff08b004b
:0829f000f7e76ff08b00f4e73c
:020000040000fa
:1029f80070b582b006460c461546126801926a46c2
:102a080001a92046fff7e0fd034610b1184602b0c1
:102a180070bd304600f078fe90b9009a01992144c3
:102a2800304600f0bbfe034620b9019a00990a44db
:102a38002a60ebe7304600f073fe6ff08d03e5e7a0
:062a48006ff06d03e2e7f0
:020000040000fa
:022a4e00fee7a1
:020000040000fa
:102a50002de9f04780460f46914600f0fffd3e46c7
:102a6000d7b100260e4c4d464ff0010a09e04b4508
:102a700012d85146fff7c6fb002323700136b74238
:102a80000ad008eb06002378002bf2d1013322781c
:102a9000002aecd1ab42f9d93046bde8f08700bf3f
:042aa000bdfe012056
:020000040000fa
:102aa400f0b4124b1880124800f5806700221646d5
:102ab40041f2210506e040f8043f02f5807292b22b
:102ac400b84210d011460824334683ea010c1cf4a2
:102ad400004f14bf85ea43035b009bb2490089b2ef
:102ae400013cf2d1e7e7f0bc704700bfbefe012015
:042af400ac570020bb
:020000040000fa
:102af8002de9f04121f00f0112f00f0f08d05442d8
:102b080002f00f0304f00f0458bf6342d21a1032c8
:102b1800144656188518a6eb04082f1b002c0add4e
:102b280000f090fd0028fbd14146384600f070fbcc
:102b380020b1103cefe70020bde8f0810120fbe761
:020000040000fa
:102b48002de9f041046ac569ac421ed21f461646fb
:102b5800884605468069631c2b624ff40a7303fba1
:102b68000400106000f0d0fd034610b11846bde81f
:102b7800f08195f824301f4385f8247010224146cf
:102b88003068fef75ff90346f0e76ff0a903ede759
:020000040000fa
:102b98002de9f04105460e46144698469df81870f2
:102ba8000a46002100f066fd3046464528bf4046eb
:102bb80057b938b1013d231814f8016b05f8016fb6
:102bc800a342f9d1bde8f0810028fbd005442318c1
:0e2bd80014f8016b05f8016d9c42f9d1f2e78b
:020000040000fa
:102be600f0b170b582b0044615460e4640f60412a2
:102bf600002100f040fd0023c4f8b858019300936b
:102c060004f58d6304f5107204f1180104f5d26021
:102c160000f0fff8034638b96661184602b070bd89
:0e2c26006ff0ac03184670476ff07c03f5e7c3
:020000040000fa
:102c340008b5104b5b8b13f0070300d108bd0e4a97
:102c4400d3870c4b80221a7607225a831b7e13f0fb
:102c5400040f05d0074b9a6a1a7e12f0040ffad1ba
:102c6400054b1b6a002be9d0034b596a1b6a0220ef
:0c2c74009847e3e7000c004090ff0120af
:020000040000fa
:102c80002de9f0414768d1f80480474510d004464b
:102c90000d461646fff73afdb0f1ff3f0cd07760c6
:102ca000324629462046fef7a7fd0020bde8f08108
:102cb0005760fef7c1fcf9e7c6f8048032462146aa
:0a2cc0002846fef799fd0020f0e71a
:020000040000fa
:102cca0070b582b0069d079c88b1064692b1a5b13f
:102cda00b4b1d4f8b80810f1020f02d1002002b042
:102cea0070bd304601940095fff7c3fbf7e76ff01c
:102cfa00a900f4e76ff0a900f1e76ff0a900eee789
:062d0a006ff0a900ebe7e9
:020000040000fa
:102d100038b5044600f066fc002c16db63090c494c
:102d200051f8235004f01f04e54005f0010501228d
:102d300002fa04f4203341f82340bff34f8fbff36e
:102d40006f8f00f058fc284638bd0025f9e700bf1a
:042d500000e100e0be
:020000040000fa
:102d540030313233343536373839414243444546cd
:102d64004748494a4b4c4d4e4f5051525354555677
:102d74005758595a6162636465666768696a6b6c1f
:102d84006d6e6f707172737475767778797a2b2f94
:042d9400000000bf7c
:020000040000fa
:102d980010b5054c227832b9044b13b10448aff38f
:102da80000800123237010bdd0ff01200000000027
:102db8000000000008b5034b1bb103490348aff3fb
:102dc800008008bd00000000d4ff012000000000c2
:020000040000fa
:102dd8000d4b01221a601a46136913f0010ffbd13b
:102de800094b10221a6003221a734ff6ff129a83b6
:102df80033229a72054a0021116020225a721a461b
:102e08001369002bfcd1704700200040a85a00200d
:020000040000fa
:102e1800f8b50c4617461e46069d08b100f0b6fbed
:102e280014b1204600f0b2fb17b1384600f0aefbf3
:102e380016b1304600f0aafb15b1284600f0a6fbf3
:0e2e4800079b13b1184600f0a1fb0020f8bd57
:020000040000fa
:022e5600fee795
:020000040000fa
:102e5800431e13f1030f0fd883b2042b0ed80a4a6e
:102e680002eb4312d26982420ad15a0106498a5cae
:102e780042b101eb431070470020704700207047b3
:0c2e88000020704700207047b059002067
:020000040000fa
:102e940010b5044600f036f8b0b12046fff7daff6b
:102ea400044678b1437843b90020207560752070da
:102eb400044600f0fdf9204610bdfff7b9fc0023dd
:0c2ec4006370f1e70124f4e70124f4e757
:020000040000fa
:102ed000a1b110b40a4b1b8841180a4c10f8012b01
:102ee00082ea132254f8222082ea03239bb288420a
:102ef000f4d1034a13805df8044b7047704700bf5c
:082f0000befe0120b0570020c5
:020000040000fa
:102f08000c4b93f830309bb90a4b93f83830012baf
:102f180001d00020704710b5064c002384f83830e3
:102f280094f90800fff7f0fe84f83100012010bd85
:082f380001207047505a0020ef
:020000040000fa
:102f40000c4b0822c3f88020bff34f8fbff36f8f65
:102f50004ff48052c3f88020bff34f8fbff36f8fc1
:102f60004ff48002c3f88020bff34f8fbff36f8f01
:082f7000704700bf00e100e022
:020000040000fa
:102f78006ab130b4154669b178b10c68621c9a42de
:102f88000ed8035d2b700a60002030bc70476ff0cc
:102f9800ac0070476ff0ac00f7e76ff0ac00f4e7f7
:062fa8006ff08300f1e769
:020000040000fa
:102fae0038b505460c46c0f30b037bb964b100f08f
:102fbe0046fb0028fbd1284600f08bfb40b1013cbc
:102fce00a4b205f58055f1e7002000e0022038bddf
:042fde000120fce7eb
:020000040000fa
:022fe200fee708
:020000040000fa
:102fe40000100004000000010000100002000000b6
:102ff400403300000000f00008350000010000002c
:10300400b8370000fe0fffff00000000ffffff0fb6
:04301400ffffffffbc
:020000040000fa
:10301800abb1f0b405461e46043a002402e0013480
:10302800b44209d052f8040f4368ab42f7d8476955
:103038003b448b42f3d300e00020f0bc70470020f3
:023048007047cf
:020000040000fa
:02304a00fee79f
:020000040000fa
:10304c0038b5eff3108572b6084c20634ff480430b
:10305c0063600f2262601140a160a36000f012f95e
:10306c004ff40043a36085f3108838bd000600447c
:020000040000fa
:10307c004ff088430022c3f8b020084ac3f8b020b0
:10308c0002f12b42a2f54b12a2f6ab42c3f8b020d0
:10309c0003f5206301229a641b6cfee7556699aa1e
:020000040000fa
:1030ac000a4b5b6b73b168b1002105e09a68801a1a
:1030bc0099609b6933b128b19a688242f6d39a68b9
:1030cc00101a9860014b5a691a617047505a0020c7
:020000040000fa
:1030dc000a4b1b6898420ad0084a0123d1688142e6
:1030ec0006d001330c32082bf8d100207047002396
:1030fc0003eb4303014800eb8300704728fe0120db
:020000040000fa
:10310c0053b94ab9002908bf00281cbf4ff0ff3142
:10311c004ff0ff3000f04ebbadf1080c6de904ce62
:10312c00fdf780fbddf804e0dde9022304b0704715
:020000040000fa
:10313c0070b505460c461646fef7d6ff002808db90
:10314c006368052b08d1324621462846fdf7c6f99f
:0e315c0070bd6ff48770fbe76ff48770f8e7c3
:020000040000fa
:10316a0070b506460d461446fff7b3ff034620b175
:10317a001e605d609c60002070bd6ff00100fff76b
:0e318a00a8ff03460028f3d16ff08300f4e79e
:020000040000fa
:1031980093b1f8b51f4616460d4604460021284649
:1031a80000f068fa3346224629460020b84700282e
:0a31b8000cbf28460020f8bd704748
:020000040000fa
:1031c20070b5adf50a7d04460e461546684600f018
:1031d200e0f93146684600f08af92a4669462046f7
:0a31e200fff74dfd0df50a7d70bded
:020000040000fa
:1031ec00012911d930b44d080139014401380023ab
:1031fc000a7810f8014f01f8014902700133dbb273
:0a320c00ab42f5d330bc70477047a9
:020000040000fa
:02321600fee7d1
:020000040000fa
:1032180008b5024608461168064b196451681965d5
:1032280091681966d2681a670221fff70bff01201f
:0832380008bd00bf00060044c0
:020000040000fa
:10324000084a537943f080035371136913f0040f54
:10325000fbd1044a537913f0e00ffbd1014b988a5c
:08326000704700bf0020004090
:020000040000fa
:1032680008b510b1012805d008bd0621044800f0b2
:10327800a1f9f9e70621034800f09cf9f4e700bf3b
:08328800ec0a0000f40a00004a
:020000040000fa
:10329000064b00221a62064a1a6202f12b42a2f57c
:1032a0004b12a2f6ab421a62704700bf0006004400
:0432b000556699aa1c
:020000040000fa
:1032b40010b5074c94f8311094f9080000f04ef85a
:1032c40094f8303013b9012284f8382010bd00bfbf
:0432d400505a00202c
:020000040000fa
:1032d800074b00221a609a815a601a46d369002b5c
:1032e800fcd1034bbf221a7500221a76704700bf23
:0432f800000c004086
:020000040000fa
:1032fc0008b50b68032b06d14b68043b012b05d892
:10330c00fff716ff08bd6ff48770fbe76ff487704b
:02331c00f8e7d0
:020000040000fa
:02331e00fee7c8
:020000040000fa
:1033200008b50121084600f0a7f8012000f0def9f9
:103330000021024800f0e0f908bd00bf2d36000072
:020000040000fa
:1033400000000001ffff0700000000000100000076
:1033500000008001ffff07000000000001000000e6
:020000040000fa
:1033600051b1002808db420900f01f00012303fad5
:1033700000f0024b43f82200704700bf00e100e07c
:020000040000fa
:1033800008b5064b1b7813b1012b04d008bd034bc5
:1033900001221a70fae7fff7edf900bfbc5a0020ce
:020000040000fa
:1033a00000230360436000f1080200f50a7019462b
:0e33b000134603f8011b1a468342f9d17047f9
:020000040000fa
:1033be0000b58db0684600f020f9009b23b19df852
:0e33ce002c10684600f078f90db05df804fb95
:020000040000fa
:1033dc0008b5044b1b6b13f4806f02d0024b1b68b7
:0c33ec00984708bd000a004404020001dc
:020000040000fa
:1033f8000537000091340000a93400004d37000063
:0c3408004535000059350000413200003d
:020000040000fa
:1034140030b501390024a24206d0035d01340d5dac
:0c342400ab42f8d0581b00e0002030bd87
:020000040000fa
:1034300008b5044b1b681bb1024b58681b689847c2
:0834400008bd00bf74ff01206c
:020000040000fa
:10344800044a9368d06883423ebf024a12699b18b7
:08345800181a704790ff0120d3
:020000040000fa
:10346000044bd86a9b6a984282bf024a126b9b182f
:08347000181a704790ff0120bb
:020000040000fa
:10347800044b93f8342083f8340083f83c1010464a
:08348800704700bf90ff012016
:020000040000fa
:10349000044a136843f002031360136913f0020f28
:0834a000fbd170470020004041
:020000040000fa
:1034a800044a136823f002031360136913f0020f30
:0834b800fbd170470020004029
:020000040000fa
:1034c000044b1b69834232bfc01ac3f58033c01856
:0834d000704700bf505a0020b4
:020000040000fa
:1034d80010b582b001240194009313460a463021a6
:0834e800fff75afa02b010bd13
:020000040000fa
:1034f00038b505460c4600f04df8ac60003418bff6
:0635000001242c6038bd1f
:020000040000fa
:0235060070470c
:020000040000fa
:103508003b370000f92a00009d360000af2f00006d
:04351800b3370000c5
:020000040000fa
:10351c0008b5034b186b0021fff792fd08bd00bfe7
:04352c000006004451
:020000040000fa
:1035300010b5034b1c69fff787ff013c201a10bd33
:0435400090ff0120d7
:020000040000fa
:10354400034b98831a46136913f0400ffbd170475d
:043554000020004013
:020000040000fa
:10355800034bd8831a46136913f0800ffbd17047c9
:0435680000200040ff
:020000040000fa
:10356c0008b5002202491046fff7f9fd08bd00bf5f
:04357c00fd3200001c
:020000040000fa
:1035800010b5044600f012f9024600212046fef76d
:04359000afff10bdbc
:020000040000fa
:1035940008b50021016041604ff40872083000f062
:0435a4006bf808bdfb
:020000040000fa
:1035a80008b50021016041604ff40872083000f04e
:0435b80061f808bdf1
:020000040000fa
:1035bc0008b5034b1b7803b108bdfdf7c3fffbe750
:0435cc0020ff0120bb
:020000040000fa
:1035d00000b5adf6b44d01a902f04afa0df6b44dae
:0435e0005df804fb93
:020000040000fa
:1035e400eff3108072b6bff35f8fb0fa80f040093a
:0235f40070471e
:020000040000fa
:1035f60018b1bff35f8f62b6704772b6bff35f8fc5
:0236060070470b
:020000040000fa
:1036080010b5044600f09af82060012384f82c30a5
:0236180010bde3
:020000040000fa
:10361a0010b500239a4200d110bdcc5cc4540133ca
:02362a00f8e7bf
:020000040000fa
:10362c0010b9024b01221a70704700bfbdfe012079
:020000040000fa
:10363c0008b513460a461946fff7e9ff012008bdf5
:020000040000fa
:10364c00024b1868c0f3c030704700bf000600443e
:020000040000fa
:10365c00024bd88f0022da87704700bf90ff012001
:020000040000fa
:10366c0010b582b000240094fef714fc02b010bd1b
:020000040000fa
:10367c0002440346934200d1704703f8011bf9e75b
:020000040000fa
:10368c0003461a46013311780029fad1101a7047f3
:020000040000fa
:0e369c0008b508461946fff7cbff002008bd11
:020000040000fa
:0e36aa0008b50020fff7eff800f05bf8fce732
:020000040000fa
:0e36b800a0f16103192b98bf00f05f0070476e
:020000040000fa
:0c36c60008b511b108b1fcf72cfd08bddf
:020000040000fa
:0236d20070473f
:020000040000fa
:0c36d400014b1888704700bfbefe0120ab
:020000040000fa
:0c36e00008b50421fff7b2fc012008bd72
:020000040000fa
:0c36ec0008b1014a9063704790ff012074
:020000040000fa
:0c36f800014b18625962704790ff0120de
:020000040000fa
:0c370400014b186059607047a85a002063
:020000040000fa
:0c37100008b508b1fff73eff002008bd1f
:020000040000fa
:0c371c00014b00221a707047bc5a0020bc
:020000040000fa
:0a37280008b508b1fff73cff08bd2b
:020000040000fa
:0837320008b5fdf70cff08bd0e
:020000040000fa
:08373a0008b5fff7eefe08bd23
:020000040000fa
:0837440000487047e42f00006b
:020000040000fa
:08374c00004870470090d00313
:020000040000fa
:0837540008b5fff745ff08bdb1
:020000040000fa
:08375c0008b5fff74aff08bda4
:020000040000fa
:08376400f8330000160000001c
:020000040000fa
:08376c0008b5fff707fe08bdd8
:020000040000fa
:083774002a8648ce3d03010442
:020000040000fa
:08377c002b810400210000bfb5
:020000040000fa
:083784002a8648ce3d0301072f
:020000040000fa
:08378c002b810400220000bfa4
:020000040000fa
:083794002b810400230000bf9b
:020000040000fa
:08379c0008b5fff7fffd08bdb1
:020000040000fa
:0837a40008b5fef7dbfe08bdcd
:020000040000fa
:0637ac006ff00100704700
:020000040000fa
:0437b200002070473c
:020000040000fa
:0437b8005300c409ed
:020000040000fa
:0437bc00fff70ab851
:020000040000fa
:0437c000704700bf8f
:020000040000fa
:1050000010b54ff08843d3f8e04024f03002c3f8e5
:10501000e02068b1012810d000204ff08843c3f889
:10502000e040013810f1030f8cbf0020012010bdbb
:105030004ff0807000f01cfdefe74ff0847000f03f
:0450400017fdeae787
:020000040000fa
:1050440053454350323234523100000046464646fe
:1050540046464646464646464646464646464646ec
:105064004646464646464646464646463030303034
:10507400303030303030303030303030303030302c
:10508400303030310000000046464646464646462b
:1050940046464646464646464646464646464646ac
:1050a400464646464646464546464646464646469d
:1050b400464646464646464646464646464646458d
:1050c400000000004234303530413835304330344c
:1050d4004233414246353431333235363530343457
:1050e40042304237443742464438424132373042f4
:1050f4003339343332333535464642340000000008
:10510400464646464646464646464646464646463b
:105114004646464646464646464646463136413269
:1051240045304238463033453133444432393435de
:1051340035433543324133440000000042373045a3
:1051440030434244364242344246374633323133a6
:1051540039304239344130334331443335364332c4
:1051640031313232333433323830443631313543ed
:10517400314432310000000042443337363338388a
:10518400423546373233464234433232444645365a
:10519400434434333735413035413037343736348e
:1051a400343444353831393938353030374533348f
:1051b400000000005052494d453233395631000049
:1051c400374646464646464646464646464646468a
:1051d400464646464646464637464646464646467a
:1051e400464646463830303030303030303030305b
:1051f4003746464646464646464646460000000072
:105204003746464646464646464646464646464649
:105214004646464646464646374646464646464639
:10522400464646463830303030303030303030301a
:105234003746464646464646464646430000000034
:1052440036423031364333424443463138393431bf
:1052540044304436353439323134373543413731cb
:105264004139444232464232374431443337373984
:10527400363138354332393432433041000000008e
:1052840037464646464646464646464646464646c9
:1052940046464646464646463746464646463945c7
:1052a4003545394139463544393037314642443140
:1052b4003532323638383930394430420000000053
:1052c4003046464139363343444341383831364316
:1052d4004343333342383634324245444639303519
:1052e4004333443335383537334433463237464213
:1052f40042443342334342394141414600000000b5
:1053040037444542453845344539304135444145b3
:105314003645343035344341353330424130343608
:1053240035344233363831384345323236423339f4
:105334004643434237423032463141450000000083
:1053440053454350323536523100000046464646f6
:1053540046464646303030303030303130303030f0
:105364003030303030303030303030303030303039
:105374003030303046464646464646464646464621
:1053840046464646464646464646464600000000d1
:105394004646464646464646303030303030303158
:1053a40030303030303030303030303030303030f9
:1053b4003030303030303030464646464646464639
:1053c400464646464646464646464646464646437c
:1053d4000000000035414336333544384141334100
:1053e4003933453742334542424435353736393807
:1053f4003836424336353144303642304343353310
:1054040042304636334243453343334532374432e0
:10541400363034420000000046464646464646467c
:1054240030303030303030304646464646464646c8
:10543400464646464646464642434536464141442c
:1054440041373137394538344633423943414332a1
:1054540046433633323535310000000036423137a9
:10546400443146324531324334323437463842438c
:1054740045364535363341343430463237373033a8
:105484003744383132444542333341304634413174
:105494003339343544383938433239360000000062
:1054a4003446453334324532464531413746394234
:1054b400384545374542344137433046394531361e
:1054c400324243453333353736423331354543452c
:1054d4004342423634303638333742463531463526
:1054e400000000005345435033383452310000006b
:1054f4004646464646464646464646464646464648
:105504004646464646464646464646464646464637
:105514004646464646464646464646464646464627
:105524004646464646464646464646464646464518
:1055340046464646464646463030303030303030b7
:1055440030303030303030304646464646464646a7
:1055540000000000464646464646464646464646ff
:1055640046464646464646464646464646464646d7
:1055740046464646464646464646464646464646c7
:1055840046464646464646464646464646464646b7
:105594004646464546464646464646463030303000
:1055a400303030303030303030303030464646469f
:1055b4004646464300000000423333313246413709
:1055c4004532334545374534393838453035364228
:1055d400453346383244313931383144394336451c
:1055e400464538313431313230333134303838464d
:1055f400353031333837354143363536333938442d
:1056040038413245443139443241383543384544d0
:105614004433454332414546000000004646464671
:105624004646464646464646464646464646464616
:105634004646464646464646464646464646464606
:10564400464646464646464646464646433736332b
:1056540034443831463433373244444635383141a2
:105664003044423234384230413737414543454370
:105674003139364143434335323937330000000072
:10568400414138374341323242453842303533376d
:10569400384542314337314546333230414437345b
:1056a400364531443342363238424137394239384b
:1056b4003539463734314530383235343241333870
:1056c4003535303246323544424635353239364343
:1056d4003341353435453338373237363041423744
:1056e4000000000033363137444534413936323610
:1056f40032433646354439453938424639323932ef
:1057040044433239463846343144424432383941cc
:1057140031343743453944413331313342354630ee
:1057240042384330304136304231434531443745c5
:1057340038313944374134333144374339304541c2
:105744003045354600000000534543503532315250
:1057540031000000314646464646464646464646e1
:1057640046464646464646464646464646464646d5
:1057740046464646464646464646464646464646c5
:1057840046464646464646464646464646464646b5
:1057940046464646464646464646464646464646a5
:1057a4004646464646464646464646464646464695
:1057b4004646464646464646464646464646464685
:1057c4004646464646464646464646464646464675
:1057d40046464646464646003146464646464646c0
:1057e4004646464646464646464646464646464655
:1057f4004646464646464646464646464646464645
:105804004646464646464646464646464646464634
:105814004646464646464646464646464646464624
:105824004646464646464646464646464646464614
:105834004646464646464646464646464646464604
:1058440046464646464646464646464646464646f4
:105854004646464646464646464643003531393571
:10586400334542393631384531433941314639328d
:105874003941323141304236383534304545413290
:10588400444137323542393942333135463342386f
:105894004234383939313845463130394531353675
:1058a4003139333935314543374539333742313668
:1058b4003532433042443342423142463037333545
:1058c400373344463838334432433334463145461b
:1058d40034353146443436423530334630300000b6
:1058e4003146464646464646464646464646464669
:1058f4004646464646464646464646464646464644
:105904004646464646464646464646464646464633
:105914004646464646464646464646464646464623
:1059240046464135313836383738334246324639bf
:1059340036364237464343303134384637303941be
:1059440035443033424235433942383839394334a7
:10595400374145424236464237314539313338368c
:1059640034303900433638353845303642373034f0
:10597400303445394344394533454342363632336e
:1059840039354234343239433634383133393035a9
:105994003346423532314638323841463630364263
:1059a4003444334442414131344235453737454626
:1059b400453735393238464531444331323741323f
:1059c400464641384445333334384233433138351d
:1059d400364134323942463937453745333143321b
:1059e40045354244363600003131383339323936a0
:1059f4004137383941334243303034354338413507
:105a040046423432433744314244393938463534d6
:105a140034343935373942343436383137414642f3
:105a240044313732373345363632433937454537d3
:105a340032393935454634323634304335353042df
:105a440039303133464144303736313335334337d7
:105a540030383641323732433234303838424539bf
:0c5a6400343736394644313636353000d0
:020000040000fa
:105a70002de9f04f9db005460c460caecb4f0fcf35
:105a80000fc60fcf0fc60fcf0fc697e80f0086e8df
:105a90000f0000230b932e46049305930693079360
:105aa000089309930a9302238df8243001238df87b
:105ab000253055238df82a30b5f1807f0dd0b5f112
:105ac000847f14bf022701273369013b13f1030fc1
:105ad00005d900201db0bde8f08f0027f4e74ff492
:105ae000007229462046fdf798fd0023a360237429
:105af0006374a374e374a3751c2204a92046fdf704
:105b000089fc08b10020e5e704f5007a04f6043bbf
:105b100004f60c4804f68c49fdf728fd20210ca85a
:105b2000fdf764fb202114a8fdf760fbab7d5bb99a
:105b300095f82430002b40f0a8809d4b013bfdd10f
:105b4000306a00f50070c5e74046fdf719fd4ff4d7
:105b5000007229462046fdf760fd002184f8b71148
:105b6000482204f5dc70fdf789fd4ff4f67204f16c
:105b700014014046fbf75efb49464046fcf7e0f95e
:105b80004046fdf7c0fcab7d012b61d0ab7d022b05
:105b9000ced1002211465046fdf725f80723524684
:105ba00020215846fdf762fd0df1300cbce80f00d6
:105bb000c4f82002c4f82412c4f82822c4f82c32f5
:105bc000bce80f00c4f83002c4f83412c4f838221c
:105bd000c4f83c320823c4f818320023c4f81c323d
:105be0000df1500cbce80f00c4f84804c4f84c1484
:105bf000c4f85024c4f85434bce80f00c4f8580466
:105c0000c4f85c14c4f86024c4f864340823c4f8ed
:105c100040340023c4f844340123c4f86836c4f87f
:105c2000703695f8b711cdf804a00bab0093202384
:105c30004a4605f5dc70fdf748f803903846fdf755
:105c400013fb039bd3b91c215a48fdf7b7fc6fe740
:105c50003846fdf709fb202205f5dc714846fdf7c3
:105c6000d9fb20b91a215448fdf7a8fc8ee718216a
:105c70005248fdf7a3fc4ff0ff302be71a215048a4
:105c8000fdf79cfc4ff0ff3024e74046fdf778fc21
:105c9000326a05f500714046fbf7ccfa49464046aa
:105ca000fcf74ef995f82430012b62d095f824309a
:105cb000022b7ff442af002211465046fcf793ffbf
:105cc0000723524620215846fdf7d0fc0df1300c39
:105cd000bce80f00c4f82002c4f82412c4f828223b
:105ce000c4f82c32bce80f00c4f83002c4f83412f7
:105cf000c4f83822c4f83c324ff0080bc4f818b28c
:105d00004ff00008c4f81c820df1500cbce80f00e5
:105d1000c4f84804c4f84c14c4f85024c4f85434eb
:105d2000bce80f00c4f85804c4f85c14c4f860243c
:105d3000c4f86434c4f840b4c4f844840123c4f8fb
:105d40006836c4f8703695f82810cdf804a00bab6f
:105d5000009320234a4605f12900fcf7b6ff0446cc
:105d60003846fdf781fad4b914211648fdf726fc10
:105d7000e3e63846fdf778fa202205f12901484686
:105d8000fdf748fb20b915210f48fdf717fc8de7fb
:105d900013210e48fdf712fc4ff0ff309ae6122156
:105da0000b48fdf70bfc4ff0ff3093e6fc0a0000b8
:105db000ffff0500740b0000580b00003c0b0000b7
:105dc000940b0000dc0b0000c40b0000b00b0000c3
:045dd000f40b0000d0
:020000040000fa
:105dd40008b5084b5b7a63b1064b987ac0b233229c
:105de4009a72054b1b6823b118b1034b59681b68a1
:0c5df400984708bd00200040a85a00207d
:00000001FF
