:020000040000fa
:10000000f88b0120bd210201356102013b61020133
:10001000476102014d6102015361020100000000cd
:10002000000000000000000000000000a9ee000138
:100030004161020100000000c9ef000137f000013a
:10004000bbf90001bbf90001bbf90001e5f90001b2
:10005000bbf90001bbf90001bbf90001bbf90001cc
:10006000bbf90001bbf90001bbf90001bbf90001bc
:10007000899a0001bbf90001bbf90001bbf900013d
:10008000bbf90001bbf90001bbf90001bbf900019c
:10009000bbf90001bbf90001bbf90001bbf900018c
:1000a000bbf90001bbf90001bbf90001bbf900017c
:1000b000bbf90001bbf90001bbf90001a10a020173
:1000c00059bc0101bbf90001bbf90001bbf90001fa
:1000d000bbf90001bbf9000115120201bbf90001d7
:020000040000fa
:020000040004f6
:045f8800ffff000017
:020000040000fa
:020000040004f6
:045f8c0000400e843f
:020000040000fa
:020000040004f6
:045f900038fc745f06
:020000040000fa
:020000040004f6
:045f94003844121467
:020000040000fa
:020000040004f6
:045f98000300007191
:020000040000fa
:020000040004f6
:045f9c000000000001
:020000040000fa
:020000040004f6
:045fbc0000000010d1
:020000040000fa
:020000040100f9
:1040000000203200f8a500200000000000000000a1
:1040100001203200f8a50020000000000000000090
:1040200002203200f8a5002000000000000000007f
:1040300003203200f8a5002000000000000000006e
:1040400004203200f8a5002000000000000000005d
:1040500005203200f8a5002000000000000000004c
:1040600006203200f8a5002000000000000000003b
:1040700007203200f8a5002000000000000000002a
:10408000082020002ca600200000000000000000f6
:10409000092020002ca600200000000000000000e5
:1040a0000a2020002ca600200000000000000000d4
:1040b0000b2020002ca600200000000000000000c3
:1040c0000c2020002ca600200000000000000000b2
:1040d0000d2020002ca600200000000000000000a1
:1040e0000e2020002ca60020000000000000000090
:1040f0000f2020002ca6002000000000000000007f
:10410000f8b500bff8bc08bc9e4670472d360201ca
:10411000f8b500bff8bc08bc9e46704709360201de
:020000040000fa
:020000040100f9
:084120007cd00000010000004a
:020000040000fa
:020000040100f9
:1041280080b58cb004aff860b9603b601346fb8083
:10413800fb889b0018460af021fc78617b69002bfc
:1041480013d054200af01afcf861fb69002b08d040
:1041580054220021f86923f059f8fb697a691a6337
:1041680005e078690af0a8fc01e00023fb61fb691f
:10417800002b13d0fa8800230393fb690293fb6a90
:104188000193bb6a00933b68b968f86800f00ef8c1
:10419800f86900f07bf80123bb6102e04ff0ff33c0
:1041a800bb61bb6918462037bd4680bd80b586b067
:1041b80000aff860b9607a603b60bb6a186b7b68d7
:1041c8009b001a46a52123f021f8bb6a1a6b7b686d
:1041d80003f18043013b9b0013443b613b6923f09f
:1041e80007033b61bb68002b1ed000237b6112e0f4
:1041f800ba687b6913441978ba6a7b691344343303
:104208000a461a70ba687b6913441b78002b06d0db
:104218007b6901337b617b690f2be9d900e000bf23
:10422800bb6a002283f843203b6a042b01d904238c
:104238003b62bb6a3a6ada62bb6a3a6a5a64bb6a28
:104248000433184612f00ef8bb6a1833184612f0f9
:1042580009f8bb6aba6a1a613b6ac3f10502bb6a0c
:104268009a61bb6aba6a5a623a68f96838690af0a8
:10427800cbfd0246bb6a1a607b6a002b02d07b6ac0
:10428800ba6a1a6000bf1837bd4680bd80b584b0d1
:1042980000af78600af061fe3e4b1b6801333d4a6f
:1042a80013603d4b1b68002b09d13b4a7b681360a8
:1042b800384b1b68012b10d101f0c8f90de0374bc2
:1042c8001b68002b09d1344b1b68da6a7b68db6af0
:1042d8009a4202d8304a7b681360314b1b6801331d
:1042e8002f4a13607b68db6a01229a402d4b1b68ba
:1042f80013432c4a13607b68da6a2b4913469b00e8
:1043080013449b000b4404331b68fb607b68fa680a
:104318009a60fb689a687b68da60fb689b687a68d1
:1043280004325a607b681a1dfb689a607b68da6af7
:1043380013469b0013449b001b4a1a447b685a612e
:104348007b68da6a184913469b0013449b000b44a8
:104358001b68591c144813469b0013449b000344d4
:1043680019600af013fe0d4b1b68002b0ed00a4b88
:104378001b68da6a7b68db6a9a4207d20b4b4ff0fc
:1043880080521a60bff34f8fbff36f8f00bf103793
:10439800bd4680bd18fe012040fd012024fe0120fd
:1043a80034fe012020fe012044fd012004ed00e040
:1043b80080b584b000af78600af0cffd7b68002b31
:1043c80002d1344b1b6800e07b68fb60fb68043358
:1043d800184611f0b1ff0346002b15d1fb68da6ac5
:1043e8002d4913469b0013449b000b441b68002b6c
:1043f8000ad1fb68db6a012202fa03f3da43274b8e
:104408001b681340254a1360fb689b6a002b04d085
:10441800fb681833184611f08fff214b1b680133d6
:104428001f4a13601b4b1b68fa689a420bd1fb6842
:10443800043319461b4811f022ff1b4b1b6801333c
:10444800194a136006e0194b1b68013b174a1360b1
:1044580001f078f90af09afd0e4b1b68fa689a4247
:1044680002d0f86801f05ef9114b1b68002b0cd0e4
:10447800084b1b68fa689a4207d10e4b4ff08052de
:104488001a60bff34f8fbff36f8f00bf1037bd4661
:1044980080bd00bf40fd012044fd012020fe012019
:1044a80034fe0120ecfd012000fe012018fe012051
:1044b80024fe012004ed00e080b586b000af7860ee
:1044c800396000237b6100f0f5fa224b1b683b61e1
:1044d8007b681b683a681344fb607b681b683a6911
:1044e8009a420bd27b681b68fa689a4211d2fa6822
:1044f8003b699a420dd901237b610ae07b681b68fe
:10450800fa689a4203d3fa683b699a4201d90123af
:104518007b617b68fa681a607b69002b06d0fa68b1
:104528003b69d31a0021184601f034ff00f00afb5a
:10453800b860bb68002b07d1074b4ff080521a6058
:10454800bff34f8fbff36f8f7b6918461837bd468f
:1045580080bd00bf1cfe012004ed00e080b584b0e2
:1045680000af78600023fb607b68002b08d000f068
:10457800a1fa0021786801f00dff00f0e3faf86075
:10458800fb68002b07d1064b4ff080521a60bff32f
:104598004f8fbff36f8f00bf1037bd4680bd00bf80
:1045a80004ed00e080b584b000af78600af0d5fc77
:1045b8007b68002b02d1074b1b6800e07b68fb601f
:1045c800fb68db6abb600af0e1fcbb681846103781
:1045d800bd4680bd40fd012080b489b000af786041
:1045e800eff311824ff0200383f31188bff36f8f2d
:1045f800bff34f8f3a61fb603b69fb617b68002b1f
:1046080002d10a4b1b6800e07b68bb61bb69db6aaf
:104618007b61fb69bb60bb6883f311887b691846c3
:104628002437bd465df8047b704700bf40fd01207c
:1046380080b588b000af786039600023fb613b68c3
:10464800042b01d904233b600af087fc7b68002b0c
:1046580002d1554b1b6800e07b68bb61bb695b6c92
:104668007b617a693b689a4200f098803a687b6976
:104678009a420dd94c4b1b68ba699a420fd04a4be3
:104688001b68db6a3a689a4209d30123fb6106e09a
:10469800454b1b68ba699a4201d10123fb61bb698a
:1046a800db6a3b61bb695a6cbb69db6a9a4202d11f
:1046b800bb693a68da62bb693a685a64bb699b6944
:1046c800002b04db3b68c3f10502bb699a61bb6937
:1046d80059693a6913469b0013449b00334a1344b3
:1046e800994250d1bb690433184611f025fe0346a0
:1046f800002b09d101223b6902fa03f3da432c4b60
:104708001b6813402a4a1360bb69db6a01229a407e
:10471800274b1b681343264a1360bb69da6a23498f
:1047280013469b0013449b000b4404331b68fb6037
:10473800bb69fa689a60fb689a68bb69da60fb68cb
:104748009b68ba6904325a60bb691a1dfb689a6093
:10475800bb69da6a13469b0013449b00134a1a4448
:10476800bb695a61bb69da6a104913469b00134456
:104778009b000b441b68591c0c4813469b001344b0
:104788009b0003441960fb69002b07d0094b4ff0cd
:1047980080521a60bff34f8fbff36f8f0af0f6fb9a
:1047a80000bf2037bd4680bd40fd012044fd0120eb
:1047b80020fe012004ed00e080b584b000af7860f1
:1047c8000af0cbfb7b68002b02d13b4b1b6800e057
:1047d8007b68bb60bb680433184611f0adfd034627
:1047e800002b15d1bb68da6a344913469b00134481
:1047f8009b000b441b68002b0ad1bb68db6a0122b3
:1048080002fa03f3da432e4b1b6813402c4a136059
:10481800bb689b6a002b04d0bb681833184611f09c
:104828008bfdbb6804331946264811f028fd002388
:10483800fb6010e0ba68fb68134450331b78dbb2a6
:10484800012b05d1ba68fb681344503300221a7053
:10485800fb680133fb60fb68002bebdd0af096fb7d
:10486800194b1b68002b05d00af077fb00f06aff94
:104878000af08cfb104b1b68ba689a4218d1124b8d
:104888001b68002b08d0114b4ff080521a60bff301
:104898004f8fbff36f8f0be00a4b1a680c4b1b68e6
:1048a8009a4203d1044b00221a6001e000f0c2fbd7
:1048b80000bf1037bd4680bd40fd012044fd0120ea
:1048c80020fe012004fe012024fe012004ed00e06a
:1048d80018fe012080b485b000af78600023fb602b
:1048e8007b68bb60bb685b690a4a93420ad1bb68b4
:1048f8009b6a094a934205d0bb689b6a002b01d189
:104908000123fb60fb6818461437bd465df8047b3d
:10491800704700bf04fe0120d8fd012080b584b097
:1049280000af78607b68fb60344b1b68fa689a427a
:104938005fd0fb68002b5cd00af00ffbf868fff72c
:10494800c9ff0346002b52d0fb680433184611f008
:10495800f3fcfb68db6a01229a40294b1b6813436e
:10496800274a1360fb68da6a264913469b001344fa
:104978009b000b4404331b68bb60fb68ba689a60f1
:10498800bb689a68fb68da60bb689b68fa6804329f
:104998005a60fb681a1dbb689a60fb68da6a13469e
:1049a8009b0013449b00174a1a44fb685a61fb6832
:1049b800da6a144913469b0013449b000b441b6896
:1049c800591c104813469b0013449b00034419606c
:1049d800fb68da6a094b1b68db6a9a4207d30a4b01
:1049e8004ff080521a60bff34f8fbff36f8f0af0fa
:1049f800cdfa00bf1037bd4680bd00bf40fd012085
:104a080020fe012044fd012004ed00e080b584b0c3
:104a180002af154b01930023009300234ff48072db
:104a280012491348fff77cfb78607b68012b14d18f
:104a38004ff0200383f31188bff36f8fbff34f8fbd
:104a48003b600c4b4ff0ff321a600b4b01221a608f
:104a58000a4b00221a600af04efa094b1b6800bf85
:104a68000837bd4680bd00bf3cfe012030780201fa
:104a78008d55000138fe012024fe01201cfe012076
:104a8800d4ab002080b582b000af4ff0200383f391
:104a98001188bff36f8fbff34f8f7b60044b0022e9
:104aa8001a600af053fa00bf0837bd4680bd00bf40
:104ab80024fe012080b400af044b1b680133034a75
:104ac800136000bfbd465df8047b704740fe0120bf
:104ad80080b485b000af0023bb6001237b60144b1a
:104ae8001b687a689a4201d20123bb60114b1b688c
:104af800db6a002b02d00023fb6012e00e4b1b6820
:104b0800012b02d90023fb600be0bb68002b02d00d
:104b18000023fb6005e0094b1a68094b1b68d31a90
:104b2800fb60fb6818461437bd465df8047b704788
:104b380020fe012040fd012044fd012038fe012017
:104b48001cfe012080b586b000af00237b610023e6
:104b58003b610af002fa684b1b68013b664a136026
:104b6800654b1b68002b40f0c080644b1b68002b12
:104b780000f0bb808ae0624bdb68db687b617b69a5
:104b88009b6abb607b69db697a69126a9a607b6998
:104b98001b6a7a69d2695a60bb685a687b6918339c
:104ba8009a4203d17b691a6abb685a607b69002202
:104bb8009a62bb681b685a1ebb681a607b695b698e
:104bc8007b607b699b687a69d2689a607b69db68dd
:104bd8007a6992685a607b685a687b6904339a429a
:104be80003d17b69da687b685a607b6900225a6165
:104bf8007b681b685a1e7b681a607b69db6a012226
:104c08009a40404b1b6813433e4a13607b69da6a3b
:104c18003d4913469b0013449b000b4404331b6817
:104c28003b607b693a689a603b689a687b69da609e
:104c38003b689b687a6904325a607b691a1d3b6835
:104c48009a607b69da6a13469b0013449b002e4adc
:104c58001a447b695a617b69da6a2b4913469b00bf
:104c680013449b000b441b68591c274813469b00a0
:104c780013449b00034419607b69da6a234b1b6861
:104c8800db6a9a4202d3224b01221a601c4b1b6832
:104c9800002b7ff470af7b69002b01d000f052fd30
:104ca8001c4b1b68fb60fb68002b10d000f0bcf8a5
:104cb8000346002b02d0164b01221a60fb68013b09
:104cc800fb60fb68002bf1d1124b00221a60104bdd
:104cd8001b68002b09d001233b610f4b4ff080521a
:104ce8001a60bff34f8fbff36f8f0af04ff93b691c
:104cf80018461837bd4680bd40fe012018fe012029
:104d0800d8fd012020fe012044fd012040fd0120a6
:104d18002cfe012028fe012004ed00e080b483b0c1
:104d280000af054b1b687b607b6818460c37bd4697
:104d38005df8047b704700bf1cfe012080b483b07f
:104d480000af00237b60054b1b683b603b6818463f
:104d58000c37bd465df8047b704700bf1cfe012080
:104d680080b400af034b1b681846bd465df8047b52
:104d7800704700bf18fe012080b485b000af78608e
:104d88007b68002b02d1064b1b6800e07b68fb6048
:104d9800fb68343318461437bd465df8047b70470a
:104da80040fd012080b582b000af78600e4b1a68d4
:104db8007b681a440d4b1b689a420bd10af0cdf858
:104dc8000b4b1b6801330a4a13600af0dff87b6853
:104dd800013b7b60044b1a687b681344024a1360ea
:104de80000bf0837bd4680bd1cfe012038fe0120eb
:104df80028fe012080b584b000af7860fff75afe26
:104e08000af0abf8074b1a687b681344054a13602d
:104e18000af0bcf8fff796fef860fb6818461037f2
:104e2800bd4680bd28fe012080b588b000af0023b4
:104e3800fb61754b1b68002b40f0dc80734b1b68d3
:104e48000133bb61714abb691360bb69002b10d188
:104e58006f4b1b687b616f4b1b686d4a13606d4a13
:104e68007b6913606c4b1b6801336b4a136000f05d
:104e780069fc6a4b1b68ba699a42c0f0a680644b09
:104e88001b681b68002b04d1644b4ff0ff321a607b
:104e98009be05f4b1b68db68db683b613b695b68d9
:104ea800fb60ba69fb689a4203d25c4afb681360ec
:104eb8008be03b695b69bb603b699b683a69d26878
:104ec8009a603b69db683a6992685a60bb685a68bd
:104ed8003b6904339a4203d13b69da68bb685a607c
:104ee8003b6900225a61bb681b685a1ebb681a607e
:104ef8003b699b6a002b1ed03b699b6a7b603b69c0
:104f0800db693a69126a9a603b691b6a3a69d26935
:104f18005a607b685a683b6918339a4203d13b69e7
:104f28001a6a7b685a603b6900229a627b681b6830
:104f38005a1e7b681a603b69db6a01229a40384b2b
:104f48001b681343364a13603b69da6a35491346ce
:104f58009b0013449b000b4404331b683b603b6974
:104f68003a689a603b689a683b69da603b689b6874
:104f78003a6904325a603b691a1d3b689a603b697a
:104f8800da6a13469b0013449b00264a1a443b697d
:104f98005a613b69da6a234913469b0013449b0014
:104fa8000b441b68591c1f4813469b0013449b0065
:104fb800034419603b69da6a1b4b1b68db6a9a4237
:104fc8007ff65daf0123fb6159e7174b1b68da6a6f
:104fd800144913469b0013449b000b441b68012b88
:104fe80001d90123fb61114b1b68002b07d001235a
:104ff800fb6104e00e4b1b6801330d4a1360fb692b
:1050080018462037bd4680bd40fe01201cfe012009
:10501800d0fd0120d4fd012030fe012038fe012002
:1050280020fe012044fd012040fd01202cfe01202e
:1050380028fe012080b586b000af2f4b1b68002bdf
:1050480003d02e4b01221a6051e02c4b00221a602b
:105058002b4b1b681b6b7b614ff0a5333b617b6956
:105068001b683a699a4211d17b6904331b683a6913
:105078009a420bd17b6908331b683a699a4205d179
:105088007b690c331b683a699a4208d01c4b1a6832
:105098001b4b1b683433194610461af02ffc194b6a
:1050a8001b687b607b68b3fa83f3fb70fb78c3f102
:1050b8001f03fb60fa6813469b0013449b00124ac7
:1050c8001344bb60bb685b685a68bb685a60bb68be
:1050d8005a68bb6808339a4204d1bb685b685a684f
:1050e800bb685a60bb685b68db68054a136000bf31
:1050f8001837bd4680bd00bf40fe01202cfe0120b0
:1051080040fd012020fe012044fd012080b582b031
:1051180000af78603960074b1b6818331946786808
:1051280011f0d1f80121386801f034f900bf0837cf
:10513800bd4680bd40fd012080b586b000aff86057
:10514800b9607a60174b1b68ba6842f000429a61ee
:10515800fb685b687b61134b1b687a69da61114bea
:105168001b687a6992681a620e4b1a687b699b6899
:1051780018325a600b4b1b6803f118027b699a605e
:10518800084b1b68fa689a62fb681b685a1cfb6824
:105198001a600121786801f0fdf800bf1837bd4694
:1051a80080bd00bf40fd012080b588b000af7860a9
:1051b8007b68db68db68bb61bb699b6a7b61bb6939
:1051c800db69ba69126a9a60bb691b6aba69d269f3
:1051d8005a607b695a68bb6918339a4203d1bb6924
:1051e8001a6a7b695a60bb6900229a627b691b68ec
:1051f8005a1e7b691a604a4b1b68002b60d1bb6939
:105208005b693b61bb699b68ba69d2689a60bb6994
:10521800db68ba6992685a603b695a68bb690433ab
:105228009a4203d1bb69da683b695a60bb690022bc
:105238005a613b691b685a1e3b691a60bb69db6a85
:1052480001229a40374b1b681343364a1360bb69e7
:10525800da6a354913469b0013449b000b44043318
:105268001b68fb60bb69fa689a60fb689a68bb694f
:10527800da60fb689b68ba6904325a60bb691a1d18
:10528800fb689a60bb69da6a13469b0013449b006b
:10529800254a1a44bb695a61bb69da6a224913462e
:1052a8009b0013449b000b441b68591c1e48134663
:1052b8009b0013449b000344196000f043fa1be071
:1052c8001a4b5b68bb60bb69ba68da61bb689a68ed
:1052d800bb691a62bb689b68ba6918325a60bb69b5
:1052e80003f11802bb689a60bb69104a9a620f4bb7
:1052f8001b6801330d4a1360bb69da6a0c4b1b68e3
:10530800db6a9a4205d90123fb610a4b01221a6024
:1053180001e00023fb61fb6918462037bd4680bdcc
:1053280040fe012020fe012044fd0120d8fd01207f
:1053380040fd01202cfe012080b586b000af7860ca
:1053480039603b6843f000427b681a607b68db6821
:105358007b617b681b693b617b685b687a689268e4
:105368009a607b689b687a6852685a603b695b6898
:105378007a689a4203d17b689a683b695a607b686d
:1053880000221a613b691b685a1e3b691a6000f0cb
:10539800d9f97b695b69fb607b699b687a69d2682c
:1053a8009a607b69db687a6992685a60fb685a6818
:1053b8007b6904339a4203d17b69da68fb685a60d7
:1053c8007b6900225a61fb681b685a1efb681a60d9
:1053d8007b69db6a01229a40244b1b681343234aea
:1053e80013607b69da6a224913469b0013449b00c9
:1053f8000b4404331b68bb607b69ba689a60bb685e
:105408009a687b69da60bb689b687a6904325a607b
:105418007b691a1dbb689a607b69da6a13469b0030
:1054280013449b00124a1a447b695a617b69da6a01
:105438000f4913469b0013449b000b441b68591cdf
:105448000b4813469b0013449b00034419607b6977
:10545800da6a084b1b68db6a9a4202d9064b0122ba
:105468001a6000bf1837bd4680bd00bf20fe01206e
:1054780044fd012040fd01202cfe012080b582b0b2
:1054880000af786009f069fd064b1a687b681a60fe
:10549800054b1a687b685a6009f078fd00bf083729
:1054a800bd4680bd30fe01201cfe012080b483b0c3
:1054b80000af7860064b1a687b681a60054b1a685b
:1054c8007b685a6000bf0c37bd465df8047b7047a7
:1054d80030fe01201cfe012080b586b000af786048
:1054e800396009f03afd1f4b1b683b617b685b68bc
:1054f8003a69d31afb603b681b68b3f1ff3f02d1de
:1055080000237b6126e07b681a68174b1b689a4268
:105518000ad07b685b683a699a4205d301237b61ac
:105528003b6800221a6015e03b681b68fa689a42db
:105538000bd23b681a68fb68d21a3b681a60786815
:10554800fff7b4ff00237b6104e03b6800221a6088
:1055580001237b6109f01afd7b6918461837bd469f
:1055680080bd00bf1cfe012030fe012080b400afca
:10557800034b01221a6000bfbd465df8047b7047eb
:105588002cfe012080b584b000af786000f09ef852
:10559800104b1b68012b07d90f4b4ff080521a6034
:1055a800bff34f8fbff36f8f1af0c4f9fff790fa6c
:1055b800f860fb68042be9d9fff77cfafff788fa53
:1055c800f860fb68042b02d9f86809f051fdfff771
:1055d800b9fadbe744fd012004ed00e080b483b0b4
:1055e80000af01233b600123fb71134b1b68002ba9
:1055f80002d00023fb7117e0104b1b68002b02d070
:105608000023fb7110e00e4b1b68002b02d0002317
:10561800fb7109e00b4b1a680b4b19683b68cb1af6
:105628009a4201d10223fb71fb7918460c37bd461b
:105638005df8047b704700bfd8fd01202cfe0120d7
:1056480028fe012004fe012018fe012080b582b04a
:1056580000af00237b600ce07a6813469b0013447c
:105668009b00124a1344184610f0dcfd7b68013396
:105678007b607b68042befd90d4810f0d3fd0d48f3
:1056880010f0d0fd0c4810f0cdfd0c4810f0cafd0c
:105698000b4810f0c7fd0b4b054a1a600a4b054a28
:1056a8001a6000bf0837bd4680bd00bf44fd012019
:1056b800a8fd0120bcfd0120d8fd0120ecfd012042
:1056c80004fe0120d0fd0120d4fd012080b582b068
:1056d80000af19e009f041fc0f4bdb68db687b6029
:1056e8007b680433184610f027fe0c4b1b68013bff
:1056f8000a4a13600a4b1b68013b094a136009f008
:1057080045fc786800f00ef8054b1b68002be1d1ca
:1057180000bf0837bd4680bdecfd012018fe012002
:1057280000fe012080b582b000af78607b681b6bfb
:10573800184609f0c1f9786809f0bef900bf0837c2
:10574800bd4680bd80b400af0a4b1b681b68002ba8
:1057580004d1094b4ff0ff321a6005e0054b1b6876
:10576800db681b68044a136000bfbd465df8047b14
:10577800704700bfd0fd012038fe012080b483b0ff
:1057880000af054b1b687b607b6818460c37bd462d
:105798005df8047b704700bf40fd012080b586b0ee
:1057a80000af78607b683b6100237b617b68002bde
:1057b80000f087803b69da6a444b1b68db6a9a42cf
:1057c80076d23b699b69002b06db404b1b68db6a82
:1057d800c3f105023b699a613b6959693b69da6a19
:1057e80013469b0013449b00394a1344994257d1ee
:1057f8003b690433184610f09ffd0346002b0ad17d
:105808003b69db6a012202fa03f3da43314b1b6876
:105818001340304a13602d4b1b68da6a3b69da6221
:105828003b69db6a01229a402a4b1b681343294ac9
:1058380013603b69da6a264913469b0013449b00b0
:105848000b4404331b68fb603b69fa689a60fb6889
:105858009a683b69da60fb689b683a6904325a6067
:105868003b691a1dfb689a603b69da6a13469b001c
:1058780013449b00164a1a443b695a613b69da6a29
:10588800134913469b0013449b000b441b68591c87
:105898000f4813469b0013449b000344196004e01f
:1058a8000a4b1b68da6a3b69da6201237b6108e00c
:1058b8003b695a6c054b1b68db6a9a4201d201238b
:1058c8007b617b6918461837bd4680bd40fd0120c5
:1058d80044fd012020fe012080b586b000af78602d
:1058e8007b683b6100237b617b68002b6cd03b6944
:1058f8009b6c5a1e3b699a643b69da6a3b695b6c2c
:105908009a4261d03b699b6c002b5dd13b690433a3
:10591800184610f011fd0346002b0ad13b69db6adb
:10592800012202fa03f3da432a4b1b681340294a7f
:1059380013603b695a6c3b69da623b69db6ac3f105
:1059480005023b699a613b69db6a01229a40214b57
:105958001b6813431f4a13603b69da6a1e491346e2
:105968009b0013449b000b4404331b68fb603b699a
:10597800fa689a60fb689a683b69da60fb689b681a
:105988003a6904325a603b691a1dfb689a603b69a0
:10599800da6a13469b0013449b000f4a1a443b697a
:1059a8005a613b69da6a0c4913469b0013449b0011
:1059b8000b441b68591c084813469b0013449b0062
:1059c8000344196001237b617b6918461837bd467b
:1059d80080bd00bf20fe012044fd012080b588b0b5
:1059e80000af786039607b68bb6101237b617b68ad
:1059f800002b00f08180bb695b6c3a689a4202d93f
:105a08003b68fb6102e0bb695b6cfb61bb69db6afd
:105a1800fa699a4270d0bb699b6c7a699a426bd1d9
:105a2800bb69db6a3b61bb69fa69da62bb699b697e
:105a3800002b04dbfb69c3f10502bb699a61bb69f2
:105a480059693a6913469b0013449b002c4a134436
:105a5800994251d1bb690433184610f06dfc0346d6
:105a6800002b0ad1bb69db6a012202fa03f3da438d
:105a7800244b1b681340234a1360bb69db6a01226d
:105a88009a40204b1b6813431e4a1360bb69da6aad
:105a98001b4913469b0013449b000b4404331b68ab
:105aa800fb60bb69fa689a60fb689a68bb69da6050
:105ab800fb689b68ba6904325a60bb691a1dfb68a7
:105ac8009a60bb69da6a13469b0013449b000c4a30
:105ad8001a44bb695a61bb69da6a094913469b00d3
:105ae80013449b000b441b68591c054813469b0034
:105af80013449b000344196000bf2037bd4680bd96
:105b080044fd012020fe012080b483b000af094b82
:105b18001b689b697b60074b1b68da6a054b1b682f
:105b2800c2f105029a617b6818460c37bd465df8dc
:105b3800047b704740fd012080b400af074b1b6811
:105b4800002b04d0054b1b689a6c01329a64034bf6
:105b58001b681846bd465df8047b704740fd012070
:105b680080b586b000aff860b9607a6009f0f5f9e1
:105b7800284b1a68fb6812339b0013445b68002ba0
:105b880015d1244b1a68fb681344503301221a704c
:105b98007b68002b0bd00121786800f0fbfb1e4bc3
:105ba8004ff080521a60bff34f8fbff36f8f09f029
:105bb800edf909f0d2f9174b1a68fb6812339b000c
:105bc80013445b687b617b69002b14d0bb68002b96
:105bd80008d0104b1a68fb6812339b00134400224c
:105be8005a6008e00b4b19687b695a1efb68123330
:105bf8009b000b445a60074b1a68fb6813445033e8
:105c080000221a7009f0c2f97b6918461837bd4698
:105c180080bd00bf40fd012004ed00e080b586b0e6
:105c280000aff860b9607a603b6009f096f9344bd0
:105c38001a68fb68134450331b78dbb2022b24d05c
:105c48002f4b1a68fb6812339b0013445968bb68d2
:105c5800db431940fb6812339b0013445960284bff
:105c68001a68fb681344503301221a703b6a002bf0
:105c78000bd00121386a00f08dfb224b4ff0805287
:105c88001a60bff34f8fbff36f8f09f07ff909f0e8
:105c980064f93b68002b08d0194b1a68fb6812336b
:105ca8009b0013445a683b681a60154b1a68fb68d6
:105cb800134450331b78dbb2022b02d000237b61e4
:105cc80010e00f4b1a68fb6812339b0013445968a5
:105cd8007b68db431940fb6812339b00134459600f
:105ce80001237b61064b1a68fb681344503300227a
:105cf8001a7009f04bf97b6918461837bd4680bd04
:105d080040fd012004ed00e080b58ab000aff860e6
:105d1800b9607a60fb7001237b62fb683b6209f023
:105d28001cf93b6b002b07d03a6abb6812339b0007
:105d380013445a683b6b1a603a6abb681344503381
:105d48001b78fb773a6abb681344503302221a70f7
:105d5800fb78042b3fd801a252f823f0df5d000145
:105d6800795d0001975d0001b35d0001c35d00012d
:105d78003a6abb6812339b0013445a687b681a431b
:105d8800396abb6812339b000b445a6024e03a6ab4
:105d9800bb6812339b0013445b685a1c396abb68a2
:105da80012339b000b445a6016e03a6abb68123300
:105db8009b0013447a685a600ee0fb7f022b07d0e1
:105dc8003a6abb6812339b0013447a685a6003e04e
:105dd80000237b6200e000bffb7f012b6ed13b6a92
:105de8005b69bb613b6a9b683a6ad2689a603b6aa6
:105df800db683a6a92685a60bb695a683b6a04333e
:105e08009a4203d13b6ada68bb695a603b6a00224e
:105e18005a61bb691b685a1ebb691a603b6adb6a18
:105e280001229a40294b1b681343284a13603b6a96
:105e3800da6a274913469b0013449b000b4404333a
:105e48001b687b613b6a7a699a607b699a683b6ade
:105e5800da607b699b683a6a04325a603b6a1a1da9
:105e68007b699a603b6ada6a13469b0013449b007d
:105e7800174a1a443b6a5a613b6ada6a144913465c
:105e88009b0013449b000b441b68591c1048134685
:105e98009b0013449b0003441960fff753fc3b6ac3
:105ea800da6a0c4b1b68db6a9a4207d90a4b4ff037
:105eb80080521a60bff34f8fbff36f8f09f066f8f7
:105ec8007b6a18462837bd4680bd00bf20fe0120ea
:105ed80044fd012040fd012004ed00e080b48fb0b6
:105ee80000aff860b9607a60fb7001237b63fb68e0
:105ef8003b63eff311824ff0200383f31188bff364
:105f08006f8fbff34f8fba617b61bb69fb623b6cdc
:105f1800002b07d03a6bbb6812339b0013445a68b6
:105f28003b6c1a603a6bbb68134450331b7887f894
:105f38002b303a6bbb681344503302221a70fb783b
:105f4800042b41d801a252f823f000bfd15f000111
:105f5800695f0001875f0001a35f0001b35f000173
:105f68003a6bbb6812339b0013445a687b681a4328
:105f7800396bbb6812339b000b445a6025e03a6bbf
:105f8800bb6812339b0013445b685a1c396bbb68af
:105f980012339b000b445a6017e03a6bbb6812330c
:105fa8009b0013447a685a600fe097f82b30022b55
:105fb80007d03a6bbb6812339b0013447a685a6067
:105fc80003e000237b6300e000bf97f82b30012b30
:105fd80040f08f804d4b1b68002b5ed13b6b5b699b
:105fe8007b623b6b9b683a6bd2689a603b6bdb6861
:105ff8003a6b92685a607b6a5a683b6b04339a42e0
:1060080003d13b6bda687b6a5a603b6b00225a61aa
:106018007b6a1b685a1e7b6a1a603b6bdb6a01222b
:106028009a403b4b1b681343394a13603b6bda6a4f
:10603800384913469b0013449b000b4404331b68e8
:106048003b623b6b3a6a9a603b6a9a683b6bda60e0
:106058003b6a9b683a6b04325a603b6b1a1d3b6a79
:106068009a603b6bda6a13469b0013449b00294aeb
:106078001a443b6b5a613b6bda6a264913469b000c
:1060880013449b000b441b68591c224813469b0071
:1060980013449b00034419601be01f4b5b68fb61c2
:1060a8003b6bfa69da61fb699a683b6b1a62fb69b8
:1060b8009b683a6b18325a603b6b03f11802fb6914
:1060c8009a603b6b144a9a62134b1b680133124a5d
:1060d80013603b6bda6a114b1b68db6a9a4208d97a
:1060e8007b6c002b02d07b6c01221a600c4b0122c6
:1060f8001a60fb6a3b613b6983f311887b6b184626
:106108003c37bd465df8047b704700bf40fe012068
:1061180020fe012044fd0120d8fd012040fd012082
:106128002cfe012080b48fb000aff860b9607a60af
:10613800fb687b63eff311824ff0200383f3118830
:10614800bff36f8fbff34f8ffa61bb61fb693b638e
:106158007a6bbb68134450331b7887f82f307a6bff
:10616800bb681344503302221a707a6bbb6812332f
:106178009b0013445b685a1c796bbb6812339b0005
:106188000b445a6097f82f30012b40f08f804d4b0d
:106198001b68002b5ed17b6b5b69bb627b6b9b686a
:1061a8007a6bd2689a607b6bdb687a6b92685a600c
:1061b800bb6a5a687b6b04339a4203d17b6bda68fb
:1061c800bb6a5a607b6b00225a61bb6a1b685a1e05
:1061d800bb6a1a607b6bdb6a01229a403a4b1b68e8
:1061e8001343394a13607b6bda6a384913469b00bc
:1061f80013449b000b4404331b687b627b6b7a6af5
:106208009a607b6a9a687b6bda607b6a9b687a6bb8
:1062180004325a607b6b1a1d7b6a9a607b6bda6a60
:1062280013469b0013449b00284a1a447b6b5a610f
:106238007b6bda6a254913469b0013449b000b4489
:106248001b68591c214813469b0013449b000344b8
:1062580019601be01e4b5b683b627b6b3a6ada6134
:106268003b6a9a687b6b1a623b6a9b687a6b183246
:106278005a607b6b03f118023b6a9a607b6b144a85
:106288009a62134b1b680133114a13607b6bda6afd
:10629800104b1b68db6a9a4208d97b68002b02d036
:1062a8007b6801221a600c4b01221a603b6b7b61f0
:1062b8007b6983f3118800bf3c37bd465df8047bda
:1062c800704700bf40fe012020fe012044fd012050
:1062d800d8fd012040fd01202cfe012080b584b0ae
:1062e80000af786039607b68002b02d1104b1b68c7
:1062f80000e07b68bb6008f030feba683b68134476
:1063080050331b78dbb2022b08d1ba683b681344c0
:10631800503300221a700123fb6001e00023fb6068
:1063280008f034fefb6818461037bd4680bd00bf34
:1063380040fd012080b586b000aff860b9607a6092
:10634800fb68002b02d1124b1b6800e0fb687b61e5
:1063580008f003fe7a69bb6812339b0013445b683c
:106368003b617a69bb6812339b0013445a687b68a7
:10637800db431a407969bb6812339b000b445a60af
:1063880008f004fe3b6918461837bd4680bd00bfbb
:1063980040fd012080b586b000af78603960364b8b
:1063a8001b687b61354b1b68043318460ff0c4ff2c
:1063b8000346002b0bd1314b1b68db6a012202fa22
:1063c80003f3da432e4b1b6813402d4a13607b6896
:1063d800b3f1ff3f24d13b68002b21d0294b5b68e8
:1063e8003b61264b1b683a699a60244b1b683a69e3
:1063f8009268da60214b1a683b699b6804325a60dc
:106408001e4b1b681a1d3b699a601c4b1b681d4a72
:106418005a611c4b1b6801331a4a136000bf26e0ff
:106428007a697b681344fb60144b1b68fa685a60ee
:10643800fa687b699a4209d2134b1a680f4b1b689a
:106448000433194610460ff03eff10e00f4b1a6850
:106458000a4b1b680433194610460ff034ff0c4be7
:106468001b68fa689a4202d2094afb68136000bfa7
:106478001837bd4680bd00bf1cfe012040fd01202d
:1064880020fe012004fe0120d4fd0120d0fd0120c2
:0464980038fe0120a9
:020000040000fa
:020000040100f9
:10649c0080b584b000af786039600123fb607b6805
:1064ac00bb60bb68002b5dd0bb68db6b002b59d08d
:1064bc00bb681a6cbb68db6b0021a3fb0223002baf
:1064cc0000d001210b46002b4cd108f044fdbb68d9
:1064dc001a68bb68db6bb968096c01fb03f31a44df
:1064ec00bb689a60bb6800229a63bb681a68bb6879
:1064fc005a60bb681a68bb68db6b013bb968096cf6
:10650c0001fb03f31a44bb68da60bb68ff2283f813
:10651c004420bb68ff2283f845203b68002b14d134
:10652c00bb681b69002b1ad0bb6810331846fef7ea
:10653c0039fe0346002b12d00e4b4ff080521a60de
:10654c00bff34f8fbff36f8f09e0bb681033184652
:10655c000ff066febb68243318460ff061fe08f09e
:10656c0013fd01e00023fb60fb6818461037bd46a5
:10657c0080bd00bf04ed00e080b58ab002aff860ca
:10658c00b9601346fb710023fb61fb68002b2dd017
:10659c000021ba68fb68a3fb0223002b00d0012169
:1065ac000b46002b22d1fb68ba6802fb03f313f1f4
:1065bc004d0f1bd8fb68ba6802fb03f3bb61bb69c8
:1065cc004c33184608f0d8f9f861fb69002b0dd054
:1065dc00fb697b617b694c337b61fa79fb690093c6
:1065ec0013467a69b968f86800f005f8fb69184633
:1065fc002037bd4680bd80b584b000aff860b9606f
:10660c007a60fb70bb68002b03d1bb69ba691a6056
:10661c0002e0bb697a681a60bb69fa68da63bb6925
:10662c00ba681a640121b869fff732ffbb6900220e
:10663c009a6400bf1037bd4680bd80b582b000aff4
:10664c0078607b68002b0ed07b6800229a607b6898
:10665c0000221a607b680022da60002300220021ed
:10666c00786800f03bf800bf0837bd4680bd80b5a8
:10667c0086b000af0346fb7101237b6100233b61b5
:10668c00fb791a4639697869fff776fff860f86884
:10669c00fff7d3fffb6818461837bd4680bd80b5a1
:1066ac0084b000af786039600023fb607b68002bfe
:1066bc000fd03a687b689a420bd802220021786886
:1066cc00fff75afff860fb68002b02d0fb683a68b2
:1066dc009a63fb6818461037bd4680bd80b58ab0fa
:1066ec0000aff860b9607a603b6000237b62fb68a6
:1066fc003b6208f030fc3b6a9a6b3b6adb6b9a425c
:10670c0002d33b68022b45d13b6a9b6bfb613a6819
:10671c00b968386a00f08afcb8613b6a9b6c002b44
:10672c0014d03b68022b02d1fb69002b2ed1386aa6
:10673c0000f040fe0346002b28d04a4b4ff080520d
:10674c001a60bff34f8fbff36f8f1fe03b6a5b6a1a
:10675c00002b10d03b6a24331846fef723fd03466a
:10676c00002b13d03f4b4ff080521a60bff34f8f6a
:10677c00bff36f8f0ae0bb69002b07d0394b4ff08a
:10678c0080521a60bff34f8fbff36f8f08f0fcfb82
:10679c00012363e07b68002b03d108f0f5fb002399
:1067ac005ce07b6a002b06d107f110031846fef75c
:1067bc007bfe01237b6208f0e7fbfef779f908f01a
:1067cc00cafb3b6a93f844305bb2b3f1ff3f03d191
:1067dc003b6a002283f844203b6a93f845305bb255
:1067ec00b3f1ff3f03d13b6a002283f8452008f048
:1067fc00cbfb3a1d07f1100311461846fef76afe53
:10680c000346002b24d1386a00f02bfd0346002be5
:10681c0018d03b6a10337a6811461846fef774fca0
:10682c00386a00f093fcfef78bf90346002b7ff4db
:10683c0060af0c4b4ff080521a60bff34f8fbff319
:10684c006f8f56e7386a00f081fcfef779f950e754
:10685c00386a00f07bfcfef773f9002318462837e2
:10686c00bd4680bd04ed00e080b58eb000aff86091
:10687c00b9607a603b60fb683b63eff311824ff0c9
:10688c00200383f31188bff36f8fbff34f8ffa612f
:10689c00bb61fb69fb623b6b9a6b3b6bdb6b9a429c
:1068ac0002d33b68022b4ed13b6b93f8453087f8f3
:1068bc002b303b6b9b6b7b623a68b968386b00f092
:1068cc00b5fb97f92b30b3f1ff3f29d13b6b9b6c98
:1068dc00002b12d03b68022b02d17b6a002b2fd1ec
:1068ec00386b00f067fd0346002b29d07b68002b2a
:1068fc0026d07b6801221a6022e03b6b5b6a002b7e
:10690c001ed03b6b24331846fef74cfc0346002b81
:10691c0016d07b68002b13d07b6801221a600fe025
:10692c00fef71cfa386297f92b303a6a9a4207d96b
:10693c0097f82b300133dbb25ab23b6b83f845200e
:10694c0001237b6301e000237b63fb6a7b617b6932
:10695c0083f311887b6b18463837bd4680bd80b5f4
:10696c008cb000af786039607b68bb62eff311824a
:10697c004ff0200383f31188bff36f8fbff34f8f5a
:10698c007a613b617b697b62bb6a9b6b3b62bb6ad6
:10699c00db6b3a6a9a4242d2bb6a93f84530fb777a
:1069ac003b6a5a1cbb6a9a6397f91f30b3f1ff3fdd
:1069bc0023d1bb6a9b6c002b0cd0b86a00f0fafc9c
:1069cc000346002b28d03b68002b25d03b680122c6
:1069dc001a6021e0bb6a5b6a002b1dd0bb6a2433b2
:1069ec001846fef7dffb0346002b15d03b68002b47
:1069fc0012d03b6801221a600ee0fef7aff9b861c5
:106a0c0097f91f30ba699a4206d9fb7f0133dbb282
:106a1c005ab2bb6a83f845200123fb6201e00023d4
:106a2c00fb627b6afb60fb6883f31188fb6a184688
:106a3c003037bd4680bd80b58ab000aff860b96014
:106a4c007a6000237b62fb683b6208f084fa3b6a45
:106a5c009b6bfb61fb69002b1fd0b968386a00f097
:106a6c004ffbfb695a1e3b6a9a633b6a1b69002bfe
:106a7c000fd03b6a10331846fef794fb0346002bed
:106a8c0007d03d4b4ff080521a60bff34f8fbff3ce
:106a9c006f8f08f079fa012369e07b68002b03d132
:106aac0008f072fa002362e07b6a002b06d107f132
:106abc0014031846fef7f8fc01237b6208f064fa15
:106acc00fdf7f6ff08f047fa3b6a93f844305bb2e7
:106adc00b3f1ff3f03d13b6a002283f844203b6aa9
:106aec0093f845305bb2b3f1ff3f03d13b6a002210
:106afc0083f8452008f048fa3a1d07f114031146b3
:106b0c001846fef7e7fc0346002b23d1386a00f049
:106b1c007cfb0346002b17d03b6a24337a68114662
:106b2c001846fef7f1fa386a00f010fbfef708f889
:106b3c000346002b89d1104b4ff080521a60bff3e3
:106b4c004f8fbff36f8f80e7386a00f0fffafdf7c5
:106b5c00f7ff7ae7386a00f0f9fafdf7f1ff386ac7
:106b6c0000f053fb0346002b3ff46faf0023184695
:106b7c002837bd4680bd00bf04ed00e080b58ab06b
:106b8c0000af7860396000237b627b68fb61002377
:106b9c003b6208f0e0f9fb699b6bbb61bb69002ba6
:106bac0024d0bb695a1efb699a63fb691b68002bd6
:106bbc0004d1fef7bfff0246fb699a60fb691b69b3
:106bcc00002b0fd0fb6910331846fef7ebfa034687
:106bdc00002b07d04c4b4ff080521a60bff34f8ff5
:106bec00bff36f8f08f0d0f9012389e03b68002bcd
:106bfc0003d108f0c9f9002382e07b6a002b06d18f
:106c0c0007f10c031846fef74ffc01237b6208f0da
:106c1c00bbf9fdf74dff08f09ef9fb6993f8443082
:106c2c005bb2b3f1ff3f03d1fb69002283f8442030
:106c3c00fb6993f845305bb2b3f1ff3f03d1fb69bd
:106c4c00002283f8452008f09ff93a4607f10c031f
:106c5c0011461846fef73efc0346002b32d1f8696c
:106c6c0000f0d3fa0346002b26d0fb691b68002bdf
:106c7c0009d108f070f9fb699b681846fef78cfd8a
:106c8c00386208f081f9fb6924333a6811461846da
:106c9c00fef73afaf86900f059fafdf751ff03468e
:106cac00002b7ff476af184b4ff080521a60bff375
:106cbc004f8fbff36f8f6ce7f86900f047fafdf761
:106ccc003fff66e7f86900f041fafdf739fff86914
:106cdc0000f09bfa0346002b3ff45baf3b6a002ba2
:106cec000dd008f038f9f86900f088f97861fb6983
:106cfc009b6879691846fef76ffe08f045f900238a
:106d0c0018462837bd4680bd04ed00e080b58ab03a
:106d1c0000aff860b9607a6000237b62fb683b626d
:106d2c0008f019f93b6a9b6bfb61fb69002b21d0c6
:106d3c003b6adb68bb61b968386a00f0e1f93b6a11
:106d4c00ba69da603b6a5b6a002b0fd03b6a24336a
:106d5c001846fef727fa0346002b07d03c4b4ff0a2
:106d6c0080521a60bff34f8fbff36f8f08f00cf98e
:106d7c00012369e07b68002b03d108f005f900239f
:106d8c0062e07b6a002b06d107f110031846fef770
:106d9c008bfb01237b6208f0f7f8fdf789fe08f006
:106dac00daf83b6a93f844305bb2b3f1ff3f03d19e
:106dbc003b6a002283f844203b6a93f845305bb26f
:106dcc00b3f1ff3f03d13b6a002283f8452008f062
:106ddc00dbf83a1d07f1100311461846fef77afb53
:106dec000346002b23d1386a00f00ffa0346002b20
:106dfc0017d03b6a24337a6811461846fef784f99b
:106e0c00386a00f0a3f9fdf79bfe0346002b87d1ef
:106e1c000f4b4ff080521a60bff34f8fbff36f8f41
:106e2c007ee7386a00f092f9fdf78afe78e7386a57
:106e3c0000f08cf9fdf784fe386a00f0e6f90346a1
:106e4c00002b3ff46daf002318462837bd4680bd9c
:106e5c0004ed00e080b58eb000aff860b9607a60e8
:106e6c00fb683b63eff311824ff0200383f311882f
:106e7c00bff36f8fbff34f8ffa61bb61fb69fb628e
:106e8c003b6b9b6bbb62bb6a002b37d03b6b93f8a5
:106e9c00443087f82730b968386b00f031f9bb6a99
:106eac005a1e3b6b9a6397f92730b3f1ff3f12d10f
:106ebc003b6b1b69002b1ed03b6b10331846fef747
:106ecc0071f90346002b16d07b68002b13d07b681e
:106edc0001221a600fe0fdf741ff386297f9273065
:106eec003a6a9a4207d997f827300133dbb25ab283
:106efc003b6b83f8442001237b6301e000237b631d
:106f0c00fb6a7b617b6983f311887b6b184638378e
:106f1c00bd4680bd80b58ab000af786039607b68b3
:106f2c003b62eff311824ff0200383f31188bff320
:106f3c006f8fbff34f8f7a613b617b69fb613b6a5b
:106f4c009b6b002b0cd03b6adb68bb613968386ae1
:106f5c0000f0d6f83b6aba69da6001237b6201e083
:106f6c0000237b62fb69fb60fb6883f311887b6aff
:106f7c0018462837bd4680bd80b584b000af786018
:106f8c0007f0e9ff7b689b6bfb6007f0fdfffb687c
:106f9c0018461037bd4680bd80b584b000af786010
:106fac007b68fb6007f0d7fffb68da6bfb689b6bb9
:106fbc00d31abb6007f0e8ffbb6818461037bd4614
:106fcc0080bd80b485b000af78607b68fb60fb68e7
:106fdc009b6bbb60bb6818461437bd465df8047be1
:106fec00704780b584b000af78607b68fb60f86850
:106ffc0007f060fd00bf1037bd4680bd80b485b082
:10700c0000af78607b685b6a002b06d07b681b6bdb
:10701c001b68c3f10503fb6001e00023fb60fb6808
:10702c0018461437bd465df8047b704780b586b0b2
:10703c0000aff860b9607a6000237b61fb689b6be2
:10704c003b61fb681b6c002b0dd1fb681b68002b94
:10705c004dd1fb689b681846fef73cfc7861fb68d9
:10706c0000229a6043e07b68002b19d1fb685868ba
:10707c00fb681b6c1a46b9681ff0dcfdfb685a688c
:10708c00fb681b6c1a44fb685a60fb685a68fb6807
:10709c009b689a422bd3fb681a68fb685a6026e0ff
:1070ac00fb68d868fb681b6c1a46b9681ff0c2fdf8
:1070bc00fb68da68fb681b6c5b421a44fb68da609d
:1070cc00fb68da68fb681b689a4207d2fb689a680f
:1070dc00fb681b6c5b421a44fb68da607b68022b12
:1070ec0005d13b69002b02d03b69013b3b613b69fd
:1070fc005a1cfb689a637b6918461837bd4680bddd
:10710c0080b582b000af786039607b681b6c002b57
:10711c0018d07b68da687b681b6c1a447b68da6071
:10712c007b68da687b689b689a4203d37b681a6831
:10713c007b68da607b68d9687b681b6c1a46386898
:10714c001ff078fd00bf0837bd4680bd80b584b008
:10715c0000af786007f0fffe7b6893f84530fb7357
:10716c001ee07b689b6c002b08d0786800f022f93d
:10717c000346002b10d0fef7f7f90de07b685b6a35
:10718c00002b12d07b6824331846fef70bf803460d
:10719c00002b01d0fef7e8f9fb7b013bdbb2fb7364
:1071ac0097f90f30002bdcdc00e000bf7b68ff227e
:1071bc0083f8452007f0e8fe07f0cdfe7b6893f8d6
:1071cc004430bb7311e07b681b69002b12d07b68c9
:1071dc0010331846fdf7e6ff0346002b01d0fef7ef
:1071ec00c3f9bb7b013bdbb2bb7397f90e30002bb1
:1071fc00e9dc00e000bf7b68ff2283f8442007f045
:10720c00c3fe00bf1037bd4680bd80b584b000af53
:10721c00786007f0a0fe7b689b6b002b02d10123ea
:10722c00fb6001e00023fb6007f0aefefb68184634
:10723c001037bd4680bd80b485b000af78607b68e8
:10724c00bb60bb689b6b002b02d10123fb6001e090
:10725c000023fb60fb6818461437bd465df8047bc1
:10726c00704780b584b000af786007f074fe7b681f
:10727c009a6b7b68db6b9a4202d10123fb6001e0c5
:10728c000023fb6007f080fefb6818461037bd46f4
:10729c0080bd80b485b000af78607b68bb60bb6894
:1072ac009a6bbb68db6b9a4202d10123fb6001e055
:1072bc000023fb60fb6818461437bd465df8047b61
:1072cc00704780b584b000af7860002204217868e4
:1072dc00fff752f9f860fb6818461037bd4680bdc1
:1072ec0080b584b000af7860396007f034fe7b68fd
:1072fc009b6c002b02d00023fb600be07b689b6b2c
:10730c00002b02d00023fb6004e07b683a689a648f
:10731c000123fb6007f038fefb6818461037bd46aa
:10732c0080bd80b584b000af786039607b68bb608d
:10733c00bb689b6c3a689a4202d00023fb600fe05a
:10734c00bb689b6b002b02d00023fb6008e007f0ae
:10735c0002febb6800229a6407f016fe0123fb6054
:10736c00fb6818461037bd4680bd80b584b000afb1
:10737c00786039600023fb6007f10c033a6819460a
:10738c007868fff758fbfb6818461037bd4680bd80
:10739c0080b584b000af78600023fb6007f10c036c
:1073ac00002219467868fff755fdfb681846103720
:1073bc00bd4680bd80b586b000af78607b689b6ca5
:1073cc003b6100237b613b699a6b3b69db6b9a42a7
:1073dc002dd23b6993f84530fb733b1d00221946b7
:1073ec003869fff723fe786197f90f30b3f1ff3f4f
:1073fc000ed13b695b6a002b19d03b6924331846cc
:10740c00fdf7d0fe0346002b11d001237b610ee06b
:10741c00fdf7a4fcb86097f90f30ba689a4206d908
:10742c00fb7b0133dbb25ab23b6983f845207b69a5
:08743c0018461837bd4680bd5b
:020000040000fa
:020000040100f9
:1074440080b584b000af78607b681b68002b04d0e3
:107454007b681b68184609f0c2f80023fb7319e027
:10746400104b1b68fa7b53f822307a689a420ed18b
:107474000c4b1b68fa7b53f82230184609f0aff81e
:10748400084b1b68fa7b002143f8221005e0fb7bc4
:107494000133fb73fb7b072be2d900bf1037bd46da
:1074a40080bd00bf78a80020b0b582b000af002333
:1074b400fb7130e01c4b1b68fa7953f82230002b27
:1074c40026d1194b1c68fd79102009f07cf803467d
:1074d40044f82530144b1b68fa7953f82230002bfa
:1074e40010d0114b1b68fa7953f822301022002176
:1074f40018461ff08dfe0c4b1b68fa7953f82230a6
:10750400fa799a72084b1b68fa7953f8223006e02c
:10751400fb790133fb71fb79072bcbd90023184688
:107524000837bd46b0bd00bf78a8002080b485b040
:1075340000af0346fb800023fb731fe0144b1b6862
:10754400fa7b53f82230002b15d0114b1b68fa7bc1
:1075540053f822301b89fa889a420cd10c4b1b68d1
:10756400fa7b53f82230fa7b9a72094b1b68fa7b38
:1075740053f8223006e0fb7b0133fb73fb7b072bc4
:10758400dcd9002318461437bd465df8047b7047e8
:1075940078a8002080b584b000af7860094b1b68e0
:1075a400002b0ad000233b737b681b89fb81054bae
:1075b4001b6807f10c021046984700bf1037bd4600
:1075c40080bd00bf74a8002080b588b000af78608b
:1075d4003a4b1a687b681b7b19460b46db000b444d
:1075e4009b0013443c331a687b689b7adb0013448a
:1075f4005a687b685a607b685868304b1a687b68a5
:107604001b7b19460b46db000b449b0013444033a1
:107614001b781a4613465b0013445b001a4600218c
:107624001ff0f6fd7b681b680822002118461ff036
:10763400effd01233b814ff6ff737b811f4b1a68db
:107644007b681b7b19460b46db000b449b001344f1
:1076540030331b783b73194b1a687b681b7b1946c4
:107664000b46db000b449b002033d018134b1a68e5
:107674007b681b7b19460b46db000b449b001344c1
:1076840030331b781a4607f10803053301461846c0
:107694001ff0d4fa7b681b8907f1080211461846cb
:1076a4001cf0f0fd0346072b03d17b681b68062200
:1076b4005a7100bf2037bd4680bd00bf78a80020a6
:1076c40080b582b000af78607b681b7b0133dab28f
:1076d4007b681a737b681a7b094b1b6893f8f83034
:1076e4009a4203d27868fff76fff05e07b680022b7
:1076f4005a737868fff74eff00bf0837bd4680bd58
:1077040078a8002080b584b000af786000237b8126
:10771400224b1a687b681b7b19460b46db000b4423
:107724009b00134438331b68fb6000237b7221e009
:10773400fb681b681b7903f00103002b14d07b68e2
:1077440018897b681b6819887b681b685b881a46e4
:107754001bf016fd0346072b03d17b681b6804222c
:107764005a7101237b8114e07b7a01337b72fb68bd
:107774000433fb60094b1a687b681b7b19460b4674
:10778400db000b449b00134440331b787a7a9a4203
:10779400ced37b8918461037bd4680bd78a800201b
:1077a40090b587b000af7860396000237b823b6876
:1077b4009b79152b02d110237b748fe002237b74f9
:1077c4008ce07b8a05333a6813440a33fb60002358
:1077d4003b74474b1a687b681b7b19460b46db00de
:1077e4000b449b00134438331b687b6161e07b6965
:1077f4001b681b7903f00103002b54d17b691b68c0
:107804001b681b7c7a7c9a424dd17b691b681b6880
:1078140018467b7c1a46f9681ff002fa0346002bcf
:1078240041d17b8a3a6813449b7a98b27b8a3a683e
:1078340013440a3301331b789bb21b0299b27b6851
:107844005c683a7c13465b0013445b002344421893
:1078540092b29a807b8a03333a6813449b7a98b233
:107864007b8a03333a6813440a3301331b789bb28f
:107874001b0299b27b685c683a7c13465b00134434
:107884005b002344421892b21a807b8a991c7b685d
:1078940058683a7c13465b0013445b0003443a681f
:1078a4000a44927a9a703b7c01333b747b690433bb
:1078b4007b610f4b1a687b681b7b19460b46db0008
:1078c4000b449b00134440331b783a7c9a428ed37a
:1078d4003b689b799ab27b8a13447b823b681b8901
:1078e4007a8a9a42fff46daf00bf1c37bd4690bd43
:1078f40078a8002090b587b000af78603960002385
:107904007b820223fb8171e07b8a02333a68134451
:107914000a33bb6000233b82394b1a687b681b7bac
:1079240019460b46db000b449b00134438331b6899
:107934007b6145e07b691b681b7903f00103002b25
:1079440038d07b6859683a8a13465b0013445b005d
:107954000b441b88002b2dd17b691b681b681b7c87
:107964009bb2fa899a4225d17b691b681b68184629
:10797400fb891a46b9681ff053f90346002b19d145
:107984007b8a3a6813449b7a98b27b8a3a68134498
:107994000a3301331b789bb21b0299b27b685c6883
:1079a4003a8a13465b0013445b002344421892b2a4
:1079b4001a8015e03b8a01333b827b6904337b6187
:1079c4000f4b1a687b681b7b19460b46db000b4484
:1079d4009b00134440331b789bb23a8a9a42a9d342
:1079e4007a8afb8913449bb202337b823b681b89ee
:1079f4007a8a9a4288d300bf1c37bd4690bd00bf27
:107a040078a8002080b588b000af786039603b6802
:107a14001b78012b00f08b80032b00f0a180002b3e
:107a240040f028813b689b78002b40f02581fff7cc
:107a34003bfdb861bb69002b00f01e813b689a884e
:107a4400bb691a81bb6900221a733b689a79bb69c6
:107a5400da72082008f0b7fd0246bb691a600023f9
:107a6400fb7713e0894b1968fa7f1346db00134454
:107a74009b000b443c331a68bb699b7adb001344bc
:107a84003a6892881a80fb7f0133fb777f4b1b682f
:107a940093f8f830fa7f9a42e4d3bb691b68002b51
:107aa40039d0bb691b680822002118461ff0b0fbbf
:107ab4007b681b7803f00803dbb2002b23d17b68bf
:107ac4001b7803f00203dbb2002b03d0bb69db7a23
:107ad400002b0ad07b681b7803f00403dbb2002b75
:107ae40019d0bb69db7a012b15d17b681b7803f0b5
:107af4000103dbb2002b0ed1bb6901225a73b869b2
:107b0400fff762fd07e07a6813786ff3c30313701d
:107b1400bb6901229a7302233b73bb691b89fb81f6
:107b24005b4b1b6807f10c0210469847a4e03b68c6
:107b34005b881846fff7fafc78617b69002b00f03c
:107b44009d807869fff77cfc03233b723b685b886c
:107b54007b814f4b1b6807f10802104698478de064
:107b64003b681b79002b40f08b803b685b88184690
:107b7400fff7dcfc38613b69002b00f081803b6936
:107b84001b68002b41d03b691b689b79002b3cd0c0
:107b94003b691b689b79062b03d13869fff714fdf9
:107ba4002ee03b691b689b79082b12d13b6918892d
:107bb4003b691b6819883b691b685b881a461bf084
:107bc400bdfa0346072b1bd13b691b6808225a7177
:107bd40016e03b691b689b79042b11d13b6918891a
:107be4003b691b6819883b691b685b881a461bf054
:107bf400c7fa0346072b03d13b691b6804225a7159
:107c04003b691b6800229a713ae07b681b7803f099
:107c14000103dbb2002b33d01c4b1b6893f8f83004
:107c2400002b2dd03b691b68002b29d03b699b7b23
:107c340083f00103dbb2002b22d07b681b7803f0b6
:107c44000203dbb2002b03d03b69db7a002b0ad0a2
:107c54007b681b7803f00403dbb2002b10d03b6974
:107c6400db7a012b0cd13b6901225a733869fff787
:107c7400abfc05e000bf04e000bf02e000bf00e091
:107c840000bf00bf2037bd4680bd00bf78a80020dc
:107c940074a8002080b58ab000af78607b681b7838
:107ca400132b00f2b58101a252f823f0017d0001eb
:107cb40015800001d77d0001cf7e0001217f0001e6
:107cc4001580000115800001158000011580000158
:107cd4001580000115800001158000011580000148
:107ce4001580000115800001158000011580000138
:107cf4001580000115800001637f00017b689b886b
:107d04001846fff713fc78627b6a002b00f082812f
:107d14007b6a5b7b83f00103dbb2002b40f07c8148
:107d24007b689b7a0f2b03d07b689b7a052b15d13c
:107d34007b6a1b687a6892799a71a54b1b68002b41
:107d440000f06c8101233b727b6a1b897b81a04b11
:107d54001b6807f10802104698475fe17b689b792e
:107d6400062b1cd17b6a1b681b79002b13d07b6a02
:107d740018897b6a1b6819887b6a1b685b881a46aa
:107d84001bf0dcf90346072b40f044817b6a1b6837
:107d940008225a713ee1786afff792fc3ae17b6867
:107da4009b79082b0cd1786afff7acfc03467b84e3
:107db4007b8c002b40f02e81786afff781fc29e14f
:107dc4007b689b79042b40f02581786afff778fc67
:107dd40020e17b689b881846fff7a8fbf861fb69e4
:107de4005b7b83f00103dbb2002b40f01981fb695c
:107df400002b00f017817b681b7a99b27b680833eb
:107e040001331b789bb21b029ab2fb691b680a44bc
:107e140092b21a807b689b7a99b27b680a330133e9
:107e24001b789bb21b029ab2fb691b680a4492b28c
:107e34005a80684b1a68fb691b7b19460b46db00aa
:107e44000b449b00134434331b68002b1fd0fb6985
:107e54001a68604b1968fb691b7b18460346db00f4
:107e640003449b000b4434331b6812881a80fb695b
:107e74001a68584b1968fb691b7b18460346db00dc
:107e840003449b000b4434331b6852885a80fb69bb
:107e94001b6801221a717b6893f8fe30012b40f0b5
:107ea400c180fb691889fb691b681988fb691b6819
:107eb4005b881a461bf042f90346072b40f0b28058
:107ec400fb691b6808225a71ace07b689b881846e2
:107ed400fff72cfbb861bb695b7b83f00103dbb26a
:107ee400002b40f0a180bb69002b00f09f807968d3
:107ef400b869fff755fc7b6893f8ff30012b40f01d
:107f04009580b869fff7fefb0346fb82fb8a002bd2
:107f140040f08c80b869fff7d3fb87e07b689b88cf
:107f24001846fff703fb38613b695b7b83f0010371
:107f3400dbb2002b7cd13b69002b7bd07b681b8997
:107f4400002b03d079683869fff7d4fc7b6893f879
:107f5400ff30012b6ed13869fff7b2fb6ae07b6812
:107f64009b881846fff7e2faf860fb685b7b83f0b6
:107f74000103dbb2002b5fd1fb68002b5ed0fb68f2
:107f84001b685b79062b07d1fb681b6800225a71ba
:107f9400f868fff719fb51e0fb681b685b79082b55
:107fa4001ad1fb681b6800225a71fb681889fb68a8
:107fb4001b681988fb681b685b881a461bf0bef8af
:107fc4000346072b3ad1fb681b6808225a7135e037
:107fd40074a8002078a80020fb681b685b79042b38
:107fe4002cd1fb681b6800225a71fb681889fb6856
:107ff4001b681988fb681b685b881a461bf0c0f86d
:108004000346072b1ad1fb681b6804225a7115e03a
:1080140000bf14e000bf12e000bf10e000bf0ee09c
:1080240000bf0ce000bf0ae000bf08e000bf06e0ac
:1080340000bf04e000bf02e000bf00e000bf28373b
:10804400bd4680bd80b582b000af1a4b1b68002bc3
:108054000bd1fc2008f0b7fa0246164b1a60154bf8
:108064001b68002b19d100231fe00023fb7111e0d2
:10807400104b1b68fa7953f82230002b07d00d4bb4
:108084001b68fa7953f822301846fff7d9f9fb79bf
:108094000133fb71fb79072bead9064b1b68fc22e1
:1080a400002118461ff0b4f8012318460837bd46ce
:1080b40080bd00bf78a8002080b483b000af786092
:1080c400044a7b68136000bf0c37bd465df8047b2f
:1080d400704700bf74a8002080b582b000af7860fc
:1080e400144b1b6893f8f830052b1dd8114b1a68f4
:1080f400104b1b6893f8f83019460b46db000b4411
:108104009b00203313442422796818461ef096fd00
:10811400084b1b6893f8f820064b1b680132d2b257
:1081240083f8f820002300e0012318460837bd46f1
:1081340080bd00bf78a8002080b582b000af786011
:1081440039603b681b78012b02d0042b0ad010e065
:108154007b68002b0cd03b685b6819467868fff796
:1081640051fc05e03b685b681846fff793fd00e0af
:1081740000bf00bf0837bd4680bd80b584b000afe6
:108184000346fb80fb881846fff7d0f9f860fb68cc
:10819400002b17d0fb681b68002b11d0fb681b68f1
:1081a4000822002118461ff033f8fb6800221a73d6
:1081b400fb6801225a73f868fff706fa002302e00d
:1081c400022300e0032318461037bd4680bd00bfdc
:020000040000fa
:020000040100f9
:1081d40008b5044b186818b1804780f00100c0b29c
:1081e40008bd00bf9ca0002009b91046704780b1ab
:1081f400037883ea122383ea131343ea022282ea0e
:10820400033282ea431292b200b10130013989b2d9
:10821400eae7ff23ede72de9f04f85b081460e9e96
:108224008a46904606b11e4443449cb2474655468e
:10823400a74203d1012005b0bde8f08f95b36a468b
:1082440010232946484608f001fabdf80420944258
:1082540008d9bdf8063013449bb29f4202d29c4217
:1082640003d91f46bdf80a50e8e79742a4eb020180
:1082740028bfe31b89b234bf0b469bb2a4eb0304b3
:1082840032bfbdf80ab04746d346a4b246b1103552
:108294002944f61ac91a324689b2484608f0d6f972
:1082a4005d46c5e72846c6e72de9f74fd48896888a
:1082b400dff8588082468b4644f307254ff6ff7754
:1082c400002d03da384603b0bde8f08f1ad0a4f5c8
:1082d40080741ffa84f94ff48074cdf8008023462b
:1082e400324659465046fff796ff38b13a46214682
:1082f4004046fff779ff2644b6b20746013d6db20a
:108304004c46dde7002cddd0a146e6e7a0a0002026
:1083140010b5094c94f8040108f036fa4ff40052f1
:10832400002194f8040108f059fa18b14ff480734d
:10833400a4f8063110bd00bf9ca000202de9f04137
:10834400094c05460e46174613460a46014694f85c
:10835400040108f0b1f93b463246294694f8040179
:10836400bde8f04108f088ba9ca0002003292cd86d
:10837400dfe801f002091b23184bb3f8062110446f
:10838400a3f806017047154ab2f80631184480b2c2
:10839400c11c4ff6fc730b40984203d90430a2f879
:1083a40006017047a2f8063170470c4ab2f806314c
:1083b4000f33184420f00f00f1e7084ab2f80631f1
:1083c4003f33184420f03f00e9e74ff0200383f3e4
:1083d4001188bff36f8fbff34f8ffee79ca000207f
:1083e4004ff0200383f31188bff36f8fbff34f8fd8
:1083f400fee770b50c4a92f808410023d9b28c42ca
:1084040001d800200be05d1c9b00d118b1f8096174
:10841400864207d1b1f80b2112b10448184470bd4b
:10842400fff7deff2b46e9e79ca00020a5a1002072
:1084340008b5fff7deff00b1408808bd10b504465b
:10844400fff7d7ff40b14ff0200383f31188bff348
:108454006f8fbff34f8ffee7094b93f808010206b5
:1084640001d5fff7bdff421c83f8082103eb80020e
:1084740003f20913a2f8094103eb800010bd00bf09
:108484009ca0002008b5fff7b4ff08b9fff7a8ffc8
:10849400064a92f80831013bdbb282f8083102eb5c
:1084a4008303d3f80931036008bd00bf9ca00020fa
:1084b4002de9f041244cb4f80a33b4f80c630344b6
:1084c4009bb204f20e37ff2b0546a4f80a3307ebe0
:1084d400060004f104080ad82a46414635441ef031
:1084e400adfb0126a4f80c533046bde8f081c6f577
:1084f400807241461ef0a2fb4ff480723946b4f8f4
:108504000601fff71bff06460028edd000214ff4bb
:108514008070fff72bffb4f80a53b4f80c13a5f5d9
:1085240080750023adb2a4f80c33a4f80a53002dcf
:10853400dad0c1f580712a4618fa81f138461ef066
:108544007dfba4f80c53cfe79ca000207fb545f237
:108554004143adf806300d4bcde902300c4bc0431e
:10856400b3f80e3404904ff6ff7210210df106009b
:10857400adf81430fff738fe1222adf8040001a95b
:108584000020fff7dbfe07b05df804fb534e7632a4
:108594009ca000202de9f04f724c94f80471002542
:1085a4008fb0122309aa29463846a4f81054a4f817
:1085b4001254a4f80c53a4f80a5308f047f80b9b80
:1085c400039394f804310133dbb2012b94bf84f894
:1085d400043184f8045194f80431bb4208d14ff0bb
:1085e400200383f31188bff36f8fbff34f8ffee730
:1085f400fff78efe0028e4d04ff0000adff8708108
:1086040080e004eb8a091023b9f80bb105aa594696
:10861400384608f01bf80026bdf81c50adf81a5077
:1086240005aa59463846adf81860adf81e60adf895
:108634002060fff739fe4ff6ff72adf814000e21eb
:1086440005a8fff7d1fdf022adf82200ff2146482e
:108654001ef0defd05ab03cb1035c8f80000c8f8ea
:108664000410b4f80c2303cbb4f80631c8f808009e
:10867400adb21344b5f5807fc8f80c10a9f80b31de
:1086840019d8394b00933246bdf81c305946384648
:10869400fff7c1fd50b1b4f80631b4f80c2313440c
:1086a400a9f80b312846fff703ff38bb0024204606
:1086b4000fb0bde8f08f1023b5f5807f2a4628bfa0
:1086c4004ff48072a2eb03091ffa89f94344029222
:1086d400009332464b4659463846fff79cfd002826
:1086e400e4d00298fff7e4fe0028dfd0029bed1ae5
:1086f4004e44adb2b6b20023002dddd10af1010320
:108704005ffa83fa94f8083153453ff67aafb4f828
:108714000a23fab9b4f80a030021fff727feb4f8d4
:108724000631a4f80e34039b581efff70fff0446ce
:108734000028bbd002210020fff718fe1222ff21df
:1087440009a81ef065fd122309aa0021384607f086
:10875400b3fface70549b4f80601fff7effd0028c5
:10876400d8d1a3e79ca00020b0a00020aaa3002099
:10877400a0a0002008b50a4bb3f80631c3f5005396
:108784009bb283420bd2fff705ff40b94ff02003a1
:1087940083f31188bff36f8fbff34f8ffee708bddc
:1087a4009ca000202de9f84f344e0446351d89461f
:1087b4004ff48072ff2128461ef02afde1884ff60f
:1087c400ff724846fff710fd4ff6ff7220800e211e
:1087d4002046fff709fd2346e08103cb7060696002
:1087e40003cba860e960e28802f11007bfb2b9f1d7
:1087f400000f07d0b7f5807f17d8494606f114005b
:108804001ef01cfae2881e49b6f80601f02a28bfb9
:10881400f022103292b2fff791fd8046e0881030ca
:10882400022180b2fff7a2fd25e04ff0000b1020db
:10883400b7f5807f3c4628bf4ff48074a4eb000a50
:10884400524609eb0b0128441ef0f8f922460c4964
:10885400b6f80601fff772fd804660b1204602219a
:108864003f1bfff783fdbfb20beb0a031ffa83fb29
:108874000020002fdcd14046bde8f88f9ca00020ea
:10888400a0a000202de9f041674c00258eb084f8ab
:1088940008514ff0ff38ff27122304aa002128466d
:1088a40007f0d4fedde906637340013326d19df859
:1088b4001230412b22d19df81330542b1ed19df838
:1088c4001430532b1ad19df815304e2b16d19df828
:1088d4001630762b12d19df81730322b0ed14ff66d
:1088e400ff7210210df11200fff77efcbdf810306d
:1088f400834203d146453cbfb0462f46e5b1ff2f26
:108904002cd1002384f804314ff6ff766ff0010573
:10891400fff7fefc90b994f804310133dbb2012b6c
:1089240084f80431f4d94ff0200383f31188bff3a2
:108934006f8fbff34f8ffee70125ade72846a4f8fc
:108944000e64fff703fe0028e5d0002384f8083105
:10895400012384f814340eb0bde8f0814ff4807321
:10896400a4f806313846122309aa002184f80471b8
:1089740007f06cfe4ff6ff77b4f80631b3f5005fed
:10898400e6d2bdf83420ba4201d09a4217d8022167
:108994000020fff7ebfc022510236a46b4f8061109
:1089a40094f8040107f052fe6a46102312f8011be2
:1089b400ff291ed1013b9bb2002bf7d1c8e700254c
:1089c400eae729461020fff7d1fcd5e7bdf802609d
:1089d4003046fff70efd10b93046fff72ffdb4f80f
:1089e40006314380bdf80830bbb93046fff74afd75
:1089f40013e03a460e216846fff7f6fbbdf80e6019
:108a04008642ded16a46b4f8061194f80401fff7f1
:108a14004bfcbdf800308342d8d0bdf806001030be
:108a2400294680b2cfe700bf9ca00020034b93f8f7
:108a340014340bb9fff726bf704700bf9ca0002079
:108a44002de9ff478a4616469846054630b12bb1b4
:108a5400fff7befb044650b1052045e04ff020036c
:108a640083f31188bff36f8fbff34f8ffee706f1d7
:108a7400100080b2fff77efe2846fff7bafc0746d7
:108a8400a8b3b0f802901d4d10236a46494695f8e4
:108a9400040107f0dbfdbdf808300aeb06029a4238
:108aa40027d8b34218bfbdf80c40adf804a01cbfd2
:108ab4000134a4b241466846adf80c40adf80660f6
:108ac400adf80a90b5f80641fff76cfe98b1bdf811
:108ad4000c307c80642b4ff0000005d9bdf80230c7
:108ae400a5f81034a5f8120404b0bde8f0870320fb
:108af400fae70420f8e70120f6e700bf9ca0002075
:108b040073b50c4615461e46c0b1bbb1fff790fcc9
:108b140080b16319b3f5803f09d201460c48009631
:108b24002b46224690f80401fff775fb20b9042078
:108b340002b070bd0320fbe70020f9e74ff02003eb
:108b440083f31188bff36f8fbff34f8ffee700bf2e
:108b54009ca000201fb540b94ff0200383f3118877
:108b6400bff36f8fbff34f8ffee7fff761fc48b190
:108b740001460648102390f804016a4607f066fd92
:108b8400bdf8080005b05df804fb00bf9ca0002000
:108b94002de9f04f431e14469bb24ff6fd729342eb
:108ba4008bb080460e461dd8b1f5006f1ad8fff77a
:108bb4003ffc00bbfff70cfb054648bb06f1100069
:108bc40080b2fff7d7fd8d4b93f90821002a80f27c
:108bd400f7804ff0200383f31188bff36f8fbff347
:108be4004f8ffee74ff0200383f31188bff36f8f9d
:108bf400bff34f8ffee74046fff7acff86420fd02e
:108c04007e4da5f81084a5f81264fff7e1fa08b1c7
:108c140005200ee0b5f8120470b9b5f810347bb92c
:108c2400002c00f0e6802346324600214046fff740
:108c340067ff0bb0bde8f08f103080b2fff79afdec
:108c4400b5f81004fff7d5fb81460028e8d0b0f84a
:108c540002b095f80401102306aa594607f0f6fc61
:108c6400b5f81234ebb9bdf82000103080b2fff72c
:108c740081fdb5f81004fff7bcfb814640b94ff005
:108c8400200383f31188bff36f8fbff34f8ffee789
:108c9400b0f802b095f80401102306aa594607f06b
:108ca400d5fcb5f81224b5f806310493bdf820308c
:108cb40022b19342adf8202028bf13460022bdf80c
:108cc4002010adf81c20adf81e10adf82220adf830
:108cd40024200df1180cbce80300dff824a168601f
:108ce40003f11007caf80410bce80300bfb2b7f5db
:108cf400807fcaf80800caf80c1030d80af11001b5
:108d0400009195f804015946fff785fa002872d0be
:108d140006ab03cbbdf81e206860caf8041003cb71
:108d24001032caf80800caf80c1092b25146b5f8cd
:108d34000601fff703fb00283ff472afbdf81e00e5
:108d44001030022180b2fff711fb2c4b0022a3f854
:108d54001024a3f81224049ba9f8023060e71546f6
:108d64001023cdf814a0b7f5807fba4628bf4ff47e
:108d7400807aaaeb030292b20392059a1f48134425
:108d840000932a46039b90f804015946fff743fadf
:108d940088b31b495246b1f80201fff7cffa002805
:108da4003ff43eaf02215046fff7e0fa039ba7ebe6
:108db4000a072b44bfb29db20023002fd3d1c4e7ce
:108dc400214606a8b3f80671adf81a80adf81c5018
:108dd400adf81e60adf82060adf82250adf8245017
:108de400fff7e0fc38b14046fff728fb478002203c
:108df4001fe720461de701201be700bf9ca00020c1
:108e0400a0a00020f0b5074685b040b94ff020037c
:108e140083f31188bff36f8fbff34f8ffee7fff724
:108e240007fb00283fd0fff7d3f9044600283cd1c4
:108e34001020fff79ffc4ff6ff720e216846adf835
:108e44000020adf80270cde90144adf80c40fff705
:108e5400cbf96b46adf80e0003cb154d6860a960e5
:108e640003cb2e1de860296110223146b5f80601b6
:108e7400fff764fa68b91022b5f8061195f80401f1
:108e840007f0acfc18b902211020fff76ffa01209b
:108e940007e002211020fff769fa3846fff7f2fadb
:108ea400204605b0f0bd0320fbe70520f9e700bf2d
:108eb4009ca00020f8b50446fff78af9054668bb74
:108ec40064b107f061fc012007f05efc4ff400720e
:108ed400294613481ef09cf9002020e0114d95f816
:108ee4000871e3b29f420cd8fff754fb0028f3d17a
:108ef4004ff0200383f31188bff36f8fbff34f8fbd
:108f0400fee705eb8403b3f80961304602f0dcfeaa
:108f140010b93046fff7b6fa0134e2e70520f8bd90
:108f2400a5a100209ca00020014b1860704700bf41
:108f34009ca0002008b5fff77bfa003018bf012081
:108f440008bd08b5fff726fb40b94ff0200383f3b3
:108f54001188bff36f8fbff34f8ffee708bd00bfcb
:020000040000fa
:020000040100f9
:108f640080b400af304b314a1a602f4b4ff6a00249
:108f74009a812d4b4ff440325a6000bf2a4bdb6973
:108f8400002bfbd1284b1b68274a43f002031360d4
:108f940000bf254bdb69002bfbd1254b00221a6255
:108fa400234b00229a62224b0022da62204b0022d9
:108fb40083f834201e4b002283f83c201c4b0022f3
:108fc4009a631b4b0022da87194b00221a60184b54
:108fd40000229a60164b0022da60154b00221a75a3
:108fe400134b00221a77124b00229a610e4b5b68d6
:108ff40003f00703012b06d00d4b80221a630c4ba0
:1090040080221a6105e00a4b40221a63084b402271
:109014001a61054b80229a75034b04229a7500bf8e
:10902400bd465df8047b7047000c0040040112400b
:1090340000fc012080b400af024b1846bd465df829
:10904400047b70470090d003f0b587b000af786020
:1090540039600023fb7500233b610023fb607b68c0
:10906400002b00f0ee807b681b68002b00f0e98089
:109074003b68002b02d1fff7ddff38607b681b687b
:109084001b013a689a421ad37b681b684ff00004ac
:109094004ff000004ff00001210541ea133118059b
:1090a4003b684ff000041a4623461cf0d7f90346e8
:1090b4000c46c3f580333b610023fb6051e07b68c1
:1090c4001b68db003a689a421ad37b681b684ff02e
:1090d40000044ff000004ff00001e10441ea533175
:1090e400d8043b684ff000041a4623461cf0b6f936
:1090f40003460c46c3f580333b610223fb6030e03a
:109104007b681a6813465b0013443a689a4228d372
:109114007b681b6819464ff000020b461446dd18a5
:1091240044eb04062b4634465b1842eb04044ff030
:1091340000014ff00002220442ea134219040b46d4
:109144001446184621463b684ff000041a4623464d
:109154001cf084f903460c46c3f580333b610423b9
:10916400fb603a4b1b68394a23f00203136000bfcb
:10917400364bdb69002bfbd1344b3a6992b29a81ae
:109184007b685b68022b18d1304b1b6823f070633b
:1091940023f46043fa68520392b22c4913430b60e0
:1091a4002a4b5b6823f047027b6899687b68db681d
:1091b4000b43264913434b601ee0244b1b6823f0ea
:1091c400706323f46043fa68520392b213431f4a54
:1091d40043f0807313601d4b5b6823f4015323f049
:1091e40007037a6892681a437b68db681a437b68d2
:1091f4005b68164913434b6000bf144bdb69002bbb
:10920400fbd1124b1b68114a43f00203136000bfe9
:109214000e4bdb69002bfbd10c4b5b6803f007039f
:10922400012b06d00a4b80221a63094b80221a6153
:1092340005e0074b40221a63054b40221a610123c3
:10924400fb75fb7d18461c37bd46f0bd000c004085
:1092540000fc012080b400af0a4b1b6803f002033a
:10926400002b0ad1074b1b68064a43f00203136024
:1092740000bf044bdb69002bfbd100bfbd465df88a
:10928400047b7047000c004080b400af0a4b1b689d
:1092940003f00203002b0ad0074b1b68064a23f095
:1092a4000203136000bf044bdb69002bfbd100bf3a
:1092b400bd465df8047b7047000c004080b483b069
:1092c40000af0023fb800b4b80221a76094b072248
:1092d4005a8302e0074b9b6afb80064b1b7edbb282
:1092e40003f00403042bf5d000bf0c37bd465df832
:1092f400047b7047000c004080b483b000af064b81
:10930400db8ffb80044b0022da87fb8818460c377e
:10931400bd465df8047b704700fc012080b586b033
:1093240000af0346fb800023fb742d4b9b6a013383
:109334007b612b4b1b6b7a699a4201d300237b61bf
:10934400274bdb6a7a699a4216d1254b1b6a002b9c
:1093540012d0234b5b6afb60214b1b6af968012026
:1093640098471f4b9b6a01337b611d4b1b6b7a69ca
:109374009a4201d300237b61194bdb6a7a699a42d2
:1093840028d0184b5b6803f00703012b0ad0144b59
:109394009b6abb60fb88d9b2134abb6813440a4674
:1093a4001a7012e00e4b9b6a5b00bb60fb88d9b25b
:1093b4000d4abb6813440a461a70fb881b0a9ab20a
:1093c400bb680133d1b2084ad154054a7b69936220
:1093d4000123fb74fb7c18461837bd4680bd00bfd3
:1093e40000fc0120000c004040fc012080b582b04c
:1093f40000af174b93f83430dbb2002b24d000f0cd
:109404008df87860124b1b6a002b1dd0104b5b6ae1
:109414003b600f4b93f83c30dbb2002b0ad00c4b73
:109424009b6b7a689a420fd3094b1b6a39680020f8
:10943400984709e0064b9b6b7a689a4204d1044b27
:109444001b6a39680020984700bf0837bd4680bdb5
:1094540000fc012080b489b000af7860396000233b
:10946400fb612b4bdb6abb61294b9b6a7b613fe051
:10947400ba697b699a4240d0264b5b6803f00703c4
:10948400012b0fd07a68fb6913442349ba690a4453
:109494001278d2b21a70fb690133fb61bb690133e4
:1094a400bb611ee0bb695b003b61fb695b00fb6069
:1094b4007a68fb68134418493a690a441278d2b2ac
:1094c4001a703b695a1cfb68013379680b441249d2
:1094d4008a5cd2b21a70bb690133bb61fb69013388
:1094e400fb610b4b1b6bba699a4201d30023bb612e
:1094f400fa693b689a42bbd300e000bf044abb69e7
:10950400d362fb6918462437bd465df8047b704777
:1095140000fc0120000c004040fc012080b485b018
:1095240000af0e4bdb6abb600c4b9b6a7b607a68b6
:10953400bb689a4204d37a68bb68d31afb6006e01e
:10954400064b1a6bbb68d31a7a681344fb60fb683a
:1095540018461437bd465df8047b704700fc0120b3
:1095640098b500af044b1c6bfff7d8ff0346e31a12
:10957400013b184698bd00bf00fc012080b400af39
:10958400034b1b6b013b1846bd465df8047b7047db
:1095940000fc012080b485b000af03460a46fb718d
:1095a4001346bb71094b93f83430fb73074afb79bc
:1095b40082f83430054abb7982f83c30fb7b18468c
:1095c4001437bd465df8047b704700bf00fc0120e2
:1095d40080b483b000af78607b68002b02d0044a6b
:1095e4007b68936300bf0c37bd465df8047b70470e
:1095f40000fc012080b483b000af78603960064a73
:109604007b681362044a3b68536200bf0c37bd4653
:109614005df8047b704700bf00fc012080b483b078
:1096240000af0023fb71084b1b7edbb203f0020387
:10963400022b01d10123fb71fb7918460c37bd467f
:109644005df8047b704700bf000c004080b489b013
:1096540000af78600023fb77224b9b687b61214b32
:10966400db68bb617b683b61ba697b699a4231d034
:109674001d4b5b6803f00703012b0ad01b4abb692f
:1096840013441b78dab23b691a70bb690133bb61be
:1096940014e0bb695b00fb60144afb6813441b784d
:1096a400dab23b691a70fb685a1c3b6901330f49f3
:1096b4008a5cd2b21a70bb690133bb61094b1b6966
:1096c400ba699a4201d30023bb61064abb69d360dd
:1096d4000123fb77fb7f18462437bd465df8047be6
:1096e400704700bf00fc0120000c0040c0fc0120ba
:1096f40080b489b000af0346fb80234b9b687b6139
:10970400214bdb683b610023fb767b690133fb6102
:109714001d4b1b69fa699a4201d30023fb61fa6964
:109724003b699a4228d0194b5b6803f00703012b6d
:1097340007d0fb88d9b2164a7b6913440a461a70cb
:1097440015e07b695b00fb60fb88d9b2104afb68bb
:1097540013440a461a70fb680133fb60fb881b0a3a
:109764009bb2d9b20a4afb6813440a461a70064ae5
:10977400fb6993600123fb76fb7e18462437bd46c4
:109784005df8047b704700bf00fc0120000c004022
:10979400c0fc012080b582b000af164b1b7ddbb24c
:1097a400002b23d000f0a6f87860124b1b68002b26
:1097b4001cd0104b5b683b600e4b1b7fdbb2002b55
:1097c4000ad00c4b9b697a689a420fd3094b1b68e9
:1097d40039680320984709e0064b9b697a689a42e6
:1097e40004d1044b1b6839680320984700bf08372d
:1097f400bd4680bd00fc012080b485b000af0e4b97
:109804009b68bb600c4bdb687b60ba687b689a42e0
:1098140004d3ba687b68d31afb6006e0064b1a6966
:109824007b68d31aba681344fb60fb681846143784
:10983400bd465df8047b704700fc012080b582b012
:1098440000affff7d9ff78607b6818460837bd463c
:1098540080bd80b584b000af786039600023fb60c0
:1098640031e0234b5b6803f00703012b0ed07a68c9
:10987400fb6813441b789bb21846fff739ff034675
:10988400002b25d0fb680133fb601ce0fb685b0008
:1098940001337a6813441b787b817b891b027b81ab
:1098a400fb685b007a6813441b789ab27b89134384
:1098b4007b817b891846fff71bff0346002b09d0e9
:1098c400fb680133fb60fa683b689a42c9d302e043
:1098d40000bf00e000bffff78fff0346002b02d05c
:1098e400034b01229a75fb6818461037bd4680bdac
:1098f400000c004098b500af044b1c69fff79effb5
:109904000346e31a013b184698bd00bf00fc012042
:1099140080b400af034b1b69013b1846bd465df89c
:10992400047b704700fc012080b485b000af03467f
:109934000a46fb711346bb71074b1b7dfb73064a3a
:10994400fb791375044abb791377fb7b18461437ec
:10995400bd465df8047b704700fc012080b483b0f1
:1099640000af78607b68002b02d0044a7b68936167
:1099740000bf0c37bd465df8047b704700fc012036
:1099840080b483b000af78603960064a7b681360a6
:10999400044a3b68536000bf0c37bd465df8047b46
:1099a400704700bf00fc012080b582b000af0f4bb0
:1099b4005b8b9bb203f00703fb80fb88002b10d06a
:1099c4000b4afb88d387fff779fc094b1b6a002bf2
:1099d40007d0074b5b6a3b60054b1b6a3968022062
:1099e400984700bf0837bd4680bd00bf000c00404b
:1099f40000fc012080b500af0ae00a4b9b6a9bb2d1
:109a04001846fff78bfc0346002b01d0fff7eefc52
:109a1400044b1b7edbb203f00403042bedd000bf28
:109a240080bd00bf000c004080b582b000af1be0d9
:109a3400bb1d1846fff70afe0346002b10d0104b3f
:109a44005b6803f00703012b04d0fb88dab20c4bec
:109a54009a6202e0fa880a4b9a62fff79bfe03e0df
:109a6400074b01221a7506e0054b1b7edbb203f09f
:109a74000103012bdcd000bf0837bd4680bd00bf09
:109a8400000c004080b582b000af0023fb71364b60
:109a94009b7ddbb2002b62d0334b1b7edbb203f029
:109aa4008003802b0cbf01230023fb712e4b9b7d75
:109ab400dbb203f08003802b04d1fb79002b01d0af
:109ac400012300e00023fb71fb7903f00103fb7128
:109ad400fb79002b01d0fff767ff234b1b7edbb222
:109ae40003f00103012b0cbf01230023fb711e4b68
:109af4009b7ddbb203f00103012b04d1fb79002b26
:109b040001d0012300e00023fb71fb7903f0010382
:109b1400fb71fb79002b01d0fff786ff124b1b7ef4
:109b2400dbb203f00403002b14bf01230023fb71f9
:109b34000d4b9b7ddbb203f00403002b04d0fb79b7
:109b4400002b01d0012300e00023fb71fb7903f01b
:109b54000103fb71fb79002b01d0fff74bff00bf22
:0c9b64000837bd4680bd00bf000c00406b
:020000040000fa
:020000040100f9
:109b70002b4b2c4941f24852995002f5de724ff4ba
:109b80008041995018324ff01451995003f5b95251
:109b90002549116041f22472244999500432244924
:109ba0009950043223499950043223499950043280
:109bb000e0219950043221499950043220499950aa
:109bc00003f5ba524ff44031116041f244721d491d
:109bd000995004321c49995004321c49995004325e
:109be0000621995004321a49995004321949995062
:109bf00004324ff40041995003f5bb5216491160ed
:109c000041f2647215499950043245f2336199501a
:109c100004324ff4f051995004324021995070476a
:109c2000002001411e00ffffc0464654a040000c2a
:109c300010928fbe18d410007aa64f4053a9482125
:109c40004b055046f1813d8cd3080c0c9002061850
:109c500020875c006400ffff110d400605292400e9
:109c6000024a536823f40063536070470040014187
:109c7000c82300bf00bf00bf00bf00bf00bf00bfc0
:109c800000bf00bf00bf00bf00bf00bf00bf00bfdc
:109c900000bf00bf00bf00bf00bf00bf00bf013b4f
:109ca00013f0ff03e5d1704708b540f65a210120b3
:109cb0000df07cf94ff49e7103200df077f94ff40d
:109cc000987104200df072f943f2152105200df072
:109cd0006df943f2060107200df068f94ff40061b9
:109ce00013200df063f940f2ad2114200df05ef960
:109cf00044f2e00117200df059f94ff48941182082
:109d00000df054f94cf6862119200df04ff94ff45f
:109d10007e711f200df04af94ff4686133200df079
:109d200045f946f27a213a200df040f941f6040156
:109d30003e200df03bf94cf6052144200df036f99c
:109d4000012147200df032f94cf6072148200df093
:109d50002df9ff214f200df029f94af6ac315120a1
:109d60000df024f94ff478615d200df01ff94df6e8
:109d700060016b200df01af947f678016c200df0a8
:109d800015f94ef619116d200df010f94ff6e1712d
:109d900071200df00bf94ff648617220bde80840c4
:109da0000df004b908b54ef24e3108200df0fef862
:109db0004ef254313d200df0f9f842f202014920f3
:109dc0000df0f4f842f2ff6162200df0eff842f27c
:109dd000ff0164200df0eaf842f202016a200df062
:109de000e5f842f2040175200df0e0f842f20401ba
:109df0007d200df0dbf842f2ff7180200df0d6f8e7
:109e00004ef24e3181200df0d1f842f2fa718220eb
:109e10000df0ccf84ef24e3183200df0c7f842f22f
:109e2000f57184200df0c2f84ef24e3185200df010
:109e3000bdf842f2f27186200df0b8f84ef24e31c4
:109e400087200df0b3f842f2ea7188200df0aef8e9
:109e50004ef24e3189200df0a9f842f2e0718a20cd
:109e60000df0a4f84ef24e318b200df09ff842f227
:109e7000d6718c200df09af84ef24e318d200df0f7
:109e800095f842f2fb118e200df090f84ef254310d
:109e90008f200df08bf842f2ed1190200df086f836
:109ea0004ef2543191200df081f842f2e0119220ef
:109eb0000df07cf84ef2543193200df077f842f219
:109ec000d61194200df072f84ef2543195200df019
:109ed0006df842f2ca1196200df068f84ef2543136
:109ee00097200df063f84ff4075198200df05ef8bd
:109ef0004ef2543199200df059f842f296119a2001
:109f00000df054f84ef254319b200df04ff842f210
:109f100090119c200df04af84ef254319d200df026
:109f200045f842f28a119e200df040f84ef254316d
:109f30009f20bde808400df039b808b50821602021
:109f40000df034f8fff794fefff792fefff790fe56
:109f5000fff78efefff78cfe00216020bde8084071
:109f60000df024b82de9f74f00200df037f81f2031
:109f70000df034f883461d200df030f88246602045
:109f80000df02cf8814654200df028f88046592019
:109f90000df024f807461a200df020f8064655204b
:109fa0000df01cf805464f200df018f804467420fb
:109fb0000df014f844f48071009089b24f200cf039
:109fc000f5ff009bc3f30b0141f4405174200cf0ea
:109fd000edff522100200cf0e9ff40f6f8311f2080
:109fe0000cf0e4ff4ff620011d200cf0dfff0421f0
:109ff00060200cf0dbff42f6b05154200cf0d6ff8d
:10a0000048f21c0159200cf0d1ff48f21c011a2023
:10a010000cf0ccff4ef2100155200cf0c7fffff7fb
:10a0200027fefff725fe2549d1f83c3443f008030d
:10a03000c1f83c34fff71cfe214b1a6842f4007251
:10a040001a601a46136813f40073fbd141f25052a0
:10a0500001938a58d1f83c04009220f00800c1f81e
:10a060003c044ff6ff6121404f200cf09fff594602
:10a070001f200cf09bff51461d200cf097ff494616
:10a0800060200cf093ff414654200cf08fff3946be
:10a0900059200cf08bff31461a200cf087ff29461f
:10a0a00055200cf083ff019b122019460cf07eff17
:10a0b000009ac2f3094003b0bde8f08f00200141cf
:10a0c0004035014173b506460df106000c4610f00f
:10a0d0000bf9bdf8060000284cd0314d2a78801bc2
:10a0e000002a49d01cf0b7fa27a3d3e900230df0ca
:10a0f00007fb18f07bfc07ee900ab3ee047ac7ee7c
:10a10000877a17ee900a1af0cbfd9fed210b41ecf8
:10a11000110b04f0f1f90022224b51ec100b0df061
:10a12000effa41ec100b14f0a1fb51ec100b1cf0fa
:10a13000c3f92a78c3b2002a14bf19201e203c2b71
:10a1400020d8984238bf184641f26873164ad15851
:10a1500021f4fc41d150d15841ea4021d150a3070c
:10a1600008d5a2f5005292f8a03003f0c0031843be
:10a1700082f8a00002b070bd1cf06dfa06a3d3e90e
:10a180000023b4e73c20dfe7ce1951da1b7ca13f66
:10a190000000000000002440e59b6d6e4c4f883f9e
:10a1a00074000020008045400020014173b5064640
:10a1b0000df106000d4610f097f8bdf80640dcb131
:10a1c0000df1050003f033faa41ba5235c4343f60d
:10a1d000cf439c42c9bf9df805309df90530023b35
:10a1e0005bb2aa0708d5054991f8a42002f0e00265
:10a1f0001343dbb281f8a43002b070bd000001410e
:10a2000037b505460df1060010f06ef8bdf80640b2
:10a21000ecb16d200cf0e2fec0f38210052816d1df
:10a22000a523641b5c43a3f5e7539c42124c10da50
:10a2300001200cf0d3fe4ff61f71014041f0600188
:10a2400001200cf0b3fefff778fe0123237003b06a
:10a2500030bd2378002bfad001200cf0bffe4ff662
:10a260001f71014041f0400101200cf09ffefff7fb
:10a2700064fe0023eae700bf78000020094a41f6a7
:10a280002863d358084a12689b1a084a23f070437f
:10a29000934205d8064b1878003018bf012070474c
:10a2a00000207047002001417c000020feffff07d6
:10a2b00075000020f7b50023adf806300646fff71d
:10a2c00051fe05460df1060010f00ef8bdf80630ff
:10a2d000dbb1144f5b1ba5245c434ff48b7394fbe1
:10a2e000f3f4b7f900301934a342b4bfe31a1b1bcf
:10a2f000132b02ddfff721fe3c8031462846fff795
:10a30000e1fe31462846fff751ff074a41f6286330
:10a31000d358064a03f5403323f07043136003b06b
:10a32000f0bd00bf76000020002001417c0000202d
:10a3300013b5244a05211170234a00238df80530f6
:10a340001370044628b1fff7affcfff711fcfff7cd
:10a3500087fc22460df10501072003f0bbf85cb332
:10a360009df805300bb9fff71dfdfff7e6fd0df178
:10a3700006000ff0b9ffbdf806201449144beab1ee
:10a3800019220a8001221a70124b4ff440321a60cf
:10a39000114b00221a704ff08843104a1a65104b77
:10a3a00040f27142012c9a600cbfff227f229a6119
:10a3b00013221a604022da6002b010bdff2008802c
:10a3c000e1e700bf7000002074000020760000204c
:10a3d000750000207c000020780000204c0040e048
:10a3e00000100141002112200cf0e0bd08b5064b21
:10a3f0004ff088721a6046f2e2515e200cf0d6fdf2
:10a40000bde80840fff7eebf004001410c4b0d498d
:10a4100001221a700c4b02225a615a630b4a53688c
:10a4200043f44033536041f638028b5843f40053f1
:10a430008b50074b02f5081202f2da721a6070476d
:10a44000740000200020014100230044004001412d
:04a45000084001417e
:020000040000fa
:020000040100f9
:10a454007ca700201c00000000000000eca80020e5
:10a4640004000000000000000000002018000000ac
:10a4740000000000f0a8002004000000000000001c
:10a48400dfa800200100000000000000f4a8002064
:10a494000400000000000000f8a50020580000009f
:10a4a4000000000074a8002010000000000000005c
:10a4b40000fc012040010000000000005ca8002016
:10a4c4000c0000000000000044fe0120dc0000003d
:10a4d4000000000088ab00204000000001000000e4
:10a4e40080b483b000af0d4b1b6823f49f7323f03b
:10a4f40001030a4a43f01103136001237b6003e064
:10a5040000bf7b6801337b607b68092bf8dd00bfeb
:10a514000c37bd465df8047b704700bf002401443e
:10a52400180000205000000000000000d0ab002004
:10a534000400000001000000aaaaaaaa68a800203a
:10a544000c00000000000000800000201ca000009f
:10a5540000000000d4ab0020040000000100000053
:10a564000400000040fd0120040100000000000080
:10a5740098a5002060000000000000006800002092
:10a58400080000000000000098a700201c00000044
:10a5940000000000f8a800200800000000000000ef
:10a5a4009ca000201504000000000000e0a800208a
:10a5b4000500000000000000700000200100000001
:10a5c40000000000740000200c00000000000000e7
:10a5d40000a900200800000000000000b1a4002031
:10a5e400010000000000000084a800200800000012
:10a5f4000000000008a90020040000000000000082
:10a604008ca8002008000000000000000ca9002015
:10a614000c00000000000000e2a70020020000007f
:10a624000000000004aa0020010000000000000057
:10a63400e5a8002005000000000000001ca7002081
:10a644002000000000000000eaa800200200000032
:10a654000000000020ff0120900000000000000026
:10a6640094a800200800000000000000e4a70020d7
:10a674001400000000000000cdab00200100000029
:10a684000100000001000000c8ab0020050000002c
:10a6940001000000020700a62a00000018a90020fb
:10a6a400100000000000000005aa002001000000c6
:10a6b40000000000cca800200700000000000000fb
:10a6c4000ca80020100000000000000006aa0020d2
:10a6d400010000000000000028a900201400000070
:10a6e400000000009ca800200800000000000000fa
:10a6f4003ca9002004000000000000001ca8002069
:10a704001000000000000000a4a8002008000000c1
:10a714000000000040a900200c0000000000000020
:10a7240007aa00200100000000000000aca80020df
:10a7340008000000000000003ca7002020000000ea
:10a744000000000008aa0020010000000000000032
:10a754004ca90020080000000000000009aa002005
:10a76400010000000000000054a9002008000000bf
:10a77400000000000aaa0020010000000000000000
:10a784005ca9002004000000000000000baa0020c7
:10a794000300000000000000b2a40020020000003a
:10a7a40000000000f4a900200400000000000000e4
:10a7b400c8aa0020c0000000010000002bf4010121
:10a7c4002bf401012bf401012bf401012bf4010101
:10a7d4002bf401012bf401012bf401012bf40101f1
:10a7e4002bf401012bf401012bf401012bf40101e1
:10a7f4002bf401012bf401012bf401012bf40101d1
:10a804002bf401012bf401012bf401012bf40101c0
:10a814002bf401012bf401012bf401012bf40101b0
:10a824002bf401012bf401012bf401012bf40101a0
:10a834002bf401012bf401012bf401012bf4010190
:10a844002bf401012bf401012bf401012bf4010180
:10a854002bf401012bf401012bf401012bf4010170
:10a864002bf401012bf401012bf401012bf4010160
:10a874002bf401012bf401012bf401012ca800207d
:10a8840020000000000000000eaa002001000000cb
:10a8940000000000b4a80020080000000000000030
:10a8a40060a90020040000000000000064a900204a
:10a8b400040000000000000068a900200800000057
:10a8c4000000000070a90020040000000000000047
:10a8d4005ca700202000000000000000f8a9002070
:10a8e400020000000000000074a900200c00000019
:10a8f400000000000faa002001000000000000007a
:10a90400f8a60020240000000000000080a9002018
:10a91400100000000000000010aa00200100000048
:10a9240000000000b4a70020180000000000000090
:10a9340011aa0020010000000000000022aa00204b
:10a94400a40000000100000020200001ffffffff21
:10a95400ffffffffffffffff0000000000000000fb
:10a964000000000001000000ffffffff512563fc11
:10a97400c2cab9f3849e17a7adfae6bcffffffff76
:10a98400ffffffff00000000ffffffff96c298d803
:10a994004539a1f4a033eb2d817d0377f240a46304
:10a9a400e5e6bcf847422ce1f2d1176bf551bf370d
:10a9b4006840b6cbce5e316b5733ce2b169e0f7ce0
:10a9c4004aebe78e9b7f1afee242e34f4b60d227ad
:10a9d4003e3cce3bf6b053ccb0061d65bc869876a3
:10a9e40055bdebb3e7933aaad835c65a90a90020cf
:10a9f4001000000000000000bca8002008000000b7
:10aa040000000000a0a900200400000000000000d5
:10aa1400c6aa00200200000001000000700000002f
:10aa2400a4a900200800000000000000c4a8002021
:10aa34000800000000000000aca900200400000091
:10aa44000000000012aa0020010000000000000025
:10aa54004ca800201000000000000000faa900200b
:10aa64000200000000000000b4a4002080000000e8
:10aa740000000000f8a700201400000000000000ff
:10aa8400b0a900200400000000000000b0ff012075
:10aa94005000000000000000b4a9002004000000e1
:10aaa4000000000013aa00200200000000000000c3
:10aab400cca700201600000000000000fca9002024
:10aac400040000000000000015aa0020010000009e
:10aad4000000000000aa00200200000000000000a6
:10aae40016aa00200100000000000000d0a60020eb
:10aaf400280000000000000017aa00200500000044
:10ab040000000000b8a900201000000000000000b0
:10ab14001caa00200200000000000000c8a90020b8
:10ab24000400000000000000d3a80020060000007c
:10ab34000000000034a500206400000000000000b4
:10ab44001eaa00200100000000000000a0a60020b2
:10ab54003000000000000000d9a80020060000001a
:10ab640000000000cca90020080000000000000044
:10ab74001faa00200200000000000000d4a9002049
:10ab8400040000000000000021aa002001000000d1
:10ab94000000000002aa00200200000000000000e3
:10aba400d8a900201000000000000000e8a900203f
:10abb4000400000000000000eca9002004000000d4
:10abc4000000000050a6002050000000000000001b
:10abd400f0a90020040000000000000000000000b4
:10abe4000000000066666666666666666666666699
:020000040000fa
:020000040100f9
:10abf400b0b582b000af0023fb7129e0184b1b688d
:10ac0400fa7953f82230002b1fd1154b1c68fd79bb
:10ac1400202005f0d8fc034644f82530104b1b686f
:10ac2400fa7953f82230002b09d00d4b1b68fa79be
:10ac340053f822302022002118461cf0e9fa084b70
:10ac44001b68fa7953f8223006e0fb790133fb7173
:10ac5400fb79072bd2d9002318460837bd46b0bd6f
:10ac6400f4a8002080b485b000af0346fb80002325
:10ac7400fb7320e0154b1b68fa7b53f82230002b42
:10ac840016d0124b1b68fa7b53f82230db78012b69
:10ac94000ed10e4b1b68fa7b53f822301b88fa88be
:10aca4009a4205d1094b1b68fa7b53f8223006e01f
:10acb400fb7b0133fb73fb7b072bdbd9002318469b
:10acc4001437bd465df8047b704700bff4a800202c
:10acd40080b584b000af78607b68002b1bd0002364
:10ace400fb7314e00e4b1b68fa7b53f822307a682e
:10acf4009a4209d1786805f072fc094b1b68fa7b0b
:10ad0400002143f8221007e0fb7b0133fb73fb7b3c
:10ad1400072be7d900e000bf1037bd4680bd00bf58
:10ad2400f4a8002080b582b000af164b1b68002b3e
:10ad34000bd12c2005f047fc0246124b1a60114b34
:10ad44001b68002b12d1002318e00023fb710ae0da
:10ad54000c4b1b68fa7953f822301846fff7b8fffa
:10ad6400fb790133fb71fb79072bf1d9054b1b6888
:10ad74002c22002118461cf04bfa012318460837f0
:10ad8400bd4680bdf4a8002080b59eb000af7860b9
:10ad94007b681b78012b40f0b6807b685b683b675f
:10ada4003b6f1b78002b6fd13b6f9b78002b40f0df
:10adb400ac80fff71dfff866fb6e002b00f0a5804a
:10adc4003b6f9a88fb6e1a803b6f9a79fb6e9a7080
:10add400fb6e3a6f043307321168196091889279d7
:10ade40099809a71fb6e0122da70fb6e0433184667
:10adf40002f0c7fd03461a46fb6e9a77fb6e9b7ff3
:10ae0400082b34d007f10c034c22002118461cf007
:10ae1400fff9fb6e9b7f07f10c021146184602f006
:10ae2400dffc0346002b22d197f85430c3f3000310
:10ae3400dab297f8603062f3410387f8603097f82c
:10ae44005430c3f34003dab297f8603062f300037e
:10ae540087f86030fb6e188897f85430c3f3850385
:10ae6400dbb2194607f160031a4619f04aff3b6f3b
:10ae74009b88a7f86630012387f8643007f16403e0
:10ae8400184607f00ff840e03b6f1b78012b3cd1cc
:10ae9400002387f858303b6f5b88a7f85a303b6f24
:10aea4005b881846fff7defef866fb6e002b07d0c2
:10aeb400fb6e9b7f87f85c30f86efff709ff02e0ba
:10aec400082387f85c30002387f8773014e097f87c
:10aed4007730104a52f82330002b08d097f8773097
:10aee4000c4a52f8233007f158021046984797f855
:10aef4007730013387f87730074b1b7897f8772042
:10af04009a42e4d301e000bf00e000bf00bf7837fd
:10af1400bd4680bd100000200c00002080b5a4b008
:10af240000af03463960fb713b68002b02d0fb790c
:10af3400002b12d10021002019f0fcf80346a7f8d9
:10af44008c30b7f88c30002b04d1344b1b680022b2
:10af540083f82020b7f88c305ce0fb79082b01d90a
:10af6400032357e0002387f88f3033e097f88f30be
:10af74003a6813441b7807f108021146184602f098
:10af84002ffc0346a7f88c30b7f88c30002b02d086
:10af9400b7f88c303ee03b7a002b04d03b7a012b8f
:10afa40001d0032336e097f88f201346db009b1a69
:10afb40007f1900213443c3b1a4607f10803186852
:10afc400106099889b799180937197f88f30013341
:10afd40087f88f3097f88f20fb799a42c6d307f110
:10afe4005402fb791146184619f0a4f80346a7f851
:10aff4008c300a4b1b68213397f88f203968184628
:10b004001bf01cfe054b1b6897f88f2083f820204b
:10b01400b7f88c3018469037bd4680bdf4a80020a0
:10b0240080b596b000af78603960002387f8573058
:10b0340026e01d4b1a6897f85730134493f82130d3
:10b0440007f108021146184602f0cafb0346002b1a
:10b0540001d0012323e097f857201346db009b1a05
:10b064003a6813441a4607f108031868106099886f
:10b074009b799180937197f85730013387f8573053
:10b08400094b1b6893f8203097f857209a42d0d385
:10b09400054b1b6893f820207b681a700023184620
:10b0a4005837bd4680bd00bff4a80020b0b5a0b09d
:10b0b40000af0346b9607a60fb730023a7f87e30c3
:10b0c400bb68002b05d0fb7b002b02d07b68002bd8
:10b0d40009d10021002019f049f80346a7f87e3071
:10b0e400b7f87e30dae0fb7b082b01d90323d5e0e7
:10b0f400fa7b13469b001344db00184605f063fa01
:10b10400b867bb6f002b01d10223c7e007f16002cf
:10b1140007f17703114618461af090fd002387f8cb
:10b124007d30a2e007f114034c22002118461cf0e4
:10b134006ff897f87d30ba6813441b7807f114024e
:10b144001146184602f04cfb0346a7f87e30b7f8c8
:10b154007e30002b40f090803b7d002b02d03b7d65
:10b16400012b06d197f87d307a6813441b78012ba4
:10b1740004d90323a7f87e3000bf7ee097f832306d
:10b18400002b21d107f114031e33013307f11402fc
:10b1940002f11e000f2219461bf042fd0346002b4c
:10b1a40012d197f87d2013469b001344db001a4606
:10b1b400bb6f134417331d4607f164040fcc28609a
:10b1c4006960aa60eb6014e097f87d2013469b0049
:10b1d4001344db001a46bb6f134417331a4607f1b6
:10b1e40032031c6858689968db6814605060916089
:10b1f400d36097f87d2013469b001344db001a4666
:10b20400bb6f134407331a4607f11b031c685868c5
:10b214009968db68146050609160d36097f87d2072
:10b2240013469b001344db001a46bb6f13441a46b3
:10b2340007f114031868106099889b7991809371c1
:10b2440097f87d307a68d11897f87d2013469b00d3
:10b254001344db001a46bb6f13440a7883f8272093
:10b2640097f87d30013387f87d3097f87d20fb7b9c
:10b274009a42fff457af00e000bfb7f87e30002bce
:10b2840007d1fb7bb96f184618f070ff0346a7f887
:10b294007e30b86f05f0a3f9b7f87e3018468037d2
:10b2a400bd46b0bd80b485b000af03463960fb71c4
:10b2b4000123bb810023fb731de0144b1b68fa7b45
:10b2c40053f82230002b13d0104b1b68fa7b53f831
:10b2d40022309b7ffa799a420ad10c4b1b68fa7b85
:10b2e40053f822301a883b681a800023bb8105e09a
:10b2f400fb7b0133fb73fb7b072bded9bb89184631
:10b304001437bd465df8047b704700bff4a80020e5
:020000040000fa
:020000040100f9
:10b3140080b584b000af03460a46fb8013467b71b8
:10b3240002233b72fb887b817b797b7307f10803e3
:10b33400184606f0b7fd00bf1037bd4680bd80b586
:10b3440084b000af0346fb800b467b7113463b7110
:10b3540003233b72fb887b817b797b733b79bb73d3
:10b3640007f10803184606f09dfd00bf1037bd46df
:10b3740080bd90b585b000af0446084611461a4614
:10b384002346fb8003467b710b463b711346fb70df
:10b3940004233b72fb887b817b797b733b79bb7392
:10b3a400fb78fb7307f10803184606f07bfd00bf2a
:10b3b4001437bd4690bd90b5a1b000af78607b68ee
:10b3c4001b78062b00f2a78101a252f823f000bfdc
:10b3d400e7b40001f1b300011bb700011bb7000182
:10b3e4001bb7000157b5000197b400019d4b1b78b2
:10b3f400002b00f092817b689b881846fff732fc93
:10b40400b867bb6f002b00f08a81bb6f9b78002b61
:10b4140040f08381bb6f9b7f07f1080211461846f9
:10b4240002f0def90346002b1fd1bb6f188807f129
:10b43400080303f1380407f1080303f1360207f1a6
:10b44400080303f12e01234617f0aefb0346a7f8c9
:10b454007630b7f87630002b40f05f81bb6f1b88e5
:10b4640001211846fff754ff57e1bb6f1b881846ac
:10b4740019f05afa0346a7f87630b7f87630002b5d
:10b4840040f04b81bb6f1b8800211846fff740ff3b
:10b4940043e1744b1b78002b00f043817b689b884d
:10b4a4001846fff7dffb38673b6f002b00f03b814a
:10b4b4003b6f9b78012b40f034817b689b88184656
:10b4c40019f04cfa0346a7f86e30b7f86e30002b2b
:10b4d40040f027817b689b8800211846fff718fffe
:10b4e4001fe17b689b79002b29d17b689b881846d8
:10b4f400fff7b8fbb866bb6e002b00f016817b68c3
:10b5040098887b681b7a1a460021fff718ffbb6ee8
:10b514000122da72bb6e03f10c007b68093310223e
:10b5240019461bf08bfbbb6e9b78002b40f0ff8011
:10b53400bb6e1b8801211846fff7eafef7e07b6823
:10b5440098887b689a797b68db790021fff711ff83
:10b55400ede07b689b881846fff784fb78667b6e7a
:10b56400002b00f0e6804c2005f02df838663b6e89
:10b57400002b00f0e0807b680833fb653b6efa6dbe
:10b58400703292e8030018600433198002330a0c05
:10b594001a703b6e184602f0f4f9034687f87f30c0
:10b5a40097f87f30082b24d102f0caf9034687f8b4
:10b5b4007f3097f87f30082b1bd1052387f8543050
:10b5c4007b6e1b88a7f85630082387f8593007f19b
:10b5d4005403184606f066fc02f0b2f9034687f8f5
:10b5e4007f3097f87f30082b03d1386e04f0f7ffd3
:10b5f400a2e07b6e97f87f209a777b6e9b78002b76
:10b6040032d1fb6d9b7e03f00103dbb2002b07d02c
:10b614003b6e3833f96d102218461bf00ffb18e00f
:10b624003b6e03f13800fb6d4433102219461bf0c6
:10b6340005fb3b6e03f12e00fb6d563308221946c1
:10b644001bf0fcfa3b6e3633fa6d5432128892b218
:10b654001a803b6ed81dfb6d6033102219461bf017
:10b66400edfa17e0dfa800203b6e3833f96d1022a5
:10b6740018461bf0e3fa7b6e0c33f96d1022184662
:10b684001bf0dcfa3b6ed81dfb6d603310221946ab
:10b694001bf0d4fafb6d9b7ec3f38503d9b23a6edb
:10b6a40092f8483061f3870382f84830fb6d9b7e43
:10b6b400c3f34003d9b23a6e92f8483061f34103c0
:10b6c40082f84830fb6d9b7ec3f30003d9b23a6e17
:10b6d40092f8483061f3000382f848303b6e03f17e
:10b6e4001e00fb6d1c33102219461bf0a7fa3b6e9b
:10b6f400fa6d17332c32106818609188927999800a
:10b704009a7197f87f30396e184602f0d3f8386e84
:10b7140004f065ff10e000bf0ee000bf0ce000bfc6
:10b724000ae000bf08e000bf06e000bf04e000bf7d
:10b7340002e000bf00e000bf8437bd4690bd80b585
:10b7440098b000af78607b681b78032b05d17b68c9
:10b754005b681846fff72ffe78e07b681b78012ba7
:10b7640074d17b685b68fb65fb6d1b78052b54d13a
:10b77400fb6d5b881846fff775fab865bb6d002b47
:10b7840063d0bb6d1b8801211846fff7c1fdbb6d5b
:10b79400db7a83f00103dbb2002b2bd0bb6d9b7fe4
:10b7a40007f10c021146184602f01af80346002b62
:10b7b40013d1bb6d1a8807f10c03383319461046b0
:10b7c40018f080fc0346002b40d0fb6d5888002302
:10b7d40000220121fff7cdfd38e0bb6d1b88184620
:10b7e40019f020f8fb6d5888002300220121fff78f
:10b7f400c0fd2be0bb6d1a88bb6d0c331946104697
:10b8040018f060fc0346002b20d0fb6d5888002301
:10b8140000220121fff7adfd18e0fb6d1b78032b1f
:10b8240014d1fb6d1b79002b07d1fb6d5b880022c3
:10b8340001211846fff783fd08e0fb6d58880023bb
:10b8440000220121fff795fd00e000bf6037bd46ef
:10b8540080bd80b483b000af0346fb71044afb791a
:10b864001370002318460c37bd465df8047b7047ff
:10b87400dfa8002090b599b000af03460a46fb80cc
:10b8840013467b71fb881846fff7ecf9b865bb6d6e
:10b89400002b01d1032349e0bb6d9b78002b40d1e1
:10b8a4007b7983f00103dbb2002b27d0bb6d9b7f38
:10b8b40007f10c021146184601f092ff0346002bd3
:10b8c4001cd107f10c0303f1380407f10c0303f155
:10b8d400360207f10c0303f12e01f888234617f012
:10b8e40063f90346a7f85e30b7f85e30002b15d134
:10b8f400fb8801211846fff70bfd0fe0fb88184673
:10b9040019f012f80346a7f85e30b7f85e30002b42
:10b9140004d1fb8800211846fff7fafcb7f85e3023
:10b9240004e0fb88184618f0ffff03461846643706
:10b93400bd4690bd80b400af034b01221a7000bf16
:10b94400bd465df8047b7047dfa8002080b586b053
:10b9540000af0346fb7107f10e02fb79114618464e
:10b96400fff7a0fc0346002b08d106233b74fb8998
:10b974007b8207f11003184606f094fa00bf1837cb
:04b98400bd4680bd7f
:020000040000fa
:020000040100f9
:10b9880080b588b000afb96011461a460346fb81fe
:10b998000b46bb811346fb80fb893b82bb687b61fe
:10b9a800bb893b83fb887b830e4b1b68fb6110e0e4
:10b9b800fb691b6807f1100210469847034683f09d
:10b9c8000103dbb2002b01d0002306e0fb695b68b2
:10b9d800fb61fb69002bebd1012318462037bd46dc
:10b9e80080bd00bf98a700201fb50446694600889f
:10b9f80000f0acf968b3bdf80230abb1019b9bb164
:10ba0800029bd3b9a2882088cab1a368bbb1618858
:10ba1800fdf714f8d0b14ff0200383f31188bff37a
:10ba28006f8fbff34f8ffee74ff0200383f311882a
:10ba3800bff36f8fbff34f8ffee79847e2e7019b95
:10ba4800bdf802200021fcf7f9ffe3e7208800f0a9
:10ba5800c4f904b010bd7fb56946054600f076f913
:10ba680010b9002004b070bdbdf80230a3b1019b2d
:10ba780093b1029bcbb92846fdf76af8019abdf845
:10ba8800021006462846fdf781f8022804460ed122
:10ba9800b4fa84f04009e5e74ff0200383f31188f6
:10baa800bff36f8fbff34f8ffee79847e3e740b1cf
:10bab8004ff0200383f31188bff36f8fbff34f8fcd
:10bac800fee73346bdf8022001992846fff758ffe4
:10bad8000028ddd1c5e71fb504466946008800f097
:10bae80035f910b9002004b010bdbdf8023093b18b
:10baf800019b83b1029b83b96188a288bdf802309b
:10bb080088189842eedca3682088fcf7f7ffb0faa3
:10bb180080f04009e7e700f029f89847ece773b5ab
:10bb2800104adff844c005460e4600236c46bcf8b0
:10bb38000210994201d800200de092e8030084e841
:10bb48000300d1888d4208d1adf8065094e803006f
:10bb580086e80300012002b070bd013308329bb2b1
:10bb6800e5e700bf004100019ca700204ff020033b
:10bb780083f31188bff36f8fbff34f8ffee72de973
:10bb88007f431b4d80462868fbf7f8f9002481465f
:10bb98002646a14509d836bb32464146144808f026
:10bba80037fd01281fd0fff7e1ff002201a9284631
:10bbb80008f078fd01280dd1019ad8f8003001a9c4
:10bbc8009a4208bf012628460022013408f020fdc9
:10bbd800e4b2dee74ff0200383f31188bff36f8fe1
:10bbe800bff34f8ffee7012004b0bde8708300bfac
:10bbf800f8a8002010b5044688b1082002f0befe5f
:10bc080040b94ff0200383f31188bff36f8fbff360
:10bc18004f8ffee7024b04601a694260186110bd3d
:10bc28009ca7002010b5044688b1082002f0a6fea3
:10bc380040b94ff0200383f31188bff36f8fbff330
:10bc48004f8ffee7024b04601a684260186010bd0f
:10bc580098a7002010b50446082002f08ffe28b1ee
:10bc6800034b04805a6942605861012010bd00bf2f
:10bc78009ca7002000f44063b3f5406f13b514d1be
:10bc88006946fff74cff70b9002002b010bd009b59
:10bc980033f81400fdf7b4f80134e4b2bdf8043009
:10bca800a342f4d8f0e70024f8e7fdf7a9f8ebe79a
:10bcb800034b00229880181dda801a81da605ee74b
:10bcc8009ca70020054b5b690bb9184670471a887a
:10bcd800824201d05b68f7e7012070479ca70020eb
:10bce8007fb5184b184d5e6904464eb90120fdf723
:10bcf800dff831462868faf7cdfb002004b070bda4
:10bd0800fdf7d6f824b100212868faf7c3fbf4e759
:10bd18002868fbf733f90646a642eed9002201a9a6
:10bd2800284608f0bffc012809d1bdf80400fff738
:10bd3800c9ff20b1002201a9284608f069fc013496
:10bd4800e4b2e9e79ca70020f8a800202de970419b
:10bd5800dff848c0dff8488085b086460e460025e3
:10bd68006c46bcf80030ab4201d8002010e008eb6c
:10bd780005130fcb84e80f00bdf8003073450ad1d6
:10bd8800234603cb3060716003cbb060f1600120c3
:10bd980005b0bde870810135e3e700bf9ca700202e
:10bda800004000011fb50446008800f44063b3f565
:10bdb800406f02d1002004b010bd6946fff7c6ffee
:10bdc8000028f7d0a28863881344bdf80220934264
:10bdd800f0dc2046fff7d3feede738b5044b1c69cd
:10bde800054604b938bd2368284698476468f8e7cb
:10bdf8009ca7002030b585b0044669460088fff747
:10be0800a5ff002845d0bdf80230d3b1019bc3b1ce
:10be1800029bfbb92088fdf78bf82588e0b9019ac9
:10be2800bdf802102846fcf7b1fe10f0fd0f2dd02a
:10be38004ff0200383f31188bff36f8fbff34f8f49
:10be4800fee74ff0200383f31188bff36f8fbff332
:10be58004f8ffee79847dde7a2887ab1a3686bb1f8
:10be680061882846fcf7eafd80b14ff0200383f390
:10be78001188bff36f8fbff34f8ffee7019bbdf8ab
:10be8800022000212846fcf7d9fdede72088fff7be
:10be9800a4ff05b030bd08b5024b1868fbf76ef873
:10bea800c0b208bdf8a8002030b5184d89b00022ee
:10beb80002a9284608f0f6fb012801d009b030bdd8
:10bec800bdf8080000f44063b3f5406f19d1694626
:10bed800fff725fe0028ead00024adf81640adf89b
:10bee80018400794bdf80430a342e0d9009b05a888
:10bef80033f81430adf814300134fff77bffe4b2a7
:10bf0800f0e702a8fff776ffd1e700bff8a8002006
:10bf180030b50446008800f44063b3f5406f85b03f
:10bf280003d10025284605b030bd6946fff70eff4e
:10bf380005460028f5d0a28863881344bdf802207e
:10bf48009342eedc2046fff755ffebe700f4406331
:10bf5800b3f5406f37b518d16946fff7e0fd0546e0
:10bf680088b900250ce0009b33f81400fcf7e0ffcb
:10bf78000028f6d00134e4b2bdf80430a342f2d868
:10bf8800284603b030bd0024f6e7fcf7d1ff05468c
:10bf9800f6e700f44063b3f5406f13b516d1694670
:10bfa800fff7bdfd80b9012002b010bd009b33f83a
:10bfb8001400fff750fd0028f6d00134e4b2bdf8b4
:10bfc8000430a342f2d8eee70024f8e7fff743fd78
:10bfd800eae7038803f44063b3f5406f00d07ae5dd
:04bfe800002070477e
:020000040000fa
:020000040100f9
:10bfec0080b582b000af78600422002178681bf025
:10bffc000bf900bf0837bd4680bd80b483b000afdd
:10c00c000023fb7117e0114b1a68fb799b0013445a
:10c01c009b78002b0cd10d4b1a68fb799b001344b9
:10c02c0001229a70094b1a68fb799b00134406e0b5
:10c03c00fb790133fb71fb79072be4d900231846fc
:10c04c000c37bd465df8047b704700bff0a800209c
:10c05c0080b485b000af0346fb800023fb7318e06f
:10c06c00114b1a68fb7b9b0013449b78012b0dd161
:10c07c000d4b1b68fa7b33f82230fa889a4205d1b3
:10c08c00094b1a68fb7b9b00134406e0fb7b0133d6
:10c09c00fb73fb7b072be3d9002318461437bd46f3
:10c0ac005df8047b704700bff0a8002080b582b01b
:10c0bc0000af164b1b68002b0bd12c2004f07ffa21
:10c0cc000246124b1a60114b1b68002b01d1002346
:10c0dc0018e00e4b1b682c22002118461bf094f81c
:10c0ec000023fb710ae0094b1a68fb799b0013448f
:10c0fc001846fff775fffb790133fb71fb79072bb2
:10c10c00f1d9012318460837bd4680bdf0a80020a0
:10c11c0080b584b000af78607b689b78002b09d128
:10c12c00fff76bfff860fb68002b03d07b689a88e5
:10c13c00fb681a8000bf1037bd4680bd80b584b047
:10c14c0000af78607b685b881846fff781fff8606a
:10c15c00fb68002b02d0f868fff742ff00bf1037d6
:10c16c00bd4680bd80b586b000af78607b685b88cb
:10c17c001846fff76dff78617b69002b17d07b6940
:10c18c00db78002b13d07b681b79002b02d10723a3
:10c19c003b7301e008233b737b685b88fb8107f1f1
:10c1ac000c03184605f07afe7b690022da7000bf9a
:10c1bc001837bd4680bd90b484b000af0446084625
:10c1cc0011461a462346fb800346bb800b467b80f8
:10c1dc0013463b80fb88052b19d9fb88b3f5486fb8
:10c1ec0015d8bb88052b12d9bb88b3f5486f0ed870
:10c1fc007b88b3f5fa7f0ad23b88092b07d93b8899
:10c20c00b3f5486f03d8fa88bb889a4201d900234a
:10c21c002ae07b8801339bb2ba8812fb03f39bb2f2
:10c22c005b00fb813b88da00fb899a4201d2002338
:10c23c001ae0104b1b685b8cfa889a4211d80d4b94
:10c24c001b681b8cba889a420bd30a4b1b68db8c7d
:10c25c007a889a4205d8074b1b689b8c7a889a423d
:10c26c0001d2002300e0012318461037bd4690bcd4
:10c27c00704700bff0a8002080b586b000af786092
:10c28c00194b1b6893f82a30002b29d07b689888af
:10c29c007b68d9887b681a897b685b89fff78bff81
:10c2ac000346fb75fb7d002b14d07b689b88bb8100
:10c2bc007b68db88fb817b681b893b827b685b89a5
:10c2cc007b827b685b8807f10c021146184617f0dd
:10c2dc00bdfe05e07b685b883b21184617f0d2fe5b
:10c2ec0000bf1837bd4680bdf0a8002080b582b0d5
:10c2fc0000af78607b681b78062b21d801a252f81e
:10c30c0023f000bf2dc3000135c300013dc3000164
:10c31c004dc300014dc300014dc3000145c30001d5
:10c32c007868fff7f5fe0ce07868fff707ff08e088
:10c33c007868fff717ff04e07868fff79dff00e0cf
:10c34c0000bf00bf0837bd4680bd80b586b000afca
:10c35c0078607b685b881846fff77afe78617b69aa
:10c36c00002b35d01c4b1b6893f82a30002b2fd098
:10c37c007b6898887b68d9887b681a897b685b891d
:10c38c00fff719ff0346fb74fb7c002b1ad07b686c
:10c39c005b880021184617f01dff7b689b883b814a
:10c3ac007b68db887b817b681b89bb817b685b89b5
:10c3bc00fb817b685b8807f108021146184617f071
:10c3cc0029fe05e07b685b880121184617f002ff07
:10c3dc0000bf1837bd4680bdf0a8002080b586b0e0
:10c3ec0000af78607b685b881846fff731fe786198
:10c3fc007b69002b14d07b689b88002b10d07b6949
:10c40c00db78002b0cd008233b737b685b88fb81ab
:10c41c0007f10c03184605f041fd7b690022da7028
:10c42c0000bf1837bd4680bd80b582b000af7860c4
:10c43c007b681b78002b02d0012b04d007e07868b6
:10c44c00fff783ff03e07868fff7c8ff00bf00bf6a
:10c45c000837bd4680bd80b582b000af78607b6880
:10c46c001b78012b02d0022b06d00be07b685b689b
:10c47c001846fff73bff05e07b685b681846fff743
:10c48c00d3ff00bf00bf0837bd4680bd80b483b06a
:10c49c0000af78607b681b7a002b41d07b685a8890
:10c4ac007b681b889a4213d37b68da887b689b88ed
:10c4bc009a420dd37b681b88052b09d97b685b8856
:10c4cc00b3f5486f04d87b68db88b3f5fa7f06d3e5
:10c4dc00194b1b68002283f82a20032326e0164bf5
:10c4ec001b68012283f82a20134b1b687a68128878
:10c4fc001a84114b1b687a6852885a840e4b1b683d
:10c50c007a6892889a840c4b1b687a68d288da8491
:10c51c00094b1b687a68127a83f82820002305e0ff
:10c52c00054b1b68002283f82a20002318460c3781
:10c53c00bd465df8047b7047f0a8002090b58bb029
:10c54c0002af03463960fb80fb881846fff780fd7d
:10c55c00b861fb881846fef781fb7861bb69002b3c
:10c56c0035d07b69002b32d03b681b88bb813b6884
:10c57c005b88fb813b689b883b823b68db887b82ca
:10c58c0007f10c02fb881146184617f043fd0346d1
:10c59c00fb83fb8bb3f58d7f12d17b699b78012bd1
:10c5ac000ed13b6819883b685a883b689c883b686d
:10c5bc00db88f8880093234615f04afe0346fb837c
:10c5cc00fb8b002b06d1bb690122da7002e003233e
:10c5dc00fb8300e000bffb8b18462437bd4690bda3
:020000040000fa
:020000040100f9
:10c5ec0080b584b000af03463960fb803b68fb60cc
:10c5fc00224b1b7883f00103dbb2002b0bd02048bd
:10c60c0003f07bff0346012b02d04ff0ff3330e0e9
:10c61c001a4b01221a70fb88002b02d13b68002bad
:10c62c0002d14ff0ff3324e0fa8813465b00134429
:10c63c009b00144a1344bb60bb6893f90030002b79
:10c64c0015d1fb689a68bb689a60fb685a68bb682e
:10c65c005a60bb6802221a70bb685b685b68ba6878
:10c66c009068fa68126811469847fb8801e04ff011
:10c67c00ff3318461037bd4680bd00bf18ff0120a0
:10c68c001cff012044fe012080b586b000af78600d
:10c69c00ff23fb757b68bb82bb8a002b02d04ff05b
:10c6ac00ff3334e0ba8a13465b0013449b001a4aea
:10c6bc0013443b613b695b68002b01d1002326e0ee
:10c6cc003b695b685b6a3a69926810469847034617
:10c6dc00fb73fb7b032b17d801a252f823f000bf8e
:10c6ec00fdc6000103c7000109c700010fc7000107
:10c6fc000023fb7509e00223fb7506e00123fb75a3
:10c70c0003e0ff23fb7500e000bf97f917301846d4
:10c71c001837bd4680bd00bf44fe012080b485b0f3
:10c72c0000af0346fb80fb88002b07d1fa88134629
:10c73c005b0013449b00094a134400e00023fb6098
:10c74c00fb68002b01d0fb8801e04ff0ff3318464b
:10c75c001437bd465df8047b704700bf44fe0120d2
:10c76c0080b485b000af78607b68002b07d17a6805
:10c77c0013465b0013449b000b4a134400e0002358
:10c78c00fb60fb68002b07d0fb685b68002b03d0b9
:10c79c00fb685b681b7800e0022318461437bd4623
:10c7ac005df8047b704700bf44fe012080b584b067
:10c7bc0000af78607a6813465b0013449b000a4a0a
:10c7cc001344fb60fb685b68002b08d0fb685b685c
:10c7dc001b6afa68926879681046984700e000bfb7
:10c7ec001037bd4680bd00bf44fe012080b586b029
:10c7fc0000aff860b9607a60fb68002b07d1fa686b
:10c80c0013465b0013449b00114a134400e00023c1
:10c81c007b617b69002b15d07b6993f90030002b71
:10c82c0003d07b695b68002b02d14ff0ff330be028
:10c83c007b695b689b687a6990687a68b968984785
:10c84c00034601e04ff0ff3318461837bd4680bd54
:10c85c0044fe012080b584b000af78607b68002b6b
:10c86c0007d17a6813465b0013449b00114a1344aa
:10c87c0000e00023fb60fb68002b14d0fb6893f9ed
:10c88c000030002b03d0fb685b68002b02d14ff00b
:10c89c00ff330ae0fb685b681b69fa689268104614
:10c8ac009847034601e04ff0ff3318461037bd465a
:10c8bc0080bd00bf44fe012080b584b000af78601d
:10c8cc007b68002b07d17a6813465b0013449b00ee
:10c8dc00114a134400e00023fb60fb68002b14d0ca
:10c8ec00fb6893f90030002b03d0fb685b68002bce
:10c8fc0002d14ff0ff330ae0fb685b68db68fa6833
:10c90c00926810469847034601e04ff0ff331846f3
:10c91c001037bd4680bd00bf44fe012080b586b0f7
:10c92c0000aff860b9607a60fb68002b07d1fa6839
:10c93c0013465b0013449b00114a134400e0002390
:10c94c007b617b69002b15d07b6993f90030002b40
:10c95c0003d07b695b68002b02d14ff0ff330be0f7
:10c96c007b695b685b697a6990687a68b968984793
:10c97c00034601e04ff0ff3318461837bd4680bd23
:10c98c0044fe012080b584b000af78607b68002b3a
:10c99c0007d17a6813465b0013449b00114a134479
:10c9ac0000e00023fb60fb68002b14d0fb6893f9bc
:10c9bc000030002b03d0fb685b68002b02d14ff0da
:10c9cc00ff330ae0fb685b68db69fa689268104623
:10c9dc009847034601e04ff0ff3318461037bd4629
:10c9ec0080bd00bf44fe012080b584b000af7860ec
:10c9fc007b68002b07d17a6813465b0013449b00bd
:10ca0c00114a134400e00023fb60fb68002b14d098
:10ca1c00fb6893f90030002b03d0fb685b68002b9c
:10ca2c0002d14ff0ff330ae0fb685b689b69fa6840
:10ca3c00926810469847034601e04ff0ff331846c2
:10ca4c001037bd4680bd00bf44fe01200eb480b53a
:10ca5c0087b000af786000237b617b68002b07d127
:10ca6c007a6813465b0013449b00234a134400e08e
:10ca7c0000233b613b69002b32d03b6993f90030ba
:10ca8c00002b2fd03b695b68002b2bd04ff0ff3174
:10ca9c001a4803f05efd0346002b25d007f128034e
:10caac00fb60fb687a6ac821154814f06dfc0346dc
:10cabc007b617b69002b0fd07b69c72b0cd8104a8c
:10cacc007b69134400221a703b695b685b693a69a5
:10cadc0090687a690a499847084803f05bfd04e0be
:10caec0000bf02e000bf00e000bf1c37bd46bde840
:10cafc00804003b0704700bf44fe01201cff0120a2
:10cb0c0050fe0120b0b584b000af786039607b680e
:10cb1c00002b07d17a6813465b0013449b00124a22
:10cb2c00134400e00023fb60fb68002b16d0fb686d
:10cb3c0093f90030002b13d0fb685b68002b0fd0ef
:10cb4c00fb685b685c69fb689d6838681af086f95d
:10cb5c0003461a4639682846a04702e000bf00e0a9
:10cb6c0000bf1037bd46b0bd44fe012080b584b077
:10cb7c0000af78607b68002b07d17a6813465b00a6
:10cb8c0013449b00104a134400e00023fb60fb6835
:10cb9c00002b13d0fb6893f90030002b03d0fb68fb
:10cbac005b68002b01d1002309e0fb685b689b6a82
:10cbbc00fa68926810469847034600e0002318462e
:0ccbcc001037bd4680bd00bf44fe0120b4
:020000040000fa
:020000040100f9
:10cbd80080b485b000af786039600423fb607b685f
:10cbe80093f88931c3f30103dbb2012b02d0022b86
:10cbf80003d005e00623fb6002e00823fb6000bfca
:10cc08000023bb600023bb600de0bb689b003a6853
:10cc180013440a491a68bb6802339b000b445a60e4
:10cc2800bb680133bb60bb68fa689a42edd800bfa5
:10cc38001437bd465df8047b704700bf000400420e
:10cc480080b485b000af78600e4a7b681b68d363f8
:10cc58000c4a7b685b6813640a4a7b689b68536468
:10cc6800084a7b68db689364074bfb60fa681378b3
:10cc780043f00203137000bf1437bd465df8047b10
:10cc8800704700bf000400420404004280b487b02b
:10cc980000af786039602f4bfb6000237b617b68b5
:10cca800002b0cd12c4b00229a632b4b00229a6349
:10ccb800294b00229a63284b00229a6311e07b6873
:10ccc8007b61254a7b691b689363234a7b695b68a0
:10ccd8009363214a7b699b6893631f4a7b69db687e
:10cce8009363fa68137843f00103137000bf1a4b7b
:10ccf800db79dbb203f00103002bf8d03b68002b93
:10cd08000cd1154b9b6b3b61134b9b6b3b61124bdf
:10cd18009b6b3b61104b9b6b3b6114e03b687b61f9
:10cd28000d4b9a6b7b691a600b4a7b690433926bd3
:10cd38001a60094a7b690833926b1a60064a7b6954
:10cd48000c33926b1a6000bf1c37bd465df8047b3c
:10cd5800704700bf040400420004004280b588b058
:10cd680000aff860b9607a60344bfb61344bbb614b
:10cd7800ba69137843f001031370ba6913786ff333
:10cd880041031370bb6900221a60fb6900221a7004
:10cd9800ba6913786ff384031370ba695378012161
:10cda80061f383035370fb68d3f8f430182b10d069
:10cdb800202b1dd0102b2ad1ba6953786ff30103a9
:10cdc8005370fa6892f889316ff3010382f8893158
:10cdd8001de0ba695378012161f301035370fa68c1
:10cde80092f88931012161f3010382f889310ee05b
:10cdf800ba695378022161f301035370fa6892f813
:10ce08008931022161f3010382f8893100bffb688f
:10ce18001946f868fff7dcfeba69137843f0020395
:10ce280013707b687b61bb683b6179693869fff780
:10ce38002dff002318462037bd4680bd040400425c
:10ce48000004004280b588b000aff860b9607a602d
:10ce5800344bfb61344bbb61ba69137843f001036f
:10ce68001370ba6913786ff341031370bb6900221a
:10ce78001a60fb6900221a70ba6913786ff3840389
:10ce88001370ba6953786ff383035370fb68d3f850
:10ce9800f430182b10d0202b1dd0102b2ad1ba69b2
:10cea80053786ff301035370fa6892f889316ff37e
:10ceb800010382f889311de0ba695378012161f3d1
:10cec80001035370fa6892f88931012161f3010373
:10ced80082f889310ee0ba695378022161f30103bf
:10cee8005370fa6892f88931022161f3010382f8dc
:10cef800893100bffb681946f868fff769feba690f
:10cf0800137843f0020313707b687b61bb683b6155
:10cf180079693869fff7bafe002318462037bd46fd
:10cf280080bd00bf040400420004004280b58ab0fe
:10cf380000aff860b9607a603b60474bbb61474b14
:10cf48007b617a69137843f0010313707a69137867
:10cf58006ff3410313707b6900221a60bb690022da
:10cf68001a707a691378012161f3840313707a695e
:10cf78005378012161f383035370fb68d3f8f430cd
:10cf8800182b10d0202b1dd0102b2ad17a6953785a
:10cf98006ff301035370fa6892f889316ff3010354
:10cfa80082f889311de07a695378012161f3010320
:10cfb8005370fa6892f88931012161f3010382f80c
:10cfc80089310ee07a695378022161f301035370c5
:10cfd800fa6892f88931022161f3010382f88931f4
:10cfe80000bffb681946f868fff7f2fd7a69137805
:10cff80043f002031370fb68f8331846fff720fe6e
:10d00800bb687b627b683b623b681b093b61002312
:10d01800fb610ce0796a386afff738fe3b6a103327
:10d028003b627b6a10337b62fb690133fb61fb69fe
:10d038003a699a42eed8fb6803f1f8003b68103b66
:10d04800ba6813441022194619f0f6fd0023184651
:10d058002837bd4680bd00bf0404004200040042da
:10d0680080b58ab000aff860b9607a603b60464b23
:10d07800bb61464b7b617a69137843f001031370f7
:10d088007a6913786ff3410313707b6900221a6081
:10d09800bb6900221a707a691378012161f384034d
:10d0a80013707a6953786ff383035370fb68d3f86e
:10d0b800f430182b10d0202b1dd0102b2ad17a69d0
:10d0c80053786ff301035370fa6892f889316ff35c
:10d0d800010382f889311de07a695378012161f3ef
:10d0e80001035370fa6892f88931012161f3010351
:10d0f80082f889310ee07a695378022161f30103dd
:10d108005370fa6892f88931022161f3010382f8b9
:10d11800893100bffb681946f868fff759fd7a693d
:10d12800137843f002031370fb68f8331846fff7cf
:10d1380087fdbb687b627b683b623b681b093b6180
:10d148000023fb610ce0796a386afff79ffd3b6ab0
:10d1580010333b627b6a10337b62fb690133fb61ee
:10d16800fb693a699a42eed8fb6803f1f8003b681c
:10d17800103b7a6813441022194619f05dfd00230c
:10d1880018462837bd4680bd04040042000400420a
:020000040000fa
:020000040100f9
:10d19800704770b5e9b101444ff6ff7348f208458e
:10d1a80089b210f8014b082284ea030616f0010f31
:10d1b8004fea530302f1ff3214bf6b409bb212f0e7
:10d1c800ff024fea5404efd182b28a42e9d1db432d
:10d1d80099b2084670bd10b51378ed2b144611d1dd
:10d1e8005378032b0ed1937853b1012b0ad1fff753
:10d1f800d0ff2279e37803eb02231b1a18bf01231f
:10d20800184610bd0123fbe7f0b503464078062217
:10d21800b0fbf2f102fb110212f0ff001fd1114e18
:10d22800114fdff848c0cdb20146a94200d1f0bd88
:10d23800dc789a7893f804e002eb042202f1824445
:10d2480004f59034013184f800e05c7994559c79b8
:10d25800d455dc7902f80c40c9b20633e5e7012061
:10d26800e5e700bf012001410220014103200141ff
:10d278002de9f04343780622b3fbf2f602fb16329f
:10d2880012f0ff0237d102391c4fdff874c0dff803
:10d2980074e0f6b203461546c9b2b54202d110464b
:10d2a800bde8f083dc789878012900eb042080b28f
:10d2b80012d800f1824404f5803893f8049088f875
:10d2c800009004f1011493f8058084f800809c799b
:10d2d800c455dc7900f80c40a42808d1187900f06e
:10d2e8001f00c40648bf60f01f008ef8000001351b
:10d2f800edb20633d1e70122d1e700bf02000141b8
:10d3080003000141700000204078023818bf012056
:10d3180070474378042b05d1034bd0f802201a60dc
:10d3280001221a7100207047e0a80020f8b50f46c6
:10d3380004460026a1f10805a54202d84ff0ff34a3
:10d3480006e02378ff2b13d1230703d144f07f4451
:10d358002046f8bd24f003031c1da742eed95a68e5
:10d36800013205d15b69013302d114f00c0fedd005
:10d378002378012b0ad16378012b07d1a178621d8c
:10d388000a44e01cfff727ff0028e1d00eb1d3e7dd
:10d398000434a542d0d923680133cdd0234613f8ed
:10d3a800012bef2a0bd16378002bf1d1a378ed2b59
:10d3b800eed1e378032bebd107340126bce71c46fa
:10d3c800e7e72de9f04785789df8206004460f4689
:10d3d8009046994603354ff0010a2378434508bf24
:10d3e80089f800a02378082b2bd00fd8022b1bd04c
:10d3f800072b20d00020a7421bd96378023ded1ae5
:10d408002db20233002d1c44e7dc12e00a2b22d097
:10d418001bd3552beed1a4f5c043b3f5776fe9d2f2
:10d428002046fff776ff02e02046fff76dff012850
:10d43800e1d1bde8f087002edcd020460cf030ffab
:10d44800f5e720460cf0eafef1e7002ed2d02046a0
:10d45800fff7dafeebe731462046fff709ffe6e77c
:10d468002de9f7430f469046994628b3164b1a798b
:10d478003ab3186800f5776600250be04346cdf807
:10d4880000903a463146fff79cff0546a07804f124
:10d498000a031844b0420bd23146fff747ff10f099
:10d4a8007f4f0446ead084b2b4f5c04f08bf0125c7
:10d4b800284603b0bde8f08346f670764ff4c040c6
:10d4c800dae78525f4e700bfe0a8002013b5134686
:10d4d80014460a4601460020fff7c2ff054b1b7998
:10d4e80033b123460df1070200210120fff7b8fff1
:10d4f80002b010bde0a800202de9f0478678089d0d
:10d508009df824a08946044617469846033600210c
:10d5180023786278ff2fdbb208d1013bdbb2fd2b09
:10d528002ed828880232214640440ae0bb4227d13f
:10d53800baf1000ff5d0062f0cd1072a1cd1a11c77
:10d54800404619f079fb2b889a1c637813442b808a
:10d55800012115e00b2f01d1042aefe70c2f01d18f
:10d56800012aebe7102f01d1022ae7e7152f01d195
:10d57800082ae3e7182fefd02b8802331a442a80b1
:10d588006378023ef61a36b20233002e1c4401dddf
:10d598004c45bdd3012914bf80200020bde8f08789
:10d5a8002de9ff47002407468846adf80e404ff4a2
:10d5b800c04046f670754ff0010946f66f76294669
:10d5c800fff7b4fe10f07f4f824613d10df10e0322
:10d5d8000093cdf8049043463a462946fff78cff5e
:10d5e80000289af802000af10a03184408bf012427
:10d5f800b042e4d9012c14bf8020002004b0bde85b
:10d60800f087014608b50620fff7caffb0fa80f098
:10d61800400908bd014608b51520fff7c1ffb0fa5b
:10d6280080f0400908bd034b93f9003003700120d6
:10d63800704700bf7000002013b5044601a90b20f5
:10d64800fff7aeff28b9bdf804302380012002b0ef
:10d6580010bd0020fbe713b5044601a90b20fff716
:10d668009fff28b9bdf806302380012002b010bd05
:10d678000020fbe713b504460df107010c20fff766
:10d688008fff28b99df807302370012002b010bd24
:10d698000020fbe7014b1879704700bfe0a8002085
:10d6a800014b1871704700bfe0a80020014b1868b3
:08d6b800704700bfe0a800204c
:020000040000fa
:020000040100f9
:10d6c00080b5fab000af3b1d18603b4619600023df
:10d6d00087f8e73113e097f8e731c3f10f033a1dfc
:10d6e00012681a4497f8e731127807f5f4710b4481
:10d6f00003f8242c97f8e731013387f8e73197f8de
:10d70000e7310f2be7d907f5e27207f10c03114659
:10d7100018460ef0f9f80346002b01d000235ce018
:10d7200007f5ea730d220021184619f073fd002356
:10d7300087f8e73114e097f8e731c3f105033a467b
:10d7400012681a4497f8e7310d33127807f5f4712f
:10d750000b4403f8142c97f8e731013387f8e731cd
:10d7600097f8e731022be6d907f5ea7307f5e2727d
:10d7700007f10c0010210ef0def80346002b01d05b
:10d7800000232ae0002387f8e73113e097f8e73118
:10d79000c3f102033a4612681a4497f8e731127847
:10d7a00007f5f4710b4403f8142c97f8e7310133b3
:10d7b00087f8e73197f8e731022be7d907f5e273ed
:10d7c0000d3307f5ea710322184619f02bfa0346c8
:10d7d000002b0cbf01230023dbb2184607f5f477ba
:10d7e000bd4680bd80b582b000af03463960fb7195
:10d7f000fb79072b0dd8fb799bb203f500539bb245
:10d800001846fef7a7fb034683f00103dbb2002bab
:10d8100001d0032346e0fb799bb203f500539bb292
:10d820001846fef7bafb0346002b3ad0fb799bb2b1
:10d8300003f5005308339bb21846fef78bfb0346f3
:10d84000002b18d0fb799bb203f5005308339bb231
:10d850001846fef7a2fb034683f00103dbb2002b60
:10d8600001d001231ee03b68173317220f491846e9
:10d8700019f0e6f906e03b68173317220021184635
:10d8800019f0c8fc3b6817220949184619f0d8f965
:10d890003b682e331b220749184619f0d1f90023a3
:10d8a00000e0012318460837bd4680bd2ca60020a5
:10d8b000f8a500200fa6002080b582b000af034677
:10d8c0003960fb71fb79072b01d903232fe03b68fb
:10d8d000173317221946184819f0b2f9fb799bb291
:10d8e00003f5005308339bb21846fef7e5f90346eb
:10d8f000002b1bd03b6817221946104819f0a0f9dd
:10d900003b682e331b2219460d4819f099f9fb7913
:10d910009bb203f500539bb21846fef7cdf90346c0
:10d92000002b01d0002302e0012300e00123184670
:10d930000837bd4680bd00bf2ca60020f8a50020fa
:10d940000fa6002080b582b000af0023fb7110e06d
:10d95000fb799bb203f500539bb21846fef7fafa27
:10d96000034683f00103dbb2002b06d1fb790133c0
:10d97000fb71fb79072bebd900e000bffb79184660
:10d980000837bd4680bd80b586b000af78607b6843
:10d990001b78032b01d108236be007f10c03184619
:10d9a00016f090ff0346bb82bb8a002b01d00823f0
:10d9b0005fe00023fb7556e0fb7d9bb203f500534f
:10d9c0009bb21846fef7c6fa0346002b48d0fb7df3
:10d9d0009bb203f500539bb21846fef7defa0346ee
:10d9e000002b3dd0fb7d9bb203f5005308339bb267
:10d9f0001846fef7affa0346002b15d0fb7d9bb20d
:10da000003f5005308339bb21846fef7c6fa0346e7
:10da1000002b22d007f10c0307221946174819f0f2
:10da200001f90346002b1ad17b681b78022b09d120
:10da30007b68013319461248fff742fe0346002b6c
:10da40000ed015e07b68013306220e49184619f006
:10da5000e9f80346002b0ad002e000bf00e000bf57
:10da6000fb7d0133fb75fb7d072ba5d900e000bfd3
:10da7000fb7d18461837bd4680bd00bf2ca6002090
:10da8000ffa50020f9a5002080b582b000af0346b5
:10da9000fb71fb79072b01d903230de0fb799bb2c6
:10daa00003f500539bb21846fef7e8f80346002b37
:10dab00001d1002300e0012318460837bd4680bd90
:10dac00080b582b000af0023fb710fe0fb799bb201
:10dad00003f500539bb21846fef7d0f80346002b1f
:10dae00001d0012306e0fb790133fb71fb79072ba1
:10daf000ecd9002318460837bd4680bd80b582b0fa
:10db000000af0346fb71fb799bb203f500539bb258
:10db10001846fef71ffa034618460837bd4680bd73
:10db200080b582b000af0346fb80fb88b3f5005f91
:10db30000ed3fb8842f20702934209d8064b1b68ba
:10db4000002b05d0044b1b68fa88d2b210469847c8
:10db500000bf0837bd4680bd4ca6002080b582b00e
:10db600000af7860044a7b6813600448fef746f80b
:10db700000bf0837bd4680bd4ca6002021db000158
:020000040000fa
:020000040100f9
:10db80002de9f04f2ded028bd2e9008997b0cde958
:10db90000c138b6808930b690f90d1e900b61493ae
:10dba000cd68002200234046494616f049fd40b9a1
:10dbb0001bf0040f32d11bf00803059330d0202353
:10dbc00003e089f0004399462d232b70089b03f155
:10dbd000ff3a012305934c4929f0004300208b4272
:10dbe00008bf80451fd10d9b413b192b059b94bf5e
:10dbf000464947492b44184619f0ccfd284619f0f0
:10dc000033f9cdf800b00246089b0f98294611f071
:10dc100007f917b0bdec028bbde8f08f2b23d4e7da
:10dc2000ddf820a0d7e7994208bf404509d20d9bf7
:10dc3000413b192b059b94bf364937492b44184665
:10dc4000dae7002200234046494617f0a7f89fed87
:10dc50002c7b8ded027b48b300240d9819f0adfcb0
:10dc6000002ec3b20993c0f2d781672b5ad1002e80
:10dc700008bf0126231d02dbb442c0f2c68165271e
:10dc800061e09ded067b8ded027b01340022234b8c
:10dc9000dde9020109f034fd42464b46cde90601bb
:10dca00016f0eafc0028ecd000271fe00446ede760
:10dcb00014f5967f11da87b90022194b4046494680
:10dcc00009f01efd002280468946154bdde9020160
:10dcd00009f016fdcde902010127dde9020100226c
:10dce0000e4b05f0bdf9cde90201013cdde902234f
:10dcf0004046494616f0a4fc0028d9d1ade700bf44
:10dd0000000000000000f03f0000f07f10750201ed
:10dd100014750201187502011c75020100002440ef
:10dd200000005043099f662f06f101060bd1002c1d
:10dd300004da9fedbd7b8ded027b0024099b672bf0
:10dd400018bf361966279ded027bcde906898ded5a
:10dd50000a7b00230e93dde90a23dde9060105f0c5
:10dd60007ff941ec100b0df05ff951ec100bb0eea8
:10dd7000408af0ee608a14f0f4feb0ee480af0ee4d
:10dd8000680a069b1093079b159083f0004311933c
:10dd90009ded0a1b9ded102b17f02efe53ec102b62
:10dda00083f000430793dde90a01a34b8ded060ada
:10ddb000002205f055f90e9b01339e42cde90a0180
:10ddc0000e93c8d100229d4b09f09afccde90a01bf
:10ddd00002460b46dde9060116f032fc002840f051
:10dde0008180dde90a23dde9060116f0d7ff10b1d5
:10ddf000159bda0776d5dde90a234046494604f04b
:10de0000c9fb0022cde906018b4bdde9020109f0d7
:10de100077fcdde90623cde90a0116f051f8002868
:10de200065d0662f04f1010465d10136a146a9eb46
:10de300006034ff00008059e1093cdf80880109b54
:10de4000994540f08180029b002b00f0c880a81902
:10de50000022652f027029d1149b1499013b944232
:10de6000ea54c1f1030ebcbf644201220a21002c16
:10de700040f0bc800eeb030cbcf1000f00f3b68049
:10de8000002a03f1ff3114bf2d222b226a540d9a70
:10de9000023b413a192a05eb030198bf45279e42f0
:10dea0000f70aaf1020a01da19f074fc0bf00303f7
:10deb000022b7ff4a3aebaf1000f7ff79fae284686
:10dec00018f0d2ff05eb0a03059a824240f39980cd
:10ded000059b2b4418465246302119f09bf900232c
:10dee00008938be69fed527b8ded0a7b83e79dedda
:10def000027b8ded0a7b652f14bfa1464ff0000910
:10df000095e7029a52b9b9f1000f07da0e992e225d
:10df10006a54012201360af1ff3a029205eb080128
:10df2000aa193144302001e002f8010b9142fbd1e3
:10df300008eb06023033aaeb080808f1ff3a561c3a
:10df4000ab544ff0000828e00c9b0e961b69053b74
:10df5000b3427ff678afdde90a23dde9060105f07b
:10df60007ff841ec100b0df05ff851ec100bb0eea8
:10df7000408af0ee608a14f0f4fd0bf010020928dc
:10df80000346a8bf09230243bbd1099a672ab8d127
:10df9000b9f1000fc2da08f10108069b1293079b42
:10dfa000b0ee480af0ee680a83f0004313939ded4b
:10dfb0000a1b9ded122b17f01ffd53ec102b83f065
:10dfc00000430793dde90a0100221b4b8ded060a91
:10dfd00005f046f809f1ff39cde90a012fe71bf0fa
:10dfe000100f1ebf2e23ab55013630e7b4fbf1fcfa
:10dff000013b01fb1c443034ec540af1ff3a644607
:10e0000035e72a5c1a5401385ee7002cbff69aae59
:10e01000662788e606262de6099b672bfad01f4661
:10e02000062680e6aff30080000000000000f03f0d
:10e030000000000000000000000024400000144028
:020000040000fa
:020000040100f9
:10e040002de9f04f95b0cde912030b68089392edde
:10e05000007b4b680a938b6809930b690d93cc681e
:10e060000022002351ec170b8ded047b16f0e8fa2b
:10e0700040b9089b580734d4089b13f0080732d0e6
:10e08000202306e0dde9042181f00043cde90423eb
:10e090002d232370099b01275a1edde90403dff8b5
:10e0a000f8b223f000414ff0000a594508bf50452f
:10e0b0001bd1139b413b192b04eb070094bfb049c4
:10e0c000b04919f067fbaf4818f0cefe089b0093eb
:10e0d0000246099b1298214610f0a2fe15b0bde839
:10e0e000f08f2b23d5e7099ad7e7139b8b45a3f134
:10e0f000410308bf82450b9309d2192b04eb07009b
:10e1000094bfa149a14919f045fba048dce73021a3
:10e11000e1550b997b1c1a2934bf58217821e15411
:10e12000931e079300220023dde90401023716f055
:10e1300035fe002800f07b819fed8f7b8ded027b0b
:10e1400000250a9bdde90289002bdde904abb8bf9d
:10e1500018230e93002642464b465046594604f07b
:10e160007fff41ec100b0cf05fff42464b4651ec39
:10e17000100b8ded100b09f0c3fa02460b4650460a
:10e18000594619f081fb824b82468b4640464946f0
:10e19000002209f0b5fa731c0c930a9b002b8046f1
:10e1a000894606da002200235046594616f0f6fd4d
:10e1b00028b90e9bb34200f3408101330c93002237
:10e1c000744b4046494609f09bfa80468946024610
:10e1d0000b465046594616f033fa002840f02f817e
:10e1e00042464b465046594616f0d8fd30b1dde95f
:10e1f000100114f0b6fcc10740f1218142464b46a4
:10e20000dde9040104f0c6f9cde90401dde90421ea
:10e2100021f00043604900208b4208bf82423ff456
:10e2200048af4ff000083e46c246c1460d9b053b35
:10e23000b342b34633d9dde90223dde9040104f03a
:10e240000fff41ec100b0cf0effe51ec100b8dedbd
:10e250000e0b14f086fc002840f0f680b9f1000f98
:10e2600000f0f28008f10108dde90223dde90e018a
:10e2700009f046fa02460b46dde9040119f004fbf9
:10e28000434bcde904010022dde9020109f038fa2f
:10e290000c9b09f101094b45cde90201c6d1baf148
:10e2a000000f1ed1b8f1000f00f015810a9b002b62
:10e2b00040f31181089bda0700f10d81a3192e228a
:10e2c0001a7008eb06022244302100bf03f8011f38
:10e2d0009a42fbd1079b46446fea08084344013643
:10e2e00007930d9b0d990022a019013b95420270e6
:10e2f000b8bf6d42e254c1f1020eb8bf01224ff027
:10e300000a08002d40f0d7800eeb030cbcf1010f82
:10e3100000f0d180002a03f1ff3114bf2d222b22ff
:10e3200062540b9a023b1a2a04eb030134bf5022b9
:10e3300070229e420a7001da19f02cfa089b03f051
:10e340000303022b14d1079ba3f10208b8f1000fbd
:10e350000edd204618f088fd04eb0803b84280f279
:10e36000b68042463021e01918f054ff002309938b
:10e370002046a9e6aff30080000000000000f03f57
:10e380000075020104750201087502010c75020195
:10e390000000b03f000020400000f07fcde902897e
:10e3a0000135dde902231046194604f0f3f88046f2
:10e3b000894602460b46dde9040116f041f90028c2
:10e3c000ecd0dff82cb1dff82c914ff0000a4ff0c1
:10e3d0000008dde90223dde9040116f031f9002827
:10e3e0003ff4afae52465b46dde9020109f088f921
:10e3f0000022002316f0d2fc78b142464b46dde9fc
:10e40000020109f07df94246cde902014b46dde902
:10e41000040109f075f9cde90401dde90201524674
:10e420005b4609f06df9013dcde90201d1e79fedb1
:10e430002e7b05468ded027bb3e70c9e8be64ff0fd
:10e4400000084ff00009d9e6baf1000f0bd1b9f17d
:10e45000000f08d02e2304f80b30079b013b013638
:10e4600007934ff0010a04eb0803a219334430214b
:10e4700002e000bf02f8011b9a42fbd1079b06ebaa
:10e48000080ba3eb08080b9b0928d4bf303057308a
:10e49000192b06d840f02003613b192b01d819f045
:10e4a00093f808f1ff330bf1010604f80b00079312
:10e4b0004ff00008d8e60799b5fbf8fc013b08fbd4
:10e4c0001c5530350139e5540791654619e7225c42
:10e4d0001a54013842e7089bdb067ff502af2e2372
:10e4e000a3550136fde600bf000000000000f03f2c
:08e4f0000000e03f0000504372
:020000040000fa
:020000040100f9
:10e4f8002de9f04fca4b2ded048b59ec108b0022ff
:10e5080099458fb008bf90458ded021b00f0d4806f
:10e51800dde90267b319009347eb07030193dde9cf
:10e528000001c04b4ff0ff328b4208bf824280f09f
:10e53800008118eb080a49eb090b5b4508bf5245f7
:10e5480010ee104a4d4633d26ff400134ff0ff32ed
:10e558005b4508bf524532d2c5f30a53013b40f22e
:10e56800fd72934200f2ab80c7f30a53013b93421a
:10e5780000f2a580dde9020114f0effa824618f0f6
:10e5880066f88f4208bf864268d040464946002256
:10e59800002316f051f800284ad09fed9b8bb0ee6f
:10e5a800480af0ee680a0fb0bdec048bbde8f08fa6
:10e5b800002e77f1000302da9b4b22221a60002c0e
:10e5c80075f10003c8dadde900016ff400134ff0bc
:10e5d800ff328b4208bf8242bed3c7f30a5eaef257
:10e5e800ff33332b049340f2a780b3f5806f40f2da
:10e5f800508100988d4b8a4a0021091a019963ebd2
:10e60800010302eae37207f0004342ea0301002033
:10e61800cde9060102460b46dde9020116f0bafb18
:10e62800002899d1804b21221a609fed778bb6e79d
:10e63800224625f0004343ec102b05f01df8dde9d8
:10e64800020153ec102b09f057f841ec100b04f0c1
:10e65800d7f9b0ee408af0ee608aa0e7baf1004f31
:10e6680093d0baf1000fc0f20d8118bf002460d01a
:10e678009fed678b1af0010f07d051ec180b42463b
:10e688004b4609f039f841ec180b5fea5a0a424642
:10e698004b46404649460ad1002c80d053ec182bf3
:10e6a80000205f4904f0d8fc41ec180b77e709f02b
:10e6b80023f880468946dde749ec188b6fe75c4b09
:10e6c80000225b4508bf5245f6d3dde900018b42c5
:10e6d80008bf8242c0f0da80bbf5001f08bfbaf15c
:10e6e800000fc0f0af80534b00229d4208bf9442f8
:10e6f80000f0ff80504b00229d4208bf944200f07a
:10e70800fe809f4208bf964200f0df804b4925f00b
:10e7180000434ff0ff30994208bfa04280f0e680e6
:10e72800474b00229d4208bf944202d09fed3a8b8e
:10e7380035e79fed378b32e7c3f1340c4ff0ff32ea
:10e74800acf1200002fa00f002fa0cf3ccf120013f
:10e7580022fa01f1034302fa0cf243ea010091188c
:10e76800049b0b920c9047f48012404122ea00026d
:10e7780002fa03f0c3f120030993ccf1200326ea3f
:10e7880001010a93aef21f4e099b01fa0efe40ea00
:10e798000e0021fa03fe049bcdf824e001fa03f3ee
:10e7a8000d930a9b02fa03fe099bcdf810e018436b
:10e7b8000d9bdb180d93049b21fa0cf1acf1200e94
:10e7c80041ea030122fa0ef322fa0cf20992099a9d
:10e7d80041ea030140410d9b10430b43c0f3140170
:10e7e80005910c980b99049306ea010207ea0003c5
:10e7f800dde90401b1f5801f08bf012850d2cde939
:10e80800062309e7aff30080000000000000f87f4e
:10e81800000000000000f03f000000000000f07f52
:10e828000000f03fffff1f00eca900200000c07fa0
:10e838000000e0ff0000f07f0000f0ffffffef3f67
:10e848000000f0bfdde9020114f087f9824617f0f5
:10e85800fefe8f4208bf86427ff497ae002e77f106
:10e86800000368db9fed3a8b002108461af0010f80
:10e878003ff495ae05f000440a4684ea000343ecf1
:10e88800182b8ce6caf1000a0124f1e69ded028bf3
:10e8980085e69ded027b8ded067b53ec172bbbe6e1
:10e8a800012101fa0ef00a994ff0010e2efa01fe2d
:10e8b800012101fa0cf1891840ea0e0040eb03032c
:10e8c80006910793dde90623a6e6294b00229d421f
:10e8d80008bf94423ff42daf264925f000434ff07e
:10e8e800ff30994208bfa042bff420af9fed188bbc
:10e8f80055e6002e77f10003bff618aff6e7002eb5
:10e9080077f100031cdb9fed149b9fed158bdde970
:10e91800020114f022f9044617f099fe8f4208bf4d
:10e9280086427ff43caee3077ff539aeb0ee498a04
:10e93800f0ee698a33e69fed0a8b0f48002195e7d0
:10e948009fed099b9fed028be1e700bfaff30080cd
:10e958000000000000000000000000000000f0ffc0
:10e96800000000000000f07f0000000000000080b0
:0ce978000000f0bfffffef3f0000f07f49
:020000040000fa
:020000040100f9
:10e9840080b588b000af786000237b61f6f794f817
:10e99400454b1b68002b01d100f01df97b68002b4f
:10e9a40012d008227b6803f00703d31a08333b61b3
:10e9b4003b69db437a689a4204d87a683b6913441a
:10e9c4007b6001e000237b607b68002b60db7b685d
:10e9d400002b5dd0354b1b687a689a4258d8344b6b
:10e9e400bb61334b1b68fb6104e0fb69bb61fb69e2
:10e9f4001b68fb61fb695b687a689a4203d9fb690f
:10ea04001b68002bf1d1284b1b68fa699a423fd04e
:10ea1400bb691b68082213447b61fb691a68bb69e4
:10ea24001a60fb695a687b68d21a08235b009a4211
:10ea34000fd9fa697b681344fb60fb695a687b68e9
:10ea4400d21afb685a60fb697a685a60f86800f069
:10ea54001ff9164b1a68fb695b68d31a134a1360d3
:10ea6400124b1a68134b1b689a4203d20f4b1b6854
:10ea7400104a1360fb695b6843f00042fb695a600b
:10ea8400fb6900221a600c4b1b6801330a4a1360ad
:10ea9400f6f75af87b69002b01d110f040ff7b692f
:10eaa40018462037bd4680bd88a000208ca00020d9
:10eab40080a0002090a0002094a0002080b584b005
:10eac40000af78607b68fb607b68002b2bd0082349
:10ead4005b42fa681344fb60fb68bb60bb685b681d
:10eae400db0f03f00103dbb2002b1cd0bb681b68f7
:10eaf400002b18d1bb685b6823f00042bb685a60e6
:10eb0400f5f7daffbb685a68094b1b681344084ad7
:10eb14001360b86800f0bcf8064b1b680133054a63
:10eb24001360f6f711f800bf1037bd4680bd00bf73
:10eb34008ca0002098a0002080b400af034b1b6879
:10eb44001846bd465df8047b704700bf8ca00020ca
:10eb540080b400af034b1b681846bd465df8047bc8
:10eb6400704700bf90a0002080b400af00bfbd4636
:10eb74005df8047b704780b584b000af786039607d
:10eb84000023fb607b68002b09d04ff0ff327b68c9
:10eb9400b2fbf3f33a689a4201d9012300e000235f
:10eba400002b13d17b683a6802fb03f31846fff786
:10ebb400e7fef860fb68002b08d07b683a6802fb2c
:10ebc40003f31a460021f86818f022fbfb68184684
:10ebd4001037bd4680bd80b485b000af4ff42043ec
:10ebe400bb60264bfb60fb6803f00703002b0cd0d3
:10ebf400fb680733fb60fb6823f00703fb60ba681c
:10ec0400fb68d31a1d4a1344bb60fb687b601c4a33
:10ec14007b6813601a4b00225a607b68ba681344fd
:10ec2400fb600822fb689b1afb60fb6823f0070368
:10ec3400fb60fb68134a1360124b1b6800225a6086
:10ec4400104b1b6800221a607b683b603b68fa68c3
:10ec5400d21a3b685a600b4b1a683b681a603b68cf
:10ec64005b68094a13603b685b68084a136000bf2d
:10ec74001437bd465df8047b704700bf8000002058
:10ec840080a0002088a0002090a000208ca000205c
:10ec940080b485b000af7860284bfb6002e0fb686d
:10eca4001b68fb60fb681b687a689a42f7d8fb68ac
:10ecb400bb60fb685b68ba6813447a689a4208d1ff
:10ecc400fb685a687b685b681a44fb685a60fb6897
:10ecd4007b607b68bb607b685b68ba681a44fb68ce
:10ece4001b689a4218d1fb681a68154b1b689a4234
:10ecf4000dd07b685a68fb681b685b681a447b68a4
:10ed04005a60fb681b681a687b681a6008e00c4b41
:10ed14001a687b681a6003e0fb681a687b681a60eb
:10ed2400fa687b689a4202d0fb687a681a6000bf6e
:10ed34001437bd465df8047b704700bf80a00020f7
:10ed440088a0002080b586b000af786000233b61c6
:10ed54000023fb604ff0ff33bb60f5f7adfe224ba1
:10ed64001b687b617b69002b1bd015e03b69013379
:10ed74003b617b695b68fa689a4202d27b695b6893
:10ed8400fb607b695b68ba689a4202d97b695b68fd
:10ed9400bb607b691b687b61144b1b687a699a4270
:10eda400e4d1f5f7d1fe7b68fa685a607b68ba68eb
:10edb4009a607b683a69da6000f0d1f80c4b1a6803
:10edc4007b681a600b4b1a687b685a610a4b1a6895
:10edd4007b689a61094b1a687b681a6100f0d8f85d
:10ede40000bf1837bd4680bd80a0002088a0002049
:10edf4008ca0002094a0002098a0002090a00020c7
:020000040000fa
:020000040100f9
:0cee04004d6963726f636869700000bfa5
:020000040000fa
:020000040100f9
:10ee100080b485b000aff860b9607a60fb68043bed
:10ee2000fb60fb684ff080721a60fb68043bfb607c
:10ee3000bb6823f00102fb681a60fb68043bfb60bf
:10ee40000c4afb681a60fb68143bfb607a68fb683d
:10ee50001a60fb68043bfb60fb686ff002021a60fb
:10ee6000fb68203bfb60fb6818461437bd465df825
:10ee7000047b704779ee000180b483b000af0023bb
:10ee80003b604ff0200383f31188bff36f8fbff314
:10ee90004f8f7b6000bf3b68002bfcd000bf0c375e
:10eea000bd465df8047b7047094b19680868b0e8f7
:10eeb000f04f80f30988bff36f8f4ff0000080f3ad
:10eec00011887047aff30080aff30080aff300808c
:10eed00040fd012000bf08480068006880f30888f2
:10eee0004ff0000080f3148862b661b6bff34f8f15
:10eef000bff36f8f00df00bf08ed00e000bf80b5fb
:10ef000000af114b1b68104a43f4600313600e4bb3
:10ef10001b680d4a43f06043136000f077f90b4b18
:10ef200000221a6000f0a2f9094b1b68084a43f05e
:10ef300040431360fff7cffff6f780f8fff79cff21
:10ef40000023184680bd00bf20ed00e0d0ab0020bc
:10ef500034ef00e080b400af00bfbd465df8047b35
:10ef6000704780b483b000af4ff0200383f3118863
:10ef7000bff36f8fbff34f8f7b60054b1b6801336f
:10ef8000034a136000bf0c37bd465df8047b704731
:10ef9000d0ab002080b483b000af0a4b1b68013bac
:10efa000084a1360074b1b68002b04d100237b60c9
:10efb0007b6883f3118800bf0c37bd465df8047b86
:10efc000704700bfd0ab0020eff30980bff36f8f15
:10efd000174b1a681ef0100f08bf20ed108a20e9a9
:10efe000f04f10602de909004ff0200080f31188e8
:10eff000bff34f8fbff36f8ff6f720f84ff000008d
:10f0000080f3118809bc19680868b0e8f04f1ef059
:10f01000100f08bfb0ec108a80f30988bff36f8f20
:10f02000704700bfaff30080aff30080aff3008004
:10f0300040fd012000bf80b582b000af4ff020033b
:10f0400083f31188bff36f8fbff34f8f7b60f5f7aa
:10f05000effe0346002b03d0064b4ff080521a60a0
:10f0600000233b603b6883f3118800bf0837bd462f
:10f0700080bd00bf04ed00e080b588b000af7860cf
:10f080005b4b1b687a689a4202d9594b1b687b60bc
:10f0900072b6bff34f8fbff36f8ff6f7a3fa034635
:10f0a000002b01d162b69ee0524b06221a60524bf1
:10f0b0001b687b617b69002b02d1504b1b687b6115
:10f0c0007b68013b4d4a126802fb03f37a691344e3
:10f0d000fb614b4b1b6803f08063002b08d0484b4f
:10f0e0004ff000721a60454b1b68fa69d31afb6136
:10f0f000444b1b68fa699a4204d9424b1b68fa696f
:10f10000d31afb61404afb6913603b4b00221a6033
:10f11000384b1b68374a43f0010313607b68fb6080
:10f12000fb68002b04d0bff34f8f30bfbff36f8f4e
:10f1300062b6bff34f8fbff36f8f72b6bff34f8fbf
:10f14000bff36f8f2b4b06221a602a4b1b6803f408
:10f150008033002b1dd0294b1a68274b1968fb6997
:10f16000cb1a1344013b3b61264b1b683a699a4218
:10f1700004d9224b1b683a699a4203d91f4b1b687a
:10f18000013b3b61204a3b6913607b68013bbb61eb
:10f190001ae0194b1b687b61184b1b687a6802fbed
:10f1a00003f27b69d31abb60144b1b68ba68b2fbcd
:10f1b000f3f3bb61bb690133104a126802fb03f22f
:10f1c0001149bb68d31a0b600b4b00221a60094b24
:10f1d00007221a60094b1b680b4a013b1360b86990
:10f1e000f5f7e4fd62b600bf2037bd4680bd00bf25
:10f1f0006ca8002010e000e018e000e068a8002003
:10f2000004ed00e070a8002014e000e080b400af3e
:10f21000104b4ff47a421a600e4b1b686ff07f421e
:10f22000b2fbf3f30c4a13600c4b5e221a600c4bda
:10f2300000221a600b4b00221a600b4b4ff6ff1294
:10f240001a60074b07221a6000bfbd465df8047bb9
:10f25000704700bf68a800206ca8002070a800209c
:10f2600010e000e018e000e014e000e0dff80c003f
:10f27000016841f4700101607047000088ed00e012
:04f2800000bf00bf0c
:020000040000fa
:020000040100f9
:10f2840080b582b000af78607b6808334ff0ff31ff
:10f29400184601f062f90346002b01d1002300e077
:10f2a400012318460837bd4680bd80b582b000af43
:10f2b40078607b680833184601f070f900bf08379e
:10f2c400bd4680bd80b584b000af786039607b688e
:10f2d400002b07d17a6813465b0013449b00104a45
:10f2e400134400e00023fb603b68bb60fb68002b19
:10f2f4000fd0fb680833184601f003f90346012bcd
:10f3040009d1bb681a68fb681a60fb6801221a718c
:10f3140002e000bf00e000bf1037bd4680bd00bf63
:10f324005ca8002080b586b000aff860b9607a6050
:10f3340000237b61fb68002b07d1fa6813465b004e
:10f3440013449b00134a134400e000233b613b69d0
:10f35400002b02d14ff0ff3317e03869fff790ff1d
:10f36400034683f00103dbb2002b02d04ff0ff33de
:10f374000be03b691b681b687968b86898470346cb
:10f384007b613869fff791ff7b6918461837bd46e2
:10f3940080bd00bf5ca8002080b584b000af786059
:10f3a4000023fb607b68002b07d17a6813465b005f
:10f3b40013449b00124a134400e00023bb60bb6863
:10f3c400002b02d14ff0ff3315e0b868fff758ff68
:10f3d400034683f00103dbb2002b02d04ff0ff336e
:10f3e40009e0bb681b685b6898470346fb60b86824
:10f3f400fff75bfffb6818461037bd4680bd00bfb2
:10f404005ca8002080b584b000af78600023fb6066
:10f414007b68002b07d17a6813465b0013449b007a
:10f42400124a134400e00023bb60bb68002b02d1e6
:10f434004ff0ff3315e0b868fff722ff034683f06f
:10f444000103dbb2002b02d04ff0ff3309e0bb68ad
:10f454001b689b6898470346fb60b868fff725ff65
:10f46400fb6818461037bd4680bd00bf5ca800206d
:10f4740080b586b000aff860b9607a6000237b6124
:10f48400fb68002b07d1fa6813465b0013449b000a
:10f49400134a134400e000233b613b69002b02d173
:10f4a4004ff0ff3317e03869fff7eafe034683f0b5
:10f4b4000103dbb2002b02d04ff0ff330be03b69ba
:10f4c4001b68db687968b868984703467b613869cc
:10f4d400fff7ebfe7b6918461837bd4680bd00bfb9
:10f4e4005ca8002080b584b000af78600023fb6086
:10f4f4007b68002b07d17a6813465b0013449b009a
:10f50400124a134400e00023bb60bb68002b02d105
:10f514004ff0ff3315e0b868fff7b2fe034683f0ff
:10f524000103dbb2002b02d04ff0ff3309e0bb68cc
:10f534001b685b6998470346fb60b868fff7b5fe34
:10f54400fb6818461037bd4680bd00bf5ca800208c
:10f5540080b584b000af78600023fb607b68002b2b
:10f5640007d17a6813465b0013449b00124a134484
:10f5740000e00023bb60bb68002b02d14ff0ff33d7
:10f5840015e0b868fff77cfe034683f00103dbb2a5
:10f59400002b02d04ff0ff3309e0bb681b681b69e6
:10f5a40098470346fb60b868fff77ffefb68184680
:10f5b4001037bd4680bd00bf5ca8002080b483b076
:10f5c40000af7860012318460c37bd465df8047b14
:10f5d400704780b485b000af78607b68002b07d19a
:10f5e4007a6813465b0013449b00094a134400e005
:10f5f4000023fb60fb68002b01d1032301e0fb68bf
:10f604001b7918461437bd465df8047b704700bf6c
:10f614005ca8002080b483b000af7860396000bf7c
:0cf624000c37bd465df8047b704700bf4a
:020000040000fa
:020000040100f9
:10f6300080b485b000af786039607b68fb6004e01f
:10f64000fb685a1cfa6000221a703b685a1e3a6026
:10f65000002bf5d100bf1437bd465df8047b704721
:10f6600080b586b000aff860b9607a603b60fb6837
:10f67000d3f8183113f1020f0dd07b68202b02d97b
:10f680006ff0ac0333e0fb6803f5b4737a68b968d4
:10f69000184617f0d5fa7b6a002b0bd07b68102b2d
:10f6a00008d07b68182b05d07b68202b02d06ff028
:10f6b000ac031ce07a68fb68c3f8f4207b689b0805
:10f6c0009a1dfb68c3f8f0207b68f02b02d96ff01d
:10f6d000ac030ce0fb687b617a68b968786917f065
:10f6e000affa3968f86800f04af838613b691846a3
:10f6f0001837bd4680bd80b586b002aff860b960ee
:10f700007a603b60fb68002b02d16ff0ac0310e025
:10f710007b68f02b02d96ff0ac030ae00123019360
:10f72000bb6900933b687a68b968f868fff798ff8f
:10f73000034618461037bd4680bd80b586b002af7f
:10f74000f860b9607a603b60fb68002b02d16ff013
:10f75000ac0310e07b68f02b02d96ff0ac030ae039
:10f7600000230193bb6900933b687a68b968f86825
:10f77000fff776ff034618461037bd4680bd80b5bb
:10f7800082b000af786039607b68002b02d16ff0e7
:10f79000ac0312e03b68002b07d07b68f8331022e3
:10f7a0003968184617f04cfa06e07b68f8331022e7
:10f7b0000021184617f02efd002318460837bd46d5
:10f7c00080bd80b584b000aff860b9607a60ba6877
:10f7d0007968f868fdf7c6fa034618461037bd4643
:10f7e00080bd80b584b000aff860b9607a60ba6857
:10f7f0007968f868fdf72afb034618461037bd46be
:10f8000080bd80b487b000aff860b9607a60002333
:10f810007b61fb68002b02d16ff0ac030ce0fb684e
:10f82000ba68c3f89421fb687a68c3f81821fb68aa
:10f830000022c3f81c217b6918461c37bd465df8c1
:10f84000047b704780b586b000aff860b9607a601d
:10f850003b6000237b61fb68002b02d16ff0ac039f
:10f860007b617b69002b08d17b68002b02db7b6806
:10f87000202b02dd6ff083037b617b69002b05d1b8
:10f880003a6a3968f868fff7bcff78617b69002b3a
:10f890000fd1fb6803f590737a68b968184617f0c2
:10f8a000cff9fb687a68c3f84021fb680022c3f8ef
:10f8b00064217b6918461837bd4680bd80b586b087
:10f8c00000aff860b9607a603b6000237b61002381
:10f8d0003b61fb68002b02d0bb68002b02d16ff0ac
:10f8e000ac037b617b69002b0dd1b86817f0bcfac3
:10f8f00003463b613b69002b02d03b69202b02ddb4
:10f900006ff083037b617b69002b05d13a687968ce
:10f91000f868fff776ff78617b69002b0fd1fb68f1
:10f9200003f5a2733a69b968184617f089f9fb68bc
:10f930003a69c3f86421fb680022c3f840217b695f
:10f9400018461837bd4680bd80b582b000af7860dc
:10f950007b68002b07d07b6803f5b4732021184621
:10f96000fff766fe00e000bf0837bd4680bd80b4eb
:10f9700085b000af786039600023fb607b68002ba6
:10f9800002d03b68002b02d16ff0ac030fe07b6824
:10f99000d3f8f0300a2b03d13b6810221a6005e03f
:10f9a0003b6800221a606ff0ac03fb60fb681846ee
:0af9b0001437bd465df8047b704774
:020000040000fa
:020000040100f9
:02f9ba00fee766
:020000040000fa
:020000040100f9
:10f9bc0080b483b000af78603960064a7b6813600e
:10f9cc00044a3b68536000bf0c37bd465df8047bae
:10f9dc00704700bf7ca8002080b582b000af074bf9
:10f9ec001b68002b06d0054b5b687b60034b1b68c8
:10f9fc007868984700bf0837bd4680bd7ca80020ba
:10fa0c0080b400af064b00221a62054b054a1a62fd
:10fa1c00034b054a1a6200bfbd465df8047b704774
:10fa2c0000060044556699aaaa99665580b586b019
:10fa3c0000af78600b46fb70eff31083fb60fb6844
:10fa4c007b6172b6104a7b6813630f4b4ff4804294
:10fa5c005a600d4b0f225a60fb780b4a03f00f03d0
:10fa6c009360094b4ff480429a60fff7c9ff064b35
:10fa7c004ff400429a607b693b613b6983f31088c9
:10fa8c0000bf1837bd4680bd0006004480b500afee
:10fa9c00034b1b6b00211846fff7c8ff00bf80bd4e
:10faac000006004480b586b000aff860b9607a609b
:10fabc007b687b61ba687969f86817f0bbf8012339
:10facc0018461837bd4680bd80b582b000af78604f
:10fadc003960064a7b68136401213868fff7a6ff7a
:10faec00012318460837bd4680bd00bf0006004400
:10fafc0080b582b000af78603960124a7b681b68b1
:10fb0c0013647b6804337b600e4a7b681b68136547
:10fb1c007b6804337b600b4a7b681b6813667b68cd
:10fb2c0004337b60074a7b681b6813677b6804336c
:10fb3c007b6002213868fff779ff012318460837ec
:10fb4c00bd4680bd0006004480b582b000af786031
:10fb5c003960064a7b68c2f8c03003213868fff769
:10fb6c0065ff012318460837bd4680bd00060044da
:10fb7c0080b582b000af786004217868fff756ff3b
:10fb8c00012318460837bd4680bd80b400af044b36
:10fb9c001b6803f440531846bd465df8047b704760
:10fbac000006004480b400af064b1b6803f400430e
:10fbbc00002b14bf01230023dbb21846bd465df8b1
:10fbcc00047b70470006004480b586b000af7860b7
:10fbdc003960eff31083fb60fb687b6172b6fff753
:10fbec000fff114b4ff00042c3f8d0200e4b4ff0db
:10fbfc000042c3f8e8207b6823f07f430a4a43f0b5
:10fc0c000043c2f8d0303b6823f07f43064a43f0f0
:10fc1c000043c2f8e0307b693b613b6983f3108899
:10fc2c0000bf1837bd4680bd0006004480b584b0c7
:10fc3c0000afeff310837b607b68fb6072b6fff75d
:10fc4c00dffe094b4ff00042c3f8d420064b4ff0b7
:10fc5c000042c3f8e420fb68bb60bb6883f31088e8
:10fc6c0000bf1037bd4680bd0006004480b586b08d
:10fc7c0000af7860eff31083fb60fb687b6172b6ba
:10fc8c00fff7befe074a7b6823f07f43c2f8f430cf
:10fc9c007b693b613b6983f3108800bf1837bd4615
:10fcac0080bd00bf0006004480b586b000af786010
:10fcbc00eff31083fb60fb687b6172b6fff7a0fe6d
:10fccc00074a7b6823f07f43c2f8f8307b693b61bd
:10fcdc003b6983f3108800bf1837bd4680bd00bf59
:04fcec0000060044ca
:020000040000fa
:020000040100f9
:10fcf00080b5c8b000af3b1d18603b1d07f586708e
:10fd00000822196816f09cff3b1d1b685b8818468b
:10fd100000f05bfc0346c7f81031d7f81031002b18
:10fd20005dd0d7f810013b1d1b6859683b1d1b684f
:10fd30005b881a4616f084ffd7f81031c7f81031e7
:10fd40003b1d1b681b78042b26d1d7f81031c7f850
:10fd50001c31d7f81c311b78122b1dd1d7f81c3160
:10fd60009b7a9b00184600f030fcc7f81801d7f8c2
:10fd70001831002b10d0d7f81c315968d7f81c3136
:10fd80009b7a9b001a46d7f8180116f059ffd7f84e
:10fd90001c31d7f818215a6007f1080300221a70a5
:10fda00007f1080301333a1d126812781a7007f13f
:10fdb000080301333a1d126852885a8007f108037c
:10fdc0000133d7f810215a6007f10803c7f814313e
:10fdd0000022d7f81411044804f01efc00e000bf14
:10fde00007f59077bd4680bd6c00002080b582b0dd
:10fdf00000af78607b681b78013b032b22d801a2ff
:10fe000052f823f015fe000121fe00012dfe000135
:10fe100039fe00017b685b68184601f0a6f812e025
:10fe20007b685b68184601f00bf90ce07b685b6847
:10fe3000184601f066f906e07b685b68184601f039
:10fe400020f900e000bf786802f09cf87968064865
:10fe5000f8f774f97b685b68184600f0c2fb00bfd6
:10fe60000837bd4680bd00bfeca8002080b483b039
:10fe700000af786000bf0c37bd465df8047b70476b
:10fe800080b483b000af786000bf0c37bd465df82a
:10fe9000047b704780b400af00bfbd465df8047bb3
:10fea000704780b58eb000af344a07f12c0307ca03
:10feb00003c31a8007f12c0319460a2014f020f915
:10fec00000233b7000237b8000233b713b46184698
:10fed00014f0defc00233b77a023fb8320233b842c
:10fee000002387f82230002387f8233007f11c0312
:10fef000184614f001fd07f12403052200211846dd
:10ff000017f088f9032387f8243097f8253043f059
:10ff10000103dbb287f8253097f8253043f008035a
:10ff2000dbb287f8253007f12403184614f074f982
:10ff30000123bb7601233b7606233b824ff44863c3
:10ff40007b820023bb8240f2f313fb8207f1100394
:10ff5000184602f028f80a4a13786ff3000313706a
:10ff6000074a137843f002031370054a13786ff3be
:10ff70008203137000bf3837bd4680bd04ee000118
:10ff8000eca8002080b500af0af0d4fb00bf80bd14
:10ff900080b582b000af0023fb800023bb801048f7
:10ffa00017f056fb12f026fe0df0e8fefb8818460f
:10ffb00016f0dcffbb88184611f0a8fa0cf0eafa3c
:10ffc00001f0a6ff074801f0bbfff8f73df806482f
:10ffd000f8f774f8fff765ff00bf0837bd4680bd2e
:10ffe000f1fc00015311010181fe000180b500af59
:10fff000fff7c8fffff74efffff7caff00bf80bd46
:020000040000fa
:020000040101f8
:100000002de9f041aeb00646154605910027059949
:100010000b78002b00f0fa8000244ff0ff33cde97d
:1000200009430eab0c9380230b940d930b5d0bb126
:10003000252b26d134b12246304616f068f8059bb0
:1000400023440593059b1a78252a40f0d78003f1b5
:100050000108cdf81480059803782b2b1ad025d8e9
:10006000202b1bd0232b1dd02a2b27d013f045f893
:100070000b90059b1a78303a092a2ed80133059344
:10008000f7e70134d2e7099b43f0010301300993fc
:100090000590e0e7099b43f00403f7e7099b43f071
:1000a0000803f3e7099b43f01003efe72d2bead099
:1000b000302bd9d1099b43f00203e7e72b681a1dc7
:1000c0001b682a600130002b05900b9305da099a12
:1000d0005b4282f0010209920b93099bda0744bf4d
:1000e00023f002030993059b1a782e2a0dd10022d2
:1000f000581c0a9205905a782a2a25d10233059372
:100100002b681a1d1b682a600a9305a813f0bafe13
:10011000059b0390187817f050fa6928039979d055
:1001200032dc632800f0cb8019dc252800f0d98070
:10013000612853d000234ff0ff32cdf8148009938b
:100140000b930a920093d4e012f0d7ff0a90059b1c
:100150001a78303a092ad8d801330593f7e764288a
:1001600058d06728e6dc2a4606a815f018fd0028b6
:1001700000f0a180059b5a1c05921b7806aa09a9cc
:100180003046fdf7fdfc38e0702873d015dc6e2892
:1001900000f08c806f28cdd12b46002206a80cf0f1
:1001a000b1fc002800f08780059b06aa013309a94d
:1001b0003046059310f03bf81fe075283ad07828b8
:1001c00048d07328b6d1802975d1059b2a680133a0
:1001d0000593131d2b60126800237de02a4606a8b4
:1001e00015f0ddfc002866d0059b5a1c05921b7893
:1001f00006aa09a93046fdf723ff04443c44a74260
:100200007add3e4b4f221a604ff0ff3738462eb052
:10021000bde8f0812b46012206a80cf073fc0028f3
:1002200049d0059b06aa013309a9304605930cf075
:1002300011fee2e72b46002206a80cf063fc002822
:1002400039d0059b06aa013309a93046059311f060
:1002500041fdd2e72b46002206a80cf053fc50b318
:10026000059b5a1c05921b7806aa09a9304607f07f
:1002700053fec2e72b460022f02106a80cf042fcf8
:10028000c8b1059b01330593dde9062313430bd168
:100290001b4816f0e9fd099b009319490b9b024688
:1002a00030460ef0bdfda8e77823dde72b463a196e
:1002b00006a80ff0e9fa059b013305939ee7802914
:1002c000f9d1059b013305932b681a1d1b682a6021
:1002d0008df8183006aa012309a9304611f0cefc8a
:1002e0008be78029e7d1059b01330593099b009398
:1002f0000b9b04490122d3e7274688e6eca900209e
:080300009078020196780201d9
:020000040000fa
:020000040101f8
:1003080080b582b000af0346fb71fb79002b02d0a9
:10031800012b03d005e0f4f7cdfb02e0fef71dfe4c
:1003280000bf002318460837bd4680bd80b582b09f
:1003380000af03463960fb71fb79002b02d0012b1b
:1003480003d005e0f4f7fefb02e0fef71ffe00bf56
:1003580000bf0837bd4680bd80b582b000af786069
:10036800084611461a460346fb700b46bb701346f7
:100378007b70fb78002b02d0012b22d02be07b78fe
:10038800012b1cd8032200210120f6f7f7f80246ba
:100398007b681a607b681b68002b22d07b78012b56
:1003a8001fd17b681868002300220021f6f798f90e
:1003b8000346012b01d101231be0002319e0002390
:1003c80017e0bb787a7811461846f6f76af90246bc
:1003d8007b681a6006e07b6800221a604ff0ff33e2
:1003e80007e000bf7b681b68002b01d1002300e0f9
:1003f800012318460837bd4680bd80b582b000afde
:1004080078607b681b681846f6f7edfd7b6800226c
:100418001a60012318460837bd4680bd80b584b0f0
:1004280000af786039600023fb603b68b3f1ff3fa1
:1004380003d14ff0ff33fb6001e03b68fb607b6852
:100448001b68f9681846f6f79bfb0346012b01d198
:10045800012300e0002318461037bd4680bd80b553
:1004680082b000af78607b68186800230022002102
:10047800f6f736f90346012b01d1012300e00023ea
:1004880018460837bd4680bd80b584b000af786097
:100498000023fb607b681b6807f10c0211461846b5
:1004a800f6f75ffa0346002b0cd0fb68002b07d049
:1004b800074b4ff080521a60bff34f8fbff36f8f17
:1004c800012300e0002318461037bd4680bd00bf59
:1004d80004ed00e080b584b000af78607b681b68ed
:1004e8001846f6f74bfdf860fb68ff2b01d9ff2390
:1004f800fb60fb68dbb218461037bd4680bd80b58f
:1005080082b000af78607b681b68002b01d00023a5
:1005180006e00120f6f7adf802467b681a60012371
:1005280018460837bd4680bd80b582b000af7860f8
:100538007b681b68002b01d1002308e07b681b68df
:100548001846f6f750fd7b6800221a60012318460a
:100558000837bd4680bd80b584b000af786039608b
:100568000023fb603b68b3f1ff3f03d14ff0ff333b
:10057800fb6001e03b68fb607b681b68f968184614
:10058800f6f7fefa0346012b01d1012300e0002310
:1005980018461037bd4680bd80b582b000af786080
:1005a8007b681868002300220021f6f799f80346b3
:1005b800012b01d1012300e0002318460837bd466e
:1005c80080bd80b582b000af78607868fef7d6f954
:1005d800034618460837bd4680bd80b582b000afd7
:1005e80078607868fef768fa00bf0837bd4680bdb6
:1005f80080b400af01231846bd465df8047b704700
:020000040000fa
:020000040101f8
:100608000c4b13f0ff0f08d04ff0200383f3118831
:10061800bff36f8fbff34f8ffee7074a934208d0af
:100628004ff0200383f31188bff36f8fbff34f8f11
:10063800fee770470000000100000001014b186050
:10064800704700bffca8002030b4184c1546184a63
:100658000c4404eb4030541e844208d24ff020036f
:1006680083f31188bff36f8fbff34f8ffee71c181a
:10067800a24208d24ff0200383f31188bff36f8f93
:10068800bff34f8ffee71944b1f5005f08dd4ff067
:10069800200383f31188bff36f8fbff34f8ffee7fb
:1006a80001461a46284630bc16f0c6ba00000001ba
:1006b80000400001f8b5304d0d4405eb40351746b4
:1006c8002a071c4608d04ff0200383f31188bff394
:1006d8006f8fbff34f8ffee743b94ff0200383f3cb
:1006e8001188bff36f8fbff34f8ffee7234b5a1e5e
:1006f800aa4208d24ff0200383f31188bff36f8f0b
:10070800bff34f8ffee76219934208d24ff02003e0
:1007180083f31188bff36f8fbff34f8ffee7214438
:10072800b1f5005f08dd4ff0200383f31188bff3b4
:100738006f8fbff34f8ffee7114b1b6803b19847cc
:1007480023071ebf24f00f0310339cb24ff6f0733b
:100758002340fe18ed1bbe4204d1fff725fa0028fe
:10076800fbd1f8bdfff720fa0028fbd179193846ec
:10077800fff7c0f91037eee7000000010040000164
:10078800fca8002010b5124c124b04eb4034a342d5
:1007980014d3fff709fa0028fbd12046fff7eaf93e
:1007a80004f58054fff700fa0028fbd12046fff734
:1007b800e1f9fff7f9f90028fbd110bd4ff020034c
:1007c80083f31188bff36f8fbff34f8ffee700bf2e
:1007d80000000001ff3f000137b542b94ff0200388
:1007e80083f31188bff36f8fbff34f8ffee71f4c62
:1007f8000c4404eb40341e48431ea34208d24ff079
:10080800200383f31188bff36f8fbff34f8ffee789
:100818001319984208d24ff0200383f31188bff3cd
:100828006f8fbff34f8ffee71144b1f5005f08dd0e
:100838004ff0200383f31188bff36f8fbff34f8fff
:10084800fee74ff0ff3201929db204220deb020148
:10085800204616f0e3f930b90434a3b29d42f4d12e
:10086800012003b030bd0020fbe700bf00000001fd
:100878000040000138b5154643b94ff0200383f313
:100888001188bff36f8fbff34f8ffee7184c194adb
:100898000c4404eb4030541e844208d24ff020032d
:1008a80083f31188bff36f8fbff34f8ffee71c18d8
:1008b800a24208d24ff0200383f31188bff36f8f51
:1008c800bff34f8ffee7ca18b2f5005f08dd4ff09f
:1008d800200383f31188bff36f8fbff34f8ffee7b9
:1008e8001a46294616f09af9b0fa80f0400938bd40
:0808f8000000000100400001b6
:020000040000fa
:020000040101f8
:1009000080b485b000af78600023fb6015e010492b
:10091000fa6813465b0013449b000b441b687a681b
:100920009a4207d1fa6813465b0013449b00084ab9
:10093000134406e0fb680133fb60fb68072be6dd30
:10094000002318461437bd465df8047b704700bf8e
:1009500098a5002080b485b000af78607b68fb600c
:1009600015e01049fa6813465b0013449b000b44e2
:100970001b6813f1020f07d0fa6813465b0013449b
:100980009b00084a134406e0fb680133fb60fb68e8
:10099000072be6dd002318461437bd465df8047bbf
:1009a000704700bf98a5002080b483b000af786086
:1009b0007b6813f1ae0f02d16ff487737b607b68a5
:1009c00018460c37bd465df8047b704780b483b091
:1009d00000af00237b600ce00a497a6813465b0095
:1009e00013449b000b446ff001021a607b680133d3
:1009f0007b607b68072befdd00bf0c37bd465df8e1
:100a0000047b704798a5002080b584b000af786063
:100a10006ff00103fb607868fff79cffb860bb686c
:100a2000002b02d0bb681b68fb60fb6818461037c0
:100a3000bd4680bd80b586b000aff860b9607a6011
:100a4000f868fff75dff78617b69002b04d16ff0d8
:100a50000100fff755ff78617b69002b02d16ff031
:100a6000830309e07b69fa681a607b69ba685a6097
:100a70007b697a689a60002318461837bd4680bda6
:100a800080b584b000af78607868fff739fff86010
:100a9000fb68002b08d00c220021f86816f0bafb86
:100aa000fb686ff001021a6000bf1037bd4680bdc1
:100ab00080b58eb000aff860b9607a603b606ff4cb
:100ac00087737b63fb68002b07d0fb68d3f8183172
:100ad0001846fff715ff386303e00020fff73affe1
:100ae00038633b6b002b22d03b6b5b68002b1ed026
:100af00007f114031c220021184616f08bfb022379
:100b00007b610223bb610123fb61fb683b62bb6825
:100b10007b627b68bb623b68fb623b6b5b683a6bea
:100b200010683a6b926807f1140198477863786b04
:100b3000fff73aff034618463837bd4680bd80b5fb
:100b40008eb000aff860b9607a603b606ff4877375
:100b50007b63fb68002b07d0fb68d3f8183118467d
:100b6000fff7cefe386303e00020fff7f3fe3863a3
:100b70003b6b002b22d03b6b5b68002b1ed007f138
:100b800014031c220021184616f044fb02237b614b
:100b90000223bb610023fb61fb683b62bb687b6295
:100ba0007b68bb623b68fb623b6b5b683a6b1068bf
:100bb0003a6b926807f1140198477863786bfff7f6
:100bc000f3fe034618463837bd4680bd80b483b077
:100bd00000af6ff001037b607b6818460c37bd46a1
:080be0005df8047b704700bfc3
:020000040000fa
:020000040101f8
:100be8002de9f04f89b00023074601930e4629b935
:100bf8004ff00008404609b0bde8f08fd0f84490a7
:100c08004c6ca1458bbfb9fbf4f3b4fbf9f304fbbf
:100c1800139309fb13438bb12146484616f051f84c
:100c2800b0fbf9f3dbb2092b019304d9b0fbf4f064
:100c3800c0b20928dcd84ff0020801e04ff00108e3
:100c4800fb7ad7f860b0356e726eb6f87010012b6b
:100c580002bffb6babeb0303c3f3160af37a18bfaf
:100c6800da46012b08bff06bb6f8763004bf2d1ab0
:100c7800c5f31605b8f1010f67d1aaeb05004602c6
:100c88001ed520468b4c0093cde9012114f000febf
:100c98002668dff824c2348976890299344440f200
:100ca8003916b4fbf6f4a5eb0a06e443044406ea55
:100cb8000c06b442dde900329cbf2d1a05ea0c058a
:100cc80040f2391cb3fbfcf47b6edff8ec91b7f80b
:100cd8007660b6fbfcf62a44534402ea090203eaaa
:100ce80009030134013614441e44b1fbfcf2b7f881
:100cf8007000b0fbfcf00132013004ea090406ea96
:100d08000906aa1aaaeb0000234602ea090231469c
:100d180000ea090016f0b4fa00283ff469af331b63
:100d28005d024cbfa4eb0a0aa6eb0a0a0bf1030406
:100d380097f84f300aea0909a144c9f3160443f0a9
:100d480002033c6687f84f3054e75b48ac1840f222
:100d5800391c0440b3fbfcf30133234403400393e1
:100d6800544bb1fbfcf101311b680093691a014037
:100d780012234ff0000802910493c246019b534589
:100d88007ff638af049b013b13f0ff0304933ff455
:100d98002faf3b6e059309fb0af014f079fd059b14
:100da800b7f870101844444b40f2391200ea030bac
:100db800b1fbf2f1786e0131abeb010119405844f7
:100dc80006911840b7f87610b1fbf2f101310144f1
:100dd800194000bfa4eb0b0040020fd50098b0f8f3
:100de8000ac0b0f808e00eeb0c00abeb040cb0fb4b
:100df800f2f00cea030c0130604535d3dde902233b
:100e0800069816f03dfa00284ed0009b009a1b89e0
:100e18005289059840f239111344274ab3fbf1f37c
:100e2800013323441340a3eb0b03134000f1030bde
:100e38005b443b66356eb6f87030746eb3fbf1f305
:100e48000133eb1a13402c4402931440b6f8763061
:100e5800b3fbf1f10131214401ea020303934ff09e
:100e6800000a4ff0010889e7706c079114f010fd33
:100e7800114b746e05441d4040f23912b6f87000eb
:100e8800b0fbf2f00130281a2c4400ea03011c40a0
:100e9800b6f87600b0fbf2f001302044029100ea87
:100ea80003010391079995e70af1010a5ffa8afaa3
:0c0eb80064e700bf98a90020ffff7f0046
:020000040000fa
:020000040101f8
:100ec40080b487b000af0346b9607a60fb73fb7be4
:100ed4005b00bb75bb68002b3fd07b68002b3cd00c
:100ee4000023fb7534e0fb7d5b087b757b7dba6872
:100ef40013441b7803f00f033b753b7d092b0ad881
:100f0400ba7dfb7dd31a013b7a6813443a7d3032b3
:100f1400d2b21a700fe03b7d092b0cd93b7d0f2b0d
:100f240009d8ba7dfb7dd31a013b7a6813443a7d14
:100f34003732d2b21a707b7dba6813441a787b7d3b
:100f4400b9680b441209d2b21a70fb7d0133fb75e8
:100f5400fa7dbb7d9a42c6d300e000bf1c37bd4674
:100f64005df8047b704780b58eb000af78607b6815
:100f74001b78162b54d801a252f823f02510010136
:100f8400251001012510010125100101dd0f0101ca
:100f94002510010125100101251001012510010171
:100fa4002510010125100101251001012510010161
:100fb4002510010125100101251001012510010151
:100fc40025100101251001011b100101251001014b
:100fd40025100101251001017a6807f10d03033280
:100fe400116819609188927999809a7107f10c03bc
:100ff40002330e4a19460620fff762ff02210c480d
:10100400f8f727fc0c210948f8f723fc02210948ca
:10101400f8f71ffc05e011210748f8f71afc00e077
:1010240000bf00bf3837bd4680bd00bf00000020b0
:101034002c6a0201306a0201346a020180b483b06e
:1010440000af78607b681b78062b11d801a252f898
:1010540023f000bf75100101751001017510010125
:101064007510010175100101751001017510010160
:1010740000bf00bf0c37bd465df8047b704780b5e8
:1010840082b000af78607b681b78142b32d801a241
:1010940052f823f0f9100101f9100101f9100101ce
:1010a400f9100101f9100101f9100101f910010110
:1010b400f9100101f9100101f9100101f910010100
:1010c400f9100101f9100101f9100101f9100101f0
:1010d400f9100101f9100101f9100101ed100101ec
:1010e400f9100101f91001017b685b681846fff7ec
:1010f40076fa00e000bf00bf0837bd4680bd80b46b
:1011040083b000af78607b681b780a2b18d801a2e3
:1011140052f823f045110101451101014511010166
:10112400451101014511010145110101451101015b
:10113400451101014511010145110101451101014b
:1011440000bf00bf0c37bd465df8047b704780b418
:1011540083b000af78607b681b78082b14d801a299
:1011640052f823f08d1101018d1101018d1101013e
:101174008d1101018d1101018d1101018d110101eb
:101184008d1101018d11010100bf00bf0c37bd4657
:081194005df8047b704700bf09
:020000040000fa
:020000040101f8
:10119c002de9f04f099f154604468e461e46002b3e
:1011ac0040f0cc808a42b2fa82fc4cd9bcf1000fe0
:1011bc000bd0ccf1200801fa0cfe20fa08f802fa48
:1011cc000cf548ea0e0e00fa0cf44fea15491ffa1a
:1011dc0085f8befbf9fa210c09fb1ae30afb08fba4
:1011ec0041ea03439b452ad9eb180af1ff3004d29c
:1011fc009b4502d9aaf102002b44a3eb0b03a4b22a
:10120c00b3fbf9f209fb123302fb08f844ea03447e
:10121c00a04516d92c1902f1ff3303d2a04501d9f0
:10122c00931e2c44a4eb080443ea004027b124fa93
:10123c000cf400233c607b603146bde8f08f5046d7
:10124c00dbe71346eee702b9ffdebcf1000f2ed14f
:10125c008b1a01264fea154eaab2b3fbfef8210ced
:10126c000efb183308fb02f941ea0343994561d997
:10127c00eb1808f1ff3004d2994502d9a8f102000d
:10128c002b44a3eb0903a4b2b3fbfef10efb113309
:10129c004a4344ea0344a2424ed92c1901f1ff33cc
:1012ac0003d2a24201d98b1e2c44a41abce7ccf168
:1012bc00200e02fa0cf521fa0ef901fa0cf320fac1
:1012cc000efe4eea03034fea154800fa0cf4b9fb84
:1012dc00f8f11ffa85fe08fb1192180c01fb0ef6b3
:1012ec0040ea0242964221d9aa1801f1ff3003d2fa
:1012fc00964201d9881e2a44921b9bb2b2fbf8f984
:10130c0008fb192209fb0efe43ea02439e450fd946
:10131c00eb1809f1ff3604d29e4502d9a9f1020659
:10132c002b44a3eb0e0346ea004693e70846e3e79b
:10133c004e46f6e74046a4e70b46b6e78b4206d985
:10134c00002f7ed00026c7e90001304674e7b3fabf
:10135c0083fcbcf1000f0fd18b4201d3824209d820
:10136c00841a61eb030e0120002f6dd0c7e9004eeb
:10137c00002661e76046f7e7ccf1200e03fa0cf388
:10138c0022fa0ef521fa0ef41d4301fa0cf320faa1
:10139c000ef10b434fea154a00fa0cf6b4fbfaf9be
:1013ac001ffa85f80afb19401c0c09fb08f144eaea
:1013bc000044a14202fa0cf23fd92c1909f1ff307a
:1013cc0004d2a14202d9a9f102002c44641a9bb2a6
:1013dc00b4fbfaf90afb194409fb08f843ea044187
:1013ec0088452cd9691809f1ff3304d2884502d9f4
:1013fc00a9f10203294443ea0040a1eb0801a0fb38
:10140c0002894945c2464c4602d306d1464504d210
:10141c00b8eb020a69eb05040138afb1b6eb0a036d
:10142c0061eb040606fa0efe23fa0cf34eea0303f4
:10143c0026fa0cf6c7e900369ae74846c6e74b464b
:0c144c00d9e73e463846f7e63e46f5e696
:020000040000fa
:020000040101f8
:101458002de9f04f054685b041208b46904616f0a1
:1014680057fa044650b9a54b009302460423c221fb
:10147800ee2008f071fa05b0bde8f08feb78c21dd8
:1014880005f1040a039205f10b0900f1110600f1b8
:101498002107002b40f0b280daf800300360baf878
:1014a800043083809af806308371d9f80030c0f888
:1014b8000730b9f80430938099f806309371904b4f
:1014c8001b681a7882735a79c2735b780374bbf10c
:1014d800000f00f08d80dbf80030c0f81130dbf829
:1014e80004307360dbf80830b360dbf80c30f3606d
:1014f800aa6d02f5c07204f1310b1368c4f82130eb
:1015080053687b609368bb60d368fb60aa6d02f583
:10151800e07221461368c4f831305368cbf80430c0
:101528009368cbf80830d368cbf80c30a86d41220b
:1015380000f5e873063002f06ffcd9f8003023603c
:10154800b9f80430a38099f80630a371daf80030ae
:10155800c4f80730baf80430a4f80b30e21d9af842
:1015680006309371ab6d93f8e430a373ab6d93f8c9
:10157800e530e373ab6d93f8e6302374b8f1000ff0
:1015880000f0b580d8f80030c4f81130d8f804302d
:101598007360d8f80830b360d8f80c30f360aa6ddf
:1015a80002f5e07221461368c4f8213053687b6065
:1015b8009368bb60d368fb60aa6d02f5c0721368bc
:1015c800c4f831305368cbf804309368cbf808304e
:1015d800d368cbf80c30a86d412200f5c8730630eb
:1015e80002f01afc204605b0bde8f04f16f092b99b
:1015f80010225946304615f009fe79e7d9f800302f
:101608000360b9f80430838099f806308371daf8fa
:101618000030c0f80730baf80430a0f80b30c21d0b
:101628009af806309371ab6d93f8e4308373ab6d21
:1016380093f8e530c373ab6d93f8e6300374bbf1f0
:10164800000f4ed0dbf80030c0f81130dbf8043062
:101658007360dbf80830b360dbf80c30f360aa6d18
:1016680002f5c07204f1310b1368c4f821305368d5
:101678007b609368bb60d368fb60aa6d02f5e0727b
:1016880021461368c4f831305368cbf804309368a6
:10169800cbf80830d368cbf80c30a86d412200f5a0
:1016a800e873063002f0b8fbdaf800302360baf8c5
:1016b8000430a3809af80630a371d9f80030c4f832
:1016c8000730b9f80430a4f80b30e21d99f8063059
:1016d80093710b4b1b681a78a2735a79e2735b7883
:1016e8004be710225946304615f090fdb7e7102217
:1016f8004146304615f08afd51e700bf4c710201a2
:04170800a4a9002070
:020000040000fa
:020000040101f8
:10170c0080b485b000af78607b6803f00703fb60a2
:10171c000c4bdb68bb60ba684ff6ff031340bb6031
:10172c00fb681a02bb68134343f0bf6343f40033f6
:10173c00bb60044abb68d36000bf1437bd465df87c
:10174c00047b704700ed00e080b483b000af03462b
:10175c00fb7197f90730002b0bdbfb7903f01f02b1
:10176c00074997f907305b09012000fa02f241f8aa
:10177c00232000bf0c37bd465df8047b704700bfcb
:10178c0000e100e080b483b000af0346fb7197f931
:10179c000730002b0ddb0a4a97f907305b0952f82a
:1017ac002320fb7903f01f0322fa03f303f0010358
:1017bc0000e0002318460c37bd465df8047b7047eb
:1017cc0000e100e080b483b000af0346fb7197f9f1
:1017dc000730002b10dbfb7903f01f02094997f946
:1017ec0007305b09012000fa02f2203341f8232074
:1017fc00bff34f8fbff36f8f00bf0c37bd465df843
:10180c00047b704700e100e080b483b000af034676
:10181c003960fb7197f90730002b0adb3b68dab2b1
:10182c000c4997f907305201d2b20b4483f80023cc
:10183c000ae03b68dab20849fb7903f00f03043b7a
:10184c005201d2b20b441a7600bf0c37bd465df87c
:10185c00047b704700e100e000ed00e080b500afd4
:10186c000020fff74dffbff35f8f62b607214ff0eb
:10187c00ff30fff7c9ff07210320fff7c5ff032047
:10188c00fff762ff07210c20fff7beff0c20fff7cc
:10189c005bff0d4b5b6a0c4a43f4802353620a4b8b
:1018ac005b69094a43f010035361074b5b6a064ab4
:1018bc0043f400335362044b5b6a034a43f48033b2
:1018cc00536200bf80bd00bf00ed00e080b400afec
:1018dc00bff35f8f62b600bfbd465df8047b7047f7
:1018ec0080b483b000afeff310833b603b68002bf8
:1018fc000cbf01230023fb7172b6bff35f8ffb7922
:10190c0018460c37bd465df8047b704780b483b035
:10191c0000af0346fb71fb79002b03d0bff35f8f45
:10192c0062b602e072b6bff35f8f00bf0c37bd46e4
:10193c005df8047b704780b584b000af0346fb7143
:10194c00fff7ceff0346fb7397f907301846fff7f6
:10195c0019ff0346002b14bf01230023bb7397f917
:10196c0007301846fff72efffb7b1846fff7ceff1c
:10197c00bb7b18461037bd4680bd80b582b000af2a
:10198c0003460a46fb711346bb71bb79002b05d08d
:10199c0097f907301846fff7d7fe00bf00bf08378e
:0419ac00bd4680bdf7
:020000040000fa
:020000040101f8
:1019b0002de9f84f9f4e9046336800f1a6020d4680
:1019c00053f822203ab192f84d20022a03d1bde803
:1019d000f84f14f0fdbf002840f08f8093f8943248
:1019e0007bb1dff854820c27336803ebc703d3f8cd
:1019f000c43143b9336893f8943213b117f1ff3708
:101a0000f2d2bde8f88f9c68d3f80090637ad8f8da
:101a10000020012b13684fd143f002031360a37b16
:101a20005bb1d8f80020136823f0040313605dbb9a
:101a30002046bde8f84f03f0adbe236ca3421bd196
:101a400020460cf047fea37b002bead1d8f80020fb
:101a5000136843f004031360a36c33b194f850305f
:101a6000db07204622d50df0e1fb336893f8943272
:101a7000002bc6d04b46bce794f85030da07e5d5ca
:101a8000204603f053ffdee7ac42d1d095f84d304d
:101a9000012bcdd128460df0c9fbab6a13b1284606
:101aa00013f098fd28460af069fcc1e70df0befb73
:101ab00020460af063fcd8e743f480431360e36deb
:101ac00033f47f430ad020460df0b0fba36a13b174
:101ad000204613f07ffd20460af050fc94f85c305d
:101ae000002bc2d1b4f85e30013b9bb2a4f85e304b
:101af000002bbad101236372b7e793f89532002b1c
:101b00003ff47faf0c27336803ebc703d3f82c32c5
:101b10004bb9336893f89532002b3ff472af17f14d
:101b2000ff37f0d26de79c68d3f80090637a012b01
:101b30005ad194f84f30580714d4dff8fca0daf8e3
:101b40000020536843f002035360236ca342d34642
:101b500012d1a36c0bb1637f53b94146204608f004
:101b600011fd09e015f086fd0028e6d04b46cfe7d1
:101b700094f85030d907f0d4a37bc3b1dbf8002030
:101b8000536823f004035360002d3ff451afa54286
:101b90003ff44eaf95f84d30012b7ff449af95f8e7
:101ba0005030da077ff576af0023ab7340e7daf801
:101bb0000020536843f004035360a36c73b194f89e
:101bc0005030db070ad420460df030fba36a13b176
:101bd000204613f0fffc20460af0d0fb336893f850
:101be0009532002bc2d10ce7134b1a68536843f4ab
:101bf00080435360e36d33f47f430ad020460df0f9
:101c000015fba36a13b1204613f0e4fc20460af04a
:101c1000b5fb94f85c30002be0d1b4f85e30002bbb
:101c2000dcd0013b9bb2a4f85e30002bd6d101235f
:0c1c30006372d3e794a9002098a900205b
:020000040000fa
:020000040101f8
:101c3c002de9f04f8fb00025072906468df80b5083
:101c4c0001d0152942d10132a1f1050903a804a93b
:101c5c0004921ffa89f915f018f904a90df10e0078
:101c6c0015f013f94a4604a90aa815f005fabdf8af
:101c7c000c40002c00f0f580bdf80e30a342c0f0f3
:101c8c00f480747ae00739d406ab01935ffa89f9d2
:101c9c0005ab00934a460aabbdf80e10bdf80c001c
:101cac000cf05cfa0446002800f0e280059b3088ba
:101cbc00da7b01210af076ff1ffa80f8b8f1000fe9
:101ccc004cd0adf80c400024254604e0adf80c5087
:101cdc002c464ff004089df80b3063b9b8f1000f97
:101cec0040f0d0802a462146304614f07afe10b1de
:101cfc00284615f0fbfd0fb0bde8f08fb37ad9077d
:101d0c00c2d514f00c0f10d0002474724ff48270f2
:101d1c0015f0fcfd0028b7d01022027032888280aa
:101d2c008471042114f0daf8aee75b4bb9f1020fc1
:101d3c001b88adf81c3009d14a4607a90aa814f033
:101d4c006bff18b944f0080474729de744f0040466
:101d5c00002574724ff012082c46bce7059b9a7b49
:101d6c00920769d49df80b30002bacd1b08815f0dc
:101d7c009dfd054600287fd0059b9b68b3f800b0fd
:101d8c000bf1020a00f11003092104a81ffa8afac8
:101d9c00049315f0a5fc5ffa8af104a815f0a0fcd9
:101dac00214604a815f0a2fc059b9a685968128874
:101dbc0004a815f06bf90bf1040b2746069ad18990
:101dcc004ff6ff7291421ffa8bf484d0b28804eb69
:101ddc000a0b93453ff77faf06ab781c019305ab1d
:101dec0080b200934a460aabbdf80e10adf80c0059
:101dfc000cf0b4f90746002842d0059a917b8b076a
:101e0c003ff569af91680988023151457ff463afa2
:101e1c00d27b308801210af0c5fe00287ff45baf2d
:101e2c00394604a815f062fc05998a68496812883d
:101e3c0004a815f02bf9c1e707933388adf82030cf
:101e4c000df10b01082307a8adf82240adf8248052
:101e5c008df826300ef04efd002883d04446804687
:101e6c0032e725464ff0010835e700252c46f9e707
:101e7c0005464ff00a082ee704464ff011082ae7f2
:101e8c00804628e75ffa88f3bdf80c20082130461d
:0c1e9c000bf046fb2fe700bfd22701012e
:020000040000fa
:020000040101f8
:101ea80080b584b000af78607b685b881846f8f727
:101eb800d7feb860bb68002b04d0bb689a7f7b68ec
:101ec8001a7102e07b6808221a710023fb730ee086
:101ed800fb7b0b4a52f82330002b05d0fb7b084aca
:101ee80052f8233078689847fb7b0133fb73054b26
:101ef8001b78fa7b9a42ebd300bf1037bd4680bdf2
:101f0800100000200c00002080b500af0948fbf746
:101f180021fef9f70dfdf8f703ff034683f00103ef
:101f2800dbb2002b01d0002302e0faf7c1f8034628
:101f3800184680bd51b9000180b483b000af786005
:101f48000c4b1b78012b01d904230de0094b1b789e
:101f58001946094a7b6842f82130064b1b78013341
:101f6800dab2044b1a70002318460c37bd465df8e8
:101f7800047b70470c0000201000002080b582b060
:101f880000af78607868f8f7fdfe7868f9f7d5fb58
:101f98007868faf762fa00bf0837bd4680bd80b599
:101fa80084b000af78607b689b7a1846f9f74ffcdd
:101fb8000346fb81fb89002b01d0fb8904e07b6889
:101fc8001846faf765fa034618461037bd4680bd2d
:101fd80080b582b000af03460a46fb8013467b718a
:101fe8007a79fb8811461846f9f742fc03461846e9
:101ff8000837bd4680bd80b582b000af0346396062
:10200800fb71fb7939681846f8f786ff03461846ce
:102018000837bd4680bd80b582b000af78603960b2
:1020280039687868f8f7faff034618460837bd4656
:1020380080bd80b584b000af0346b9607a60fb7399
:10204800fb7b7a68b9681846f9f72ef803461846f4
:102058001037bd4680bd80b582b000af0346fb7126
:10206800fb791846fbf70cfd034618460837bd46b2
:1020780080bd80b582b000af03463960fb71fb7943
:1020880039681846fbf7aafb034618460837bd46c9
:1020980080bd80b500affbf70ffd0346184680bd35
:1020a80080b584b000af786039603b6800221a7050
:1020b8000023fb7316e0fb7b1846fbf71bfd03466a
:1020c800002b0cd03b681b781a467b681344fa7bbc
:1020d8001a703b681b780133dab23b681a70fb7bd5
:1020e8000133fb73fb7b072be5d900bf1037bd46d7
:0420f80080bd00bfe8
:020000040000fa
:020000040101f8
:1020fc002de9f04f0d4689b008210446914612f0a7
:10210c0015fe8046002875d104f1540007f03afb07
:10211c00032d6fd999f80170023dadb21ffa87fb00
:10212c00ab4567d894f84430f02b09f1020919d16a
:10213c00204614f0f7fd4ff4827015f0e7fb0646cd
:10214c00002857d00523037023888380877105816d
:10215c002a4649460a3014f06dfd0421304613f02e
:10216c00bdfe47e0f52b40f09c80b5fbf7f64ff633
:10217c00ff7307fb1656adf80630002e40f0898031
:10218c00284615f0c3fb8046002840f08080e28f83
:10219c00bdf806309a4211d84ff4827015f0b6fb98
:1021ac0060b1228882800f2202700022827102812b
:1021bc00012280f8ff20042113f090feb8f1000feb
:1021cc0061d1bdf80630e28f9a4266d901339bb2d9
:1021dc00a387adf8083042f6030102230df10d0080
:1021ec00adf80a208df80c3015f094fb02a92046ae
:1021fc000bf006fe09b0bde8f08fabf105020af159
:10220c00050192b2494402a815f088fb0af10301ba
:10221c0049440df1060015f05dfa7a1f216c02a8f5
:10222c0014f0fafc40b908eb06003a4609eb0a0137
:10223c0014f000fd5e44b6b2da441ffa8afa0aebd7
:10224c0007039d42d9da002ea1d04ff4827015f00d
:10225c005dfb0546b8b1238883800f23037087711b
:10226c000681324641460a3014f0e4fce38fbdf897
:10227c00062093428cbf0023012385f8ff300421f4
:10228c00284613f02bfe404615f042fb99e7b24668
:10229c00d5e7e38fadf8063079e7204614f042fd20
:1022ac00a8e7f12ba6d1b5fbf7f307fb1353002bd3
:1022bc0038d1e91b49440df1060015f00bfae28ff9
:1022cc00bdf80630511e8b4232d201339bb2a3872c
:1022dc00adf8083042f6030102230df10d00adf804
:1022ec000a208df80c3015f015fb02a920460bf0d6
:1022fc0087fd4ff000084ff4827015f007fb06467f
:10230c0000283ff477af0323037023888380877101
:10231c00058125b12a4649460a3014f08bfc86f813
:10232c00ff801ae7e38fadf8063045464746c6e70f
:10233c000023e36384f844304ff00108dbe700bf6f
:020000040000fa
:020000040101f8
:10234c002de9f0430446c3788e4a806d617ca57af2
:10235c0095b004ae002b63d112688df820100121ca
:10236c0092f8009092f80580b2f801e0b0f8e470b1
:10237c00b0f82cc0d0f8e6208df8221002218df890
:10238c002150adf82a708df823908df82480adf88b
:10239c0025e0adf827c08df829100b9200f5c07719
:1023ac0008adfa5c595d4a40f2540133102bf8d158
:1023bc000caa31466f3009f08bf8e178231d04f13b
:1023cc000b02002940f08a8018689b88adf82430f5
:1023dc001368cdf826309388adf82a300b9108900d
:1023ec000cab08a910251a7811f8010b013d4240dd
:1023fc0015f0ff0503f8012bf5d1a06d10aa0ca95f
:10240c006f3009f065f8a76d102207f5b87110a8a8
:10241c0014f002fc90b3042120460bf081fd5ae02d
:10242c0013688df82110012193f800e093f805c092
:10243c00b3f80120d0f8e470838db0f8e8808df803
:10244c00221002218df82050cdf82370adf82e30db
:10245c00adf827808df829108df82ae08df82bc067
:10246c00adf82c20002300f5e07708adfa5c595d3f
:10247c004a40f2540133102bf8d199e707f5e0727a
:10248c00334610685168adf8045007f5c07203c3a9
:10249c001068516806ab03c307f17f02314607f1a0
:1024ac006f00cde9025509f013f8a16d20467f317c
:1024bc0010f0b6ff204606f081f8a36d20887f331c
:1024cc0001aa02a912f0f6ffa36d2a467f33294612
:1024dc0020460af0d7ff15b0bde8f083106892884b
:1024ec00adf824201a689b88adf82a300023cdf86b
:1024fc0026200b9308900caa08ab1025117813f822
:10250c00010b013d414015f0ff0502f8011bf5d10f
:10251c00a06d10aa0ca96f3008f0daffa76d10227d
:10252c0007f5d87110a814f077fb00287ff473af6f
:10253c0007f5e07233461068516807f5c07203c3a3
:10254c001068516806ab03c307f17f02314607f1ef
:10255c006f0008f0bdffa16d20467f3110f060ffc9
:10256c00a36d2a467f33294620460af08bffa16dc6
:10257c00204601f5c0710ff018fa204606f01ef83f
:08258c00a9e700bfa4a900208b
:020000040000fa
:020000040101f8
:1025940030b591ea030f00f18280841a71eb030cc9
:1025a40005d2121953eb0c03001b71eb0c0140f222
:1025b400000ccff6e07c1cea430f52d0bceb410f79
:1025c4005fd90c0da4eb135e5ff0010c6cf31f518b
:1025d4006cf31f53def1200c2ad303fa0cf54019d7
:1025e40041f1000122fa0ef5401923fa0ef5694172
:1025f40012fa0cf2cd0208d349085fea30005fea10
:10260400320228bf42f001020134013c5fea500c5f
:1026140072f1004250f1000051eb04514ff40013e9
:1026240013eb410f38bf30bd6ff31301002030bdf1
:10263400bef1200ebef1200f1ed223fa0ef5401972
:1026440041f10001cef1200c124218bf012203fa1d
:102654000cf52a43cee711ea5c0f04bf00200021e9
:1026640030bd1cea410f04bf01f00041002030bd21
:1026740001f00041002030bd21f4801101eb045130
:1026840030bd004218bf41f00101bceb410f08bf4f
:1026940030bd4ff0fe4141f47801002030bd83f09d
:1026a4000043841a71eb030e07d28ef0004e001b18
:1026b40071eb0e01121953eb0e0340f2000ccff62e
:1026c400e07c1cea430fc6d0bceb410f72d90c0d61
:1026d400a4eb135ec90241ea5051c00241f000412b
:1026e400db0243ea5253d20243f00043def1200cf2
:1026f40041d312fa0cf522fa0ef203fa0cf542ea6f
:10270400050218bf42f0010223fa0ef3801a994120
:10271400e30ac4f30a0411f0404f03d418d0013c77
:1027240040004941013c23d44205c00a40ea4150db
:10273400c90a51eac3715fea500c72f1004250f1c8
:10274400000051eb045130bd01002fd00020203c8b
:102754000029f9d0b1fa81fcdcf1200e11fa0cf158
:1027640030fa0ef510fa0cf02943a4eb0c04d9e767
:102774000020d90730bdaef1200ebef1200f0dd2de
:10278400cef1200c03fa0cf533fa0ef32a4318bfea
:1027940043f00103c01a61f10001b9e721f00041df
:1027a400c00a40ea4150c90a01eb045130bd00207f
:1027b400002130bd004218bf41f00101bceb410fc4
:0e27c4007ff467afbceb430f3ff463af30bd53
:020000040000fa
:020000040101f8
:0227d2002a2bb0
:020000040000fa
:020000040101f8
:1027d4002de9f04f05468fb00f460026bb5dab5583
:1027e4000136202efad13c464ff0000854f82c0f45
:1027f400cdf82080616809abcde9068803c3a068e1
:10280400e16803c306aa20691860114633461046de
:1028140013f045f906aa83462946284613f03ff9e2
:10282400ba4683445af8300fdaf8041009ab03c3ec
:10283400daf80800daf80c1006aa03c33346114686
:102844001046cdf8348013f02af95ffa8bfb8344e9
:1028540006aa2946284613f022f93b465ffa8bfb69
:10286400834453f8200f01935968cdf82c800df15f
:102874001809a9e803003a469868c9f8000052f814
:10288400380f049251680cabcde9098806aa03c33a
:1028940033462946284613f002f95ffa8bfb3a4681
:1028a4005844c3b252f8240f059351680292bb46b0
:1028b40006ab03c39068c9f800005bf8340fdbf87b
:1028c400041009ab03c3dbf80800186003937b6ba7
:1028d4000c933b6a0d9306aa33462946284613f007
:1028e400def8059b6168cdf82c801844c3b22068db
:1028f400059306ab03c33b6aa0680c93bb6ac9f893
:1029040000000d9306aa334629462846cde90988d6
:1029140012f047fe059bdaf80410181ac4b2daf86c
:10292400000006ab03c3daf80800daf80c1003c39e
:102934007b6a0c93fb6a0d9306aa33462946284604
:10294400cde90a8812f02dfedbf80410019a241a4e
:10295400dbf8000006ab03c3dbf808005168c9f8d4
:102964000000106809ab03c3039b906818603b6bbd
:102974000d9306aa334629462846cdf8308012f036
:1029840010fe049ae4b25168241a1068029a06ab45
:1029940003c310685168c9f8008009ab03c3039be3
:1029a400906818607b6b0d9306aa33462946284627
:1029b400cdf8308012f0f5fde4b2241a64b2444537
:1029c4000f4e10db34b920222946304613f077fb32
:1029d400012812d0202332462946284612f0e1fd70
:1029e400241a64b2eee7202332462946284613f01f
:1029f40056f8044464b2002cf5db0fb0bde8f08f48
:042a040026aa0020de
:020000040000fa
:020000040101f8
:102a08002de9f84353ec102bc3f30a51013940f276
:102a1800fd7081421d4600f2a78073a1d1e9000133
:102a280090429941c0f2b98071a1d1e9000199425f
:102a380008bf9042c0f08d806fa7d7e9006723f0e8
:102a480000418f4208bf964280f08a801f4605f0f9
:102a58000043164643f07f55002469a3d3e90023b9
:102a68003046394645f4001504f046fe22462b460a
:102a7800fff78cfd10f071f8044613f0e8fd62a32f
:102a8800d3e900238046894604f036fe32463b46a9
:102a9800fff77cfd5ea3d3e9002306460f464046b8
:102aa800494604f029fe02460b4630463946fff7f0
:102ab8006dfd02460b468046894604f01dfe56a36e
:102ac800d3e9002306460f4604f016fe54a3d3e9c3
:102ad8000023fff75bfd32463b4604f00dfe002263
:102ae8003b4bfff753fd42464b4604f005fe2ea331
:102af800d3e90023804689463046394604f0fcfd78
:102b08002ba3d3e90023fff741fd32463b4604f0ef
:102b1800f3fd424606460f464b4600202d4914f069
:102b2800affe02460b4630463946fff72ffd0246f8
:102b38000b464046494600f08ffa0022254bfff726
:102b480025fd013441ec100b20460ff08ffabde84b
:102b5800f883214b22221a609fed170bbde8f883fa
:102b68009fed170bbde8f88396181c4943eb030744
:102b78000020b94208bfb042e9d3194900208b426e
:102b880008bf8242e3d0174900208b4208bf824227
:102b98007ff45caf9fed080bd9e70f4b22221a6038
:102ba8009fed090bd3e700bf0938de6f993f403f1f
:102bb800b35142718e71ac3f00000000000000006c
:102bc800000000000000f03f000000000000f07f5f
:102bd8000000d03f0000e03feca900200000e0ff2b
:102be8000000f07f0000f0ffef39fafe422e864029
:102bf800d2bc7add2b2386c02242920ca19cc73b13
:102c08003cf92f9e2c15f73f000000000030e6bf6e
:102c1800a80c615c10d02b3f1cdc586fa452f13e0d
:082c2800e0f6b36fe4707c3f9d
:020000040000fa
:020000040101f8
:102c300080b483b000af78607b68002b02d16ff066
:102c4000ac0301e06ff0ad0318460c37bd465df8ec
:102c5000047b704780b485b000af78607b68002b40
:102c600002d16ff0ac0302e07b68fb6000231846e2
:102c70001437bd465df8047b704780b483b000af65
:102c8000786039607b68002b02d03b68002b02d152
:102c90006ff0ac0301e06ff0ad0318460c37bd4692
:102ca0005df8047b704780b485b000aff860b96010
:102cb0007a60fb68002b02d0bb68002b02d16ff05a
:102cc000ac0302e06ff0ad0300bf18461437bd46f9
:102cd0005df8047b704780b586b002aff860b960dc
:102ce0007a603b60fb68002b02d0bb68002b02d1ee
:102cf0006ff0ac0308e0bb6900933b687a68b96881
:102d0000f868fcf7f8fc034618461037bd4680bd4e
:102d100080b582b000af786039607b68002b02d04c
:102d20003b68002b02d16ff0ac0304e0396878688f
:102d3000fcf725fd034618460837bd4680bd80b523
:102d400084b000aff860b9607a603b60fb68002b2c
:102d500005d0bb68002b02d07b68002b02d16ff03e
:102d6000ac0306e03b687a68b968f868faf7e2f8fd
:102d7000034618461037bd4680bd80b584b000af0d
:102d8000f860b9607a603b60fb68002b05d0bb68d7
:102d9000002b02d07b68002b02d16ff0ac0306e061
:102da0003b687a68b968f868faf75ef9034618462e
:102db0001037bd4680bd80b584b000aff860b96003
:102dc0007a60fb68002b02d16ff0ac0305e07a68f3
:102dd000b968f868fcf7f5fc002318461037bd46c3
:102de00080bd80b584b000aff860b9607a60fb68e0
:102df000002b05d0bb68002b02d07b68002b02d1d2
:102e00006ff0ac0305e07a68b968f868fcf7e9fc94
:102e1000002318461037bd4680bd80b582b000af94
:102e2000786039603b68002b02d16ff0ac0305e09d
:102e300050220449386814f0b3fc002318460837c0
:082e4000bd4680bdc85b020124
:020000040000fa
:020000040101f8
:102e48002de9ff470478012c054600f0a0802cb13d
:102e5800032c00f0e48004b0bde8f0878478002cef
:102e6800f9d1794ed6f800a00af1100353f824706e
:102e78005ffa84f977bb882014f04afd04f104084e
:102e88004af82800336853f82800b0b18822394638
:102e980014f0bcf93368a400234417211a699180ff
:102ea8001b6983f8029033681c440122236983f864
:102eb80085202369df6423691f65336853f8284038
:102ec80064b9624b0093002204239221ee2006f09d
:102ed80043fdc0e70134082cc8d1f2e7ab88238052
:102ee800aa79e378002a31d143f02103584fe370df
:102ef8003a68d2f80080e37ab8f1000f29d1980037
:102f080043b114f005fde06020b13b6819684746fd
:102f180000293ad1b4f85c30a178216640f2014228
:102f280003f0f8031343a4f85c30b4f87430a167d5
:102f380003f0f8031a433368a4f87420db68002b05
:102f480089d0284604b0bde8f047184743f011037c
:102f5800cce798f810201344e372d8f80080cae749
:102f680088689b0030f822c0e06820f803c0e06859
:102f7800034401325f80d2b2087c02eb080390421e
:102f8800dbb2edd809689846c2e70022f4e7458825
:102f9800284612f0b9f9064650b9cde901542d4b2f
:102fa8000093024604239321ee2006f0d5fc52e755
:102fb800008814f0f0fa60b34ff4827014f0a8fca3
:102fc80040b11122027032888280b27a8271042163
:102fd80012f086ff4ff4827014f09afc0446c0b1d8
:102fe800f07a800014f094fc054690b11223237007
:102ff80033882381f37aa3726060f27af1689200d1
:1030080013f01afe2046042112f06aff284614f035
:1030180081fcb07804b0bde8f0470af0a1bc0379a0
:10302800002b7ff418af4588284612f06df9024648
:1030380028b9084b0093cde901540423b3e70123d1
:1030480080f8843007e700bfa8a90020382a0201c9
:0830580014a90020522a020114
:020000040000fa
:020000040101f8
:10306000f0b581ea030e0ef0004e40f20007cff6f5
:10307000e07717ea41051ebf95ea070f17ea4304f8
:1030800094ea070f00f0c5806d0da5eb545707f5c6
:1030900080674ff0004646eac12444ea5054c0021b
:1030a00046eac32343ea5253d202801a9c4104d217
:1030b0000018644180185c41013f5b084fea32020e
:1030c0000025002140f001004ff0070604e0801abf
:1030d0009c4136d340416441801a9c4136d34041e3
:1030e0006441801a9c4136d340416441801a9c411e
:1030f00036d340416441801a9c4136d340416441fb
:10310000013e17d0801a9c4136d340416441801a59
:103110009c4136d340416441801a9c4136d34041a2
:103120006441090201eb156190ea052520f0ff00da
:103130004540cce7801a9c4156d335e080185c416d
:10314000c8d20018644180185c41c8d2001864419c
:1031500080185c41c8d20018644180185c41c8d214
:103160000018644180185c41c8d200186441013ed7
:1031700017d080185c41c8d20018644180185c41a7
:10318000c8d20018644180185c41c8d2001864415c
:10319000090201eb156190ea052520f0ff0045408a
:1031a000cce780185c411fd3420918bf44f00104ea
:1031b000490101ebd56100f01f0000eb451021f43f
:1031c000801141ea0e01013041f10001244208bfa3
:1031d00020f00100b7f5006f3eda013f49dd01eb59
:1031e0000751bde8f0407047490101ebd56100f09f
:1031f0001f0000eb451021f4801141ea0e01b7f5e4
:10320000006f29da013f34dd01eb0751bde8f040e2
:103210007047004218bf41f00101124218bf43f04d
:103220000103b7eb410f2cbfb7eb430f1ce0b7eb2b
:10323000410f04bfb7eb430f16e017ea410f04bf7d
:1032400017ea430f10e017ea410f12d017ea430fb5
:1032500002d0b7eb430f0cd04ef0fe4141f47001a9
:103260000020bde8f04070474ff0fe4141f4780186
:06327000f6e77146f4e7e9
:020000040000fa
:020000040101f8
:02327600020054
:020000040000fa
:020000040101f8
:103278002de9f04fbbb0dff800a206921268019268
:103288008a6e1344019a12fa83f9031f029300f11c
:103298002c038b4609930026029b53f8047f029364
:1032a800002f64d07b6e0593fb7ad7f86080bbf85b
:1032b8007620b7f87040b7f87650012b04bffb6b47
:1032c800a8eb030840f23913b2fbf3f2b4fbf3f4b2
:1032d80002f1010204f1010414440392b5fbf3f571
:1032e800bbf87020b2fbf3f205f1010502f101020f
:1032f80015440492059a08bf08ea0a08424402eafb
:103308000a021544ba6ca8eb040404ea0a0405eaa4
:103318000a05002a61d13a6c97425ed1786c12f0a6
:10332800b7fa40f239130890079300bfa4eb0903da
:103338005b020bd484ea090313ea0a0f06d0182e9d
:1033480014d0099b029a9342a6d110e04b46019ae9
:103358002946204613f094ffe0b13aab03ebc603cd
:103368000136f6b2182e43e9304513d11826449b8e
:10337800721e1e700aa8002112f04efd00230a9842
:103388001a4644990978914237d8459a13703bb048
:10339800bde8f08f7b7f002bd1d0089bb7f8704039
:1033a800b7f876509844079bb4fbf3f4039b0134b9
:1033b8001c44079bb5fbf3f5049b01351d44059b95
:1033c80008ea0a08434403ea0a03a8eb04041d4474
:1033d80004ea0a0405ea0a05a8e74b46019a2946c1
:1033e800204613f04dff0028a9d03aab03ebc603e3
:1033f800013643e93045f6b2a1e75ab906990c6897
:10340800211a4d0206d5469901ebc301c1e90040d6
:103418000133dbb24499097801398a4202f1010487
:1034280013da3aa901ebc20151f8bc6c3aa901ebd5
:10343800c40151f8c05c711b490206d5469901ebdd
:10344800c301c1e900650133dbb244990978013948
:103458008a420fd13aa901ebc20252f8bc1ca1eb77
:103468000902520206d5469a02ebc302c2e90019c4
:0c3478000133dbb2e2b284e7ffff7f000b
:020000040000fa
:020000040101f8
:1034840070b5794b794e1a68794d052060f31f7237
:103494001a6014f0c5f977490a8840f23b1060f3ca
:1034a4000f020a80888a40f001008882088840f26e
:1034b400e24464f30f00088001f11402898a41f0a8
:1034c40002011180328f42f0040232872a684ff4dd
:1034d400347161f31a422a6005f570724ff4417039
:1034e4001188a5f57b7460f30f0111802268142103
:1034f40061f31742226004f2b4722830118860f339
:103504000f0111804ff088421946126c02f44052a8
:10351400b2f5005f03f50672304613880cbf24260b
:103524000c2666f307031380534b1a686ff31e527d
:103534001a6003f5407216886ff3070616800a684e
:103544006ff307020a6003f547710a686ff300021c
:103554000a600a686ff341020a600a686ff3041292
:103564000a600a686ff345120a600a686ff38612ec
:103574000a6003f5497216886ff3000616801688f0
:103584006ff34106168016886ff3041616801688aa
:103594006ff34516168016886ff3861616800e682c
:1035a40046f004060e600e6846f008060e601188a8
:1035b40041f004011180118841f008011180226852
:1035c4005c2161f30f222260b0f85021a12161f344
:1035d4000f22a0f85021b0f850218c2161f307028a
:1035e400a0f85021d0f8142101f26f1161f31842b0
:1035f40003f2fc71c0f814210a6842f000520a6018
:103604001a4652f8341f6ff3cf3111601a4652f83c
:10361400541d6ff310411160b0f8082c122161f3ae
:103624004912a0f8082c03f5d2721020118841f435
:1036340000411180118860f3090111802a680f216b
:1036440061f3050203f58e712a600a8842f00302d1
:103654000a802268182161f30702226053f82c2f94
:103664006ff342021a6070bd0c3a0141002401411b
:0c36740054380141043e0141043701417b
:020000040000fa
:020000040101f8
:103680002de9f04f51ec100b0c0d013c40f2fd7593
:10369000ac4285b016d906186f4d41eb01070024e6
:1036a000bd4208bfb4420ad3b7f5001f08bf002ec1
:1036b000c0f0b180002871f10003c0f2a48005b011
:1036c000bde8f08f03a810f05ff957a3d3e90023fa
:1036d00055ec104ba242ab41ddf80c8075db0022ab
:1036e0005e4b10ee100a294614f0cef80d46044643
:1036f00045ec104b4ff0ff300ef0bcfc0022574b56
:1037000051ec100bfef746ff02460b4620462946b9
:10371000fff7a6fc08f1ff3804460d4622462b466b
:103720002046294603f0ecff06460f4602460b46ac
:103730004b48022108f058f832463b4682468b46f9
:10374000484803210bf02afbcde90001404612f066
:1037500082ff37a3d3e90023804689465046594665
:1037600014f092f8dde90023fff77afc32463b467d
:1037700003f0c6ff22462b4603f0c2ff22462b462b
:10378000fef708ff2ca3d3e9002304460d4640466c
:10379000494603f0b5ff02460b4620462946fef790
:1037a000f9fe27a3d3e9002304460d4640464946c7
:1037b00003f0a6ff02460b4620462946fef7eafe26
:1037c00041ec100b05b0bde8f08f0022264b10ee47
:1037d000100a294614f058f845ec104b06464ff0f5
:1037e000ff300f460ef046fc00221c4b51ec100b34
:1037f000fef7d0fe02460b4630463946fff730fc56
:1038000004460d468ae79fed100b184b21221a60e3
:1038100005b0bde8f08f9fed0e0b144b22221a600d
:1038200005b0bde8f08f00bfcd3b7f669ea0e63fb0
:103830009ab5b312ff075040a80c615c10d02bbfa3
:10384000000000000030e63f000000000000f87fac
:10385000000000000000f0ff0000e0ff0000e03f7b
:1038600028600201386002010000f03feca900204e
:020000040000fa
:020000040101f8
:10387000f7b54388042b044605d0082120460af0fa
:1038800055fb03b0f0bd806d0191e43001a913f048
:1038900063fea06d01a9e53013f05efea06d01a9e5
:1038a000e63013f059fea06d01a9e73013f054fe85
:1038b000a06d01a9e83013f04ffea06d01a9e93019
:1038c00013f04afea36d93f8e72084f8522093f892
:1038d000e620d00704d55d4a12685278d10701d49a
:1038e00001225a71a26d92f8e730073b092b01d9ea
:1038f0000621c3e792f8e630544d13f0080f2b6809
:1039000003d19b7923b10321b8e75b78c3f3c003ec
:1039100084f8553020460bf07bf904f15c070ff07a
:10392000c9fb4b49384604f089fba66d737813f147
:10393000ff3218bf012284f8542094f85520002a41
:103940004dd0012b07d096f8e7300f2b03d838461f
:1039500005f01effcce794f8533083b9022011f034
:10396000f3ff002837d12b68da789ab13949402221
:1039700004f1120013f064f9022384f85330204656
:103980000df038fd04f1120120460ff070fb0b23ff
:10399000a37076e77278032a06d1996821b191f86d
:1039a00050300bb14022e3e72b4813f049fd0646a7
:1039b00000287ff462af2868022384f85330103067
:1039c00005f0e6fe2b6883f828609b680bb183f84e
:1039d00050600a23dce7012384f85330f9e72046de
:1039e0000df008fda36d93f8e920d2075cbf01221a
:1039f0005a71a16d4b78012b0ad120466f3102f02c
:103a00005ffba16d204601f5d8710df0ddfa38e7b6
:103a1000022b13d12b681b78022b03d120460ff009
:103a2000e5f92ee7042b05d191f8e430022b01d003
:103a3000042bf3d1204612f0dbfd22e7032b7ff4a9
:103a400020af204612f0e5fd1be700bfa4a900202f
:0c3a5000a064d101c8380201f934020161
:020000040000fa
:020000040101f8
:103a5c00f8b56f4a6f4f704c704ea17100233b70dc
:103a6c0013706f4b30801880e1b9642011f092fc18
:103a7c004ef280330340b3f5025f04d042f2ff01f3
:103a8c00642010f083fd3d2011f084fc4ff6e173af
:103a9c0003404ef24032934204d04ef254313d205a
:103aac0010f074fd622011f075fc4ff08243a17987
:103abc009a69237cd2b2a2f10b0cdcf1000242eb2e
:103acc000c0262f30003237403f0010320f4e352ad
:103adc000b4322f01f0200f07f0551d0012905bfd6
:103aec0000233b7033783378a2810cbf1a3b193b0f
:103afc00edb20129e370657131d12e23494ea370cb
:103b0c00002200bf5f1c59b202d15ab1a17009e06a
:103b1c00f75caf424ff0010203f1ff311dd3e278a5
:103b2c001344a370637c801260f302030820637457
:103b3c0011f030fc20f01e03e381637c401060f335
:103b4c00c6036ff3c713637494f902302370637068
:103b5c002371354bc4f81230f8bd0b46d2e71f2346
:103b6c00324ea370002200bf5f1c59b2cdd0f75c5f
:103b7c00af424ff0010203f1ff31d0d20b46f3e715
:103b8c00317822811d39c9b2edb22922284fe1705a
:103b9c006571a270b2f1ff3f56b202d15bb1a67053
:103bac0009e017f802c0ac454ff0010302f1ff36f3
:103bbc002bd30a44a270237c801260f343030820a9
:103bcc00237411f0e7fb20f01e036381237c40106b
:103bdc0060f307136420237411f0dcfb20f4e3532f
:103bec0023f01f03a381637c801260f302033d204a
:103bfc00637411f0cffb20f01e03e381637c401053
:103c0c0060f3c60363f07f039de73246c2e700bf53
:103c1c0013aa002014aa0020cca70020fea9002083
:103c2c00fca9002090540201cec4baf65c680201d3
:043c3c00745b0201b2
:020000040000fa
:020000040101f8
:103c40002de9ff4100230293adf80430c37a012b24
:103c5000044601a902a82dd111f08cfe029ae36b53
:103c6000218f1a44bdf804300b449bb240f2e1416d
:103c70008b42c2f31602029285bfa3f2e2430132e5
:103c8000adf80430adf8043088bf0292a37b029ee9
:103c9000002b55d1276cbc423d6e43d0dff87c81b0
:103ca000ab1b5b0209d5786c11f0f6fd054405ea03
:103cb0000805f5e711f05efee8e7606c11f0ecfd39
:103cc000284400ea0800801b40f27125c0f316006a
:103cd000bdf804306843b4f8705005eb9305237abf
:103ce000012b4c4b1a680bbf5368136843f4005305
:103cf00043f400530cbf53601360c5eb5005c4f888
:103d00008440294604f1780004f098f9424b1b687e
:103d1000b3f82013a94239d2691a04f1900004f0d3
:103d20008df933e0606c11f0b7fd237a2844012b44
:103d3000c0f31600c7d1a36c002bc4d02066c2e725
:103d4000206e801b40f27123c0f3160058430128f7
:103d500088bfbdf804304fea500588bfa5eb930536
:103d6000b4f8703003f27122aa4212d9636d2bb1fc
:103d700093f84f2042f0080283f84f20204612f0bb
:103d800015fc00222146207a0af088f804b0bde82c
:103d9000f081ed1ae37ac4f88440012b0df106019d
:103da00003a833d111f0e6fd039ae36b218f1a4487
:103db000bdf806300b449bb240f2e1418b42c2f3a6
:103dc0001602039285bfa3f2e2430132adf806303a
:103dd000adf8063088bf0392dde902239a4204d190
:103de000bdf80630b3f5966f01d3a5f59c75237a1f
:103df000012b084b1a680bbf5368136843f4005338
:103e000043f400530cbf536013607ae711f0b2fd26
:103e1000e2e700bf98a9002094a90020ffff7f00df
:020000040000fa
:020000040101f8
:103e20002de9f04f1646a1b0102281460c460deb4d
:103e300002000021984613f0edf9304613f06cfdb6
:103e4000074600287ed0a319421ea3427dd118ad9b
:103e500010220021284613f0ddf90df1500a10223e
:103e600000211ca813f0d6f9872310220021504608
:103e70008df87f3013f0cef910aa5146484607f06e
:103e80002dfb0cac10aa0023d17b19550133102b4c
:103e900002f1ff32f8d19df93030002b5adb04a932
:103ea000204612f0fbfd9df91030002b5cdb08a9c9
:103eb00004a812f0f3fd06f10f00000906f00f064a
:103ec0005cd01ffa80fb002e5ad100f180500138df
:103ed00010aa04a907eb001013f08ef8102200219d
:103ee000684613f097f900260bf1ff339e422246f5
:103ef00065d310a9684613f07ff80023e27bea54eb
:103f00000133102b04f1ff34f8d11caa294648468e
:103f100007f0e4fa1cab0022d97b0df80210013245
:103f2000102a03f1ff33f7d10df10f02002300bf78
:103f300012f8011908f803100133102bf8d1384694
:103f400013f0ecfc21b0bde8f08f13f8011d02f86e
:103f5000011f7ae72946204612f0a0fd04aa1ca9f9
:103f6000284613f049f89ee7294604a812f096fd6a
:103f700008aa1ca9284613f03ff89ce74ff0010b54
:103f80000bf18053013b1a010023b6b21946802081
:103f90001ffa83fc66450cd907eb020c1cf803c022
:103fa0000af803c00133102bf2d110aa08a9504619
:103fb00092e70cbf0af803000af80310f2e707ebd8
:103fc0000611684613f018f80023d17be954013339
:103fd000102b02f1ff32f8d11caa2946484607f0ff
:103fe0007dfa1caa0023d17b0df803100133102b9e
:0c3ff00002f1ff32f7d10136b6b275e7de
:020000040000fa
:020000040101f8
:103ffc00f7b590f84d3004460e4633b919b10b782d
:10400c00837280f8523003b0f0bd032bfbd1684da6
:10401c002b68d3f8303303b1984794f85220a2722e
:10402c0094f851302a68237202eb8303614fd3f862
:10403c009812a14204bf0021c3f89812d2f8a03202
:10404c00a34204bf0023c2f8a032237a3a68012ba2
:10405c0015bf1368536843f4806343f4806314bf43
:10406c0013605360042384f84d3000238df807301f
:10407c005eb13378a372337884f85230737823b1fd
:10408c000df1070120460bf03ffb2b680022c3f813
:10409c00a422637f13b1204612f085fc2a68d2f863
:1040ac0098320bb9d2f89c32c2f8a032002b5ed0f9
:1040bc0093f84d30022b5ad112f084fc94f8503006
:1040cc00de0748bf23f0010343f0020384f85030ad
:1040dc0094f84f30d8070ed523f00103002684f84e
:1040ec004f30204666720cf0edf9334632463249b9
:1040fc0001200cf0d2fd637f03b9a3733a68b4f8c6
:10410c007000118988420dd0a4f870102968b1f89c
:10411c002203a4f87200b1f82413a4f87410528985
:10412c00a4f876204bb194f84e30d90705d420462c
:10413c0012f0e4f82046fff77dfd94f84e30da07d4
:10414c000fd523f0010384f84e30a36d4bb92046f4
:10415c000cf0b8f9a36d23b91a46184901200cf0dc
:10416c009cfd296810f0bef981f834034be792f8f6
:10417c00943223b1002211461046fdf713fc2b6834
:10418c0093f89532002b99d0237a3a68012b0bbf08
:10419c005368136843f4805343f480530cbf53604b
:1041ac00136000221146012009f072fe86e700bf61
:1041bc0094a9002098a900200b010001090100011d
:020000040000fa
:020000040101f8
:1041cc0070b5856d86b00446002d00f0db8095f847
:1041dc002e30de0722d5112013f068fb0646e8b11d
:1041ec0000f11003062104a8049313f079fa2b466e
:1041fc00049953f8a02f0a605a684a609a688a603a
:10420c00da68ca6006230093324600231121208805
:10421c0010f05afd10b1304613f068fba56d95f8ff
:10422c002e30980721d50b2013f040fb0646e0b149
:10423c0000f11003072104a8049313f051fa049b16
:10424c00b5f8b0201a80049a55f8b23f13606b6829
:10425c00536006230093324600230b21208810f074
:10426c0033fd10b1304613f041fba56d95f82e309f
:10427c00590722d5112013f019fb0646e8b100f1bd
:10428c001003082104a8049313f02afa2b4604996e
:10429c0053f8bc2f0a605a684a609a688a60da68d8
:1042ac00ca6006230093324600231121208810f0a7
:1042bc000bfd10b1304613f019fba36d93f82e30a3
:1042cc001a0728d5082013f0f1fa054618b300f1a7
:1042dc001003092103a8039313f002fa0df1110145
:1042ec0004a812f025fa9df8101003a813f0f8f9a1
:1042fc00039bddf811201a60bdf815209a80062367
:10430c0000932a4600230821208810f0ddfc10b110
:10431c00284613f0ebfaa56d95f82e30db0622d566
:10432c00112013f0c3fa0646e8b100f110030a217c
:10433c0004a8049313f0d4f92b46049953f8d32f03
:10434c000a605a684a609a688a60da68ca6006230a
:10435c000093324600231121208810f0b5fc10b1d7
:10436c00304613f0c3faa36d93f8ea2052b95b7987
:10437c0013b9204608f014fda06d18b113f0c8fa5b
:08438c000023a36506b070bd1b
:020000040000fa
:020000040101f8
:1043940080b58ab000af7860f6f726f8554b984799
:1043a40001f02af9544b1b6823f49f7323f0010393
:1043b400514a43f01103136004f09afe13f0aef86f
:1043c400f4f7cefdfbf766fb002110200af0b4f8e9
:1043d4000120f5f7abff494b494a1a60474b494a5c
:1043e4005a60464b484a9a60444b484ada60434b09
:1043f400474a1a61414b474a5a61404b464a9a61bf
:104404003e4b464ada613d4b454a1a623b4b454aac
:104414005a623a4b444a9a62384b444ada62374bfe
:10442400434a1a63354b434a5a63344b424a9a63ac
:10443400324b424ada63314b414a1a644149002003
:10444400f8f7d2f80246404b1a60042220213f4874
:1044540000f080f807f11c030c220021184612f02a
:10446400d7fe07f11c0302331846f9f7ccf80346cc
:104474001a467b7f62f300037b7707f11c03093341
:104484001846f9f7d2f803461a467b7f62f34103d4
:104494007b7707f11c031846f9f7eef8034683f01f
:1044a4000103dbb2002b01d003233b7707f10803a0
:1044b40014220021184612f0abfe3b7d6ff300037b
:1044c4003b754ff4e043bb60214bfb600023bb61b1
:1044d40007f11c0307f1080208491c4806f008fc10
:1044e40010f094f907f03afefdf7bcf900bf283745
:1044f400bd4680bd89ab002000240144200000207b
:1045040009030101350301016103010125040101ce
:104514006704010191040101dd0401015945010110
:10452400194601015f460101ad460101f34601014f
:104534008b450101b7450101e5450101cb050101a9
:10454400e30501010c5c02011c000020180000209e
:04455400008c0120b6
:020000040000fa
:020000040101f8
:1045580080b584b000aff860b9607a6000227968ed
:10456800b868f2f70bf80246fb681a60fb681b682c
:10457800002b01d1002300e0012318461037bd4667
:1045880080bd80b582b000af786039603868f2f7d6
:104598009afe02467b681a607b681b68002b01d173
:1045a800002300e0012318460837bd4680bd80b5ca
:1045b80082b000af786039607b681a683b681b6816
:1045c80019461046f2f78efe0346012b01d101234e
:1045d80000e0002318460837bd4680bd80b584b08a
:1045e80000aff860b9607a60bb681b6879681846e4
:1045f800f2f7bdfe0246fb681a60fb681b68002bd9
:1046080001d1002300e0012318461037bd4680bdc4
:1046180080b586b000aff860b9607a6000237b612e
:104628007b68b3f1ff3f03d14ff0ff337b6101e0bb
:104638007b687b61fb68186800237a69b968f2f7c0
:104648004ff80346012b01d1012300e0002318464f
:104658001837bd4680bd80b584b000af786039603a
:104668000023fb607b68186807f10c020023396897
:10467800f2f7fcf80346012b0cd1fb68002b07d09e
:10468800074b4ff080521a60bff34f8fbff36f8f05
:10469800012300e0002318461037bd4680bd00bf47
:1046a80004ed00e080b586b000aff860b9607a60cc
:1046b80000237b617b68b3f1ff3f03d14ff0ff33e9
:1046c8007b6101e07b687b61fb681b687a69b9687c
:1046d8001846f2f7b2f90346012b01d1012300e095
:1046e800002318461837bd4680bd80b582b000af9c
:1046f80078607b681b681846f2f7cdfd0346012bee
:1047080001d1012300e0002318460837bd4680bdcb
:020000040000fa
:020000040101f8
:104718002de9f047c388172b8cb0074640f0bd80c1
:10472800837a0c2b07d003f0fd03082b03d08020dd
:104738000cb0bde8f0874ff4407013f0e9f88046fc
:104748000028f4d01022002108a812f05ffd5e4b6b
:10475800cdf808801b681c6800250cbb284613f0a0
:10476800d7f80646002800f094802a46414612f001
:104778007bfc404613f0cef804ab2a46314608a825
:10478800fff74afb304613f0c5f83b685a6804ab9c
:1047980003cb1060516003cb9060d1600020c7e765
:1047a800a689e389b34201d22468d6e7b4f80c900d
:1047b8006368a6eb090903eb091999f80e305b0742
:1047c8004fd4d9f8001001a812f086ffbdf80430c4
:1047d800a3f52052032a02d9b3f5245f44d1d9f8ae
:1047e800083093f800a055441ffa85fa0af1040529
:1047f800adb2b5f5407f4cd8314602a812f078ff2b
:10480800bdf8041002a812f073ffd9f80830d9f8df
:1048180004101a7802a812f03bfcbdf8042042f6f6
:1048280002039a421dd1d9f808301b88042b18d1ed
:10483800d9f804100df1060012f04eff03aa04a9de
:10484800bdf8060010f038fb58b10af11405adb2f6
:10485800b5f5407f1dd8049b1022596802a812f0b4
:1048680017fc0136b6b29ce703f55643ff339bb2fb
:10487800042bf6d80435adb2b5f5407f09d83146da
:1048880002a812f035ffbdf8041002a812f030ff9c
:10489800e7e7404613f03ef849e7152b7ff447afaa
:1048a800837a0c2b04d003f0fd03082b7ff43faf71
:1048b800b88810f029fd00283ff439af3b68827aa8
:0c48c8005b681a706ae700bf14a90020aa
:020000040000fa
:020000040101f8
:1048d4002de9f04f002311f0010a87b0cde904332c
:1048e4001fbf654b1b68d3f8a832049311f0100363
:1048f400044601930cd006aa0af1010302eb8a0aca
:104904005d4a1268d2f8b0224af8082c5ffa83fa9a
:104914004ff0000b0df110094ff0ff32cdf800b04d
:1049240040f23913da4500f09980dff8508157e0fe
:1049340086680168c9f80010b44251d0b17b0129de
:1049440030464dd1019919b1b57aa17a8d4247d932
:10495400e17a276e356e012904bfe16b7f1af17a83
:1049640008bf07ea0807012902bff16b6d1a05eabf
:104974000805e91b49023ed5b4f87010b6f876c0b4
:10498400b1fbf3f1bcfbf3fc614401f1020c716e69
:10499400294401ea0801614401ea0801791a49023b
:1049a40042d4b6f87010b4f87600b1fbf3f1b0fb62
:1049b400f3f001440231681a00ea0800a0eb070c86
:1049c4001cf4800f35d1391a490203d4474017ea41
:1049d400080f05d10cea08018a4284bf0a460096f2
:1049e400d9f800000028a3d10bf1010b5ffa8bfb6f
:1049f40009f1040996e7d4f864c0b6f87010b4f865
:104a040076e0b1fbf3f1befbf3fe71440ceb070e51
:104a140002310eea080e714401ea0801691a4902da
:104a2400bfd5c4f86cc001e0636ee36607b0bde8af
:104a3400f08f96f81de0bef1000fc4d0706ccde984
:104a4400022110f027ff0399029a054405ea08059c
:104a5400681a00ea080040f23913afe7636e934224
:104a640002d9e3660098e1e7a36e93428cbfe26645
:104a7400e3660020dae700bf94a90020ffff7f006f
:020000040000fa
:020000040101f8
:104a84002de9f04f07298db0074601d015293fd1f4
:104a9400053901328cb204a805a9059212f0f9f97e
:104aa40005a90df1120012f0f4f908a8224605a98f
:104ab40012f0e6fa38460ef0b5fa68bb22465949b8
:104ac40008a812f0adf8002840f0a380bdf810004b
:104ad400002800f0a080bdf81210884200f29b80ec
:104ae400e4b207ad06ae0195009608ab224609f084
:104af40039fb8346002800f09280069b3888da7bd5
:104b0400012108f053f880b270b1adf810b003e0a1
:104b14000023adf810300420c3b2bdf810201021da
:104b2400384608f001fd41e0b88812f0c3fe824621
:104b3400002872d0069b9b68b3f8008008f1040932
:104b440000f11003112105a81ffa89f9059312f049
:104b5400cbfd5ffa89f105a812f0c6fd594605a8f8
:104b640012f0c8fd079b05a8d98912f0c3fd069b66
:104b74009a685968128805a812f08cfa08f1060898
:104b84001ffa88f8079bd8894ff6ff73984204d020
:104b9400bb8808eb090b9b450bdd52464146384662
:104ba40011f023ff10b1504612f0a4fe0db0bde881
:104bb400f08f013080b2cde9006508ab2246bdf824
:104bc4001210adf8100009f0cdfa03900028e4d0db
:104bd40006998a68128804324a45ded1ca7b38882d
:104be400012107f0e3ff0028d7d1039b05a819464c
:104bf40012f080fd079b05a8d98912f07bfd069b66
:104c04009a685968128805a812f044fa1ffa8bf8ba
:104c1400b8e7102080e701207ee711207ce70a2016
:084c24007ae700bfe63f020140
:020000040000fa
:020000040101f8
:104c2c002de9ff470025044689461f46057001f112
:104c3c00ff3813780bb145450bd3624b1b7803b986
:104c4c002370454588bf09f10105284604b0bde82d
:104c5c00f087252b07d05b49097811b904f8013b83
:104c6c0001350132e5e75378252b37d0561c3378c4
:104c7c00302b4ff000001ad101464ff00a0c725c39
:104c8c00a2f13003dbb2092b0ed922f0200eaef1cb
:104c9c00410ea2f16103bef1050fdbb206d8052b64
:104cac0026d8a2f15703dbb2092b29d90e4433784d
:104cbc006c2b08bf01363378702b5fd027d8632b51
:104ccc0039d0642b51d0582b3ad13e4b3a681b78d3
:104cdc0003920437002b68d1019058e039490978c8
:104cec00961c0029c3d104f8013b01353246a0e7dc
:104cfc00a2f14103052b02d8a2f13703d3e700231d
:104d0c0001310cfb0030735c002bb8d1cee7752b56
:104d1c0018d0782bd9d0732b12d13b680437013bb8
:104d2c005a1c0dd013f8012f52b1454508d204f886
:104d3c00012b0135f4e73b6804f8013b04370135de
:104d4c00721c76e71f4b3a681b78039204370bbb37
:104d5c00019000930a23a8eb050120460af0e0f924
:104d6c005ffa80fa54445544eae7164b3a681b78cc
:104d7c000392043773b901900123eae7114b3a68a7
:104d8c001b78039204372bb904230193012300935e
:104d9c001023e0e7002808bf04205ffa80fa52468f
:104dac0003a9204611f046ffdce740b1c107c0f370
:104dbc00470af4d50af1010a5ffa8afaefe74ff0d5
:084dcc00010aece70aaa00202d
:020000040000fa
:020000040101f8
:104dd4002de9f74f0546008912f088fd002800f000
:104de400c2802889ec6810f091fa0546002800f08a
:104df400bc8083886788033b9f4200f2b68094f8a6
:104e0400f860122e37d190f84630002b40f0a7807e
:104e140007f103091ffa89f94846b4f800a012f013
:104e240049fd8046002800f09c8000f110033146c3
:104e340001a8019312f058fc514601a812f05afc43
:104e4400211d3a46019811f0f9fe4246494628468a
:104e540011f0cbfd0446a0bb85f84660a5f848a038
:104e6400a5f85e00424905f1540003f0e5f8204638
:104e740003b0bde8f08f522e27d107f103091ffac2
:104e840089f9484634f804ab12f014fd8046002832
:104e940067d000f11003314601a8019312f024fcfd
:104ea400514601a812f026fc21463a46019811f019
:104eb400c5fe42464946284611f097fd044600289f
:104ec400d5d0404612f016fdd1e7162e1dd190f82c
:104ed4004630002b43d107f105091ffa89f94846ea
:104ee400b4f800a0b4f8fab012f0e4fc8046c0b301
:104ef40000f11003314601a8019312f0f5fb51466d
:104f040001a812f0f7fb594697e7182e2dd194f813
:104f1400fc70012f29d890f8463003bb0220b4f866
:104f2400008012f0c7fc0646d8b100f11003182126
:104f340001a8019312f0d8fb394601a812f0d4fb62
:104f440032460221284611f050fd044628b91823a0
:104f540085f84630a5f8488082e73046b2e7072452
:104f640085e7022483e7042481e703247fe700bf65
:044f7400a064d10163
:020000040000fa
:020000040101f8
:104f78002de9f7430546352012f0cafc04461020f7
:104f880012f0c6fc0646102012f0c2fc07460cb10f
:104f980006b150b95c4b009300220423c321ee20d4
:104fa80004f0dafc03b0bde8f083584a13680360e4
:104fb8005368436093688360d368c360a96d3346c0
:104fc80020222f31fef728ff95f8038050484ff430
:104fd800807904f1020e2b1d04f1090c05f10b0177
:104fe80004f11002a4f80090b8f1000f4ed1d3f8e4
:104ff8000090c4f80290b3f80490aef804909b793e
:105008008ef806300b68c4f809308b88acf8043089
:105018008b798cf80630a96d01f5c0710b68236196
:105028004b6853608b689360cb68d360aa6d02f5b8
:10503800e072214613682362536863629368a3622f
:10504800d368e3620123206384f83430ab6d3522e2
:10505800a0333046fef7e0fea96d2846a0310ef0d9
:10506800e1f984f83480ab6d3522063321463046a9
:10507800fef7d2fe204612f04dfc304612f04afcf4
:10508800384603b0bde8f04312f044bcd1f80080c4
:10509800c4f80280b1f80480aef8048089798ef8eb
:1050a80006101968c4f809109988acf804109b799f
:1050b8008cf80630a96d01f5c0710b6823614b6847
:1050c80053608b689360cb68d360aa6d02f5e07279
:1050d800214613682362536863629368a362d368a6
:1050e800e3620123206384f83430ab6d3522a033aa
:1050f8003046fef791fea96d2846a0310ef092f9d0
:10510800002384f83430aee738710201507402018c
:04511800656c7462ec
:020000040000fa
:020000040101f8
:10511c002de9ff41614b05681e7895f80f80604cb6
:10512c00342303fb0653074693f88720013283f898
:10513c0087205c4b1b78abb1d4f86c3f1b0511d4aa
:10514c00d4f8603f98050dd4574b1b681bb900234e
:10515c008df808302ae098470028f8d0534b1b787c
:10516c00002bf4d112f004fba0b3d4f86c3fd9049b
:10517c00c3f300322ed4d4f8683f1b032ad508f0b1
:10518c00fd08b8f1010f25d1d4f8603f980521d561
:10519c00d4f8683f99001dd54549d4f8683f097883
:1051ac00c3f30263994215d08df8082002a9384642
:1051bc0010f008f9d4f8283143f00803c4f828316a
:1051cc00d4f8283143f00403c4f82831002004b08b
:1051dc00bde8f081ff238df8013011f0e3ff40bbf7
:1051ec0012f0c0fa28bbd4f86c3f1b0521d40df18a
:1051fc00020201a928460df043f98046c8b9019b6b
:10520c001a68cdf809209b88adf80d309df8022066
:10521c009df808300df1010162f3000302a88df82e
:10522c00083009f0d9fa20b18df803800df1030193
:10523c00bde7342303fb0653d4f8201193f85e200a
:10524c0002eb116283f85e20d4f8202193f85f10f2
:10525c00c2f307420a4483f85f20d4f828319df842
:10526c00011043f00803c4f82831d4f8283128463b
:10527c0043f00403c4f8283105f002fe6b7c012bcb
:10528c0005d128460ff0d2fc00287ff460af2846e9
:10529c000bf068fc0bf04ef998e700bf1baa00203e
:1052ac00002401411caa0020bca900201daa00203a
:0452bc001eaa002006
:020000040000fa
:020000040101f8
:1052c000f7b50d78ff2d04460e4600f08480342398
:1052d00003fb050393f88020012a40f0a58093f892
:1052e0005e10594a41b193f85c1029b9d2f81c11eb
:1052f000c1f3c30183f85d10544b1968342303fbd9
:105300000543c1f3411183f86010d2f84411a3f8aa
:105310006210d2f84411c1f30f41a3f86410d2f81f
:105320004811c1f30801a3f86610d2f84811c1f37f
:105330000f41a3f86810d2f84c11a3f86a10d2f804
:105340004c21c2f30842a3f86c20414b1b68002b90
:105350005ad100273f4b1b6863b129462046984726
:1053600040b12a460221204603f0c8fdb37843f03d
:105370004003b3703a46294620460ef047fd3423d9
:10538000002855d003fb054393f85d30072b4dd023
:10539000217b2a4601b10121204603f0affd637c49
:1053a000012b03d12946204603f026fe342303fbbc
:1053b000054393f88030012b07d1274b1a686ff310
:1053c000db621a60002009f065fc342303fb05450d
:1053d000002385f88030a3680093b6f801301f4998
:1053e0005bbaadf80430f3788df8063033788df879
:1053f000073008226b4601200bf055fc3146204651
:105400000ef0e0f803b0f0bd294620469847074665
:1054100000289ed02a460321204603f06ffdb37872
:1054200063f07f03b37095e70027a3e72a46b2e74e
:105430007278012ab3d103fb054393f88920002a2f
:10544000add083f88900aae700240141c0340141ae
:10545000c0a90020c4a900200c3a014104010101a7
:020000040000fa
:020000040101f8
:1054600037b5428840f201139a4204460d4605d0f2
:105470000821204608f05afd03b030bd06f0b8fd03
:105480000028f5d1a06d019501a9e43012f064f86f
:10549000a06d01a9e53012f05ff8a06d01a9e6301a
:1054a00012f05af8a06d01a9e73012f055f8a06d7e
:1054b00001a9e83012f050f8a06d01a9e93012f00e
:1054c0004bf8a36d93f8e72084f85220a27a83f872
:1054d00058212346a26d53f8041fc2f859119b8826
:1054e000a2f85d31a36d93f8e620d50704d5414ab3
:1054f00012685278d00701d401225a71a26d92f835
:10550000e730073b092b01d90621b2e792f8e630d4
:10551000384d13f0080f2b6803d19b7923b1032179
:10552000a7e75b78c3f3c00384f85530204609f041
:105530006ffb2b68da7932b15b78590703d5a36d1d
:105540005b78012bebd020460df0b4fda36d5a78ab
:1055500012f1ff3118bf012184f8541094f855104e
:10556000002940d0012a03d093f8e7200f2acbd995
:1055700093f8e82022f0090283f8e820a26d92f85f
:10558000e93023f0090382f8e930a26d92f82c305b
:1055900092f8e8100b4023f0040382f82c30a26d3f
:1055a00092f82d3092f8e9100b4023f0040382f8b2
:1055b0002d3002231049a37004f15c0002f03efd7f
:1055c000082012f0a9f9014600283ff455af062340
:1055d000037023888380a36d93f8e63083710820dd
:1055e00012f01bf948e793f8e920d2075cbf0122cb
:0c55f0005a71cae7a4a90020a064d101f0
:020000040000fa
:020000040101f8
:1055fc0080b483b000af00bf4ff08843d3f80031c4
:10560c0003f40073002bf7d000237b607b6801331d
:10561c007b60564b5b6a03f00103012b03d07b6864
:10562c00b3f5fa5ff2d37b68b3f5fa5f12d34f4b45
:10563c005b6a03f00103012b0cd04c4b5b684b4aab
:10564c0043f48073536000bf484b5b6a03f0010363
:10565c00012bf9d1464bb3f8ba349bb2444a03f050
:10566c00fd039bb2a2f8ba3400237b607b68013344
:10567c007b603e4b5b6a03f00303032b03d07b6818
:10568c00b3f5fa5ff2d37b68b3f5fa5f12d3374bfd
:10569c005b6a03f00303032b0cd0344b5b68334a77
:1056ac0043f40073536000bf304b5b6a03f0030399
:1056bc00032bf9d14ff088430022c3f8b0204ff0f0
:1056cc0088432c4ac3f8b0204ff088432a4ac3f8c9
:1056dc00b0202a4b2a4a1a62284b4ff480721a6067
:1056ec00264b01229a6000bf244b1b6803f0010378
